{"contracts/ReferralNetwork.sol":{"ReferralNetwork":{"abi":[{"inputs":[{"internalType":"address","name":"_stablecoin","type":"address"}],"stateMutability":"nonpayable","type":"constructor"},{"inputs":[{"internalType":"address","name":"owner","type":"address"}],"name":"OwnableInvalidOwner","type":"error"},{"inputs":[{"internalType":"address","name":"account","type":"address"}],"name":"OwnableUnauthorizedAccount","type":"error"},{"inputs":[],"name":"ReentrancyGuardReentrantCall","type":"error"},{"anonymous":false,"inputs":[{"indexed":true,"internalType":"address","name":"referrer","type":"address"},{"indexed":true,"internalType":"address","name":"buyer","type":"address"},{"indexed":false,"internalType":"uint256","name":"level","type":"uint256"},{"indexed":false,"internalType":"uint256","name":"amount","type":"uint256"}],"name":"CommissionPaid","type":"event"},{"anonymous":false,"inputs":[{"indexed":true,"internalType":"address","name":"previousOwner","type":"address"},{"indexed":true,"internalType":"address","name":"newOwner","type":"address"}],"name":"OwnershipTransferred","type":"event"},{"anonymous":false,"inputs":[{"indexed":true,"internalType":"address","name":"user","type":"address"},{"indexed":true,"internalType":"address","name":"referrer","type":"address"}],"name":"ReferrerSet","type":"event"},{"inputs":[],"name":"LEVEL1_PCT","outputs":[{"internalType":"uint256","name":"","type":"uint256"}],"stateMutability":"view","type":"function"},{"inputs":[],"name":"LEVEL2_PCT","outputs":[{"internalType":"uint256","name":"","type":"uint256"}],"stateMutability":"view","type":"function"},{"inputs":[],"name":"LEVEL3_PCT","outputs":[{"internalType":"uint256","name":"","type":"uint256"}],"stateMutability":"view","type":"function"},{"inputs":[{"internalType":"address","name":"","type":"address"},{"internalType":"uint256","name":"","type":"uint256"}],"name":"directReferrals","outputs":[{"internalType":"address","name":"","type":"address"}],"stateMutability":"view","type":"function"},{"inputs":[{"internalType":"address","name":"buyer","type":"address"},{"internalType":"uint256","name":"totalAmount","type":"uint256"}],"name":"distributeCommissions","outputs":[],"stateMutability":"nonpayable","type":"function"},{"inputs":[{"internalType":"address","name":"user","type":"address"}],"name":"getReferralChain","outputs":[{"internalType":"address","name":"level1","type":"address"},{"internalType":"address","name":"level2","type":"address"},{"internalType":"address","name":"level3","type":"address"}],"stateMutability":"view","type":"function"},{"inputs":[{"internalType":"address","name":"user","type":"address"}],"name":"hasReferrer","outputs":[{"internalType":"bool","name":"","type":"bool"}],"stateMutability":"view","type":"function"},{"inputs":[],"name":"nexumManager","outputs":[{"internalType":"address","name":"","type":"address"}],"stateMutability":"view","type":"function"},{"inputs":[],"name":"owner","outputs":[{"internalType":"address","name":"","type":"address"}],"stateMutability":"view","type":"function"},{"inputs":[{"internalType":"address","name":"","type":"address"}],"name":"referrer","outputs":[{"internalType":"address","name":"","type":"address"}],"stateMutability":"view","type":"function"},{"inputs":[],"name":"renounceOwnership","outputs":[],"stateMutability":"nonpayable","type":"function"},{"inputs":[{"internalType":"address","name":"_manager","type":"address"}],"name":"setNexumManager","outputs":[],"stateMutability":"nonpayable","type":"function"},{"inputs":[{"internalType":"address","name":"user","type":"address"},{"internalType":"address","name":"_referrer","type":"address"}],"name":"setReferrer","outputs":[],"stateMutability":"nonpayable","type":"function"},{"inputs":[],"name":"stablecoin","outputs":[{"internalType":"contract IERC20","name":"","type":"address"}],"stateMutability":"view","type":"function"},{"inputs":[{"internalType":"address","name":"","type":"address"}],"name":"totalEarned","outputs":[{"internalType":"uint256","name":"","type":"uint256"}],"stateMutability":"view","type":"function"},{"inputs":[{"internalType":"address","name":"newOwner","type":"address"}],"name":"transferOwnership","outputs":[],"stateMutability":"nonpayable","type":"function"}],"evm":{"bytecode":{"linkReferences":{},"object":"60a03461012157601f610e5c38819003918201601f19168301916001600160401b038311848410176101265780849260209460405283398101031261012157516001600160a01b0380821691829003610121573315610108576000543360018060a01b0319821617600055604051913391167f8be0079c531659141344cd1fd0a4f28419497f9722a3daafe3b4186f6b6457e0600080a36001805581156100d15750608052604051610d1f908161013d8239608051818181610171015281816106430152818161077c01526108a10152f35b62461bcd60e51b815260206004820152601260248201527124b73b30b634b21039ba30b13632b1b7b4b760711b6044820152606490fd5b604051631e4fbdf760e01b815260006004820152602490fd5b600080fd5b634e487b7160e01b600052604160045260246000fdfe6080604081815260048036101561001557600080fd5b600092833560e01c90816302fb1b8514610b6c5750806305ad393514610b1157806318452cd814610ad45780632cf003c214610a99578063649aca4a14610a615780636667864d146109df578063715018a61461098257806375003aa11461054057806384da436f146105235780638da5cb5b146104fb578063925d7c4414610443578063a1992fb814610426578063bbddaca3146101cd578063d66ee30d146101a4578063e9cbd8221461015c5763f2fde38b146100d357600080fd5b34610158576020366003190112610158576100ec610b88565b906100f5610bd1565b6001600160a01b0391821692831561014257505082546001600160a01b0319811683178455167f8be0079c531659141344cd1fd0a4f28419497f9722a3daafe3b4186f6b6457e08380a380f35b51631e4fbdf760e01b8152908101849052602490fd5b8280fd5b5050346101a057816003193601126101a057517f00000000000000000000000000000000000000000000000000000000000000006001600160a01b03168152602090f35b5080fd5b5050346101a057816003193601126101a05760055490516001600160a01b039091168152602090f35b50346101585781600319360112610158576101e6610b88565b6001600160a01b0360248035828116959094929386860361042257849061021282600554163314610bfd565b169485151580610419575b156103e3578686146103a957858852600260209181835286848b2054166103705790859291878b915b600383106102e9575b505050878a528152828920886bffffffffffffffffffffffff60a01b82541617905587895252862090815492680100000000000000008410156102d85750509061029e91600182018155610ba3565b819291549060031b9184831b921b19161790557f5f7165288eef601591cf549e15ff19ef9060b7f71b9c115be946fa1fe7ebf68a8380a380f35b634e487b7160e01b88526041905286fd5b909192939450168681156103665750888114610333578a52818352838a20548716906000198114610321576001018787949392610246565b634e487b7160e01b8b5260118752858bfd5b845162461bcd60e51b8152808801859052600e818801526d526566657272616c206379636c6560901b6044820152606490fd5b939291889061024f565b835162461bcd60e51b81528087018490526014818701527320b63932b0b23c903430b9903932b332b93932b960611b6044820152606490fd5b815162461bcd60e51b81526020818601526015818501527421b0b73737ba103932b332b9103cb7bab939b2b63360591b6044820152606490fd5b815162461bcd60e51b815260208186015260118185015270496e76616c69642061646472657373657360781b6044820152606490fd5b5086151561021d565b8780fd5b5050346101a057816003193601126101a057602090516107d08152f35b50346101585760203660031901126101585761045d610b88565b90610466610bd1565b6001600160a01b039182169283156104c6576005549283166104955750506001600160a01b0319161760055580f35b906020606492519162461bcd60e51b8352820152600b60248201526a105b1c9958591e481cd95d60aa1b6044820152fd5b906020606492519162461bcd60e51b8352820152600f60248201526e24b73b30b634b21036b0b730b3b2b960891b6044820152fd5b5050346101a057816003193601126101a057905490516001600160a01b039091168152602090f35b5050346101a057816003193601126101a05760209051610bb88152f35b50903461015857806003193601126101585761055a610b88565b6005546001600160a01b03926024359290916105799085163314610bfd565b60029081600154146109725781600155831561093e578416938487526020918083528184892054168015158061084a575b156108435788528083528184892054165b828116908115159081610724575b501561071b5788528252808388205416955b81871694856105ed575b886001805580f35b6107d0808202918204036107085790612710899204928361060f575b506105e5565b855163a9059cbb60e01b81526001600160a01b039099169189019182526020820184905284928992839190829060400103927f0000000000000000000000000000000000000000000000000000000000000000165af19586156106fe577f7161a6d15990a776271cac78139f4808bc04ae5936b9c96a3aece1acb7877b3f9495966106a19189916106d1575b50610c88565b848752600382528287206106b6828254610cc6565b905582519160038352820152a3388080808080868180610609565b6106f19150843d86116106f7575b6106e98183610c38565b810190610c70565b3861069b565b503d6106df565b83513d89823e3d90fd5b634e487b7160e01b895260118252602489fd5b505086956105db565b610bb88802610bb71989820401610830576127108c910491878361074b575b5050506105c9565b895163a9059cbb60e01b81526001600160a01b03909216828e0190815260208101859052829081906040010381858b7f0000000000000000000000000000000000000000000000000000000000000000165af1908115610826578b938a846107e07f7161a6d15990a776271cac78139f4808bc04ae5936b9c96a3aece1acb7877b3f9583958e8c9992610809575b5050610c88565b85815260038c52206107f3828254610cc6565b90558151908882528a820152a3388a8187610743565b61081f9250803d106106f7576106e98183610c38565b388e6107d9565b89513d84823e3d90fd5b634e487b7160e01b8c5260118b5260248cfd5b50876105bb565b6113888702611387198882040161092b5761271090048061086c575b506105aa565b865163a9059cbb60e01b81526001600160a01b038416818c01908152602081018390528c91908890829081906040010381858b7f0000000000000000000000000000000000000000000000000000000000000000165af1908115610826578b938a846109047f7161a6d15990a776271cac78139f4808bc04ae5936b9c96a3aece1acb7877b3f9583958e8c9992610809575050610c88565b85815260038c5220610917828254610cc6565b9055815190600182528a820152a338610866565b634e487b7160e01b8b5260118a5260248bfd5b825162461bcd60e51b8152602081880152600e60248201526d125b9d985b1a5908185b5bdd5b9d60921b6044820152606490fd5b8251633ee5aeb560e01b81528690fd5b83346109dc57806003193601126109dc5761099b610bd1565b80546001600160a01b03198116825581906001600160a01b03167f8be0079c531659141344cd1fd0a4f28419497f9722a3daafe3b4186f6b6457e08280a380f35b80fd5b5050346101a05760203660031901126101a057606091906001600160a01b0380610a07610b88565b1683526002602052818320548116928315610a58578381528183818082852054165b16928315610a4f578381526002602052205416905b835194855260208501521690820152f35b91505090610a3e565b81838183610a29565b5050346101a05760203660031901126101a05760209181906001600160a01b03610a89610b88565b1681526003845220549051908152f35b5050346101a05760203660031901126101a0576020916001600160a01b0390829082610ac3610b88565b168152600285522054169051908152f35b5050346101a05760203660031901126101a0576020916001600160a01b0390829082610afe610b88565b1681526002855220541615159051908152f35b5091346109dc57816003193601126109dc57610b2b610b88565b6001600160a01b03908116825260209390935281812080546024359492908510156109dc5750602093610b5d91610ba3565b92905490519260031b1c168152f35b8490346101a057816003193601126101a0578061138860209252f35b600435906001600160a01b0382168203610b9e57565b600080fd5b8054821015610bbb5760005260206000200190600090565b634e487b7160e01b600052603260045260246000fd5b6000546001600160a01b03163303610be557565b60405163118cdaa760e01b8152336004820152602490fd5b15610c0457565b60405162461bcd60e51b815260206004820152600c60248201526b27b7363c9036b0b730b3b2b960a11b6044820152606490fd5b90601f8019910116810190811067ffffffffffffffff821117610c5a57604052565b634e487b7160e01b600052604160045260246000fd5b90816020910312610b9e57518015158103610b9e5790565b15610c8f57565b60405162461bcd60e51b815260206004820152600f60248201526e151c985b9cd9995c8819985a5b1959608a1b6044820152606490fd5b91908201809211610cd357565b634e487b7160e01b600052601160045260246000fdfea2646970667358221220090b384d5d33216c15dbe076af793b61972f7777aa3b0867713bb76fd5a268fd64736f6c63430008140033","opcodes":"PUSH1 0xA0 CALLVALUE PUSH2 0x121 JUMPI PUSH1 0x1F PUSH2 0xE5C CODESIZE DUP2 SWAP1 SUB SWAP2 DUP3 ADD PUSH1 0x1F NOT AND DUP4 ADD SWAP2 PUSH1 0x1 PUSH1 0x1 PUSH1 0x40 SHL SUB DUP4 GT DUP5 DUP5 LT OR PUSH2 0x126 JUMPI DUP1 DUP5 SWAP3 PUSH1 0x20 SWAP5 PUSH1 0x40 MSTORE DUP4 CODECOPY DUP2 ADD SUB SLT PUSH2 0x121 JUMPI MLOAD PUSH1 0x1 PUSH1 0x1 PUSH1 0xA0 SHL SUB DUP1 DUP3 AND SWAP2 DUP3 SWAP1 SUB PUSH2 0x121 JUMPI CALLER ISZERO PUSH2 0x108 JUMPI PUSH1 0x0 SLOAD CALLER PUSH1 0x1 DUP1 PUSH1 0xA0 SHL SUB NOT DUP3 AND OR PUSH1 0x0 SSTORE PUSH1 0x40 MLOAD SWAP2 CALLER SWAP2 AND PUSH32 0x8BE0079C531659141344CD1FD0A4F28419497F9722A3DAAFE3B4186F6B6457E0 PUSH1 0x0 DUP1 LOG3 PUSH1 0x1 DUP1 SSTORE DUP2 ISZERO PUSH2 0xD1 JUMPI POP PUSH1 0x80 MSTORE PUSH1 0x40 MLOAD PUSH2 0xD1F SWAP1 DUP2 PUSH2 0x13D DUP3 CODECOPY PUSH1 0x80 MLOAD DUP2 DUP2 DUP2 PUSH2 0x171 ADD MSTORE DUP2 DUP2 PUSH2 0x643 ADD MSTORE DUP2 DUP2 PUSH2 0x77C ADD MSTORE PUSH2 0x8A1 ADD MSTORE RETURN JUMPDEST PUSH3 0x461BCD PUSH1 0xE5 SHL DUP2 MSTORE PUSH1 0x20 PUSH1 0x4 DUP3 ADD MSTORE PUSH1 0x12 PUSH1 0x24 DUP3 ADD MSTORE PUSH18 0x24B73B30B634B21039BA30B13632B1B7B4B7 PUSH1 0x71 SHL PUSH1 0x44 DUP3 ADD MSTORE PUSH1 0x64 SWAP1 REVERT JUMPDEST PUSH1 0x40 MLOAD PUSH4 0x1E4FBDF7 PUSH1 0xE0 SHL DUP2 MSTORE PUSH1 0x0 PUSH1 0x4 DUP3 ADD MSTORE PUSH1 0x24 SWAP1 REVERT JUMPDEST PUSH1 0x0 DUP1 REVERT JUMPDEST PUSH4 0x4E487B71 PUSH1 0xE0 SHL PUSH1 0x0 MSTORE PUSH1 0x41 PUSH1 0x4 MSTORE PUSH1 0x24 PUSH1 0x0 REVERT INVALID PUSH1 0x80 PUSH1 0x40 DUP2 DUP2 MSTORE PUSH1 0x4 DUP1 CALLDATASIZE LT ISZERO PUSH2 0x15 JUMPI PUSH1 0x0 DUP1 REVERT JUMPDEST PUSH1 0x0 SWAP3 DUP4 CALLDATALOAD PUSH1 0xE0 SHR SWAP1 DUP2 PUSH4 0x2FB1B85 EQ PUSH2 0xB6C JUMPI POP DUP1 PUSH4 0x5AD3935 EQ PUSH2 0xB11 JUMPI DUP1 PUSH4 0x18452CD8 EQ PUSH2 0xAD4 JUMPI DUP1 PUSH4 0x2CF003C2 EQ PUSH2 0xA99 JUMPI DUP1 PUSH4 0x649ACA4A EQ PUSH2 0xA61 JUMPI DUP1 PUSH4 0x6667864D EQ PUSH2 0x9DF JUMPI DUP1 PUSH4 0x715018A6 EQ PUSH2 0x982 JUMPI DUP1 PUSH4 0x75003AA1 EQ PUSH2 0x540 JUMPI DUP1 PUSH4 0x84DA436F EQ PUSH2 0x523 JUMPI DUP1 PUSH4 0x8DA5CB5B EQ PUSH2 0x4FB JUMPI DUP1 PUSH4 0x925D7C44 EQ PUSH2 0x443 JUMPI DUP1 PUSH4 0xA1992FB8 EQ PUSH2 0x426 JUMPI DUP1 PUSH4 0xBBDDACA3 EQ PUSH2 0x1CD JUMPI DUP1 PUSH4 0xD66EE30D EQ PUSH2 0x1A4 JUMPI DUP1 PUSH4 0xE9CBD822 EQ PUSH2 0x15C JUMPI PUSH4 0xF2FDE38B EQ PUSH2 0xD3 JUMPI PUSH1 0x0 DUP1 REVERT JUMPDEST CALLVALUE PUSH2 0x158 JUMPI PUSH1 0x20 CALLDATASIZE PUSH1 0x3 NOT ADD SLT PUSH2 0x158 JUMPI PUSH2 0xEC PUSH2 0xB88 JUMP JUMPDEST SWAP1 PUSH2 0xF5 PUSH2 0xBD1 JUMP JUMPDEST PUSH1 0x1 PUSH1 0x1 PUSH1 0xA0 SHL SUB SWAP2 DUP3 AND SWAP3 DUP4 ISZERO PUSH2 0x142 JUMPI POP POP DUP3 SLOAD PUSH1 0x1 PUSH1 0x1 PUSH1 0xA0 SHL SUB NOT DUP2 AND DUP4 OR DUP5 SSTORE AND PUSH32 0x8BE0079C531659141344CD1FD0A4F28419497F9722A3DAAFE3B4186F6B6457E0 DUP4 DUP1 LOG3 DUP1 RETURN JUMPDEST MLOAD PUSH4 0x1E4FBDF7 PUSH1 0xE0 SHL DUP2 MSTORE SWAP1 DUP2 ADD DUP5 SWAP1 MSTORE PUSH1 0x24 SWAP1 REVERT JUMPDEST DUP3 DUP1 REVERT JUMPDEST POP POP CALLVALUE PUSH2 0x1A0 JUMPI DUP2 PUSH1 0x3 NOT CALLDATASIZE ADD SLT PUSH2 0x1A0 JUMPI MLOAD PUSH32 0x0 PUSH1 0x1 PUSH1 0x1 PUSH1 0xA0 SHL SUB AND DUP2 MSTORE PUSH1 0x20 SWAP1 RETURN JUMPDEST POP DUP1 REVERT JUMPDEST POP POP CALLVALUE PUSH2 0x1A0 JUMPI DUP2 PUSH1 0x3 NOT CALLDATASIZE ADD SLT PUSH2 0x1A0 JUMPI PUSH1 0x5 SLOAD SWAP1 MLOAD PUSH1 0x1 PUSH1 0x1 PUSH1 0xA0 SHL SUB SWAP1 SWAP2 AND DUP2 MSTORE PUSH1 0x20 SWAP1 RETURN JUMPDEST POP CALLVALUE PUSH2 0x158 JUMPI DUP2 PUSH1 0x3 NOT CALLDATASIZE ADD SLT PUSH2 0x158 JUMPI PUSH2 0x1E6 PUSH2 0xB88 JUMP JUMPDEST PUSH1 0x1 PUSH1 0x1 PUSH1 0xA0 SHL SUB PUSH1 0x24 DUP1 CALLDATALOAD DUP3 DUP2 AND SWAP6 SWAP1 SWAP5 SWAP3 SWAP4 DUP7 DUP7 SUB PUSH2 0x422 JUMPI DUP5 SWAP1 PUSH2 0x212 DUP3 PUSH1 0x5 SLOAD AND CALLER EQ PUSH2 0xBFD JUMP JUMPDEST AND SWAP5 DUP6 ISZERO ISZERO DUP1 PUSH2 0x419 JUMPI JUMPDEST ISZERO PUSH2 0x3E3 JUMPI DUP7 DUP7 EQ PUSH2 0x3A9 JUMPI DUP6 DUP9 MSTORE PUSH1 0x2 PUSH1 0x20 SWAP2 DUP2 DUP4 MSTORE DUP7 DUP5 DUP12 KECCAK256 SLOAD AND PUSH2 0x370 JUMPI SWAP1 DUP6 SWAP3 SWAP2 DUP8 DUP12 SWAP2 JUMPDEST PUSH1 0x3 DUP4 LT PUSH2 0x2E9 JUMPI JUMPDEST POP POP POP DUP8 DUP11 MSTORE DUP2 MSTORE DUP3 DUP10 KECCAK256 DUP9 PUSH12 0xFFFFFFFFFFFFFFFFFFFFFFFF PUSH1 0xA0 SHL DUP3 SLOAD AND OR SWAP1 SSTORE DUP8 DUP10 MSTORE MSTORE DUP7 KECCAK256 SWAP1 DUP2 SLOAD SWAP3 PUSH9 0x10000000000000000 DUP5 LT ISZERO PUSH2 0x2D8 JUMPI POP POP SWAP1 PUSH2 0x29E SWAP2 PUSH1 0x1 DUP3 ADD DUP2 SSTORE PUSH2 0xBA3 JUMP JUMPDEST DUP2 SWAP3 SWAP2 SLOAD SWAP1 PUSH1 0x3 SHL SWAP2 DUP5 DUP4 SHL SWAP3 SHL NOT AND OR SWAP1 SSTORE PUSH32 0x5F7165288EEF601591CF549E15FF19EF9060B7F71B9C115BE946FA1FE7EBF68A DUP4 DUP1 LOG3 DUP1 RETURN JUMPDEST PUSH4 0x4E487B71 PUSH1 0xE0 SHL DUP9 MSTORE PUSH1 0x41 SWAP1 MSTORE DUP7 REVERT JUMPDEST SWAP1 SWAP2 SWAP3 SWAP4 SWAP5 POP AND DUP7 DUP2 ISZERO PUSH2 0x366 JUMPI POP DUP9 DUP2 EQ PUSH2 0x333 JUMPI DUP11 MSTORE DUP2 DUP4 MSTORE DUP4 DUP11 KECCAK256 SLOAD DUP8 AND SWAP1 PUSH1 0x0 NOT DUP2 EQ PUSH2 0x321 JUMPI PUSH1 0x1 ADD DUP8 DUP8 SWAP5 SWAP4 SWAP3 PUSH2 0x246 JUMP JUMPDEST PUSH4 0x4E487B71 PUSH1 0xE0 SHL DUP12 MSTORE PUSH1 0x11 DUP8 MSTORE DUP6 DUP12 REVERT JUMPDEST DUP5 MLOAD PUSH3 0x461BCD PUSH1 0xE5 SHL DUP2 MSTORE DUP1 DUP9 ADD DUP6 SWAP1 MSTORE PUSH1 0xE DUP2 DUP9 ADD MSTORE PUSH14 0x526566657272616C206379636C65 PUSH1 0x90 SHL PUSH1 0x44 DUP3 ADD MSTORE PUSH1 0x64 SWAP1 REVERT JUMPDEST SWAP4 SWAP3 SWAP2 DUP9 SWAP1 PUSH2 0x24F JUMP JUMPDEST DUP4 MLOAD PUSH3 0x461BCD PUSH1 0xE5 SHL DUP2 MSTORE DUP1 DUP8 ADD DUP5 SWAP1 MSTORE PUSH1 0x14 DUP2 DUP8 ADD MSTORE PUSH20 0x20B63932B0B23C903430B9903932B332B93932B9 PUSH1 0x61 SHL PUSH1 0x44 DUP3 ADD MSTORE PUSH1 0x64 SWAP1 REVERT JUMPDEST DUP2 MLOAD PUSH3 0x461BCD PUSH1 0xE5 SHL DUP2 MSTORE PUSH1 0x20 DUP2 DUP7 ADD MSTORE PUSH1 0x15 DUP2 DUP6 ADD MSTORE PUSH21 0x21B0B73737BA103932B332B9103CB7BAB939B2B633 PUSH1 0x59 SHL PUSH1 0x44 DUP3 ADD MSTORE PUSH1 0x64 SWAP1 REVERT JUMPDEST DUP2 MLOAD PUSH3 0x461BCD PUSH1 0xE5 SHL DUP2 MSTORE PUSH1 0x20 DUP2 DUP7 ADD MSTORE PUSH1 0x11 DUP2 DUP6 ADD MSTORE PUSH17 0x496E76616C696420616464726573736573 PUSH1 0x78 SHL PUSH1 0x44 DUP3 ADD MSTORE PUSH1 0x64 SWAP1 REVERT JUMPDEST POP DUP7 ISZERO ISZERO PUSH2 0x21D JUMP JUMPDEST DUP8 DUP1 REVERT JUMPDEST POP POP CALLVALUE PUSH2 0x1A0 JUMPI DUP2 PUSH1 0x3 NOT CALLDATASIZE ADD SLT PUSH2 0x1A0 JUMPI PUSH1 0x20 SWAP1 MLOAD PUSH2 0x7D0 DUP2 MSTORE RETURN JUMPDEST POP CALLVALUE PUSH2 0x158 JUMPI PUSH1 0x20 CALLDATASIZE PUSH1 0x3 NOT ADD SLT PUSH2 0x158 JUMPI PUSH2 0x45D PUSH2 0xB88 JUMP JUMPDEST SWAP1 PUSH2 0x466 PUSH2 0xBD1 JUMP JUMPDEST PUSH1 0x1 PUSH1 0x1 PUSH1 0xA0 SHL SUB SWAP2 DUP3 AND SWAP3 DUP4 ISZERO PUSH2 0x4C6 JUMPI PUSH1 0x5 SLOAD SWAP3 DUP4 AND PUSH2 0x495 JUMPI POP POP PUSH1 0x1 PUSH1 0x1 PUSH1 0xA0 SHL SUB NOT AND OR PUSH1 0x5 SSTORE DUP1 RETURN JUMPDEST SWAP1 PUSH1 0x20 PUSH1 0x64 SWAP3 MLOAD SWAP2 PUSH3 0x461BCD PUSH1 0xE5 SHL DUP4 MSTORE DUP3 ADD MSTORE PUSH1 0xB PUSH1 0x24 DUP3 ADD MSTORE PUSH11 0x105B1C9958591E481CD95D PUSH1 0xAA SHL PUSH1 0x44 DUP3 ADD MSTORE REVERT JUMPDEST SWAP1 PUSH1 0x20 PUSH1 0x64 SWAP3 MLOAD SWAP2 PUSH3 0x461BCD PUSH1 0xE5 SHL DUP4 MSTORE DUP3 ADD MSTORE PUSH1 0xF PUSH1 0x24 DUP3 ADD MSTORE PUSH15 0x24B73B30B634B21036B0B730B3B2B9 PUSH1 0x89 SHL PUSH1 0x44 DUP3 ADD MSTORE REVERT JUMPDEST POP POP CALLVALUE PUSH2 0x1A0 JUMPI DUP2 PUSH1 0x3 NOT CALLDATASIZE ADD SLT PUSH2 0x1A0 JUMPI SWAP1 SLOAD SWAP1 MLOAD PUSH1 0x1 PUSH1 0x1 PUSH1 0xA0 SHL SUB SWAP1 SWAP2 AND DUP2 MSTORE PUSH1 0x20 SWAP1 RETURN JUMPDEST POP POP CALLVALUE PUSH2 0x1A0 JUMPI DUP2 PUSH1 0x3 NOT CALLDATASIZE ADD SLT PUSH2 0x1A0 JUMPI PUSH1 0x20 SWAP1 MLOAD PUSH2 0xBB8 DUP2 MSTORE RETURN JUMPDEST POP SWAP1 CALLVALUE PUSH2 0x158 JUMPI DUP1 PUSH1 0x3 NOT CALLDATASIZE ADD SLT PUSH2 0x158 JUMPI PUSH2 0x55A PUSH2 0xB88 JUMP JUMPDEST PUSH1 0x5 SLOAD PUSH1 0x1 PUSH1 0x1 PUSH1 0xA0 SHL SUB SWAP3 PUSH1 0x24 CALLDATALOAD SWAP3 SWAP1 SWAP2 PUSH2 0x579 SWAP1 DUP6 AND CALLER EQ PUSH2 0xBFD JUMP JUMPDEST PUSH1 0x2 SWAP1 DUP2 PUSH1 0x1 SLOAD EQ PUSH2 0x972 JUMPI DUP2 PUSH1 0x1 SSTORE DUP4 ISZERO PUSH2 0x93E JUMPI DUP5 AND SWAP4 DUP5 DUP8 MSTORE PUSH1 0x20 SWAP2 DUP1 DUP4 MSTORE DUP2 DUP5 DUP10 KECCAK256 SLOAD AND DUP1 ISZERO ISZERO DUP1 PUSH2 0x84A JUMPI JUMPDEST ISZERO PUSH2 0x843 JUMPI DUP9 MSTORE DUP1 DUP4 MSTORE DUP2 DUP5 DUP10 KECCAK256 SLOAD AND JUMPDEST DUP3 DUP2 AND SWAP1 DUP2 ISZERO ISZERO SWAP1 DUP2 PUSH2 0x724 JUMPI JUMPDEST POP ISZERO PUSH2 0x71B JUMPI DUP9 MSTORE DUP3 MSTORE DUP1 DUP4 DUP9 KECCAK256 SLOAD AND SWAP6 JUMPDEST DUP2 DUP8 AND SWAP5 DUP6 PUSH2 0x5ED JUMPI JUMPDEST DUP9 PUSH1 0x1 DUP1 SSTORE DUP1 RETURN JUMPDEST PUSH2 0x7D0 DUP1 DUP3 MUL SWAP2 DUP3 DIV SUB PUSH2 0x708 JUMPI SWAP1 PUSH2 0x2710 DUP10 SWAP3 DIV SWAP3 DUP4 PUSH2 0x60F JUMPI JUMPDEST POP PUSH2 0x5E5 JUMP JUMPDEST DUP6 MLOAD PUSH4 0xA9059CBB PUSH1 0xE0 SHL DUP2 MSTORE PUSH1 0x1 PUSH1 0x1 PUSH1 0xA0 SHL SUB SWAP1 SWAP10 AND SWAP2 DUP10 ADD SWAP2 DUP3 MSTORE PUSH1 0x20 DUP3 ADD DUP5 SWAP1 MSTORE DUP5 SWAP3 DUP10 SWAP3 DUP4 SWAP2 SWAP1 DUP3 SWAP1 PUSH1 0x40 ADD SUB SWAP3 PUSH32 0x0 AND GAS CALL SWAP6 DUP7 ISZERO PUSH2 0x6FE JUMPI PUSH32 0x7161A6D15990A776271CAC78139F4808BC04AE5936B9C96A3AECE1ACB7877B3F SWAP5 SWAP6 SWAP7 PUSH2 0x6A1 SWAP2 DUP10 SWAP2 PUSH2 0x6D1 JUMPI JUMPDEST POP PUSH2 0xC88 JUMP JUMPDEST DUP5 DUP8 MSTORE PUSH1 0x3 DUP3 MSTORE DUP3 DUP8 KECCAK256 PUSH2 0x6B6 DUP3 DUP3 SLOAD PUSH2 0xCC6 JUMP JUMPDEST SWAP1 SSTORE DUP3 MLOAD SWAP2 PUSH1 0x3 DUP4 MSTORE DUP3 ADD MSTORE LOG3 CODESIZE DUP1 DUP1 DUP1 DUP1 DUP1 DUP7 DUP2 DUP1 PUSH2 0x609 JUMP JUMPDEST PUSH2 0x6F1 SWAP2 POP DUP5 RETURNDATASIZE DUP7 GT PUSH2 0x6F7 JUMPI JUMPDEST PUSH2 0x6E9 DUP2 DUP4 PUSH2 0xC38 JUMP JUMPDEST DUP2 ADD SWAP1 PUSH2 0xC70 JUMP JUMPDEST CODESIZE PUSH2 0x69B JUMP JUMPDEST POP RETURNDATASIZE PUSH2 0x6DF JUMP JUMPDEST DUP4 MLOAD RETURNDATASIZE DUP10 DUP3 RETURNDATACOPY RETURNDATASIZE SWAP1 REVERT JUMPDEST PUSH4 0x4E487B71 PUSH1 0xE0 SHL DUP10 MSTORE PUSH1 0x11 DUP3 MSTORE PUSH1 0x24 DUP10 REVERT JUMPDEST POP POP DUP7 SWAP6 PUSH2 0x5DB JUMP JUMPDEST PUSH2 0xBB8 DUP9 MUL PUSH2 0xBB7 NOT DUP10 DUP3 DIV ADD PUSH2 0x830 JUMPI PUSH2 0x2710 DUP13 SWAP2 DIV SWAP2 DUP8 DUP4 PUSH2 0x74B JUMPI JUMPDEST POP POP POP PUSH2 0x5C9 JUMP JUMPDEST DUP10 MLOAD PUSH4 0xA9059CBB PUSH1 0xE0 SHL DUP2 MSTORE PUSH1 0x1 PUSH1 0x1 PUSH1 0xA0 SHL SUB SWAP1 SWAP3 AND DUP3 DUP15 ADD SWAP1 DUP2 MSTORE PUSH1 0x20 DUP2 ADD DUP6 SWAP1 MSTORE DUP3 SWAP1 DUP2 SWAP1 PUSH1 0x40 ADD SUB DUP2 DUP6 DUP12 PUSH32 0x0 AND GAS CALL SWAP1 DUP2 ISZERO PUSH2 0x826 JUMPI DUP12 SWAP4 DUP11 DUP5 PUSH2 0x7E0 PUSH32 0x7161A6D15990A776271CAC78139F4808BC04AE5936B9C96A3AECE1ACB7877B3F SWAP6 DUP4 SWAP6 DUP15 DUP13 SWAP10 SWAP3 PUSH2 0x809 JUMPI JUMPDEST POP POP PUSH2 0xC88 JUMP JUMPDEST DUP6 DUP2 MSTORE PUSH1 0x3 DUP13 MSTORE KECCAK256 PUSH2 0x7F3 DUP3 DUP3 SLOAD PUSH2 0xCC6 JUMP JUMPDEST SWAP1 SSTORE DUP2 MLOAD SWAP1 DUP9 DUP3 MSTORE DUP11 DUP3 ADD MSTORE LOG3 CODESIZE DUP11 DUP2 DUP8 PUSH2 0x743 JUMP JUMPDEST PUSH2 0x81F SWAP3 POP DUP1 RETURNDATASIZE LT PUSH2 0x6F7 JUMPI PUSH2 0x6E9 DUP2 DUP4 PUSH2 0xC38 JUMP JUMPDEST CODESIZE DUP15 PUSH2 0x7D9 JUMP JUMPDEST DUP10 MLOAD RETURNDATASIZE DUP5 DUP3 RETURNDATACOPY RETURNDATASIZE SWAP1 REVERT JUMPDEST PUSH4 0x4E487B71 PUSH1 0xE0 SHL DUP13 MSTORE PUSH1 0x11 DUP12 MSTORE PUSH1 0x24 DUP13 REVERT JUMPDEST POP DUP8 PUSH2 0x5BB JUMP JUMPDEST PUSH2 0x1388 DUP8 MUL PUSH2 0x1387 NOT DUP9 DUP3 DIV ADD PUSH2 0x92B JUMPI PUSH2 0x2710 SWAP1 DIV DUP1 PUSH2 0x86C JUMPI JUMPDEST POP PUSH2 0x5AA JUMP JUMPDEST DUP7 MLOAD PUSH4 0xA9059CBB PUSH1 0xE0 SHL DUP2 MSTORE PUSH1 0x1 PUSH1 0x1 PUSH1 0xA0 SHL SUB DUP5 AND DUP2 DUP13 ADD SWAP1 DUP2 MSTORE PUSH1 0x20 DUP2 ADD DUP4 SWAP1 MSTORE DUP13 SWAP2 SWAP1 DUP9 SWAP1 DUP3 SWAP1 DUP2 SWAP1 PUSH1 0x40 ADD SUB DUP2 DUP6 DUP12 PUSH32 0x0 AND GAS CALL SWAP1 DUP2 ISZERO PUSH2 0x826 JUMPI DUP12 SWAP4 DUP11 DUP5 PUSH2 0x904 PUSH32 0x7161A6D15990A776271CAC78139F4808BC04AE5936B9C96A3AECE1ACB7877B3F SWAP6 DUP4 SWAP6 DUP15 DUP13 SWAP10 SWAP3 PUSH2 0x809 JUMPI POP POP PUSH2 0xC88 JUMP JUMPDEST DUP6 DUP2 MSTORE PUSH1 0x3 DUP13 MSTORE KECCAK256 PUSH2 0x917 DUP3 DUP3 SLOAD PUSH2 0xCC6 JUMP JUMPDEST SWAP1 SSTORE DUP2 MLOAD SWAP1 PUSH1 0x1 DUP3 MSTORE DUP11 DUP3 ADD MSTORE LOG3 CODESIZE PUSH2 0x866 JUMP JUMPDEST PUSH4 0x4E487B71 PUSH1 0xE0 SHL DUP12 MSTORE PUSH1 0x11 DUP11 MSTORE PUSH1 0x24 DUP12 REVERT JUMPDEST DUP3 MLOAD PUSH3 0x461BCD PUSH1 0xE5 SHL DUP2 MSTORE PUSH1 0x20 DUP2 DUP9 ADD MSTORE PUSH1 0xE PUSH1 0x24 DUP3 ADD MSTORE PUSH14 0x125B9D985B1A5908185B5BDD5B9D PUSH1 0x92 SHL PUSH1 0x44 DUP3 ADD MSTORE PUSH1 0x64 SWAP1 REVERT JUMPDEST DUP3 MLOAD PUSH4 0x3EE5AEB5 PUSH1 0xE0 SHL DUP2 MSTORE DUP7 SWAP1 REVERT JUMPDEST DUP4 CALLVALUE PUSH2 0x9DC JUMPI DUP1 PUSH1 0x3 NOT CALLDATASIZE ADD SLT PUSH2 0x9DC JUMPI PUSH2 0x99B PUSH2 0xBD1 JUMP JUMPDEST DUP1 SLOAD PUSH1 0x1 PUSH1 0x1 PUSH1 0xA0 SHL SUB NOT DUP2 AND DUP3 SSTORE DUP2 SWAP1 PUSH1 0x1 PUSH1 0x1 PUSH1 0xA0 SHL SUB AND PUSH32 0x8BE0079C531659141344CD1FD0A4F28419497F9722A3DAAFE3B4186F6B6457E0 DUP3 DUP1 LOG3 DUP1 RETURN JUMPDEST DUP1 REVERT JUMPDEST POP POP CALLVALUE PUSH2 0x1A0 JUMPI PUSH1 0x20 CALLDATASIZE PUSH1 0x3 NOT ADD SLT PUSH2 0x1A0 JUMPI PUSH1 0x60 SWAP2 SWAP1 PUSH1 0x1 PUSH1 0x1 PUSH1 0xA0 SHL SUB DUP1 PUSH2 0xA07 PUSH2 0xB88 JUMP JUMPDEST AND DUP4 MSTORE PUSH1 0x2 PUSH1 0x20 MSTORE DUP2 DUP4 KECCAK256 SLOAD DUP2 AND SWAP3 DUP4 ISZERO PUSH2 0xA58 JUMPI DUP4 DUP2 MSTORE DUP2 DUP4 DUP2 DUP1 DUP3 DUP6 KECCAK256 SLOAD AND JUMPDEST AND SWAP3 DUP4 ISZERO PUSH2 0xA4F JUMPI DUP4 DUP2 MSTORE PUSH1 0x2 PUSH1 0x20 MSTORE KECCAK256 SLOAD AND SWAP1 JUMPDEST DUP4 MLOAD SWAP5 DUP6 MSTORE PUSH1 0x20 DUP6 ADD MSTORE AND SWAP1 DUP3 ADD MSTORE RETURN JUMPDEST SWAP2 POP POP SWAP1 PUSH2 0xA3E JUMP JUMPDEST DUP2 DUP4 DUP2 DUP4 PUSH2 0xA29 JUMP JUMPDEST POP POP CALLVALUE PUSH2 0x1A0 JUMPI PUSH1 0x20 CALLDATASIZE PUSH1 0x3 NOT ADD SLT PUSH2 0x1A0 JUMPI PUSH1 0x20 SWAP2 DUP2 SWAP1 PUSH1 0x1 PUSH1 0x1 PUSH1 0xA0 SHL SUB PUSH2 0xA89 PUSH2 0xB88 JUMP JUMPDEST AND DUP2 MSTORE PUSH1 0x3 DUP5 MSTORE KECCAK256 SLOAD SWAP1 MLOAD SWAP1 DUP2 MSTORE RETURN JUMPDEST POP POP CALLVALUE PUSH2 0x1A0 JUMPI PUSH1 0x20 CALLDATASIZE PUSH1 0x3 NOT ADD SLT PUSH2 0x1A0 JUMPI PUSH1 0x20 SWAP2 PUSH1 0x1 PUSH1 0x1 PUSH1 0xA0 SHL SUB SWAP1 DUP3 SWAP1 DUP3 PUSH2 0xAC3 PUSH2 0xB88 JUMP JUMPDEST AND DUP2 MSTORE PUSH1 0x2 DUP6 MSTORE KECCAK256 SLOAD AND SWAP1 MLOAD SWAP1 DUP2 MSTORE RETURN JUMPDEST POP POP CALLVALUE PUSH2 0x1A0 JUMPI PUSH1 0x20 CALLDATASIZE PUSH1 0x3 NOT ADD SLT PUSH2 0x1A0 JUMPI PUSH1 0x20 SWAP2 PUSH1 0x1 PUSH1 0x1 PUSH1 0xA0 SHL SUB SWAP1 DUP3 SWAP1 DUP3 PUSH2 0xAFE PUSH2 0xB88 JUMP JUMPDEST AND DUP2 MSTORE PUSH1 0x2 DUP6 MSTORE KECCAK256 SLOAD AND ISZERO ISZERO SWAP1 MLOAD SWAP1 DUP2 MSTORE RETURN JUMPDEST POP SWAP2 CALLVALUE PUSH2 0x9DC JUMPI DUP2 PUSH1 0x3 NOT CALLDATASIZE ADD SLT PUSH2 0x9DC JUMPI PUSH2 0xB2B PUSH2 0xB88 JUMP JUMPDEST PUSH1 0x1 PUSH1 0x1 PUSH1 0xA0 SHL SUB SWAP1 DUP2 AND DUP3 MSTORE PUSH1 0x20 SWAP4 SWAP1 SWAP4 MSTORE DUP2 DUP2 KECCAK256 DUP1 SLOAD PUSH1 0x24 CALLDATALOAD SWAP5 SWAP3 SWAP1 DUP6 LT ISZERO PUSH2 0x9DC JUMPI POP PUSH1 0x20 SWAP4 PUSH2 0xB5D SWAP2 PUSH2 0xBA3 JUMP JUMPDEST SWAP3 SWAP1 SLOAD SWAP1 MLOAD SWAP3 PUSH1 0x3 SHL SHR AND DUP2 MSTORE RETURN JUMPDEST DUP5 SWAP1 CALLVALUE PUSH2 0x1A0 JUMPI DUP2 PUSH1 0x3 NOT CALLDATASIZE ADD SLT PUSH2 0x1A0 JUMPI DUP1 PUSH2 0x1388 PUSH1 0x20 SWAP3 MSTORE RETURN JUMPDEST PUSH1 0x4 CALLDATALOAD SWAP1 PUSH1 0x1 PUSH1 0x1 PUSH1 0xA0 SHL SUB DUP3 AND DUP3 SUB PUSH2 0xB9E JUMPI JUMP JUMPDEST PUSH1 0x0 DUP1 REVERT JUMPDEST DUP1 SLOAD DUP3 LT ISZERO PUSH2 0xBBB JUMPI PUSH1 0x0 MSTORE PUSH1 0x20 PUSH1 0x0 KECCAK256 ADD SWAP1 PUSH1 0x0 SWAP1 JUMP JUMPDEST PUSH4 0x4E487B71 PUSH1 0xE0 SHL PUSH1 0x0 MSTORE PUSH1 0x32 PUSH1 0x4 MSTORE PUSH1 0x24 PUSH1 0x0 REVERT JUMPDEST PUSH1 0x0 SLOAD PUSH1 0x1 PUSH1 0x1 PUSH1 0xA0 SHL SUB AND CALLER SUB PUSH2 0xBE5 JUMPI JUMP JUMPDEST PUSH1 0x40 MLOAD PUSH4 0x118CDAA7 PUSH1 0xE0 SHL DUP2 MSTORE CALLER PUSH1 0x4 DUP3 ADD MSTORE PUSH1 0x24 SWAP1 REVERT JUMPDEST ISZERO PUSH2 0xC04 JUMPI JUMP JUMPDEST PUSH1 0x40 MLOAD PUSH3 0x461BCD PUSH1 0xE5 SHL DUP2 MSTORE PUSH1 0x20 PUSH1 0x4 DUP3 ADD MSTORE PUSH1 0xC PUSH1 0x24 DUP3 ADD MSTORE PUSH12 0x27B7363C9036B0B730B3B2B9 PUSH1 0xA1 SHL PUSH1 0x44 DUP3 ADD MSTORE PUSH1 0x64 SWAP1 REVERT JUMPDEST SWAP1 PUSH1 0x1F DUP1 NOT SWAP2 ADD AND DUP2 ADD SWAP1 DUP2 LT PUSH8 0xFFFFFFFFFFFFFFFF DUP3 GT OR PUSH2 0xC5A JUMPI PUSH1 0x40 MSTORE JUMP JUMPDEST PUSH4 0x4E487B71 PUSH1 0xE0 SHL PUSH1 0x0 MSTORE PUSH1 0x41 PUSH1 0x4 MSTORE PUSH1 0x24 PUSH1 0x0 REVERT JUMPDEST SWAP1 DUP2 PUSH1 0x20 SWAP2 SUB SLT PUSH2 0xB9E JUMPI MLOAD DUP1 ISZERO ISZERO DUP2 SUB PUSH2 0xB9E JUMPI SWAP1 JUMP JUMPDEST ISZERO PUSH2 0xC8F JUMPI JUMP JUMPDEST PUSH1 0x40 MLOAD PUSH3 0x461BCD PUSH1 0xE5 SHL DUP2 MSTORE PUSH1 0x20 PUSH1 0x4 DUP3 ADD MSTORE PUSH1 0xF PUSH1 0x24 DUP3 ADD MSTORE PUSH15 0x151C985B9CD9995C8819985A5B1959 PUSH1 0x8A SHL PUSH1 0x44 DUP3 ADD MSTORE PUSH1 0x64 SWAP1 REVERT JUMPDEST SWAP2 SWAP1 DUP3 ADD DUP1 SWAP3 GT PUSH2 0xCD3 JUMPI JUMP JUMPDEST PUSH4 0x4E487B71 PUSH1 0xE0 SHL PUSH1 0x0 MSTORE PUSH1 0x11 PUSH1 0x4 MSTORE PUSH1 0x24 PUSH1 0x0 REVERT INVALID LOG2 PUSH5 0x6970667358 0x22 SLT KECCAK256 MULMOD SIGNEXTEND CODESIZE 0x4D 0x5D CALLER 0x21 PUSH13 0x15DBE076AF793B61972F7777AA EXTCODESIZE ADDMOD PUSH8 0x713BB76FD5A268FD PUSH5 0x736F6C6343 STOP ADDMOD EQ STOP CALLER "},"methodIdentifiers":{"LEVEL1_PCT()":"02fb1b85","LEVEL2_PCT()":"84da436f","LEVEL3_PCT()":"a1992fb8","directReferrals(address,uint256)":"05ad3935","distributeCommissions(address,uint256)":"75003aa1","getReferralChain(address)":"6667864d","hasReferrer(address)":"18452cd8","nexumManager()":"d66ee30d","owner()":"8da5cb5b","referrer(address)":"2cf003c2","renounceOwnership()":"715018a6","setNexumManager(address)":"925d7c44","setReferrer(address,address)":"bbddaca3","stablecoin()":"e9cbd822","totalEarned(address)":"649aca4a","transferOwnership(address)":"f2fde38b"}}}}}