{"contracts/AmbassadorRegistry.sol":{"AmbassadorRegistry":{"abi":[{"inputs":[{"internalType":"address","name":"_stablecoin","type":"address"}],"stateMutability":"nonpayable","type":"constructor"},{"inputs":[{"internalType":"address","name":"owner","type":"address"}],"name":"OwnableInvalidOwner","type":"error"},{"inputs":[{"internalType":"address","name":"account","type":"address"}],"name":"OwnableUnauthorizedAccount","type":"error"},{"inputs":[],"name":"ReentrancyGuardReentrantCall","type":"error"},{"anonymous":false,"inputs":[{"indexed":true,"internalType":"address","name":"ambassador","type":"address"},{"indexed":false,"internalType":"string","name":"name","type":"string"}],"name":"AmbassadorRegistered","type":"event"},{"anonymous":false,"inputs":[{"indexed":false,"internalType":"uint256","name":"totalAmount","type":"uint256"},{"indexed":false,"internalType":"uint256","name":"ambassadorCount","type":"uint256"}],"name":"FundsDistributed","type":"event"},{"anonymous":false,"inputs":[{"indexed":true,"internalType":"address","name":"previousOwner","type":"address"},{"indexed":true,"internalType":"address","name":"newOwner","type":"address"}],"name":"OwnershipTransferred","type":"event"},{"inputs":[{"internalType":"uint256","name":"","type":"uint256"}],"name":"ambassadorList","outputs":[{"internalType":"address","name":"","type":"address"}],"stateMutability":"view","type":"function"},{"inputs":[{"internalType":"address","name":"","type":"address"}],"name":"ambassadors","outputs":[{"internalType":"bool","name":"active","type":"bool"},{"internalType":"uint256","name":"totalEarned","type":"uint256"},{"internalType":"string","name":"name","type":"string"}],"stateMutability":"view","type":"function"},{"inputs":[],"name":"distributeFunds","outputs":[],"stateMutability":"nonpayable","type":"function"},{"inputs":[],"name":"getActiveAmbassadorCount","outputs":[{"internalType":"uint256","name":"","type":"uint256"}],"stateMutability":"view","type":"function"},{"inputs":[],"name":"owner","outputs":[{"internalType":"address","name":"","type":"address"}],"stateMutability":"view","type":"function"},{"inputs":[{"internalType":"address","name":"ambassador","type":"address"},{"internalType":"string","name":"name","type":"string"}],"name":"registerAmbassador","outputs":[],"stateMutability":"nonpayable","type":"function"},{"inputs":[],"name":"renounceOwnership","outputs":[],"stateMutability":"nonpayable","type":"function"},{"inputs":[],"name":"stablecoin","outputs":[{"internalType":"contract IERC20","name":"","type":"address"}],"stateMutability":"view","type":"function"},{"inputs":[{"internalType":"address","name":"newOwner","type":"address"}],"name":"transferOwnership","outputs":[],"stateMutability":"nonpayable","type":"function"}],"evm":{"bytecode":{"linkReferences":{},"object":"60a03461011357601f610ccc38819003918201601f19168301916001600160401b038311848410176101185780849260209460405283398101031261011357516001600160a01b03808216918290036101135733156100fa576000543360018060a01b0319821617600055604051913391167f8be0079c531659141344cd1fd0a4f28419497f9722a3daafe3b4186f6b6457e0600080a36001805581156100c35750608052604051610b9d908161012f823960805181818161012b015261064d0152f35b62461bcd60e51b815260206004820152601260248201527124b73b30b634b21039ba30b13632b1b7b4b760711b6044820152606490fd5b604051631e4fbdf760e01b815260006004820152602490fd5b600080fd5b634e487b7160e01b600052604160045260246000fdfe608080604052600436101561001357600080fd5b60003560e01c90816328ce48a01461092f575080633a6a4d2e14610618578063715018a6146105bf57806378a42bb4146102435780638da5cb5b1461021a578063b92571aa1461019c578063c7ce57071461015a578063e9cbd822146101155763f2fde38b1461008257600080fd5b346101105760203660031901126101105761009b610a6d565b6100a3610b2c565b6001600160a01b039081169081156100f757600054826bffffffffffffffffffffffff60a01b821617600055167f8be0079c531659141344cd1fd0a4f28419497f9722a3daafe3b4186f6b6457e0600080a3005b604051631e4fbdf760e01b815260006004820152602490fd5b600080fd5b34610110576000366003190112610110576040517f00000000000000000000000000000000000000000000000000000000000000006001600160a01b03168152602090f35b346101105760203660031901126101105760043560035481101561011057610183602091610adf565b905460405160039290921b1c6001600160a01b03168152f35b346101105760003660031901126101105760008060038054915b8281106101c857602084604051908152f35b6101d181610adf565b905490831b1c6001600160a01b031660009081526002602052604090205460ff16610205575b61020090610b58565b6101b6565b9261021261020091610b58565b9390506101f7565b34610110576000366003190112610110576000546040516001600160a01b039091168152602090f35b346101105760403660031901126101105761025c610a6d565b6024359067ffffffffffffffff821161011057366023830112156101105767ffffffffffffffff82600401351161011057366024836004013584010111610110576102a5610b2c565b6001600160a01b03811615610588576001600160a01b03811660009081526002602052604090205460ff1661054e576040516060810181811067ffffffffffffffff8211176104745760405260018152600060208201526040516103176020601f19601f876004013501160182610abd565b6004840135808252602485016020830137600060208560040135830101526040820190815260018060a01b038316600052600260205260206040600020928051151560ff80198654169116178455015160018301555180519067ffffffffffffffff82116104745761038c6002840154610a83565b601f8111610503575b50602090601f831160011461049557600292916000918361048a575b50508160011b916000199060031b1c1916179101555b60035490680100000000000000008210156104745761040d8260017fdc50763ba3a9913608b4503be1144367f90c3784cdd0c8de36d2c2d6920f6b599401600355610adf565b81546001600160a01b0384811660039390931b92831b921b1916179055604080516020808252600486013590820181905290928391602487018385013760006004909601358281018401969096526001600160a01b031694601f01601f19168101030190a2005b634e487b7160e01b600052604160045260246000fd5b0151905086806103b1565b90601f198316916002850160005260206000209260005b8181106104eb575091600193918560029694106104d2575b505050811b019101556103c7565b015160001960f88460031b161c191690558680806104c4565b929360206001819287860151815501950193016104ac565b600284016000526020600020601f840160051c81019160208510610544575b601f0160051c01905b8181106105385750610395565b6000815560010161052b565b9091508190610522565b60405162461bcd60e51b8152602060048201526012602482015271105b1c9958591e481c9959da5cdd195c995960721b6044820152606490fd5b60405162461bcd60e51b815260206004820152600f60248201526e496e76616c6964206164647265737360881b6044820152606490fd5b34610110576000366003190112610110576105d8610b2c565b600080546001600160a01b0319811682556001600160a01b03167f8be0079c531659141344cd1fd0a4f28419497f9722a3daafe3b4186f6b6457e08280a3005b346101105760003660031901126101105760026001541461091d5760026001556040516370a0823160e01b81523060048201527f00000000000000000000000000000000000000000000000000000000000000006001600160a01b0316602082602481845afa9182156107e9576000926108e9575b5081156108b9576000916000600354905b818110610868575050821561082b5760005b6003548110156107f5576106c381610adf565b905460039190911b1c6001600160a01b031660008181526002602052604090205460ff166106fb575b506106f690610b58565b6106b0565b60405163a9059cbb60e01b81526004810182905285840460248201526020816044816000895af19081156107e9576000916107ae575b501561077757600052600260205260016040600020019081548584048101809111610761576106f69255906106ec565b634e487b7160e01b600052601160045260246000fd5b60405162461bcd60e51b815260206004820152600f60248201526e151c985b9cd9995c8819985a5b1959608a1b6044820152606490fd5b90506020813d6020116107e1575b816107c960209383610abd565b81010312610110575180151581036101105786610731565b3d91506107bc565b6040513d6000823e3d90fd5b7f40d8c854b6d5329fd5fccae04f5a931d7529963fbab81aced7337394e737cb4d6040838682519182526020820152a160018055005b60405162461bcd60e51b81526020600482015260156024820152744e6f2061637469766520616d6261737361646f727360581b6044820152606490fd5b61087181610adf565b60018060a01b0391549060031b1c16600052600260205260ff604060002054166108a4575b61089f90610b58565b61069e565b936108b161089f91610b58565b949050610896565b60405162461bcd60e51b81526020600482015260086024820152674e6f2066756e647360c01b6044820152606490fd5b9091506020813d602011610915575b8161090560209383610abd565b810103126101105751908261068d565b3d91506108f8565b604051633ee5aeb560e01b8152600490fd5b346101105760209081600319360112610110576001600160a01b03610952610a6d565b166000526002825260406000209160ff8354169260018360028284015493019160009083549361098185610a83565b94858552878382169182600014610a4b575050600114610a0c575b50506109ae9250959392950384610abd565b6040519384921515835281830152606060408301528251908160608401526000935b8285106109f3575050608092506000838284010152601f80199101168101030190f35b84810182015186860160800152938101938593506109d0565b86925060005281600020906000915b858310610a335750506109ae9350820101878061099c565b8054838a018501528894508793909201918101610a1b565b92509350506109ae94915060ff191682840152151560051b820101878061099c565b600435906001600160a01b038216820361011057565b90600182811c92168015610ab3575b6020831014610a9d57565b634e487b7160e01b600052602260045260246000fd5b91607f1691610a92565b90601f8019910116810190811067ffffffffffffffff82111761047457604052565b600354811015610b165760036000527fc2575a0e9e593c00f959f8c92f12db2869c3395a3b0502d05e2516446f71f85b0190600090565b634e487b7160e01b600052603260045260246000fd5b6000546001600160a01b03163303610b4057565b60405163118cdaa760e01b8152336004820152602490fd5b6000198114610761576001019056fea26469706673582212207a81b93212400ea15da5e41b90cf50ba449b48d61822a20a4500470a30fad8f264736f6c63430008140033","opcodes":"PUSH1 0xA0 CALLVALUE PUSH2 0x113 JUMPI PUSH1 0x1F PUSH2 0xCCC CODESIZE DUP2 SWAP1 SUB SWAP2 DUP3 ADD PUSH1 0x1F NOT AND DUP4 ADD SWAP2 PUSH1 0x1 PUSH1 0x1 PUSH1 0x40 SHL SUB DUP4 GT DUP5 DUP5 LT OR PUSH2 0x118 JUMPI DUP1 DUP5 SWAP3 PUSH1 0x20 SWAP5 PUSH1 0x40 MSTORE DUP4 CODECOPY DUP2 ADD SUB SLT PUSH2 0x113 JUMPI MLOAD PUSH1 0x1 PUSH1 0x1 PUSH1 0xA0 SHL SUB DUP1 DUP3 AND SWAP2 DUP3 SWAP1 SUB PUSH2 0x113 JUMPI CALLER ISZERO PUSH2 0xFA JUMPI PUSH1 0x0 SLOAD CALLER PUSH1 0x1 DUP1 PUSH1 0xA0 SHL SUB NOT DUP3 AND OR PUSH1 0x0 SSTORE PUSH1 0x40 MLOAD SWAP2 CALLER SWAP2 AND PUSH32 0x8BE0079C531659141344CD1FD0A4F28419497F9722A3DAAFE3B4186F6B6457E0 PUSH1 0x0 DUP1 LOG3 PUSH1 0x1 DUP1 SSTORE DUP2 ISZERO PUSH2 0xC3 JUMPI POP PUSH1 0x80 MSTORE PUSH1 0x40 MLOAD PUSH2 0xB9D SWAP1 DUP2 PUSH2 0x12F DUP3 CODECOPY PUSH1 0x80 MLOAD DUP2 DUP2 DUP2 PUSH2 0x12B ADD MSTORE PUSH2 0x64D ADD MSTORE RETURN JUMPDEST PUSH3 0x461BCD PUSH1 0xE5 SHL DUP2 MSTORE PUSH1 0x20 PUSH1 0x4 DUP3 ADD MSTORE PUSH1 0x12 PUSH1 0x24 DUP3 ADD MSTORE PUSH18 0x24B73B30B634B21039BA30B13632B1B7B4B7 PUSH1 0x71 SHL PUSH1 0x44 DUP3 ADD MSTORE PUSH1 0x64 SWAP1 REVERT JUMPDEST PUSH1 0x40 MLOAD PUSH4 0x1E4FBDF7 PUSH1 0xE0 SHL DUP2 MSTORE PUSH1 0x0 PUSH1 0x4 DUP3 ADD MSTORE PUSH1 0x24 SWAP1 REVERT JUMPDEST PUSH1 0x0 DUP1 REVERT JUMPDEST PUSH4 0x4E487B71 PUSH1 0xE0 SHL PUSH1 0x0 MSTORE PUSH1 0x41 PUSH1 0x4 MSTORE PUSH1 0x24 PUSH1 0x0 REVERT INVALID PUSH1 0x80 DUP1 PUSH1 0x40 MSTORE PUSH1 0x4 CALLDATASIZE LT ISZERO PUSH2 0x13 JUMPI PUSH1 0x0 DUP1 REVERT JUMPDEST PUSH1 0x0 CALLDATALOAD PUSH1 0xE0 SHR SWAP1 DUP2 PUSH4 0x28CE48A0 EQ PUSH2 0x92F JUMPI POP DUP1 PUSH4 0x3A6A4D2E EQ PUSH2 0x618 JUMPI DUP1 PUSH4 0x715018A6 EQ PUSH2 0x5BF JUMPI DUP1 PUSH4 0x78A42BB4 EQ PUSH2 0x243 JUMPI DUP1 PUSH4 0x8DA5CB5B EQ PUSH2 0x21A JUMPI DUP1 PUSH4 0xB92571AA EQ PUSH2 0x19C JUMPI DUP1 PUSH4 0xC7CE5707 EQ PUSH2 0x15A JUMPI DUP1 PUSH4 0xE9CBD822 EQ PUSH2 0x115 JUMPI PUSH4 0xF2FDE38B EQ PUSH2 0x82 JUMPI PUSH1 0x0 DUP1 REVERT JUMPDEST CALLVALUE PUSH2 0x110 JUMPI PUSH1 0x20 CALLDATASIZE PUSH1 0x3 NOT ADD SLT PUSH2 0x110 JUMPI PUSH2 0x9B PUSH2 0xA6D JUMP JUMPDEST PUSH2 0xA3 PUSH2 0xB2C JUMP JUMPDEST PUSH1 0x1 PUSH1 0x1 PUSH1 0xA0 SHL SUB SWAP1 DUP2 AND SWAP1 DUP2 ISZERO PUSH2 0xF7 JUMPI PUSH1 0x0 SLOAD DUP3 PUSH12 0xFFFFFFFFFFFFFFFFFFFFFFFF PUSH1 0xA0 SHL DUP3 AND OR PUSH1 0x0 SSTORE AND PUSH32 0x8BE0079C531659141344CD1FD0A4F28419497F9722A3DAAFE3B4186F6B6457E0 PUSH1 0x0 DUP1 LOG3 STOP JUMPDEST PUSH1 0x40 MLOAD PUSH4 0x1E4FBDF7 PUSH1 0xE0 SHL DUP2 MSTORE PUSH1 0x0 PUSH1 0x4 DUP3 ADD MSTORE PUSH1 0x24 SWAP1 REVERT JUMPDEST PUSH1 0x0 DUP1 REVERT JUMPDEST CALLVALUE PUSH2 0x110 JUMPI PUSH1 0x0 CALLDATASIZE PUSH1 0x3 NOT ADD SLT PUSH2 0x110 JUMPI PUSH1 0x40 MLOAD PUSH32 0x0 PUSH1 0x1 PUSH1 0x1 PUSH1 0xA0 SHL SUB AND DUP2 MSTORE PUSH1 0x20 SWAP1 RETURN JUMPDEST CALLVALUE PUSH2 0x110 JUMPI PUSH1 0x20 CALLDATASIZE PUSH1 0x3 NOT ADD SLT PUSH2 0x110 JUMPI PUSH1 0x4 CALLDATALOAD PUSH1 0x3 SLOAD DUP2 LT ISZERO PUSH2 0x110 JUMPI PUSH2 0x183 PUSH1 0x20 SWAP2 PUSH2 0xADF JUMP JUMPDEST SWAP1 SLOAD PUSH1 0x40 MLOAD PUSH1 0x3 SWAP3 SWAP1 SWAP3 SHL SHR PUSH1 0x1 PUSH1 0x1 PUSH1 0xA0 SHL SUB AND DUP2 MSTORE RETURN JUMPDEST CALLVALUE PUSH2 0x110 JUMPI PUSH1 0x0 CALLDATASIZE PUSH1 0x3 NOT ADD SLT PUSH2 0x110 JUMPI PUSH1 0x0 DUP1 PUSH1 0x3 DUP1 SLOAD SWAP2 JUMPDEST DUP3 DUP2 LT PUSH2 0x1C8 JUMPI PUSH1 0x20 DUP5 PUSH1 0x40 MLOAD SWAP1 DUP2 MSTORE RETURN JUMPDEST PUSH2 0x1D1 DUP2 PUSH2 0xADF JUMP JUMPDEST SWAP1 SLOAD SWAP1 DUP4 SHL SHR PUSH1 0x1 PUSH1 0x1 PUSH1 0xA0 SHL SUB AND PUSH1 0x0 SWAP1 DUP2 MSTORE PUSH1 0x2 PUSH1 0x20 MSTORE PUSH1 0x40 SWAP1 KECCAK256 SLOAD PUSH1 0xFF AND PUSH2 0x205 JUMPI JUMPDEST PUSH2 0x200 SWAP1 PUSH2 0xB58 JUMP JUMPDEST PUSH2 0x1B6 JUMP JUMPDEST SWAP3 PUSH2 0x212 PUSH2 0x200 SWAP2 PUSH2 0xB58 JUMP JUMPDEST SWAP4 SWAP1 POP PUSH2 0x1F7 JUMP JUMPDEST CALLVALUE PUSH2 0x110 JUMPI PUSH1 0x0 CALLDATASIZE PUSH1 0x3 NOT ADD SLT PUSH2 0x110 JUMPI PUSH1 0x0 SLOAD PUSH1 0x40 MLOAD PUSH1 0x1 PUSH1 0x1 PUSH1 0xA0 SHL SUB SWAP1 SWAP2 AND DUP2 MSTORE PUSH1 0x20 SWAP1 RETURN JUMPDEST CALLVALUE PUSH2 0x110 JUMPI PUSH1 0x40 CALLDATASIZE PUSH1 0x3 NOT ADD SLT PUSH2 0x110 JUMPI PUSH2 0x25C PUSH2 0xA6D JUMP JUMPDEST PUSH1 0x24 CALLDATALOAD SWAP1 PUSH8 0xFFFFFFFFFFFFFFFF DUP3 GT PUSH2 0x110 JUMPI CALLDATASIZE PUSH1 0x23 DUP4 ADD SLT ISZERO PUSH2 0x110 JUMPI PUSH8 0xFFFFFFFFFFFFFFFF DUP3 PUSH1 0x4 ADD CALLDATALOAD GT PUSH2 0x110 JUMPI CALLDATASIZE PUSH1 0x24 DUP4 PUSH1 0x4 ADD CALLDATALOAD DUP5 ADD ADD GT PUSH2 0x110 JUMPI PUSH2 0x2A5 PUSH2 0xB2C JUMP JUMPDEST PUSH1 0x1 PUSH1 0x1 PUSH1 0xA0 SHL SUB DUP2 AND ISZERO PUSH2 0x588 JUMPI PUSH1 0x1 PUSH1 0x1 PUSH1 0xA0 SHL SUB DUP2 AND PUSH1 0x0 SWAP1 DUP2 MSTORE PUSH1 0x2 PUSH1 0x20 MSTORE PUSH1 0x40 SWAP1 KECCAK256 SLOAD PUSH1 0xFF AND PUSH2 0x54E JUMPI PUSH1 0x40 MLOAD PUSH1 0x60 DUP2 ADD DUP2 DUP2 LT PUSH8 0xFFFFFFFFFFFFFFFF DUP3 GT OR PUSH2 0x474 JUMPI PUSH1 0x40 MSTORE PUSH1 0x1 DUP2 MSTORE PUSH1 0x0 PUSH1 0x20 DUP3 ADD MSTORE PUSH1 0x40 MLOAD PUSH2 0x317 PUSH1 0x20 PUSH1 0x1F NOT PUSH1 0x1F DUP8 PUSH1 0x4 ADD CALLDATALOAD ADD AND ADD DUP3 PUSH2 0xABD JUMP JUMPDEST PUSH1 0x4 DUP5 ADD CALLDATALOAD DUP1 DUP3 MSTORE PUSH1 0x24 DUP6 ADD PUSH1 0x20 DUP4 ADD CALLDATACOPY PUSH1 0x0 PUSH1 0x20 DUP6 PUSH1 0x4 ADD CALLDATALOAD DUP4 ADD ADD MSTORE PUSH1 0x40 DUP3 ADD SWAP1 DUP2 MSTORE PUSH1 0x1 DUP1 PUSH1 0xA0 SHL SUB DUP4 AND PUSH1 0x0 MSTORE PUSH1 0x2 PUSH1 0x20 MSTORE PUSH1 0x20 PUSH1 0x40 PUSH1 0x0 KECCAK256 SWAP3 DUP1 MLOAD ISZERO ISZERO PUSH1 0xFF DUP1 NOT DUP7 SLOAD AND SWAP2 AND OR DUP5 SSTORE ADD MLOAD PUSH1 0x1 DUP4 ADD SSTORE MLOAD DUP1 MLOAD SWAP1 PUSH8 0xFFFFFFFFFFFFFFFF DUP3 GT PUSH2 0x474 JUMPI PUSH2 0x38C PUSH1 0x2 DUP5 ADD SLOAD PUSH2 0xA83 JUMP JUMPDEST PUSH1 0x1F DUP2 GT PUSH2 0x503 JUMPI JUMPDEST POP PUSH1 0x20 SWAP1 PUSH1 0x1F DUP4 GT PUSH1 0x1 EQ PUSH2 0x495 JUMPI PUSH1 0x2 SWAP3 SWAP2 PUSH1 0x0 SWAP2 DUP4 PUSH2 0x48A JUMPI JUMPDEST POP POP DUP2 PUSH1 0x1 SHL SWAP2 PUSH1 0x0 NOT SWAP1 PUSH1 0x3 SHL SHR NOT AND OR SWAP2 ADD SSTORE JUMPDEST PUSH1 0x3 SLOAD SWAP1 PUSH9 0x10000000000000000 DUP3 LT ISZERO PUSH2 0x474 JUMPI PUSH2 0x40D DUP3 PUSH1 0x1 PUSH32 0xDC50763BA3A9913608B4503BE1144367F90C3784CDD0C8DE36D2C2D6920F6B59 SWAP5 ADD PUSH1 0x3 SSTORE PUSH2 0xADF JUMP JUMPDEST DUP2 SLOAD PUSH1 0x1 PUSH1 0x1 PUSH1 0xA0 SHL SUB DUP5 DUP2 AND PUSH1 0x3 SWAP4 SWAP1 SWAP4 SHL SWAP3 DUP4 SHL SWAP3 SHL NOT AND OR SWAP1 SSTORE PUSH1 0x40 DUP1 MLOAD PUSH1 0x20 DUP1 DUP3 MSTORE PUSH1 0x4 DUP7 ADD CALLDATALOAD SWAP1 DUP3 ADD DUP2 SWAP1 MSTORE SWAP1 SWAP3 DUP4 SWAP2 PUSH1 0x24 DUP8 ADD DUP4 DUP6 ADD CALLDATACOPY PUSH1 0x0 PUSH1 0x4 SWAP1 SWAP7 ADD CALLDATALOAD DUP3 DUP2 ADD DUP5 ADD SWAP7 SWAP1 SWAP7 MSTORE PUSH1 0x1 PUSH1 0x1 PUSH1 0xA0 SHL SUB AND SWAP5 PUSH1 0x1F ADD PUSH1 0x1F NOT AND DUP2 ADD SUB ADD SWAP1 LOG2 STOP JUMPDEST PUSH4 0x4E487B71 PUSH1 0xE0 SHL PUSH1 0x0 MSTORE PUSH1 0x41 PUSH1 0x4 MSTORE PUSH1 0x24 PUSH1 0x0 REVERT JUMPDEST ADD MLOAD SWAP1 POP DUP7 DUP1 PUSH2 0x3B1 JUMP JUMPDEST SWAP1 PUSH1 0x1F NOT DUP4 AND SWAP2 PUSH1 0x2 DUP6 ADD PUSH1 0x0 MSTORE PUSH1 0x20 PUSH1 0x0 KECCAK256 SWAP3 PUSH1 0x0 JUMPDEST DUP2 DUP2 LT PUSH2 0x4EB JUMPI POP SWAP2 PUSH1 0x1 SWAP4 SWAP2 DUP6 PUSH1 0x2 SWAP7 SWAP5 LT PUSH2 0x4D2 JUMPI JUMPDEST POP POP POP DUP2 SHL ADD SWAP2 ADD SSTORE PUSH2 0x3C7 JUMP JUMPDEST ADD MLOAD PUSH1 0x0 NOT PUSH1 0xF8 DUP5 PUSH1 0x3 SHL AND SHR NOT AND SWAP1 SSTORE DUP7 DUP1 DUP1 PUSH2 0x4C4 JUMP JUMPDEST SWAP3 SWAP4 PUSH1 0x20 PUSH1 0x1 DUP2 SWAP3 DUP8 DUP7 ADD MLOAD DUP2 SSTORE ADD SWAP6 ADD SWAP4 ADD PUSH2 0x4AC JUMP JUMPDEST PUSH1 0x2 DUP5 ADD PUSH1 0x0 MSTORE PUSH1 0x20 PUSH1 0x0 KECCAK256 PUSH1 0x1F DUP5 ADD PUSH1 0x5 SHR DUP2 ADD SWAP2 PUSH1 0x20 DUP6 LT PUSH2 0x544 JUMPI JUMPDEST PUSH1 0x1F ADD PUSH1 0x5 SHR ADD SWAP1 JUMPDEST DUP2 DUP2 LT PUSH2 0x538 JUMPI POP PUSH2 0x395 JUMP JUMPDEST PUSH1 0x0 DUP2 SSTORE PUSH1 0x1 ADD PUSH2 0x52B JUMP JUMPDEST SWAP1 SWAP2 POP DUP2 SWAP1 PUSH2 0x522 JUMP JUMPDEST PUSH1 0x40 MLOAD PUSH3 0x461BCD PUSH1 0xE5 SHL DUP2 MSTORE PUSH1 0x20 PUSH1 0x4 DUP3 ADD MSTORE PUSH1 0x12 PUSH1 0x24 DUP3 ADD MSTORE PUSH18 0x105B1C9958591E481C9959DA5CDD195C9959 PUSH1 0x72 SHL PUSH1 0x44 DUP3 ADD MSTORE PUSH1 0x64 SWAP1 REVERT JUMPDEST PUSH1 0x40 MLOAD PUSH3 0x461BCD PUSH1 0xE5 SHL DUP2 MSTORE PUSH1 0x20 PUSH1 0x4 DUP3 ADD MSTORE PUSH1 0xF PUSH1 0x24 DUP3 ADD MSTORE PUSH15 0x496E76616C69642061646472657373 PUSH1 0x88 SHL PUSH1 0x44 DUP3 ADD MSTORE PUSH1 0x64 SWAP1 REVERT JUMPDEST CALLVALUE PUSH2 0x110 JUMPI PUSH1 0x0 CALLDATASIZE PUSH1 0x3 NOT ADD SLT PUSH2 0x110 JUMPI PUSH2 0x5D8 PUSH2 0xB2C JUMP JUMPDEST PUSH1 0x0 DUP1 SLOAD PUSH1 0x1 PUSH1 0x1 PUSH1 0xA0 SHL SUB NOT DUP2 AND DUP3 SSTORE PUSH1 0x1 PUSH1 0x1 PUSH1 0xA0 SHL SUB AND PUSH32 0x8BE0079C531659141344CD1FD0A4F28419497F9722A3DAAFE3B4186F6B6457E0 DUP3 DUP1 LOG3 STOP JUMPDEST CALLVALUE PUSH2 0x110 JUMPI PUSH1 0x0 CALLDATASIZE PUSH1 0x3 NOT ADD SLT PUSH2 0x110 JUMPI PUSH1 0x2 PUSH1 0x1 SLOAD EQ PUSH2 0x91D JUMPI PUSH1 0x2 PUSH1 0x1 SSTORE PUSH1 0x40 MLOAD PUSH4 0x70A08231 PUSH1 0xE0 SHL DUP2 MSTORE ADDRESS PUSH1 0x4 DUP3 ADD MSTORE PUSH32 0x0 PUSH1 0x1 PUSH1 0x1 PUSH1 0xA0 SHL SUB AND PUSH1 0x20 DUP3 PUSH1 0x24 DUP2 DUP5 GAS STATICCALL SWAP2 DUP3 ISZERO PUSH2 0x7E9 JUMPI PUSH1 0x0 SWAP3 PUSH2 0x8E9 JUMPI JUMPDEST POP DUP2 ISZERO PUSH2 0x8B9 JUMPI PUSH1 0x0 SWAP2 PUSH1 0x0 PUSH1 0x3 SLOAD SWAP1 JUMPDEST DUP2 DUP2 LT PUSH2 0x868 JUMPI POP POP DUP3 ISZERO PUSH2 0x82B JUMPI PUSH1 0x0 JUMPDEST PUSH1 0x3 SLOAD DUP2 LT ISZERO PUSH2 0x7F5 JUMPI PUSH2 0x6C3 DUP2 PUSH2 0xADF JUMP JUMPDEST SWAP1 SLOAD PUSH1 0x3 SWAP2 SWAP1 SWAP2 SHL SHR PUSH1 0x1 PUSH1 0x1 PUSH1 0xA0 SHL SUB AND PUSH1 0x0 DUP2 DUP2 MSTORE PUSH1 0x2 PUSH1 0x20 MSTORE PUSH1 0x40 SWAP1 KECCAK256 SLOAD PUSH1 0xFF AND PUSH2 0x6FB JUMPI JUMPDEST POP PUSH2 0x6F6 SWAP1 PUSH2 0xB58 JUMP JUMPDEST PUSH2 0x6B0 JUMP JUMPDEST PUSH1 0x40 MLOAD PUSH4 0xA9059CBB PUSH1 0xE0 SHL DUP2 MSTORE PUSH1 0x4 DUP2 ADD DUP3 SWAP1 MSTORE DUP6 DUP5 DIV PUSH1 0x24 DUP3 ADD MSTORE PUSH1 0x20 DUP2 PUSH1 0x44 DUP2 PUSH1 0x0 DUP10 GAS CALL SWAP1 DUP2 ISZERO PUSH2 0x7E9 JUMPI PUSH1 0x0 SWAP2 PUSH2 0x7AE JUMPI JUMPDEST POP ISZERO PUSH2 0x777 JUMPI PUSH1 0x0 MSTORE PUSH1 0x2 PUSH1 0x20 MSTORE PUSH1 0x1 PUSH1 0x40 PUSH1 0x0 KECCAK256 ADD SWAP1 DUP2 SLOAD DUP6 DUP5 DIV DUP2 ADD DUP1 SWAP2 GT PUSH2 0x761 JUMPI PUSH2 0x6F6 SWAP3 SSTORE SWAP1 PUSH2 0x6EC JUMP JUMPDEST PUSH4 0x4E487B71 PUSH1 0xE0 SHL PUSH1 0x0 MSTORE PUSH1 0x11 PUSH1 0x4 MSTORE PUSH1 0x24 PUSH1 0x0 REVERT JUMPDEST PUSH1 0x40 MLOAD PUSH3 0x461BCD PUSH1 0xE5 SHL DUP2 MSTORE PUSH1 0x20 PUSH1 0x4 DUP3 ADD MSTORE PUSH1 0xF PUSH1 0x24 DUP3 ADD MSTORE PUSH15 0x151C985B9CD9995C8819985A5B1959 PUSH1 0x8A SHL PUSH1 0x44 DUP3 ADD MSTORE PUSH1 0x64 SWAP1 REVERT JUMPDEST SWAP1 POP PUSH1 0x20 DUP2 RETURNDATASIZE PUSH1 0x20 GT PUSH2 0x7E1 JUMPI JUMPDEST DUP2 PUSH2 0x7C9 PUSH1 0x20 SWAP4 DUP4 PUSH2 0xABD JUMP JUMPDEST DUP2 ADD SUB SLT PUSH2 0x110 JUMPI MLOAD DUP1 ISZERO ISZERO DUP2 SUB PUSH2 0x110 JUMPI DUP7 PUSH2 0x731 JUMP JUMPDEST RETURNDATASIZE SWAP2 POP PUSH2 0x7BC JUMP JUMPDEST PUSH1 0x40 MLOAD RETURNDATASIZE PUSH1 0x0 DUP3 RETURNDATACOPY RETURNDATASIZE SWAP1 REVERT JUMPDEST PUSH32 0x40D8C854B6D5329FD5FCCAE04F5A931D7529963FBAB81ACED7337394E737CB4D PUSH1 0x40 DUP4 DUP7 DUP3 MLOAD SWAP2 DUP3 MSTORE PUSH1 0x20 DUP3 ADD MSTORE LOG1 PUSH1 0x1 DUP1 SSTORE STOP JUMPDEST PUSH1 0x40 MLOAD PUSH3 0x461BCD PUSH1 0xE5 SHL DUP2 MSTORE PUSH1 0x20 PUSH1 0x4 DUP3 ADD MSTORE PUSH1 0x15 PUSH1 0x24 DUP3 ADD MSTORE PUSH21 0x4E6F2061637469766520616D6261737361646F7273 PUSH1 0x58 SHL PUSH1 0x44 DUP3 ADD MSTORE PUSH1 0x64 SWAP1 REVERT JUMPDEST PUSH2 0x871 DUP2 PUSH2 0xADF JUMP JUMPDEST PUSH1 0x1 DUP1 PUSH1 0xA0 SHL SUB SWAP2 SLOAD SWAP1 PUSH1 0x3 SHL SHR AND PUSH1 0x0 MSTORE PUSH1 0x2 PUSH1 0x20 MSTORE PUSH1 0xFF PUSH1 0x40 PUSH1 0x0 KECCAK256 SLOAD AND PUSH2 0x8A4 JUMPI JUMPDEST PUSH2 0x89F SWAP1 PUSH2 0xB58 JUMP JUMPDEST PUSH2 0x69E JUMP JUMPDEST SWAP4 PUSH2 0x8B1 PUSH2 0x89F SWAP2 PUSH2 0xB58 JUMP JUMPDEST SWAP5 SWAP1 POP PUSH2 0x896 JUMP JUMPDEST PUSH1 0x40 MLOAD PUSH3 0x461BCD PUSH1 0xE5 SHL DUP2 MSTORE PUSH1 0x20 PUSH1 0x4 DUP3 ADD MSTORE PUSH1 0x8 PUSH1 0x24 DUP3 ADD MSTORE PUSH8 0x4E6F2066756E6473 PUSH1 0xC0 SHL PUSH1 0x44 DUP3 ADD MSTORE PUSH1 0x64 SWAP1 REVERT JUMPDEST SWAP1 SWAP2 POP PUSH1 0x20 DUP2 RETURNDATASIZE PUSH1 0x20 GT PUSH2 0x915 JUMPI JUMPDEST DUP2 PUSH2 0x905 PUSH1 0x20 SWAP4 DUP4 PUSH2 0xABD JUMP JUMPDEST DUP2 ADD SUB SLT PUSH2 0x110 JUMPI MLOAD SWAP1 DUP3 PUSH2 0x68D JUMP JUMPDEST RETURNDATASIZE SWAP2 POP PUSH2 0x8F8 JUMP JUMPDEST PUSH1 0x40 MLOAD PUSH4 0x3EE5AEB5 PUSH1 0xE0 SHL DUP2 MSTORE PUSH1 0x4 SWAP1 REVERT JUMPDEST CALLVALUE PUSH2 0x110 JUMPI PUSH1 0x20 SWAP1 DUP2 PUSH1 0x3 NOT CALLDATASIZE ADD SLT PUSH2 0x110 JUMPI PUSH1 0x1 PUSH1 0x1 PUSH1 0xA0 SHL SUB PUSH2 0x952 PUSH2 0xA6D JUMP JUMPDEST AND PUSH1 0x0 MSTORE PUSH1 0x2 DUP3 MSTORE PUSH1 0x40 PUSH1 0x0 KECCAK256 SWAP2 PUSH1 0xFF DUP4 SLOAD AND SWAP3 PUSH1 0x1 DUP4 PUSH1 0x2 DUP3 DUP5 ADD SLOAD SWAP4 ADD SWAP2 PUSH1 0x0 SWAP1 DUP4 SLOAD SWAP4 PUSH2 0x981 DUP6 PUSH2 0xA83 JUMP JUMPDEST SWAP5 DUP6 DUP6 MSTORE DUP8 DUP4 DUP3 AND SWAP2 DUP3 PUSH1 0x0 EQ PUSH2 0xA4B JUMPI POP POP PUSH1 0x1 EQ PUSH2 0xA0C JUMPI JUMPDEST POP POP PUSH2 0x9AE SWAP3 POP SWAP6 SWAP4 SWAP3 SWAP6 SUB DUP5 PUSH2 0xABD JUMP JUMPDEST PUSH1 0x40 MLOAD SWAP4 DUP5 SWAP3 ISZERO ISZERO DUP4 MSTORE DUP2 DUP4 ADD MSTORE PUSH1 0x60 PUSH1 0x40 DUP4 ADD MSTORE DUP3 MLOAD SWAP1 DUP2 PUSH1 0x60 DUP5 ADD MSTORE PUSH1 0x0 SWAP4 JUMPDEST DUP3 DUP6 LT PUSH2 0x9F3 JUMPI POP POP PUSH1 0x80 SWAP3 POP PUSH1 0x0 DUP4 DUP3 DUP5 ADD ADD MSTORE PUSH1 0x1F DUP1 NOT SWAP2 ADD AND DUP2 ADD SUB ADD SWAP1 RETURN JUMPDEST DUP5 DUP2 ADD DUP3 ADD MLOAD DUP7 DUP7 ADD PUSH1 0x80 ADD MSTORE SWAP4 DUP2 ADD SWAP4 DUP6 SWAP4 POP PUSH2 0x9D0 JUMP JUMPDEST DUP7 SWAP3 POP PUSH1 0x0 MSTORE DUP2 PUSH1 0x0 KECCAK256 SWAP1 PUSH1 0x0 SWAP2 JUMPDEST DUP6 DUP4 LT PUSH2 0xA33 JUMPI POP POP PUSH2 0x9AE SWAP4 POP DUP3 ADD ADD DUP8 DUP1 PUSH2 0x99C JUMP JUMPDEST DUP1 SLOAD DUP4 DUP11 ADD DUP6 ADD MSTORE DUP9 SWAP5 POP DUP8 SWAP4 SWAP1 SWAP3 ADD SWAP2 DUP2 ADD PUSH2 0xA1B JUMP JUMPDEST SWAP3 POP SWAP4 POP POP PUSH2 0x9AE SWAP5 SWAP2 POP PUSH1 0xFF NOT AND DUP3 DUP5 ADD MSTORE ISZERO ISZERO PUSH1 0x5 SHL DUP3 ADD ADD DUP8 DUP1 PUSH2 0x99C JUMP JUMPDEST PUSH1 0x4 CALLDATALOAD SWAP1 PUSH1 0x1 PUSH1 0x1 PUSH1 0xA0 SHL SUB DUP3 AND DUP3 SUB PUSH2 0x110 JUMPI JUMP JUMPDEST SWAP1 PUSH1 0x1 DUP3 DUP2 SHR SWAP3 AND DUP1 ISZERO PUSH2 0xAB3 JUMPI JUMPDEST PUSH1 0x20 DUP4 LT EQ PUSH2 0xA9D JUMPI JUMP JUMPDEST PUSH4 0x4E487B71 PUSH1 0xE0 SHL PUSH1 0x0 MSTORE PUSH1 0x22 PUSH1 0x4 MSTORE PUSH1 0x24 PUSH1 0x0 REVERT JUMPDEST SWAP2 PUSH1 0x7F AND SWAP2 PUSH2 0xA92 JUMP JUMPDEST SWAP1 PUSH1 0x1F DUP1 NOT SWAP2 ADD AND DUP2 ADD SWAP1 DUP2 LT PUSH8 0xFFFFFFFFFFFFFFFF DUP3 GT OR PUSH2 0x474 JUMPI PUSH1 0x40 MSTORE JUMP JUMPDEST PUSH1 0x3 SLOAD DUP2 LT ISZERO PUSH2 0xB16 JUMPI PUSH1 0x3 PUSH1 0x0 MSTORE PUSH32 0xC2575A0E9E593C00F959F8C92F12DB2869C3395A3B0502D05E2516446F71F85B ADD SWAP1 PUSH1 0x0 SWAP1 JUMP JUMPDEST PUSH4 0x4E487B71 PUSH1 0xE0 SHL PUSH1 0x0 MSTORE PUSH1 0x32 PUSH1 0x4 MSTORE PUSH1 0x24 PUSH1 0x0 REVERT JUMPDEST PUSH1 0x0 SLOAD PUSH1 0x1 PUSH1 0x1 PUSH1 0xA0 SHL SUB AND CALLER SUB PUSH2 0xB40 JUMPI JUMP JUMPDEST PUSH1 0x40 MLOAD PUSH4 0x118CDAA7 PUSH1 0xE0 SHL DUP2 MSTORE CALLER PUSH1 0x4 DUP3 ADD MSTORE PUSH1 0x24 SWAP1 REVERT JUMPDEST PUSH1 0x0 NOT DUP2 EQ PUSH2 0x761 JUMPI PUSH1 0x1 ADD SWAP1 JUMP INVALID LOG2 PUSH5 0x6970667358 0x22 SLT KECCAK256 PUSH27 0x81B93212400EA15DA5E41B90CF50BA449B48D61822A20A4500470A ADDRESS STATICCALL 0xD8 CALLCODE PUSH5 0x736F6C6343 STOP ADDMOD EQ STOP CALLER "},"methodIdentifiers":{"ambassadorList(uint256)":"c7ce5707","ambassadors(address)":"28ce48a0","distributeFunds()":"3a6a4d2e","getActiveAmbassadorCount()":"b92571aa","owner()":"8da5cb5b","registerAmbassador(address,string)":"78a42bb4","renounceOwnership()":"715018a6","stablecoin()":"e9cbd822","transferOwnership(address)":"f2fde38b"}}}}}