{"contracts/NexaloStaking.sol":{"NexaloStaking":{"abi":[{"inputs":[{"internalType":"address","name":"_nxlToken","type":"address"},{"internalType":"address","name":"_wbtc","type":"address"}],"stateMutability":"nonpayable","type":"constructor"},{"inputs":[{"internalType":"address","name":"owner","type":"address"}],"name":"OwnableInvalidOwner","type":"error"},{"inputs":[{"internalType":"address","name":"account","type":"address"}],"name":"OwnableUnauthorizedAccount","type":"error"},{"inputs":[],"name":"ReentrancyGuardReentrantCall","type":"error"},{"anonymous":false,"inputs":[{"indexed":true,"internalType":"address","name":"previousOwner","type":"address"},{"indexed":true,"internalType":"address","name":"newOwner","type":"address"}],"name":"OwnershipTransferred","type":"event"},{"anonymous":false,"inputs":[{"indexed":true,"internalType":"address","name":"user","type":"address"},{"indexed":false,"internalType":"uint256","name":"amount","type":"uint256"}],"name":"RewardsClaimed","type":"event"},{"anonymous":false,"inputs":[{"indexed":true,"internalType":"address","name":"funder","type":"address"},{"indexed":false,"internalType":"uint256","name":"amount","type":"uint256"}],"name":"RewardsFunded","type":"event"},{"anonymous":false,"inputs":[{"indexed":true,"internalType":"address","name":"user","type":"address"},{"indexed":false,"internalType":"uint256","name":"amount","type":"uint256"}],"name":"Staked","type":"event"},{"anonymous":false,"inputs":[{"indexed":true,"internalType":"address","name":"user","type":"address"},{"indexed":false,"internalType":"uint256","name":"amount","type":"uint256"}],"name":"Unstaked","type":"event"},{"inputs":[],"name":"APY_RATE","outputs":[{"internalType":"uint256","name":"","type":"uint256"}],"stateMutability":"view","type":"function"},{"inputs":[],"name":"SECONDS_PER_YEAR","outputs":[{"internalType":"uint256","name":"","type":"uint256"}],"stateMutability":"view","type":"function"},{"inputs":[{"internalType":"address","name":"user","type":"address"}],"name":"calculatePendingRewards","outputs":[{"internalType":"uint256","name":"","type":"uint256"}],"stateMutability":"view","type":"function"},{"inputs":[],"name":"claimRewards","outputs":[],"stateMutability":"nonpayable","type":"function"},{"inputs":[{"internalType":"uint256","name":"nxlAmount","type":"uint256"},{"internalType":"uint256","name":"days_","type":"uint256"}],"name":"estimateRewards","outputs":[{"internalType":"uint256","name":"","type":"uint256"}],"stateMutability":"pure","type":"function"},{"inputs":[{"internalType":"uint256","name":"amount","type":"uint256"}],"name":"fundRewards","outputs":[],"stateMutability":"nonpayable","type":"function"},{"inputs":[],"name":"getCurrentAPY","outputs":[{"internalType":"uint256","name":"","type":"uint256"}],"stateMutability":"pure","type":"function"},{"inputs":[],"name":"getGlobalStats","outputs":[{"internalType":"uint256","name":"_totalStaked","type":"uint256"},{"internalType":"uint256","name":"_totalStakers","type":"uint256"},{"internalType":"uint256","name":"_totalRewardsPaid","type":"uint256"},{"internalType":"uint256","name":"_wbtcBalance","type":"uint256"},{"internalType":"uint256","name":"_apy","type":"uint256"}],"stateMutability":"view","type":"function"},{"inputs":[{"internalType":"address","name":"user","type":"address"}],"name":"getStakeInfo","outputs":[{"internalType":"uint256","name":"stakedAmount","type":"uint256"},{"internalType":"uint256","name":"pendingRewards","type":"uint256"},{"internalType":"uint256","name":"totalClaimed","type":"uint256"},{"internalType":"uint256","name":"stakingDuration","type":"uint256"}],"stateMutability":"view","type":"function"},{"inputs":[],"name":"nxlToken","outputs":[{"internalType":"contract INXLToken","name":"","type":"address"}],"stateMutability":"view","type":"function"},{"inputs":[],"name":"owner","outputs":[{"internalType":"address","name":"","type":"address"}],"stateMutability":"view","type":"function"},{"inputs":[],"name":"pause","outputs":[],"stateMutability":"nonpayable","type":"function"},{"inputs":[],"name":"paused","outputs":[{"internalType":"bool","name":"","type":"bool"}],"stateMutability":"view","type":"function"},{"inputs":[{"internalType":"address","name":"token","type":"address"},{"internalType":"uint256","name":"amount","type":"uint256"}],"name":"recoverTokens","outputs":[],"stateMutability":"nonpayable","type":"function"},{"inputs":[],"name":"renounceOwnership","outputs":[],"stateMutability":"nonpayable","type":"function"},{"inputs":[{"internalType":"uint256","name":"amount","type":"uint256"}],"name":"stake","outputs":[],"stateMutability":"nonpayable","type":"function"},{"inputs":[{"internalType":"address","name":"","type":"address"}],"name":"stakes","outputs":[{"internalType":"uint256","name":"amount","type":"uint256"},{"internalType":"uint256","name":"startTime","type":"uint256"},{"internalType":"uint256","name":"lastClaimTime","type":"uint256"},{"internalType":"uint256","name":"totalClaimed","type":"uint256"}],"stateMutability":"view","type":"function"},{"inputs":[],"name":"totalRewardsPaid","outputs":[{"internalType":"uint256","name":"","type":"uint256"}],"stateMutability":"view","type":"function"},{"inputs":[],"name":"totalStaked","outputs":[{"internalType":"uint256","name":"","type":"uint256"}],"stateMutability":"view","type":"function"},{"inputs":[],"name":"totalStakers","outputs":[{"internalType":"uint256","name":"","type":"uint256"}],"stateMutability":"view","type":"function"},{"inputs":[{"internalType":"address","name":"newOwner","type":"address"}],"name":"transferOwnership","outputs":[],"stateMutability":"nonpayable","type":"function"},{"inputs":[],"name":"unpause","outputs":[],"stateMutability":"nonpayable","type":"function"},{"inputs":[{"internalType":"uint256","name":"amount","type":"uint256"}],"name":"unstake","outputs":[],"stateMutability":"nonpayable","type":"function"},{"inputs":[],"name":"wbtc","outputs":[{"internalType":"contract IERC20","name":"","type":"address"}],"stateMutability":"view","type":"function"},{"inputs":[{"internalType":"uint256","name":"amount","type":"uint256"}],"name":"withdrawExcess","outputs":[],"stateMutability":"nonpayable","type":"function"}],"evm":{"bytecode":{"linkReferences":{},"object":"60c03461019e57620015bc90601f38839003908101601f19168201906001600160401b038211838310176101a3578083916040958694855283398101031261019e57610056602061004f836101b9565b92016101b9565b90600160005533156101865760018054336001600160a01b0319821681179092558451936001600160a01b03939092849283167f8be0079c531659141344cd1fd0a4f28419497f9722a3daafe3b4186f6b6457e0600080a31692831561015057501690811561011d5760805260a052516113ee9081620001ce823960805181818161047d0152818161082601528181610c480152610dec015260a0518181816102130152818161074c0152818161096e01528181610b0c01528181610e16015261113c0152f35b825162461bcd60e51b815260206004820152600c60248201526b496e76616c6964205742544360a01b6044820152606490fd5b62461bcd60e51b815260206004820152601160248201527024b73b30b634b210272c26103a37b5b2b760791b6044820152606490fd5b8251631e4fbdf760e01b815260006004820152602490fd5b600080fd5b634e487b7160e01b600052604160045260246000fd5b51906001600160a01b038216820361019e5756fe6040608081526004908136101561001557600080fd5b600091823560e01c8063069c9fae14610dbd578063097aad1014610d9057806316934fc414610d285780632e17de7814610ba4578063372500ab14610b3b5780633cdc538914610af75780633f4ba83a14610ad157806346a203d0146106cc5780635c975abb14610aad57806360df829714610a085780636b4169c314610936578063715018a6146108d957806374958e35146108bc578063817b1cd21461089d5780638456cb5914610874578063869890381461085557806389ef723b146108115780638da5cb5b146107e857806393707a19146106e9578063962ca496146106cc578063a694fc3a1461043f578063c345315314610387578063e6a69ab814610364578063e755ddd7146101c65763f2fde38b1461013457600080fd5b346101c25760203660031901126101c25761014d610f3c565b90610156610f57565b6001600160a01b039182169283156101ac575050600154826bffffffffffffffffffffffff60a01b821617600155167f8be0079c531659141344cd1fd0a4f28419497f9722a3daafe3b4186f6b6457e08380a380f35b51631e4fbdf760e01b8152908101849052602490fd5b8280fd5b50346101c25760209081600319360112610360578035906101e5610f57565b6101ed611091565b6101f8821515610f83565b83516370a0823160e01b815230828201526001600160a01b037f0000000000000000000000000000000000000000000000000000000000000000811692918581602481875afa80156103565785918991610321575b50106102e757600154865163a9059cbb60e01b815291166001600160a01b031691810191825260208201939093528391839182908890829060400103925af19182156102da576102a6935084926102ad575b5050611030565b6001815580f35b6102cc9250803d106102d3575b6102c48183610ff6565b810190611018565b388061029f565b503d6102ba565b50505051903d90823e3d90fd5b855162461bcd60e51b81528083018690526014602482015273496e73756666696369656e742062616c616e636560601b6044820152606490fd5b809250878092503d831161034f575b61033a8183610ff6565b8101031261034b578490513861024d565b8780fd5b503d610330565b87513d8a823e3d90fd5b8380fd5b505034610383578160031936011261038357602090516301e133808152f35b5080fd5b82843461043c57602036600319011261043c576104316103a5610f3c565b9160018060a01b03831681526002602052838120938051916103c683610fc4565b855483526103f4600360018801549760208601988952600281015485870152015495606085019687526112e5565b8351909690156104355761040a915051426110b4565b915b5193519051948594859094939260609260808301968352602083015260408201520152565b0390f35b509161040c565b80fd5b50919034610383576020806003193601126101c25783359161045f611091565b61046a831515610f83565b80516370a0823160e01b815233868201527f00000000000000000000000000000000000000000000000000000000000000006001600160a01b0316908381602481855afa9081156106c257908591879161068d575b501061064a57338552600283528185205461063c575b81516323b872dd60e01b815233878201908152306020820152604081018690529091849183919082908990829060600103925af19081156106325790610522918691610615575b50611030565b338452600282528084208054806105df57505060055460001981146105cc577f9e71bc8eea02a63969f509818f2dafb9254532904319f9dbda79b67bd34a5f3d93949550600101600555805161057781610fc4565b84815260038382014281528383014281526060840191898352338a5260028752858a2094518555516001850155516002840155519101555b6105bb8460035461106e565b600355519283523392a26001815580f35b634e487b7160e01b855260118652602485fd5b847f9e71bc8eea02a63969f509818f2dafb9254532904319f9dbda79b67bd34a5f3d9596975061060e9161106e565b90556105af565b61062c9150843d86116102d3576102c48183610ff6565b3861051c565b82513d87823e3d90fd5b61064533611104565b6104d5565b815162461bcd60e51b8152808701849052601860248201527f496e73756666696369656e74204e584c2062616c616e636500000000000000006044820152606490fd5b809250858092503d83116106bb575b6106a68183610ff6565b810103126106b757849051386104bf565b8580fd5b503d61069c565b83513d88823e3d90fd5b505034610383578160031936011261038357602090516101908152f35b5090346101c25760203660031901126101c25761074760208335809461070d611091565b610718821515610f83565b84516323b872dd60e01b8152339181019182523060208301526040820192909252909283918291606090910190565b0381877f00000000000000000000000000000000000000000000000000000000000000006001600160a01b03165af19081156107de579061078f9185916107c0575b506110c1565b519081527fd53214ca07be5520e229c395f05a3e5c0697ec6279184ffbe2758d304fd322cc60203392a26001815580f35b6107d8915060203d81116102d3576102c48183610ff6565b38610789565b82513d86823e3d90fd5b50503461038357816003193601126103835760015490516001600160a01b039091168152602090f35b505034610383578160031936011261038357517f00000000000000000000000000000000000000000000000000000000000000006001600160a01b03168152602090f35b5050346103835781600319360112610383576020906005549051908152f35b833461043c578060031936011261043c5761088d610f57565b600160ff19600654161760065580f35b5050346103835781600319360112610383576020906003549051908152f35b50346101c257826003193601126101c25760209250549051908152f35b833461043c578060031936011261043c576108f2610f57565b600180546001600160a01b0319811690915581906001600160a01b03167f8be0079c531659141344cd1fd0a4f28419497f9722a3daafe3b4186f6b6457e08280a380f35b50346101c257826003193601126101c257600354600554825484516370a0823160e01b815230948101949094529193906020846024817f00000000000000000000000000000000000000000000000000000000000000006001600160a01b03165afa9384156109fe5786946109c7575b5060a095508151948552602085015283015260608201526101906080820152f35b9093506020813d82116109f6575b816109e260209383610ff6565b810103126106b75760a095505192386109a6565b3d91506109d5565b82513d88823e3d90fd5b50823461043c578260031936011261043c578135602435906201518091828102928184041490151715610a9a5761019090818102918183041490151715610a9a5764496cebb80091610a59916112d2565b04916305f5e10092838102938185041490151715610a875760208369d3c21bcecceda1000000865191048152f35b634e487b7160e01b825260119052602490fd5b634e487b7160e01b835260118452602483fd5b50503461038357816003193601126103835760209060ff6006541690519015158152f35b833461043c578060031936011261043c57610aea610f57565b60ff196006541660065580f35b505034610383578160031936011261038357517f00000000000000000000000000000000000000000000000000000000000000006001600160a01b03168152602090f35b5090346101c257826003193601126101c257610b55611091565b33835260026020528083205415610b7057826102a633611104565b906020606492519162461bcd60e51b8352820152600e60248201526d139bc81cdd185ad948199bdd5b9960921b6044820152fd5b50346101c25760208060031936011261036057813591610bc2611091565b610bcd831515610f83565b33855260028252828486205410610cf157610be733611104565b33855260028252838520610bfc8482546110b4565b9055610c0a836003546110b4565b6003553385526002825281838587205415610cc5575b855163a9059cbb60e01b815233938101938452602084019190915291829081906040010381887f00000000000000000000000000000000000000000000000000000000000000006001600160a01b03165af1908115610cbb577f0f5bb82176feb1b5e747e28471aa92156a04d9f3ab9f45f28e2d704232b93f75939491610cad9187916106155750611030565b519283523392a26001815580f35b84513d87823e3d90fd5b50506005548015610cde57600019016005558183610c20565b634e487b7160e01b865260118252602486fd5b60649184519162461bcd60e51b83528201526013602482015272125b9cdd59999a58da595b9d081cdd185ad959606a1b6044820152fd5b505034610383576020366003190112610383579081906001600160a01b03610d4e610f3c565b16815260026020522090610431825491600184015493600360028201549101549151948594859094939260609260808301968352602083015260408201520152565b50503461038357602036600319011261038357602090610db6610db1610f3c565b6112e5565b9051908152f35b50346101c257816003193601126101c257610dd6610f3c565b610dde610f57565b6001600160a01b03908116907f000000000000000000000000000000000000000000000000000000000000000081168214610f0457807f0000000000000000000000000000000000000000000000000000000000000000168214610eb057600154845163a9059cbb60e01b815291166001600160a01b03169281019283526024356020808501919091529093929091849182908790829060400103925af1908115610ea75750610e8c575080f35b610ea39060203d81116102d3576102c48183610ff6565b5080f35b513d84823e3d90fd5b835162461bcd60e51b8152602081850152602860248201527f43616e6e6f74207265636f766572205742544320287573652077697468647261604482015267774578636573732960c01b6064820152608490fd5b835162461bcd60e51b8152602081850152601260248201527110d85b9b9bdd081c9958dbdd995c8813961360721b6044820152606490fd5b600435906001600160a01b0382168203610f5257565b600080fd5b6001546001600160a01b03163303610f6b57565b60405163118cdaa760e01b8152336004820152602490fd5b15610f8a57565b60405162461bcd60e51b81526020600482015260126024820152710416d6f756e74206d757374206265203e20360741b6044820152606490fd5b6080810190811067ffffffffffffffff821117610fe057604052565b634e487b7160e01b600052604160045260246000fd5b90601f8019910116810190811067ffffffffffffffff821117610fe057604052565b90816020910312610f5257518015158103610f525790565b1561103757565b60405162461bcd60e51b815260206004820152600f60248201526e151c985b9cd9995c8819985a5b1959608a1b6044820152606490fd5b9190820180921161107b57565b634e487b7160e01b600052601160045260246000fd5b6002600054146110a2576002600055565b604051633ee5aeb560e01b8152600490fd5b9190820391821161107b57565b156110c857565b60405162461bcd60e51b815260206004820152601460248201527315d09510c81d1c985b9cd9995c8819985a5b195960621b6044820152606490fd5b9061110e826112e5565b918261111957509050565b604080516370a0823160e01b815230600482015290936020916001600160a01b037f00000000000000000000000000000000000000000000000000000000000000008116918481602481865afa80156112c7578491600091611297575b501061125357826111e9928592871696876000526002845260038a600020426002820155016111a684825461106e565b90556111b48360045461106e565b60045560008a5180968195829463a9059cbb60e01b84526004840160209093929193604081019460018060a01b031681520152565b03925af1908115611248577ffc30cddea38e2bf4d6ea7d3f9ed3b6ad7f176419f4963bd81318067a4aee73fe9495969161122a9160009161123157506110c1565b51908152a2565b6107d89150853d87116102d3576102c48183610ff6565b86513d6000823e3d90fd5b865162461bcd60e51b815260048101859052601d60248201527f496e73756666696369656e74205742544320696e20636f6e74726163740000006044820152606490fd5b91508582813d83116112c0575b6112ae8183610ff6565b8101031261043c575083905138611176565b503d6112a4565b88513d6000823e3d90fd5b8181029291811591840414171561107b57565b6001600160a01b031660009081526002602052604080822090519061130982610fc4565b805480835260018201546020840152600360028301549283604086015201546060840152156113b35761133c90426110b4565b90516101909081810291818304149015171561139f5764496cebb80091611362916112d2565b04906305f5e1009182810292818404149015171561138b575069d3c21bcecceda1000000900490565b634e487b7160e01b81526011600452602490fd5b634e487b7160e01b83526011600452602483fd5b50509056fea26469706673582212208d82c4e881fd3adc1983c5831ea6575b07efe2dc3db686a2223c0b0b5a20aaeb64736f6c63430008140033","opcodes":"PUSH1 0xC0 CALLVALUE PUSH2 0x19E JUMPI PUSH3 0x15BC SWAP1 PUSH1 0x1F CODESIZE DUP4 SWAP1 SUB SWAP1 DUP2 ADD PUSH1 0x1F NOT AND DUP3 ADD SWAP1 PUSH1 0x1 PUSH1 0x1 PUSH1 0x40 SHL SUB DUP3 GT DUP4 DUP4 LT OR PUSH2 0x1A3 JUMPI DUP1 DUP4 SWAP2 PUSH1 0x40 SWAP6 DUP7 SWAP5 DUP6 MSTORE DUP4 CODECOPY DUP2 ADD SUB SLT PUSH2 0x19E JUMPI PUSH2 0x56 PUSH1 0x20 PUSH2 0x4F DUP4 PUSH2 0x1B9 JUMP JUMPDEST SWAP3 ADD PUSH2 0x1B9 JUMP JUMPDEST SWAP1 PUSH1 0x1 PUSH1 0x0 SSTORE CALLER ISZERO PUSH2 0x186 JUMPI PUSH1 0x1 DUP1 SLOAD CALLER PUSH1 0x1 PUSH1 0x1 PUSH1 0xA0 SHL SUB NOT DUP3 AND DUP2 OR SWAP1 SWAP3 SSTORE DUP5 MLOAD SWAP4 PUSH1 0x1 PUSH1 0x1 PUSH1 0xA0 SHL SUB SWAP4 SWAP1 SWAP3 DUP5 SWAP3 DUP4 AND PUSH32 0x8BE0079C531659141344CD1FD0A4F28419497F9722A3DAAFE3B4186F6B6457E0 PUSH1 0x0 DUP1 LOG3 AND SWAP3 DUP4 ISZERO PUSH2 0x150 JUMPI POP AND SWAP1 DUP2 ISZERO PUSH2 0x11D JUMPI PUSH1 0x80 MSTORE PUSH1 0xA0 MSTORE MLOAD PUSH2 0x13EE SWAP1 DUP2 PUSH3 0x1CE DUP3 CODECOPY PUSH1 0x80 MLOAD DUP2 DUP2 DUP2 PUSH2 0x47D ADD MSTORE DUP2 DUP2 PUSH2 0x826 ADD MSTORE DUP2 DUP2 PUSH2 0xC48 ADD MSTORE PUSH2 0xDEC ADD MSTORE PUSH1 0xA0 MLOAD DUP2 DUP2 DUP2 PUSH2 0x213 ADD MSTORE DUP2 DUP2 PUSH2 0x74C ADD MSTORE DUP2 DUP2 PUSH2 0x96E ADD MSTORE DUP2 DUP2 PUSH2 0xB0C ADD MSTORE DUP2 DUP2 PUSH2 0xE16 ADD MSTORE PUSH2 0x113C ADD MSTORE RETURN JUMPDEST DUP3 MLOAD PUSH3 0x461BCD PUSH1 0xE5 SHL DUP2 MSTORE PUSH1 0x20 PUSH1 0x4 DUP3 ADD MSTORE PUSH1 0xC PUSH1 0x24 DUP3 ADD MSTORE PUSH12 0x496E76616C69642057425443 PUSH1 0xA0 SHL PUSH1 0x44 DUP3 ADD MSTORE PUSH1 0x64 SWAP1 REVERT JUMPDEST PUSH3 0x461BCD PUSH1 0xE5 SHL DUP2 MSTORE PUSH1 0x20 PUSH1 0x4 DUP3 ADD MSTORE PUSH1 0x11 PUSH1 0x24 DUP3 ADD MSTORE PUSH17 0x24B73B30B634B210272C26103A37B5B2B7 PUSH1 0x79 SHL PUSH1 0x44 DUP3 ADD MSTORE PUSH1 0x64 SWAP1 REVERT JUMPDEST DUP3 MLOAD PUSH4 0x1E4FBDF7 PUSH1 0xE0 SHL DUP2 MSTORE PUSH1 0x0 PUSH1 0x4 DUP3 ADD MSTORE PUSH1 0x24 SWAP1 REVERT JUMPDEST PUSH1 0x0 DUP1 REVERT JUMPDEST PUSH4 0x4E487B71 PUSH1 0xE0 SHL PUSH1 0x0 MSTORE PUSH1 0x41 PUSH1 0x4 MSTORE PUSH1 0x24 PUSH1 0x0 REVERT JUMPDEST MLOAD SWAP1 PUSH1 0x1 PUSH1 0x1 PUSH1 0xA0 SHL SUB DUP3 AND DUP3 SUB PUSH2 0x19E JUMPI JUMP INVALID PUSH1 0x40 PUSH1 0x80 DUP2 MSTORE PUSH1 0x4 SWAP1 DUP2 CALLDATASIZE LT ISZERO PUSH2 0x15 JUMPI PUSH1 0x0 DUP1 REVERT JUMPDEST PUSH1 0x0 SWAP2 DUP3 CALLDATALOAD PUSH1 0xE0 SHR DUP1 PUSH4 0x69C9FAE EQ PUSH2 0xDBD JUMPI DUP1 PUSH4 0x97AAD10 EQ PUSH2 0xD90 JUMPI DUP1 PUSH4 0x16934FC4 EQ PUSH2 0xD28 JUMPI DUP1 PUSH4 0x2E17DE78 EQ PUSH2 0xBA4 JUMPI DUP1 PUSH4 0x372500AB EQ PUSH2 0xB3B JUMPI DUP1 PUSH4 0x3CDC5389 EQ PUSH2 0xAF7 JUMPI DUP1 PUSH4 0x3F4BA83A EQ PUSH2 0xAD1 JUMPI DUP1 PUSH4 0x46A203D0 EQ PUSH2 0x6CC JUMPI DUP1 PUSH4 0x5C975ABB EQ PUSH2 0xAAD JUMPI DUP1 PUSH4 0x60DF8297 EQ PUSH2 0xA08 JUMPI DUP1 PUSH4 0x6B4169C3 EQ PUSH2 0x936 JUMPI DUP1 PUSH4 0x715018A6 EQ PUSH2 0x8D9 JUMPI DUP1 PUSH4 0x74958E35 EQ PUSH2 0x8BC JUMPI DUP1 PUSH4 0x817B1CD2 EQ PUSH2 0x89D JUMPI DUP1 PUSH4 0x8456CB59 EQ PUSH2 0x874 JUMPI DUP1 PUSH4 0x86989038 EQ PUSH2 0x855 JUMPI DUP1 PUSH4 0x89EF723B EQ PUSH2 0x811 JUMPI DUP1 PUSH4 0x8DA5CB5B EQ PUSH2 0x7E8 JUMPI DUP1 PUSH4 0x93707A19 EQ PUSH2 0x6E9 JUMPI DUP1 PUSH4 0x962CA496 EQ PUSH2 0x6CC JUMPI DUP1 PUSH4 0xA694FC3A EQ PUSH2 0x43F JUMPI DUP1 PUSH4 0xC3453153 EQ PUSH2 0x387 JUMPI DUP1 PUSH4 0xE6A69AB8 EQ PUSH2 0x364 JUMPI DUP1 PUSH4 0xE755DDD7 EQ PUSH2 0x1C6 JUMPI PUSH4 0xF2FDE38B EQ PUSH2 0x134 JUMPI PUSH1 0x0 DUP1 REVERT JUMPDEST CALLVALUE PUSH2 0x1C2 JUMPI PUSH1 0x20 CALLDATASIZE PUSH1 0x3 NOT ADD SLT PUSH2 0x1C2 JUMPI PUSH2 0x14D PUSH2 0xF3C JUMP JUMPDEST SWAP1 PUSH2 0x156 PUSH2 0xF57 JUMP JUMPDEST PUSH1 0x1 PUSH1 0x1 PUSH1 0xA0 SHL SUB SWAP2 DUP3 AND SWAP3 DUP4 ISZERO PUSH2 0x1AC JUMPI POP POP PUSH1 0x1 SLOAD DUP3 PUSH12 0xFFFFFFFFFFFFFFFFFFFFFFFF PUSH1 0xA0 SHL DUP3 AND OR PUSH1 0x1 SSTORE AND PUSH32 0x8BE0079C531659141344CD1FD0A4F28419497F9722A3DAAFE3B4186F6B6457E0 DUP4 DUP1 LOG3 DUP1 RETURN JUMPDEST MLOAD PUSH4 0x1E4FBDF7 PUSH1 0xE0 SHL DUP2 MSTORE SWAP1 DUP2 ADD DUP5 SWAP1 MSTORE PUSH1 0x24 SWAP1 REVERT JUMPDEST DUP3 DUP1 REVERT JUMPDEST POP CALLVALUE PUSH2 0x1C2 JUMPI PUSH1 0x20 SWAP1 DUP2 PUSH1 0x3 NOT CALLDATASIZE ADD SLT PUSH2 0x360 JUMPI DUP1 CALLDATALOAD SWAP1 PUSH2 0x1E5 PUSH2 0xF57 JUMP JUMPDEST PUSH2 0x1ED PUSH2 0x1091 JUMP JUMPDEST PUSH2 0x1F8 DUP3 ISZERO ISZERO PUSH2 0xF83 JUMP JUMPDEST DUP4 MLOAD PUSH4 0x70A08231 PUSH1 0xE0 SHL DUP2 MSTORE ADDRESS DUP3 DUP3 ADD MSTORE PUSH1 0x1 PUSH1 0x1 PUSH1 0xA0 SHL SUB PUSH32 0x0 DUP2 AND SWAP3 SWAP2 DUP6 DUP2 PUSH1 0x24 DUP2 DUP8 GAS STATICCALL DUP1 ISZERO PUSH2 0x356 JUMPI DUP6 SWAP2 DUP10 SWAP2 PUSH2 0x321 JUMPI JUMPDEST POP LT PUSH2 0x2E7 JUMPI PUSH1 0x1 SLOAD DUP7 MLOAD PUSH4 0xA9059CBB PUSH1 0xE0 SHL DUP2 MSTORE SWAP2 AND PUSH1 0x1 PUSH1 0x1 PUSH1 0xA0 SHL SUB AND SWAP2 DUP2 ADD SWAP2 DUP3 MSTORE PUSH1 0x20 DUP3 ADD SWAP4 SWAP1 SWAP4 MSTORE DUP4 SWAP2 DUP4 SWAP2 DUP3 SWAP1 DUP9 SWAP1 DUP3 SWAP1 PUSH1 0x40 ADD SUB SWAP3 GAS CALL SWAP2 DUP3 ISZERO PUSH2 0x2DA JUMPI PUSH2 0x2A6 SWAP4 POP DUP5 SWAP3 PUSH2 0x2AD JUMPI JUMPDEST POP POP PUSH2 0x1030 JUMP JUMPDEST PUSH1 0x1 DUP2 SSTORE DUP1 RETURN JUMPDEST PUSH2 0x2CC SWAP3 POP DUP1 RETURNDATASIZE LT PUSH2 0x2D3 JUMPI JUMPDEST PUSH2 0x2C4 DUP2 DUP4 PUSH2 0xFF6 JUMP JUMPDEST DUP2 ADD SWAP1 PUSH2 0x1018 JUMP JUMPDEST CODESIZE DUP1 PUSH2 0x29F JUMP JUMPDEST POP RETURNDATASIZE PUSH2 0x2BA JUMP JUMPDEST POP POP POP MLOAD SWAP1 RETURNDATASIZE SWAP1 DUP3 RETURNDATACOPY RETURNDATASIZE SWAP1 REVERT JUMPDEST DUP6 MLOAD PUSH3 0x461BCD PUSH1 0xE5 SHL DUP2 MSTORE DUP1 DUP4 ADD DUP7 SWAP1 MSTORE PUSH1 0x14 PUSH1 0x24 DUP3 ADD MSTORE PUSH20 0x496E73756666696369656E742062616C616E6365 PUSH1 0x60 SHL PUSH1 0x44 DUP3 ADD MSTORE PUSH1 0x64 SWAP1 REVERT JUMPDEST DUP1 SWAP3 POP DUP8 DUP1 SWAP3 POP RETURNDATASIZE DUP4 GT PUSH2 0x34F JUMPI JUMPDEST PUSH2 0x33A DUP2 DUP4 PUSH2 0xFF6 JUMP JUMPDEST DUP2 ADD SUB SLT PUSH2 0x34B JUMPI DUP5 SWAP1 MLOAD CODESIZE PUSH2 0x24D JUMP JUMPDEST DUP8 DUP1 REVERT JUMPDEST POP RETURNDATASIZE PUSH2 0x330 JUMP JUMPDEST DUP8 MLOAD RETURNDATASIZE DUP11 DUP3 RETURNDATACOPY RETURNDATASIZE SWAP1 REVERT JUMPDEST DUP4 DUP1 REVERT JUMPDEST POP POP CALLVALUE PUSH2 0x383 JUMPI DUP2 PUSH1 0x3 NOT CALLDATASIZE ADD SLT PUSH2 0x383 JUMPI PUSH1 0x20 SWAP1 MLOAD PUSH4 0x1E13380 DUP2 MSTORE RETURN JUMPDEST POP DUP1 REVERT JUMPDEST DUP3 DUP5 CALLVALUE PUSH2 0x43C JUMPI PUSH1 0x20 CALLDATASIZE PUSH1 0x3 NOT ADD SLT PUSH2 0x43C JUMPI PUSH2 0x431 PUSH2 0x3A5 PUSH2 0xF3C JUMP JUMPDEST SWAP2 PUSH1 0x1 DUP1 PUSH1 0xA0 SHL SUB DUP4 AND DUP2 MSTORE PUSH1 0x2 PUSH1 0x20 MSTORE DUP4 DUP2 KECCAK256 SWAP4 DUP1 MLOAD SWAP2 PUSH2 0x3C6 DUP4 PUSH2 0xFC4 JUMP JUMPDEST DUP6 SLOAD DUP4 MSTORE PUSH2 0x3F4 PUSH1 0x3 PUSH1 0x1 DUP9 ADD SLOAD SWAP8 PUSH1 0x20 DUP7 ADD SWAP9 DUP10 MSTORE PUSH1 0x2 DUP2 ADD SLOAD DUP6 DUP8 ADD MSTORE ADD SLOAD SWAP6 PUSH1 0x60 DUP6 ADD SWAP7 DUP8 MSTORE PUSH2 0x12E5 JUMP JUMPDEST DUP4 MLOAD SWAP1 SWAP7 SWAP1 ISZERO PUSH2 0x435 JUMPI PUSH2 0x40A SWAP2 POP MLOAD TIMESTAMP PUSH2 0x10B4 JUMP JUMPDEST SWAP2 JUMPDEST MLOAD SWAP4 MLOAD SWAP1 MLOAD SWAP5 DUP6 SWAP5 DUP6 SWAP1 SWAP5 SWAP4 SWAP3 PUSH1 0x60 SWAP3 PUSH1 0x80 DUP4 ADD SWAP7 DUP4 MSTORE PUSH1 0x20 DUP4 ADD MSTORE PUSH1 0x40 DUP3 ADD MSTORE ADD MSTORE JUMP JUMPDEST SUB SWAP1 RETURN JUMPDEST POP SWAP2 PUSH2 0x40C JUMP JUMPDEST DUP1 REVERT JUMPDEST POP SWAP2 SWAP1 CALLVALUE PUSH2 0x383 JUMPI PUSH1 0x20 DUP1 PUSH1 0x3 NOT CALLDATASIZE ADD SLT PUSH2 0x1C2 JUMPI DUP4 CALLDATALOAD SWAP2 PUSH2 0x45F PUSH2 0x1091 JUMP JUMPDEST PUSH2 0x46A DUP4 ISZERO ISZERO PUSH2 0xF83 JUMP JUMPDEST DUP1 MLOAD PUSH4 0x70A08231 PUSH1 0xE0 SHL DUP2 MSTORE CALLER DUP7 DUP3 ADD MSTORE PUSH32 0x0 PUSH1 0x1 PUSH1 0x1 PUSH1 0xA0 SHL SUB AND SWAP1 DUP4 DUP2 PUSH1 0x24 DUP2 DUP6 GAS STATICCALL SWAP1 DUP2 ISZERO PUSH2 0x6C2 JUMPI SWAP1 DUP6 SWAP2 DUP8 SWAP2 PUSH2 0x68D JUMPI JUMPDEST POP LT PUSH2 0x64A JUMPI CALLER DUP6 MSTORE PUSH1 0x2 DUP4 MSTORE DUP2 DUP6 KECCAK256 SLOAD PUSH2 0x63C JUMPI JUMPDEST DUP2 MLOAD PUSH4 0x23B872DD PUSH1 0xE0 SHL DUP2 MSTORE CALLER DUP8 DUP3 ADD SWAP1 DUP2 MSTORE ADDRESS PUSH1 0x20 DUP3 ADD MSTORE PUSH1 0x40 DUP2 ADD DUP7 SWAP1 MSTORE SWAP1 SWAP2 DUP5 SWAP2 DUP4 SWAP2 SWAP1 DUP3 SWAP1 DUP10 SWAP1 DUP3 SWAP1 PUSH1 0x60 ADD SUB SWAP3 GAS CALL SWAP1 DUP2 ISZERO PUSH2 0x632 JUMPI SWAP1 PUSH2 0x522 SWAP2 DUP7 SWAP2 PUSH2 0x615 JUMPI JUMPDEST POP PUSH2 0x1030 JUMP JUMPDEST CALLER DUP5 MSTORE PUSH1 0x2 DUP3 MSTORE DUP1 DUP5 KECCAK256 DUP1 SLOAD DUP1 PUSH2 0x5DF JUMPI POP POP PUSH1 0x5 SLOAD PUSH1 0x0 NOT DUP2 EQ PUSH2 0x5CC JUMPI PUSH32 0x9E71BC8EEA02A63969F509818F2DAFB9254532904319F9DBDA79B67BD34A5F3D SWAP4 SWAP5 SWAP6 POP PUSH1 0x1 ADD PUSH1 0x5 SSTORE DUP1 MLOAD PUSH2 0x577 DUP2 PUSH2 0xFC4 JUMP JUMPDEST DUP5 DUP2 MSTORE PUSH1 0x3 DUP4 DUP3 ADD TIMESTAMP DUP2 MSTORE DUP4 DUP4 ADD TIMESTAMP DUP2 MSTORE PUSH1 0x60 DUP5 ADD SWAP2 DUP10 DUP4 MSTORE CALLER DUP11 MSTORE PUSH1 0x2 DUP8 MSTORE DUP6 DUP11 KECCAK256 SWAP5 MLOAD DUP6 SSTORE MLOAD PUSH1 0x1 DUP6 ADD SSTORE MLOAD PUSH1 0x2 DUP5 ADD SSTORE MLOAD SWAP2 ADD SSTORE JUMPDEST PUSH2 0x5BB DUP5 PUSH1 0x3 SLOAD PUSH2 0x106E JUMP JUMPDEST PUSH1 0x3 SSTORE MLOAD SWAP3 DUP4 MSTORE CALLER SWAP3 LOG2 PUSH1 0x1 DUP2 SSTORE DUP1 RETURN JUMPDEST PUSH4 0x4E487B71 PUSH1 0xE0 SHL DUP6 MSTORE PUSH1 0x11 DUP7 MSTORE PUSH1 0x24 DUP6 REVERT JUMPDEST DUP5 PUSH32 0x9E71BC8EEA02A63969F509818F2DAFB9254532904319F9DBDA79B67BD34A5F3D SWAP6 SWAP7 SWAP8 POP PUSH2 0x60E SWAP2 PUSH2 0x106E JUMP JUMPDEST SWAP1 SSTORE PUSH2 0x5AF JUMP JUMPDEST PUSH2 0x62C SWAP2 POP DUP5 RETURNDATASIZE DUP7 GT PUSH2 0x2D3 JUMPI PUSH2 0x2C4 DUP2 DUP4 PUSH2 0xFF6 JUMP JUMPDEST CODESIZE PUSH2 0x51C JUMP JUMPDEST DUP3 MLOAD RETURNDATASIZE DUP8 DUP3 RETURNDATACOPY RETURNDATASIZE SWAP1 REVERT JUMPDEST PUSH2 0x645 CALLER PUSH2 0x1104 JUMP JUMPDEST PUSH2 0x4D5 JUMP JUMPDEST DUP2 MLOAD PUSH3 0x461BCD PUSH1 0xE5 SHL DUP2 MSTORE DUP1 DUP8 ADD DUP5 SWAP1 MSTORE PUSH1 0x18 PUSH1 0x24 DUP3 ADD MSTORE PUSH32 0x496E73756666696369656E74204E584C2062616C616E63650000000000000000 PUSH1 0x44 DUP3 ADD MSTORE PUSH1 0x64 SWAP1 REVERT JUMPDEST DUP1 SWAP3 POP DUP6 DUP1 SWAP3 POP RETURNDATASIZE DUP4 GT PUSH2 0x6BB JUMPI JUMPDEST PUSH2 0x6A6 DUP2 DUP4 PUSH2 0xFF6 JUMP JUMPDEST DUP2 ADD SUB SLT PUSH2 0x6B7 JUMPI DUP5 SWAP1 MLOAD CODESIZE PUSH2 0x4BF JUMP JUMPDEST DUP6 DUP1 REVERT JUMPDEST POP RETURNDATASIZE PUSH2 0x69C JUMP JUMPDEST DUP4 MLOAD RETURNDATASIZE DUP9 DUP3 RETURNDATACOPY RETURNDATASIZE SWAP1 REVERT JUMPDEST POP POP CALLVALUE PUSH2 0x383 JUMPI DUP2 PUSH1 0x3 NOT CALLDATASIZE ADD SLT PUSH2 0x383 JUMPI PUSH1 0x20 SWAP1 MLOAD PUSH2 0x190 DUP2 MSTORE RETURN JUMPDEST POP SWAP1 CALLVALUE PUSH2 0x1C2 JUMPI PUSH1 0x20 CALLDATASIZE PUSH1 0x3 NOT ADD SLT PUSH2 0x1C2 JUMPI PUSH2 0x747 PUSH1 0x20 DUP4 CALLDATALOAD DUP1 SWAP5 PUSH2 0x70D PUSH2 0x1091 JUMP JUMPDEST PUSH2 0x718 DUP3 ISZERO ISZERO PUSH2 0xF83 JUMP JUMPDEST DUP5 MLOAD PUSH4 0x23B872DD PUSH1 0xE0 SHL DUP2 MSTORE CALLER SWAP2 DUP2 ADD SWAP2 DUP3 MSTORE ADDRESS PUSH1 0x20 DUP4 ADD MSTORE PUSH1 0x40 DUP3 ADD SWAP3 SWAP1 SWAP3 MSTORE SWAP1 SWAP3 DUP4 SWAP2 DUP3 SWAP2 PUSH1 0x60 SWAP1 SWAP2 ADD SWAP1 JUMP JUMPDEST SUB DUP2 DUP8 PUSH32 0x0 PUSH1 0x1 PUSH1 0x1 PUSH1 0xA0 SHL SUB AND GAS CALL SWAP1 DUP2 ISZERO PUSH2 0x7DE JUMPI SWAP1 PUSH2 0x78F SWAP2 DUP6 SWAP2 PUSH2 0x7C0 JUMPI JUMPDEST POP PUSH2 0x10C1 JUMP JUMPDEST MLOAD SWAP1 DUP2 MSTORE PUSH32 0xD53214CA07BE5520E229C395F05A3E5C0697EC6279184FFBE2758D304FD322CC PUSH1 0x20 CALLER SWAP3 LOG2 PUSH1 0x1 DUP2 SSTORE DUP1 RETURN JUMPDEST PUSH2 0x7D8 SWAP2 POP PUSH1 0x20 RETURNDATASIZE DUP2 GT PUSH2 0x2D3 JUMPI PUSH2 0x2C4 DUP2 DUP4 PUSH2 0xFF6 JUMP JUMPDEST CODESIZE PUSH2 0x789 JUMP JUMPDEST DUP3 MLOAD RETURNDATASIZE DUP7 DUP3 RETURNDATACOPY RETURNDATASIZE SWAP1 REVERT JUMPDEST POP POP CALLVALUE PUSH2 0x383 JUMPI DUP2 PUSH1 0x3 NOT CALLDATASIZE ADD SLT PUSH2 0x383 JUMPI PUSH1 0x1 SLOAD SWAP1 MLOAD PUSH1 0x1 PUSH1 0x1 PUSH1 0xA0 SHL SUB SWAP1 SWAP2 AND DUP2 MSTORE PUSH1 0x20 SWAP1 RETURN JUMPDEST POP POP CALLVALUE PUSH2 0x383 JUMPI DUP2 PUSH1 0x3 NOT CALLDATASIZE ADD SLT PUSH2 0x383 JUMPI MLOAD PUSH32 0x0 PUSH1 0x1 PUSH1 0x1 PUSH1 0xA0 SHL SUB AND DUP2 MSTORE PUSH1 0x20 SWAP1 RETURN JUMPDEST POP POP CALLVALUE PUSH2 0x383 JUMPI DUP2 PUSH1 0x3 NOT CALLDATASIZE ADD SLT PUSH2 0x383 JUMPI PUSH1 0x20 SWAP1 PUSH1 0x5 SLOAD SWAP1 MLOAD SWAP1 DUP2 MSTORE RETURN JUMPDEST DUP4 CALLVALUE PUSH2 0x43C JUMPI DUP1 PUSH1 0x3 NOT CALLDATASIZE ADD SLT PUSH2 0x43C JUMPI PUSH2 0x88D PUSH2 0xF57 JUMP JUMPDEST PUSH1 0x1 PUSH1 0xFF NOT PUSH1 0x6 SLOAD AND OR PUSH1 0x6 SSTORE DUP1 RETURN JUMPDEST POP POP CALLVALUE PUSH2 0x383 JUMPI DUP2 PUSH1 0x3 NOT CALLDATASIZE ADD SLT PUSH2 0x383 JUMPI PUSH1 0x20 SWAP1 PUSH1 0x3 SLOAD SWAP1 MLOAD SWAP1 DUP2 MSTORE RETURN JUMPDEST POP CALLVALUE PUSH2 0x1C2 JUMPI DUP3 PUSH1 0x3 NOT CALLDATASIZE ADD SLT PUSH2 0x1C2 JUMPI PUSH1 0x20 SWAP3 POP SLOAD SWAP1 MLOAD SWAP1 DUP2 MSTORE RETURN JUMPDEST DUP4 CALLVALUE PUSH2 0x43C JUMPI DUP1 PUSH1 0x3 NOT CALLDATASIZE ADD SLT PUSH2 0x43C JUMPI PUSH2 0x8F2 PUSH2 0xF57 JUMP JUMPDEST PUSH1 0x1 DUP1 SLOAD PUSH1 0x1 PUSH1 0x1 PUSH1 0xA0 SHL SUB NOT DUP2 AND SWAP1 SWAP2 SSTORE DUP2 SWAP1 PUSH1 0x1 PUSH1 0x1 PUSH1 0xA0 SHL SUB AND PUSH32 0x8BE0079C531659141344CD1FD0A4F28419497F9722A3DAAFE3B4186F6B6457E0 DUP3 DUP1 LOG3 DUP1 RETURN JUMPDEST POP CALLVALUE PUSH2 0x1C2 JUMPI DUP3 PUSH1 0x3 NOT CALLDATASIZE ADD SLT PUSH2 0x1C2 JUMPI PUSH1 0x3 SLOAD PUSH1 0x5 SLOAD DUP3 SLOAD DUP5 MLOAD PUSH4 0x70A08231 PUSH1 0xE0 SHL DUP2 MSTORE ADDRESS SWAP5 DUP2 ADD SWAP5 SWAP1 SWAP5 MSTORE SWAP2 SWAP4 SWAP1 PUSH1 0x20 DUP5 PUSH1 0x24 DUP2 PUSH32 0x0 PUSH1 0x1 PUSH1 0x1 PUSH1 0xA0 SHL SUB AND GAS STATICCALL SWAP4 DUP5 ISZERO PUSH2 0x9FE JUMPI DUP7 SWAP5 PUSH2 0x9C7 JUMPI JUMPDEST POP PUSH1 0xA0 SWAP6 POP DUP2 MLOAD SWAP5 DUP6 MSTORE PUSH1 0x20 DUP6 ADD MSTORE DUP4 ADD MSTORE PUSH1 0x60 DUP3 ADD MSTORE PUSH2 0x190 PUSH1 0x80 DUP3 ADD MSTORE RETURN JUMPDEST SWAP1 SWAP4 POP PUSH1 0x20 DUP2 RETURNDATASIZE DUP3 GT PUSH2 0x9F6 JUMPI JUMPDEST DUP2 PUSH2 0x9E2 PUSH1 0x20 SWAP4 DUP4 PUSH2 0xFF6 JUMP JUMPDEST DUP2 ADD SUB SLT PUSH2 0x6B7 JUMPI PUSH1 0xA0 SWAP6 POP MLOAD SWAP3 CODESIZE PUSH2 0x9A6 JUMP JUMPDEST RETURNDATASIZE SWAP2 POP PUSH2 0x9D5 JUMP JUMPDEST DUP3 MLOAD RETURNDATASIZE DUP9 DUP3 RETURNDATACOPY RETURNDATASIZE SWAP1 REVERT JUMPDEST POP DUP3 CALLVALUE PUSH2 0x43C JUMPI DUP3 PUSH1 0x3 NOT CALLDATASIZE ADD SLT PUSH2 0x43C JUMPI DUP2 CALLDATALOAD PUSH1 0x24 CALLDATALOAD SWAP1 PUSH3 0x15180 SWAP2 DUP3 DUP2 MUL SWAP3 DUP2 DUP5 DIV EQ SWAP1 ISZERO OR ISZERO PUSH2 0xA9A JUMPI PUSH2 0x190 SWAP1 DUP2 DUP2 MUL SWAP2 DUP2 DUP4 DIV EQ SWAP1 ISZERO OR ISZERO PUSH2 0xA9A JUMPI PUSH5 0x496CEBB800 SWAP2 PUSH2 0xA59 SWAP2 PUSH2 0x12D2 JUMP JUMPDEST DIV SWAP2 PUSH4 0x5F5E100 SWAP3 DUP4 DUP2 MUL SWAP4 DUP2 DUP6 DIV EQ SWAP1 ISZERO OR ISZERO PUSH2 0xA87 JUMPI PUSH1 0x20 DUP4 PUSH10 0xD3C21BCECCEDA1000000 DUP7 MLOAD SWAP2 DIV DUP2 MSTORE RETURN JUMPDEST PUSH4 0x4E487B71 PUSH1 0xE0 SHL DUP3 MSTORE PUSH1 0x11 SWAP1 MSTORE PUSH1 0x24 SWAP1 REVERT JUMPDEST PUSH4 0x4E487B71 PUSH1 0xE0 SHL DUP4 MSTORE PUSH1 0x11 DUP5 MSTORE PUSH1 0x24 DUP4 REVERT JUMPDEST POP POP CALLVALUE PUSH2 0x383 JUMPI DUP2 PUSH1 0x3 NOT CALLDATASIZE ADD SLT PUSH2 0x383 JUMPI PUSH1 0x20 SWAP1 PUSH1 0xFF PUSH1 0x6 SLOAD AND SWAP1 MLOAD SWAP1 ISZERO ISZERO DUP2 MSTORE RETURN JUMPDEST DUP4 CALLVALUE PUSH2 0x43C JUMPI DUP1 PUSH1 0x3 NOT CALLDATASIZE ADD SLT PUSH2 0x43C JUMPI PUSH2 0xAEA PUSH2 0xF57 JUMP JUMPDEST PUSH1 0xFF NOT PUSH1 0x6 SLOAD AND PUSH1 0x6 SSTORE DUP1 RETURN JUMPDEST POP POP CALLVALUE PUSH2 0x383 JUMPI DUP2 PUSH1 0x3 NOT CALLDATASIZE ADD SLT PUSH2 0x383 JUMPI MLOAD PUSH32 0x0 PUSH1 0x1 PUSH1 0x1 PUSH1 0xA0 SHL SUB AND DUP2 MSTORE PUSH1 0x20 SWAP1 RETURN JUMPDEST POP SWAP1 CALLVALUE PUSH2 0x1C2 JUMPI DUP3 PUSH1 0x3 NOT CALLDATASIZE ADD SLT PUSH2 0x1C2 JUMPI PUSH2 0xB55 PUSH2 0x1091 JUMP JUMPDEST CALLER DUP4 MSTORE PUSH1 0x2 PUSH1 0x20 MSTORE DUP1 DUP4 KECCAK256 SLOAD ISZERO PUSH2 0xB70 JUMPI DUP3 PUSH2 0x2A6 CALLER PUSH2 0x1104 JUMP JUMPDEST SWAP1 PUSH1 0x20 PUSH1 0x64 SWAP3 MLOAD SWAP2 PUSH3 0x461BCD PUSH1 0xE5 SHL DUP4 MSTORE DUP3 ADD MSTORE PUSH1 0xE PUSH1 0x24 DUP3 ADD MSTORE PUSH14 0x139BC81CDD185AD948199BDD5B99 PUSH1 0x92 SHL PUSH1 0x44 DUP3 ADD MSTORE REVERT JUMPDEST POP CALLVALUE PUSH2 0x1C2 JUMPI PUSH1 0x20 DUP1 PUSH1 0x3 NOT CALLDATASIZE ADD SLT PUSH2 0x360 JUMPI DUP2 CALLDATALOAD SWAP2 PUSH2 0xBC2 PUSH2 0x1091 JUMP JUMPDEST PUSH2 0xBCD DUP4 ISZERO ISZERO PUSH2 0xF83 JUMP JUMPDEST CALLER DUP6 MSTORE PUSH1 0x2 DUP3 MSTORE DUP3 DUP5 DUP7 KECCAK256 SLOAD LT PUSH2 0xCF1 JUMPI PUSH2 0xBE7 CALLER PUSH2 0x1104 JUMP JUMPDEST CALLER DUP6 MSTORE PUSH1 0x2 DUP3 MSTORE DUP4 DUP6 KECCAK256 PUSH2 0xBFC DUP5 DUP3 SLOAD PUSH2 0x10B4 JUMP JUMPDEST SWAP1 SSTORE PUSH2 0xC0A DUP4 PUSH1 0x3 SLOAD PUSH2 0x10B4 JUMP JUMPDEST PUSH1 0x3 SSTORE CALLER DUP6 MSTORE PUSH1 0x2 DUP3 MSTORE DUP2 DUP4 DUP6 DUP8 KECCAK256 SLOAD ISZERO PUSH2 0xCC5 JUMPI JUMPDEST DUP6 MLOAD PUSH4 0xA9059CBB PUSH1 0xE0 SHL DUP2 MSTORE CALLER SWAP4 DUP2 ADD SWAP4 DUP5 MSTORE PUSH1 0x20 DUP5 ADD SWAP2 SWAP1 SWAP2 MSTORE SWAP2 DUP3 SWAP1 DUP2 SWAP1 PUSH1 0x40 ADD SUB DUP2 DUP9 PUSH32 0x0 PUSH1 0x1 PUSH1 0x1 PUSH1 0xA0 SHL SUB AND GAS CALL SWAP1 DUP2 ISZERO PUSH2 0xCBB JUMPI PUSH32 0xF5BB82176FEB1B5E747E28471AA92156A04D9F3AB9F45F28E2D704232B93F75 SWAP4 SWAP5 SWAP2 PUSH2 0xCAD SWAP2 DUP8 SWAP2 PUSH2 0x615 JUMPI POP PUSH2 0x1030 JUMP JUMPDEST MLOAD SWAP3 DUP4 MSTORE CALLER SWAP3 LOG2 PUSH1 0x1 DUP2 SSTORE DUP1 RETURN JUMPDEST DUP5 MLOAD RETURNDATASIZE DUP8 DUP3 RETURNDATACOPY RETURNDATASIZE SWAP1 REVERT JUMPDEST POP POP PUSH1 0x5 SLOAD DUP1 ISZERO PUSH2 0xCDE JUMPI PUSH1 0x0 NOT ADD PUSH1 0x5 SSTORE DUP2 DUP4 PUSH2 0xC20 JUMP JUMPDEST PUSH4 0x4E487B71 PUSH1 0xE0 SHL DUP7 MSTORE PUSH1 0x11 DUP3 MSTORE PUSH1 0x24 DUP7 REVERT JUMPDEST PUSH1 0x64 SWAP2 DUP5 MLOAD SWAP2 PUSH3 0x461BCD PUSH1 0xE5 SHL DUP4 MSTORE DUP3 ADD MSTORE PUSH1 0x13 PUSH1 0x24 DUP3 ADD MSTORE PUSH19 0x125B9CDD59999A58DA595B9D081CDD185AD959 PUSH1 0x6A SHL PUSH1 0x44 DUP3 ADD MSTORE REVERT JUMPDEST POP POP CALLVALUE PUSH2 0x383 JUMPI PUSH1 0x20 CALLDATASIZE PUSH1 0x3 NOT ADD SLT PUSH2 0x383 JUMPI SWAP1 DUP2 SWAP1 PUSH1 0x1 PUSH1 0x1 PUSH1 0xA0 SHL SUB PUSH2 0xD4E PUSH2 0xF3C JUMP JUMPDEST AND DUP2 MSTORE PUSH1 0x2 PUSH1 0x20 MSTORE KECCAK256 SWAP1 PUSH2 0x431 DUP3 SLOAD SWAP2 PUSH1 0x1 DUP5 ADD SLOAD SWAP4 PUSH1 0x3 PUSH1 0x2 DUP3 ADD SLOAD SWAP2 ADD SLOAD SWAP2 MLOAD SWAP5 DUP6 SWAP5 DUP6 SWAP1 SWAP5 SWAP4 SWAP3 PUSH1 0x60 SWAP3 PUSH1 0x80 DUP4 ADD SWAP7 DUP4 MSTORE PUSH1 0x20 DUP4 ADD MSTORE PUSH1 0x40 DUP3 ADD MSTORE ADD MSTORE JUMP JUMPDEST POP POP CALLVALUE PUSH2 0x383 JUMPI PUSH1 0x20 CALLDATASIZE PUSH1 0x3 NOT ADD SLT PUSH2 0x383 JUMPI PUSH1 0x20 SWAP1 PUSH2 0xDB6 PUSH2 0xDB1 PUSH2 0xF3C JUMP JUMPDEST PUSH2 0x12E5 JUMP JUMPDEST SWAP1 MLOAD SWAP1 DUP2 MSTORE RETURN JUMPDEST POP CALLVALUE PUSH2 0x1C2 JUMPI DUP2 PUSH1 0x3 NOT CALLDATASIZE ADD SLT PUSH2 0x1C2 JUMPI PUSH2 0xDD6 PUSH2 0xF3C JUMP JUMPDEST PUSH2 0xDDE PUSH2 0xF57 JUMP JUMPDEST PUSH1 0x1 PUSH1 0x1 PUSH1 0xA0 SHL SUB SWAP1 DUP2 AND SWAP1 PUSH32 0x0 DUP2 AND DUP3 EQ PUSH2 0xF04 JUMPI DUP1 PUSH32 0x0 AND DUP3 EQ PUSH2 0xEB0 JUMPI PUSH1 0x1 SLOAD DUP5 MLOAD PUSH4 0xA9059CBB PUSH1 0xE0 SHL DUP2 MSTORE SWAP2 AND PUSH1 0x1 PUSH1 0x1 PUSH1 0xA0 SHL SUB AND SWAP3 DUP2 ADD SWAP3 DUP4 MSTORE PUSH1 0x24 CALLDATALOAD PUSH1 0x20 DUP1 DUP6 ADD SWAP2 SWAP1 SWAP2 MSTORE SWAP1 SWAP4 SWAP3 SWAP1 SWAP2 DUP5 SWAP2 DUP3 SWAP1 DUP8 SWAP1 DUP3 SWAP1 PUSH1 0x40 ADD SUB SWAP3 GAS CALL SWAP1 DUP2 ISZERO PUSH2 0xEA7 JUMPI POP PUSH2 0xE8C JUMPI POP DUP1 RETURN JUMPDEST PUSH2 0xEA3 SWAP1 PUSH1 0x20 RETURNDATASIZE DUP2 GT PUSH2 0x2D3 JUMPI PUSH2 0x2C4 DUP2 DUP4 PUSH2 0xFF6 JUMP JUMPDEST POP DUP1 RETURN JUMPDEST MLOAD RETURNDATASIZE DUP5 DUP3 RETURNDATACOPY RETURNDATASIZE SWAP1 REVERT JUMPDEST DUP4 MLOAD PUSH3 0x461BCD PUSH1 0xE5 SHL DUP2 MSTORE PUSH1 0x20 DUP2 DUP6 ADD MSTORE PUSH1 0x28 PUSH1 0x24 DUP3 ADD MSTORE PUSH32 0x43616E6E6F74207265636F766572205742544320287573652077697468647261 PUSH1 0x44 DUP3 ADD MSTORE PUSH8 0x7745786365737329 PUSH1 0xC0 SHL PUSH1 0x64 DUP3 ADD MSTORE PUSH1 0x84 SWAP1 REVERT JUMPDEST DUP4 MLOAD PUSH3 0x461BCD PUSH1 0xE5 SHL DUP2 MSTORE PUSH1 0x20 DUP2 DUP6 ADD MSTORE PUSH1 0x12 PUSH1 0x24 DUP3 ADD MSTORE PUSH18 0x10D85B9B9BDD081C9958DBDD995C88139613 PUSH1 0x72 SHL PUSH1 0x44 DUP3 ADD MSTORE PUSH1 0x64 SWAP1 REVERT JUMPDEST PUSH1 0x4 CALLDATALOAD SWAP1 PUSH1 0x1 PUSH1 0x1 PUSH1 0xA0 SHL SUB DUP3 AND DUP3 SUB PUSH2 0xF52 JUMPI JUMP JUMPDEST PUSH1 0x0 DUP1 REVERT JUMPDEST PUSH1 0x1 SLOAD PUSH1 0x1 PUSH1 0x1 PUSH1 0xA0 SHL SUB AND CALLER SUB PUSH2 0xF6B JUMPI JUMP JUMPDEST PUSH1 0x40 MLOAD PUSH4 0x118CDAA7 PUSH1 0xE0 SHL DUP2 MSTORE CALLER PUSH1 0x4 DUP3 ADD MSTORE PUSH1 0x24 SWAP1 REVERT JUMPDEST ISZERO PUSH2 0xF8A JUMPI JUMP JUMPDEST PUSH1 0x40 MLOAD PUSH3 0x461BCD PUSH1 0xE5 SHL DUP2 MSTORE PUSH1 0x20 PUSH1 0x4 DUP3 ADD MSTORE PUSH1 0x12 PUSH1 0x24 DUP3 ADD MSTORE PUSH18 0x416D6F756E74206D757374206265203E203 PUSH1 0x74 SHL PUSH1 0x44 DUP3 ADD MSTORE PUSH1 0x64 SWAP1 REVERT JUMPDEST PUSH1 0x80 DUP2 ADD SWAP1 DUP2 LT PUSH8 0xFFFFFFFFFFFFFFFF DUP3 GT OR PUSH2 0xFE0 JUMPI PUSH1 0x40 MSTORE JUMP JUMPDEST PUSH4 0x4E487B71 PUSH1 0xE0 SHL PUSH1 0x0 MSTORE PUSH1 0x41 PUSH1 0x4 MSTORE PUSH1 0x24 PUSH1 0x0 REVERT JUMPDEST SWAP1 PUSH1 0x1F DUP1 NOT SWAP2 ADD AND DUP2 ADD SWAP1 DUP2 LT PUSH8 0xFFFFFFFFFFFFFFFF DUP3 GT OR PUSH2 0xFE0 JUMPI PUSH1 0x40 MSTORE JUMP JUMPDEST SWAP1 DUP2 PUSH1 0x20 SWAP2 SUB SLT PUSH2 0xF52 JUMPI MLOAD DUP1 ISZERO ISZERO DUP2 SUB PUSH2 0xF52 JUMPI SWAP1 JUMP JUMPDEST ISZERO PUSH2 0x1037 JUMPI JUMP JUMPDEST PUSH1 0x40 MLOAD PUSH3 0x461BCD PUSH1 0xE5 SHL DUP2 MSTORE PUSH1 0x20 PUSH1 0x4 DUP3 ADD MSTORE PUSH1 0xF PUSH1 0x24 DUP3 ADD MSTORE PUSH15 0x151C985B9CD9995C8819985A5B1959 PUSH1 0x8A SHL PUSH1 0x44 DUP3 ADD MSTORE PUSH1 0x64 SWAP1 REVERT JUMPDEST SWAP2 SWAP1 DUP3 ADD DUP1 SWAP3 GT PUSH2 0x107B JUMPI JUMP JUMPDEST PUSH4 0x4E487B71 PUSH1 0xE0 SHL PUSH1 0x0 MSTORE PUSH1 0x11 PUSH1 0x4 MSTORE PUSH1 0x24 PUSH1 0x0 REVERT JUMPDEST PUSH1 0x2 PUSH1 0x0 SLOAD EQ PUSH2 0x10A2 JUMPI PUSH1 0x2 PUSH1 0x0 SSTORE JUMP JUMPDEST PUSH1 0x40 MLOAD PUSH4 0x3EE5AEB5 PUSH1 0xE0 SHL DUP2 MSTORE PUSH1 0x4 SWAP1 REVERT JUMPDEST SWAP2 SWAP1 DUP3 SUB SWAP2 DUP3 GT PUSH2 0x107B JUMPI JUMP JUMPDEST ISZERO PUSH2 0x10C8 JUMPI JUMP JUMPDEST PUSH1 0x40 MLOAD PUSH3 0x461BCD PUSH1 0xE5 SHL DUP2 MSTORE PUSH1 0x20 PUSH1 0x4 DUP3 ADD MSTORE PUSH1 0x14 PUSH1 0x24 DUP3 ADD MSTORE PUSH20 0x15D09510C81D1C985B9CD9995C8819985A5B1959 PUSH1 0x62 SHL PUSH1 0x44 DUP3 ADD MSTORE PUSH1 0x64 SWAP1 REVERT JUMPDEST SWAP1 PUSH2 0x110E DUP3 PUSH2 0x12E5 JUMP JUMPDEST SWAP2 DUP3 PUSH2 0x1119 JUMPI POP SWAP1 POP JUMP JUMPDEST PUSH1 0x40 DUP1 MLOAD PUSH4 0x70A08231 PUSH1 0xE0 SHL DUP2 MSTORE ADDRESS PUSH1 0x4 DUP3 ADD MSTORE SWAP1 SWAP4 PUSH1 0x20 SWAP2 PUSH1 0x1 PUSH1 0x1 PUSH1 0xA0 SHL SUB PUSH32 0x0 DUP2 AND SWAP2 DUP5 DUP2 PUSH1 0x24 DUP2 DUP7 GAS STATICCALL DUP1 ISZERO PUSH2 0x12C7 JUMPI DUP5 SWAP2 PUSH1 0x0 SWAP2 PUSH2 0x1297 JUMPI JUMPDEST POP LT PUSH2 0x1253 JUMPI DUP3 PUSH2 0x11E9 SWAP3 DUP6 SWAP3 DUP8 AND SWAP7 DUP8 PUSH1 0x0 MSTORE PUSH1 0x2 DUP5 MSTORE PUSH1 0x3 DUP11 PUSH1 0x0 KECCAK256 TIMESTAMP PUSH1 0x2 DUP3 ADD SSTORE ADD PUSH2 0x11A6 DUP5 DUP3 SLOAD PUSH2 0x106E JUMP JUMPDEST SWAP1 SSTORE PUSH2 0x11B4 DUP4 PUSH1 0x4 SLOAD PUSH2 0x106E JUMP JUMPDEST PUSH1 0x4 SSTORE PUSH1 0x0 DUP11 MLOAD DUP1 SWAP7 DUP2 SWAP6 DUP3 SWAP5 PUSH4 0xA9059CBB PUSH1 0xE0 SHL DUP5 MSTORE PUSH1 0x4 DUP5 ADD PUSH1 0x20 SWAP1 SWAP4 SWAP3 SWAP2 SWAP4 PUSH1 0x40 DUP2 ADD SWAP5 PUSH1 0x1 DUP1 PUSH1 0xA0 SHL SUB AND DUP2 MSTORE ADD MSTORE JUMP JUMPDEST SUB SWAP3 GAS CALL SWAP1 DUP2 ISZERO PUSH2 0x1248 JUMPI PUSH32 0xFC30CDDEA38E2BF4D6EA7D3F9ED3B6AD7F176419F4963BD81318067A4AEE73FE SWAP5 SWAP6 SWAP7 SWAP2 PUSH2 0x122A SWAP2 PUSH1 0x0 SWAP2 PUSH2 0x1231 JUMPI POP PUSH2 0x10C1 JUMP JUMPDEST MLOAD SWAP1 DUP2 MSTORE LOG2 JUMP JUMPDEST PUSH2 0x7D8 SWAP2 POP DUP6 RETURNDATASIZE DUP8 GT PUSH2 0x2D3 JUMPI PUSH2 0x2C4 DUP2 DUP4 PUSH2 0xFF6 JUMP JUMPDEST DUP7 MLOAD RETURNDATASIZE PUSH1 0x0 DUP3 RETURNDATACOPY RETURNDATASIZE SWAP1 REVERT JUMPDEST DUP7 MLOAD PUSH3 0x461BCD PUSH1 0xE5 SHL DUP2 MSTORE PUSH1 0x4 DUP2 ADD DUP6 SWAP1 MSTORE PUSH1 0x1D PUSH1 0x24 DUP3 ADD MSTORE PUSH32 0x496E73756666696369656E74205742544320696E20636F6E7472616374000000 PUSH1 0x44 DUP3 ADD MSTORE PUSH1 0x64 SWAP1 REVERT JUMPDEST SWAP2 POP DUP6 DUP3 DUP2 RETURNDATASIZE DUP4 GT PUSH2 0x12C0 JUMPI JUMPDEST PUSH2 0x12AE DUP2 DUP4 PUSH2 0xFF6 JUMP JUMPDEST DUP2 ADD SUB SLT PUSH2 0x43C JUMPI POP DUP4 SWAP1 MLOAD CODESIZE PUSH2 0x1176 JUMP JUMPDEST POP RETURNDATASIZE PUSH2 0x12A4 JUMP JUMPDEST DUP9 MLOAD RETURNDATASIZE PUSH1 0x0 DUP3 RETURNDATACOPY RETURNDATASIZE SWAP1 REVERT JUMPDEST DUP2 DUP2 MUL SWAP3 SWAP2 DUP2 ISZERO SWAP2 DUP5 DIV EQ OR ISZERO PUSH2 0x107B JUMPI JUMP JUMPDEST PUSH1 0x1 PUSH1 0x1 PUSH1 0xA0 SHL SUB AND PUSH1 0x0 SWAP1 DUP2 MSTORE PUSH1 0x2 PUSH1 0x20 MSTORE PUSH1 0x40 DUP1 DUP3 KECCAK256 SWAP1 MLOAD SWAP1 PUSH2 0x1309 DUP3 PUSH2 0xFC4 JUMP JUMPDEST DUP1 SLOAD DUP1 DUP4 MSTORE PUSH1 0x1 DUP3 ADD SLOAD PUSH1 0x20 DUP5 ADD MSTORE PUSH1 0x3 PUSH1 0x2 DUP4 ADD SLOAD SWAP3 DUP4 PUSH1 0x40 DUP7 ADD MSTORE ADD SLOAD PUSH1 0x60 DUP5 ADD MSTORE ISZERO PUSH2 0x13B3 JUMPI PUSH2 0x133C SWAP1 TIMESTAMP PUSH2 0x10B4 JUMP JUMPDEST SWAP1 MLOAD PUSH2 0x190 SWAP1 DUP2 DUP2 MUL SWAP2 DUP2 DUP4 DIV EQ SWAP1 ISZERO OR ISZERO PUSH2 0x139F JUMPI PUSH5 0x496CEBB800 SWAP2 PUSH2 0x1362 SWAP2 PUSH2 0x12D2 JUMP JUMPDEST DIV SWAP1 PUSH4 0x5F5E100 SWAP2 DUP3 DUP2 MUL SWAP3 DUP2 DUP5 DIV EQ SWAP1 ISZERO OR ISZERO PUSH2 0x138B JUMPI POP PUSH10 0xD3C21BCECCEDA1000000 SWAP1 DIV SWAP1 JUMP JUMPDEST PUSH4 0x4E487B71 PUSH1 0xE0 SHL DUP2 MSTORE PUSH1 0x11 PUSH1 0x4 MSTORE PUSH1 0x24 SWAP1 REVERT JUMPDEST PUSH4 0x4E487B71 PUSH1 0xE0 SHL DUP4 MSTORE PUSH1 0x11 PUSH1 0x4 MSTORE PUSH1 0x24 DUP4 REVERT JUMPDEST POP POP SWAP1 JUMP INVALID LOG2 PUSH5 0x6970667358 0x22 SLT KECCAK256 DUP14 DUP3 0xC4 0xE8 DUP2 REVERT GASPRICE 0xDC NOT DUP4 0xC5 DUP4 0x1E 0xA6 JUMPI JUMPDEST SMOD 0xEF 0xE2 0xDC RETURNDATASIZE 0xB6 DUP7 LOG2 0x22 EXTCODECOPY SIGNEXTEND SIGNEXTEND GAS KECCAK256 0xAA 0xEB PUSH5 0x736F6C6343 STOP ADDMOD EQ STOP CALLER "},"methodIdentifiers":{"APY_RATE()":"46a203d0","SECONDS_PER_YEAR()":"e6a69ab8","calculatePendingRewards(address)":"097aad10","claimRewards()":"372500ab","estimateRewards(uint256,uint256)":"60df8297","fundRewards(uint256)":"93707a19","getCurrentAPY()":"962ca496","getGlobalStats()":"6b4169c3","getStakeInfo(address)":"c3453153","nxlToken()":"89ef723b","owner()":"8da5cb5b","pause()":"8456cb59","paused()":"5c975abb","recoverTokens(address,uint256)":"069c9fae","renounceOwnership()":"715018a6","stake(uint256)":"a694fc3a","stakes(address)":"16934fc4","totalRewardsPaid()":"74958e35","totalStaked()":"817b1cd2","totalStakers()":"86989038","transferOwnership(address)":"f2fde38b","unpause()":"3f4ba83a","unstake(uint256)":"2e17de78","wbtc()":"3cdc5389","withdrawExcess(uint256)":"e755ddd7"}}}}}