{"contracts/DonationVault.sol":{"DonationVault":{"abi":[{"inputs":[{"internalType":"address","name":"_stablecoin","type":"address"},{"internalType":"address","name":"_treasuryBTC","type":"address"}],"stateMutability":"nonpayable","type":"constructor"},{"inputs":[{"internalType":"address","name":"owner","type":"address"}],"name":"OwnableInvalidOwner","type":"error"},{"inputs":[{"internalType":"address","name":"account","type":"address"}],"name":"OwnableUnauthorizedAccount","type":"error"},{"inputs":[],"name":"ReentrancyGuardReentrantCall","type":"error"},{"anonymous":false,"inputs":[{"indexed":true,"internalType":"address","name":"donor","type":"address"},{"indexed":false,"internalType":"uint256","name":"amount","type":"uint256"},{"indexed":false,"internalType":"uint256","name":"donationId","type":"uint256"},{"indexed":false,"internalType":"string","name":"message","type":"string"}],"name":"DonationReceived","type":"event"},{"anonymous":false,"inputs":[{"indexed":true,"internalType":"address","name":"treasury","type":"address"},{"indexed":false,"internalType":"uint256","name":"amount","type":"uint256"}],"name":"DonationsForwarded","type":"event"},{"anonymous":false,"inputs":[{"indexed":true,"internalType":"address","name":"previousOwner","type":"address"},{"indexed":true,"internalType":"address","name":"newOwner","type":"address"}],"name":"OwnershipTransferred","type":"event"},{"inputs":[{"internalType":"uint256","name":"amount","type":"uint256"},{"internalType":"string","name":"message","type":"string"}],"name":"donate","outputs":[],"stateMutability":"nonpayable","type":"function"},{"inputs":[{"internalType":"uint256","name":"","type":"uint256"}],"name":"donations","outputs":[{"internalType":"address","name":"donor","type":"address"},{"internalType":"uint256","name":"amount","type":"uint256"},{"internalType":"uint256","name":"timestamp","type":"uint256"},{"internalType":"string","name":"message","type":"string"}],"stateMutability":"view","type":"function"},{"inputs":[{"internalType":"address","name":"","type":"address"},{"internalType":"uint256","name":"","type":"uint256"}],"name":"donorDonations","outputs":[{"internalType":"uint256","name":"","type":"uint256"}],"stateMutability":"view","type":"function"},{"inputs":[{"internalType":"address","name":"donor","type":"address"}],"name":"getDonorDonations","outputs":[{"internalType":"uint256[]","name":"donationIds","type":"uint256[]"},{"internalType":"uint256[]","name":"amounts","type":"uint256[]"},{"internalType":"uint256[]","name":"timestamps","type":"uint256[]"}],"stateMutability":"view","type":"function"},{"inputs":[{"internalType":"address","name":"donor","type":"address"}],"name":"getDonorInfo","outputs":[{"internalType":"uint256","name":"_totalDonated","type":"uint256"},{"internalType":"uint256","name":"_donationCount","type":"uint256"},{"internalType":"uint256","name":"_lastDonationTime","type":"uint256"}],"stateMutability":"view","type":"function"},{"inputs":[{"internalType":"uint256","name":"limit","type":"uint256"}],"name":"getRecentDonations","outputs":[{"internalType":"address[]","name":"donors","type":"address[]"},{"internalType":"uint256[]","name":"amounts","type":"uint256[]"},{"internalType":"uint256[]","name":"timestamps","type":"uint256[]"},{"internalType":"string[]","name":"messages","type":"string[]"}],"stateMutability":"view","type":"function"},{"inputs":[],"name":"getStats","outputs":[{"internalType":"uint256","name":"_totalReceived","type":"uint256"},{"internalType":"uint256","name":"_totalDonors","type":"uint256"},{"internalType":"uint256","name":"_totalDonations","type":"uint256"}],"stateMutability":"view","type":"function"},{"inputs":[{"internalType":"uint256","name":"limit","type":"uint256"}],"name":"getTopDonors","outputs":[{"internalType":"address[]","name":"topDonors","type":"address[]"},{"internalType":"uint256[]","name":"amounts","type":"uint256[]"}],"stateMutability":"view","type":"function"},{"inputs":[],"name":"owner","outputs":[{"internalType":"address","name":"","type":"address"}],"stateMutability":"view","type":"function"},{"inputs":[{"internalType":"address","name":"token","type":"address"},{"internalType":"uint256","name":"amount","type":"uint256"}],"name":"recoverTokens","outputs":[],"stateMutability":"nonpayable","type":"function"},{"inputs":[],"name":"renounceOwnership","outputs":[],"stateMutability":"nonpayable","type":"function"},{"inputs":[],"name":"stablecoin","outputs":[{"internalType":"contract IERC20","name":"","type":"address"}],"stateMutability":"view","type":"function"},{"inputs":[{"internalType":"address","name":"","type":"address"}],"name":"totalDonated","outputs":[{"internalType":"uint256","name":"","type":"uint256"}],"stateMutability":"view","type":"function"},{"inputs":[],"name":"totalDonors","outputs":[{"internalType":"uint256","name":"","type":"uint256"}],"stateMutability":"view","type":"function"},{"inputs":[],"name":"totalReceived","outputs":[{"internalType":"uint256","name":"","type":"uint256"}],"stateMutability":"view","type":"function"},{"inputs":[{"internalType":"address","name":"newOwner","type":"address"}],"name":"transferOwnership","outputs":[],"stateMutability":"nonpayable","type":"function"},{"inputs":[],"name":"treasuryBTC","outputs":[{"internalType":"address","name":"","type":"address"}],"stateMutability":"view","type":"function"},{"inputs":[{"internalType":"address","name":"newTreasury","type":"address"}],"name":"updateTreasury","outputs":[],"stateMutability":"nonpayable","type":"function"}],"evm":{"bytecode":{"linkReferences":{},"object":"60a03461017e576200165690601f38839003908101601f19168201906001600160401b03821183831017610183578083916040958694855283398101031261017e57610056602061004f83610199565b9201610199565b33156101665760008054336001600160a01b03198083168217845586519590946001600160a01b03949093859391908416907f8be0079c531659141344cd1fd0a4f28419497f9722a3daafe3b4186f6b6457e09080a3600180551693841561012f5750169182156100f8576080526002541617600255516114a89081620001ae8239608051818181610451015281816106900152818161090d0152610e9b0152f35b835162461bcd60e51b815260206004820152601060248201526f496e76616c696420747265617375727960801b6044820152606490fd5b62461bcd60e51b815260206004820152601260248201527124b73b30b634b21039ba30b13632b1b7b4b760711b6044820152606490fd5b8251631e4fbdf760e01b815260006004820152602490fd5b600080fd5b634e487b7160e01b600052604160045260246000fd5b51906001600160a01b038216820361017e5756fe6080604052600436101561001257600080fd5b60003560e01c80623062ca14610f65578063069c9fae14610e6d5780630f3a1d4714610e3357806315a4640614610d2857806325c302e414610d0a5780634395e1bf14610cb2578063715018a614610c595780637f51bb1f14610bd45780638d59d1f1146105ee5780638da5cb5b146105c5578063a3c2c462146105a7578063c46a60a5146104b2578063c59d484714610480578063e9cbd8221461043b578063eb348f8314610412578063f2fde38b14610384578063f5d1282b1461015a5763f8626af8146100e157600080fd5b34610155576020366003190112610155576004356003548110156101555761010890611217565b5060018060a01b0381541661015160018301549261012d6003600283015492016112c9565b90604051948594855260208501526040840152608060608401526080830190611193565b0390f35b600080fd5b3461015557602080600319360112610155576007546004358181111561037d57505b610185816113e7565b9161018f826113e7565b60035461019b816113e7565b9060009060005b8181106102f557505060005b858110806102ec575b156102c25760008060005b84811061020857506101e69291906001600160a01b0316806101eb575b50506113b3565b6101ae565b6101f5838b61145e565b52610200828761145e565b5288806101df565b6001600160a01b038061021b838961145e565b5116600052600489528360406000205411610240575b5061023b906113b3565b6101c2565b6000805b828d88831061028a575b505050610231579250905081610264828761145e565b51166000526004875261023b60406000205492610281838861145e565b51169190610231565b826102949161145e565b5116836102a1868c61145e565b5116146102b6576102b1906113b3565b610244565b505060018c828d61024e565b6102df876101518787604051948594604086526040860190611122565b918483039085015261115f565b508181106101b7565b6102fe81611217565b50546001600160a01b0390811690600090815b868110610350575b505015610330575b5061032b906113b3565b6101a2565b836103499161034361032b94968861145e565b526113b3565b9290610321565b838261035c838b61145e565b5116146103715761036c906113b3565b610311565b50505060018a80610319565b905061017c565b346101555760203660031901126101555761039d6111d3565b6103a561136f565b6001600160a01b039081169081156103f957600054826bffffffffffffffffffffffff60a01b821617600055167f8be0079c531659141344cd1fd0a4f28419497f9722a3daafe3b4186f6b6457e0600080a3005b604051631e4fbdf760e01b815260006004820152602490fd5b34610155576000366003190112610155576002546040516001600160a01b039091168152602090f35b34610155576000366003190112610155576040517f00000000000000000000000000000000000000000000000000000000000000006001600160a01b03168152602090f35b346101555760003660031901126101555760065460075460035460408051938452602084019290925290820152606090f35b3461015557602080600319360112610155576001600160a01b036104d46111d3565b16908160005260058152604060002090604051808383829554938481520190600052836000209260005b8582821061059157505050610515925003836112a7565b600092825180610549575b506000908152600490915260409081902054915181519283526020830152810191909152606090f35b90935060001981019190821161057b57600261057061056a6004948661145e565b51611217565b500154939091610520565b634e487b7160e01b600052601160045260246000fd5b85548452600195860195889550930192016104fe565b34610155576000366003190112610155576020600654604051908152f35b34610155576000366003190112610155576000546040516001600160a01b039091168152602090f35b346101555760403660031901126101555760243567ffffffffffffffff811161015557366023820112156101555767ffffffffffffffff8160040135116101555736602482600401358301011161015557600260015414610bc257600260015560043515610b8857610118816004013511610b50576040516323b872dd60e01b81523360048083019190915230602483015235604482015260208160648160007f00000000000000000000000000000000000000000000000000000000000000006001600160a01b03165af19081156109ee57600091610b31575b5015610afa576003546040516106de8161128b565b338152600435602082015242604082015260405161070a6020601f19601f8760040135011601826112a7565b6004840135808252602485016020830137600060208560040135830101526060820152600160401b821015610a0d576001820160035561074982611217565b919091610ae457805182546001600160a01b0319166001600160a01b039190911617825560208101516001830155604081015160028301556060015180519067ffffffffffffffff8211610a0d576107a46003840154611251565b601f8111610a9d575b50602090601f8311600114610a2e576003929160009183610a23575b50508160011b9160001990841b1c1916179101555b336000526005602052604060002090815491600160401b831015610a0d578261082d9160017ff041a5bfea1be2e3f78bbadfadc66bb6f6d62860e629a44d71bec1ef49411c9e950181556111e9565b81549060031b9083821b91600019901b1916179055336000526004602052604060002054156109fa575b336000526004602052604060002061087260043582546113c2565b90556108826004356006546113c2565b600655604051906004358252602082015260606040820152826004013560608201528260040135602484016080830137600060808460040135830101526080813394601f8019916004013501168101030190a260025460405163a9059cbb60e01b81526001600160a01b039091166004808301919091523560248201526020818060448101038160007f00000000000000000000000000000000000000000000000000000000000000006001600160a01b03165af19081156109ee576000916109bf575b50156109895760018060a01b03600254167f14c9f9f91afb3fe6c277d43ca2970a36f719db489f69409f3e8236a146cd235660206040516004358152a260018055005b60405162461bcd60e51b815260206004820152600e60248201526d119bdc9dd85c990819985a5b195960921b6044820152606490fd5b6109e1915060203d6020116109e7575b6109d981836112a7565b81019061139b565b81610946565b503d6109cf565b6040513d6000823e3d90fd5b610a056007546113b3565b600755610857565b634e487b7160e01b600052604160045260246000fd5b0151905086806107c9565b906003840160005260206000209160005b601f1985168110610a855750918391600193600395601f19811610610a6d575b505050811b019101556107de565b015160001983861b60f8161c19169055868080610a5f565b91926020600181928685015181550194019201610a3f565b600384016000526020600020601f840160051c810160208510610add575b601f830160051c82018110610ad15750506107ad565b60008155600101610abb565b5080610abb565b634e487b7160e01b600052600060045260246000fd5b60405162461bcd60e51b815260206004820152600f60248201526e151c985b9cd9995c8819985a5b1959608a1b6044820152606490fd5b610b4a915060203d6020116109e7576109d981836112a7565b826106c9565b60405162461bcd60e51b815260206004820152601060248201526f4d65737361676520746f6f206c6f6e6760801b6044820152606490fd5b60405162461bcd60e51b81526020600482015260126024820152710416d6f756e74206d757374206265203e20360741b6044820152606490fd5b604051633ee5aeb560e01b8152600490fd5b3461015557602036600319011261015557610bed6111d3565b610bf561136f565b6001600160a01b03168015610c21576bffffffffffffffffffffffff60a01b6002541617600255600080f35b60405162461bcd60e51b815260206004820152601060248201526f496e76616c696420747265617375727960801b6044820152606490fd5b3461015557600036600319011261015557610c7261136f565b600080546001600160a01b0319811682556001600160a01b03167f8be0079c531659141344cd1fd0a4f28419497f9722a3daafe3b4186f6b6457e08280a3005b3461015557604036600319011261015557610ccb6111d3565b6001600160a01b031660009081526005602052604090208054602435919082101561015557602091610cfc916111e9565b90546040519160031b1c8152f35b34610155576000366003190112610155576020600754604051908152f35b3461015557602080600319360112610155576001600160a01b03610d4a6111d3565b16600052600581526040600020604051808284829454938481520190600052846000209260005b86828210610e1d5784610d86818603826112a7565b8051610d91816113e7565b610d9a826113e7565b9160005b818110610de157610dc68561015186610dd38a8860405196879660608852606088019061115f565b918683039087015261115f565b90838203604085015261115f565b806040610dfd610df761056a610e18958a61145e565b50611419565b88810151610e0b848861145e565b520151610343828761145e565b610d9e565b8554845260019586019587955093019201610d71565b34610155576020366003190112610155576001600160a01b03610e546111d3565b1660005260046020526020604060002054604051908152f35b3461015557604036600319011261015557610e866111d3565b610e8e61136f565b6001600160a01b039081167f000000000000000000000000000000000000000000000000000000000000000082168114610f20576000805460405163a9059cbb60e01b815293166001600160a01b03166004840152602480359084015260209183918290816044810103925af180156109ee57610f0757005b610f1e9060203d81116109e7576109d981836112a7565b005b60405162461bcd60e51b815260206004820152601960248201527f43616e6e6f74207265636f76657220737461626c65636f696e000000000000006044820152606490fd5b346101555760208060031936011261015557600354906004358281111561111a575090805b610f93816113e7565b91610f9d826113e7565b610fa6836113e7565b90610fb0846113cf565b93610fbe60405195866112a7565b808552601f199384610fcf836113cf565b0160005b81811061110b5750506000198082019180831160005b85811061108b575050505050509061102061102e9261101360405197608089526080890190611122565b908782038989015261115f565b90858203604087015261115f565b93838503606085015282519081865280860181808460051b8901019501936000975b84891061105d5787870388f35b9091929394958480611079838686600196030188528a51611193565b98019401980197919094939294611050565b819b989b61057b5783818403019085821161057b5760606110b1610df761110394611217565b8d6110c68460018060a01b038451169261145e565b528b8101516110d5848c61145e565b5260408101516110e5848d61145e565b5201516110f2828d61145e565b526110fd818c61145e565b506113b3565b9a979a610fe9565b60608882018b01528901610fd3565b919091610f8a565b90815180825260208080930193019160005b828110611142575050505090565b83516001600160a01b031685529381019392810192600101611134565b90815180825260208080930193019160005b82811061117f575050505090565b835185529381019392810192600101611171565b919082519283825260005b8481106111bf575050826000602080949584010152601f8019910116010190565b60208183018101518483018201520161119e565b600435906001600160a01b038216820361015557565b80548210156112015760005260206000200190600090565b634e487b7160e01b600052603260045260246000fd5b60035481101561120157600360005260021b7fc2575a0e9e593c00f959f8c92f12db2869c3395a3b0502d05e2516446f71f85b0190600090565b90600182811c92168015611281575b602083101461126b57565b634e487b7160e01b600052602260045260246000fd5b91607f1691611260565b6080810190811067ffffffffffffffff821117610a0d57604052565b90601f8019910116810190811067ffffffffffffffff821117610a0d57604052565b90604051918260008254926112dd84611251565b90818452600194858116908160001461134c5750600114611309575b5050611307925003836112a7565b565b9093915060005260209081600020936000915b818310611334575050611307935082010138806112f9565b8554888401850152948501948794509183019161131c565b91505061130794506020925060ff191682840152151560051b82010138806112f9565b6000546001600160a01b0316330361138357565b60405163118cdaa760e01b8152336004820152602490fd5b90816020910312610155575180151581036101555790565b600019811461057b5760010190565b9190820180921161057b57565b67ffffffffffffffff8111610a0d5760051b60200190565b906113f1826113cf565b6113fe60405191826112a7565b828152809261140f601f19916113cf565b0190602036910137565b906040516114268161128b565b82546001600160a01b031681526001830154602082015260028301546040820152918290606090611459906003016112c9565b910152565b80518210156112015760209160051b01019056fea2646970667358221220efe5d12bb789494f5fe5e19185ba3704e93f3dd3e190cfa450dddd54b2b56ae564736f6c63430008140033","opcodes":"PUSH1 0xA0 CALLVALUE PUSH2 0x17E JUMPI PUSH3 0x1656 SWAP1 PUSH1 0x1F CODESIZE DUP4 SWAP1 SUB SWAP1 DUP2 ADD PUSH1 0x1F NOT AND DUP3 ADD SWAP1 PUSH1 0x1 PUSH1 0x1 PUSH1 0x40 SHL SUB DUP3 GT DUP4 DUP4 LT OR PUSH2 0x183 JUMPI DUP1 DUP4 SWAP2 PUSH1 0x40 SWAP6 DUP7 SWAP5 DUP6 MSTORE DUP4 CODECOPY DUP2 ADD SUB SLT PUSH2 0x17E JUMPI PUSH2 0x56 PUSH1 0x20 PUSH2 0x4F DUP4 PUSH2 0x199 JUMP JUMPDEST SWAP3 ADD PUSH2 0x199 JUMP JUMPDEST CALLER ISZERO PUSH2 0x166 JUMPI PUSH1 0x0 DUP1 SLOAD CALLER PUSH1 0x1 PUSH1 0x1 PUSH1 0xA0 SHL SUB NOT DUP1 DUP4 AND DUP3 OR DUP5 SSTORE DUP7 MLOAD SWAP6 SWAP1 SWAP5 PUSH1 0x1 PUSH1 0x1 PUSH1 0xA0 SHL SUB SWAP5 SWAP1 SWAP4 DUP6 SWAP4 SWAP2 SWAP1 DUP5 AND SWAP1 PUSH32 0x8BE0079C531659141344CD1FD0A4F28419497F9722A3DAAFE3B4186F6B6457E0 SWAP1 DUP1 LOG3 PUSH1 0x1 DUP1 SSTORE AND SWAP4 DUP5 ISZERO PUSH2 0x12F JUMPI POP AND SWAP2 DUP3 ISZERO PUSH2 0xF8 JUMPI PUSH1 0x80 MSTORE PUSH1 0x2 SLOAD AND OR PUSH1 0x2 SSTORE MLOAD PUSH2 0x14A8 SWAP1 DUP2 PUSH3 0x1AE DUP3 CODECOPY PUSH1 0x80 MLOAD DUP2 DUP2 DUP2 PUSH2 0x451 ADD MSTORE DUP2 DUP2 PUSH2 0x690 ADD MSTORE DUP2 DUP2 PUSH2 0x90D ADD MSTORE PUSH2 0xE9B ADD MSTORE RETURN JUMPDEST DUP4 MLOAD PUSH3 0x461BCD PUSH1 0xE5 SHL DUP2 MSTORE PUSH1 0x20 PUSH1 0x4 DUP3 ADD MSTORE PUSH1 0x10 PUSH1 0x24 DUP3 ADD MSTORE PUSH16 0x496E76616C6964207472656173757279 PUSH1 0x80 SHL PUSH1 0x44 DUP3 ADD MSTORE PUSH1 0x64 SWAP1 REVERT JUMPDEST PUSH3 0x461BCD PUSH1 0xE5 SHL DUP2 MSTORE PUSH1 0x20 PUSH1 0x4 DUP3 ADD MSTORE PUSH1 0x12 PUSH1 0x24 DUP3 ADD MSTORE PUSH18 0x24B73B30B634B21039BA30B13632B1B7B4B7 PUSH1 0x71 SHL PUSH1 0x44 DUP3 ADD MSTORE PUSH1 0x64 SWAP1 REVERT JUMPDEST DUP3 MLOAD PUSH4 0x1E4FBDF7 PUSH1 0xE0 SHL DUP2 MSTORE PUSH1 0x0 PUSH1 0x4 DUP3 ADD MSTORE PUSH1 0x24 SWAP1 REVERT JUMPDEST PUSH1 0x0 DUP1 REVERT JUMPDEST PUSH4 0x4E487B71 PUSH1 0xE0 SHL PUSH1 0x0 MSTORE PUSH1 0x41 PUSH1 0x4 MSTORE PUSH1 0x24 PUSH1 0x0 REVERT JUMPDEST MLOAD SWAP1 PUSH1 0x1 PUSH1 0x1 PUSH1 0xA0 SHL SUB DUP3 AND DUP3 SUB PUSH2 0x17E JUMPI JUMP INVALID PUSH1 0x80 PUSH1 0x40 MSTORE PUSH1 0x4 CALLDATASIZE LT ISZERO PUSH2 0x12 JUMPI PUSH1 0x0 DUP1 REVERT JUMPDEST PUSH1 0x0 CALLDATALOAD PUSH1 0xE0 SHR DUP1 PUSH3 0x3062CA EQ PUSH2 0xF65 JUMPI DUP1 PUSH4 0x69C9FAE EQ PUSH2 0xE6D JUMPI DUP1 PUSH4 0xF3A1D47 EQ PUSH2 0xE33 JUMPI DUP1 PUSH4 0x15A46406 EQ PUSH2 0xD28 JUMPI DUP1 PUSH4 0x25C302E4 EQ PUSH2 0xD0A JUMPI DUP1 PUSH4 0x4395E1BF EQ PUSH2 0xCB2 JUMPI DUP1 PUSH4 0x715018A6 EQ PUSH2 0xC59 JUMPI DUP1 PUSH4 0x7F51BB1F EQ PUSH2 0xBD4 JUMPI DUP1 PUSH4 0x8D59D1F1 EQ PUSH2 0x5EE JUMPI DUP1 PUSH4 0x8DA5CB5B EQ PUSH2 0x5C5 JUMPI DUP1 PUSH4 0xA3C2C462 EQ PUSH2 0x5A7 JUMPI DUP1 PUSH4 0xC46A60A5 EQ PUSH2 0x4B2 JUMPI DUP1 PUSH4 0xC59D4847 EQ PUSH2 0x480 JUMPI DUP1 PUSH4 0xE9CBD822 EQ PUSH2 0x43B JUMPI DUP1 PUSH4 0xEB348F83 EQ PUSH2 0x412 JUMPI DUP1 PUSH4 0xF2FDE38B EQ PUSH2 0x384 JUMPI DUP1 PUSH4 0xF5D1282B EQ PUSH2 0x15A JUMPI PUSH4 0xF8626AF8 EQ PUSH2 0xE1 JUMPI PUSH1 0x0 DUP1 REVERT JUMPDEST CALLVALUE PUSH2 0x155 JUMPI PUSH1 0x20 CALLDATASIZE PUSH1 0x3 NOT ADD SLT PUSH2 0x155 JUMPI PUSH1 0x4 CALLDATALOAD PUSH1 0x3 SLOAD DUP2 LT ISZERO PUSH2 0x155 JUMPI PUSH2 0x108 SWAP1 PUSH2 0x1217 JUMP JUMPDEST POP PUSH1 0x1 DUP1 PUSH1 0xA0 SHL SUB DUP2 SLOAD AND PUSH2 0x151 PUSH1 0x1 DUP4 ADD SLOAD SWAP3 PUSH2 0x12D PUSH1 0x3 PUSH1 0x2 DUP4 ADD SLOAD SWAP3 ADD PUSH2 0x12C9 JUMP JUMPDEST SWAP1 PUSH1 0x40 MLOAD SWAP5 DUP6 SWAP5 DUP6 MSTORE PUSH1 0x20 DUP6 ADD MSTORE PUSH1 0x40 DUP5 ADD MSTORE PUSH1 0x80 PUSH1 0x60 DUP5 ADD MSTORE PUSH1 0x80 DUP4 ADD SWAP1 PUSH2 0x1193 JUMP JUMPDEST SUB SWAP1 RETURN JUMPDEST PUSH1 0x0 DUP1 REVERT JUMPDEST CALLVALUE PUSH2 0x155 JUMPI PUSH1 0x20 DUP1 PUSH1 0x3 NOT CALLDATASIZE ADD SLT PUSH2 0x155 JUMPI PUSH1 0x7 SLOAD PUSH1 0x4 CALLDATALOAD DUP2 DUP2 GT ISZERO PUSH2 0x37D JUMPI POP JUMPDEST PUSH2 0x185 DUP2 PUSH2 0x13E7 JUMP JUMPDEST SWAP2 PUSH2 0x18F DUP3 PUSH2 0x13E7 JUMP JUMPDEST PUSH1 0x3 SLOAD PUSH2 0x19B DUP2 PUSH2 0x13E7 JUMP JUMPDEST SWAP1 PUSH1 0x0 SWAP1 PUSH1 0x0 JUMPDEST DUP2 DUP2 LT PUSH2 0x2F5 JUMPI POP POP PUSH1 0x0 JUMPDEST DUP6 DUP2 LT DUP1 PUSH2 0x2EC JUMPI JUMPDEST ISZERO PUSH2 0x2C2 JUMPI PUSH1 0x0 DUP1 PUSH1 0x0 JUMPDEST DUP5 DUP2 LT PUSH2 0x208 JUMPI POP PUSH2 0x1E6 SWAP3 SWAP2 SWAP1 PUSH1 0x1 PUSH1 0x1 PUSH1 0xA0 SHL SUB AND DUP1 PUSH2 0x1EB JUMPI JUMPDEST POP POP PUSH2 0x13B3 JUMP JUMPDEST PUSH2 0x1AE JUMP JUMPDEST PUSH2 0x1F5 DUP4 DUP12 PUSH2 0x145E JUMP JUMPDEST MSTORE PUSH2 0x200 DUP3 DUP8 PUSH2 0x145E JUMP JUMPDEST MSTORE DUP9 DUP1 PUSH2 0x1DF JUMP JUMPDEST PUSH1 0x1 PUSH1 0x1 PUSH1 0xA0 SHL SUB DUP1 PUSH2 0x21B DUP4 DUP10 PUSH2 0x145E JUMP JUMPDEST MLOAD AND PUSH1 0x0 MSTORE PUSH1 0x4 DUP10 MSTORE DUP4 PUSH1 0x40 PUSH1 0x0 KECCAK256 SLOAD GT PUSH2 0x240 JUMPI JUMPDEST POP PUSH2 0x23B SWAP1 PUSH2 0x13B3 JUMP JUMPDEST PUSH2 0x1C2 JUMP JUMPDEST PUSH1 0x0 DUP1 JUMPDEST DUP3 DUP14 DUP9 DUP4 LT PUSH2 0x28A JUMPI JUMPDEST POP POP POP PUSH2 0x231 JUMPI SWAP3 POP SWAP1 POP DUP2 PUSH2 0x264 DUP3 DUP8 PUSH2 0x145E JUMP JUMPDEST MLOAD AND PUSH1 0x0 MSTORE PUSH1 0x4 DUP8 MSTORE PUSH2 0x23B PUSH1 0x40 PUSH1 0x0 KECCAK256 SLOAD SWAP3 PUSH2 0x281 DUP4 DUP9 PUSH2 0x145E JUMP JUMPDEST MLOAD AND SWAP2 SWAP1 PUSH2 0x231 JUMP JUMPDEST DUP3 PUSH2 0x294 SWAP2 PUSH2 0x145E JUMP JUMPDEST MLOAD AND DUP4 PUSH2 0x2A1 DUP7 DUP13 PUSH2 0x145E JUMP JUMPDEST MLOAD AND EQ PUSH2 0x2B6 JUMPI PUSH2 0x2B1 SWAP1 PUSH2 0x13B3 JUMP JUMPDEST PUSH2 0x244 JUMP JUMPDEST POP POP PUSH1 0x1 DUP13 DUP3 DUP14 PUSH2 0x24E JUMP JUMPDEST PUSH2 0x2DF DUP8 PUSH2 0x151 DUP8 DUP8 PUSH1 0x40 MLOAD SWAP5 DUP6 SWAP5 PUSH1 0x40 DUP7 MSTORE PUSH1 0x40 DUP7 ADD SWAP1 PUSH2 0x1122 JUMP JUMPDEST SWAP2 DUP5 DUP4 SUB SWAP1 DUP6 ADD MSTORE PUSH2 0x115F JUMP JUMPDEST POP DUP2 DUP2 LT PUSH2 0x1B7 JUMP JUMPDEST PUSH2 0x2FE DUP2 PUSH2 0x1217 JUMP JUMPDEST POP SLOAD PUSH1 0x1 PUSH1 0x1 PUSH1 0xA0 SHL SUB SWAP1 DUP2 AND SWAP1 PUSH1 0x0 SWAP1 DUP2 JUMPDEST DUP7 DUP2 LT PUSH2 0x350 JUMPI JUMPDEST POP POP ISZERO PUSH2 0x330 JUMPI JUMPDEST POP PUSH2 0x32B SWAP1 PUSH2 0x13B3 JUMP JUMPDEST PUSH2 0x1A2 JUMP JUMPDEST DUP4 PUSH2 0x349 SWAP2 PUSH2 0x343 PUSH2 0x32B SWAP5 SWAP7 DUP9 PUSH2 0x145E JUMP JUMPDEST MSTORE PUSH2 0x13B3 JUMP JUMPDEST SWAP3 SWAP1 PUSH2 0x321 JUMP JUMPDEST DUP4 DUP3 PUSH2 0x35C DUP4 DUP12 PUSH2 0x145E JUMP JUMPDEST MLOAD AND EQ PUSH2 0x371 JUMPI PUSH2 0x36C SWAP1 PUSH2 0x13B3 JUMP JUMPDEST PUSH2 0x311 JUMP JUMPDEST POP POP POP PUSH1 0x1 DUP11 DUP1 PUSH2 0x319 JUMP JUMPDEST SWAP1 POP PUSH2 0x17C JUMP JUMPDEST CALLVALUE PUSH2 0x155 JUMPI PUSH1 0x20 CALLDATASIZE PUSH1 0x3 NOT ADD SLT PUSH2 0x155 JUMPI PUSH2 0x39D PUSH2 0x11D3 JUMP JUMPDEST PUSH2 0x3A5 PUSH2 0x136F JUMP JUMPDEST PUSH1 0x1 PUSH1 0x1 PUSH1 0xA0 SHL SUB SWAP1 DUP2 AND SWAP1 DUP2 ISZERO PUSH2 0x3F9 JUMPI PUSH1 0x0 SLOAD DUP3 PUSH12 0xFFFFFFFFFFFFFFFFFFFFFFFF PUSH1 0xA0 SHL DUP3 AND OR PUSH1 0x0 SSTORE AND PUSH32 0x8BE0079C531659141344CD1FD0A4F28419497F9722A3DAAFE3B4186F6B6457E0 PUSH1 0x0 DUP1 LOG3 STOP JUMPDEST PUSH1 0x40 MLOAD PUSH4 0x1E4FBDF7 PUSH1 0xE0 SHL DUP2 MSTORE PUSH1 0x0 PUSH1 0x4 DUP3 ADD MSTORE PUSH1 0x24 SWAP1 REVERT JUMPDEST CALLVALUE PUSH2 0x155 JUMPI PUSH1 0x0 CALLDATASIZE PUSH1 0x3 NOT ADD SLT PUSH2 0x155 JUMPI PUSH1 0x2 SLOAD PUSH1 0x40 MLOAD PUSH1 0x1 PUSH1 0x1 PUSH1 0xA0 SHL SUB SWAP1 SWAP2 AND DUP2 MSTORE PUSH1 0x20 SWAP1 RETURN JUMPDEST CALLVALUE PUSH2 0x155 JUMPI PUSH1 0x0 CALLDATASIZE PUSH1 0x3 NOT ADD SLT PUSH2 0x155 JUMPI PUSH1 0x40 MLOAD PUSH32 0x0 PUSH1 0x1 PUSH1 0x1 PUSH1 0xA0 SHL SUB AND DUP2 MSTORE PUSH1 0x20 SWAP1 RETURN JUMPDEST CALLVALUE PUSH2 0x155 JUMPI PUSH1 0x0 CALLDATASIZE PUSH1 0x3 NOT ADD SLT PUSH2 0x155 JUMPI PUSH1 0x6 SLOAD PUSH1 0x7 SLOAD PUSH1 0x3 SLOAD PUSH1 0x40 DUP1 MLOAD SWAP4 DUP5 MSTORE PUSH1 0x20 DUP5 ADD SWAP3 SWAP1 SWAP3 MSTORE SWAP1 DUP3 ADD MSTORE PUSH1 0x60 SWAP1 RETURN JUMPDEST CALLVALUE PUSH2 0x155 JUMPI PUSH1 0x20 DUP1 PUSH1 0x3 NOT CALLDATASIZE ADD SLT PUSH2 0x155 JUMPI PUSH1 0x1 PUSH1 0x1 PUSH1 0xA0 SHL SUB PUSH2 0x4D4 PUSH2 0x11D3 JUMP JUMPDEST AND SWAP1 DUP2 PUSH1 0x0 MSTORE PUSH1 0x5 DUP2 MSTORE PUSH1 0x40 PUSH1 0x0 KECCAK256 SWAP1 PUSH1 0x40 MLOAD DUP1 DUP4 DUP4 DUP3 SWAP6 SLOAD SWAP4 DUP5 DUP2 MSTORE ADD SWAP1 PUSH1 0x0 MSTORE DUP4 PUSH1 0x0 KECCAK256 SWAP3 PUSH1 0x0 JUMPDEST DUP6 DUP3 DUP3 LT PUSH2 0x591 JUMPI POP POP POP PUSH2 0x515 SWAP3 POP SUB DUP4 PUSH2 0x12A7 JUMP JUMPDEST PUSH1 0x0 SWAP3 DUP3 MLOAD DUP1 PUSH2 0x549 JUMPI JUMPDEST POP PUSH1 0x0 SWAP1 DUP2 MSTORE PUSH1 0x4 SWAP1 SWAP2 MSTORE PUSH1 0x40 SWAP1 DUP2 SWAP1 KECCAK256 SLOAD SWAP2 MLOAD DUP2 MLOAD SWAP3 DUP4 MSTORE PUSH1 0x20 DUP4 ADD MSTORE DUP2 ADD SWAP2 SWAP1 SWAP2 MSTORE PUSH1 0x60 SWAP1 RETURN JUMPDEST SWAP1 SWAP4 POP PUSH1 0x0 NOT DUP2 ADD SWAP2 SWAP1 DUP3 GT PUSH2 0x57B JUMPI PUSH1 0x2 PUSH2 0x570 PUSH2 0x56A PUSH1 0x4 SWAP5 DUP7 PUSH2 0x145E JUMP JUMPDEST MLOAD PUSH2 0x1217 JUMP JUMPDEST POP ADD SLOAD SWAP4 SWAP1 SWAP2 PUSH2 0x520 JUMP JUMPDEST PUSH4 0x4E487B71 PUSH1 0xE0 SHL PUSH1 0x0 MSTORE PUSH1 0x11 PUSH1 0x4 MSTORE PUSH1 0x24 PUSH1 0x0 REVERT JUMPDEST DUP6 SLOAD DUP5 MSTORE PUSH1 0x1 SWAP6 DUP7 ADD SWAP6 DUP9 SWAP6 POP SWAP4 ADD SWAP3 ADD PUSH2 0x4FE JUMP JUMPDEST CALLVALUE PUSH2 0x155 JUMPI PUSH1 0x0 CALLDATASIZE PUSH1 0x3 NOT ADD SLT PUSH2 0x155 JUMPI PUSH1 0x20 PUSH1 0x6 SLOAD PUSH1 0x40 MLOAD SWAP1 DUP2 MSTORE RETURN JUMPDEST CALLVALUE PUSH2 0x155 JUMPI PUSH1 0x0 CALLDATASIZE PUSH1 0x3 NOT ADD SLT PUSH2 0x155 JUMPI PUSH1 0x0 SLOAD PUSH1 0x40 MLOAD PUSH1 0x1 PUSH1 0x1 PUSH1 0xA0 SHL SUB SWAP1 SWAP2 AND DUP2 MSTORE PUSH1 0x20 SWAP1 RETURN JUMPDEST CALLVALUE PUSH2 0x155 JUMPI PUSH1 0x40 CALLDATASIZE PUSH1 0x3 NOT ADD SLT PUSH2 0x155 JUMPI PUSH1 0x24 CALLDATALOAD PUSH8 0xFFFFFFFFFFFFFFFF DUP2 GT PUSH2 0x155 JUMPI CALLDATASIZE PUSH1 0x23 DUP3 ADD SLT ISZERO PUSH2 0x155 JUMPI PUSH8 0xFFFFFFFFFFFFFFFF DUP2 PUSH1 0x4 ADD CALLDATALOAD GT PUSH2 0x155 JUMPI CALLDATASIZE PUSH1 0x24 DUP3 PUSH1 0x4 ADD CALLDATALOAD DUP4 ADD ADD GT PUSH2 0x155 JUMPI PUSH1 0x2 PUSH1 0x1 SLOAD EQ PUSH2 0xBC2 JUMPI PUSH1 0x2 PUSH1 0x1 SSTORE PUSH1 0x4 CALLDATALOAD ISZERO PUSH2 0xB88 JUMPI PUSH2 0x118 DUP2 PUSH1 0x4 ADD CALLDATALOAD GT PUSH2 0xB50 JUMPI PUSH1 0x40 MLOAD PUSH4 0x23B872DD PUSH1 0xE0 SHL DUP2 MSTORE CALLER PUSH1 0x4 DUP1 DUP4 ADD SWAP2 SWAP1 SWAP2 MSTORE ADDRESS PUSH1 0x24 DUP4 ADD MSTORE CALLDATALOAD PUSH1 0x44 DUP3 ADD MSTORE PUSH1 0x20 DUP2 PUSH1 0x64 DUP2 PUSH1 0x0 PUSH32 0x0 PUSH1 0x1 PUSH1 0x1 PUSH1 0xA0 SHL SUB AND GAS CALL SWAP1 DUP2 ISZERO PUSH2 0x9EE JUMPI PUSH1 0x0 SWAP2 PUSH2 0xB31 JUMPI JUMPDEST POP ISZERO PUSH2 0xAFA JUMPI PUSH1 0x3 SLOAD PUSH1 0x40 MLOAD PUSH2 0x6DE DUP2 PUSH2 0x128B JUMP JUMPDEST CALLER DUP2 MSTORE PUSH1 0x4 CALLDATALOAD PUSH1 0x20 DUP3 ADD MSTORE TIMESTAMP PUSH1 0x40 DUP3 ADD MSTORE PUSH1 0x40 MLOAD PUSH2 0x70A PUSH1 0x20 PUSH1 0x1F NOT PUSH1 0x1F DUP8 PUSH1 0x4 ADD CALLDATALOAD ADD AND ADD DUP3 PUSH2 0x12A7 JUMP JUMPDEST PUSH1 0x4 DUP5 ADD CALLDATALOAD DUP1 DUP3 MSTORE PUSH1 0x24 DUP6 ADD PUSH1 0x20 DUP4 ADD CALLDATACOPY PUSH1 0x0 PUSH1 0x20 DUP6 PUSH1 0x4 ADD CALLDATALOAD DUP4 ADD ADD MSTORE PUSH1 0x60 DUP3 ADD MSTORE PUSH1 0x1 PUSH1 0x40 SHL DUP3 LT ISZERO PUSH2 0xA0D JUMPI PUSH1 0x1 DUP3 ADD PUSH1 0x3 SSTORE PUSH2 0x749 DUP3 PUSH2 0x1217 JUMP JUMPDEST SWAP2 SWAP1 SWAP2 PUSH2 0xAE4 JUMPI DUP1 MLOAD DUP3 SLOAD PUSH1 0x1 PUSH1 0x1 PUSH1 0xA0 SHL SUB NOT AND PUSH1 0x1 PUSH1 0x1 PUSH1 0xA0 SHL SUB SWAP2 SWAP1 SWAP2 AND OR DUP3 SSTORE PUSH1 0x20 DUP2 ADD MLOAD PUSH1 0x1 DUP4 ADD SSTORE PUSH1 0x40 DUP2 ADD MLOAD PUSH1 0x2 DUP4 ADD SSTORE PUSH1 0x60 ADD MLOAD DUP1 MLOAD SWAP1 PUSH8 0xFFFFFFFFFFFFFFFF DUP3 GT PUSH2 0xA0D JUMPI PUSH2 0x7A4 PUSH1 0x3 DUP5 ADD SLOAD PUSH2 0x1251 JUMP JUMPDEST PUSH1 0x1F DUP2 GT PUSH2 0xA9D JUMPI JUMPDEST POP PUSH1 0x20 SWAP1 PUSH1 0x1F DUP4 GT PUSH1 0x1 EQ PUSH2 0xA2E JUMPI PUSH1 0x3 SWAP3 SWAP2 PUSH1 0x0 SWAP2 DUP4 PUSH2 0xA23 JUMPI JUMPDEST POP POP DUP2 PUSH1 0x1 SHL SWAP2 PUSH1 0x0 NOT SWAP1 DUP5 SHL SHR NOT AND OR SWAP2 ADD SSTORE JUMPDEST CALLER PUSH1 0x0 MSTORE PUSH1 0x5 PUSH1 0x20 MSTORE PUSH1 0x40 PUSH1 0x0 KECCAK256 SWAP1 DUP2 SLOAD SWAP2 PUSH1 0x1 PUSH1 0x40 SHL DUP4 LT ISZERO PUSH2 0xA0D JUMPI DUP3 PUSH2 0x82D SWAP2 PUSH1 0x1 PUSH32 0xF041A5BFEA1BE2E3F78BBADFADC66BB6F6D62860E629A44D71BEC1EF49411C9E SWAP6 ADD DUP2 SSTORE PUSH2 0x11E9 JUMP JUMPDEST DUP2 SLOAD SWAP1 PUSH1 0x3 SHL SWAP1 DUP4 DUP3 SHL SWAP2 PUSH1 0x0 NOT SWAP1 SHL NOT AND OR SWAP1 SSTORE CALLER PUSH1 0x0 MSTORE PUSH1 0x4 PUSH1 0x20 MSTORE PUSH1 0x40 PUSH1 0x0 KECCAK256 SLOAD ISZERO PUSH2 0x9FA JUMPI JUMPDEST CALLER PUSH1 0x0 MSTORE PUSH1 0x4 PUSH1 0x20 MSTORE PUSH1 0x40 PUSH1 0x0 KECCAK256 PUSH2 0x872 PUSH1 0x4 CALLDATALOAD DUP3 SLOAD PUSH2 0x13C2 JUMP JUMPDEST SWAP1 SSTORE PUSH2 0x882 PUSH1 0x4 CALLDATALOAD PUSH1 0x6 SLOAD PUSH2 0x13C2 JUMP JUMPDEST PUSH1 0x6 SSTORE PUSH1 0x40 MLOAD SWAP1 PUSH1 0x4 CALLDATALOAD DUP3 MSTORE PUSH1 0x20 DUP3 ADD MSTORE PUSH1 0x60 PUSH1 0x40 DUP3 ADD MSTORE DUP3 PUSH1 0x4 ADD CALLDATALOAD PUSH1 0x60 DUP3 ADD MSTORE DUP3 PUSH1 0x4 ADD CALLDATALOAD PUSH1 0x24 DUP5 ADD PUSH1 0x80 DUP4 ADD CALLDATACOPY PUSH1 0x0 PUSH1 0x80 DUP5 PUSH1 0x4 ADD CALLDATALOAD DUP4 ADD ADD MSTORE PUSH1 0x80 DUP2 CALLER SWAP5 PUSH1 0x1F DUP1 NOT SWAP2 PUSH1 0x4 ADD CALLDATALOAD ADD AND DUP2 ADD SUB ADD SWAP1 LOG2 PUSH1 0x2 SLOAD PUSH1 0x40 MLOAD PUSH4 0xA9059CBB PUSH1 0xE0 SHL DUP2 MSTORE PUSH1 0x1 PUSH1 0x1 PUSH1 0xA0 SHL SUB SWAP1 SWAP2 AND PUSH1 0x4 DUP1 DUP4 ADD SWAP2 SWAP1 SWAP2 MSTORE CALLDATALOAD PUSH1 0x24 DUP3 ADD MSTORE PUSH1 0x20 DUP2 DUP1 PUSH1 0x44 DUP2 ADD SUB DUP2 PUSH1 0x0 PUSH32 0x0 PUSH1 0x1 PUSH1 0x1 PUSH1 0xA0 SHL SUB AND GAS CALL SWAP1 DUP2 ISZERO PUSH2 0x9EE JUMPI PUSH1 0x0 SWAP2 PUSH2 0x9BF JUMPI JUMPDEST POP ISZERO PUSH2 0x989 JUMPI PUSH1 0x1 DUP1 PUSH1 0xA0 SHL SUB PUSH1 0x2 SLOAD AND PUSH32 0x14C9F9F91AFB3FE6C277D43CA2970A36F719DB489F69409F3E8236A146CD2356 PUSH1 0x20 PUSH1 0x40 MLOAD PUSH1 0x4 CALLDATALOAD DUP2 MSTORE LOG2 PUSH1 0x1 DUP1 SSTORE STOP JUMPDEST PUSH1 0x40 MLOAD PUSH3 0x461BCD PUSH1 0xE5 SHL DUP2 MSTORE PUSH1 0x20 PUSH1 0x4 DUP3 ADD MSTORE PUSH1 0xE PUSH1 0x24 DUP3 ADD MSTORE PUSH14 0x119BDC9DD85C990819985A5B1959 PUSH1 0x92 SHL PUSH1 0x44 DUP3 ADD MSTORE PUSH1 0x64 SWAP1 REVERT JUMPDEST PUSH2 0x9E1 SWAP2 POP PUSH1 0x20 RETURNDATASIZE PUSH1 0x20 GT PUSH2 0x9E7 JUMPI JUMPDEST PUSH2 0x9D9 DUP2 DUP4 PUSH2 0x12A7 JUMP JUMPDEST DUP2 ADD SWAP1 PUSH2 0x139B JUMP JUMPDEST DUP2 PUSH2 0x946 JUMP JUMPDEST POP RETURNDATASIZE PUSH2 0x9CF JUMP JUMPDEST PUSH1 0x40 MLOAD RETURNDATASIZE PUSH1 0x0 DUP3 RETURNDATACOPY RETURNDATASIZE SWAP1 REVERT JUMPDEST PUSH2 0xA05 PUSH1 0x7 SLOAD PUSH2 0x13B3 JUMP JUMPDEST PUSH1 0x7 SSTORE PUSH2 0x857 JUMP JUMPDEST PUSH4 0x4E487B71 PUSH1 0xE0 SHL PUSH1 0x0 MSTORE PUSH1 0x41 PUSH1 0x4 MSTORE PUSH1 0x24 PUSH1 0x0 REVERT JUMPDEST ADD MLOAD SWAP1 POP DUP7 DUP1 PUSH2 0x7C9 JUMP JUMPDEST SWAP1 PUSH1 0x3 DUP5 ADD PUSH1 0x0 MSTORE PUSH1 0x20 PUSH1 0x0 KECCAK256 SWAP2 PUSH1 0x0 JUMPDEST PUSH1 0x1F NOT DUP6 AND DUP2 LT PUSH2 0xA85 JUMPI POP SWAP2 DUP4 SWAP2 PUSH1 0x1 SWAP4 PUSH1 0x3 SWAP6 PUSH1 0x1F NOT DUP2 AND LT PUSH2 0xA6D JUMPI JUMPDEST POP POP POP DUP2 SHL ADD SWAP2 ADD SSTORE PUSH2 0x7DE JUMP JUMPDEST ADD MLOAD PUSH1 0x0 NOT DUP4 DUP7 SHL PUSH1 0xF8 AND SHR NOT AND SWAP1 SSTORE DUP7 DUP1 DUP1 PUSH2 0xA5F JUMP JUMPDEST SWAP2 SWAP3 PUSH1 0x20 PUSH1 0x1 DUP2 SWAP3 DUP7 DUP6 ADD MLOAD DUP2 SSTORE ADD SWAP5 ADD SWAP3 ADD PUSH2 0xA3F JUMP JUMPDEST PUSH1 0x3 DUP5 ADD PUSH1 0x0 MSTORE PUSH1 0x20 PUSH1 0x0 KECCAK256 PUSH1 0x1F DUP5 ADD PUSH1 0x5 SHR DUP2 ADD PUSH1 0x20 DUP6 LT PUSH2 0xADD JUMPI JUMPDEST PUSH1 0x1F DUP4 ADD PUSH1 0x5 SHR DUP3 ADD DUP2 LT PUSH2 0xAD1 JUMPI POP POP PUSH2 0x7AD JUMP JUMPDEST PUSH1 0x0 DUP2 SSTORE PUSH1 0x1 ADD PUSH2 0xABB JUMP JUMPDEST POP DUP1 PUSH2 0xABB JUMP JUMPDEST PUSH4 0x4E487B71 PUSH1 0xE0 SHL PUSH1 0x0 MSTORE PUSH1 0x0 PUSH1 0x4 MSTORE PUSH1 0x24 PUSH1 0x0 REVERT JUMPDEST PUSH1 0x40 MLOAD PUSH3 0x461BCD PUSH1 0xE5 SHL DUP2 MSTORE PUSH1 0x20 PUSH1 0x4 DUP3 ADD MSTORE PUSH1 0xF PUSH1 0x24 DUP3 ADD MSTORE PUSH15 0x151C985B9CD9995C8819985A5B1959 PUSH1 0x8A SHL PUSH1 0x44 DUP3 ADD MSTORE PUSH1 0x64 SWAP1 REVERT JUMPDEST PUSH2 0xB4A SWAP2 POP PUSH1 0x20 RETURNDATASIZE PUSH1 0x20 GT PUSH2 0x9E7 JUMPI PUSH2 0x9D9 DUP2 DUP4 PUSH2 0x12A7 JUMP JUMPDEST DUP3 PUSH2 0x6C9 JUMP JUMPDEST PUSH1 0x40 MLOAD PUSH3 0x461BCD PUSH1 0xE5 SHL DUP2 MSTORE PUSH1 0x20 PUSH1 0x4 DUP3 ADD MSTORE PUSH1 0x10 PUSH1 0x24 DUP3 ADD MSTORE PUSH16 0x4D65737361676520746F6F206C6F6E67 PUSH1 0x80 SHL PUSH1 0x44 DUP3 ADD MSTORE PUSH1 0x64 SWAP1 REVERT JUMPDEST PUSH1 0x40 MLOAD PUSH3 0x461BCD PUSH1 0xE5 SHL DUP2 MSTORE PUSH1 0x20 PUSH1 0x4 DUP3 ADD MSTORE PUSH1 0x12 PUSH1 0x24 DUP3 ADD MSTORE PUSH18 0x416D6F756E74206D757374206265203E203 PUSH1 0x74 SHL PUSH1 0x44 DUP3 ADD MSTORE PUSH1 0x64 SWAP1 REVERT JUMPDEST PUSH1 0x40 MLOAD PUSH4 0x3EE5AEB5 PUSH1 0xE0 SHL DUP2 MSTORE PUSH1 0x4 SWAP1 REVERT JUMPDEST CALLVALUE PUSH2 0x155 JUMPI PUSH1 0x20 CALLDATASIZE PUSH1 0x3 NOT ADD SLT PUSH2 0x155 JUMPI PUSH2 0xBED PUSH2 0x11D3 JUMP JUMPDEST PUSH2 0xBF5 PUSH2 0x136F JUMP JUMPDEST PUSH1 0x1 PUSH1 0x1 PUSH1 0xA0 SHL SUB AND DUP1 ISZERO PUSH2 0xC21 JUMPI PUSH12 0xFFFFFFFFFFFFFFFFFFFFFFFF PUSH1 0xA0 SHL PUSH1 0x2 SLOAD AND OR PUSH1 0x2 SSTORE PUSH1 0x0 DUP1 RETURN JUMPDEST PUSH1 0x40 MLOAD PUSH3 0x461BCD PUSH1 0xE5 SHL DUP2 MSTORE PUSH1 0x20 PUSH1 0x4 DUP3 ADD MSTORE PUSH1 0x10 PUSH1 0x24 DUP3 ADD MSTORE PUSH16 0x496E76616C6964207472656173757279 PUSH1 0x80 SHL PUSH1 0x44 DUP3 ADD MSTORE PUSH1 0x64 SWAP1 REVERT JUMPDEST CALLVALUE PUSH2 0x155 JUMPI PUSH1 0x0 CALLDATASIZE PUSH1 0x3 NOT ADD SLT PUSH2 0x155 JUMPI PUSH2 0xC72 PUSH2 0x136F JUMP JUMPDEST PUSH1 0x0 DUP1 SLOAD PUSH1 0x1 PUSH1 0x1 PUSH1 0xA0 SHL SUB NOT DUP2 AND DUP3 SSTORE PUSH1 0x1 PUSH1 0x1 PUSH1 0xA0 SHL SUB AND PUSH32 0x8BE0079C531659141344CD1FD0A4F28419497F9722A3DAAFE3B4186F6B6457E0 DUP3 DUP1 LOG3 STOP JUMPDEST CALLVALUE PUSH2 0x155 JUMPI PUSH1 0x40 CALLDATASIZE PUSH1 0x3 NOT ADD SLT PUSH2 0x155 JUMPI PUSH2 0xCCB PUSH2 0x11D3 JUMP JUMPDEST PUSH1 0x1 PUSH1 0x1 PUSH1 0xA0 SHL SUB AND PUSH1 0x0 SWAP1 DUP2 MSTORE PUSH1 0x5 PUSH1 0x20 MSTORE PUSH1 0x40 SWAP1 KECCAK256 DUP1 SLOAD PUSH1 0x24 CALLDATALOAD SWAP2 SWAP1 DUP3 LT ISZERO PUSH2 0x155 JUMPI PUSH1 0x20 SWAP2 PUSH2 0xCFC SWAP2 PUSH2 0x11E9 JUMP JUMPDEST SWAP1 SLOAD PUSH1 0x40 MLOAD SWAP2 PUSH1 0x3 SHL SHR DUP2 MSTORE RETURN JUMPDEST CALLVALUE PUSH2 0x155 JUMPI PUSH1 0x0 CALLDATASIZE PUSH1 0x3 NOT ADD SLT PUSH2 0x155 JUMPI PUSH1 0x20 PUSH1 0x7 SLOAD PUSH1 0x40 MLOAD SWAP1 DUP2 MSTORE RETURN JUMPDEST CALLVALUE PUSH2 0x155 JUMPI PUSH1 0x20 DUP1 PUSH1 0x3 NOT CALLDATASIZE ADD SLT PUSH2 0x155 JUMPI PUSH1 0x1 PUSH1 0x1 PUSH1 0xA0 SHL SUB PUSH2 0xD4A PUSH2 0x11D3 JUMP JUMPDEST AND PUSH1 0x0 MSTORE PUSH1 0x5 DUP2 MSTORE PUSH1 0x40 PUSH1 0x0 KECCAK256 PUSH1 0x40 MLOAD DUP1 DUP3 DUP5 DUP3 SWAP5 SLOAD SWAP4 DUP5 DUP2 MSTORE ADD SWAP1 PUSH1 0x0 MSTORE DUP5 PUSH1 0x0 KECCAK256 SWAP3 PUSH1 0x0 JUMPDEST DUP7 DUP3 DUP3 LT PUSH2 0xE1D JUMPI DUP5 PUSH2 0xD86 DUP2 DUP7 SUB DUP3 PUSH2 0x12A7 JUMP JUMPDEST DUP1 MLOAD PUSH2 0xD91 DUP2 PUSH2 0x13E7 JUMP JUMPDEST PUSH2 0xD9A DUP3 PUSH2 0x13E7 JUMP JUMPDEST SWAP2 PUSH1 0x0 JUMPDEST DUP2 DUP2 LT PUSH2 0xDE1 JUMPI PUSH2 0xDC6 DUP6 PUSH2 0x151 DUP7 PUSH2 0xDD3 DUP11 DUP9 PUSH1 0x40 MLOAD SWAP7 DUP8 SWAP7 PUSH1 0x60 DUP9 MSTORE PUSH1 0x60 DUP9 ADD SWAP1 PUSH2 0x115F JUMP JUMPDEST SWAP2 DUP7 DUP4 SUB SWAP1 DUP8 ADD MSTORE PUSH2 0x115F JUMP JUMPDEST SWAP1 DUP4 DUP3 SUB PUSH1 0x40 DUP6 ADD MSTORE PUSH2 0x115F JUMP JUMPDEST DUP1 PUSH1 0x40 PUSH2 0xDFD PUSH2 0xDF7 PUSH2 0x56A PUSH2 0xE18 SWAP6 DUP11 PUSH2 0x145E JUMP JUMPDEST POP PUSH2 0x1419 JUMP JUMPDEST DUP9 DUP2 ADD MLOAD PUSH2 0xE0B DUP5 DUP9 PUSH2 0x145E JUMP JUMPDEST MSTORE ADD MLOAD PUSH2 0x343 DUP3 DUP8 PUSH2 0x145E JUMP JUMPDEST PUSH2 0xD9E JUMP JUMPDEST DUP6 SLOAD DUP5 MSTORE PUSH1 0x1 SWAP6 DUP7 ADD SWAP6 DUP8 SWAP6 POP SWAP4 ADD SWAP3 ADD PUSH2 0xD71 JUMP JUMPDEST CALLVALUE PUSH2 0x155 JUMPI PUSH1 0x20 CALLDATASIZE PUSH1 0x3 NOT ADD SLT PUSH2 0x155 JUMPI PUSH1 0x1 PUSH1 0x1 PUSH1 0xA0 SHL SUB PUSH2 0xE54 PUSH2 0x11D3 JUMP JUMPDEST AND PUSH1 0x0 MSTORE PUSH1 0x4 PUSH1 0x20 MSTORE PUSH1 0x20 PUSH1 0x40 PUSH1 0x0 KECCAK256 SLOAD PUSH1 0x40 MLOAD SWAP1 DUP2 MSTORE RETURN JUMPDEST CALLVALUE PUSH2 0x155 JUMPI PUSH1 0x40 CALLDATASIZE PUSH1 0x3 NOT ADD SLT PUSH2 0x155 JUMPI PUSH2 0xE86 PUSH2 0x11D3 JUMP JUMPDEST PUSH2 0xE8E PUSH2 0x136F JUMP JUMPDEST PUSH1 0x1 PUSH1 0x1 PUSH1 0xA0 SHL SUB SWAP1 DUP2 AND PUSH32 0x0 DUP3 AND DUP2 EQ PUSH2 0xF20 JUMPI PUSH1 0x0 DUP1 SLOAD PUSH1 0x40 MLOAD PUSH4 0xA9059CBB PUSH1 0xE0 SHL DUP2 MSTORE SWAP4 AND PUSH1 0x1 PUSH1 0x1 PUSH1 0xA0 SHL SUB AND PUSH1 0x4 DUP5 ADD MSTORE PUSH1 0x24 DUP1 CALLDATALOAD SWAP1 DUP5 ADD MSTORE PUSH1 0x20 SWAP2 DUP4 SWAP2 DUP3 SWAP1 DUP2 PUSH1 0x44 DUP2 ADD SUB SWAP3 GAS CALL DUP1 ISZERO PUSH2 0x9EE JUMPI PUSH2 0xF07 JUMPI STOP JUMPDEST PUSH2 0xF1E SWAP1 PUSH1 0x20 RETURNDATASIZE DUP2 GT PUSH2 0x9E7 JUMPI PUSH2 0x9D9 DUP2 DUP4 PUSH2 0x12A7 JUMP JUMPDEST STOP JUMPDEST PUSH1 0x40 MLOAD PUSH3 0x461BCD PUSH1 0xE5 SHL DUP2 MSTORE PUSH1 0x20 PUSH1 0x4 DUP3 ADD MSTORE PUSH1 0x19 PUSH1 0x24 DUP3 ADD MSTORE PUSH32 0x43616E6E6F74207265636F76657220737461626C65636F696E00000000000000 PUSH1 0x44 DUP3 ADD MSTORE PUSH1 0x64 SWAP1 REVERT JUMPDEST CALLVALUE PUSH2 0x155 JUMPI PUSH1 0x20 DUP1 PUSH1 0x3 NOT CALLDATASIZE ADD SLT PUSH2 0x155 JUMPI PUSH1 0x3 SLOAD SWAP1 PUSH1 0x4 CALLDATALOAD DUP3 DUP2 GT ISZERO PUSH2 0x111A JUMPI POP SWAP1 DUP1 JUMPDEST PUSH2 0xF93 DUP2 PUSH2 0x13E7 JUMP JUMPDEST SWAP2 PUSH2 0xF9D DUP3 PUSH2 0x13E7 JUMP JUMPDEST PUSH2 0xFA6 DUP4 PUSH2 0x13E7 JUMP JUMPDEST SWAP1 PUSH2 0xFB0 DUP5 PUSH2 0x13CF JUMP JUMPDEST SWAP4 PUSH2 0xFBE PUSH1 0x40 MLOAD SWAP6 DUP7 PUSH2 0x12A7 JUMP JUMPDEST DUP1 DUP6 MSTORE PUSH1 0x1F NOT SWAP4 DUP5 PUSH2 0xFCF DUP4 PUSH2 0x13CF JUMP JUMPDEST ADD PUSH1 0x0 JUMPDEST DUP2 DUP2 LT PUSH2 0x110B JUMPI POP POP PUSH1 0x0 NOT DUP1 DUP3 ADD SWAP2 DUP1 DUP4 GT PUSH1 0x0 JUMPDEST DUP6 DUP2 LT PUSH2 0x108B JUMPI POP POP POP POP POP POP SWAP1 PUSH2 0x1020 PUSH2 0x102E SWAP3 PUSH2 0x1013 PUSH1 0x40 MLOAD SWAP8 PUSH1 0x80 DUP10 MSTORE PUSH1 0x80 DUP10 ADD SWAP1 PUSH2 0x1122 JUMP JUMPDEST SWAP1 DUP8 DUP3 SUB DUP10 DUP10 ADD MSTORE PUSH2 0x115F JUMP JUMPDEST SWAP1 DUP6 DUP3 SUB PUSH1 0x40 DUP8 ADD MSTORE PUSH2 0x115F JUMP JUMPDEST SWAP4 DUP4 DUP6 SUB PUSH1 0x60 DUP6 ADD MSTORE DUP3 MLOAD SWAP1 DUP2 DUP7 MSTORE DUP1 DUP7 ADD DUP2 DUP1 DUP5 PUSH1 0x5 SHL DUP10 ADD ADD SWAP6 ADD SWAP4 PUSH1 0x0 SWAP8 JUMPDEST DUP5 DUP10 LT PUSH2 0x105D JUMPI DUP8 DUP8 SUB DUP9 RETURN JUMPDEST SWAP1 SWAP2 SWAP3 SWAP4 SWAP5 SWAP6 DUP5 DUP1 PUSH2 0x1079 DUP4 DUP7 DUP7 PUSH1 0x1 SWAP7 SUB ADD DUP9 MSTORE DUP11 MLOAD PUSH2 0x1193 JUMP JUMPDEST SWAP9 ADD SWAP5 ADD SWAP9 ADD SWAP8 SWAP2 SWAP1 SWAP5 SWAP4 SWAP3 SWAP5 PUSH2 0x1050 JUMP JUMPDEST DUP2 SWAP12 SWAP9 SWAP12 PUSH2 0x57B JUMPI DUP4 DUP2 DUP5 SUB ADD SWAP1 DUP6 DUP3 GT PUSH2 0x57B JUMPI PUSH1 0x60 PUSH2 0x10B1 PUSH2 0xDF7 PUSH2 0x1103 SWAP5 PUSH2 0x1217 JUMP JUMPDEST DUP14 PUSH2 0x10C6 DUP5 PUSH1 0x1 DUP1 PUSH1 0xA0 SHL SUB DUP5 MLOAD AND SWAP3 PUSH2 0x145E JUMP JUMPDEST MSTORE DUP12 DUP2 ADD MLOAD PUSH2 0x10D5 DUP5 DUP13 PUSH2 0x145E JUMP JUMPDEST MSTORE PUSH1 0x40 DUP2 ADD MLOAD PUSH2 0x10E5 DUP5 DUP14 PUSH2 0x145E JUMP JUMPDEST MSTORE ADD MLOAD PUSH2 0x10F2 DUP3 DUP14 PUSH2 0x145E JUMP JUMPDEST MSTORE PUSH2 0x10FD DUP2 DUP13 PUSH2 0x145E JUMP JUMPDEST POP PUSH2 0x13B3 JUMP JUMPDEST SWAP11 SWAP8 SWAP11 PUSH2 0xFE9 JUMP JUMPDEST PUSH1 0x60 DUP9 DUP3 ADD DUP12 ADD MSTORE DUP10 ADD PUSH2 0xFD3 JUMP JUMPDEST SWAP2 SWAP1 SWAP2 PUSH2 0xF8A JUMP JUMPDEST SWAP1 DUP2 MLOAD DUP1 DUP3 MSTORE PUSH1 0x20 DUP1 DUP1 SWAP4 ADD SWAP4 ADD SWAP2 PUSH1 0x0 JUMPDEST DUP3 DUP2 LT PUSH2 0x1142 JUMPI POP POP POP POP SWAP1 JUMP JUMPDEST DUP4 MLOAD PUSH1 0x1 PUSH1 0x1 PUSH1 0xA0 SHL SUB AND DUP6 MSTORE SWAP4 DUP2 ADD SWAP4 SWAP3 DUP2 ADD SWAP3 PUSH1 0x1 ADD PUSH2 0x1134 JUMP JUMPDEST SWAP1 DUP2 MLOAD DUP1 DUP3 MSTORE PUSH1 0x20 DUP1 DUP1 SWAP4 ADD SWAP4 ADD SWAP2 PUSH1 0x0 JUMPDEST DUP3 DUP2 LT PUSH2 0x117F JUMPI POP POP POP POP SWAP1 JUMP JUMPDEST DUP4 MLOAD DUP6 MSTORE SWAP4 DUP2 ADD SWAP4 SWAP3 DUP2 ADD SWAP3 PUSH1 0x1 ADD PUSH2 0x1171 JUMP JUMPDEST SWAP2 SWAP1 DUP3 MLOAD SWAP3 DUP4 DUP3 MSTORE PUSH1 0x0 JUMPDEST DUP5 DUP2 LT PUSH2 0x11BF JUMPI POP POP DUP3 PUSH1 0x0 PUSH1 0x20 DUP1 SWAP5 SWAP6 DUP5 ADD ADD MSTORE PUSH1 0x1F DUP1 NOT SWAP2 ADD AND ADD ADD SWAP1 JUMP JUMPDEST PUSH1 0x20 DUP2 DUP4 ADD DUP2 ADD MLOAD DUP5 DUP4 ADD DUP3 ADD MSTORE ADD PUSH2 0x119E JUMP JUMPDEST PUSH1 0x4 CALLDATALOAD SWAP1 PUSH1 0x1 PUSH1 0x1 PUSH1 0xA0 SHL SUB DUP3 AND DUP3 SUB PUSH2 0x155 JUMPI JUMP JUMPDEST DUP1 SLOAD DUP3 LT ISZERO PUSH2 0x1201 JUMPI PUSH1 0x0 MSTORE PUSH1 0x20 PUSH1 0x0 KECCAK256 ADD SWAP1 PUSH1 0x0 SWAP1 JUMP JUMPDEST PUSH4 0x4E487B71 PUSH1 0xE0 SHL PUSH1 0x0 MSTORE PUSH1 0x32 PUSH1 0x4 MSTORE PUSH1 0x24 PUSH1 0x0 REVERT JUMPDEST PUSH1 0x3 SLOAD DUP2 LT ISZERO PUSH2 0x1201 JUMPI PUSH1 0x3 PUSH1 0x0 MSTORE PUSH1 0x2 SHL PUSH32 0xC2575A0E9E593C00F959F8C92F12DB2869C3395A3B0502D05E2516446F71F85B ADD SWAP1 PUSH1 0x0 SWAP1 JUMP JUMPDEST SWAP1 PUSH1 0x1 DUP3 DUP2 SHR SWAP3 AND DUP1 ISZERO PUSH2 0x1281 JUMPI JUMPDEST PUSH1 0x20 DUP4 LT EQ PUSH2 0x126B JUMPI JUMP JUMPDEST PUSH4 0x4E487B71 PUSH1 0xE0 SHL PUSH1 0x0 MSTORE PUSH1 0x22 PUSH1 0x4 MSTORE PUSH1 0x24 PUSH1 0x0 REVERT JUMPDEST SWAP2 PUSH1 0x7F AND SWAP2 PUSH2 0x1260 JUMP JUMPDEST PUSH1 0x80 DUP2 ADD SWAP1 DUP2 LT PUSH8 0xFFFFFFFFFFFFFFFF DUP3 GT OR PUSH2 0xA0D JUMPI PUSH1 0x40 MSTORE JUMP JUMPDEST SWAP1 PUSH1 0x1F DUP1 NOT SWAP2 ADD AND DUP2 ADD SWAP1 DUP2 LT PUSH8 0xFFFFFFFFFFFFFFFF DUP3 GT OR PUSH2 0xA0D JUMPI PUSH1 0x40 MSTORE JUMP JUMPDEST SWAP1 PUSH1 0x40 MLOAD SWAP2 DUP3 PUSH1 0x0 DUP3 SLOAD SWAP3 PUSH2 0x12DD DUP5 PUSH2 0x1251 JUMP JUMPDEST SWAP1 DUP2 DUP5 MSTORE PUSH1 0x1 SWAP5 DUP6 DUP2 AND SWAP1 DUP2 PUSH1 0x0 EQ PUSH2 0x134C JUMPI POP PUSH1 0x1 EQ PUSH2 0x1309 JUMPI JUMPDEST POP POP PUSH2 0x1307 SWAP3 POP SUB DUP4 PUSH2 0x12A7 JUMP JUMPDEST JUMP JUMPDEST SWAP1 SWAP4 SWAP2 POP PUSH1 0x0 MSTORE PUSH1 0x20 SWAP1 DUP2 PUSH1 0x0 KECCAK256 SWAP4 PUSH1 0x0 SWAP2 JUMPDEST DUP2 DUP4 LT PUSH2 0x1334 JUMPI POP POP PUSH2 0x1307 SWAP4 POP DUP3 ADD ADD CODESIZE DUP1 PUSH2 0x12F9 JUMP JUMPDEST DUP6 SLOAD DUP9 DUP5 ADD DUP6 ADD MSTORE SWAP5 DUP6 ADD SWAP5 DUP8 SWAP5 POP SWAP2 DUP4 ADD SWAP2 PUSH2 0x131C JUMP JUMPDEST SWAP2 POP POP PUSH2 0x1307 SWAP5 POP PUSH1 0x20 SWAP3 POP PUSH1 0xFF NOT AND DUP3 DUP5 ADD MSTORE ISZERO ISZERO PUSH1 0x5 SHL DUP3 ADD ADD CODESIZE DUP1 PUSH2 0x12F9 JUMP JUMPDEST PUSH1 0x0 SLOAD PUSH1 0x1 PUSH1 0x1 PUSH1 0xA0 SHL SUB AND CALLER SUB PUSH2 0x1383 JUMPI JUMP JUMPDEST PUSH1 0x40 MLOAD PUSH4 0x118CDAA7 PUSH1 0xE0 SHL DUP2 MSTORE CALLER PUSH1 0x4 DUP3 ADD MSTORE PUSH1 0x24 SWAP1 REVERT JUMPDEST SWAP1 DUP2 PUSH1 0x20 SWAP2 SUB SLT PUSH2 0x155 JUMPI MLOAD DUP1 ISZERO ISZERO DUP2 SUB PUSH2 0x155 JUMPI SWAP1 JUMP JUMPDEST PUSH1 0x0 NOT DUP2 EQ PUSH2 0x57B JUMPI PUSH1 0x1 ADD SWAP1 JUMP JUMPDEST SWAP2 SWAP1 DUP3 ADD DUP1 SWAP3 GT PUSH2 0x57B JUMPI JUMP JUMPDEST PUSH8 0xFFFFFFFFFFFFFFFF DUP2 GT PUSH2 0xA0D JUMPI PUSH1 0x5 SHL PUSH1 0x20 ADD SWAP1 JUMP JUMPDEST SWAP1 PUSH2 0x13F1 DUP3 PUSH2 0x13CF JUMP JUMPDEST PUSH2 0x13FE PUSH1 0x40 MLOAD SWAP2 DUP3 PUSH2 0x12A7 JUMP JUMPDEST DUP3 DUP2 MSTORE DUP1 SWAP3 PUSH2 0x140F PUSH1 0x1F NOT SWAP2 PUSH2 0x13CF JUMP JUMPDEST ADD SWAP1 PUSH1 0x20 CALLDATASIZE SWAP2 ADD CALLDATACOPY JUMP JUMPDEST SWAP1 PUSH1 0x40 MLOAD PUSH2 0x1426 DUP2 PUSH2 0x128B JUMP JUMPDEST DUP3 SLOAD PUSH1 0x1 PUSH1 0x1 PUSH1 0xA0 SHL SUB AND DUP2 MSTORE PUSH1 0x1 DUP4 ADD SLOAD PUSH1 0x20 DUP3 ADD MSTORE PUSH1 0x2 DUP4 ADD SLOAD PUSH1 0x40 DUP3 ADD MSTORE SWAP2 DUP3 SWAP1 PUSH1 0x60 SWAP1 PUSH2 0x1459 SWAP1 PUSH1 0x3 ADD PUSH2 0x12C9 JUMP JUMPDEST SWAP2 ADD MSTORE JUMP JUMPDEST DUP1 MLOAD DUP3 LT ISZERO PUSH2 0x1201 JUMPI PUSH1 0x20 SWAP2 PUSH1 0x5 SHL ADD ADD SWAP1 JUMP INVALID LOG2 PUSH5 0x6970667358 0x22 SLT KECCAK256 0xEF 0xE5 0xD1 0x2B 0xB7 DUP10 0x49 0x4F PUSH0 0xE5 0xE1 SWAP2 DUP6 0xBA CALLDATACOPY DIV 0xE9 EXTCODEHASH RETURNDATASIZE 0xD3 0xE1 SWAP1 0xCF LOG4 POP 0xDD 0xDD SLOAD 0xB2 0xB5 PUSH11 0xE564736F6C634300081400 CALLER "},"methodIdentifiers":{"donate(uint256,string)":"8d59d1f1","donations(uint256)":"f8626af8","donorDonations(address,uint256)":"4395e1bf","getDonorDonations(address)":"15a46406","getDonorInfo(address)":"c46a60a5","getRecentDonations(uint256)":"003062ca","getStats()":"c59d4847","getTopDonors(uint256)":"f5d1282b","owner()":"8da5cb5b","recoverTokens(address,uint256)":"069c9fae","renounceOwnership()":"715018a6","stablecoin()":"e9cbd822","totalDonated(address)":"0f3a1d47","totalDonors()":"25c302e4","totalReceived()":"a3c2c462","transferOwnership(address)":"f2fde38b","treasuryBTC()":"eb348f83","updateTreasury(address)":"7f51bb1f"}}}}}