{"contracts/NXLToken.sol":{"NXLToken":{"abi":[{"inputs":[{"internalType":"address","name":"_founderAddress","type":"address"},{"internalType":"address","name":"_partnerAddress","type":"address"}],"stateMutability":"nonpayable","type":"constructor"},{"inputs":[{"internalType":"address","name":"spender","type":"address"},{"internalType":"uint256","name":"allowance","type":"uint256"},{"internalType":"uint256","name":"needed","type":"uint256"}],"name":"ERC20InsufficientAllowance","type":"error"},{"inputs":[{"internalType":"address","name":"sender","type":"address"},{"internalType":"uint256","name":"balance","type":"uint256"},{"internalType":"uint256","name":"needed","type":"uint256"}],"name":"ERC20InsufficientBalance","type":"error"},{"inputs":[{"internalType":"address","name":"approver","type":"address"}],"name":"ERC20InvalidApprover","type":"error"},{"inputs":[{"internalType":"address","name":"receiver","type":"address"}],"name":"ERC20InvalidReceiver","type":"error"},{"inputs":[{"internalType":"address","name":"sender","type":"address"}],"name":"ERC20InvalidSender","type":"error"},{"inputs":[{"internalType":"address","name":"spender","type":"address"}],"name":"ERC20InvalidSpender","type":"error"},{"inputs":[{"internalType":"address","name":"owner","type":"address"}],"name":"OwnableInvalidOwner","type":"error"},{"inputs":[{"internalType":"address","name":"account","type":"address"}],"name":"OwnableUnauthorizedAccount","type":"error"},{"anonymous":false,"inputs":[{"indexed":true,"internalType":"address","name":"owner","type":"address"},{"indexed":true,"internalType":"address","name":"spender","type":"address"},{"indexed":false,"internalType":"uint256","name":"value","type":"uint256"}],"name":"Approval","type":"event"},{"anonymous":false,"inputs":[{"indexed":true,"internalType":"address","name":"manager","type":"address"}],"name":"NexumManagerSet","type":"event"},{"anonymous":false,"inputs":[{"indexed":true,"internalType":"address","name":"previousOwner","type":"address"},{"indexed":true,"internalType":"address","name":"newOwner","type":"address"}],"name":"OwnershipTransferred","type":"event"},{"anonymous":false,"inputs":[{"indexed":true,"internalType":"address","name":"recipient","type":"address"},{"indexed":false,"internalType":"uint256","name":"amount","type":"uint256"}],"name":"RewardDistributed","type":"event"},{"anonymous":false,"inputs":[{"indexed":false,"internalType":"uint256","name":"amount","type":"uint256"}],"name":"TokensBurned","type":"event"},{"anonymous":false,"inputs":[{"indexed":true,"internalType":"address","name":"from","type":"address"},{"indexed":true,"internalType":"address","name":"to","type":"address"},{"indexed":false,"internalType":"uint256","name":"value","type":"uint256"}],"name":"Transfer","type":"event"},{"anonymous":false,"inputs":[{"indexed":true,"internalType":"address","name":"beneficiary","type":"address"},{"indexed":false,"internalType":"uint256","name":"amount","type":"uint256"}],"name":"VestedTokensWithdrawn","type":"event"},{"inputs":[{"internalType":"address","name":"owner","type":"address"},{"internalType":"address","name":"spender","type":"address"}],"name":"allowance","outputs":[{"internalType":"uint256","name":"","type":"uint256"}],"stateMutability":"view","type":"function"},{"inputs":[{"internalType":"address","name":"spender","type":"address"},{"internalType":"uint256","name":"value","type":"uint256"}],"name":"approve","outputs":[{"internalType":"bool","name":"","type":"bool"}],"stateMutability":"nonpayable","type":"function"},{"inputs":[{"internalType":"address","name":"account","type":"address"}],"name":"balanceOf","outputs":[{"internalType":"uint256","name":"","type":"uint256"}],"stateMutability":"view","type":"function"},{"inputs":[{"internalType":"uint256","name":"amount","type":"uint256"}],"name":"burn","outputs":[],"stateMutability":"nonpayable","type":"function"},{"inputs":[{"internalType":"uint256","name":"amount","type":"uint256"}],"name":"burnUndistributed","outputs":[],"stateMutability":"nonpayable","type":"function"},{"inputs":[],"name":"decimals","outputs":[{"internalType":"uint8","name":"","type":"uint8"}],"stateMutability":"view","type":"function"},{"inputs":[],"name":"deploymentTime","outputs":[{"internalType":"uint256","name":"","type":"uint256"}],"stateMutability":"view","type":"function"},{"inputs":[{"internalType":"address","name":"recipient","type":"address"},{"internalType":"uint256","name":"amount","type":"uint256"}],"name":"distributeReward","outputs":[],"stateMutability":"nonpayable","type":"function"},{"inputs":[],"name":"founderAddress","outputs":[{"internalType":"address","name":"","type":"address"}],"stateMutability":"view","type":"function"},{"inputs":[],"name":"founderVestingEnd","outputs":[{"internalType":"uint256","name":"","type":"uint256"}],"stateMutability":"view","type":"function"},{"inputs":[],"name":"founderWithdraw","outputs":[],"stateMutability":"nonpayable","type":"function"},{"inputs":[],"name":"founderWithdrawn","outputs":[{"internalType":"uint256","name":"","type":"uint256"}],"stateMutability":"view","type":"function"},{"inputs":[],"name":"getAvailableRewards","outputs":[{"internalType":"uint256","name":"available","type":"uint256"}],"stateMutability":"view","type":"function"},{"inputs":[],"name":"getFounderAvailable","outputs":[{"internalType":"uint256","name":"available","type":"uint256"}],"stateMutability":"view","type":"function"},{"inputs":[],"name":"getPartnerAvailable","outputs":[{"internalType":"uint256","name":"available","type":"uint256"}],"stateMutability":"view","type":"function"},{"inputs":[],"name":"getTokenInfo","outputs":[{"internalType":"uint256","name":"totalSupply_","type":"uint256"},{"internalType":"uint256","name":"contractBalance","type":"uint256"},{"internalType":"uint256","name":"availableRewards","type":"uint256"},{"internalType":"uint256","name":"rewardsDistributed_","type":"uint256"},{"internalType":"uint256","name":"founderTotal","type":"uint256"},{"internalType":"uint256","name":"founderWithdrawn_","type":"uint256"},{"internalType":"uint256","name":"founderAvailable","type":"uint256"},{"internalType":"uint256","name":"partnerTotal","type":"uint256"},{"internalType":"uint256","name":"partnerWithdrawn_","type":"uint256"},{"internalType":"uint256","name":"partnerAvailable","type":"uint256"}],"stateMutability":"view","type":"function"},{"inputs":[],"name":"getVestingInfo","outputs":[{"internalType":"uint256","name":"founderTotal","type":"uint256"},{"internalType":"uint256","name":"founderWithdrawnAmount","type":"uint256"},{"internalType":"uint256","name":"founderAvailable","type":"uint256"},{"internalType":"uint256","name":"founderVestingEndTime","type":"uint256"},{"internalType":"uint256","name":"partnerTotal","type":"uint256"},{"internalType":"uint256","name":"partnerWithdrawnAmount","type":"uint256"},{"internalType":"uint256","name":"partnerAvailable","type":"uint256"},{"internalType":"uint256","name":"partnerVestingEndTime","type":"uint256"}],"stateMutability":"view","type":"function"},{"inputs":[],"name":"name","outputs":[{"internalType":"string","name":"","type":"string"}],"stateMutability":"view","type":"function"},{"inputs":[],"name":"nexumManager","outputs":[{"internalType":"address","name":"","type":"address"}],"stateMutability":"view","type":"function"},{"inputs":[],"name":"nexumManagerSet","outputs":[{"internalType":"bool","name":"","type":"bool"}],"stateMutability":"view","type":"function"},{"inputs":[],"name":"owner","outputs":[{"internalType":"address","name":"","type":"address"}],"stateMutability":"view","type":"function"},{"inputs":[],"name":"partnerAddress","outputs":[{"internalType":"address","name":"","type":"address"}],"stateMutability":"view","type":"function"},{"inputs":[],"name":"partnerVestingEnd","outputs":[{"internalType":"uint256","name":"","type":"uint256"}],"stateMutability":"view","type":"function"},{"inputs":[],"name":"partnerWithdraw","outputs":[],"stateMutability":"nonpayable","type":"function"},{"inputs":[],"name":"partnerWithdrawn","outputs":[{"internalType":"uint256","name":"","type":"uint256"}],"stateMutability":"view","type":"function"},{"inputs":[],"name":"renounceOwnership","outputs":[],"stateMutability":"nonpayable","type":"function"},{"inputs":[],"name":"rewardsDistributed","outputs":[{"internalType":"uint256","name":"","type":"uint256"}],"stateMutability":"view","type":"function"},{"inputs":[{"internalType":"address","name":"_nexumManager","type":"address"}],"name":"setNexumManager","outputs":[],"stateMutability":"nonpayable","type":"function"},{"inputs":[],"name":"symbol","outputs":[{"internalType":"string","name":"","type":"string"}],"stateMutability":"view","type":"function"},{"inputs":[],"name":"totalSupply","outputs":[{"internalType":"uint256","name":"","type":"uint256"}],"stateMutability":"view","type":"function"},{"inputs":[{"internalType":"address","name":"to","type":"address"},{"internalType":"uint256","name":"value","type":"uint256"}],"name":"transfer","outputs":[{"internalType":"bool","name":"","type":"bool"}],"stateMutability":"nonpayable","type":"function"},{"inputs":[{"internalType":"address","name":"from","type":"address"},{"internalType":"address","name":"to","type":"address"},{"internalType":"uint256","name":"value","type":"uint256"}],"name":"transferFrom","outputs":[{"internalType":"bool","name":"","type":"bool"}],"stateMutability":"nonpayable","type":"function"},{"inputs":[{"internalType":"address","name":"newOwner","type":"address"}],"name":"transferOwnership","outputs":[],"stateMutability":"nonpayable","type":"function"}],"evm":{"bytecode":{"linkReferences":{},"object":"610120346200057757620019fc601f6001600160401b03601f1938849003838101821686019083821187831017620004755780879160409788948552833981010312620005775762000051856200059c565b906200006160208097016200059c565b926200006c6200057c565b94600c86526b2722ac20a627902a37b5b2b760a11b888701526200008f6200057c565b956003918288526213961360ea1b8a8901528151848111620004755783546001938482811c921680156200056c575b8d83101462000556578c8285859411620004fd575b50508c908d8584116001146200049757506000926200048b575b505060001982861b1c191690831b1783555b8751938411620004755760049788548381811c911680156200046a575b8c821014620004555780838d921162000408575b50508a9185116001146200039f578495509084929160009562000393575b50501b92600019911b1c19161783555b33156200037c5760058054336001600160a01b03198216811790925585516001600160a01b0392909183167f8be0079c531659141344cd1fd0a4f28419497f9722a3daafe3b4186f6b6457e0600080a3818316156200033b5750821615620002f85760805260a0524260c0526303c267004201804211620002e35760e0526301e13380420192834211620002e3576101009384523015620002cc576002546a52b7d2dcc80cd2e400000092838201809211620002b757506000917fddf252ad1be2c89b69c2b068fc378daa952ba7f163c4a11628f55a4df523b3ef9160025530835282815284832084815401905584519384523093a35161144a9182620005b283396080518281816107f30152610aca015260a0518281816104bd0152610a86015260c05182818161027e0152818161122901526112b3015260e0518281816103330152610b7f01525181818161037301526109980152f35b601190634e487b7160e01b6000525260246000fd5b506000602492519163ec442f0560e01b8352820152fd5b601182634e487b7160e01b6000525260246000fd5b835162461bcd60e51b8152808401869052601760248201527f496e76616c696420706172746e657220616464726573730000000000000000006044820152606490fd5b62461bcd60e51b8152848101879052601760248201527f496e76616c696420666f756e64657220616464726573730000000000000000006044820152606490fd5b8351631e4fbdf760e01b8152600081850152602490fd5b0151935038806200014e565b92919484169288600052848b6000209460005b8d89838310620003f05750505010620003d5575b50505050811b0183556200015e565b01519060f884600019921b161c1916905538808080620003c6565b868601518955909701969485019488935001620003b2565b8a60005283826000209181890160051c83019389106200044b575b0160051c019084905b8281106200043e57508c915062000130565b600081550184906200042c565b9250819262000423565b60228a634e487b7160e01b6000525260246000fd5b90607f16906200011c565b634e487b7160e01b600052604160045260246000fd5b015190503880620000ed565b9190898795168860005283600020936000905b828210620004e35750508411620004ca575b505050811b018355620000ff565b015160001983881b60f8161c19169055388080620004bc565b8484015186558997909501949384019390810190620004aa565b909192508660005284826000209181860160051c83019386106200054c575b918791869594930160051c01915b8281106200053c57508e9150620000d3565b600081558594508791016200052a565b925081926200051c565b634e487b7160e01b600052602260045260246000fd5b91607f1691620000be565b600080fd5b60408051919082016001600160401b038111838210176200047557604052565b51906001600160a01b0382168203620005775756fe608060408181526004918236101561001657600080fd5b600092833560e01c91826306fdde0314610e8d57508163095ea7b314610de357816318160ddd14610dc45781631ec8bb8c14610cb257816323b872dd14610bbe578163313ce56714610ba257816336272d1e14610b675781633e24fb9814610b4857816342966c6814610af957816346bb283314610ab5578163576168fc14610a7157816357d020cf146109bb5781635e3705da146109805781636ec92ef51461096357816370a082311461092c578163715018a6146108cc5781638167593f146108a857816384f85951146107de57816389384b07146107bf5781638da5cb5b14610796578163925d7c441461069957816395d89b411461057a578163971362c9146104a85781639c1454d414610489578163a9059cbb14610458578163abb1dc44146103c2578163d66ee30d14610399578163dc25a300146102ea578163dd62ed3e146102a1578163ecda10f514610266578163f2fde38b146101d257508063f6f3f582146101b65763fc9c99ac1461019057600080fd5b346101b257816003193601126101b2576020906101ab61119a565b9051908152f35b5080fd5b50346101b257816003193601126101b2576020906101ab6112b1565b905034610262576020366003190112610262576101ed610fae565b906101f6610fdf565b6001600160a01b0391821692831561024c575050600554826bffffffffffffffffffffffff60a01b821617600555167f8be0079c531659141344cd1fd0a4f28419497f9722a3daafe3b4186f6b6457e08380a380f35b51631e4fbdf760e01b8152908101849052602490fd5b8280fd5b5050346101b257816003193601126101b257602090517f00000000000000000000000000000000000000000000000000000000000000008152f35b5050346101b257806003193601126101b257806020926102bf610fae565b6102c7610fc9565b6001600160a01b0391821683526001865283832091168252845220549051908152f35b5050346101b257816003193601126101b2576007546101009161030b611227565b600854906103176112b1565b928051946a027b46536c66c8e3000000865260208601528401527f0000000000000000000000000000000000000000000000000000000000000000606084015269d3c21bcecceda1000000608084015260a083015260c08201527f000000000000000000000000000000000000000000000000000000000000000060e0820152f35b5050346101b257816003193601126101b25760065490516001600160a01b039091168152602090f35b5050346101b257816003193601126101b25790816101409260025492308152806020522054906103f061119a565b600954600754906103ff611227565b926008549461040c6112b1565b968151988952602089015287015260608601526a027b46536c66c8e3000000608086015260a085015260c084015269d3c21bcecceda100000060e0840152610100830152610120820152f35b5050346101b257806003193601126101b257602090610482610478610fae565b602435903361100b565b5160018152f35b5050346101b257816003193601126101b2576020906009549051908152f35b919050346102625782600319360112610262577f00000000000000000000000000000000000000000000000000000000000000009060018060a01b0382169283330361054957507f3274398530b4fdab6be36c4e94e06a398b1cd05f753f49093441a08a89bde4df9160209161054161051f6112b1565b809361052c821515611333565b610538826008546110e9565b6008553061100b565b51908152a280f35b6020606492519162461bcd60e51b8352820152600c60248201526b27b7363c903830b93a3732b960a11b6044820152fd5b8383346101b257816003193601126101b257805190828454600181811c9080831692831561068f575b602093848410811461067c57838852908115610660575060011461060b575b505050829003601f01601f191682019267ffffffffffffffff8411838510176105f857508291826105f4925282610f65565b0390f35b634e487b7160e01b815260418552602490fd5b8787529192508591837f8a35acfbc15ff81a39ae7d344fd709f28e8600b4aa8c65c6b64bfe7fe36bd19b5b83851061064c57505050508301018580806105c2565b805488860183015293019284908201610636565b60ff1916878501525050151560051b84010190508580806105c2565b634e487b7160e01b895260228a52602489fd5b91607f16916105a3565b905034610262576020366003190112610262576106b4610fae565b906106bd610fdf565b600a549160ff8316610753576001600160a01b031692831561071e575050600680546001600160a01b0319168317905560ff1916600117600a557f1f93eb4af9964a0fbf3c59e4668618db26f4f90ff336d62addeb24270471eb708280a280f35b906020606492519162461bcd60e51b8352820152600f60248201526e496e76616c6964206164647265737360881b6044820152fd5b835162461bcd60e51b8152602081840152601860248201527f4e6578756d4d616e6167657220616c72656164792073657400000000000000006044820152606490fd5b5050346101b257816003193601126101b25760055490516001600160a01b039091168152602090f35b5050346101b257816003193601126101b2576020906008549051908152f35b919050346102625782600319360112610262577f00000000000000000000000000000000000000000000000000000000000000009060018060a01b0382169283330361087757507f3274398530b4fdab6be36c4e94e06a398b1cd05f753f49093441a08a89bde4df91602091610541610855611227565b8093610862821515611333565b61086e826007546110e9565b6007553061100b565b6020606492519162461bcd60e51b8352820152600c60248201526b27b7363c903337bab73232b960a11b6044820152fd5b5050346101b257816003193601126101b25760209060ff600a541690519015158152f35b83346109295780600319360112610929576108e5610fdf565b600580546001600160a01b0319811690915581906001600160a01b03167f8be0079c531659141344cd1fd0a4f28419497f9722a3daafe3b4186f6b6457e08280a380f35b80fd5b5050346101b25760203660031901126101b25760209181906001600160a01b03610954610fae565b16815280845220549051908152f35b5050346101b257816003193601126101b2576020906101ab611227565b5050346101b257816003193601126101b257602090517f00000000000000000000000000000000000000000000000000000000000000008152f35b91905034610262576020366003190112610262578135916109e760018060a01b0360065416331461110c565b6109f283151561114c565b826109fb61119a565b10610a38575081602091610a307f6ef4855b666dcc7884561072e4358b28dfe01feb1b7f4dcebc00e62d50394ac79430611375565b51908152a180f35b6020606492519162461bcd60e51b83528201526014602482015273496e73756666696369656e742062616c616e636560601b6044820152fd5b5050346101b257816003193601126101b257517f00000000000000000000000000000000000000000000000000000000000000006001600160a01b03168152602090f35b5050346101b257816003193601126101b257517f00000000000000000000000000000000000000000000000000000000000000006001600160a01b03168152602090f35b905034610262576020366003190112610262577f6ef4855b666dcc7884561072e4358b28dfe01feb1b7f4dcebc00e62d50394ac7916020913590610b3e82151561114c565b610a308233611375565b5050346101b257816003193601126101b2576020906007549051908152f35b5050346101b257816003193601126101b257602090517f00000000000000000000000000000000000000000000000000000000000000008152f35b5050346101b257816003193601126101b2576020905160128152f35b9050823461092957606036600319011261092957610bda610fae565b610be2610fc9565b916044359360018060a01b038316808352600160205286832033845260205286832054916000198310610c1e575b60208861048289898961100b565b868310610c86578115610c6f573315610c585750825260016020908152868320338452815291869020908590039055829061048287610c10565b8751634a1406b160e11b8152908101849052602490fd5b875163e602df0560e01b8152908101849052602490fd5b8751637dc7a0d960e11b8152339181019182526020820193909352604081018790528291506060010390fd5b91905034610262578060031936011261026257610ccd610fae565b906024359160018060a01b03610ce88160065416331461110c565b8116938415610d8d57610cfc84151561114c565b83610d0561119a565b10610d4a575091602091610541827fe34918ff1c7084970068b53fd71ad6d8b04e9f15d3886cbf006443e6cdc52ea695610d41826009546110e9565b6009553061100b565b606490602084519162461bcd60e51b8352820152601e60248201527f496e73756666696369656e74207265776172647320617661696c61626c6500006044820152fd5b606490602084519162461bcd60e51b83528201526011602482015270125b9d985b1a59081c9958da5c1a595b9d607a1b6044820152fd5b5050346101b257816003193601126101b2576020906002549051908152f35b905034610262578160031936011261026257610dfd610fae565b602435903315610e76576001600160a01b0316918215610e5f57508083602095338152600187528181208582528752205582519081527f8c5be1e5ebec7d5bd14f71427d1e84f3dd0314c0f7b2291e5b200ac8c7c3b925843392a35160018152f35b8351634a1406b160e11b8152908101859052602490fd5b835163e602df0560e01b8152808401869052602490fd5b8490843461026257826003193601126102625782600354600181811c90808316928315610f5b575b602093848410811461067c578388529081156106605750600114610f0557505050829003601f01601f191682019267ffffffffffffffff8411838510176105f857508291826105f4925282610f65565b600387529192508591837fc2575a0e9e593c00f959f8c92f12db2869c3395a3b0502d05e2516446f71f85b5b838510610f4757505050508301018580806105c2565b805488860183015293019284908201610f31565b91607f1691610eb5565b6020808252825181830181905290939260005b828110610f9a57505060409293506000838284010152601f8019910116010190565b818101860151848201604001528501610f78565b600435906001600160a01b0382168203610fc457565b600080fd5b602435906001600160a01b0382168203610fc457565b6005546001600160a01b03163303610ff357565b60405163118cdaa760e01b8152336004820152602490fd5b916001600160a01b038084169283156110d057169283156110b75760009083825281602052604082205490838210611085575091604082827fddf252ad1be2c89b69c2b068fc378daa952ba7f163c4a11628f55a4df523b3ef958760209652828652038282205586815220818154019055604051908152a3565b60405163391434e360e21b81526001600160a01b03919091166004820152602481019190915260448101839052606490fd5b60405163ec442f0560e01b815260006004820152602490fd5b604051634b637e8f60e11b815260006004820152602490fd5b919082018092116110f657565b634e487b7160e01b600052601160045260246000fd5b1561111357565b60405162461bcd60e51b815260206004820152601160248201527027b7363c902732bc3ab6a6b0b730b3b2b960791b6044820152606490fd5b1561115357565b60405162461bcd60e51b81526020600482015260126024820152710416d6f756e74206d757374206265203e20360741b6044820152606490fd5b919082039182116110f657565b60003081528060205260408120546007546a027b46536c66c8e3000000908103908111611213576008549069d3c21bcecceda10000009182039182116111ff57906111e4916110e9565b90818111156111fa576111f7925061118d565b90565b505090565b634e487b7160e01b84526011600452602484fd5b634e487b7160e01b83526011600452602483fd5b7f00000000000000000000000000000000000000000000000000000000000000008042106112ab57611259904261118d565b600091906303c267009081811061128757505090506111f76a027b46536c66c8e30000005b6007549061118d565b6a027b46536c66c8e300000090808202918204036111ff576111f79293500461127e565b50600090565b7f00000000000000000000000000000000000000000000000000000000000000008042106112ab576112e3904261118d565b600091906301e133809081811061131057505090506111f769d3c21bcecceda10000005b6008549061118d565b69d3c21bcecceda100000090808202918204036111ff576111f792935004611307565b1561133a57565b60405162461bcd60e51b81526020600482015260136024820152724e6f20746f6b656e7320617661696c61626c6560681b6044820152606490fd5b906001600160a01b0382169081156110d057600092828452836020526040842054908282106113e25750817fddf252ad1be2c89b69c2b068fc378daa952ba7f163c4a11628f55a4df523b3ef926020928587528684520360408620558060025403600255604051908152a3565b60405163391434e360e21b81526001600160a01b03919091166004820152602481019190915260448101829052606490fdfea26469706673582212200cc6ed29eeb71f47c3929a4ec3b2cbd1fe03591f71deafd37626fc04753e96cd64736f6c63430008140033","opcodes":"PUSH2 0x120 CALLVALUE PUSH3 0x577 JUMPI PUSH3 0x19FC PUSH1 0x1F PUSH1 0x1 PUSH1 0x1 PUSH1 0x40 SHL SUB PUSH1 0x1F NOT CODESIZE DUP5 SWAP1 SUB DUP4 DUP2 ADD DUP3 AND DUP7 ADD SWAP1 DUP4 DUP3 GT DUP8 DUP4 LT OR PUSH3 0x475 JUMPI DUP1 DUP8 SWAP2 PUSH1 0x40 SWAP8 DUP9 SWAP5 DUP6 MSTORE DUP4 CODECOPY DUP2 ADD SUB SLT PUSH3 0x577 JUMPI PUSH3 0x51 DUP6 PUSH3 0x59C JUMP JUMPDEST SWAP1 PUSH3 0x61 PUSH1 0x20 DUP1 SWAP8 ADD PUSH3 0x59C JUMP JUMPDEST SWAP3 PUSH3 0x6C PUSH3 0x57C JUMP JUMPDEST SWAP5 PUSH1 0xC DUP7 MSTORE PUSH12 0x2722AC20A627902A37B5B2B7 PUSH1 0xA1 SHL DUP9 DUP8 ADD MSTORE PUSH3 0x8F PUSH3 0x57C JUMP JUMPDEST SWAP6 PUSH1 0x3 SWAP2 DUP3 DUP9 MSTORE PUSH3 0x139613 PUSH1 0xEA SHL DUP11 DUP10 ADD MSTORE DUP2 MLOAD DUP5 DUP2 GT PUSH3 0x475 JUMPI DUP4 SLOAD PUSH1 0x1 SWAP4 DUP5 DUP3 DUP2 SHR SWAP3 AND DUP1 ISZERO PUSH3 0x56C JUMPI JUMPDEST DUP14 DUP4 LT EQ PUSH3 0x556 JUMPI DUP13 DUP3 DUP6 DUP6 SWAP5 GT PUSH3 0x4FD JUMPI JUMPDEST POP POP DUP13 SWAP1 DUP14 DUP6 DUP5 GT PUSH1 0x1 EQ PUSH3 0x497 JUMPI POP PUSH1 0x0 SWAP3 PUSH3 0x48B JUMPI JUMPDEST POP POP PUSH1 0x0 NOT DUP3 DUP7 SHL SHR NOT AND SWAP1 DUP4 SHL OR DUP4 SSTORE JUMPDEST DUP8 MLOAD SWAP4 DUP5 GT PUSH3 0x475 JUMPI PUSH1 0x4 SWAP8 DUP9 SLOAD DUP4 DUP2 DUP2 SHR SWAP2 AND DUP1 ISZERO PUSH3 0x46A JUMPI JUMPDEST DUP13 DUP3 LT EQ PUSH3 0x455 JUMPI DUP1 DUP4 DUP14 SWAP3 GT PUSH3 0x408 JUMPI JUMPDEST POP POP DUP11 SWAP2 DUP6 GT PUSH1 0x1 EQ PUSH3 0x39F JUMPI DUP5 SWAP6 POP SWAP1 DUP5 SWAP3 SWAP2 PUSH1 0x0 SWAP6 PUSH3 0x393 JUMPI JUMPDEST POP POP SHL SWAP3 PUSH1 0x0 NOT SWAP2 SHL SHR NOT AND OR DUP4 SSTORE JUMPDEST CALLER ISZERO PUSH3 0x37C JUMPI PUSH1 0x5 DUP1 SLOAD CALLER PUSH1 0x1 PUSH1 0x1 PUSH1 0xA0 SHL SUB NOT DUP3 AND DUP2 OR SWAP1 SWAP3 SSTORE DUP6 MLOAD PUSH1 0x1 PUSH1 0x1 PUSH1 0xA0 SHL SUB SWAP3 SWAP1 SWAP2 DUP4 AND PUSH32 0x8BE0079C531659141344CD1FD0A4F28419497F9722A3DAAFE3B4186F6B6457E0 PUSH1 0x0 DUP1 LOG3 DUP2 DUP4 AND ISZERO PUSH3 0x33B JUMPI POP DUP3 AND ISZERO PUSH3 0x2F8 JUMPI PUSH1 0x80 MSTORE PUSH1 0xA0 MSTORE TIMESTAMP PUSH1 0xC0 MSTORE PUSH4 0x3C26700 TIMESTAMP ADD DUP1 TIMESTAMP GT PUSH3 0x2E3 JUMPI PUSH1 0xE0 MSTORE PUSH4 0x1E13380 TIMESTAMP ADD SWAP3 DUP4 TIMESTAMP GT PUSH3 0x2E3 JUMPI PUSH2 0x100 SWAP4 DUP5 MSTORE ADDRESS ISZERO PUSH3 0x2CC JUMPI PUSH1 0x2 SLOAD PUSH11 0x52B7D2DCC80CD2E4000000 SWAP3 DUP4 DUP3 ADD DUP1 SWAP3 GT PUSH3 0x2B7 JUMPI POP PUSH1 0x0 SWAP2 PUSH32 0xDDF252AD1BE2C89B69C2B068FC378DAA952BA7F163C4A11628F55A4DF523B3EF SWAP2 PUSH1 0x2 SSTORE ADDRESS DUP4 MSTORE DUP3 DUP2 MSTORE DUP5 DUP4 KECCAK256 DUP5 DUP2 SLOAD ADD SWAP1 SSTORE DUP5 MLOAD SWAP4 DUP5 MSTORE ADDRESS SWAP4 LOG3 MLOAD PUSH2 0x144A SWAP2 DUP3 PUSH3 0x5B2 DUP4 CODECOPY PUSH1 0x80 MLOAD DUP3 DUP2 DUP2 PUSH2 0x7F3 ADD MSTORE PUSH2 0xACA ADD MSTORE PUSH1 0xA0 MLOAD DUP3 DUP2 DUP2 PUSH2 0x4BD ADD MSTORE PUSH2 0xA86 ADD MSTORE PUSH1 0xC0 MLOAD DUP3 DUP2 DUP2 PUSH2 0x27E ADD MSTORE DUP2 DUP2 PUSH2 0x1229 ADD MSTORE PUSH2 0x12B3 ADD MSTORE PUSH1 0xE0 MLOAD DUP3 DUP2 DUP2 PUSH2 0x333 ADD MSTORE PUSH2 0xB7F ADD MSTORE MLOAD DUP2 DUP2 DUP2 PUSH2 0x373 ADD MSTORE PUSH2 0x998 ADD MSTORE RETURN JUMPDEST PUSH1 0x11 SWAP1 PUSH4 0x4E487B71 PUSH1 0xE0 SHL PUSH1 0x0 MSTORE MSTORE PUSH1 0x24 PUSH1 0x0 REVERT JUMPDEST POP PUSH1 0x0 PUSH1 0x24 SWAP3 MLOAD SWAP2 PUSH4 0xEC442F05 PUSH1 0xE0 SHL DUP4 MSTORE DUP3 ADD MSTORE REVERT JUMPDEST PUSH1 0x11 DUP3 PUSH4 0x4E487B71 PUSH1 0xE0 SHL PUSH1 0x0 MSTORE MSTORE PUSH1 0x24 PUSH1 0x0 REVERT JUMPDEST DUP4 MLOAD PUSH3 0x461BCD PUSH1 0xE5 SHL DUP2 MSTORE DUP1 DUP5 ADD DUP7 SWAP1 MSTORE PUSH1 0x17 PUSH1 0x24 DUP3 ADD MSTORE PUSH32 0x496E76616C696420706172746E65722061646472657373000000000000000000 PUSH1 0x44 DUP3 ADD MSTORE PUSH1 0x64 SWAP1 REVERT JUMPDEST PUSH3 0x461BCD PUSH1 0xE5 SHL DUP2 MSTORE DUP5 DUP2 ADD DUP8 SWAP1 MSTORE PUSH1 0x17 PUSH1 0x24 DUP3 ADD MSTORE PUSH32 0x496E76616C696420666F756E6465722061646472657373000000000000000000 PUSH1 0x44 DUP3 ADD MSTORE PUSH1 0x64 SWAP1 REVERT JUMPDEST DUP4 MLOAD PUSH4 0x1E4FBDF7 PUSH1 0xE0 SHL DUP2 MSTORE PUSH1 0x0 DUP2 DUP6 ADD MSTORE PUSH1 0x24 SWAP1 REVERT JUMPDEST ADD MLOAD SWAP4 POP CODESIZE DUP1 PUSH3 0x14E JUMP JUMPDEST SWAP3 SWAP2 SWAP5 DUP5 AND SWAP3 DUP9 PUSH1 0x0 MSTORE DUP5 DUP12 PUSH1 0x0 KECCAK256 SWAP5 PUSH1 0x0 JUMPDEST DUP14 DUP10 DUP4 DUP4 LT PUSH3 0x3F0 JUMPI POP POP POP LT PUSH3 0x3D5 JUMPI JUMPDEST POP POP POP POP DUP2 SHL ADD DUP4 SSTORE PUSH3 0x15E JUMP JUMPDEST ADD MLOAD SWAP1 PUSH1 0xF8 DUP5 PUSH1 0x0 NOT SWAP3 SHL AND SHR NOT AND SWAP1 SSTORE CODESIZE DUP1 DUP1 DUP1 PUSH3 0x3C6 JUMP JUMPDEST DUP7 DUP7 ADD MLOAD DUP10 SSTORE SWAP1 SWAP8 ADD SWAP7 SWAP5 DUP6 ADD SWAP5 DUP9 SWAP4 POP ADD PUSH3 0x3B2 JUMP JUMPDEST DUP11 PUSH1 0x0 MSTORE DUP4 DUP3 PUSH1 0x0 KECCAK256 SWAP2 DUP2 DUP10 ADD PUSH1 0x5 SHR DUP4 ADD SWAP4 DUP10 LT PUSH3 0x44B JUMPI JUMPDEST ADD PUSH1 0x5 SHR ADD SWAP1 DUP5 SWAP1 JUMPDEST DUP3 DUP2 LT PUSH3 0x43E JUMPI POP DUP13 SWAP2 POP PUSH3 0x130 JUMP JUMPDEST PUSH1 0x0 DUP2 SSTORE ADD DUP5 SWAP1 PUSH3 0x42C JUMP JUMPDEST SWAP3 POP DUP2 SWAP3 PUSH3 0x423 JUMP JUMPDEST PUSH1 0x22 DUP11 PUSH4 0x4E487B71 PUSH1 0xE0 SHL PUSH1 0x0 MSTORE MSTORE PUSH1 0x24 PUSH1 0x0 REVERT JUMPDEST SWAP1 PUSH1 0x7F AND SWAP1 PUSH3 0x11C JUMP JUMPDEST PUSH4 0x4E487B71 PUSH1 0xE0 SHL PUSH1 0x0 MSTORE PUSH1 0x41 PUSH1 0x4 MSTORE PUSH1 0x24 PUSH1 0x0 REVERT JUMPDEST ADD MLOAD SWAP1 POP CODESIZE DUP1 PUSH3 0xED JUMP JUMPDEST SWAP2 SWAP1 DUP10 DUP8 SWAP6 AND DUP9 PUSH1 0x0 MSTORE DUP4 PUSH1 0x0 KECCAK256 SWAP4 PUSH1 0x0 SWAP1 JUMPDEST DUP3 DUP3 LT PUSH3 0x4E3 JUMPI POP POP DUP5 GT PUSH3 0x4CA JUMPI JUMPDEST POP POP POP DUP2 SHL ADD DUP4 SSTORE PUSH3 0xFF JUMP JUMPDEST ADD MLOAD PUSH1 0x0 NOT DUP4 DUP9 SHL PUSH1 0xF8 AND SHR NOT AND SWAP1 SSTORE CODESIZE DUP1 DUP1 PUSH3 0x4BC JUMP JUMPDEST DUP5 DUP5 ADD MLOAD DUP7 SSTORE DUP10 SWAP8 SWAP1 SWAP6 ADD SWAP5 SWAP4 DUP5 ADD SWAP4 SWAP1 DUP2 ADD SWAP1 PUSH3 0x4AA JUMP JUMPDEST SWAP1 SWAP2 SWAP3 POP DUP7 PUSH1 0x0 MSTORE DUP5 DUP3 PUSH1 0x0 KECCAK256 SWAP2 DUP2 DUP7 ADD PUSH1 0x5 SHR DUP4 ADD SWAP4 DUP7 LT PUSH3 0x54C JUMPI JUMPDEST SWAP2 DUP8 SWAP2 DUP7 SWAP6 SWAP5 SWAP4 ADD PUSH1 0x5 SHR ADD SWAP2 JUMPDEST DUP3 DUP2 LT PUSH3 0x53C JUMPI POP DUP15 SWAP2 POP PUSH3 0xD3 JUMP JUMPDEST PUSH1 0x0 DUP2 SSTORE DUP6 SWAP5 POP DUP8 SWAP2 ADD PUSH3 0x52A JUMP JUMPDEST SWAP3 POP DUP2 SWAP3 PUSH3 0x51C JUMP JUMPDEST PUSH4 0x4E487B71 PUSH1 0xE0 SHL PUSH1 0x0 MSTORE PUSH1 0x22 PUSH1 0x4 MSTORE PUSH1 0x24 PUSH1 0x0 REVERT JUMPDEST SWAP2 PUSH1 0x7F AND SWAP2 PUSH3 0xBE JUMP JUMPDEST PUSH1 0x0 DUP1 REVERT JUMPDEST PUSH1 0x40 DUP1 MLOAD SWAP2 SWAP1 DUP3 ADD PUSH1 0x1 PUSH1 0x1 PUSH1 0x40 SHL SUB DUP2 GT DUP4 DUP3 LT OR PUSH3 0x475 JUMPI PUSH1 0x40 MSTORE JUMP JUMPDEST MLOAD SWAP1 PUSH1 0x1 PUSH1 0x1 PUSH1 0xA0 SHL SUB DUP3 AND DUP3 SUB PUSH3 0x577 JUMPI JUMP INVALID PUSH1 0x80 PUSH1 0x40 DUP2 DUP2 MSTORE PUSH1 0x4 SWAP2 DUP3 CALLDATASIZE LT ISZERO PUSH2 0x16 JUMPI PUSH1 0x0 DUP1 REVERT JUMPDEST PUSH1 0x0 SWAP3 DUP4 CALLDATALOAD PUSH1 0xE0 SHR SWAP2 DUP3 PUSH4 0x6FDDE03 EQ PUSH2 0xE8D JUMPI POP DUP2 PUSH4 0x95EA7B3 EQ PUSH2 0xDE3 JUMPI DUP2 PUSH4 0x18160DDD EQ PUSH2 0xDC4 JUMPI DUP2 PUSH4 0x1EC8BB8C EQ PUSH2 0xCB2 JUMPI DUP2 PUSH4 0x23B872DD EQ PUSH2 0xBBE JUMPI DUP2 PUSH4 0x313CE567 EQ PUSH2 0xBA2 JUMPI DUP2 PUSH4 0x36272D1E EQ PUSH2 0xB67 JUMPI DUP2 PUSH4 0x3E24FB98 EQ PUSH2 0xB48 JUMPI DUP2 PUSH4 0x42966C68 EQ PUSH2 0xAF9 JUMPI DUP2 PUSH4 0x46BB2833 EQ PUSH2 0xAB5 JUMPI DUP2 PUSH4 0x576168FC EQ PUSH2 0xA71 JUMPI DUP2 PUSH4 0x57D020CF EQ PUSH2 0x9BB JUMPI DUP2 PUSH4 0x5E3705DA EQ PUSH2 0x980 JUMPI DUP2 PUSH4 0x6EC92EF5 EQ PUSH2 0x963 JUMPI DUP2 PUSH4 0x70A08231 EQ PUSH2 0x92C JUMPI DUP2 PUSH4 0x715018A6 EQ PUSH2 0x8CC JUMPI DUP2 PUSH4 0x8167593F EQ PUSH2 0x8A8 JUMPI DUP2 PUSH4 0x84F85951 EQ PUSH2 0x7DE JUMPI DUP2 PUSH4 0x89384B07 EQ PUSH2 0x7BF JUMPI DUP2 PUSH4 0x8DA5CB5B EQ PUSH2 0x796 JUMPI DUP2 PUSH4 0x925D7C44 EQ PUSH2 0x699 JUMPI DUP2 PUSH4 0x95D89B41 EQ PUSH2 0x57A JUMPI DUP2 PUSH4 0x971362C9 EQ PUSH2 0x4A8 JUMPI DUP2 PUSH4 0x9C1454D4 EQ PUSH2 0x489 JUMPI DUP2 PUSH4 0xA9059CBB EQ PUSH2 0x458 JUMPI DUP2 PUSH4 0xABB1DC44 EQ PUSH2 0x3C2 JUMPI DUP2 PUSH4 0xD66EE30D EQ PUSH2 0x399 JUMPI DUP2 PUSH4 0xDC25A300 EQ PUSH2 0x2EA JUMPI DUP2 PUSH4 0xDD62ED3E EQ PUSH2 0x2A1 JUMPI DUP2 PUSH4 0xECDA10F5 EQ PUSH2 0x266 JUMPI DUP2 PUSH4 0xF2FDE38B EQ PUSH2 0x1D2 JUMPI POP DUP1 PUSH4 0xF6F3F582 EQ PUSH2 0x1B6 JUMPI PUSH4 0xFC9C99AC EQ PUSH2 0x190 JUMPI PUSH1 0x0 DUP1 REVERT JUMPDEST CALLVALUE PUSH2 0x1B2 JUMPI DUP2 PUSH1 0x3 NOT CALLDATASIZE ADD SLT PUSH2 0x1B2 JUMPI PUSH1 0x20 SWAP1 PUSH2 0x1AB PUSH2 0x119A JUMP JUMPDEST SWAP1 MLOAD SWAP1 DUP2 MSTORE RETURN JUMPDEST POP DUP1 REVERT JUMPDEST POP CALLVALUE PUSH2 0x1B2 JUMPI DUP2 PUSH1 0x3 NOT CALLDATASIZE ADD SLT PUSH2 0x1B2 JUMPI PUSH1 0x20 SWAP1 PUSH2 0x1AB PUSH2 0x12B1 JUMP JUMPDEST SWAP1 POP CALLVALUE PUSH2 0x262 JUMPI PUSH1 0x20 CALLDATASIZE PUSH1 0x3 NOT ADD SLT PUSH2 0x262 JUMPI PUSH2 0x1ED PUSH2 0xFAE JUMP JUMPDEST SWAP1 PUSH2 0x1F6 PUSH2 0xFDF JUMP JUMPDEST PUSH1 0x1 PUSH1 0x1 PUSH1 0xA0 SHL SUB SWAP2 DUP3 AND SWAP3 DUP4 ISZERO PUSH2 0x24C JUMPI POP POP PUSH1 0x5 SLOAD DUP3 PUSH12 0xFFFFFFFFFFFFFFFFFFFFFFFF PUSH1 0xA0 SHL DUP3 AND OR PUSH1 0x5 SSTORE AND PUSH32 0x8BE0079C531659141344CD1FD0A4F28419497F9722A3DAAFE3B4186F6B6457E0 DUP4 DUP1 LOG3 DUP1 RETURN JUMPDEST MLOAD PUSH4 0x1E4FBDF7 PUSH1 0xE0 SHL DUP2 MSTORE SWAP1 DUP2 ADD DUP5 SWAP1 MSTORE PUSH1 0x24 SWAP1 REVERT JUMPDEST DUP3 DUP1 REVERT JUMPDEST POP POP CALLVALUE PUSH2 0x1B2 JUMPI DUP2 PUSH1 0x3 NOT CALLDATASIZE ADD SLT PUSH2 0x1B2 JUMPI PUSH1 0x20 SWAP1 MLOAD PUSH32 0x0 DUP2 MSTORE RETURN JUMPDEST POP POP CALLVALUE PUSH2 0x1B2 JUMPI DUP1 PUSH1 0x3 NOT CALLDATASIZE ADD SLT PUSH2 0x1B2 JUMPI DUP1 PUSH1 0x20 SWAP3 PUSH2 0x2BF PUSH2 0xFAE JUMP JUMPDEST PUSH2 0x2C7 PUSH2 0xFC9 JUMP JUMPDEST PUSH1 0x1 PUSH1 0x1 PUSH1 0xA0 SHL SUB SWAP2 DUP3 AND DUP4 MSTORE PUSH1 0x1 DUP7 MSTORE DUP4 DUP4 KECCAK256 SWAP2 AND DUP3 MSTORE DUP5 MSTORE KECCAK256 SLOAD SWAP1 MLOAD SWAP1 DUP2 MSTORE RETURN JUMPDEST POP POP CALLVALUE PUSH2 0x1B2 JUMPI DUP2 PUSH1 0x3 NOT CALLDATASIZE ADD SLT PUSH2 0x1B2 JUMPI PUSH1 0x7 SLOAD PUSH2 0x100 SWAP2 PUSH2 0x30B PUSH2 0x1227 JUMP JUMPDEST PUSH1 0x8 SLOAD SWAP1 PUSH2 0x317 PUSH2 0x12B1 JUMP JUMPDEST SWAP3 DUP1 MLOAD SWAP5 PUSH11 0x27B46536C66C8E3000000 DUP7 MSTORE PUSH1 0x20 DUP7 ADD MSTORE DUP5 ADD MSTORE PUSH32 0x0 PUSH1 0x60 DUP5 ADD MSTORE PUSH10 0xD3C21BCECCEDA1000000 PUSH1 0x80 DUP5 ADD MSTORE PUSH1 0xA0 DUP4 ADD MSTORE PUSH1 0xC0 DUP3 ADD MSTORE PUSH32 0x0 PUSH1 0xE0 DUP3 ADD MSTORE RETURN JUMPDEST POP POP CALLVALUE PUSH2 0x1B2 JUMPI DUP2 PUSH1 0x3 NOT CALLDATASIZE ADD SLT PUSH2 0x1B2 JUMPI PUSH1 0x6 SLOAD SWAP1 MLOAD PUSH1 0x1 PUSH1 0x1 PUSH1 0xA0 SHL SUB SWAP1 SWAP2 AND DUP2 MSTORE PUSH1 0x20 SWAP1 RETURN JUMPDEST POP POP CALLVALUE PUSH2 0x1B2 JUMPI DUP2 PUSH1 0x3 NOT CALLDATASIZE ADD SLT PUSH2 0x1B2 JUMPI SWAP1 DUP2 PUSH2 0x140 SWAP3 PUSH1 0x2 SLOAD SWAP3 ADDRESS DUP2 MSTORE DUP1 PUSH1 0x20 MSTORE KECCAK256 SLOAD SWAP1 PUSH2 0x3F0 PUSH2 0x119A JUMP JUMPDEST PUSH1 0x9 SLOAD PUSH1 0x7 SLOAD SWAP1 PUSH2 0x3FF PUSH2 0x1227 JUMP JUMPDEST SWAP3 PUSH1 0x8 SLOAD SWAP5 PUSH2 0x40C PUSH2 0x12B1 JUMP JUMPDEST SWAP7 DUP2 MLOAD SWAP9 DUP10 MSTORE PUSH1 0x20 DUP10 ADD MSTORE DUP8 ADD MSTORE PUSH1 0x60 DUP7 ADD MSTORE PUSH11 0x27B46536C66C8E3000000 PUSH1 0x80 DUP7 ADD MSTORE PUSH1 0xA0 DUP6 ADD MSTORE PUSH1 0xC0 DUP5 ADD MSTORE PUSH10 0xD3C21BCECCEDA1000000 PUSH1 0xE0 DUP5 ADD MSTORE PUSH2 0x100 DUP4 ADD MSTORE PUSH2 0x120 DUP3 ADD MSTORE RETURN JUMPDEST POP POP CALLVALUE PUSH2 0x1B2 JUMPI DUP1 PUSH1 0x3 NOT CALLDATASIZE ADD SLT PUSH2 0x1B2 JUMPI PUSH1 0x20 SWAP1 PUSH2 0x482 PUSH2 0x478 PUSH2 0xFAE JUMP JUMPDEST PUSH1 0x24 CALLDATALOAD SWAP1 CALLER PUSH2 0x100B JUMP JUMPDEST MLOAD PUSH1 0x1 DUP2 MSTORE RETURN JUMPDEST POP POP CALLVALUE PUSH2 0x1B2 JUMPI DUP2 PUSH1 0x3 NOT CALLDATASIZE ADD SLT PUSH2 0x1B2 JUMPI PUSH1 0x20 SWAP1 PUSH1 0x9 SLOAD SWAP1 MLOAD SWAP1 DUP2 MSTORE RETURN JUMPDEST SWAP2 SWAP1 POP CALLVALUE PUSH2 0x262 JUMPI DUP3 PUSH1 0x3 NOT CALLDATASIZE ADD SLT PUSH2 0x262 JUMPI PUSH32 0x0 SWAP1 PUSH1 0x1 DUP1 PUSH1 0xA0 SHL SUB DUP3 AND SWAP3 DUP4 CALLER SUB PUSH2 0x549 JUMPI POP PUSH32 0x3274398530B4FDAB6BE36C4E94E06A398B1CD05F753F49093441A08A89BDE4DF SWAP2 PUSH1 0x20 SWAP2 PUSH2 0x541 PUSH2 0x51F PUSH2 0x12B1 JUMP JUMPDEST DUP1 SWAP4 PUSH2 0x52C DUP3 ISZERO ISZERO PUSH2 0x1333 JUMP JUMPDEST PUSH2 0x538 DUP3 PUSH1 0x8 SLOAD PUSH2 0x10E9 JUMP JUMPDEST PUSH1 0x8 SSTORE ADDRESS PUSH2 0x100B JUMP JUMPDEST MLOAD SWAP1 DUP2 MSTORE LOG2 DUP1 RETURN JUMPDEST PUSH1 0x20 PUSH1 0x64 SWAP3 MLOAD SWAP2 PUSH3 0x461BCD PUSH1 0xE5 SHL DUP4 MSTORE DUP3 ADD MSTORE PUSH1 0xC PUSH1 0x24 DUP3 ADD MSTORE PUSH12 0x27B7363C903830B93A3732B9 PUSH1 0xA1 SHL PUSH1 0x44 DUP3 ADD MSTORE REVERT JUMPDEST DUP4 DUP4 CALLVALUE PUSH2 0x1B2 JUMPI DUP2 PUSH1 0x3 NOT CALLDATASIZE ADD SLT PUSH2 0x1B2 JUMPI DUP1 MLOAD SWAP1 DUP3 DUP5 SLOAD PUSH1 0x1 DUP2 DUP2 SHR SWAP1 DUP1 DUP4 AND SWAP3 DUP4 ISZERO PUSH2 0x68F JUMPI JUMPDEST PUSH1 0x20 SWAP4 DUP5 DUP5 LT DUP2 EQ PUSH2 0x67C JUMPI DUP4 DUP9 MSTORE SWAP1 DUP2 ISZERO PUSH2 0x660 JUMPI POP PUSH1 0x1 EQ PUSH2 0x60B JUMPI JUMPDEST POP POP POP DUP3 SWAP1 SUB PUSH1 0x1F ADD PUSH1 0x1F NOT AND DUP3 ADD SWAP3 PUSH8 0xFFFFFFFFFFFFFFFF DUP5 GT DUP4 DUP6 LT OR PUSH2 0x5F8 JUMPI POP DUP3 SWAP2 DUP3 PUSH2 0x5F4 SWAP3 MSTORE DUP3 PUSH2 0xF65 JUMP JUMPDEST SUB SWAP1 RETURN JUMPDEST PUSH4 0x4E487B71 PUSH1 0xE0 SHL DUP2 MSTORE PUSH1 0x41 DUP6 MSTORE PUSH1 0x24 SWAP1 REVERT JUMPDEST DUP8 DUP8 MSTORE SWAP2 SWAP3 POP DUP6 SWAP2 DUP4 PUSH32 0x8A35ACFBC15FF81A39AE7D344FD709F28E8600B4AA8C65C6B64BFE7FE36BD19B JUMPDEST DUP4 DUP6 LT PUSH2 0x64C JUMPI POP POP POP POP DUP4 ADD ADD DUP6 DUP1 DUP1 PUSH2 0x5C2 JUMP JUMPDEST DUP1 SLOAD DUP9 DUP7 ADD DUP4 ADD MSTORE SWAP4 ADD SWAP3 DUP5 SWAP1 DUP3 ADD PUSH2 0x636 JUMP JUMPDEST PUSH1 0xFF NOT AND DUP8 DUP6 ADD MSTORE POP POP ISZERO ISZERO PUSH1 0x5 SHL DUP5 ADD ADD SWAP1 POP DUP6 DUP1 DUP1 PUSH2 0x5C2 JUMP JUMPDEST PUSH4 0x4E487B71 PUSH1 0xE0 SHL DUP10 MSTORE PUSH1 0x22 DUP11 MSTORE PUSH1 0x24 DUP10 REVERT JUMPDEST SWAP2 PUSH1 0x7F AND SWAP2 PUSH2 0x5A3 JUMP JUMPDEST SWAP1 POP CALLVALUE PUSH2 0x262 JUMPI PUSH1 0x20 CALLDATASIZE PUSH1 0x3 NOT ADD SLT PUSH2 0x262 JUMPI PUSH2 0x6B4 PUSH2 0xFAE JUMP JUMPDEST SWAP1 PUSH2 0x6BD PUSH2 0xFDF JUMP JUMPDEST PUSH1 0xA SLOAD SWAP2 PUSH1 0xFF DUP4 AND PUSH2 0x753 JUMPI PUSH1 0x1 PUSH1 0x1 PUSH1 0xA0 SHL SUB AND SWAP3 DUP4 ISZERO PUSH2 0x71E JUMPI POP POP PUSH1 0x6 DUP1 SLOAD PUSH1 0x1 PUSH1 0x1 PUSH1 0xA0 SHL SUB NOT AND DUP4 OR SWAP1 SSTORE PUSH1 0xFF NOT AND PUSH1 0x1 OR PUSH1 0xA SSTORE PUSH32 0x1F93EB4AF9964A0FBF3C59E4668618DB26F4F90FF336D62ADDEB24270471EB70 DUP3 DUP1 LOG2 DUP1 RETURN JUMPDEST SWAP1 PUSH1 0x20 PUSH1 0x64 SWAP3 MLOAD SWAP2 PUSH3 0x461BCD PUSH1 0xE5 SHL DUP4 MSTORE DUP3 ADD MSTORE PUSH1 0xF PUSH1 0x24 DUP3 ADD MSTORE PUSH15 0x496E76616C69642061646472657373 PUSH1 0x88 SHL PUSH1 0x44 DUP3 ADD MSTORE REVERT JUMPDEST DUP4 MLOAD PUSH3 0x461BCD PUSH1 0xE5 SHL DUP2 MSTORE PUSH1 0x20 DUP2 DUP5 ADD MSTORE PUSH1 0x18 PUSH1 0x24 DUP3 ADD MSTORE PUSH32 0x4E6578756D4D616E6167657220616C7265616479207365740000000000000000 PUSH1 0x44 DUP3 ADD MSTORE PUSH1 0x64 SWAP1 REVERT JUMPDEST POP POP CALLVALUE PUSH2 0x1B2 JUMPI DUP2 PUSH1 0x3 NOT CALLDATASIZE ADD SLT PUSH2 0x1B2 JUMPI PUSH1 0x5 SLOAD SWAP1 MLOAD PUSH1 0x1 PUSH1 0x1 PUSH1 0xA0 SHL SUB SWAP1 SWAP2 AND DUP2 MSTORE PUSH1 0x20 SWAP1 RETURN JUMPDEST POP POP CALLVALUE PUSH2 0x1B2 JUMPI DUP2 PUSH1 0x3 NOT CALLDATASIZE ADD SLT PUSH2 0x1B2 JUMPI PUSH1 0x20 SWAP1 PUSH1 0x8 SLOAD SWAP1 MLOAD SWAP1 DUP2 MSTORE RETURN JUMPDEST SWAP2 SWAP1 POP CALLVALUE PUSH2 0x262 JUMPI DUP3 PUSH1 0x3 NOT CALLDATASIZE ADD SLT PUSH2 0x262 JUMPI PUSH32 0x0 SWAP1 PUSH1 0x1 DUP1 PUSH1 0xA0 SHL SUB DUP3 AND SWAP3 DUP4 CALLER SUB PUSH2 0x877 JUMPI POP PUSH32 0x3274398530B4FDAB6BE36C4E94E06A398B1CD05F753F49093441A08A89BDE4DF SWAP2 PUSH1 0x20 SWAP2 PUSH2 0x541 PUSH2 0x855 PUSH2 0x1227 JUMP JUMPDEST DUP1 SWAP4 PUSH2 0x862 DUP3 ISZERO ISZERO PUSH2 0x1333 JUMP JUMPDEST PUSH2 0x86E DUP3 PUSH1 0x7 SLOAD PUSH2 0x10E9 JUMP JUMPDEST PUSH1 0x7 SSTORE ADDRESS PUSH2 0x100B JUMP JUMPDEST PUSH1 0x20 PUSH1 0x64 SWAP3 MLOAD SWAP2 PUSH3 0x461BCD PUSH1 0xE5 SHL DUP4 MSTORE DUP3 ADD MSTORE PUSH1 0xC PUSH1 0x24 DUP3 ADD MSTORE PUSH12 0x27B7363C903337BAB73232B9 PUSH1 0xA1 SHL PUSH1 0x44 DUP3 ADD MSTORE REVERT JUMPDEST POP POP CALLVALUE PUSH2 0x1B2 JUMPI DUP2 PUSH1 0x3 NOT CALLDATASIZE ADD SLT PUSH2 0x1B2 JUMPI PUSH1 0x20 SWAP1 PUSH1 0xFF PUSH1 0xA SLOAD AND SWAP1 MLOAD SWAP1 ISZERO ISZERO DUP2 MSTORE RETURN JUMPDEST DUP4 CALLVALUE PUSH2 0x929 JUMPI DUP1 PUSH1 0x3 NOT CALLDATASIZE ADD SLT PUSH2 0x929 JUMPI PUSH2 0x8E5 PUSH2 0xFDF JUMP JUMPDEST PUSH1 0x5 DUP1 SLOAD PUSH1 0x1 PUSH1 0x1 PUSH1 0xA0 SHL SUB NOT DUP2 AND SWAP1 SWAP2 SSTORE DUP2 SWAP1 PUSH1 0x1 PUSH1 0x1 PUSH1 0xA0 SHL SUB AND PUSH32 0x8BE0079C531659141344CD1FD0A4F28419497F9722A3DAAFE3B4186F6B6457E0 DUP3 DUP1 LOG3 DUP1 RETURN JUMPDEST DUP1 REVERT JUMPDEST POP POP CALLVALUE PUSH2 0x1B2 JUMPI PUSH1 0x20 CALLDATASIZE PUSH1 0x3 NOT ADD SLT PUSH2 0x1B2 JUMPI PUSH1 0x20 SWAP2 DUP2 SWAP1 PUSH1 0x1 PUSH1 0x1 PUSH1 0xA0 SHL SUB PUSH2 0x954 PUSH2 0xFAE JUMP JUMPDEST AND DUP2 MSTORE DUP1 DUP5 MSTORE KECCAK256 SLOAD SWAP1 MLOAD SWAP1 DUP2 MSTORE RETURN JUMPDEST POP POP CALLVALUE PUSH2 0x1B2 JUMPI DUP2 PUSH1 0x3 NOT CALLDATASIZE ADD SLT PUSH2 0x1B2 JUMPI PUSH1 0x20 SWAP1 PUSH2 0x1AB PUSH2 0x1227 JUMP JUMPDEST POP POP CALLVALUE PUSH2 0x1B2 JUMPI DUP2 PUSH1 0x3 NOT CALLDATASIZE ADD SLT PUSH2 0x1B2 JUMPI PUSH1 0x20 SWAP1 MLOAD PUSH32 0x0 DUP2 MSTORE RETURN JUMPDEST SWAP2 SWAP1 POP CALLVALUE PUSH2 0x262 JUMPI PUSH1 0x20 CALLDATASIZE PUSH1 0x3 NOT ADD SLT PUSH2 0x262 JUMPI DUP2 CALLDATALOAD SWAP2 PUSH2 0x9E7 PUSH1 0x1 DUP1 PUSH1 0xA0 SHL SUB PUSH1 0x6 SLOAD AND CALLER EQ PUSH2 0x110C JUMP JUMPDEST PUSH2 0x9F2 DUP4 ISZERO ISZERO PUSH2 0x114C JUMP JUMPDEST DUP3 PUSH2 0x9FB PUSH2 0x119A JUMP JUMPDEST LT PUSH2 0xA38 JUMPI POP DUP2 PUSH1 0x20 SWAP2 PUSH2 0xA30 PUSH32 0x6EF4855B666DCC7884561072E4358B28DFE01FEB1B7F4DCEBC00E62D50394AC7 SWAP5 ADDRESS PUSH2 0x1375 JUMP JUMPDEST MLOAD SWAP1 DUP2 MSTORE LOG1 DUP1 RETURN JUMPDEST PUSH1 0x20 PUSH1 0x64 SWAP3 MLOAD SWAP2 PUSH3 0x461BCD PUSH1 0xE5 SHL DUP4 MSTORE DUP3 ADD MSTORE PUSH1 0x14 PUSH1 0x24 DUP3 ADD MSTORE PUSH20 0x496E73756666696369656E742062616C616E6365 PUSH1 0x60 SHL PUSH1 0x44 DUP3 ADD MSTORE REVERT JUMPDEST POP POP CALLVALUE PUSH2 0x1B2 JUMPI DUP2 PUSH1 0x3 NOT CALLDATASIZE ADD SLT PUSH2 0x1B2 JUMPI MLOAD PUSH32 0x0 PUSH1 0x1 PUSH1 0x1 PUSH1 0xA0 SHL SUB AND DUP2 MSTORE PUSH1 0x20 SWAP1 RETURN JUMPDEST POP POP CALLVALUE PUSH2 0x1B2 JUMPI DUP2 PUSH1 0x3 NOT CALLDATASIZE ADD SLT PUSH2 0x1B2 JUMPI MLOAD PUSH32 0x0 PUSH1 0x1 PUSH1 0x1 PUSH1 0xA0 SHL SUB AND DUP2 MSTORE PUSH1 0x20 SWAP1 RETURN JUMPDEST SWAP1 POP CALLVALUE PUSH2 0x262 JUMPI PUSH1 0x20 CALLDATASIZE PUSH1 0x3 NOT ADD SLT PUSH2 0x262 JUMPI PUSH32 0x6EF4855B666DCC7884561072E4358B28DFE01FEB1B7F4DCEBC00E62D50394AC7 SWAP2 PUSH1 0x20 SWAP2 CALLDATALOAD SWAP1 PUSH2 0xB3E DUP3 ISZERO ISZERO PUSH2 0x114C JUMP JUMPDEST PUSH2 0xA30 DUP3 CALLER PUSH2 0x1375 JUMP JUMPDEST POP POP CALLVALUE PUSH2 0x1B2 JUMPI DUP2 PUSH1 0x3 NOT CALLDATASIZE ADD SLT PUSH2 0x1B2 JUMPI PUSH1 0x20 SWAP1 PUSH1 0x7 SLOAD SWAP1 MLOAD SWAP1 DUP2 MSTORE RETURN JUMPDEST POP POP CALLVALUE PUSH2 0x1B2 JUMPI DUP2 PUSH1 0x3 NOT CALLDATASIZE ADD SLT PUSH2 0x1B2 JUMPI PUSH1 0x20 SWAP1 MLOAD PUSH32 0x0 DUP2 MSTORE RETURN JUMPDEST POP POP CALLVALUE PUSH2 0x1B2 JUMPI DUP2 PUSH1 0x3 NOT CALLDATASIZE ADD SLT PUSH2 0x1B2 JUMPI PUSH1 0x20 SWAP1 MLOAD PUSH1 0x12 DUP2 MSTORE RETURN JUMPDEST SWAP1 POP DUP3 CALLVALUE PUSH2 0x929 JUMPI PUSH1 0x60 CALLDATASIZE PUSH1 0x3 NOT ADD SLT PUSH2 0x929 JUMPI PUSH2 0xBDA PUSH2 0xFAE JUMP JUMPDEST PUSH2 0xBE2 PUSH2 0xFC9 JUMP JUMPDEST SWAP2 PUSH1 0x44 CALLDATALOAD SWAP4 PUSH1 0x1 DUP1 PUSH1 0xA0 SHL SUB DUP4 AND DUP1 DUP4 MSTORE PUSH1 0x1 PUSH1 0x20 MSTORE DUP7 DUP4 KECCAK256 CALLER DUP5 MSTORE PUSH1 0x20 MSTORE DUP7 DUP4 KECCAK256 SLOAD SWAP2 PUSH1 0x0 NOT DUP4 LT PUSH2 0xC1E JUMPI JUMPDEST PUSH1 0x20 DUP9 PUSH2 0x482 DUP10 DUP10 DUP10 PUSH2 0x100B JUMP JUMPDEST DUP7 DUP4 LT PUSH2 0xC86 JUMPI DUP2 ISZERO PUSH2 0xC6F JUMPI CALLER ISZERO PUSH2 0xC58 JUMPI POP DUP3 MSTORE PUSH1 0x1 PUSH1 0x20 SWAP1 DUP2 MSTORE DUP7 DUP4 KECCAK256 CALLER DUP5 MSTORE DUP2 MSTORE SWAP2 DUP7 SWAP1 KECCAK256 SWAP1 DUP6 SWAP1 SUB SWAP1 SSTORE DUP3 SWAP1 PUSH2 0x482 DUP8 PUSH2 0xC10 JUMP JUMPDEST DUP8 MLOAD PUSH4 0x4A1406B1 PUSH1 0xE1 SHL DUP2 MSTORE SWAP1 DUP2 ADD DUP5 SWAP1 MSTORE PUSH1 0x24 SWAP1 REVERT JUMPDEST DUP8 MLOAD PUSH4 0xE602DF05 PUSH1 0xE0 SHL DUP2 MSTORE SWAP1 DUP2 ADD DUP5 SWAP1 MSTORE PUSH1 0x24 SWAP1 REVERT JUMPDEST DUP8 MLOAD PUSH4 0x7DC7A0D9 PUSH1 0xE1 SHL DUP2 MSTORE CALLER SWAP2 DUP2 ADD SWAP2 DUP3 MSTORE PUSH1 0x20 DUP3 ADD SWAP4 SWAP1 SWAP4 MSTORE PUSH1 0x40 DUP2 ADD DUP8 SWAP1 MSTORE DUP3 SWAP2 POP PUSH1 0x60 ADD SUB SWAP1 REVERT JUMPDEST SWAP2 SWAP1 POP CALLVALUE PUSH2 0x262 JUMPI DUP1 PUSH1 0x3 NOT CALLDATASIZE ADD SLT PUSH2 0x262 JUMPI PUSH2 0xCCD PUSH2 0xFAE JUMP JUMPDEST SWAP1 PUSH1 0x24 CALLDATALOAD SWAP2 PUSH1 0x1 DUP1 PUSH1 0xA0 SHL SUB PUSH2 0xCE8 DUP2 PUSH1 0x6 SLOAD AND CALLER EQ PUSH2 0x110C JUMP JUMPDEST DUP2 AND SWAP4 DUP5 ISZERO PUSH2 0xD8D JUMPI PUSH2 0xCFC DUP5 ISZERO ISZERO PUSH2 0x114C JUMP JUMPDEST DUP4 PUSH2 0xD05 PUSH2 0x119A JUMP JUMPDEST LT PUSH2 0xD4A JUMPI POP SWAP2 PUSH1 0x20 SWAP2 PUSH2 0x541 DUP3 PUSH32 0xE34918FF1C7084970068B53FD71AD6D8B04E9F15D3886CBF006443E6CDC52EA6 SWAP6 PUSH2 0xD41 DUP3 PUSH1 0x9 SLOAD PUSH2 0x10E9 JUMP JUMPDEST PUSH1 0x9 SSTORE ADDRESS PUSH2 0x100B JUMP JUMPDEST PUSH1 0x64 SWAP1 PUSH1 0x20 DUP5 MLOAD SWAP2 PUSH3 0x461BCD PUSH1 0xE5 SHL DUP4 MSTORE DUP3 ADD MSTORE PUSH1 0x1E PUSH1 0x24 DUP3 ADD MSTORE PUSH32 0x496E73756666696369656E74207265776172647320617661696C61626C650000 PUSH1 0x44 DUP3 ADD MSTORE REVERT JUMPDEST PUSH1 0x64 SWAP1 PUSH1 0x20 DUP5 MLOAD SWAP2 PUSH3 0x461BCD PUSH1 0xE5 SHL DUP4 MSTORE DUP3 ADD MSTORE PUSH1 0x11 PUSH1 0x24 DUP3 ADD MSTORE PUSH17 0x125B9D985B1A59081C9958DA5C1A595B9D PUSH1 0x7A SHL PUSH1 0x44 DUP3 ADD MSTORE REVERT JUMPDEST POP POP CALLVALUE PUSH2 0x1B2 JUMPI DUP2 PUSH1 0x3 NOT CALLDATASIZE ADD SLT PUSH2 0x1B2 JUMPI PUSH1 0x20 SWAP1 PUSH1 0x2 SLOAD SWAP1 MLOAD SWAP1 DUP2 MSTORE RETURN JUMPDEST SWAP1 POP CALLVALUE PUSH2 0x262 JUMPI DUP2 PUSH1 0x3 NOT CALLDATASIZE ADD SLT PUSH2 0x262 JUMPI PUSH2 0xDFD PUSH2 0xFAE JUMP JUMPDEST PUSH1 0x24 CALLDATALOAD SWAP1 CALLER ISZERO PUSH2 0xE76 JUMPI PUSH1 0x1 PUSH1 0x1 PUSH1 0xA0 SHL SUB AND SWAP2 DUP3 ISZERO PUSH2 0xE5F JUMPI POP DUP1 DUP4 PUSH1 0x20 SWAP6 CALLER DUP2 MSTORE PUSH1 0x1 DUP8 MSTORE DUP2 DUP2 KECCAK256 DUP6 DUP3 MSTORE DUP8 MSTORE KECCAK256 SSTORE DUP3 MLOAD SWAP1 DUP2 MSTORE PUSH32 0x8C5BE1E5EBEC7D5BD14F71427D1E84F3DD0314C0F7B2291E5B200AC8C7C3B925 DUP5 CALLER SWAP3 LOG3 MLOAD PUSH1 0x1 DUP2 MSTORE RETURN JUMPDEST DUP4 MLOAD PUSH4 0x4A1406B1 PUSH1 0xE1 SHL DUP2 MSTORE SWAP1 DUP2 ADD DUP6 SWAP1 MSTORE PUSH1 0x24 SWAP1 REVERT JUMPDEST DUP4 MLOAD PUSH4 0xE602DF05 PUSH1 0xE0 SHL DUP2 MSTORE DUP1 DUP5 ADD DUP7 SWAP1 MSTORE PUSH1 0x24 SWAP1 REVERT JUMPDEST DUP5 SWAP1 DUP5 CALLVALUE PUSH2 0x262 JUMPI DUP3 PUSH1 0x3 NOT CALLDATASIZE ADD SLT PUSH2 0x262 JUMPI DUP3 PUSH1 0x3 SLOAD PUSH1 0x1 DUP2 DUP2 SHR SWAP1 DUP1 DUP4 AND SWAP3 DUP4 ISZERO PUSH2 0xF5B JUMPI JUMPDEST PUSH1 0x20 SWAP4 DUP5 DUP5 LT DUP2 EQ PUSH2 0x67C JUMPI DUP4 DUP9 MSTORE SWAP1 DUP2 ISZERO PUSH2 0x660 JUMPI POP PUSH1 0x1 EQ PUSH2 0xF05 JUMPI POP POP POP DUP3 SWAP1 SUB PUSH1 0x1F ADD PUSH1 0x1F NOT AND DUP3 ADD SWAP3 PUSH8 0xFFFFFFFFFFFFFFFF DUP5 GT DUP4 DUP6 LT OR PUSH2 0x5F8 JUMPI POP DUP3 SWAP2 DUP3 PUSH2 0x5F4 SWAP3 MSTORE DUP3 PUSH2 0xF65 JUMP JUMPDEST PUSH1 0x3 DUP8 MSTORE SWAP2 SWAP3 POP DUP6 SWAP2 DUP4 PUSH32 0xC2575A0E9E593C00F959F8C92F12DB2869C3395A3B0502D05E2516446F71F85B JUMPDEST DUP4 DUP6 LT PUSH2 0xF47 JUMPI POP POP POP POP DUP4 ADD ADD DUP6 DUP1 DUP1 PUSH2 0x5C2 JUMP JUMPDEST DUP1 SLOAD DUP9 DUP7 ADD DUP4 ADD MSTORE SWAP4 ADD SWAP3 DUP5 SWAP1 DUP3 ADD PUSH2 0xF31 JUMP JUMPDEST SWAP2 PUSH1 0x7F AND SWAP2 PUSH2 0xEB5 JUMP JUMPDEST PUSH1 0x20 DUP1 DUP3 MSTORE DUP3 MLOAD DUP2 DUP4 ADD DUP2 SWAP1 MSTORE SWAP1 SWAP4 SWAP3 PUSH1 0x0 JUMPDEST DUP3 DUP2 LT PUSH2 0xF9A JUMPI POP POP PUSH1 0x40 SWAP3 SWAP4 POP PUSH1 0x0 DUP4 DUP3 DUP5 ADD ADD MSTORE PUSH1 0x1F DUP1 NOT SWAP2 ADD AND ADD ADD SWAP1 JUMP JUMPDEST DUP2 DUP2 ADD DUP7 ADD MLOAD DUP5 DUP3 ADD PUSH1 0x40 ADD MSTORE DUP6 ADD PUSH2 0xF78 JUMP JUMPDEST PUSH1 0x4 CALLDATALOAD SWAP1 PUSH1 0x1 PUSH1 0x1 PUSH1 0xA0 SHL SUB DUP3 AND DUP3 SUB PUSH2 0xFC4 JUMPI JUMP JUMPDEST PUSH1 0x0 DUP1 REVERT JUMPDEST PUSH1 0x24 CALLDATALOAD SWAP1 PUSH1 0x1 PUSH1 0x1 PUSH1 0xA0 SHL SUB DUP3 AND DUP3 SUB PUSH2 0xFC4 JUMPI JUMP JUMPDEST PUSH1 0x5 SLOAD PUSH1 0x1 PUSH1 0x1 PUSH1 0xA0 SHL SUB AND CALLER SUB PUSH2 0xFF3 JUMPI JUMP JUMPDEST PUSH1 0x40 MLOAD PUSH4 0x118CDAA7 PUSH1 0xE0 SHL DUP2 MSTORE CALLER PUSH1 0x4 DUP3 ADD MSTORE PUSH1 0x24 SWAP1 REVERT JUMPDEST SWAP2 PUSH1 0x1 PUSH1 0x1 PUSH1 0xA0 SHL SUB DUP1 DUP5 AND SWAP3 DUP4 ISZERO PUSH2 0x10D0 JUMPI AND SWAP3 DUP4 ISZERO PUSH2 0x10B7 JUMPI PUSH1 0x0 SWAP1 DUP4 DUP3 MSTORE DUP2 PUSH1 0x20 MSTORE PUSH1 0x40 DUP3 KECCAK256 SLOAD SWAP1 DUP4 DUP3 LT PUSH2 0x1085 JUMPI POP SWAP2 PUSH1 0x40 DUP3 DUP3 PUSH32 0xDDF252AD1BE2C89B69C2B068FC378DAA952BA7F163C4A11628F55A4DF523B3EF SWAP6 DUP8 PUSH1 0x20 SWAP7 MSTORE DUP3 DUP7 MSTORE SUB DUP3 DUP3 KECCAK256 SSTORE DUP7 DUP2 MSTORE KECCAK256 DUP2 DUP2 SLOAD ADD SWAP1 SSTORE PUSH1 0x40 MLOAD SWAP1 DUP2 MSTORE LOG3 JUMP JUMPDEST PUSH1 0x40 MLOAD PUSH4 0x391434E3 PUSH1 0xE2 SHL DUP2 MSTORE PUSH1 0x1 PUSH1 0x1 PUSH1 0xA0 SHL SUB SWAP2 SWAP1 SWAP2 AND PUSH1 0x4 DUP3 ADD MSTORE PUSH1 0x24 DUP2 ADD SWAP2 SWAP1 SWAP2 MSTORE PUSH1 0x44 DUP2 ADD DUP4 SWAP1 MSTORE PUSH1 0x64 SWAP1 REVERT JUMPDEST PUSH1 0x40 MLOAD PUSH4 0xEC442F05 PUSH1 0xE0 SHL DUP2 MSTORE PUSH1 0x0 PUSH1 0x4 DUP3 ADD MSTORE PUSH1 0x24 SWAP1 REVERT JUMPDEST PUSH1 0x40 MLOAD PUSH4 0x4B637E8F PUSH1 0xE1 SHL DUP2 MSTORE PUSH1 0x0 PUSH1 0x4 DUP3 ADD MSTORE PUSH1 0x24 SWAP1 REVERT JUMPDEST SWAP2 SWAP1 DUP3 ADD DUP1 SWAP3 GT PUSH2 0x10F6 JUMPI JUMP JUMPDEST PUSH4 0x4E487B71 PUSH1 0xE0 SHL PUSH1 0x0 MSTORE PUSH1 0x11 PUSH1 0x4 MSTORE PUSH1 0x24 PUSH1 0x0 REVERT JUMPDEST ISZERO PUSH2 0x1113 JUMPI JUMP JUMPDEST PUSH1 0x40 MLOAD PUSH3 0x461BCD PUSH1 0xE5 SHL DUP2 MSTORE PUSH1 0x20 PUSH1 0x4 DUP3 ADD MSTORE PUSH1 0x11 PUSH1 0x24 DUP3 ADD MSTORE PUSH17 0x27B7363C902732BC3AB6A6B0B730B3B2B9 PUSH1 0x79 SHL PUSH1 0x44 DUP3 ADD MSTORE PUSH1 0x64 SWAP1 REVERT JUMPDEST ISZERO PUSH2 0x1153 JUMPI JUMP JUMPDEST PUSH1 0x40 MLOAD PUSH3 0x461BCD PUSH1 0xE5 SHL DUP2 MSTORE PUSH1 0x20 PUSH1 0x4 DUP3 ADD MSTORE PUSH1 0x12 PUSH1 0x24 DUP3 ADD MSTORE PUSH18 0x416D6F756E74206D757374206265203E203 PUSH1 0x74 SHL PUSH1 0x44 DUP3 ADD MSTORE PUSH1 0x64 SWAP1 REVERT JUMPDEST SWAP2 SWAP1 DUP3 SUB SWAP2 DUP3 GT PUSH2 0x10F6 JUMPI JUMP JUMPDEST PUSH1 0x0 ADDRESS DUP2 MSTORE DUP1 PUSH1 0x20 MSTORE PUSH1 0x40 DUP2 KECCAK256 SLOAD PUSH1 0x7 SLOAD PUSH11 0x27B46536C66C8E3000000 SWAP1 DUP2 SUB SWAP1 DUP2 GT PUSH2 0x1213 JUMPI PUSH1 0x8 SLOAD SWAP1 PUSH10 0xD3C21BCECCEDA1000000 SWAP2 DUP3 SUB SWAP2 DUP3 GT PUSH2 0x11FF JUMPI SWAP1 PUSH2 0x11E4 SWAP2 PUSH2 0x10E9 JUMP JUMPDEST SWAP1 DUP2 DUP2 GT ISZERO PUSH2 0x11FA JUMPI PUSH2 0x11F7 SWAP3 POP PUSH2 0x118D JUMP JUMPDEST SWAP1 JUMP JUMPDEST POP POP SWAP1 JUMP JUMPDEST PUSH4 0x4E487B71 PUSH1 0xE0 SHL DUP5 MSTORE PUSH1 0x11 PUSH1 0x4 MSTORE PUSH1 0x24 DUP5 REVERT JUMPDEST PUSH4 0x4E487B71 PUSH1 0xE0 SHL DUP4 MSTORE PUSH1 0x11 PUSH1 0x4 MSTORE PUSH1 0x24 DUP4 REVERT JUMPDEST PUSH32 0x0 DUP1 TIMESTAMP LT PUSH2 0x12AB JUMPI PUSH2 0x1259 SWAP1 TIMESTAMP PUSH2 0x118D JUMP JUMPDEST PUSH1 0x0 SWAP2 SWAP1 PUSH4 0x3C26700 SWAP1 DUP2 DUP2 LT PUSH2 0x1287 JUMPI POP POP SWAP1 POP PUSH2 0x11F7 PUSH11 0x27B46536C66C8E3000000 JUMPDEST PUSH1 0x7 SLOAD SWAP1 PUSH2 0x118D JUMP JUMPDEST PUSH11 0x27B46536C66C8E3000000 SWAP1 DUP1 DUP3 MUL SWAP2 DUP3 DIV SUB PUSH2 0x11FF JUMPI PUSH2 0x11F7 SWAP3 SWAP4 POP DIV PUSH2 0x127E JUMP JUMPDEST POP PUSH1 0x0 SWAP1 JUMP JUMPDEST PUSH32 0x0 DUP1 TIMESTAMP LT PUSH2 0x12AB JUMPI PUSH2 0x12E3 SWAP1 TIMESTAMP PUSH2 0x118D JUMP JUMPDEST PUSH1 0x0 SWAP2 SWAP1 PUSH4 0x1E13380 SWAP1 DUP2 DUP2 LT PUSH2 0x1310 JUMPI POP POP SWAP1 POP PUSH2 0x11F7 PUSH10 0xD3C21BCECCEDA1000000 JUMPDEST PUSH1 0x8 SLOAD SWAP1 PUSH2 0x118D JUMP JUMPDEST PUSH10 0xD3C21BCECCEDA1000000 SWAP1 DUP1 DUP3 MUL SWAP2 DUP3 DIV SUB PUSH2 0x11FF JUMPI PUSH2 0x11F7 SWAP3 SWAP4 POP DIV PUSH2 0x1307 JUMP JUMPDEST ISZERO PUSH2 0x133A JUMPI JUMP JUMPDEST PUSH1 0x40 MLOAD PUSH3 0x461BCD PUSH1 0xE5 SHL DUP2 MSTORE PUSH1 0x20 PUSH1 0x4 DUP3 ADD MSTORE PUSH1 0x13 PUSH1 0x24 DUP3 ADD MSTORE PUSH19 0x4E6F20746F6B656E7320617661696C61626C65 PUSH1 0x68 SHL PUSH1 0x44 DUP3 ADD MSTORE PUSH1 0x64 SWAP1 REVERT JUMPDEST SWAP1 PUSH1 0x1 PUSH1 0x1 PUSH1 0xA0 SHL SUB DUP3 AND SWAP1 DUP2 ISZERO PUSH2 0x10D0 JUMPI PUSH1 0x0 SWAP3 DUP3 DUP5 MSTORE DUP4 PUSH1 0x20 MSTORE PUSH1 0x40 DUP5 KECCAK256 SLOAD SWAP1 DUP3 DUP3 LT PUSH2 0x13E2 JUMPI POP DUP2 PUSH32 0xDDF252AD1BE2C89B69C2B068FC378DAA952BA7F163C4A11628F55A4DF523B3EF SWAP3 PUSH1 0x20 SWAP3 DUP6 DUP8 MSTORE DUP7 DUP5 MSTORE SUB PUSH1 0x40 DUP7 KECCAK256 SSTORE DUP1 PUSH1 0x2 SLOAD SUB PUSH1 0x2 SSTORE PUSH1 0x40 MLOAD SWAP1 DUP2 MSTORE LOG3 JUMP JUMPDEST PUSH1 0x40 MLOAD PUSH4 0x391434E3 PUSH1 0xE2 SHL DUP2 MSTORE PUSH1 0x1 PUSH1 0x1 PUSH1 0xA0 SHL SUB SWAP2 SWAP1 SWAP2 AND PUSH1 0x4 DUP3 ADD MSTORE PUSH1 0x24 DUP2 ADD SWAP2 SWAP1 SWAP2 MSTORE PUSH1 0x44 DUP2 ADD DUP3 SWAP1 MSTORE PUSH1 0x64 SWAP1 REVERT INVALID LOG2 PUSH5 0x6970667358 0x22 SLT KECCAK256 0xC 0xC6 0xED 0x29 0xEE 0xB7 0x1F SELFBALANCE 0xC3 SWAP3 SWAP11 0x4E 0xC3 0xB2 0xCB 0xD1 INVALID SUB MSIZE 0x1F PUSH18 0xDEAFD37626FC04753E96CD64736F6C634300 ADDMOD EQ STOP CALLER "},"methodIdentifiers":{"allowance(address,address)":"dd62ed3e","approve(address,uint256)":"095ea7b3","balanceOf(address)":"70a08231","burn(uint256)":"42966c68","burnUndistributed(uint256)":"57d020cf","decimals()":"313ce567","deploymentTime()":"ecda10f5","distributeReward(address,uint256)":"1ec8bb8c","founderAddress()":"46bb2833","founderVestingEnd()":"36272d1e","founderWithdraw()":"84f85951","founderWithdrawn()":"3e24fb98","getAvailableRewards()":"fc9c99ac","getFounderAvailable()":"6ec92ef5","getPartnerAvailable()":"f6f3f582","getTokenInfo()":"abb1dc44","getVestingInfo()":"dc25a300","name()":"06fdde03","nexumManager()":"d66ee30d","nexumManagerSet()":"8167593f","owner()":"8da5cb5b","partnerAddress()":"576168fc","partnerVestingEnd()":"5e3705da","partnerWithdraw()":"971362c9","partnerWithdrawn()":"89384b07","renounceOwnership()":"715018a6","rewardsDistributed()":"9c1454d4","setNexumManager(address)":"925d7c44","symbol()":"95d89b41","totalSupply()":"18160ddd","transfer(address,uint256)":"a9059cbb","transferFrom(address,address,uint256)":"23b872dd","transferOwnership(address)":"f2fde38b"}}}}}