{"contracts/NexumManager.sol":{"NexumManager":{"abi":[{"inputs":[{"internalType":"address","name":"_vrfCoordinator","type":"address"},{"internalType":"uint64","name":"_subscriptionId","type":"uint64"},{"internalType":"bytes32","name":"_keyHash","type":"bytes32"},{"internalType":"address","name":"_stablecoin","type":"address"},{"internalType":"address","name":"_nxlToken","type":"address"},{"internalType":"address","name":"_founder","type":"address"},{"internalType":"address","name":"_partner","type":"address"}],"stateMutability":"nonpayable","type":"constructor"},{"inputs":[{"internalType":"address","name":"have","type":"address"},{"internalType":"address","name":"want","type":"address"}],"name":"OnlyCoordinatorCanFulfill","type":"error"},{"inputs":[{"internalType":"address","name":"owner","type":"address"}],"name":"OwnableInvalidOwner","type":"error"},{"inputs":[{"internalType":"address","name":"account","type":"address"}],"name":"OwnableUnauthorizedAccount","type":"error"},{"inputs":[],"name":"ReentrancyGuardReentrantCall","type":"error"},{"anonymous":false,"inputs":[{"indexed":true,"internalType":"address","name":"to","type":"address"},{"indexed":false,"internalType":"uint256","name":"amount","type":"uint256"}],"name":"AuditFundsTransferred","type":"event"},{"anonymous":false,"inputs":[{"indexed":true,"internalType":"uint256","name":"productId","type":"uint256"}],"name":"NXLRewardsExhausted","type":"event"},{"anonymous":false,"inputs":[{"indexed":true,"internalType":"uint256","name":"productId","type":"uint256"},{"indexed":true,"internalType":"uint256","name":"roundId","type":"uint256"},{"indexed":false,"internalType":"uint256","name":"timestamp","type":"uint256"}],"name":"NewRoundStarted","type":"event"},{"anonymous":false,"inputs":[{"indexed":true,"internalType":"address","name":"previousOwner","type":"address"},{"indexed":true,"internalType":"address","name":"newOwner","type":"address"}],"name":"OwnershipTransferred","type":"event"},{"anonymous":false,"inputs":[{"indexed":true,"internalType":"uint256","name":"productId","type":"uint256"}],"name":"ProductReactivated","type":"event"},{"anonymous":false,"inputs":[{"indexed":true,"internalType":"uint256","name":"productId","type":"uint256"},{"indexed":true,"internalType":"uint256","name":"roundId","type":"uint256"},{"indexed":true,"internalType":"address","name":"winner","type":"address"},{"indexed":false,"internalType":"uint256","name":"prize","type":"uint256"},{"indexed":false,"internalType":"uint256","name":"winningTicket","type":"uint256"}],"name":"RoundCompleted","type":"event"},{"anonymous":false,"inputs":[{"indexed":true,"internalType":"uint256","name":"productId","type":"uint256"},{"indexed":true,"internalType":"uint256","name":"roundId","type":"uint256"},{"indexed":true,"internalType":"address","name":"buyer","type":"address"},{"indexed":false,"internalType":"uint256","name":"quantity","type":"uint256"},{"indexed":false,"internalType":"uint256[]","name":"ticketNumbers","type":"uint256[]"},{"indexed":false,"internalType":"uint256","name":"amountPaid","type":"uint256"}],"name":"TicketsPurchased","type":"event"},{"anonymous":false,"inputs":[{"indexed":true,"internalType":"uint256","name":"requestId","type":"uint256"},{"indexed":true,"internalType":"uint256","name":"productId","type":"uint256"},{"indexed":true,"internalType":"uint256","name":"roundId","type":"uint256"}],"name":"VRFRequested","type":"event"},{"inputs":[],"name":"AMBASSADORS_PCT","outputs":[{"internalType":"uint256","name":"","type":"uint256"}],"stateMutability":"view","type":"function"},{"inputs":[],"name":"AUDIT_SHARE","outputs":[{"internalType":"uint256","name":"","type":"uint256"}],"stateMutability":"view","type":"function"},{"inputs":[],"name":"FEES_SHARE","outputs":[{"internalType":"uint256","name":"","type":"uint256"}],"stateMutability":"view","type":"function"},{"inputs":[],"name":"FOUNDER_SHARE","outputs":[{"internalType":"uint256","name":"","type":"uint256"}],"stateMutability":"view","type":"function"},{"inputs":[],"name":"INSTANT_REWARDS_PCT","outputs":[{"internalType":"uint256","name":"","type":"uint256"}],"stateMutability":"view","type":"function"},{"inputs":[],"name":"MAIN_PRIZE_PCT","outputs":[{"internalType":"uint256","name":"","type":"uint256"}],"stateMutability":"view","type":"function"},{"inputs":[],"name":"MULTILEVEL_PCT","outputs":[{"internalType":"uint256","name":"","type":"uint256"}],"stateMutability":"view","type":"function"},{"inputs":[],"name":"NUM_WORDS","outputs":[{"internalType":"uint32","name":"","type":"uint32"}],"stateMutability":"view","type":"function"},{"inputs":[],"name":"OPERATIONS_PCT","outputs":[{"internalType":"uint256","name":"","type":"uint256"}],"stateMutability":"view","type":"function"},{"inputs":[],"name":"PARTNER_SHARE","outputs":[{"internalType":"uint256","name":"","type":"uint256"}],"stateMutability":"view","type":"function"},{"inputs":[],"name":"PRODUCT_COUNT","outputs":[{"internalType":"uint256","name":"","type":"uint256"}],"stateMutability":"view","type":"function"},{"inputs":[],"name":"REQUEST_CONFIRMATIONS","outputs":[{"internalType":"uint16","name":"","type":"uint16"}],"stateMutability":"view","type":"function"},{"inputs":[],"name":"TREASURY_BTC_PCT","outputs":[{"internalType":"uint256","name":"","type":"uint256"}],"stateMutability":"view","type":"function"},{"inputs":[],"name":"ambassadorRegistry","outputs":[{"internalType":"address","name":"","type":"address"}],"stateMutability":"view","type":"function"},{"inputs":[],"name":"auditFunds","outputs":[{"internalType":"address","name":"","type":"address"}],"stateMutability":"view","type":"function"},{"inputs":[{"internalType":"uint256","name":"productId","type":"uint256"},{"internalType":"uint256[]","name":"ticketNumbers","type":"uint256[]"},{"internalType":"address","name":"referrer","type":"address"}],"name":"buySpecificTickets","outputs":[],"stateMutability":"nonpayable","type":"function"},{"inputs":[{"internalType":"uint256","name":"productId","type":"uint256"},{"internalType":"uint256","name":"quantity","type":"uint256"},{"internalType":"address","name":"referrer","type":"address"}],"name":"buyTickets","outputs":[],"stateMutability":"nonpayable","type":"function"},{"inputs":[],"name":"buybackContract","outputs":[{"internalType":"address","name":"","type":"address"}],"stateMutability":"view","type":"function"},{"inputs":[],"name":"callbackGasLimit","outputs":[{"internalType":"uint32","name":"","type":"uint32"}],"stateMutability":"view","type":"function"},{"inputs":[{"internalType":"uint256","name":"","type":"uint256"}],"name":"currentRound","outputs":[{"internalType":"uint256","name":"","type":"uint256"}],"stateMutability":"view","type":"function"},{"inputs":[],"name":"emergencyPause","outputs":[],"stateMutability":"nonpayable","type":"function"},{"inputs":[],"name":"emergencyUnpause","outputs":[],"stateMutability":"nonpayable","type":"function"},{"inputs":[],"name":"emergencyWithdraw","outputs":[],"stateMutability":"nonpayable","type":"function"},{"inputs":[],"name":"founder","outputs":[{"internalType":"address","name":"","type":"address"}],"stateMutability":"view","type":"function"},{"inputs":[{"internalType":"uint256","name":"productId","type":"uint256"}],"name":"getAvailableTickets","outputs":[{"internalType":"uint256","name":"","type":"uint256"}],"stateMutability":"view","type":"function"},{"inputs":[{"internalType":"uint256","name":"productId","type":"uint256"}],"name":"getProductInfo","outputs":[{"internalType":"string","name":"name","type":"string"},{"internalType":"uint256","name":"priceUSD","type":"uint256"},{"internalType":"uint256","name":"maxTickets","type":"uint256"},{"internalType":"uint256","name":"nxlPerTicket","type":"uint256"},{"internalType":"uint256","name":"jackpotUSD","type":"uint256"},{"internalType":"bool","name":"active","type":"bool"}],"stateMutability":"view","type":"function"},{"inputs":[{"internalType":"uint256","name":"productId","type":"uint256"},{"internalType":"uint256","name":"roundId","type":"uint256"}],"name":"getRoundInfo","outputs":[{"internalType":"uint256","name":"ticketsSold","type":"uint256"},{"internalType":"uint256","name":"totalCollected","type":"uint256"},{"internalType":"address","name":"winner","type":"address"},{"internalType":"bool","name":"completed","type":"bool"},{"internalType":"bool","name":"vrfRequested","type":"bool"}],"stateMutability":"view","type":"function"},{"inputs":[{"internalType":"uint256","name":"productId","type":"uint256"},{"internalType":"uint256","name":"roundId","type":"uint256"},{"internalType":"address","name":"user","type":"address"}],"name":"getUserTickets","outputs":[{"internalType":"uint256[]","name":"","type":"uint256[]"}],"stateMutability":"view","type":"function"},{"inputs":[{"internalType":"uint256","name":"productId","type":"uint256"},{"internalType":"uint256","name":"roundId","type":"uint256"},{"internalType":"uint256","name":"ticketNumber","type":"uint256"}],"name":"isTicketAvailable","outputs":[{"internalType":"bool","name":"","type":"bool"}],"stateMutability":"view","type":"function"},{"inputs":[],"name":"keyHash","outputs":[{"internalType":"bytes32","name":"","type":"bytes32"}],"stateMutability":"view","type":"function"},{"inputs":[],"name":"nxlToken","outputs":[{"internalType":"contract INXLToken","name":"","type":"address"}],"stateMutability":"view","type":"function"},{"inputs":[],"name":"owner","outputs":[{"internalType":"address","name":"","type":"address"}],"stateMutability":"view","type":"function"},{"inputs":[],"name":"partner","outputs":[{"internalType":"address","name":"","type":"address"}],"stateMutability":"view","type":"function"},{"inputs":[],"name":"paused","outputs":[{"internalType":"bool","name":"","type":"bool"}],"stateMutability":"view","type":"function"},{"inputs":[{"internalType":"uint256","name":"","type":"uint256"}],"name":"products","outputs":[{"internalType":"string","name":"name","type":"string"},{"internalType":"uint256","name":"priceUSD","type":"uint256"},{"internalType":"uint256","name":"maxTickets","type":"uint256"},{"internalType":"uint256","name":"nxlPerTicket","type":"uint256"},{"internalType":"uint256","name":"nxlWinnerBonus","type":"uint256"},{"internalType":"uint256","name":"jackpotUSD","type":"uint256"},{"internalType":"bool","name":"active","type":"bool"}],"stateMutability":"view","type":"function"},{"inputs":[{"internalType":"uint256","name":"requestId","type":"uint256"},{"internalType":"uint256[]","name":"randomWords","type":"uint256[]"}],"name":"rawFulfillRandomWords","outputs":[],"stateMutability":"nonpayable","type":"function"},{"inputs":[{"internalType":"uint256","name":"productId","type":"uint256"}],"name":"reactivateProduct","outputs":[],"stateMutability":"nonpayable","type":"function"},{"inputs":[],"name":"referralNetwork","outputs":[{"internalType":"address","name":"","type":"address"}],"stateMutability":"view","type":"function"},{"inputs":[],"name":"renounceOwnership","outputs":[],"stateMutability":"nonpayable","type":"function"},{"inputs":[{"internalType":"uint256","name":"","type":"uint256"},{"internalType":"uint256","name":"","type":"uint256"}],"name":"rounds","outputs":[{"internalType":"uint256","name":"productId","type":"uint256"},{"internalType":"uint256","name":"roundId","type":"uint256"},{"internalType":"uint256","name":"ticketsSold","type":"uint256"},{"internalType":"uint256","name":"totalCollected","type":"uint256"},{"internalType":"address","name":"winner","type":"address"},{"internalType":"bool","name":"completed","type":"bool"},{"internalType":"bool","name":"vrfRequested","type":"bool"},{"internalType":"uint256","name":"vrfRequestId","type":"uint256"}],"stateMutability":"view","type":"function"},{"inputs":[{"internalType":"uint32","name":"_gasLimit","type":"uint32"}],"name":"setCallbackGasLimit","outputs":[],"stateMutability":"nonpayable","type":"function"},{"inputs":[{"internalType":"address","name":"_treasuryBTC","type":"address"},{"internalType":"address","name":"_referralNetwork","type":"address"},{"internalType":"address","name":"_ambassadorRegistry","type":"address"},{"internalType":"address","name":"_buybackContract","type":"address"}],"name":"setEcosystemAddresses","outputs":[],"stateMutability":"nonpayable","type":"function"},{"inputs":[],"name":"stablecoin","outputs":[{"internalType":"contract IERC20","name":"","type":"address"}],"stateMutability":"view","type":"function"},{"inputs":[],"name":"subscriptionId","outputs":[{"internalType":"uint64","name":"","type":"uint64"}],"stateMutability":"view","type":"function"},{"inputs":[{"internalType":"uint256","name":"","type":"uint256"},{"internalType":"uint256","name":"","type":"uint256"},{"internalType":"uint256","name":"","type":"uint256"}],"name":"ticketOwner","outputs":[{"internalType":"address","name":"","type":"address"}],"stateMutability":"view","type":"function"},{"inputs":[{"internalType":"address","name":"newOwner","type":"address"}],"name":"transferOwnership","outputs":[],"stateMutability":"nonpayable","type":"function"},{"inputs":[],"name":"treasuryBTC","outputs":[{"internalType":"address","name":"","type":"address"}],"stateMutability":"view","type":"function"},{"inputs":[{"internalType":"uint256","name":"","type":"uint256"},{"internalType":"uint256","name":"","type":"uint256"},{"internalType":"address","name":"","type":"address"},{"internalType":"uint256","name":"","type":"uint256"}],"name":"userTickets","outputs":[{"internalType":"uint256","name":"","type":"uint256"}],"stateMutability":"view","type":"function"},{"inputs":[],"name":"vrfCoordinator","outputs":[{"internalType":"contract VRFCoordinatorV2Interface","name":"","type":"address"}],"stateMutability":"view","type":"function"},{"inputs":[{"internalType":"uint256","name":"","type":"uint256"}],"name":"vrfRequestToProduct","outputs":[{"internalType":"uint256","name":"","type":"uint256"}],"stateMutability":"view","type":"function"},{"inputs":[{"internalType":"uint256","name":"","type":"uint256"}],"name":"vrfRequestToRound","outputs":[{"internalType":"uint256","name":"","type":"uint256"}],"stateMutability":"view","type":"function"}],"evm":{"bytecode":{"linkReferences":{},"object":"6101803462000ffe57601f62003f5138819003918201601f19168301916001600160401b0383118484101762000acd5780849260e09460405283398101031262000ffe576200004e8162001043565b60208201516001600160401b038116810362000ffe576040830151620000776060850162001043565b620000856080860162001043565b91620000a260c06200009a60a0890162001043565b970162001043565b93856080526001600055331562000fe55760018054336001600160a01b0319821681179092556040519791906001600160a01b03167f8be0079c531659141344cd1fd0a4f28419497f9722a3daafe3b4186f6b6457e0600080a3600654966001600160a01b0385161562000fae57506001600160a01b0385161562000f75576001600160a01b0388161562000f3e576001600160a01b0386161562000f07576001600160a01b0390811661012052610140919091526101609190915290811660a05290811660c05260e0849052610100919091526001600160c01b0319909116911617610c3560a61b176006556200019962001003565b620001a362001023565b600581526408c9882a6960db1b60208201528152670de0b6b3a764000060208201526103e8604082015267016345785d8a0000606082015267016345785d8a00006080820152681b1ae4d6e2ef50000060a0820152600160c0820152600080526007602052604060002090805180519060018060401b03821162000acd578354600181811c9116801562000efc575b602082101462000aac57601f811162000eb3575b50602090601f831160011462000e3f5791806006949260c09460009262000e33575b50508160011b916000199060031b1c19161784555b6020810151600185015560408101516002850155606081015160038501556080810151600485015560a081015160058501550151151560ff80198385015416911617910155620002cc62001003565b620002d662001023565b600881526713d49251d253905360c21b60208201528152670de0b6b3a7640000602082015261271060408201526703782dace9d90000806060830152608082015269010f0cf064dd5920000060a0820152600160c0820152600160005260076020526040600020815180519060018060401b03821162000acd578254600181811c9116801562000e28575b602082101462000aac57601f811162000ddf575b50602090601f831160011462000d6b57918060c0949260069460009262000d5f575b50508160011b916000199060031b1c19161781555b6020840151600182015560408401516002820155606084015160038201556080840151600482015560a0840151600582015501910151151560ff80198354169116179055620003fa62001003565b6200040462001023565b60078152665052454d49554d60c81b602082015281526801158e460913d0000060208201526103e860408201526706f05b59d3b20000806060830152608082015269021e19e0c9bab240000060a0820152600160c0820152600260005260076020526040600020815180519060018060401b03821162000acd578254600181811c9116801562000d54575b602082101462000aac57601f811162000d0b575b50602090601f831160011462000c9757918060c0949260069460009262000c8b575b50508160011b916000199060031b1c19161781555b6020840151600182015560408401516002820155606084015160038201556080840151600482015560a0840151600582015501910151151560ff801983541691161790556200052862001003565b6200053262001023565b6005815264454c49544560d81b60208201528152678ac7230489e80000602082015261271060408201526707a1fe16027700008060608301526080820152690a968163f0a57b40000060a0820152600160c0820152600360005260076020526040600020815180519060018060401b03821162000acd578254600181811c9116801562000c80575b602082101462000aac57601f811162000c37575b50602090601f831160011462000bc357918060c0949260069460009262000bb7575b50508160011b916000199060031b1c19161781555b6020840151600182015560408401516002820155606084015160038201556080840151600482015560a0840151600582015501910151151560ff801983541691161790556200065362001003565b6200065d62001023565b600381526205649560ec1b60208201528152680ad78ebc5ac620000060208201526103e86040820152670bcbce7f1b150000806060830152608082015269152d02c7e14af680000060a0820152600160c0820152600460005260076020526040600020815180519060018060401b03821162000acd578254600181811c9116801562000bac575b602082101462000aac57601f811162000b63575b50602090601f831160011462000aef57918060c0949260069460009262000ae3575b50508160011b916000199060031b1c19161781555b6020840151600182015560408401516002820155606084015160038201556080840151600482015560a0840151600582015501910151151560ff801983541691161790556200077d62001003565b6200078762001023565b6009815268424c41434b424c4f4b60b81b60208201528152680ad78ebc5ac620000060208201526127106040820152670de0b6b3a76400006060820152670de0b6b3a7640000608082015269d3c21bcecceda100000060a0820152600160c0820152600560005260076020526040600020815180519060018060401b03821162000acd578254600181811c9116801562000ac2575b602082101462000aac57601f811162000a63575b50602090601f8311600114620009ef57918060c09492600694600092620009e3575b50508160011b916000199060031b1c19161781555b6020840151600182015560408401516002820155606084015160038201556080840151600482015560a0840151600582015501910151151560ff8019835416911617905560005b600681106200097c57604051612ef8908162001059823960805181611ae4015260a05181818161034a01528181610483015281816106f801528181610ec801528181611bd3015281816127c00152612d97015260c05181818161145f01528181611da7015261269f015260e05181818161197d01528181611cb0015281816128220152612903015261010051818181610d380152611d170152610120518181816112d90152612aaf0152610140518181816121520152612a590152610160518181816118fb0152612a330152f35b80600052600960205260016040600020556001817fb0b0c60f0267584d50a65485b5eff6babad43c5727703515fde33bb545b191146020604051428152a36000198114620009cd57600101620008ae565b634e487b7160e01b600052601160045260246000fd5b01519050388062000852565b908360005260206000209160005b601f198516811062000a4a57509260c0949260019260069583601f1981161062000a30575b505050811b01815562000867565b015160001960f88460031b161c1916905538808062000a22565b91926020600181928685015181550194019201620009fd565b836000526020600020601f840160051c81016020851062000aa4575b601f830160051c8201811062000a9757505062000830565b6000815560010162000a7f565b508062000a7f565b634e487b7160e01b600052602260045260246000fd5b90607f16906200081c565b634e487b7160e01b600052604160045260246000fd5b0151905038806200071a565b908360005260206000209160005b601f198516811062000b4a57509260c0949260019260069583601f1981161062000b30575b505050811b0181556200072f565b015160001960f88460031b161c1916905538808062000b22565b9192602060018192868501518155019401920162000afd565b836000526020600020601f840160051c81016020851062000ba4575b601f830160051c8201811062000b97575050620006f8565b6000815560010162000b7f565b508062000b7f565b90607f1690620006e4565b015190503880620005f0565b908360005260206000209160005b601f198516811062000c1e57509260c0949260019260069583601f1981161062000c04575b505050811b01815562000605565b015160001960f88460031b161c1916905538808062000bf6565b9192602060018192868501518155019401920162000bd1565b836000526020600020601f840160051c81016020851062000c78575b601f830160051c8201811062000c6b575050620005ce565b6000815560010162000c53565b508062000c53565b90607f1690620005ba565b015190503880620004c5565b908360005260206000209160005b601f198516811062000cf257509260c0949260019260069583601f1981161062000cd8575b505050811b018155620004da565b015160001960f88460031b161c1916905538808062000cca565b9192602060018192868501518155019401920162000ca5565b836000526020600020601f840160051c81016020851062000d4c575b601f830160051c8201811062000d3f575050620004a3565b6000815560010162000d27565b508062000d27565b90607f16906200048f565b01519050388062000397565b908360005260206000209160005b601f198516811062000dc657509260c0949260019260069583601f1981161062000dac575b505050811b018155620003ac565b015160001960f88460031b161c1916905538808062000d9e565b9192602060018192868501518155019401920162000d79565b836000526020600020601f840160051c81016020851062000e20575b601f830160051c8201811062000e1357505062000375565b6000815560010162000dfb565b508062000dfb565b90607f169062000361565b01519050388062000268565b908460005260206000209160005b601f198516811062000e9a5750926006949260019260c09583601f1981161062000e80575b505050811b0184556200027d565b015160001960f88460031b161c1916905538808062000e72565b9192602060018192868501518155019401920162000e4d565b846000526020600020601f840160051c81016020851062000ef4575b601f830160051c8201811062000ee757505062000246565b6000815560010162000ecf565b508062000ecf565b90607f169062000232565b60405162461bcd60e51b815260206004820152600f60248201526e24b73b30b634b2103830b93a3732b960891b6044820152606490fd5b60405162461bcd60e51b815260206004820152600f60248201526e24b73b30b634b2103337bab73232b960891b6044820152606490fd5b60405162461bcd60e51b815260206004820152601160248201527024b73b30b634b210272c26103a37b5b2b760791b6044820152606490fd5b62461bcd60e51b815260206004820152601260248201527124b73b30b634b21039ba30b13632b1b7b4b760711b6044820152606490fd5b604051631e4fbdf760e01b815260006004820152602490fd5b600080fd5b6040519060e082016001600160401b0381118382101762000acd57604052565b60408051919082016001600160401b0381118382101762000acd57604052565b51906001600160a01b038216820362000ffe5756fe608080604052600436101561001357600080fd5b6000803560e01c91826309c1ba2e14612134575081630cc7b2a91461210e578163182be553146120e65781631fe543e314611a6457816324f7469714611a3e57816337f69bf5146104425781634192bf941461044257816342b511c414611a1557816343f4dabe146119f95781634644ea4b146119d15781634a4e3bd5146119ac5781634d853ee51461196857816351858e27146119405781635c975abb1461191e5781635f0b764f1461025257816361728f39146118e457816367f082b0146118c95781636d5a730c1461179b5781636e0e5332146116e5578163715018a61461168857816372cf6e341461166d57816379a85e6c146115b75781637acc0b201461152d5781637f44a9bb1461151157816380b70e37146114d25781638542b336146114aa578163882ecb101461148e57816389ef723b1461144a5781638a9bb02a146113e15781638da5cb5b146113b9578163976286e21461139e5781639a2b301214611308578163a3e56fa8146112c4578163a4eb718c14611219578163a792813c14610d67578163be10862b14610d23578163be8c2feb14610cfb578163cb1b510614610c8b578163d4eeb14d14610c6f578163d5aa06fa14610c46578163d60f669c14610c2b578163d8b945aa1461053e578163db2e21bc14610447578163e5346f3014610442578163e6da9213146103b9578163e978985514610379578163e9cbd82214610335578163eb348f831461030d578163f2fde38b14610283578163f64d85af14610257575063f731d1ba1461025257600080fd5b612213565b346102805760203660031901126102805760406020916004358152600983522054604051908152f35b80fd5b346102805760203660031901126102805761029c61222f565b6102a4612412565b6001600160a01b039081169081156102f457600154826001600160601b0360a01b821617600155167f8be0079c531659141344cd1fd0a4f28419497f9722a3daafe3b4186f6b6457e0600080a380f35b604051631e4fbdf760e01b815260048101849052602490fd5b346102805780600319360112610280576002546040516001600160a01b039091168152602090f35b346102805780600319360112610280576040517f00000000000000000000000000000000000000000000000000000000000000006001600160a01b03168152602090f35b346102805760209061038a3661236c565b918352600a8452604083209083528352604082209082528252604060018060a01b039120541615604051908152f35b34610280576040610100916103cd36612386565b90825260086020528282209082526020522080549060ff6001820154916002810154600382015490600560048401549301549460405196875260208701526040860152606085015260018060a01b0381166080850152818160a01c16151560a085015260a81c16151560c083015260e0820152f35b6121f6565b3461028057806003193601126102805761045f612412565b6040516370a0823160e01b81523060048201526001600160a01b03906020816024817f000000000000000000000000000000000000000000000000000000000000000086165afa9081156105335783916104fd575b5080156104cb576104c89160015416612d47565b80f35b60405162461bcd60e51b815260206004820152600a6024820152694e6f2062616c616e636560b01b6044820152606490fd5b90506020813d821161052b575b81610517602093836121bc565b810103126105265751836104b4565b600080fd5b3d915061050a565b6040513d85823e3d90fd5b346102805760603660031901126102805760243567ffffffffffffffff808211610900573660238301121561090057816004013511610c2757366024826004013560051b83010111610c2757610592612245565b9061059b612668565b6105aa60ff600e54161561243e565b6105b860066004351061247c565b600435835260076020526105d560ff6006604086200154166124ba565b60043583526009602052604083205491600860205260408420838552602052604084209060043585526007602052604085209260ff600660405195610619876121a0565b6106228161229b565b875260018101546020880152600281015460408801526003810154606088015260048101546080880152600581015460a0880152015416151560c085015261067460ff600485015460a01c16156124f9565b806004013515610be25760018160040135148015610bd4575b8015610bc6575b8015610bb8575b6106a490612537565b855b81600401358110610a2857506106c4816004013560208601516125c5565b6040516323b872dd60e01b8152336004820152306024820152604481018290529091906020816064818b6001600160a01b037f0000000000000000000000000000000000000000000000000000000000000000165af18015610a1d576107379189916109fe575b509088949392916125f0565b835b816004013581106109615750610757816004013560028701546125b8565b60028601556003850161076b8382546125b8565b9055604051600482013580825260606020830181905282018190526001600160fb1b031061095d5761080192826004013560051b60248401608084013760408201528733917f312ffeb81136178607528c21ab6d9c6bf3eab08cb7eb3ed968c8aa9d9bef9fd060043591608081876004013560051b8101030190a46107fb600435916004013560608801516125c5565b3361268b565b6001600160a01b0381168015159081610952575b508061093e575b61084e575b505060026040910154910151111561083c575b506001815580f35b610848906004356129f7565b81610834565b600354604051630308a59b60e31b81523360048201526001600160a01b0390911690602081602481855afa908115610933578491610904575b5015610894575b50610821565b803b156109005760405163bbddaca360e01b81523360048201526001600160a01b0392909216602483015282908290604490829084905af180156108f5576108dd575b8061088e565b6108e690612176565b6108f15783856108d7565b8380fd5b6040513d84823e3d90fd5b8280fd5b610926915060203d60201161092c575b61091e81836121bc565b8101906125d8565b88610887565b503d610914565b6040513d86823e3d90fd5b506003546001600160a01b0316151561081c565b905033141587610815565b8480fd5b6109f491929394506004358952600a60205260408920888a5260205260408920610993828560040135602487016125a8565b358a5260205260408920336001600160601b0360a01b8254161790556004358952600b60205260408920888a5260205260408920336000526020526109ef60406000206109e8838660040135602488016125a8565b359061262e565b612583565b9087939291610739565b610a17915060203d60201161092c5761091e81836121bc565b8961072b565b6040513d8a823e3d90fd5b610a3a818360040135602485016125a8565b3560408601511115610b7b576004358752600a6020526040872086885260205260408720610a70828460040135602486016125a8565b35885260205260408720546001600160a01b0316610b405760018101808211610b2c575b82600401358110610aae5750610aa990612583565b6106a6565b610ac0828460040135602486016125a8565b35610ad3828560040135602487016125a8565b3514610ae757610ae290612583565b610a94565b60405162461bcd60e51b815260206004820152601760248201527f4475706c6963617465207469636b6574206e756d6265720000000000000000006044820152606490fd5b634e487b7160e01b88526011600452602488fd5b60405162461bcd60e51b8152602060048201526013602482015272151a58dad95d08185b1c9958591e481cdbdb19606a1b6044820152606490fd5b60405162461bcd60e51b815260206004820152601560248201527424b73b30b634b2103a34b1b5b2ba10373ab6b132b960591b6044820152606490fd5b506004810135600a1461069b565b506005816004013514610694565b50600381600401351461068d565b60405162461bcd60e51b815260206004820152601f60248201527f4d7573742073656c656374206174206c65617374206f6e65207469636b6574006044820152606490fd5b5080fd5b34610280578060031936011261028057602060405160438152f35b346102805760203660031901126102805760406020916004358152600d83522054604051908152f35b3461028057806003193601126102805760206040516113888152f35b3461028057608036600319011261028057610ca4612245565b90606435916004358252600b602052604082206024358352602052604082209060018060a01b03166000526020526040600020908154831015610280576020610ced84846123fa565b90546040519160031b1c8152f35b346102805780600319360112610280576004546040516001600160a01b039091168152602090f35b346102805780600319360112610280576040517f00000000000000000000000000000000000000000000000000000000000000006001600160a01b03168152602090f35b3461028057610d753661239c565b90610d7e612668565b610d8d60ff600e54161561243e565b610d996006841061247c565b8284526007602052610db460ff6006604087200154166124ba565b60018114801561120f575b8015611205575b80156111fb575b610dd690612537565b828452600960205260408420549160086020526040852083865260205260408520908486526007602052604086209260405193610e12856121a0565b610e1b8161229b565b855260ff600660018301549260208801938452600281015460408901526003810154606089015260048101546080890152600581015460a0890152015416151560c0860152610e7460ff600486015460a01c16156124f9565b610e828260028601546125b8565b6040860151106111c15781610e9791516125c5565b6040516323b872dd60e01b8152336004820152306024820152604481018290526020816064818c6001600160a01b037f0000000000000000000000000000000000000000000000000000000000000000165af180156111b657610f08918a91611197575b50918994939189936125f0565b87610f12836121de565b610f1f60405191826121bc565b838152601f19610f2e856121de565b01366020830137865b8481106110da575091849391610fae957f312ffeb81136178607528c21ab6d9c6bf3eab08cb7eb3ed968c8aa9d9bef9fd06107fb9560038c01610f7b8682546125b8565b9055610f98604051918783526060602084015260608301906123c6565b9460408201528033950390a460608801516125c5565b6001600160a01b03811680151590816110cf575b50806110bb575b610ff9575b5050600260409101549101511115610fe9575b826001815580f35b610ff2916129f7565b8180610fe1565b600354604051630308a59b60e31b81523360048201526001600160a01b0390911690602081602481855afa90811561093357849161109c575b501561103f575b50610fce565b803b156109005760405163bbddaca360e01b81523360048201526001600160a01b0392909216602483015282908290604490829084905af180156108f557611088575b80611039565b61109190612176565b61095d578486611082565b6110b5915060203d60201161092c5761091e81836121bc565b89611032565b506003546001600160a01b03161515610fc9565b905033141588610fc2565b9294509294955050600286015490898b52600a60205260408b20898c5260205260408b20828c5260205260408b20336001600160601b0360a01b82541617905582518110156111815761115d826111749360208460051b870101528b8d52600b6020528c8b60408220915260205260408d2033600052602052604060002061262e565b61116a6002880154612583565b6002880155612583565b91878a9594928a94610f37565b634e487b7160e01b600052603260045260246000fd5b6111b0915060203d60201161092c5761091e81836121bc565b8a610efb565b6040513d8b823e3d90fd5b60405162461bcd60e51b81526020600482015260126024820152714e6f7420656e6f756768207469636b65747360701b6044820152606490fd5b50600a8114610dcd565b5060058114610dc6565b5060038114610dbf565b346102805760203660031901126102805760043563ffffffff811680820361090057611243612412565b620186a081101590816112b6575b501561127d576006805463ffffffff60a01b191660a09290921b63ffffffff60a01b1691909117905580f35b60405162461bcd60e51b8152602060048201526011602482015270125b9d985b1a590819d85cc81b1a5b5a5d607a1b6044820152606490fd5b6207a1209150111583611251565b346102805780600319360112610280576040517f00000000000000000000000000000000000000000000000000000000000000006001600160a01b03168152602090f35b34610280576113163661239c565b90918352602091600b8352604084209084528252604083209060018060a01b03166000528152604060002091604051809384918482549182815201918452848420935b8582821061138857505050611370925003836121bc565b6113846040519282849384528301906123c6565b0390f35b8554845260019586019588955093019201611359565b34610280578060031936011261028057602060405160068152f35b346102805780600319360112610280576001546040516001600160a01b039091168152602090f35b3461028057604060a0916113f436612386565b90825260086020528282209082526020522060ff60028201549160046003820154910154906040519384526020840152600180851b03811660408401528181851c161515606084015260a81c1615156080820152f35b346102805780600319360112610280576040517f00000000000000000000000000000000000000000000000000000000000000006001600160a01b03168152602090f35b3461028057806003193601126102805760206040516105dc8152f35b346102805780600319360112610280576005546040516001600160a01b039091168152602090f35b34610280576020906114e33661236c565b918352600a8452604083209083528352604082209082528252604060018060a01b0391205416604051908152f35b34610280578060031936011261028057602060405161029b8152f35b346102805760203660031901126102805760406115929160043581526007602052206115588161229b565b90600181015490600281015490600381015460048201549060ff60066005850154940154169360405197889760e0895260e089019061225b565b95602088015260408701526060860152608085015260a0840152151560c08301520390f35b3461028057602036600319011261028057604061164f9160043581526007602052206040516115e5816121a0565b60c06115f08361229b565b9283835260018101549283602082015260028201548060408301526003830154918260608201526004840154608082015260ff60066005860154958660a08501520154161515948591015260405196879660c0885260c088019061225b565b94602087015260408601526060850152608084015260a08301520390f35b34610280578060031936011261028057602060405160018152f35b346102805780600319360112610280576116a0612412565b600180546001600160a01b031981169091556000906001600160a01b03167f8be0079c531659141344cd1fd0a4f28419497f9722a3daafe3b4186f6b6457e08280a380f35b3461028057602036600319011261028057600435611701612412565b61170d6006821061247c565b808252600760205260ff60066040842001541661176557808252600760205260408220600601805460ff191660011790557fdafa141a8af958d7a84cabde0f7268b548a11e070a9576865e8ac71d7107bce98280a280f35b60405162461bcd60e51b815260206004820152600e60248201526d416c72656164792061637469766560901b6044820152606490fd5b34610280576080366003190112610280576117b461222f565b6024356001600160a01b038181169291839003610526576117d3612245565b60643593828516809503610526576117e9612412565b600254938385166118965783168015158061188d575b80611882575b80611879575b15611840576001600160601b0360a01b8095161760025583600354161760035516816004541617600455600554161760055580f35b60405162461bcd60e51b8152602060048201526011602482015270496e76616c69642061646472657373657360781b6044820152606490fd5b5085151561180b565b508383161515611805565b508115156117ff565b60405162461bcd60e51b815260206004820152600b60248201526a105b1c9958591e481cd95d60aa1b6044820152606490fd5b34610280578060031936011261028057602060405160038152f35b3461028057806003193601126102805760206040517f00000000000000000000000000000000000000000000000000000000000000008152f35b34610280578060031936011261028057602060ff600e54166040519015158152f35b34610280578060031936011261028057611958612412565b600160ff19600e541617600e5580f35b346102805780600319360112610280576040517f00000000000000000000000000000000000000000000000000000000000000006001600160a01b03168152602090f35b346102805780600319360112610280576119c4612412565b60ff19600e5416600e5580f35b346102805780600319360112610280576003546040516001600160a01b039091168152602090f35b3461028057806003193601126102805760206040516101f48152f35b346102805760203660031901126102805760406020916004358152600c83522054604051908152f35b34610280578060031936011261028057602063ffffffff60065460a01c16604051908152f35b34610280576040366003190112610280576024803567ffffffffffffffff8111610900573660238201121561090057806004013590611aa2826121de565b611aaf60405191826121bc565b82815260209182820185819560051b830101913683116120e25786859101915b8383106120d257506001600160a01b039592507f000000000000000000000000000000000000000000000000000000000000000091505084811633036120a957506004358652600c8352604086205493600d84526040872054918588526008855260408820838952855260408820600481019182549560ff8760a01c166120655751156120525751600290910154611b6691612bb9565b868952600a86526040808a20858b528752808a20828b528752808a20546001600160a81b0319909616958416958617600160a01b1790925586895260088652818920848a528652908820600301548015612023576040516370a0823160e01b815230600482015286818a817f000000000000000000000000000000000000000000000000000000000000000088165afa80156120185782918b91611fe3575b5010611fa85761138881026113871982820401611f9557611c2b61271080920487612d47565b6103e8918281028181048403611ec557829004611c4981888c612be3565b85600354168181611f21575b505085600254169081611f11575b50506101f481026101f31982820401611ec55785600454168381611efe575b5050506105dc80820291820403611eeb570461029b918282029180159381840414841715611ec557611cd7827f0000000000000000000000000000000000000000000000000000000000000000940484612d47565b60858102818104608514851715611ed85782900493611cfa858860065416612d47565b604382029182046043141715611ec557611d40939291611d3b91047f0000000000000000000000000000000000000000000000000000000000000000612d47565b612d47565b85885260078552876040812092604051611d59816121a0565b611d628561229b565b8152600185015488820152600285015460408201526003850154606082015260c060ff6006600488015497886080860152600581015460a086015201541615159101527f00000000000000000000000000000000000000000000000000000000000000001692833b15610c27576040516307b22ee360e21b81526001600160a01b03871660048201526024810191909152879382908290604490829084905af1611ea8575b507e706d4e712e28530b00b7eb917a52cdd384f93a89105f8161b97223b3ae1871918360409252600787526005828b20015490825191825287820152a48184526009815260408420549260018401809411611e9657507fb0b0c60f0267584d50a65485b5eff6babad43c5727703515fde33bb545b191149082855260098152836040862055604051428152a380f35b634e487b7160e01b8552601160045284fd5b611eb491929350612176565b611ec15784908789611e07565b8680fd5b634e487b7160e01b8c5260116004528a8cfd5b634e487b7160e01b8d5260116004528b8dfd5b634e487b7160e01b8b526011600452898bfd5b611f09920490612d47565b8b8083611c82565b611f1a91612d47565b8b80611c63565b611f2a91612d47565b85600354168c813b15610280576040516375003aa160e01b81526001600160a01b038b16600482015260248101849052918290604490829084905af18015611f8a57611f77575b81611c55565b611f83909c919c612176565b9a8c611f71565b6040513d8f823e3d90fd5b634e487b7160e01b8a526011600452888afd5b60405162461bcd60e51b8152600481018790526014818a015273496e73756666696369656e742062616c616e636560601b6044820152606490fd5b809250888092503d8311612011575b611ffc81836121bc565b8101031261200d578190518b611c05565b8980fd5b503d611ff2565b6040513d8c823e3d90fd5b60405162461bcd60e51b8152600481018790526008818a0152674e6f2066756e647360c01b6044820152606490fd5b634e487b7160e01b8a526032600452888afd5b60405162461bcd60e51b8152600481018990526017818c01527f526f756e6420616c726561647920636f6d706c657465640000000000000000006044820152606490fd5b60405163073e64fd60e21b81523360048201526001600160a01b03919091166024820152604490fd5b8235815291810191859101611acf565b8780fd5b346102805780600319360112610280576006546040516001600160a01b039091168152602090f35b3461028057602036600319011261028057602061212c600435612e04565b604051908152f35b34610c275781600319360112610c275760209067ffffffffffffffff7f0000000000000000000000000000000000000000000000000000000000000000168152f35b67ffffffffffffffff811161218a57604052565b634e487b7160e01b600052604160045260246000fd5b60e0810190811067ffffffffffffffff82111761218a57604052565b90601f8019910116810190811067ffffffffffffffff82111761218a57604052565b67ffffffffffffffff811161218a5760051b60200190565b346105265760003660031901126105265760206040516103e88152f35b3461052657600036600319011261052657602060405160858152f35b600435906001600160a01b038216820361052657565b604435906001600160a01b038216820361052657565b919082519283825260005b848110612287575050826000602080949584010152601f8019910116010190565b602081830181015184830182015201612266565b90604051906000835490600182811c90808416968715612362575b602094858410891461234e578798848997989952908160001461232c57506001146122ed575b5050506122eb925003836121bc565b565b600090815285812095935091905b8183106123145750506122eb93508201013880806122dc565b855488840185015294850194879450918301916122fb565b925050506122eb94925060ff191682840152151560051b8201013880806122dc565b634e487b7160e01b85526022600452602485fd5b91607f16916122b6565b606090600319011261052657600435906024359060443590565b6040906003190112610526576004359060243590565b60609060031901126105265760043590602435906044356001600160a01b03811681036105265790565b90815180825260208080930193019160005b8281106123e6575050505090565b8351855293810193928101926001016123d8565b80548210156111815760005260206000200190600090565b6001546001600160a01b0316330361242657565b60405163118cdaa760e01b8152336004820152602490fd5b1561244557565b60405162461bcd60e51b815260206004820152600f60248201526e10dbdb9d1c9858dd081c185d5cd959608a1b6044820152606490fd5b1561248357565b60405162461bcd60e51b815260206004820152600f60248201526e125b9d985b1a59081c1c9bd91d58dd608a1b6044820152606490fd5b156124c157565b60405162461bcd60e51b815260206004820152601060248201526f50726f6475637420696e61637469766560801b6044820152606490fd5b1561250057565b60405162461bcd60e51b815260206004820152600f60248201526e149bdd5b990818dbdb5c1b195d1959608a1b6044820152606490fd5b1561253e57565b60405162461bcd60e51b815260206004820152601b60248201527f496e76616c6964207175616e746974792028312f332f352f31302900000000006044820152606490fd5b60001981146125925760010190565b634e487b7160e01b600052601160045260246000fd5b91908110156111815760051b0190565b9190820180921161259257565b8181029291811591840414171561259257565b90816020910312610526575180151581036105265790565b156125f757565b60405162461bcd60e51b815260206004820152600f60248201526e151c985b9cd9995c8819985a5b1959608a1b6044820152606490fd5b80546801000000000000000081101561218a57612650916001820181556123fa565b819291549060031b91821b91600019901b1916179055565b600260005414612679576002600055565b604051633ee5aeb560e01b8152600490fd5b9091600083156129f1576001600160a01b037f0000000000000000000000000000000000000000000000000000000000000000811694909190853b15610c2757604080516307b22ee360e21b81526001600160a01b03969096166004870152602486019190915293908082604481838a5af191826129e2575b50906129db57828152600792602093808552600691828785200160ff1981541690558651976370a0823160e01b988981528160048201528781602481855afa9081156129d15786916129a4575b50813b156129a057858092602482938c5195869384926357d020cf60e01b845260048401525af1918261298c575b5050612962575b50600190835b838110612936575b50508061292a575b806128fb575b6127af575b505050505050565b5484519586528216600486018190527f000000000000000000000000000000000000000000000000000000000000000083168487602481845afa9687156128f15783976128c2575b5086612804575b506127a7565b85516323b872dd60e01b81526001600160a01b0392831660048201527f00000000000000000000000000000000000000000000000000000000000000009283166024820152604481018890529192859183916064918391905af190816128a5575b50612872575b80806127fe565b7fcfd2c39038d6fe3ab21a6c57369264dd95402956c840486fcb43008a322495cb93519485521692a2388080808061286b565b6128bb90853d871161092c5761091e81836121bc565b5038612865565b9096508481813d83116128ea575b6128da81836121bc565b81010312610526575195386127f7565b503d6128d0565b86513d85823e3d90fd5b5082815416837f00000000000000000000000000000000000000000000000000000000000000001614156127a2565b5082815416151561279c565b80855281875260ff848987200154166129575761295290612583565b61278c565b505050813880612794565b7fa59be52632c4b7921b8b3fbd4b3904513421c74fe4fbdb2f7ceef33b87fe3bf68480a238612786565b61299590612176565b61095d57843861277f565b8580fd5b90508781813d83116129ca575b6129bb81836121bc565b81010312610526575138612751565b503d6129b1565b89513d88823e3d90fd5b5050505050565b6129eb90612176565b38612704565b50505050565b6000818152602090600882526040808220858352835280822090600482019060ff825460a81c16612b7e5760065481516305d3b1d360e41b81527f000000000000000000000000000000000000000000000000000000000000000060048201527f000000000000000000000000000000000000000000000000000000000000000067ffffffffffffffff1660248201526003604482015260a09190911c63ffffffff1660648201526001608482015294808660a481887f00000000000000000000000000000000000000000000000000000000000000006001600160a01b03165af1958615612b7457908892918697612b3d575b50868652600c8152818620889055600d9052842055805460ff60a81b1916600160a81b1790556005018290557f3f627f5e911e5f6d4e28a76a1af48bb55c89492569daa91a48a7330789dd1e5e9080a4565b8180979850819394503d8311612b6d575b612b5881836121bc565b810103126129a0575194938791906005612aeb565b503d612b4e565b82513d87823e3d90fd5b5162461bcd60e51b815260048101859052601560248201527415949188185b1c9958591e481c995c5d595cdd1959605a1b6044820152606490fd5b8115612bc3570690565b634e487b7160e01b600052601260045260246000fd5b8115612bc3570490565b60009080825260209060088252604091828420858552815282842094600286018054908115612d3c57600a9182811015612d3157612c2281809b612bd9565b98600019430190438211612d1d576003015488519087820192408352428a83015260608201528760808201528560a082015260a0815260c0810181811067ffffffffffffffff821117612d095783612c8a938e93612c84938d52519020612bb9565b92612bd9565b885b8b8110612ca157505050505050505050505050565b80612cc3612cbb612cb585612cf4956125c5565b866125b8565b865490612bb9565b898c528689528a8c20888d5289528a8c20908c528852898b20546001600160a01b03168c81612cf9575b5050612583565b612c8c565b612d0291612d47565b388c612ced565b634e487b7160e01b8b52604160045260248bfd5b634e487b7160e01b8a52601160045260248afd5b612c2283809b612bd9565b505050505050505050565b6001600160a01b0391818316151580612dfb575b612d6457505050565b60405163a9059cbb60e01b81526001600160a01b03929092166004830152602482015290602090829060449082906000907f0000000000000000000000000000000000000000000000000000000000000000165af18015612def576122eb91600091612dd1575b506125f0565b612de9915060203d811161092c5761091e81836121bc565b38612dcb565b6040513d6000823e3d90fd5b50801515612d5b565b60008181526009602052604091828220546008602052838320908352602052828220908252600760205282822060c060ff6006865193612e43856121a0565b612e4c8161229b565b855260018101546020860152600281015480988601526003810154606086015260048101546080860152600581015460a0860152015416151591015260ff600482015460a01c16612ebc57600201548203918211612ea8575090565b634e487b7160e01b81526011600452602490fd5b5090509056fea264697066735822122072a9e6bddf7eb28233db5946ab75ac657005e525429bda5c9d57581aa2040fc164736f6c63430008140033","opcodes":"PUSH2 0x180 CALLVALUE PUSH3 0xFFE JUMPI PUSH1 0x1F PUSH3 0x3F51 CODESIZE DUP2 SWAP1 SUB SWAP2 DUP3 ADD PUSH1 0x1F NOT AND DUP4 ADD SWAP2 PUSH1 0x1 PUSH1 0x1 PUSH1 0x40 SHL SUB DUP4 GT DUP5 DUP5 LT OR PUSH3 0xACD JUMPI DUP1 DUP5 SWAP3 PUSH1 0xE0 SWAP5 PUSH1 0x40 MSTORE DUP4 CODECOPY DUP2 ADD SUB SLT PUSH3 0xFFE JUMPI PUSH3 0x4E DUP2 PUSH3 0x1043 JUMP JUMPDEST PUSH1 0x20 DUP3 ADD MLOAD PUSH1 0x1 PUSH1 0x1 PUSH1 0x40 SHL SUB DUP2 AND DUP2 SUB PUSH3 0xFFE JUMPI PUSH1 0x40 DUP4 ADD MLOAD PUSH3 0x77 PUSH1 0x60 DUP6 ADD PUSH3 0x1043 JUMP JUMPDEST PUSH3 0x85 PUSH1 0x80 DUP7 ADD PUSH3 0x1043 JUMP JUMPDEST SWAP2 PUSH3 0xA2 PUSH1 0xC0 PUSH3 0x9A PUSH1 0xA0 DUP10 ADD PUSH3 0x1043 JUMP JUMPDEST SWAP8 ADD PUSH3 0x1043 JUMP JUMPDEST SWAP4 DUP6 PUSH1 0x80 MSTORE PUSH1 0x1 PUSH1 0x0 SSTORE CALLER ISZERO PUSH3 0xFE5 JUMPI PUSH1 0x1 DUP1 SLOAD CALLER PUSH1 0x1 PUSH1 0x1 PUSH1 0xA0 SHL SUB NOT DUP3 AND DUP2 OR SWAP1 SWAP3 SSTORE PUSH1 0x40 MLOAD SWAP8 SWAP2 SWAP1 PUSH1 0x1 PUSH1 0x1 PUSH1 0xA0 SHL SUB AND PUSH32 0x8BE0079C531659141344CD1FD0A4F28419497F9722A3DAAFE3B4186F6B6457E0 PUSH1 0x0 DUP1 LOG3 PUSH1 0x6 SLOAD SWAP7 PUSH1 0x1 PUSH1 0x1 PUSH1 0xA0 SHL SUB DUP6 AND ISZERO PUSH3 0xFAE JUMPI POP PUSH1 0x1 PUSH1 0x1 PUSH1 0xA0 SHL SUB DUP6 AND ISZERO PUSH3 0xF75 JUMPI PUSH1 0x1 PUSH1 0x1 PUSH1 0xA0 SHL SUB DUP9 AND ISZERO PUSH3 0xF3E JUMPI PUSH1 0x1 PUSH1 0x1 PUSH1 0xA0 SHL SUB DUP7 AND ISZERO PUSH3 0xF07 JUMPI PUSH1 0x1 PUSH1 0x1 PUSH1 0xA0 SHL SUB SWAP1 DUP2 AND PUSH2 0x120 MSTORE PUSH2 0x140 SWAP2 SWAP1 SWAP2 MSTORE PUSH2 0x160 SWAP2 SWAP1 SWAP2 MSTORE SWAP1 DUP2 AND PUSH1 0xA0 MSTORE SWAP1 DUP2 AND PUSH1 0xC0 MSTORE PUSH1 0xE0 DUP5 SWAP1 MSTORE PUSH2 0x100 SWAP2 SWAP1 SWAP2 MSTORE PUSH1 0x1 PUSH1 0x1 PUSH1 0xC0 SHL SUB NOT SWAP1 SWAP2 AND SWAP2 AND OR PUSH2 0xC35 PUSH1 0xA6 SHL OR PUSH1 0x6 SSTORE PUSH3 0x199 PUSH3 0x1003 JUMP JUMPDEST PUSH3 0x1A3 PUSH3 0x1023 JUMP JUMPDEST PUSH1 0x5 DUP2 MSTORE PUSH5 0x8C9882A69 PUSH1 0xDB SHL PUSH1 0x20 DUP3 ADD MSTORE DUP2 MSTORE PUSH8 0xDE0B6B3A7640000 PUSH1 0x20 DUP3 ADD MSTORE PUSH2 0x3E8 PUSH1 0x40 DUP3 ADD MSTORE PUSH8 0x16345785D8A0000 PUSH1 0x60 DUP3 ADD MSTORE PUSH8 0x16345785D8A0000 PUSH1 0x80 DUP3 ADD MSTORE PUSH9 0x1B1AE4D6E2EF500000 PUSH1 0xA0 DUP3 ADD MSTORE PUSH1 0x1 PUSH1 0xC0 DUP3 ADD MSTORE PUSH1 0x0 DUP1 MSTORE PUSH1 0x7 PUSH1 0x20 MSTORE PUSH1 0x40 PUSH1 0x0 KECCAK256 SWAP1 DUP1 MLOAD DUP1 MLOAD SWAP1 PUSH1 0x1 DUP1 PUSH1 0x40 SHL SUB DUP3 GT PUSH3 0xACD JUMPI DUP4 SLOAD PUSH1 0x1 DUP2 DUP2 SHR SWAP2 AND DUP1 ISZERO PUSH3 0xEFC JUMPI JUMPDEST PUSH1 0x20 DUP3 LT EQ PUSH3 0xAAC JUMPI PUSH1 0x1F DUP2 GT PUSH3 0xEB3 JUMPI JUMPDEST POP PUSH1 0x20 SWAP1 PUSH1 0x1F DUP4 GT PUSH1 0x1 EQ PUSH3 0xE3F JUMPI SWAP2 DUP1 PUSH1 0x6 SWAP5 SWAP3 PUSH1 0xC0 SWAP5 PUSH1 0x0 SWAP3 PUSH3 0xE33 JUMPI JUMPDEST POP POP DUP2 PUSH1 0x1 SHL SWAP2 PUSH1 0x0 NOT SWAP1 PUSH1 0x3 SHL SHR NOT AND OR DUP5 SSTORE JUMPDEST PUSH1 0x20 DUP2 ADD MLOAD PUSH1 0x1 DUP6 ADD SSTORE PUSH1 0x40 DUP2 ADD MLOAD PUSH1 0x2 DUP6 ADD SSTORE PUSH1 0x60 DUP2 ADD MLOAD PUSH1 0x3 DUP6 ADD SSTORE PUSH1 0x80 DUP2 ADD MLOAD PUSH1 0x4 DUP6 ADD SSTORE PUSH1 0xA0 DUP2 ADD MLOAD PUSH1 0x5 DUP6 ADD SSTORE ADD MLOAD ISZERO ISZERO PUSH1 0xFF DUP1 NOT DUP4 DUP6 ADD SLOAD AND SWAP2 AND OR SWAP2 ADD SSTORE PUSH3 0x2CC PUSH3 0x1003 JUMP JUMPDEST PUSH3 0x2D6 PUSH3 0x1023 JUMP JUMPDEST PUSH1 0x8 DUP2 MSTORE PUSH8 0x13D49251D2539053 PUSH1 0xC2 SHL PUSH1 0x20 DUP3 ADD MSTORE DUP2 MSTORE PUSH8 0xDE0B6B3A7640000 PUSH1 0x20 DUP3 ADD MSTORE PUSH2 0x2710 PUSH1 0x40 DUP3 ADD MSTORE PUSH8 0x3782DACE9D90000 DUP1 PUSH1 0x60 DUP4 ADD MSTORE PUSH1 0x80 DUP3 ADD MSTORE PUSH10 0x10F0CF064DD59200000 PUSH1 0xA0 DUP3 ADD MSTORE PUSH1 0x1 PUSH1 0xC0 DUP3 ADD MSTORE PUSH1 0x1 PUSH1 0x0 MSTORE PUSH1 0x7 PUSH1 0x20 MSTORE PUSH1 0x40 PUSH1 0x0 KECCAK256 DUP2 MLOAD DUP1 MLOAD SWAP1 PUSH1 0x1 DUP1 PUSH1 0x40 SHL SUB DUP3 GT PUSH3 0xACD JUMPI DUP3 SLOAD PUSH1 0x1 DUP2 DUP2 SHR SWAP2 AND DUP1 ISZERO PUSH3 0xE28 JUMPI JUMPDEST PUSH1 0x20 DUP3 LT EQ PUSH3 0xAAC JUMPI PUSH1 0x1F DUP2 GT PUSH3 0xDDF JUMPI JUMPDEST POP PUSH1 0x20 SWAP1 PUSH1 0x1F DUP4 GT PUSH1 0x1 EQ PUSH3 0xD6B JUMPI SWAP2 DUP1 PUSH1 0xC0 SWAP5 SWAP3 PUSH1 0x6 SWAP5 PUSH1 0x0 SWAP3 PUSH3 0xD5F JUMPI JUMPDEST POP POP DUP2 PUSH1 0x1 SHL SWAP2 PUSH1 0x0 NOT SWAP1 PUSH1 0x3 SHL SHR NOT AND OR DUP2 SSTORE JUMPDEST PUSH1 0x20 DUP5 ADD MLOAD PUSH1 0x1 DUP3 ADD SSTORE PUSH1 0x40 DUP5 ADD MLOAD PUSH1 0x2 DUP3 ADD SSTORE PUSH1 0x60 DUP5 ADD MLOAD PUSH1 0x3 DUP3 ADD SSTORE PUSH1 0x80 DUP5 ADD MLOAD PUSH1 0x4 DUP3 ADD SSTORE PUSH1 0xA0 DUP5 ADD MLOAD PUSH1 0x5 DUP3 ADD SSTORE ADD SWAP2 ADD MLOAD ISZERO ISZERO PUSH1 0xFF DUP1 NOT DUP4 SLOAD AND SWAP2 AND OR SWAP1 SSTORE PUSH3 0x3FA PUSH3 0x1003 JUMP JUMPDEST PUSH3 0x404 PUSH3 0x1023 JUMP JUMPDEST PUSH1 0x7 DUP2 MSTORE PUSH7 0x5052454D49554D PUSH1 0xC8 SHL PUSH1 0x20 DUP3 ADD MSTORE DUP2 MSTORE PUSH9 0x1158E460913D00000 PUSH1 0x20 DUP3 ADD MSTORE PUSH2 0x3E8 PUSH1 0x40 DUP3 ADD MSTORE PUSH8 0x6F05B59D3B20000 DUP1 PUSH1 0x60 DUP4 ADD MSTORE PUSH1 0x80 DUP3 ADD MSTORE PUSH10 0x21E19E0C9BAB2400000 PUSH1 0xA0 DUP3 ADD MSTORE PUSH1 0x1 PUSH1 0xC0 DUP3 ADD MSTORE PUSH1 0x2 PUSH1 0x0 MSTORE PUSH1 0x7 PUSH1 0x20 MSTORE PUSH1 0x40 PUSH1 0x0 KECCAK256 DUP2 MLOAD DUP1 MLOAD SWAP1 PUSH1 0x1 DUP1 PUSH1 0x40 SHL SUB DUP3 GT PUSH3 0xACD JUMPI DUP3 SLOAD PUSH1 0x1 DUP2 DUP2 SHR SWAP2 AND DUP1 ISZERO PUSH3 0xD54 JUMPI JUMPDEST PUSH1 0x20 DUP3 LT EQ PUSH3 0xAAC JUMPI PUSH1 0x1F DUP2 GT PUSH3 0xD0B JUMPI JUMPDEST POP PUSH1 0x20 SWAP1 PUSH1 0x1F DUP4 GT PUSH1 0x1 EQ PUSH3 0xC97 JUMPI SWAP2 DUP1 PUSH1 0xC0 SWAP5 SWAP3 PUSH1 0x6 SWAP5 PUSH1 0x0 SWAP3 PUSH3 0xC8B JUMPI JUMPDEST POP POP DUP2 PUSH1 0x1 SHL SWAP2 PUSH1 0x0 NOT SWAP1 PUSH1 0x3 SHL SHR NOT AND OR DUP2 SSTORE JUMPDEST PUSH1 0x20 DUP5 ADD MLOAD PUSH1 0x1 DUP3 ADD SSTORE PUSH1 0x40 DUP5 ADD MLOAD PUSH1 0x2 DUP3 ADD SSTORE PUSH1 0x60 DUP5 ADD MLOAD PUSH1 0x3 DUP3 ADD SSTORE PUSH1 0x80 DUP5 ADD MLOAD PUSH1 0x4 DUP3 ADD SSTORE PUSH1 0xA0 DUP5 ADD MLOAD PUSH1 0x5 DUP3 ADD SSTORE ADD SWAP2 ADD MLOAD ISZERO ISZERO PUSH1 0xFF DUP1 NOT DUP4 SLOAD AND SWAP2 AND OR SWAP1 SSTORE PUSH3 0x528 PUSH3 0x1003 JUMP JUMPDEST PUSH3 0x532 PUSH3 0x1023 JUMP JUMPDEST PUSH1 0x5 DUP2 MSTORE PUSH5 0x454C495445 PUSH1 0xD8 SHL PUSH1 0x20 DUP3 ADD MSTORE DUP2 MSTORE PUSH8 0x8AC7230489E80000 PUSH1 0x20 DUP3 ADD MSTORE PUSH2 0x2710 PUSH1 0x40 DUP3 ADD MSTORE PUSH8 0x7A1FE1602770000 DUP1 PUSH1 0x60 DUP4 ADD MSTORE PUSH1 0x80 DUP3 ADD MSTORE PUSH10 0xA968163F0A57B400000 PUSH1 0xA0 DUP3 ADD MSTORE PUSH1 0x1 PUSH1 0xC0 DUP3 ADD MSTORE PUSH1 0x3 PUSH1 0x0 MSTORE PUSH1 0x7 PUSH1 0x20 MSTORE PUSH1 0x40 PUSH1 0x0 KECCAK256 DUP2 MLOAD DUP1 MLOAD SWAP1 PUSH1 0x1 DUP1 PUSH1 0x40 SHL SUB DUP3 GT PUSH3 0xACD JUMPI DUP3 SLOAD PUSH1 0x1 DUP2 DUP2 SHR SWAP2 AND DUP1 ISZERO PUSH3 0xC80 JUMPI JUMPDEST PUSH1 0x20 DUP3 LT EQ PUSH3 0xAAC JUMPI PUSH1 0x1F DUP2 GT PUSH3 0xC37 JUMPI JUMPDEST POP PUSH1 0x20 SWAP1 PUSH1 0x1F DUP4 GT PUSH1 0x1 EQ PUSH3 0xBC3 JUMPI SWAP2 DUP1 PUSH1 0xC0 SWAP5 SWAP3 PUSH1 0x6 SWAP5 PUSH1 0x0 SWAP3 PUSH3 0xBB7 JUMPI JUMPDEST POP POP DUP2 PUSH1 0x1 SHL SWAP2 PUSH1 0x0 NOT SWAP1 PUSH1 0x3 SHL SHR NOT AND OR DUP2 SSTORE JUMPDEST PUSH1 0x20 DUP5 ADD MLOAD PUSH1 0x1 DUP3 ADD SSTORE PUSH1 0x40 DUP5 ADD MLOAD PUSH1 0x2 DUP3 ADD SSTORE PUSH1 0x60 DUP5 ADD MLOAD PUSH1 0x3 DUP3 ADD SSTORE PUSH1 0x80 DUP5 ADD MLOAD PUSH1 0x4 DUP3 ADD SSTORE PUSH1 0xA0 DUP5 ADD MLOAD PUSH1 0x5 DUP3 ADD SSTORE ADD SWAP2 ADD MLOAD ISZERO ISZERO PUSH1 0xFF DUP1 NOT DUP4 SLOAD AND SWAP2 AND OR SWAP1 SSTORE PUSH3 0x653 PUSH3 0x1003 JUMP JUMPDEST PUSH3 0x65D PUSH3 0x1023 JUMP JUMPDEST PUSH1 0x3 DUP2 MSTORE PUSH3 0x56495 PUSH1 0xEC SHL PUSH1 0x20 DUP3 ADD MSTORE DUP2 MSTORE PUSH9 0xAD78EBC5AC6200000 PUSH1 0x20 DUP3 ADD MSTORE PUSH2 0x3E8 PUSH1 0x40 DUP3 ADD MSTORE PUSH8 0xBCBCE7F1B150000 DUP1 PUSH1 0x60 DUP4 ADD MSTORE PUSH1 0x80 DUP3 ADD MSTORE PUSH10 0x152D02C7E14AF6800000 PUSH1 0xA0 DUP3 ADD MSTORE PUSH1 0x1 PUSH1 0xC0 DUP3 ADD MSTORE PUSH1 0x4 PUSH1 0x0 MSTORE PUSH1 0x7 PUSH1 0x20 MSTORE PUSH1 0x40 PUSH1 0x0 KECCAK256 DUP2 MLOAD DUP1 MLOAD SWAP1 PUSH1 0x1 DUP1 PUSH1 0x40 SHL SUB DUP3 GT PUSH3 0xACD JUMPI DUP3 SLOAD PUSH1 0x1 DUP2 DUP2 SHR SWAP2 AND DUP1 ISZERO PUSH3 0xBAC JUMPI JUMPDEST PUSH1 0x20 DUP3 LT EQ PUSH3 0xAAC JUMPI PUSH1 0x1F DUP2 GT PUSH3 0xB63 JUMPI JUMPDEST POP PUSH1 0x20 SWAP1 PUSH1 0x1F DUP4 GT PUSH1 0x1 EQ PUSH3 0xAEF JUMPI SWAP2 DUP1 PUSH1 0xC0 SWAP5 SWAP3 PUSH1 0x6 SWAP5 PUSH1 0x0 SWAP3 PUSH3 0xAE3 JUMPI JUMPDEST POP POP DUP2 PUSH1 0x1 SHL SWAP2 PUSH1 0x0 NOT SWAP1 PUSH1 0x3 SHL SHR NOT AND OR DUP2 SSTORE JUMPDEST PUSH1 0x20 DUP5 ADD MLOAD PUSH1 0x1 DUP3 ADD SSTORE PUSH1 0x40 DUP5 ADD MLOAD PUSH1 0x2 DUP3 ADD SSTORE PUSH1 0x60 DUP5 ADD MLOAD PUSH1 0x3 DUP3 ADD SSTORE PUSH1 0x80 DUP5 ADD MLOAD PUSH1 0x4 DUP3 ADD SSTORE PUSH1 0xA0 DUP5 ADD MLOAD PUSH1 0x5 DUP3 ADD SSTORE ADD SWAP2 ADD MLOAD ISZERO ISZERO PUSH1 0xFF DUP1 NOT DUP4 SLOAD AND SWAP2 AND OR SWAP1 SSTORE PUSH3 0x77D PUSH3 0x1003 JUMP JUMPDEST PUSH3 0x787 PUSH3 0x1023 JUMP JUMPDEST PUSH1 0x9 DUP2 MSTORE PUSH9 0x424C41434B424C4F4B PUSH1 0xB8 SHL PUSH1 0x20 DUP3 ADD MSTORE DUP2 MSTORE PUSH9 0xAD78EBC5AC6200000 PUSH1 0x20 DUP3 ADD MSTORE PUSH2 0x2710 PUSH1 0x40 DUP3 ADD MSTORE PUSH8 0xDE0B6B3A7640000 PUSH1 0x60 DUP3 ADD MSTORE PUSH8 0xDE0B6B3A7640000 PUSH1 0x80 DUP3 ADD MSTORE PUSH10 0xD3C21BCECCEDA1000000 PUSH1 0xA0 DUP3 ADD MSTORE PUSH1 0x1 PUSH1 0xC0 DUP3 ADD MSTORE PUSH1 0x5 PUSH1 0x0 MSTORE PUSH1 0x7 PUSH1 0x20 MSTORE PUSH1 0x40 PUSH1 0x0 KECCAK256 DUP2 MLOAD DUP1 MLOAD SWAP1 PUSH1 0x1 DUP1 PUSH1 0x40 SHL SUB DUP3 GT PUSH3 0xACD JUMPI DUP3 SLOAD PUSH1 0x1 DUP2 DUP2 SHR SWAP2 AND DUP1 ISZERO PUSH3 0xAC2 JUMPI JUMPDEST PUSH1 0x20 DUP3 LT EQ PUSH3 0xAAC JUMPI PUSH1 0x1F DUP2 GT PUSH3 0xA63 JUMPI JUMPDEST POP PUSH1 0x20 SWAP1 PUSH1 0x1F DUP4 GT PUSH1 0x1 EQ PUSH3 0x9EF JUMPI SWAP2 DUP1 PUSH1 0xC0 SWAP5 SWAP3 PUSH1 0x6 SWAP5 PUSH1 0x0 SWAP3 PUSH3 0x9E3 JUMPI JUMPDEST POP POP DUP2 PUSH1 0x1 SHL SWAP2 PUSH1 0x0 NOT SWAP1 PUSH1 0x3 SHL SHR NOT AND OR DUP2 SSTORE JUMPDEST PUSH1 0x20 DUP5 ADD MLOAD PUSH1 0x1 DUP3 ADD SSTORE PUSH1 0x40 DUP5 ADD MLOAD PUSH1 0x2 DUP3 ADD SSTORE PUSH1 0x60 DUP5 ADD MLOAD PUSH1 0x3 DUP3 ADD SSTORE PUSH1 0x80 DUP5 ADD MLOAD PUSH1 0x4 DUP3 ADD SSTORE PUSH1 0xA0 DUP5 ADD MLOAD PUSH1 0x5 DUP3 ADD SSTORE ADD SWAP2 ADD MLOAD ISZERO ISZERO PUSH1 0xFF DUP1 NOT DUP4 SLOAD AND SWAP2 AND OR SWAP1 SSTORE PUSH1 0x0 JUMPDEST PUSH1 0x6 DUP2 LT PUSH3 0x97C JUMPI PUSH1 0x40 MLOAD PUSH2 0x2EF8 SWAP1 DUP2 PUSH3 0x1059 DUP3 CODECOPY PUSH1 0x80 MLOAD DUP2 PUSH2 0x1AE4 ADD MSTORE PUSH1 0xA0 MLOAD DUP2 DUP2 DUP2 PUSH2 0x34A ADD MSTORE DUP2 DUP2 PUSH2 0x483 ADD MSTORE DUP2 DUP2 PUSH2 0x6F8 ADD MSTORE DUP2 DUP2 PUSH2 0xEC8 ADD MSTORE DUP2 DUP2 PUSH2 0x1BD3 ADD MSTORE DUP2 DUP2 PUSH2 0x27C0 ADD MSTORE PUSH2 0x2D97 ADD MSTORE PUSH1 0xC0 MLOAD DUP2 DUP2 DUP2 PUSH2 0x145F ADD MSTORE DUP2 DUP2 PUSH2 0x1DA7 ADD MSTORE PUSH2 0x269F ADD MSTORE PUSH1 0xE0 MLOAD DUP2 DUP2 DUP2 PUSH2 0x197D ADD MSTORE DUP2 DUP2 PUSH2 0x1CB0 ADD MSTORE DUP2 DUP2 PUSH2 0x2822 ADD MSTORE PUSH2 0x2903 ADD MSTORE PUSH2 0x100 MLOAD DUP2 DUP2 DUP2 PUSH2 0xD38 ADD MSTORE PUSH2 0x1D17 ADD MSTORE PUSH2 0x120 MLOAD DUP2 DUP2 DUP2 PUSH2 0x12D9 ADD MSTORE PUSH2 0x2AAF ADD MSTORE PUSH2 0x140 MLOAD DUP2 DUP2 DUP2 PUSH2 0x2152 ADD MSTORE PUSH2 0x2A59 ADD MSTORE PUSH2 0x160 MLOAD DUP2 DUP2 DUP2 PUSH2 0x18FB ADD MSTORE PUSH2 0x2A33 ADD MSTORE RETURN JUMPDEST DUP1 PUSH1 0x0 MSTORE PUSH1 0x9 PUSH1 0x20 MSTORE PUSH1 0x1 PUSH1 0x40 PUSH1 0x0 KECCAK256 SSTORE PUSH1 0x1 DUP2 PUSH32 0xB0B0C60F0267584D50A65485B5EFF6BABAD43C5727703515FDE33BB545B19114 PUSH1 0x20 PUSH1 0x40 MLOAD TIMESTAMP DUP2 MSTORE LOG3 PUSH1 0x0 NOT DUP2 EQ PUSH3 0x9CD JUMPI PUSH1 0x1 ADD PUSH3 0x8AE JUMP JUMPDEST PUSH4 0x4E487B71 PUSH1 0xE0 SHL PUSH1 0x0 MSTORE PUSH1 0x11 PUSH1 0x4 MSTORE PUSH1 0x24 PUSH1 0x0 REVERT JUMPDEST ADD MLOAD SWAP1 POP CODESIZE DUP1 PUSH3 0x852 JUMP JUMPDEST SWAP1 DUP4 PUSH1 0x0 MSTORE PUSH1 0x20 PUSH1 0x0 KECCAK256 SWAP2 PUSH1 0x0 JUMPDEST PUSH1 0x1F NOT DUP6 AND DUP2 LT PUSH3 0xA4A JUMPI POP SWAP3 PUSH1 0xC0 SWAP5 SWAP3 PUSH1 0x1 SWAP3 PUSH1 0x6 SWAP6 DUP4 PUSH1 0x1F NOT DUP2 AND LT PUSH3 0xA30 JUMPI JUMPDEST POP POP POP DUP2 SHL ADD DUP2 SSTORE PUSH3 0x867 JUMP JUMPDEST ADD MLOAD PUSH1 0x0 NOT PUSH1 0xF8 DUP5 PUSH1 0x3 SHL AND SHR NOT AND SWAP1 SSTORE CODESIZE DUP1 DUP1 PUSH3 0xA22 JUMP JUMPDEST SWAP2 SWAP3 PUSH1 0x20 PUSH1 0x1 DUP2 SWAP3 DUP7 DUP6 ADD MLOAD DUP2 SSTORE ADD SWAP5 ADD SWAP3 ADD PUSH3 0x9FD JUMP JUMPDEST DUP4 PUSH1 0x0 MSTORE PUSH1 0x20 PUSH1 0x0 KECCAK256 PUSH1 0x1F DUP5 ADD PUSH1 0x5 SHR DUP2 ADD PUSH1 0x20 DUP6 LT PUSH3 0xAA4 JUMPI JUMPDEST PUSH1 0x1F DUP4 ADD PUSH1 0x5 SHR DUP3 ADD DUP2 LT PUSH3 0xA97 JUMPI POP POP PUSH3 0x830 JUMP JUMPDEST PUSH1 0x0 DUP2 SSTORE PUSH1 0x1 ADD PUSH3 0xA7F JUMP JUMPDEST POP DUP1 PUSH3 0xA7F JUMP JUMPDEST PUSH4 0x4E487B71 PUSH1 0xE0 SHL PUSH1 0x0 MSTORE PUSH1 0x22 PUSH1 0x4 MSTORE PUSH1 0x24 PUSH1 0x0 REVERT JUMPDEST SWAP1 PUSH1 0x7F AND SWAP1 PUSH3 0x81C JUMP JUMPDEST PUSH4 0x4E487B71 PUSH1 0xE0 SHL PUSH1 0x0 MSTORE PUSH1 0x41 PUSH1 0x4 MSTORE PUSH1 0x24 PUSH1 0x0 REVERT JUMPDEST ADD MLOAD SWAP1 POP CODESIZE DUP1 PUSH3 0x71A JUMP JUMPDEST SWAP1 DUP4 PUSH1 0x0 MSTORE PUSH1 0x20 PUSH1 0x0 KECCAK256 SWAP2 PUSH1 0x0 JUMPDEST PUSH1 0x1F NOT DUP6 AND DUP2 LT PUSH3 0xB4A JUMPI POP SWAP3 PUSH1 0xC0 SWAP5 SWAP3 PUSH1 0x1 SWAP3 PUSH1 0x6 SWAP6 DUP4 PUSH1 0x1F NOT DUP2 AND LT PUSH3 0xB30 JUMPI JUMPDEST POP POP POP DUP2 SHL ADD DUP2 SSTORE PUSH3 0x72F JUMP JUMPDEST ADD MLOAD PUSH1 0x0 NOT PUSH1 0xF8 DUP5 PUSH1 0x3 SHL AND SHR NOT AND SWAP1 SSTORE CODESIZE DUP1 DUP1 PUSH3 0xB22 JUMP JUMPDEST SWAP2 SWAP3 PUSH1 0x20 PUSH1 0x1 DUP2 SWAP3 DUP7 DUP6 ADD MLOAD DUP2 SSTORE ADD SWAP5 ADD SWAP3 ADD PUSH3 0xAFD JUMP JUMPDEST DUP4 PUSH1 0x0 MSTORE PUSH1 0x20 PUSH1 0x0 KECCAK256 PUSH1 0x1F DUP5 ADD PUSH1 0x5 SHR DUP2 ADD PUSH1 0x20 DUP6 LT PUSH3 0xBA4 JUMPI JUMPDEST PUSH1 0x1F DUP4 ADD PUSH1 0x5 SHR DUP3 ADD DUP2 LT PUSH3 0xB97 JUMPI POP POP PUSH3 0x6F8 JUMP JUMPDEST PUSH1 0x0 DUP2 SSTORE PUSH1 0x1 ADD PUSH3 0xB7F JUMP JUMPDEST POP DUP1 PUSH3 0xB7F JUMP JUMPDEST SWAP1 PUSH1 0x7F AND SWAP1 PUSH3 0x6E4 JUMP JUMPDEST ADD MLOAD SWAP1 POP CODESIZE DUP1 PUSH3 0x5F0 JUMP JUMPDEST SWAP1 DUP4 PUSH1 0x0 MSTORE PUSH1 0x20 PUSH1 0x0 KECCAK256 SWAP2 PUSH1 0x0 JUMPDEST PUSH1 0x1F NOT DUP6 AND DUP2 LT PUSH3 0xC1E JUMPI POP SWAP3 PUSH1 0xC0 SWAP5 SWAP3 PUSH1 0x1 SWAP3 PUSH1 0x6 SWAP6 DUP4 PUSH1 0x1F NOT DUP2 AND LT PUSH3 0xC04 JUMPI JUMPDEST POP POP POP DUP2 SHL ADD DUP2 SSTORE PUSH3 0x605 JUMP JUMPDEST ADD MLOAD PUSH1 0x0 NOT PUSH1 0xF8 DUP5 PUSH1 0x3 SHL AND SHR NOT AND SWAP1 SSTORE CODESIZE DUP1 DUP1 PUSH3 0xBF6 JUMP JUMPDEST SWAP2 SWAP3 PUSH1 0x20 PUSH1 0x1 DUP2 SWAP3 DUP7 DUP6 ADD MLOAD DUP2 SSTORE ADD SWAP5 ADD SWAP3 ADD PUSH3 0xBD1 JUMP JUMPDEST DUP4 PUSH1 0x0 MSTORE PUSH1 0x20 PUSH1 0x0 KECCAK256 PUSH1 0x1F DUP5 ADD PUSH1 0x5 SHR DUP2 ADD PUSH1 0x20 DUP6 LT PUSH3 0xC78 JUMPI JUMPDEST PUSH1 0x1F DUP4 ADD PUSH1 0x5 SHR DUP3 ADD DUP2 LT PUSH3 0xC6B JUMPI POP POP PUSH3 0x5CE JUMP JUMPDEST PUSH1 0x0 DUP2 SSTORE PUSH1 0x1 ADD PUSH3 0xC53 JUMP JUMPDEST POP DUP1 PUSH3 0xC53 JUMP JUMPDEST SWAP1 PUSH1 0x7F AND SWAP1 PUSH3 0x5BA JUMP JUMPDEST ADD MLOAD SWAP1 POP CODESIZE DUP1 PUSH3 0x4C5 JUMP JUMPDEST SWAP1 DUP4 PUSH1 0x0 MSTORE PUSH1 0x20 PUSH1 0x0 KECCAK256 SWAP2 PUSH1 0x0 JUMPDEST PUSH1 0x1F NOT DUP6 AND DUP2 LT PUSH3 0xCF2 JUMPI POP SWAP3 PUSH1 0xC0 SWAP5 SWAP3 PUSH1 0x1 SWAP3 PUSH1 0x6 SWAP6 DUP4 PUSH1 0x1F NOT DUP2 AND LT PUSH3 0xCD8 JUMPI JUMPDEST POP POP POP DUP2 SHL ADD DUP2 SSTORE PUSH3 0x4DA JUMP JUMPDEST ADD MLOAD PUSH1 0x0 NOT PUSH1 0xF8 DUP5 PUSH1 0x3 SHL AND SHR NOT AND SWAP1 SSTORE CODESIZE DUP1 DUP1 PUSH3 0xCCA JUMP JUMPDEST SWAP2 SWAP3 PUSH1 0x20 PUSH1 0x1 DUP2 SWAP3 DUP7 DUP6 ADD MLOAD DUP2 SSTORE ADD SWAP5 ADD SWAP3 ADD PUSH3 0xCA5 JUMP JUMPDEST DUP4 PUSH1 0x0 MSTORE PUSH1 0x20 PUSH1 0x0 KECCAK256 PUSH1 0x1F DUP5 ADD PUSH1 0x5 SHR DUP2 ADD PUSH1 0x20 DUP6 LT PUSH3 0xD4C JUMPI JUMPDEST PUSH1 0x1F DUP4 ADD PUSH1 0x5 SHR DUP3 ADD DUP2 LT PUSH3 0xD3F JUMPI POP POP PUSH3 0x4A3 JUMP JUMPDEST PUSH1 0x0 DUP2 SSTORE PUSH1 0x1 ADD PUSH3 0xD27 JUMP JUMPDEST POP DUP1 PUSH3 0xD27 JUMP JUMPDEST SWAP1 PUSH1 0x7F AND SWAP1 PUSH3 0x48F JUMP JUMPDEST ADD MLOAD SWAP1 POP CODESIZE DUP1 PUSH3 0x397 JUMP JUMPDEST SWAP1 DUP4 PUSH1 0x0 MSTORE PUSH1 0x20 PUSH1 0x0 KECCAK256 SWAP2 PUSH1 0x0 JUMPDEST PUSH1 0x1F NOT DUP6 AND DUP2 LT PUSH3 0xDC6 JUMPI POP SWAP3 PUSH1 0xC0 SWAP5 SWAP3 PUSH1 0x1 SWAP3 PUSH1 0x6 SWAP6 DUP4 PUSH1 0x1F NOT DUP2 AND LT PUSH3 0xDAC JUMPI JUMPDEST POP POP POP DUP2 SHL ADD DUP2 SSTORE PUSH3 0x3AC JUMP JUMPDEST ADD MLOAD PUSH1 0x0 NOT PUSH1 0xF8 DUP5 PUSH1 0x3 SHL AND SHR NOT AND SWAP1 SSTORE CODESIZE DUP1 DUP1 PUSH3 0xD9E JUMP JUMPDEST SWAP2 SWAP3 PUSH1 0x20 PUSH1 0x1 DUP2 SWAP3 DUP7 DUP6 ADD MLOAD DUP2 SSTORE ADD SWAP5 ADD SWAP3 ADD PUSH3 0xD79 JUMP JUMPDEST DUP4 PUSH1 0x0 MSTORE PUSH1 0x20 PUSH1 0x0 KECCAK256 PUSH1 0x1F DUP5 ADD PUSH1 0x5 SHR DUP2 ADD PUSH1 0x20 DUP6 LT PUSH3 0xE20 JUMPI JUMPDEST PUSH1 0x1F DUP4 ADD PUSH1 0x5 SHR DUP3 ADD DUP2 LT PUSH3 0xE13 JUMPI POP POP PUSH3 0x375 JUMP JUMPDEST PUSH1 0x0 DUP2 SSTORE PUSH1 0x1 ADD PUSH3 0xDFB JUMP JUMPDEST POP DUP1 PUSH3 0xDFB JUMP JUMPDEST SWAP1 PUSH1 0x7F AND SWAP1 PUSH3 0x361 JUMP JUMPDEST ADD MLOAD SWAP1 POP CODESIZE DUP1 PUSH3 0x268 JUMP JUMPDEST SWAP1 DUP5 PUSH1 0x0 MSTORE PUSH1 0x20 PUSH1 0x0 KECCAK256 SWAP2 PUSH1 0x0 JUMPDEST PUSH1 0x1F NOT DUP6 AND DUP2 LT PUSH3 0xE9A JUMPI POP SWAP3 PUSH1 0x6 SWAP5 SWAP3 PUSH1 0x1 SWAP3 PUSH1 0xC0 SWAP6 DUP4 PUSH1 0x1F NOT DUP2 AND LT PUSH3 0xE80 JUMPI JUMPDEST POP POP POP DUP2 SHL ADD DUP5 SSTORE PUSH3 0x27D JUMP JUMPDEST ADD MLOAD PUSH1 0x0 NOT PUSH1 0xF8 DUP5 PUSH1 0x3 SHL AND SHR NOT AND SWAP1 SSTORE CODESIZE DUP1 DUP1 PUSH3 0xE72 JUMP JUMPDEST SWAP2 SWAP3 PUSH1 0x20 PUSH1 0x1 DUP2 SWAP3 DUP7 DUP6 ADD MLOAD DUP2 SSTORE ADD SWAP5 ADD SWAP3 ADD PUSH3 0xE4D JUMP JUMPDEST DUP5 PUSH1 0x0 MSTORE PUSH1 0x20 PUSH1 0x0 KECCAK256 PUSH1 0x1F DUP5 ADD PUSH1 0x5 SHR DUP2 ADD PUSH1 0x20 DUP6 LT PUSH3 0xEF4 JUMPI JUMPDEST PUSH1 0x1F DUP4 ADD PUSH1 0x5 SHR DUP3 ADD DUP2 LT PUSH3 0xEE7 JUMPI POP POP PUSH3 0x246 JUMP JUMPDEST PUSH1 0x0 DUP2 SSTORE PUSH1 0x1 ADD PUSH3 0xECF JUMP JUMPDEST POP DUP1 PUSH3 0xECF JUMP JUMPDEST SWAP1 PUSH1 0x7F AND SWAP1 PUSH3 0x232 JUMP JUMPDEST PUSH1 0x40 MLOAD PUSH3 0x461BCD PUSH1 0xE5 SHL DUP2 MSTORE PUSH1 0x20 PUSH1 0x4 DUP3 ADD MSTORE PUSH1 0xF PUSH1 0x24 DUP3 ADD MSTORE PUSH15 0x24B73B30B634B2103830B93A3732B9 PUSH1 0x89 SHL PUSH1 0x44 DUP3 ADD MSTORE PUSH1 0x64 SWAP1 REVERT JUMPDEST PUSH1 0x40 MLOAD PUSH3 0x461BCD PUSH1 0xE5 SHL DUP2 MSTORE PUSH1 0x20 PUSH1 0x4 DUP3 ADD MSTORE PUSH1 0xF PUSH1 0x24 DUP3 ADD MSTORE PUSH15 0x24B73B30B634B2103337BAB73232B9 PUSH1 0x89 SHL PUSH1 0x44 DUP3 ADD MSTORE PUSH1 0x64 SWAP1 REVERT JUMPDEST PUSH1 0x40 MLOAD PUSH3 0x461BCD PUSH1 0xE5 SHL DUP2 MSTORE PUSH1 0x20 PUSH1 0x4 DUP3 ADD MSTORE PUSH1 0x11 PUSH1 0x24 DUP3 ADD MSTORE PUSH17 0x24B73B30B634B210272C26103A37B5B2B7 PUSH1 0x79 SHL PUSH1 0x44 DUP3 ADD MSTORE PUSH1 0x64 SWAP1 REVERT JUMPDEST PUSH3 0x461BCD PUSH1 0xE5 SHL DUP2 MSTORE PUSH1 0x20 PUSH1 0x4 DUP3 ADD MSTORE PUSH1 0x12 PUSH1 0x24 DUP3 ADD MSTORE PUSH18 0x24B73B30B634B21039BA30B13632B1B7B4B7 PUSH1 0x71 SHL PUSH1 0x44 DUP3 ADD MSTORE PUSH1 0x64 SWAP1 REVERT JUMPDEST PUSH1 0x40 MLOAD PUSH4 0x1E4FBDF7 PUSH1 0xE0 SHL DUP2 MSTORE PUSH1 0x0 PUSH1 0x4 DUP3 ADD MSTORE PUSH1 0x24 SWAP1 REVERT JUMPDEST PUSH1 0x0 DUP1 REVERT JUMPDEST PUSH1 0x40 MLOAD SWAP1 PUSH1 0xE0 DUP3 ADD PUSH1 0x1 PUSH1 0x1 PUSH1 0x40 SHL SUB DUP2 GT DUP4 DUP3 LT OR PUSH3 0xACD JUMPI PUSH1 0x40 MSTORE JUMP JUMPDEST PUSH1 0x40 DUP1 MLOAD SWAP2 SWAP1 DUP3 ADD PUSH1 0x1 PUSH1 0x1 PUSH1 0x40 SHL SUB DUP2 GT DUP4 DUP3 LT OR PUSH3 0xACD JUMPI PUSH1 0x40 MSTORE JUMP JUMPDEST MLOAD SWAP1 PUSH1 0x1 PUSH1 0x1 PUSH1 0xA0 SHL SUB DUP3 AND DUP3 SUB PUSH3 0xFFE JUMPI JUMP INVALID PUSH1 0x80 DUP1 PUSH1 0x40 MSTORE PUSH1 0x4 CALLDATASIZE LT ISZERO PUSH2 0x13 JUMPI PUSH1 0x0 DUP1 REVERT JUMPDEST PUSH1 0x0 DUP1 CALLDATALOAD PUSH1 0xE0 SHR SWAP2 DUP3 PUSH4 0x9C1BA2E EQ PUSH2 0x2134 JUMPI POP DUP2 PUSH4 0xCC7B2A9 EQ PUSH2 0x210E JUMPI DUP2 PUSH4 0x182BE553 EQ PUSH2 0x20E6 JUMPI DUP2 PUSH4 0x1FE543E3 EQ PUSH2 0x1A64 JUMPI DUP2 PUSH4 0x24F74697 EQ PUSH2 0x1A3E JUMPI DUP2 PUSH4 0x37F69BF5 EQ PUSH2 0x442 JUMPI DUP2 PUSH4 0x4192BF94 EQ PUSH2 0x442 JUMPI DUP2 PUSH4 0x42B511C4 EQ PUSH2 0x1A15 JUMPI DUP2 PUSH4 0x43F4DABE EQ PUSH2 0x19F9 JUMPI DUP2 PUSH4 0x4644EA4B EQ PUSH2 0x19D1 JUMPI DUP2 PUSH4 0x4A4E3BD5 EQ PUSH2 0x19AC JUMPI DUP2 PUSH4 0x4D853EE5 EQ PUSH2 0x1968 JUMPI DUP2 PUSH4 0x51858E27 EQ PUSH2 0x1940 JUMPI DUP2 PUSH4 0x5C975ABB EQ PUSH2 0x191E JUMPI DUP2 PUSH4 0x5F0B764F EQ PUSH2 0x252 JUMPI DUP2 PUSH4 0x61728F39 EQ PUSH2 0x18E4 JUMPI DUP2 PUSH4 0x67F082B0 EQ PUSH2 0x18C9 JUMPI DUP2 PUSH4 0x6D5A730C EQ PUSH2 0x179B JUMPI DUP2 PUSH4 0x6E0E5332 EQ PUSH2 0x16E5 JUMPI DUP2 PUSH4 0x715018A6 EQ PUSH2 0x1688 JUMPI DUP2 PUSH4 0x72CF6E34 EQ PUSH2 0x166D JUMPI DUP2 PUSH4 0x79A85E6C EQ PUSH2 0x15B7 JUMPI DUP2 PUSH4 0x7ACC0B20 EQ PUSH2 0x152D JUMPI DUP2 PUSH4 0x7F44A9BB EQ PUSH2 0x1511 JUMPI DUP2 PUSH4 0x80B70E37 EQ PUSH2 0x14D2 JUMPI DUP2 PUSH4 0x8542B336 EQ PUSH2 0x14AA JUMPI DUP2 PUSH4 0x882ECB10 EQ PUSH2 0x148E JUMPI DUP2 PUSH4 0x89EF723B EQ PUSH2 0x144A JUMPI DUP2 PUSH4 0x8A9BB02A EQ PUSH2 0x13E1 JUMPI DUP2 PUSH4 0x8DA5CB5B EQ PUSH2 0x13B9 JUMPI DUP2 PUSH4 0x976286E2 EQ PUSH2 0x139E JUMPI DUP2 PUSH4 0x9A2B3012 EQ PUSH2 0x1308 JUMPI DUP2 PUSH4 0xA3E56FA8 EQ PUSH2 0x12C4 JUMPI DUP2 PUSH4 0xA4EB718C EQ PUSH2 0x1219 JUMPI DUP2 PUSH4 0xA792813C EQ PUSH2 0xD67 JUMPI DUP2 PUSH4 0xBE10862B EQ PUSH2 0xD23 JUMPI DUP2 PUSH4 0xBE8C2FEB EQ PUSH2 0xCFB JUMPI DUP2 PUSH4 0xCB1B5106 EQ PUSH2 0xC8B JUMPI DUP2 PUSH4 0xD4EEB14D EQ PUSH2 0xC6F JUMPI DUP2 PUSH4 0xD5AA06FA EQ PUSH2 0xC46 JUMPI DUP2 PUSH4 0xD60F669C EQ PUSH2 0xC2B JUMPI DUP2 PUSH4 0xD8B945AA EQ PUSH2 0x53E JUMPI DUP2 PUSH4 0xDB2E21BC EQ PUSH2 0x447 JUMPI DUP2 PUSH4 0xE5346F30 EQ PUSH2 0x442 JUMPI DUP2 PUSH4 0xE6DA9213 EQ PUSH2 0x3B9 JUMPI DUP2 PUSH4 0xE9789855 EQ PUSH2 0x379 JUMPI DUP2 PUSH4 0xE9CBD822 EQ PUSH2 0x335 JUMPI DUP2 PUSH4 0xEB348F83 EQ PUSH2 0x30D JUMPI DUP2 PUSH4 0xF2FDE38B EQ PUSH2 0x283 JUMPI DUP2 PUSH4 0xF64D85AF EQ PUSH2 0x257 JUMPI POP PUSH4 0xF731D1BA EQ PUSH2 0x252 JUMPI PUSH1 0x0 DUP1 REVERT JUMPDEST PUSH2 0x2213 JUMP JUMPDEST CALLVALUE PUSH2 0x280 JUMPI PUSH1 0x20 CALLDATASIZE PUSH1 0x3 NOT ADD SLT PUSH2 0x280 JUMPI PUSH1 0x40 PUSH1 0x20 SWAP2 PUSH1 0x4 CALLDATALOAD DUP2 MSTORE PUSH1 0x9 DUP4 MSTORE KECCAK256 SLOAD PUSH1 0x40 MLOAD SWAP1 DUP2 MSTORE RETURN JUMPDEST DUP1 REVERT JUMPDEST CALLVALUE PUSH2 0x280 JUMPI PUSH1 0x20 CALLDATASIZE PUSH1 0x3 NOT ADD SLT PUSH2 0x280 JUMPI PUSH2 0x29C PUSH2 0x222F JUMP JUMPDEST PUSH2 0x2A4 PUSH2 0x2412 JUMP JUMPDEST PUSH1 0x1 PUSH1 0x1 PUSH1 0xA0 SHL SUB SWAP1 DUP2 AND SWAP1 DUP2 ISZERO PUSH2 0x2F4 JUMPI PUSH1 0x1 SLOAD DUP3 PUSH1 0x1 PUSH1 0x1 PUSH1 0x60 SHL SUB PUSH1 0xA0 SHL DUP3 AND OR PUSH1 0x1 SSTORE AND PUSH32 0x8BE0079C531659141344CD1FD0A4F28419497F9722A3DAAFE3B4186F6B6457E0 PUSH1 0x0 DUP1 LOG3 DUP1 RETURN JUMPDEST PUSH1 0x40 MLOAD PUSH4 0x1E4FBDF7 PUSH1 0xE0 SHL DUP2 MSTORE PUSH1 0x4 DUP2 ADD DUP5 SWAP1 MSTORE PUSH1 0x24 SWAP1 REVERT JUMPDEST CALLVALUE PUSH2 0x280 JUMPI DUP1 PUSH1 0x3 NOT CALLDATASIZE ADD SLT PUSH2 0x280 JUMPI PUSH1 0x2 SLOAD PUSH1 0x40 MLOAD PUSH1 0x1 PUSH1 0x1 PUSH1 0xA0 SHL SUB SWAP1 SWAP2 AND DUP2 MSTORE PUSH1 0x20 SWAP1 RETURN JUMPDEST CALLVALUE PUSH2 0x280 JUMPI DUP1 PUSH1 0x3 NOT CALLDATASIZE ADD SLT PUSH2 0x280 JUMPI PUSH1 0x40 MLOAD PUSH32 0x0 PUSH1 0x1 PUSH1 0x1 PUSH1 0xA0 SHL SUB AND DUP2 MSTORE PUSH1 0x20 SWAP1 RETURN JUMPDEST CALLVALUE PUSH2 0x280 JUMPI PUSH1 0x20 SWAP1 PUSH2 0x38A CALLDATASIZE PUSH2 0x236C JUMP JUMPDEST SWAP2 DUP4 MSTORE PUSH1 0xA DUP5 MSTORE PUSH1 0x40 DUP4 KECCAK256 SWAP1 DUP4 MSTORE DUP4 MSTORE PUSH1 0x40 DUP3 KECCAK256 SWAP1 DUP3 MSTORE DUP3 MSTORE PUSH1 0x40 PUSH1 0x1 DUP1 PUSH1 0xA0 SHL SUB SWAP2 KECCAK256 SLOAD AND ISZERO PUSH1 0x40 MLOAD SWAP1 DUP2 MSTORE RETURN JUMPDEST CALLVALUE PUSH2 0x280 JUMPI PUSH1 0x40 PUSH2 0x100 SWAP2 PUSH2 0x3CD CALLDATASIZE PUSH2 0x2386 JUMP JUMPDEST SWAP1 DUP3 MSTORE PUSH1 0x8 PUSH1 0x20 MSTORE DUP3 DUP3 KECCAK256 SWAP1 DUP3 MSTORE PUSH1 0x20 MSTORE KECCAK256 DUP1 SLOAD SWAP1 PUSH1 0xFF PUSH1 0x1 DUP3 ADD SLOAD SWAP2 PUSH1 0x2 DUP2 ADD SLOAD PUSH1 0x3 DUP3 ADD SLOAD SWAP1 PUSH1 0x5 PUSH1 0x4 DUP5 ADD SLOAD SWAP4 ADD SLOAD SWAP5 PUSH1 0x40 MLOAD SWAP7 DUP8 MSTORE PUSH1 0x20 DUP8 ADD MSTORE PUSH1 0x40 DUP7 ADD MSTORE PUSH1 0x60 DUP6 ADD MSTORE PUSH1 0x1 DUP1 PUSH1 0xA0 SHL SUB DUP2 AND PUSH1 0x80 DUP6 ADD MSTORE DUP2 DUP2 PUSH1 0xA0 SHR AND ISZERO ISZERO PUSH1 0xA0 DUP6 ADD MSTORE PUSH1 0xA8 SHR AND ISZERO ISZERO PUSH1 0xC0 DUP4 ADD MSTORE PUSH1 0xE0 DUP3 ADD MSTORE RETURN JUMPDEST PUSH2 0x21F6 JUMP JUMPDEST CALLVALUE PUSH2 0x280 JUMPI DUP1 PUSH1 0x3 NOT CALLDATASIZE ADD SLT PUSH2 0x280 JUMPI PUSH2 0x45F PUSH2 0x2412 JUMP JUMPDEST PUSH1 0x40 MLOAD PUSH4 0x70A08231 PUSH1 0xE0 SHL DUP2 MSTORE ADDRESS PUSH1 0x4 DUP3 ADD MSTORE PUSH1 0x1 PUSH1 0x1 PUSH1 0xA0 SHL SUB SWAP1 PUSH1 0x20 DUP2 PUSH1 0x24 DUP2 PUSH32 0x0 DUP7 AND GAS STATICCALL SWAP1 DUP2 ISZERO PUSH2 0x533 JUMPI DUP4 SWAP2 PUSH2 0x4FD JUMPI JUMPDEST POP DUP1 ISZERO PUSH2 0x4CB JUMPI PUSH2 0x4C8 SWAP2 PUSH1 0x1 SLOAD AND PUSH2 0x2D47 JUMP JUMPDEST DUP1 RETURN JUMPDEST PUSH1 0x40 MLOAD PUSH3 0x461BCD PUSH1 0xE5 SHL DUP2 MSTORE PUSH1 0x20 PUSH1 0x4 DUP3 ADD MSTORE PUSH1 0xA PUSH1 0x24 DUP3 ADD MSTORE PUSH10 0x4E6F2062616C616E6365 PUSH1 0xB0 SHL PUSH1 0x44 DUP3 ADD MSTORE PUSH1 0x64 SWAP1 REVERT JUMPDEST SWAP1 POP PUSH1 0x20 DUP2 RETURNDATASIZE DUP3 GT PUSH2 0x52B JUMPI JUMPDEST DUP2 PUSH2 0x517 PUSH1 0x20 SWAP4 DUP4 PUSH2 0x21BC JUMP JUMPDEST DUP2 ADD SUB SLT PUSH2 0x526 JUMPI MLOAD DUP4 PUSH2 0x4B4 JUMP JUMPDEST PUSH1 0x0 DUP1 REVERT JUMPDEST RETURNDATASIZE SWAP2 POP PUSH2 0x50A JUMP JUMPDEST PUSH1 0x40 MLOAD RETURNDATASIZE DUP6 DUP3 RETURNDATACOPY RETURNDATASIZE SWAP1 REVERT JUMPDEST CALLVALUE PUSH2 0x280 JUMPI PUSH1 0x60 CALLDATASIZE PUSH1 0x3 NOT ADD SLT PUSH2 0x280 JUMPI PUSH1 0x24 CALLDATALOAD PUSH8 0xFFFFFFFFFFFFFFFF DUP1 DUP3 GT PUSH2 0x900 JUMPI CALLDATASIZE PUSH1 0x23 DUP4 ADD SLT ISZERO PUSH2 0x900 JUMPI DUP2 PUSH1 0x4 ADD CALLDATALOAD GT PUSH2 0xC27 JUMPI CALLDATASIZE PUSH1 0x24 DUP3 PUSH1 0x4 ADD CALLDATALOAD PUSH1 0x5 SHL DUP4 ADD ADD GT PUSH2 0xC27 JUMPI PUSH2 0x592 PUSH2 0x2245 JUMP JUMPDEST SWAP1 PUSH2 0x59B PUSH2 0x2668 JUMP JUMPDEST PUSH2 0x5AA PUSH1 0xFF PUSH1 0xE SLOAD AND ISZERO PUSH2 0x243E JUMP JUMPDEST PUSH2 0x5B8 PUSH1 0x6 PUSH1 0x4 CALLDATALOAD LT PUSH2 0x247C JUMP JUMPDEST PUSH1 0x4 CALLDATALOAD DUP4 MSTORE PUSH1 0x7 PUSH1 0x20 MSTORE PUSH2 0x5D5 PUSH1 0xFF PUSH1 0x6 PUSH1 0x40 DUP7 KECCAK256 ADD SLOAD AND PUSH2 0x24BA JUMP JUMPDEST PUSH1 0x4 CALLDATALOAD DUP4 MSTORE PUSH1 0x9 PUSH1 0x20 MSTORE PUSH1 0x40 DUP4 KECCAK256 SLOAD SWAP2 PUSH1 0x8 PUSH1 0x20 MSTORE PUSH1 0x40 DUP5 KECCAK256 DUP4 DUP6 MSTORE PUSH1 0x20 MSTORE PUSH1 0x40 DUP5 KECCAK256 SWAP1 PUSH1 0x4 CALLDATALOAD DUP6 MSTORE PUSH1 0x7 PUSH1 0x20 MSTORE PUSH1 0x40 DUP6 KECCAK256 SWAP3 PUSH1 0xFF PUSH1 0x6 PUSH1 0x40 MLOAD SWAP6 PUSH2 0x619 DUP8 PUSH2 0x21A0 JUMP JUMPDEST PUSH2 0x622 DUP2 PUSH2 0x229B JUMP JUMPDEST DUP8 MSTORE PUSH1 0x1 DUP2 ADD SLOAD PUSH1 0x20 DUP9 ADD MSTORE PUSH1 0x2 DUP2 ADD SLOAD PUSH1 0x40 DUP9 ADD MSTORE PUSH1 0x3 DUP2 ADD SLOAD PUSH1 0x60 DUP9 ADD MSTORE PUSH1 0x4 DUP2 ADD SLOAD PUSH1 0x80 DUP9 ADD MSTORE PUSH1 0x5 DUP2 ADD SLOAD PUSH1 0xA0 DUP9 ADD MSTORE ADD SLOAD AND ISZERO ISZERO PUSH1 0xC0 DUP6 ADD MSTORE PUSH2 0x674 PUSH1 0xFF PUSH1 0x4 DUP6 ADD SLOAD PUSH1 0xA0 SHR AND ISZERO PUSH2 0x24F9 JUMP JUMPDEST DUP1 PUSH1 0x4 ADD CALLDATALOAD ISZERO PUSH2 0xBE2 JUMPI PUSH1 0x1 DUP2 PUSH1 0x4 ADD CALLDATALOAD EQ DUP1 ISZERO PUSH2 0xBD4 JUMPI JUMPDEST DUP1 ISZERO PUSH2 0xBC6 JUMPI JUMPDEST DUP1 ISZERO PUSH2 0xBB8 JUMPI JUMPDEST PUSH2 0x6A4 SWAP1 PUSH2 0x2537 JUMP JUMPDEST DUP6 JUMPDEST DUP2 PUSH1 0x4 ADD CALLDATALOAD DUP2 LT PUSH2 0xA28 JUMPI POP PUSH2 0x6C4 DUP2 PUSH1 0x4 ADD CALLDATALOAD PUSH1 0x20 DUP7 ADD MLOAD PUSH2 0x25C5 JUMP JUMPDEST PUSH1 0x40 MLOAD PUSH4 0x23B872DD PUSH1 0xE0 SHL DUP2 MSTORE CALLER PUSH1 0x4 DUP3 ADD MSTORE ADDRESS PUSH1 0x24 DUP3 ADD MSTORE PUSH1 0x44 DUP2 ADD DUP3 SWAP1 MSTORE SWAP1 SWAP2 SWAP1 PUSH1 0x20 DUP2 PUSH1 0x64 DUP2 DUP12 PUSH1 0x1 PUSH1 0x1 PUSH1 0xA0 SHL SUB PUSH32 0x0 AND GAS CALL DUP1 ISZERO PUSH2 0xA1D JUMPI PUSH2 0x737 SWAP2 DUP10 SWAP2 PUSH2 0x9FE JUMPI JUMPDEST POP SWAP1 DUP9 SWAP5 SWAP4 SWAP3 SWAP2 PUSH2 0x25F0 JUMP JUMPDEST DUP4 JUMPDEST DUP2 PUSH1 0x4 ADD CALLDATALOAD DUP2 LT PUSH2 0x961 JUMPI POP PUSH2 0x757 DUP2 PUSH1 0x4 ADD CALLDATALOAD PUSH1 0x2 DUP8 ADD SLOAD PUSH2 0x25B8 JUMP JUMPDEST PUSH1 0x2 DUP7 ADD SSTORE PUSH1 0x3 DUP6 ADD PUSH2 0x76B DUP4 DUP3 SLOAD PUSH2 0x25B8 JUMP JUMPDEST SWAP1 SSTORE PUSH1 0x40 MLOAD PUSH1 0x4 DUP3 ADD CALLDATALOAD DUP1 DUP3 MSTORE PUSH1 0x60 PUSH1 0x20 DUP4 ADD DUP2 SWAP1 MSTORE DUP3 ADD DUP2 SWAP1 MSTORE PUSH1 0x1 PUSH1 0x1 PUSH1 0xFB SHL SUB LT PUSH2 0x95D JUMPI PUSH2 0x801 SWAP3 DUP3 PUSH1 0x4 ADD CALLDATALOAD PUSH1 0x5 SHL PUSH1 0x24 DUP5 ADD PUSH1 0x80 DUP5 ADD CALLDATACOPY PUSH1 0x40 DUP3 ADD MSTORE DUP8 CALLER SWAP2 PUSH32 0x312FFEB81136178607528C21AB6D9C6BF3EAB08CB7EB3ED968C8AA9D9BEF9FD0 PUSH1 0x4 CALLDATALOAD SWAP2 PUSH1 0x80 DUP2 DUP8 PUSH1 0x4 ADD CALLDATALOAD PUSH1 0x5 SHL DUP2 ADD SUB ADD SWAP1 LOG4 PUSH2 0x7FB PUSH1 0x4 CALLDATALOAD SWAP2 PUSH1 0x4 ADD CALLDATALOAD PUSH1 0x60 DUP9 ADD MLOAD PUSH2 0x25C5 JUMP JUMPDEST CALLER PUSH2 0x268B JUMP JUMPDEST PUSH1 0x1 PUSH1 0x1 PUSH1 0xA0 SHL SUB DUP2 AND DUP1 ISZERO ISZERO SWAP1 DUP2 PUSH2 0x952 JUMPI JUMPDEST POP DUP1 PUSH2 0x93E JUMPI JUMPDEST PUSH2 0x84E JUMPI JUMPDEST POP POP PUSH1 0x2 PUSH1 0x40 SWAP2 ADD SLOAD SWAP2 ADD MLOAD GT ISZERO PUSH2 0x83C JUMPI JUMPDEST POP PUSH1 0x1 DUP2 SSTORE DUP1 RETURN JUMPDEST PUSH2 0x848 SWAP1 PUSH1 0x4 CALLDATALOAD PUSH2 0x29F7 JUMP JUMPDEST DUP2 PUSH2 0x834 JUMP JUMPDEST PUSH1 0x3 SLOAD PUSH1 0x40 MLOAD PUSH4 0x308A59B PUSH1 0xE3 SHL DUP2 MSTORE CALLER PUSH1 0x4 DUP3 ADD MSTORE PUSH1 0x1 PUSH1 0x1 PUSH1 0xA0 SHL SUB SWAP1 SWAP2 AND SWAP1 PUSH1 0x20 DUP2 PUSH1 0x24 DUP2 DUP6 GAS STATICCALL SWAP1 DUP2 ISZERO PUSH2 0x933 JUMPI DUP5 SWAP2 PUSH2 0x904 JUMPI JUMPDEST POP ISZERO PUSH2 0x894 JUMPI JUMPDEST POP PUSH2 0x821 JUMP JUMPDEST DUP1 EXTCODESIZE ISZERO PUSH2 0x900 JUMPI PUSH1 0x40 MLOAD PUSH4 0xBBDDACA3 PUSH1 0xE0 SHL DUP2 MSTORE CALLER PUSH1 0x4 DUP3 ADD MSTORE PUSH1 0x1 PUSH1 0x1 PUSH1 0xA0 SHL SUB SWAP3 SWAP1 SWAP3 AND PUSH1 0x24 DUP4 ADD MSTORE DUP3 SWAP1 DUP3 SWAP1 PUSH1 0x44 SWAP1 DUP3 SWAP1 DUP5 SWAP1 GAS CALL DUP1 ISZERO PUSH2 0x8F5 JUMPI PUSH2 0x8DD JUMPI JUMPDEST DUP1 PUSH2 0x88E JUMP JUMPDEST PUSH2 0x8E6 SWAP1 PUSH2 0x2176 JUMP JUMPDEST PUSH2 0x8F1 JUMPI DUP4 DUP6 PUSH2 0x8D7 JUMP JUMPDEST DUP4 DUP1 REVERT JUMPDEST PUSH1 0x40 MLOAD RETURNDATASIZE DUP5 DUP3 RETURNDATACOPY RETURNDATASIZE SWAP1 REVERT JUMPDEST DUP3 DUP1 REVERT JUMPDEST PUSH2 0x926 SWAP2 POP PUSH1 0x20 RETURNDATASIZE PUSH1 0x20 GT PUSH2 0x92C JUMPI JUMPDEST PUSH2 0x91E DUP2 DUP4 PUSH2 0x21BC JUMP JUMPDEST DUP2 ADD SWAP1 PUSH2 0x25D8 JUMP JUMPDEST DUP9 PUSH2 0x887 JUMP JUMPDEST POP RETURNDATASIZE PUSH2 0x914 JUMP JUMPDEST PUSH1 0x40 MLOAD RETURNDATASIZE DUP7 DUP3 RETURNDATACOPY RETURNDATASIZE SWAP1 REVERT JUMPDEST POP PUSH1 0x3 SLOAD PUSH1 0x1 PUSH1 0x1 PUSH1 0xA0 SHL SUB AND ISZERO ISZERO PUSH2 0x81C JUMP JUMPDEST SWAP1 POP CALLER EQ ISZERO DUP8 PUSH2 0x815 JUMP JUMPDEST DUP5 DUP1 REVERT JUMPDEST PUSH2 0x9F4 SWAP2 SWAP3 SWAP4 SWAP5 POP PUSH1 0x4 CALLDATALOAD DUP10 MSTORE PUSH1 0xA PUSH1 0x20 MSTORE PUSH1 0x40 DUP10 KECCAK256 DUP9 DUP11 MSTORE PUSH1 0x20 MSTORE PUSH1 0x40 DUP10 KECCAK256 PUSH2 0x993 DUP3 DUP6 PUSH1 0x4 ADD CALLDATALOAD PUSH1 0x24 DUP8 ADD PUSH2 0x25A8 JUMP JUMPDEST CALLDATALOAD DUP11 MSTORE PUSH1 0x20 MSTORE PUSH1 0x40 DUP10 KECCAK256 CALLER PUSH1 0x1 PUSH1 0x1 PUSH1 0x60 SHL SUB PUSH1 0xA0 SHL DUP3 SLOAD AND OR SWAP1 SSTORE PUSH1 0x4 CALLDATALOAD DUP10 MSTORE PUSH1 0xB PUSH1 0x20 MSTORE PUSH1 0x40 DUP10 KECCAK256 DUP9 DUP11 MSTORE PUSH1 0x20 MSTORE PUSH1 0x40 DUP10 KECCAK256 CALLER PUSH1 0x0 MSTORE PUSH1 0x20 MSTORE PUSH2 0x9EF PUSH1 0x40 PUSH1 0x0 KECCAK256 PUSH2 0x9E8 DUP4 DUP7 PUSH1 0x4 ADD CALLDATALOAD PUSH1 0x24 DUP9 ADD PUSH2 0x25A8 JUMP JUMPDEST CALLDATALOAD SWAP1 PUSH2 0x262E JUMP JUMPDEST PUSH2 0x2583 JUMP JUMPDEST SWAP1 DUP8 SWAP4 SWAP3 SWAP2 PUSH2 0x739 JUMP JUMPDEST PUSH2 0xA17 SWAP2 POP PUSH1 0x20 RETURNDATASIZE PUSH1 0x20 GT PUSH2 0x92C JUMPI PUSH2 0x91E DUP2 DUP4 PUSH2 0x21BC JUMP JUMPDEST DUP10 PUSH2 0x72B JUMP JUMPDEST PUSH1 0x40 MLOAD RETURNDATASIZE DUP11 DUP3 RETURNDATACOPY RETURNDATASIZE SWAP1 REVERT JUMPDEST PUSH2 0xA3A DUP2 DUP4 PUSH1 0x4 ADD CALLDATALOAD PUSH1 0x24 DUP6 ADD PUSH2 0x25A8 JUMP JUMPDEST CALLDATALOAD PUSH1 0x40 DUP7 ADD MLOAD GT ISZERO PUSH2 0xB7B JUMPI PUSH1 0x4 CALLDATALOAD DUP8 MSTORE PUSH1 0xA PUSH1 0x20 MSTORE PUSH1 0x40 DUP8 KECCAK256 DUP7 DUP9 MSTORE PUSH1 0x20 MSTORE PUSH1 0x40 DUP8 KECCAK256 PUSH2 0xA70 DUP3 DUP5 PUSH1 0x4 ADD CALLDATALOAD PUSH1 0x24 DUP7 ADD PUSH2 0x25A8 JUMP JUMPDEST CALLDATALOAD DUP9 MSTORE PUSH1 0x20 MSTORE PUSH1 0x40 DUP8 KECCAK256 SLOAD PUSH1 0x1 PUSH1 0x1 PUSH1 0xA0 SHL SUB AND PUSH2 0xB40 JUMPI PUSH1 0x1 DUP2 ADD DUP1 DUP3 GT PUSH2 0xB2C JUMPI JUMPDEST DUP3 PUSH1 0x4 ADD CALLDATALOAD DUP2 LT PUSH2 0xAAE JUMPI POP PUSH2 0xAA9 SWAP1 PUSH2 0x2583 JUMP JUMPDEST PUSH2 0x6A6 JUMP JUMPDEST PUSH2 0xAC0 DUP3 DUP5 PUSH1 0x4 ADD CALLDATALOAD PUSH1 0x24 DUP7 ADD PUSH2 0x25A8 JUMP JUMPDEST CALLDATALOAD PUSH2 0xAD3 DUP3 DUP6 PUSH1 0x4 ADD CALLDATALOAD PUSH1 0x24 DUP8 ADD PUSH2 0x25A8 JUMP JUMPDEST CALLDATALOAD EQ PUSH2 0xAE7 JUMPI PUSH2 0xAE2 SWAP1 PUSH2 0x2583 JUMP JUMPDEST PUSH2 0xA94 JUMP JUMPDEST PUSH1 0x40 MLOAD PUSH3 0x461BCD PUSH1 0xE5 SHL DUP2 MSTORE PUSH1 0x20 PUSH1 0x4 DUP3 ADD MSTORE PUSH1 0x17 PUSH1 0x24 DUP3 ADD MSTORE PUSH32 0x4475706C6963617465207469636B6574206E756D626572000000000000000000 PUSH1 0x44 DUP3 ADD MSTORE PUSH1 0x64 SWAP1 REVERT JUMPDEST PUSH4 0x4E487B71 PUSH1 0xE0 SHL DUP9 MSTORE PUSH1 0x11 PUSH1 0x4 MSTORE PUSH1 0x24 DUP9 REVERT JUMPDEST PUSH1 0x40 MLOAD PUSH3 0x461BCD PUSH1 0xE5 SHL DUP2 MSTORE PUSH1 0x20 PUSH1 0x4 DUP3 ADD MSTORE PUSH1 0x13 PUSH1 0x24 DUP3 ADD MSTORE PUSH19 0x151A58DAD95D08185B1C9958591E481CDBDB19 PUSH1 0x6A SHL PUSH1 0x44 DUP3 ADD MSTORE PUSH1 0x64 SWAP1 REVERT JUMPDEST PUSH1 0x40 MLOAD PUSH3 0x461BCD PUSH1 0xE5 SHL DUP2 MSTORE PUSH1 0x20 PUSH1 0x4 DUP3 ADD MSTORE PUSH1 0x15 PUSH1 0x24 DUP3 ADD MSTORE PUSH21 0x24B73B30B634B2103A34B1B5B2BA10373AB6B132B9 PUSH1 0x59 SHL PUSH1 0x44 DUP3 ADD MSTORE PUSH1 0x64 SWAP1 REVERT JUMPDEST POP PUSH1 0x4 DUP2 ADD CALLDATALOAD PUSH1 0xA EQ PUSH2 0x69B JUMP JUMPDEST POP PUSH1 0x5 DUP2 PUSH1 0x4 ADD CALLDATALOAD EQ PUSH2 0x694 JUMP JUMPDEST POP PUSH1 0x3 DUP2 PUSH1 0x4 ADD CALLDATALOAD EQ PUSH2 0x68D JUMP JUMPDEST PUSH1 0x40 MLOAD PUSH3 0x461BCD PUSH1 0xE5 SHL DUP2 MSTORE PUSH1 0x20 PUSH1 0x4 DUP3 ADD MSTORE PUSH1 0x1F PUSH1 0x24 DUP3 ADD MSTORE PUSH32 0x4D7573742073656C656374206174206C65617374206F6E65207469636B657400 PUSH1 0x44 DUP3 ADD MSTORE PUSH1 0x64 SWAP1 REVERT JUMPDEST POP DUP1 REVERT JUMPDEST CALLVALUE PUSH2 0x280 JUMPI DUP1 PUSH1 0x3 NOT CALLDATASIZE ADD SLT PUSH2 0x280 JUMPI PUSH1 0x20 PUSH1 0x40 MLOAD PUSH1 0x43 DUP2 MSTORE RETURN JUMPDEST CALLVALUE PUSH2 0x280 JUMPI PUSH1 0x20 CALLDATASIZE PUSH1 0x3 NOT ADD SLT PUSH2 0x280 JUMPI PUSH1 0x40 PUSH1 0x20 SWAP2 PUSH1 0x4 CALLDATALOAD DUP2 MSTORE PUSH1 0xD DUP4 MSTORE KECCAK256 SLOAD PUSH1 0x40 MLOAD SWAP1 DUP2 MSTORE RETURN JUMPDEST CALLVALUE PUSH2 0x280 JUMPI DUP1 PUSH1 0x3 NOT CALLDATASIZE ADD SLT PUSH2 0x280 JUMPI PUSH1 0x20 PUSH1 0x40 MLOAD PUSH2 0x1388 DUP2 MSTORE RETURN JUMPDEST CALLVALUE PUSH2 0x280 JUMPI PUSH1 0x80 CALLDATASIZE PUSH1 0x3 NOT ADD SLT PUSH2 0x280 JUMPI PUSH2 0xCA4 PUSH2 0x2245 JUMP JUMPDEST SWAP1 PUSH1 0x64 CALLDATALOAD SWAP2 PUSH1 0x4 CALLDATALOAD DUP3 MSTORE PUSH1 0xB PUSH1 0x20 MSTORE PUSH1 0x40 DUP3 KECCAK256 PUSH1 0x24 CALLDATALOAD DUP4 MSTORE PUSH1 0x20 MSTORE PUSH1 0x40 DUP3 KECCAK256 SWAP1 PUSH1 0x1 DUP1 PUSH1 0xA0 SHL SUB AND PUSH1 0x0 MSTORE PUSH1 0x20 MSTORE PUSH1 0x40 PUSH1 0x0 KECCAK256 SWAP1 DUP2 SLOAD DUP4 LT ISZERO PUSH2 0x280 JUMPI PUSH1 0x20 PUSH2 0xCED DUP5 DUP5 PUSH2 0x23FA JUMP JUMPDEST SWAP1 SLOAD PUSH1 0x40 MLOAD SWAP2 PUSH1 0x3 SHL SHR DUP2 MSTORE RETURN JUMPDEST CALLVALUE PUSH2 0x280 JUMPI DUP1 PUSH1 0x3 NOT CALLDATASIZE ADD SLT PUSH2 0x280 JUMPI PUSH1 0x4 SLOAD PUSH1 0x40 MLOAD PUSH1 0x1 PUSH1 0x1 PUSH1 0xA0 SHL SUB SWAP1 SWAP2 AND DUP2 MSTORE PUSH1 0x20 SWAP1 RETURN JUMPDEST CALLVALUE PUSH2 0x280 JUMPI DUP1 PUSH1 0x3 NOT CALLDATASIZE ADD SLT PUSH2 0x280 JUMPI PUSH1 0x40 MLOAD PUSH32 0x0 PUSH1 0x1 PUSH1 0x1 PUSH1 0xA0 SHL SUB AND DUP2 MSTORE PUSH1 0x20 SWAP1 RETURN JUMPDEST CALLVALUE PUSH2 0x280 JUMPI PUSH2 0xD75 CALLDATASIZE PUSH2 0x239C JUMP JUMPDEST SWAP1 PUSH2 0xD7E PUSH2 0x2668 JUMP JUMPDEST PUSH2 0xD8D PUSH1 0xFF PUSH1 0xE SLOAD AND ISZERO PUSH2 0x243E JUMP JUMPDEST PUSH2 0xD99 PUSH1 0x6 DUP5 LT PUSH2 0x247C JUMP JUMPDEST DUP3 DUP5 MSTORE PUSH1 0x7 PUSH1 0x20 MSTORE PUSH2 0xDB4 PUSH1 0xFF PUSH1 0x6 PUSH1 0x40 DUP8 KECCAK256 ADD SLOAD AND PUSH2 0x24BA JUMP JUMPDEST PUSH1 0x1 DUP2 EQ DUP1 ISZERO PUSH2 0x120F JUMPI JUMPDEST DUP1 ISZERO PUSH2 0x1205 JUMPI JUMPDEST DUP1 ISZERO PUSH2 0x11FB JUMPI JUMPDEST PUSH2 0xDD6 SWAP1 PUSH2 0x2537 JUMP JUMPDEST DUP3 DUP5 MSTORE PUSH1 0x9 PUSH1 0x20 MSTORE PUSH1 0x40 DUP5 KECCAK256 SLOAD SWAP2 PUSH1 0x8 PUSH1 0x20 MSTORE PUSH1 0x40 DUP6 KECCAK256 DUP4 DUP7 MSTORE PUSH1 0x20 MSTORE PUSH1 0x40 DUP6 KECCAK256 SWAP1 DUP5 DUP7 MSTORE PUSH1 0x7 PUSH1 0x20 MSTORE PUSH1 0x40 DUP7 KECCAK256 SWAP3 PUSH1 0x40 MLOAD SWAP4 PUSH2 0xE12 DUP6 PUSH2 0x21A0 JUMP JUMPDEST PUSH2 0xE1B DUP2 PUSH2 0x229B JUMP JUMPDEST DUP6 MSTORE PUSH1 0xFF PUSH1 0x6 PUSH1 0x1 DUP4 ADD SLOAD SWAP3 PUSH1 0x20 DUP9 ADD SWAP4 DUP5 MSTORE PUSH1 0x2 DUP2 ADD SLOAD PUSH1 0x40 DUP10 ADD MSTORE PUSH1 0x3 DUP2 ADD SLOAD PUSH1 0x60 DUP10 ADD MSTORE PUSH1 0x4 DUP2 ADD SLOAD PUSH1 0x80 DUP10 ADD MSTORE PUSH1 0x5 DUP2 ADD SLOAD PUSH1 0xA0 DUP10 ADD MSTORE ADD SLOAD AND ISZERO ISZERO PUSH1 0xC0 DUP7 ADD MSTORE PUSH2 0xE74 PUSH1 0xFF PUSH1 0x4 DUP7 ADD SLOAD PUSH1 0xA0 SHR AND ISZERO PUSH2 0x24F9 JUMP JUMPDEST PUSH2 0xE82 DUP3 PUSH1 0x2 DUP7 ADD SLOAD PUSH2 0x25B8 JUMP JUMPDEST PUSH1 0x40 DUP7 ADD MLOAD LT PUSH2 0x11C1 JUMPI DUP2 PUSH2 0xE97 SWAP2 MLOAD PUSH2 0x25C5 JUMP JUMPDEST PUSH1 0x40 MLOAD PUSH4 0x23B872DD PUSH1 0xE0 SHL DUP2 MSTORE CALLER PUSH1 0x4 DUP3 ADD MSTORE ADDRESS PUSH1 0x24 DUP3 ADD MSTORE PUSH1 0x44 DUP2 ADD DUP3 SWAP1 MSTORE PUSH1 0x20 DUP2 PUSH1 0x64 DUP2 DUP13 PUSH1 0x1 PUSH1 0x1 PUSH1 0xA0 SHL SUB PUSH32 0x0 AND GAS CALL DUP1 ISZERO PUSH2 0x11B6 JUMPI PUSH2 0xF08 SWAP2 DUP11 SWAP2 PUSH2 0x1197 JUMPI JUMPDEST POP SWAP2 DUP10 SWAP5 SWAP4 SWAP2 DUP10 SWAP4 PUSH2 0x25F0 JUMP JUMPDEST DUP8 PUSH2 0xF12 DUP4 PUSH2 0x21DE JUMP JUMPDEST PUSH2 0xF1F PUSH1 0x40 MLOAD SWAP2 DUP3 PUSH2 0x21BC JUMP JUMPDEST DUP4 DUP2 MSTORE PUSH1 0x1F NOT PUSH2 0xF2E DUP6 PUSH2 0x21DE JUMP JUMPDEST ADD CALLDATASIZE PUSH1 0x20 DUP4 ADD CALLDATACOPY DUP7 JUMPDEST DUP5 DUP2 LT PUSH2 0x10DA JUMPI POP SWAP2 DUP5 SWAP4 SWAP2 PUSH2 0xFAE SWAP6 PUSH32 0x312FFEB81136178607528C21AB6D9C6BF3EAB08CB7EB3ED968C8AA9D9BEF9FD0 PUSH2 0x7FB SWAP6 PUSH1 0x3 DUP13 ADD PUSH2 0xF7B DUP7 DUP3 SLOAD PUSH2 0x25B8 JUMP JUMPDEST SWAP1 SSTORE PUSH2 0xF98 PUSH1 0x40 MLOAD SWAP2 DUP8 DUP4 MSTORE PUSH1 0x60 PUSH1 0x20 DUP5 ADD MSTORE PUSH1 0x60 DUP4 ADD SWAP1 PUSH2 0x23C6 JUMP JUMPDEST SWAP5 PUSH1 0x40 DUP3 ADD MSTORE DUP1 CALLER SWAP6 SUB SWAP1 LOG4 PUSH1 0x60 DUP9 ADD MLOAD PUSH2 0x25C5 JUMP JUMPDEST PUSH1 0x1 PUSH1 0x1 PUSH1 0xA0 SHL SUB DUP2 AND DUP1 ISZERO ISZERO SWAP1 DUP2 PUSH2 0x10CF JUMPI JUMPDEST POP DUP1 PUSH2 0x10BB JUMPI JUMPDEST PUSH2 0xFF9 JUMPI JUMPDEST POP POP PUSH1 0x2 PUSH1 0x40 SWAP2 ADD SLOAD SWAP2 ADD MLOAD GT ISZERO PUSH2 0xFE9 JUMPI JUMPDEST DUP3 PUSH1 0x1 DUP2 SSTORE DUP1 RETURN JUMPDEST PUSH2 0xFF2 SWAP2 PUSH2 0x29F7 JUMP JUMPDEST DUP2 DUP1 PUSH2 0xFE1 JUMP JUMPDEST PUSH1 0x3 SLOAD PUSH1 0x40 MLOAD PUSH4 0x308A59B PUSH1 0xE3 SHL DUP2 MSTORE CALLER PUSH1 0x4 DUP3 ADD MSTORE PUSH1 0x1 PUSH1 0x1 PUSH1 0xA0 SHL SUB SWAP1 SWAP2 AND SWAP1 PUSH1 0x20 DUP2 PUSH1 0x24 DUP2 DUP6 GAS STATICCALL SWAP1 DUP2 ISZERO PUSH2 0x933 JUMPI DUP5 SWAP2 PUSH2 0x109C JUMPI JUMPDEST POP ISZERO PUSH2 0x103F JUMPI JUMPDEST POP PUSH2 0xFCE JUMP JUMPDEST DUP1 EXTCODESIZE ISZERO PUSH2 0x900 JUMPI PUSH1 0x40 MLOAD PUSH4 0xBBDDACA3 PUSH1 0xE0 SHL DUP2 MSTORE CALLER PUSH1 0x4 DUP3 ADD MSTORE PUSH1 0x1 PUSH1 0x1 PUSH1 0xA0 SHL SUB SWAP3 SWAP1 SWAP3 AND PUSH1 0x24 DUP4 ADD MSTORE DUP3 SWAP1 DUP3 SWAP1 PUSH1 0x44 SWAP1 DUP3 SWAP1 DUP5 SWAP1 GAS CALL DUP1 ISZERO PUSH2 0x8F5 JUMPI PUSH2 0x1088 JUMPI JUMPDEST DUP1 PUSH2 0x1039 JUMP JUMPDEST PUSH2 0x1091 SWAP1 PUSH2 0x2176 JUMP JUMPDEST PUSH2 0x95D JUMPI DUP5 DUP7 PUSH2 0x1082 JUMP JUMPDEST PUSH2 0x10B5 SWAP2 POP PUSH1 0x20 RETURNDATASIZE PUSH1 0x20 GT PUSH2 0x92C JUMPI PUSH2 0x91E DUP2 DUP4 PUSH2 0x21BC JUMP JUMPDEST DUP10 PUSH2 0x1032 JUMP JUMPDEST POP PUSH1 0x3 SLOAD PUSH1 0x1 PUSH1 0x1 PUSH1 0xA0 SHL SUB AND ISZERO ISZERO PUSH2 0xFC9 JUMP JUMPDEST SWAP1 POP CALLER EQ ISZERO DUP9 PUSH2 0xFC2 JUMP JUMPDEST SWAP3 SWAP5 POP SWAP3 SWAP5 SWAP6 POP POP PUSH1 0x2 DUP7 ADD SLOAD SWAP1 DUP10 DUP12 MSTORE PUSH1 0xA PUSH1 0x20 MSTORE PUSH1 0x40 DUP12 KECCAK256 DUP10 DUP13 MSTORE PUSH1 0x20 MSTORE PUSH1 0x40 DUP12 KECCAK256 DUP3 DUP13 MSTORE PUSH1 0x20 MSTORE PUSH1 0x40 DUP12 KECCAK256 CALLER PUSH1 0x1 PUSH1 0x1 PUSH1 0x60 SHL SUB PUSH1 0xA0 SHL DUP3 SLOAD AND OR SWAP1 SSTORE DUP3 MLOAD DUP2 LT ISZERO PUSH2 0x1181 JUMPI PUSH2 0x115D DUP3 PUSH2 0x1174 SWAP4 PUSH1 0x20 DUP5 PUSH1 0x5 SHL DUP8 ADD ADD MSTORE DUP12 DUP14 MSTORE PUSH1 0xB PUSH1 0x20 MSTORE DUP13 DUP12 PUSH1 0x40 DUP3 KECCAK256 SWAP2 MSTORE PUSH1 0x20 MSTORE PUSH1 0x40 DUP14 KECCAK256 CALLER PUSH1 0x0 MSTORE PUSH1 0x20 MSTORE PUSH1 0x40 PUSH1 0x0 KECCAK256 PUSH2 0x262E JUMP JUMPDEST PUSH2 0x116A PUSH1 0x2 DUP9 ADD SLOAD PUSH2 0x2583 JUMP JUMPDEST PUSH1 0x2 DUP9 ADD SSTORE PUSH2 0x2583 JUMP JUMPDEST SWAP2 DUP8 DUP11 SWAP6 SWAP5 SWAP3 DUP11 SWAP5 PUSH2 0xF37 JUMP JUMPDEST PUSH4 0x4E487B71 PUSH1 0xE0 SHL PUSH1 0x0 MSTORE PUSH1 0x32 PUSH1 0x4 MSTORE PUSH1 0x24 PUSH1 0x0 REVERT JUMPDEST PUSH2 0x11B0 SWAP2 POP PUSH1 0x20 RETURNDATASIZE PUSH1 0x20 GT PUSH2 0x92C JUMPI PUSH2 0x91E DUP2 DUP4 PUSH2 0x21BC JUMP JUMPDEST DUP11 PUSH2 0xEFB JUMP JUMPDEST PUSH1 0x40 MLOAD RETURNDATASIZE DUP12 DUP3 RETURNDATACOPY RETURNDATASIZE SWAP1 REVERT JUMPDEST PUSH1 0x40 MLOAD PUSH3 0x461BCD PUSH1 0xE5 SHL DUP2 MSTORE PUSH1 0x20 PUSH1 0x4 DUP3 ADD MSTORE PUSH1 0x12 PUSH1 0x24 DUP3 ADD MSTORE PUSH18 0x4E6F7420656E6F756768207469636B657473 PUSH1 0x70 SHL PUSH1 0x44 DUP3 ADD MSTORE PUSH1 0x64 SWAP1 REVERT JUMPDEST POP PUSH1 0xA DUP2 EQ PUSH2 0xDCD JUMP JUMPDEST POP PUSH1 0x5 DUP2 EQ PUSH2 0xDC6 JUMP JUMPDEST POP PUSH1 0x3 DUP2 EQ PUSH2 0xDBF JUMP JUMPDEST CALLVALUE PUSH2 0x280 JUMPI PUSH1 0x20 CALLDATASIZE PUSH1 0x3 NOT ADD SLT PUSH2 0x280 JUMPI PUSH1 0x4 CALLDATALOAD PUSH4 0xFFFFFFFF DUP2 AND DUP1 DUP3 SUB PUSH2 0x900 JUMPI PUSH2 0x1243 PUSH2 0x2412 JUMP JUMPDEST PUSH3 0x186A0 DUP2 LT ISZERO SWAP1 DUP2 PUSH2 0x12B6 JUMPI JUMPDEST POP ISZERO PUSH2 0x127D JUMPI PUSH1 0x6 DUP1 SLOAD PUSH4 0xFFFFFFFF PUSH1 0xA0 SHL NOT AND PUSH1 0xA0 SWAP3 SWAP1 SWAP3 SHL PUSH4 0xFFFFFFFF PUSH1 0xA0 SHL AND SWAP2 SWAP1 SWAP2 OR SWAP1 SSTORE DUP1 RETURN JUMPDEST PUSH1 0x40 MLOAD PUSH3 0x461BCD PUSH1 0xE5 SHL DUP2 MSTORE PUSH1 0x20 PUSH1 0x4 DUP3 ADD MSTORE PUSH1 0x11 PUSH1 0x24 DUP3 ADD MSTORE PUSH17 0x125B9D985B1A590819D85CC81B1A5B5A5D PUSH1 0x7A SHL PUSH1 0x44 DUP3 ADD MSTORE PUSH1 0x64 SWAP1 REVERT JUMPDEST PUSH3 0x7A120 SWAP2 POP GT ISZERO DUP4 PUSH2 0x1251 JUMP JUMPDEST CALLVALUE PUSH2 0x280 JUMPI DUP1 PUSH1 0x3 NOT CALLDATASIZE ADD SLT PUSH2 0x280 JUMPI PUSH1 0x40 MLOAD PUSH32 0x0 PUSH1 0x1 PUSH1 0x1 PUSH1 0xA0 SHL SUB AND DUP2 MSTORE PUSH1 0x20 SWAP1 RETURN JUMPDEST CALLVALUE PUSH2 0x280 JUMPI PUSH2 0x1316 CALLDATASIZE PUSH2 0x239C JUMP JUMPDEST SWAP1 SWAP2 DUP4 MSTORE PUSH1 0x20 SWAP2 PUSH1 0xB DUP4 MSTORE PUSH1 0x40 DUP5 KECCAK256 SWAP1 DUP5 MSTORE DUP3 MSTORE PUSH1 0x40 DUP4 KECCAK256 SWAP1 PUSH1 0x1 DUP1 PUSH1 0xA0 SHL SUB AND PUSH1 0x0 MSTORE DUP2 MSTORE PUSH1 0x40 PUSH1 0x0 KECCAK256 SWAP2 PUSH1 0x40 MLOAD DUP1 SWAP4 DUP5 SWAP2 DUP5 DUP3 SLOAD SWAP2 DUP3 DUP2 MSTORE ADD SWAP2 DUP5 MSTORE DUP5 DUP5 KECCAK256 SWAP4 JUMPDEST DUP6 DUP3 DUP3 LT PUSH2 0x1388 JUMPI POP POP POP PUSH2 0x1370 SWAP3 POP SUB DUP4 PUSH2 0x21BC JUMP JUMPDEST PUSH2 0x1384 PUSH1 0x40 MLOAD SWAP3 DUP3 DUP5 SWAP4 DUP5 MSTORE DUP4 ADD SWAP1 PUSH2 0x23C6 JUMP JUMPDEST SUB SWAP1 RETURN JUMPDEST DUP6 SLOAD DUP5 MSTORE PUSH1 0x1 SWAP6 DUP7 ADD SWAP6 DUP9 SWAP6 POP SWAP4 ADD SWAP3 ADD PUSH2 0x1359 JUMP JUMPDEST CALLVALUE PUSH2 0x280 JUMPI DUP1 PUSH1 0x3 NOT CALLDATASIZE ADD SLT PUSH2 0x280 JUMPI PUSH1 0x20 PUSH1 0x40 MLOAD PUSH1 0x6 DUP2 MSTORE RETURN JUMPDEST CALLVALUE PUSH2 0x280 JUMPI DUP1 PUSH1 0x3 NOT CALLDATASIZE ADD SLT PUSH2 0x280 JUMPI PUSH1 0x1 SLOAD PUSH1 0x40 MLOAD PUSH1 0x1 PUSH1 0x1 PUSH1 0xA0 SHL SUB SWAP1 SWAP2 AND DUP2 MSTORE PUSH1 0x20 SWAP1 RETURN JUMPDEST CALLVALUE PUSH2 0x280 JUMPI PUSH1 0x40 PUSH1 0xA0 SWAP2 PUSH2 0x13F4 CALLDATASIZE PUSH2 0x2386 JUMP JUMPDEST SWAP1 DUP3 MSTORE PUSH1 0x8 PUSH1 0x20 MSTORE DUP3 DUP3 KECCAK256 SWAP1 DUP3 MSTORE PUSH1 0x20 MSTORE KECCAK256 PUSH1 0xFF PUSH1 0x2 DUP3 ADD SLOAD SWAP2 PUSH1 0x4 PUSH1 0x3 DUP3 ADD SLOAD SWAP2 ADD SLOAD SWAP1 PUSH1 0x40 MLOAD SWAP4 DUP5 MSTORE PUSH1 0x20 DUP5 ADD MSTORE PUSH1 0x1 DUP1 DUP6 SHL SUB DUP2 AND PUSH1 0x40 DUP5 ADD MSTORE DUP2 DUP2 DUP6 SHR AND ISZERO ISZERO PUSH1 0x60 DUP5 ADD MSTORE PUSH1 0xA8 SHR AND ISZERO ISZERO PUSH1 0x80 DUP3 ADD MSTORE RETURN JUMPDEST CALLVALUE PUSH2 0x280 JUMPI DUP1 PUSH1 0x3 NOT CALLDATASIZE ADD SLT PUSH2 0x280 JUMPI PUSH1 0x40 MLOAD PUSH32 0x0 PUSH1 0x1 PUSH1 0x1 PUSH1 0xA0 SHL SUB AND DUP2 MSTORE PUSH1 0x20 SWAP1 RETURN JUMPDEST CALLVALUE PUSH2 0x280 JUMPI DUP1 PUSH1 0x3 NOT CALLDATASIZE ADD SLT PUSH2 0x280 JUMPI PUSH1 0x20 PUSH1 0x40 MLOAD PUSH2 0x5DC DUP2 MSTORE RETURN JUMPDEST CALLVALUE PUSH2 0x280 JUMPI DUP1 PUSH1 0x3 NOT CALLDATASIZE ADD SLT PUSH2 0x280 JUMPI PUSH1 0x5 SLOAD PUSH1 0x40 MLOAD PUSH1 0x1 PUSH1 0x1 PUSH1 0xA0 SHL SUB SWAP1 SWAP2 AND DUP2 MSTORE PUSH1 0x20 SWAP1 RETURN JUMPDEST CALLVALUE PUSH2 0x280 JUMPI PUSH1 0x20 SWAP1 PUSH2 0x14E3 CALLDATASIZE PUSH2 0x236C JUMP JUMPDEST SWAP2 DUP4 MSTORE PUSH1 0xA DUP5 MSTORE PUSH1 0x40 DUP4 KECCAK256 SWAP1 DUP4 MSTORE DUP4 MSTORE PUSH1 0x40 DUP3 KECCAK256 SWAP1 DUP3 MSTORE DUP3 MSTORE PUSH1 0x40 PUSH1 0x1 DUP1 PUSH1 0xA0 SHL SUB SWAP2 KECCAK256 SLOAD AND PUSH1 0x40 MLOAD SWAP1 DUP2 MSTORE RETURN JUMPDEST CALLVALUE PUSH2 0x280 JUMPI DUP1 PUSH1 0x3 NOT CALLDATASIZE ADD SLT PUSH2 0x280 JUMPI PUSH1 0x20 PUSH1 0x40 MLOAD PUSH2 0x29B DUP2 MSTORE RETURN JUMPDEST CALLVALUE PUSH2 0x280 JUMPI PUSH1 0x20 CALLDATASIZE PUSH1 0x3 NOT ADD SLT PUSH2 0x280 JUMPI PUSH1 0x40 PUSH2 0x1592 SWAP2 PUSH1 0x4 CALLDATALOAD DUP2 MSTORE PUSH1 0x7 PUSH1 0x20 MSTORE KECCAK256 PUSH2 0x1558 DUP2 PUSH2 0x229B JUMP JUMPDEST SWAP1 PUSH1 0x1 DUP2 ADD SLOAD SWAP1 PUSH1 0x2 DUP2 ADD SLOAD SWAP1 PUSH1 0x3 DUP2 ADD SLOAD PUSH1 0x4 DUP3 ADD SLOAD SWAP1 PUSH1 0xFF PUSH1 0x6 PUSH1 0x5 DUP6 ADD SLOAD SWAP5 ADD SLOAD AND SWAP4 PUSH1 0x40 MLOAD SWAP8 DUP9 SWAP8 PUSH1 0xE0 DUP10 MSTORE PUSH1 0xE0 DUP10 ADD SWAP1 PUSH2 0x225B JUMP JUMPDEST SWAP6 PUSH1 0x20 DUP9 ADD MSTORE PUSH1 0x40 DUP8 ADD MSTORE PUSH1 0x60 DUP7 ADD MSTORE PUSH1 0x80 DUP6 ADD MSTORE PUSH1 0xA0 DUP5 ADD MSTORE ISZERO ISZERO PUSH1 0xC0 DUP4 ADD MSTORE SUB SWAP1 RETURN JUMPDEST CALLVALUE PUSH2 0x280 JUMPI PUSH1 0x20 CALLDATASIZE PUSH1 0x3 NOT ADD SLT PUSH2 0x280 JUMPI PUSH1 0x40 PUSH2 0x164F SWAP2 PUSH1 0x4 CALLDATALOAD DUP2 MSTORE PUSH1 0x7 PUSH1 0x20 MSTORE KECCAK256 PUSH1 0x40 MLOAD PUSH2 0x15E5 DUP2 PUSH2 0x21A0 JUMP JUMPDEST PUSH1 0xC0 PUSH2 0x15F0 DUP4 PUSH2 0x229B JUMP JUMPDEST SWAP3 DUP4 DUP4 MSTORE PUSH1 0x1 DUP2 ADD SLOAD SWAP3 DUP4 PUSH1 0x20 DUP3 ADD MSTORE PUSH1 0x2 DUP3 ADD SLOAD DUP1 PUSH1 0x40 DUP4 ADD MSTORE PUSH1 0x3 DUP4 ADD SLOAD SWAP2 DUP3 PUSH1 0x60 DUP3 ADD MSTORE PUSH1 0x4 DUP5 ADD SLOAD PUSH1 0x80 DUP3 ADD MSTORE PUSH1 0xFF PUSH1 0x6 PUSH1 0x5 DUP7 ADD SLOAD SWAP6 DUP7 PUSH1 0xA0 DUP6 ADD MSTORE ADD SLOAD AND ISZERO ISZERO SWAP5 DUP6 SWAP2 ADD MSTORE PUSH1 0x40 MLOAD SWAP7 DUP8 SWAP7 PUSH1 0xC0 DUP9 MSTORE PUSH1 0xC0 DUP9 ADD SWAP1 PUSH2 0x225B JUMP JUMPDEST SWAP5 PUSH1 0x20 DUP8 ADD MSTORE PUSH1 0x40 DUP7 ADD MSTORE PUSH1 0x60 DUP6 ADD MSTORE PUSH1 0x80 DUP5 ADD MSTORE PUSH1 0xA0 DUP4 ADD MSTORE SUB SWAP1 RETURN JUMPDEST CALLVALUE PUSH2 0x280 JUMPI DUP1 PUSH1 0x3 NOT CALLDATASIZE ADD SLT PUSH2 0x280 JUMPI PUSH1 0x20 PUSH1 0x40 MLOAD PUSH1 0x1 DUP2 MSTORE RETURN JUMPDEST CALLVALUE PUSH2 0x280 JUMPI DUP1 PUSH1 0x3 NOT CALLDATASIZE ADD SLT PUSH2 0x280 JUMPI PUSH2 0x16A0 PUSH2 0x2412 JUMP JUMPDEST PUSH1 0x1 DUP1 SLOAD PUSH1 0x1 PUSH1 0x1 PUSH1 0xA0 SHL SUB NOT DUP2 AND SWAP1 SWAP2 SSTORE PUSH1 0x0 SWAP1 PUSH1 0x1 PUSH1 0x1 PUSH1 0xA0 SHL SUB AND PUSH32 0x8BE0079C531659141344CD1FD0A4F28419497F9722A3DAAFE3B4186F6B6457E0 DUP3 DUP1 LOG3 DUP1 RETURN JUMPDEST CALLVALUE PUSH2 0x280 JUMPI PUSH1 0x20 CALLDATASIZE PUSH1 0x3 NOT ADD SLT PUSH2 0x280 JUMPI PUSH1 0x4 CALLDATALOAD PUSH2 0x1701 PUSH2 0x2412 JUMP JUMPDEST PUSH2 0x170D PUSH1 0x6 DUP3 LT PUSH2 0x247C JUMP JUMPDEST DUP1 DUP3 MSTORE PUSH1 0x7 PUSH1 0x20 MSTORE PUSH1 0xFF PUSH1 0x6 PUSH1 0x40 DUP5 KECCAK256 ADD SLOAD AND PUSH2 0x1765 JUMPI DUP1 DUP3 MSTORE PUSH1 0x7 PUSH1 0x20 MSTORE PUSH1 0x40 DUP3 KECCAK256 PUSH1 0x6 ADD DUP1 SLOAD PUSH1 0xFF NOT AND PUSH1 0x1 OR SWAP1 SSTORE PUSH32 0xDAFA141A8AF958D7A84CABDE0F7268B548A11E070A9576865E8AC71D7107BCE9 DUP3 DUP1 LOG2 DUP1 RETURN JUMPDEST PUSH1 0x40 MLOAD PUSH3 0x461BCD PUSH1 0xE5 SHL DUP2 MSTORE PUSH1 0x20 PUSH1 0x4 DUP3 ADD MSTORE PUSH1 0xE PUSH1 0x24 DUP3 ADD MSTORE PUSH14 0x416C726561647920616374697665 PUSH1 0x90 SHL PUSH1 0x44 DUP3 ADD MSTORE PUSH1 0x64 SWAP1 REVERT JUMPDEST CALLVALUE PUSH2 0x280 JUMPI PUSH1 0x80 CALLDATASIZE PUSH1 0x3 NOT ADD SLT PUSH2 0x280 JUMPI PUSH2 0x17B4 PUSH2 0x222F JUMP JUMPDEST PUSH1 0x24 CALLDATALOAD PUSH1 0x1 PUSH1 0x1 PUSH1 0xA0 SHL SUB DUP2 DUP2 AND SWAP3 SWAP2 DUP4 SWAP1 SUB PUSH2 0x526 JUMPI PUSH2 0x17D3 PUSH2 0x2245 JUMP JUMPDEST PUSH1 0x64 CALLDATALOAD SWAP4 DUP3 DUP6 AND DUP1 SWAP6 SUB PUSH2 0x526 JUMPI PUSH2 0x17E9 PUSH2 0x2412 JUMP JUMPDEST PUSH1 0x2 SLOAD SWAP4 DUP4 DUP6 AND PUSH2 0x1896 JUMPI DUP4 AND DUP1 ISZERO ISZERO DUP1 PUSH2 0x188D JUMPI JUMPDEST DUP1 PUSH2 0x1882 JUMPI JUMPDEST DUP1 PUSH2 0x1879 JUMPI JUMPDEST ISZERO PUSH2 0x1840 JUMPI PUSH1 0x1 PUSH1 0x1 PUSH1 0x60 SHL SUB PUSH1 0xA0 SHL DUP1 SWAP6 AND OR PUSH1 0x2 SSTORE DUP4 PUSH1 0x3 SLOAD AND OR PUSH1 0x3 SSTORE AND DUP2 PUSH1 0x4 SLOAD AND OR PUSH1 0x4 SSTORE PUSH1 0x5 SLOAD AND OR PUSH1 0x5 SSTORE DUP1 RETURN JUMPDEST PUSH1 0x40 MLOAD PUSH3 0x461BCD PUSH1 0xE5 SHL DUP2 MSTORE PUSH1 0x20 PUSH1 0x4 DUP3 ADD MSTORE PUSH1 0x11 PUSH1 0x24 DUP3 ADD MSTORE PUSH17 0x496E76616C696420616464726573736573 PUSH1 0x78 SHL PUSH1 0x44 DUP3 ADD MSTORE PUSH1 0x64 SWAP1 REVERT JUMPDEST POP DUP6 ISZERO ISZERO PUSH2 0x180B JUMP JUMPDEST POP DUP4 DUP4 AND ISZERO ISZERO PUSH2 0x1805 JUMP JUMPDEST POP DUP2 ISZERO ISZERO PUSH2 0x17FF JUMP JUMPDEST PUSH1 0x40 MLOAD PUSH3 0x461BCD PUSH1 0xE5 SHL DUP2 MSTORE PUSH1 0x20 PUSH1 0x4 DUP3 ADD MSTORE PUSH1 0xB PUSH1 0x24 DUP3 ADD MSTORE PUSH11 0x105B1C9958591E481CD95D PUSH1 0xAA SHL PUSH1 0x44 DUP3 ADD MSTORE PUSH1 0x64 SWAP1 REVERT JUMPDEST CALLVALUE PUSH2 0x280 JUMPI DUP1 PUSH1 0x3 NOT CALLDATASIZE ADD SLT PUSH2 0x280 JUMPI PUSH1 0x20 PUSH1 0x40 MLOAD PUSH1 0x3 DUP2 MSTORE RETURN JUMPDEST CALLVALUE PUSH2 0x280 JUMPI DUP1 PUSH1 0x3 NOT CALLDATASIZE ADD SLT PUSH2 0x280 JUMPI PUSH1 0x20 PUSH1 0x40 MLOAD PUSH32 0x0 DUP2 MSTORE RETURN JUMPDEST CALLVALUE PUSH2 0x280 JUMPI DUP1 PUSH1 0x3 NOT CALLDATASIZE ADD SLT PUSH2 0x280 JUMPI PUSH1 0x20 PUSH1 0xFF PUSH1 0xE SLOAD AND PUSH1 0x40 MLOAD SWAP1 ISZERO ISZERO DUP2 MSTORE RETURN JUMPDEST CALLVALUE PUSH2 0x280 JUMPI DUP1 PUSH1 0x3 NOT CALLDATASIZE ADD SLT PUSH2 0x280 JUMPI PUSH2 0x1958 PUSH2 0x2412 JUMP JUMPDEST PUSH1 0x1 PUSH1 0xFF NOT PUSH1 0xE SLOAD AND OR PUSH1 0xE SSTORE DUP1 RETURN JUMPDEST CALLVALUE PUSH2 0x280 JUMPI DUP1 PUSH1 0x3 NOT CALLDATASIZE ADD SLT PUSH2 0x280 JUMPI PUSH1 0x40 MLOAD PUSH32 0x0 PUSH1 0x1 PUSH1 0x1 PUSH1 0xA0 SHL SUB AND DUP2 MSTORE PUSH1 0x20 SWAP1 RETURN JUMPDEST CALLVALUE PUSH2 0x280 JUMPI DUP1 PUSH1 0x3 NOT CALLDATASIZE ADD SLT PUSH2 0x280 JUMPI PUSH2 0x19C4 PUSH2 0x2412 JUMP JUMPDEST PUSH1 0xFF NOT PUSH1 0xE SLOAD AND PUSH1 0xE SSTORE DUP1 RETURN JUMPDEST CALLVALUE PUSH2 0x280 JUMPI DUP1 PUSH1 0x3 NOT CALLDATASIZE ADD SLT PUSH2 0x280 JUMPI PUSH1 0x3 SLOAD PUSH1 0x40 MLOAD PUSH1 0x1 PUSH1 0x1 PUSH1 0xA0 SHL SUB SWAP1 SWAP2 AND DUP2 MSTORE PUSH1 0x20 SWAP1 RETURN JUMPDEST CALLVALUE PUSH2 0x280 JUMPI DUP1 PUSH1 0x3 NOT CALLDATASIZE ADD SLT PUSH2 0x280 JUMPI PUSH1 0x20 PUSH1 0x40 MLOAD PUSH2 0x1F4 DUP2 MSTORE RETURN JUMPDEST CALLVALUE PUSH2 0x280 JUMPI PUSH1 0x20 CALLDATASIZE PUSH1 0x3 NOT ADD SLT PUSH2 0x280 JUMPI PUSH1 0x40 PUSH1 0x20 SWAP2 PUSH1 0x4 CALLDATALOAD DUP2 MSTORE PUSH1 0xC DUP4 MSTORE KECCAK256 SLOAD PUSH1 0x40 MLOAD SWAP1 DUP2 MSTORE RETURN JUMPDEST CALLVALUE PUSH2 0x280 JUMPI DUP1 PUSH1 0x3 NOT CALLDATASIZE ADD SLT PUSH2 0x280 JUMPI PUSH1 0x20 PUSH4 0xFFFFFFFF PUSH1 0x6 SLOAD PUSH1 0xA0 SHR AND PUSH1 0x40 MLOAD SWAP1 DUP2 MSTORE RETURN JUMPDEST CALLVALUE PUSH2 0x280 JUMPI PUSH1 0x40 CALLDATASIZE PUSH1 0x3 NOT ADD SLT PUSH2 0x280 JUMPI PUSH1 0x24 DUP1 CALLDATALOAD PUSH8 0xFFFFFFFFFFFFFFFF DUP2 GT PUSH2 0x900 JUMPI CALLDATASIZE PUSH1 0x23 DUP3 ADD SLT ISZERO PUSH2 0x900 JUMPI DUP1 PUSH1 0x4 ADD CALLDATALOAD SWAP1 PUSH2 0x1AA2 DUP3 PUSH2 0x21DE JUMP JUMPDEST PUSH2 0x1AAF PUSH1 0x40 MLOAD SWAP2 DUP3 PUSH2 0x21BC JUMP JUMPDEST DUP3 DUP2 MSTORE PUSH1 0x20 SWAP2 DUP3 DUP3 ADD DUP6 DUP2 SWAP6 PUSH1 0x5 SHL DUP4 ADD ADD SWAP2 CALLDATASIZE DUP4 GT PUSH2 0x20E2 JUMPI DUP7 DUP6 SWAP2 ADD SWAP2 JUMPDEST DUP4 DUP4 LT PUSH2 0x20D2 JUMPI POP PUSH1 0x1 PUSH1 0x1 PUSH1 0xA0 SHL SUB SWAP6 SWAP3 POP PUSH32 0x0 SWAP2 POP POP DUP5 DUP2 AND CALLER SUB PUSH2 0x20A9 JUMPI POP PUSH1 0x4 CALLDATALOAD DUP7 MSTORE PUSH1 0xC DUP4 MSTORE PUSH1 0x40 DUP7 KECCAK256 SLOAD SWAP4 PUSH1 0xD DUP5 MSTORE PUSH1 0x40 DUP8 KECCAK256 SLOAD SWAP2 DUP6 DUP9 MSTORE PUSH1 0x8 DUP6 MSTORE PUSH1 0x40 DUP9 KECCAK256 DUP4 DUP10 MSTORE DUP6 MSTORE PUSH1 0x40 DUP9 KECCAK256 PUSH1 0x4 DUP2 ADD SWAP2 DUP3 SLOAD SWAP6 PUSH1 0xFF DUP8 PUSH1 0xA0 SHR AND PUSH2 0x2065 JUMPI MLOAD ISZERO PUSH2 0x2052 JUMPI MLOAD PUSH1 0x2 SWAP1 SWAP2 ADD SLOAD PUSH2 0x1B66 SWAP2 PUSH2 0x2BB9 JUMP JUMPDEST DUP7 DUP10 MSTORE PUSH1 0xA DUP7 MSTORE PUSH1 0x40 DUP1 DUP11 KECCAK256 DUP6 DUP12 MSTORE DUP8 MSTORE DUP1 DUP11 KECCAK256 DUP3 DUP12 MSTORE DUP8 MSTORE DUP1 DUP11 KECCAK256 SLOAD PUSH1 0x1 PUSH1 0x1 PUSH1 0xA8 SHL SUB NOT SWAP1 SWAP7 AND SWAP6 DUP5 AND SWAP6 DUP7 OR PUSH1 0x1 PUSH1 0xA0 SHL OR SWAP1 SWAP3 SSTORE DUP7 DUP10 MSTORE PUSH1 0x8 DUP7 MSTORE DUP2 DUP10 KECCAK256 DUP5 DUP11 MSTORE DUP7 MSTORE SWAP1 DUP9 KECCAK256 PUSH1 0x3 ADD SLOAD DUP1 ISZERO PUSH2 0x2023 JUMPI PUSH1 0x40 MLOAD PUSH4 0x70A08231 PUSH1 0xE0 SHL DUP2 MSTORE ADDRESS PUSH1 0x4 DUP3 ADD MSTORE DUP7 DUP2 DUP11 DUP2 PUSH32 0x0 DUP9 AND GAS STATICCALL DUP1 ISZERO PUSH2 0x2018 JUMPI DUP3 SWAP2 DUP12 SWAP2 PUSH2 0x1FE3 JUMPI JUMPDEST POP LT PUSH2 0x1FA8 JUMPI PUSH2 0x1388 DUP2 MUL PUSH2 0x1387 NOT DUP3 DUP3 DIV ADD PUSH2 0x1F95 JUMPI PUSH2 0x1C2B PUSH2 0x2710 DUP1 SWAP3 DIV DUP8 PUSH2 0x2D47 JUMP JUMPDEST PUSH2 0x3E8 SWAP2 DUP3 DUP2 MUL DUP2 DUP2 DIV DUP5 SUB PUSH2 0x1EC5 JUMPI DUP3 SWAP1 DIV PUSH2 0x1C49 DUP2 DUP9 DUP13 PUSH2 0x2BE3 JUMP JUMPDEST DUP6 PUSH1 0x3 SLOAD AND DUP2 DUP2 PUSH2 0x1F21 JUMPI JUMPDEST POP POP DUP6 PUSH1 0x2 SLOAD AND SWAP1 DUP2 PUSH2 0x1F11 JUMPI JUMPDEST POP POP PUSH2 0x1F4 DUP2 MUL PUSH2 0x1F3 NOT DUP3 DUP3 DIV ADD PUSH2 0x1EC5 JUMPI DUP6 PUSH1 0x4 SLOAD AND DUP4 DUP2 PUSH2 0x1EFE JUMPI JUMPDEST POP POP POP PUSH2 0x5DC DUP1 DUP3 MUL SWAP2 DUP3 DIV SUB PUSH2 0x1EEB JUMPI DIV PUSH2 0x29B SWAP2 DUP3 DUP3 MUL SWAP2 DUP1 ISZERO SWAP4 DUP2 DUP5 DIV EQ DUP5 OR ISZERO PUSH2 0x1EC5 JUMPI PUSH2 0x1CD7 DUP3 PUSH32 0x0 SWAP5 DIV DUP5 PUSH2 0x2D47 JUMP JUMPDEST PUSH1 0x85 DUP2 MUL DUP2 DUP2 DIV PUSH1 0x85 EQ DUP6 OR ISZERO PUSH2 0x1ED8 JUMPI DUP3 SWAP1 DIV SWAP4 PUSH2 0x1CFA DUP6 DUP9 PUSH1 0x6 SLOAD AND PUSH2 0x2D47 JUMP JUMPDEST PUSH1 0x43 DUP3 MUL SWAP2 DUP3 DIV PUSH1 0x43 EQ OR ISZERO PUSH2 0x1EC5 JUMPI PUSH2 0x1D40 SWAP4 SWAP3 SWAP2 PUSH2 0x1D3B SWAP2 DIV PUSH32 0x0 PUSH2 0x2D47 JUMP JUMPDEST PUSH2 0x2D47 JUMP JUMPDEST DUP6 DUP9 MSTORE PUSH1 0x7 DUP6 MSTORE DUP8 PUSH1 0x40 DUP2 KECCAK256 SWAP3 PUSH1 0x40 MLOAD PUSH2 0x1D59 DUP2 PUSH2 0x21A0 JUMP JUMPDEST PUSH2 0x1D62 DUP6 PUSH2 0x229B JUMP JUMPDEST DUP2 MSTORE PUSH1 0x1 DUP6 ADD SLOAD DUP9 DUP3 ADD MSTORE PUSH1 0x2 DUP6 ADD SLOAD PUSH1 0x40 DUP3 ADD MSTORE PUSH1 0x3 DUP6 ADD SLOAD PUSH1 0x60 DUP3 ADD MSTORE PUSH1 0xC0 PUSH1 0xFF PUSH1 0x6 PUSH1 0x4 DUP9 ADD SLOAD SWAP8 DUP9 PUSH1 0x80 DUP7 ADD MSTORE PUSH1 0x5 DUP2 ADD SLOAD PUSH1 0xA0 DUP7 ADD MSTORE ADD SLOAD AND ISZERO ISZERO SWAP2 ADD MSTORE PUSH32 0x0 AND SWAP3 DUP4 EXTCODESIZE ISZERO PUSH2 0xC27 JUMPI PUSH1 0x40 MLOAD PUSH4 0x7B22EE3 PUSH1 0xE2 SHL DUP2 MSTORE PUSH1 0x1 PUSH1 0x1 PUSH1 0xA0 SHL SUB DUP8 AND PUSH1 0x4 DUP3 ADD MSTORE PUSH1 0x24 DUP2 ADD SWAP2 SWAP1 SWAP2 MSTORE DUP8 SWAP4 DUP3 SWAP1 DUP3 SWAP1 PUSH1 0x44 SWAP1 DUP3 SWAP1 DUP5 SWAP1 GAS CALL PUSH2 0x1EA8 JUMPI JUMPDEST POP PUSH31 0x706D4E712E28530B00B7EB917A52CDD384F93A89105F8161B97223B3AE1871 SWAP2 DUP4 PUSH1 0x40 SWAP3 MSTORE PUSH1 0x7 DUP8 MSTORE PUSH1 0x5 DUP3 DUP12 KECCAK256 ADD SLOAD SWAP1 DUP3 MLOAD SWAP2 DUP3 MSTORE DUP8 DUP3 ADD MSTORE LOG4 DUP2 DUP5 MSTORE PUSH1 0x9 DUP2 MSTORE PUSH1 0x40 DUP5 KECCAK256 SLOAD SWAP3 PUSH1 0x1 DUP5 ADD DUP1 SWAP5 GT PUSH2 0x1E96 JUMPI POP PUSH32 0xB0B0C60F0267584D50A65485B5EFF6BABAD43C5727703515FDE33BB545B19114 SWAP1 DUP3 DUP6 MSTORE PUSH1 0x9 DUP2 MSTORE DUP4 PUSH1 0x40 DUP7 KECCAK256 SSTORE PUSH1 0x40 MLOAD TIMESTAMP DUP2 MSTORE LOG3 DUP1 RETURN JUMPDEST PUSH4 0x4E487B71 PUSH1 0xE0 SHL DUP6 MSTORE PUSH1 0x11 PUSH1 0x4 MSTORE DUP5 REVERT JUMPDEST PUSH2 0x1EB4 SWAP2 SWAP3 SWAP4 POP PUSH2 0x2176 JUMP JUMPDEST PUSH2 0x1EC1 JUMPI DUP5 SWAP1 DUP8 DUP10 PUSH2 0x1E07 JUMP JUMPDEST DUP7 DUP1 REVERT JUMPDEST PUSH4 0x4E487B71 PUSH1 0xE0 SHL DUP13 MSTORE PUSH1 0x11 PUSH1 0x4 MSTORE DUP11 DUP13 REVERT JUMPDEST PUSH4 0x4E487B71 PUSH1 0xE0 SHL DUP14 MSTORE PUSH1 0x11 PUSH1 0x4 MSTORE DUP12 DUP14 REVERT JUMPDEST PUSH4 0x4E487B71 PUSH1 0xE0 SHL DUP12 MSTORE PUSH1 0x11 PUSH1 0x4 MSTORE DUP10 DUP12 REVERT JUMPDEST PUSH2 0x1F09 SWAP3 DIV SWAP1 PUSH2 0x2D47 JUMP JUMPDEST DUP12 DUP1 DUP4 PUSH2 0x1C82 JUMP JUMPDEST PUSH2 0x1F1A SWAP2 PUSH2 0x2D47 JUMP JUMPDEST DUP12 DUP1 PUSH2 0x1C63 JUMP JUMPDEST PUSH2 0x1F2A SWAP2 PUSH2 0x2D47 JUMP JUMPDEST DUP6 PUSH1 0x3 SLOAD AND DUP13 DUP2 EXTCODESIZE ISZERO PUSH2 0x280 JUMPI PUSH1 0x40 MLOAD PUSH4 0x75003AA1 PUSH1 0xE0 SHL DUP2 MSTORE PUSH1 0x1 PUSH1 0x1 PUSH1 0xA0 SHL SUB DUP12 AND PUSH1 0x4 DUP3 ADD MSTORE PUSH1 0x24 DUP2 ADD DUP5 SWAP1 MSTORE SWAP2 DUP3 SWAP1 PUSH1 0x44 SWAP1 DUP3 SWAP1 DUP5 SWAP1 GAS CALL DUP1 ISZERO PUSH2 0x1F8A JUMPI PUSH2 0x1F77 JUMPI JUMPDEST DUP2 PUSH2 0x1C55 JUMP JUMPDEST PUSH2 0x1F83 SWAP1 SWAP13 SWAP2 SWAP13 PUSH2 0x2176 JUMP JUMPDEST SWAP11 DUP13 PUSH2 0x1F71 JUMP JUMPDEST PUSH1 0x40 MLOAD RETURNDATASIZE DUP16 DUP3 RETURNDATACOPY RETURNDATASIZE SWAP1 REVERT JUMPDEST PUSH4 0x4E487B71 PUSH1 0xE0 SHL DUP11 MSTORE PUSH1 0x11 PUSH1 0x4 MSTORE DUP9 DUP11 REVERT JUMPDEST PUSH1 0x40 MLOAD PUSH3 0x461BCD PUSH1 0xE5 SHL DUP2 MSTORE PUSH1 0x4 DUP2 ADD DUP8 SWAP1 MSTORE PUSH1 0x14 DUP2 DUP11 ADD MSTORE PUSH20 0x496E73756666696369656E742062616C616E6365 PUSH1 0x60 SHL PUSH1 0x44 DUP3 ADD MSTORE PUSH1 0x64 SWAP1 REVERT JUMPDEST DUP1 SWAP3 POP DUP9 DUP1 SWAP3 POP RETURNDATASIZE DUP4 GT PUSH2 0x2011 JUMPI JUMPDEST PUSH2 0x1FFC DUP2 DUP4 PUSH2 0x21BC JUMP JUMPDEST DUP2 ADD SUB SLT PUSH2 0x200D JUMPI DUP2 SWAP1 MLOAD DUP12 PUSH2 0x1C05 JUMP JUMPDEST DUP10 DUP1 REVERT JUMPDEST POP RETURNDATASIZE PUSH2 0x1FF2 JUMP JUMPDEST PUSH1 0x40 MLOAD RETURNDATASIZE DUP13 DUP3 RETURNDATACOPY RETURNDATASIZE SWAP1 REVERT JUMPDEST PUSH1 0x40 MLOAD PUSH3 0x461BCD PUSH1 0xE5 SHL DUP2 MSTORE PUSH1 0x4 DUP2 ADD DUP8 SWAP1 MSTORE PUSH1 0x8 DUP2 DUP11 ADD MSTORE PUSH8 0x4E6F2066756E6473 PUSH1 0xC0 SHL PUSH1 0x44 DUP3 ADD MSTORE PUSH1 0x64 SWAP1 REVERT JUMPDEST PUSH4 0x4E487B71 PUSH1 0xE0 SHL DUP11 MSTORE PUSH1 0x32 PUSH1 0x4 MSTORE DUP9 DUP11 REVERT JUMPDEST PUSH1 0x40 MLOAD PUSH3 0x461BCD PUSH1 0xE5 SHL DUP2 MSTORE PUSH1 0x4 DUP2 ADD DUP10 SWAP1 MSTORE PUSH1 0x17 DUP2 DUP13 ADD MSTORE PUSH32 0x526F756E6420616C726561647920636F6D706C65746564000000000000000000 PUSH1 0x44 DUP3 ADD MSTORE PUSH1 0x64 SWAP1 REVERT JUMPDEST PUSH1 0x40 MLOAD PUSH4 0x73E64FD PUSH1 0xE2 SHL DUP2 MSTORE CALLER PUSH1 0x4 DUP3 ADD MSTORE PUSH1 0x1 PUSH1 0x1 PUSH1 0xA0 SHL SUB SWAP2 SWAP1 SWAP2 AND PUSH1 0x24 DUP3 ADD MSTORE PUSH1 0x44 SWAP1 REVERT JUMPDEST DUP3 CALLDATALOAD DUP2 MSTORE SWAP2 DUP2 ADD SWAP2 DUP6 SWAP2 ADD PUSH2 0x1ACF JUMP JUMPDEST DUP8 DUP1 REVERT JUMPDEST CALLVALUE PUSH2 0x280 JUMPI DUP1 PUSH1 0x3 NOT CALLDATASIZE ADD SLT PUSH2 0x280 JUMPI PUSH1 0x6 SLOAD PUSH1 0x40 MLOAD PUSH1 0x1 PUSH1 0x1 PUSH1 0xA0 SHL SUB SWAP1 SWAP2 AND DUP2 MSTORE PUSH1 0x20 SWAP1 RETURN JUMPDEST CALLVALUE PUSH2 0x280 JUMPI PUSH1 0x20 CALLDATASIZE PUSH1 0x3 NOT ADD SLT PUSH2 0x280 JUMPI PUSH1 0x20 PUSH2 0x212C PUSH1 0x4 CALLDATALOAD PUSH2 0x2E04 JUMP JUMPDEST PUSH1 0x40 MLOAD SWAP1 DUP2 MSTORE RETURN JUMPDEST CALLVALUE PUSH2 0xC27 JUMPI DUP2 PUSH1 0x3 NOT CALLDATASIZE ADD SLT PUSH2 0xC27 JUMPI PUSH1 0x20 SWAP1 PUSH8 0xFFFFFFFFFFFFFFFF PUSH32 0x0 AND DUP2 MSTORE RETURN JUMPDEST PUSH8 0xFFFFFFFFFFFFFFFF DUP2 GT PUSH2 0x218A JUMPI PUSH1 0x40 MSTORE JUMP JUMPDEST PUSH4 0x4E487B71 PUSH1 0xE0 SHL PUSH1 0x0 MSTORE PUSH1 0x41 PUSH1 0x4 MSTORE PUSH1 0x24 PUSH1 0x0 REVERT JUMPDEST PUSH1 0xE0 DUP2 ADD SWAP1 DUP2 LT PUSH8 0xFFFFFFFFFFFFFFFF DUP3 GT OR PUSH2 0x218A JUMPI PUSH1 0x40 MSTORE JUMP JUMPDEST SWAP1 PUSH1 0x1F DUP1 NOT SWAP2 ADD AND DUP2 ADD SWAP1 DUP2 LT PUSH8 0xFFFFFFFFFFFFFFFF DUP3 GT OR PUSH2 0x218A JUMPI PUSH1 0x40 MSTORE JUMP JUMPDEST PUSH8 0xFFFFFFFFFFFFFFFF DUP2 GT PUSH2 0x218A JUMPI PUSH1 0x5 SHL PUSH1 0x20 ADD SWAP1 JUMP JUMPDEST CALLVALUE PUSH2 0x526 JUMPI PUSH1 0x0 CALLDATASIZE PUSH1 0x3 NOT ADD SLT PUSH2 0x526 JUMPI PUSH1 0x20 PUSH1 0x40 MLOAD PUSH2 0x3E8 DUP2 MSTORE RETURN JUMPDEST CALLVALUE PUSH2 0x526 JUMPI PUSH1 0x0 CALLDATASIZE PUSH1 0x3 NOT ADD SLT PUSH2 0x526 JUMPI PUSH1 0x20 PUSH1 0x40 MLOAD PUSH1 0x85 DUP2 MSTORE RETURN JUMPDEST PUSH1 0x4 CALLDATALOAD SWAP1 PUSH1 0x1 PUSH1 0x1 PUSH1 0xA0 SHL SUB DUP3 AND DUP3 SUB PUSH2 0x526 JUMPI JUMP JUMPDEST PUSH1 0x44 CALLDATALOAD SWAP1 PUSH1 0x1 PUSH1 0x1 PUSH1 0xA0 SHL SUB DUP3 AND DUP3 SUB PUSH2 0x526 JUMPI JUMP JUMPDEST SWAP2 SWAP1 DUP3 MLOAD SWAP3 DUP4 DUP3 MSTORE PUSH1 0x0 JUMPDEST DUP5 DUP2 LT PUSH2 0x2287 JUMPI POP POP DUP3 PUSH1 0x0 PUSH1 0x20 DUP1 SWAP5 SWAP6 DUP5 ADD ADD MSTORE PUSH1 0x1F DUP1 NOT SWAP2 ADD AND ADD ADD SWAP1 JUMP JUMPDEST PUSH1 0x20 DUP2 DUP4 ADD DUP2 ADD MLOAD DUP5 DUP4 ADD DUP3 ADD MSTORE ADD PUSH2 0x2266 JUMP JUMPDEST SWAP1 PUSH1 0x40 MLOAD SWAP1 PUSH1 0x0 DUP4 SLOAD SWAP1 PUSH1 0x1 DUP3 DUP2 SHR SWAP1 DUP1 DUP5 AND SWAP7 DUP8 ISZERO PUSH2 0x2362 JUMPI JUMPDEST PUSH1 0x20 SWAP5 DUP6 DUP5 LT DUP10 EQ PUSH2 0x234E JUMPI DUP8 SWAP9 DUP5 DUP10 SWAP8 SWAP9 SWAP10 MSTORE SWAP1 DUP2 PUSH1 0x0 EQ PUSH2 0x232C JUMPI POP PUSH1 0x1 EQ PUSH2 0x22ED JUMPI JUMPDEST POP POP POP PUSH2 0x22EB SWAP3 POP SUB DUP4 PUSH2 0x21BC JUMP JUMPDEST JUMP JUMPDEST PUSH1 0x0 SWAP1 DUP2 MSTORE DUP6 DUP2 KECCAK256 SWAP6 SWAP4 POP SWAP2 SWAP1 JUMPDEST DUP2 DUP4 LT PUSH2 0x2314 JUMPI POP POP PUSH2 0x22EB SWAP4 POP DUP3 ADD ADD CODESIZE DUP1 DUP1 PUSH2 0x22DC JUMP JUMPDEST DUP6 SLOAD DUP9 DUP5 ADD DUP6 ADD MSTORE SWAP5 DUP6 ADD SWAP5 DUP8 SWAP5 POP SWAP2 DUP4 ADD SWAP2 PUSH2 0x22FB JUMP JUMPDEST SWAP3 POP POP POP PUSH2 0x22EB SWAP5 SWAP3 POP PUSH1 0xFF NOT AND DUP3 DUP5 ADD MSTORE ISZERO ISZERO PUSH1 0x5 SHL DUP3 ADD ADD CODESIZE DUP1 DUP1 PUSH2 0x22DC JUMP JUMPDEST PUSH4 0x4E487B71 PUSH1 0xE0 SHL DUP6 MSTORE PUSH1 0x22 PUSH1 0x4 MSTORE PUSH1 0x24 DUP6 REVERT JUMPDEST SWAP2 PUSH1 0x7F AND SWAP2 PUSH2 0x22B6 JUMP JUMPDEST PUSH1 0x60 SWAP1 PUSH1 0x3 NOT ADD SLT PUSH2 0x526 JUMPI PUSH1 0x4 CALLDATALOAD SWAP1 PUSH1 0x24 CALLDATALOAD SWAP1 PUSH1 0x44 CALLDATALOAD SWAP1 JUMP JUMPDEST PUSH1 0x40 SWAP1 PUSH1 0x3 NOT ADD SLT PUSH2 0x526 JUMPI PUSH1 0x4 CALLDATALOAD SWAP1 PUSH1 0x24 CALLDATALOAD SWAP1 JUMP JUMPDEST PUSH1 0x60 SWAP1 PUSH1 0x3 NOT ADD SLT PUSH2 0x526 JUMPI PUSH1 0x4 CALLDATALOAD SWAP1 PUSH1 0x24 CALLDATALOAD SWAP1 PUSH1 0x44 CALLDATALOAD PUSH1 0x1 PUSH1 0x1 PUSH1 0xA0 SHL SUB DUP2 AND DUP2 SUB PUSH2 0x526 JUMPI SWAP1 JUMP JUMPDEST SWAP1 DUP2 MLOAD DUP1 DUP3 MSTORE PUSH1 0x20 DUP1 DUP1 SWAP4 ADD SWAP4 ADD SWAP2 PUSH1 0x0 JUMPDEST DUP3 DUP2 LT PUSH2 0x23E6 JUMPI POP POP POP POP SWAP1 JUMP JUMPDEST DUP4 MLOAD DUP6 MSTORE SWAP4 DUP2 ADD SWAP4 SWAP3 DUP2 ADD SWAP3 PUSH1 0x1 ADD PUSH2 0x23D8 JUMP JUMPDEST DUP1 SLOAD DUP3 LT ISZERO PUSH2 0x1181 JUMPI PUSH1 0x0 MSTORE PUSH1 0x20 PUSH1 0x0 KECCAK256 ADD SWAP1 PUSH1 0x0 SWAP1 JUMP JUMPDEST PUSH1 0x1 SLOAD PUSH1 0x1 PUSH1 0x1 PUSH1 0xA0 SHL SUB AND CALLER SUB PUSH2 0x2426 JUMPI JUMP JUMPDEST PUSH1 0x40 MLOAD PUSH4 0x118CDAA7 PUSH1 0xE0 SHL DUP2 MSTORE CALLER PUSH1 0x4 DUP3 ADD MSTORE PUSH1 0x24 SWAP1 REVERT JUMPDEST ISZERO PUSH2 0x2445 JUMPI JUMP JUMPDEST PUSH1 0x40 MLOAD PUSH3 0x461BCD PUSH1 0xE5 SHL DUP2 MSTORE PUSH1 0x20 PUSH1 0x4 DUP3 ADD MSTORE PUSH1 0xF PUSH1 0x24 DUP3 ADD MSTORE PUSH15 0x10DBDB9D1C9858DD081C185D5CD959 PUSH1 0x8A SHL PUSH1 0x44 DUP3 ADD MSTORE PUSH1 0x64 SWAP1 REVERT JUMPDEST ISZERO PUSH2 0x2483 JUMPI JUMP JUMPDEST PUSH1 0x40 MLOAD PUSH3 0x461BCD PUSH1 0xE5 SHL DUP2 MSTORE PUSH1 0x20 PUSH1 0x4 DUP3 ADD MSTORE PUSH1 0xF PUSH1 0x24 DUP3 ADD MSTORE PUSH15 0x125B9D985B1A59081C1C9BD91D58DD PUSH1 0x8A SHL PUSH1 0x44 DUP3 ADD MSTORE PUSH1 0x64 SWAP1 REVERT JUMPDEST ISZERO PUSH2 0x24C1 JUMPI JUMP JUMPDEST PUSH1 0x40 MLOAD PUSH3 0x461BCD PUSH1 0xE5 SHL DUP2 MSTORE PUSH1 0x20 PUSH1 0x4 DUP3 ADD MSTORE PUSH1 0x10 PUSH1 0x24 DUP3 ADD MSTORE PUSH16 0x50726F6475637420696E616374697665 PUSH1 0x80 SHL PUSH1 0x44 DUP3 ADD MSTORE PUSH1 0x64 SWAP1 REVERT JUMPDEST ISZERO PUSH2 0x2500 JUMPI JUMP JUMPDEST PUSH1 0x40 MLOAD PUSH3 0x461BCD PUSH1 0xE5 SHL DUP2 MSTORE PUSH1 0x20 PUSH1 0x4 DUP3 ADD MSTORE PUSH1 0xF PUSH1 0x24 DUP3 ADD MSTORE PUSH15 0x149BDD5B990818DBDB5C1B195D1959 PUSH1 0x8A SHL PUSH1 0x44 DUP3 ADD MSTORE PUSH1 0x64 SWAP1 REVERT JUMPDEST ISZERO PUSH2 0x253E JUMPI JUMP JUMPDEST PUSH1 0x40 MLOAD PUSH3 0x461BCD PUSH1 0xE5 SHL DUP2 MSTORE PUSH1 0x20 PUSH1 0x4 DUP3 ADD MSTORE PUSH1 0x1B PUSH1 0x24 DUP3 ADD MSTORE PUSH32 0x496E76616C6964207175616E746974792028312F332F352F3130290000000000 PUSH1 0x44 DUP3 ADD MSTORE PUSH1 0x64 SWAP1 REVERT JUMPDEST PUSH1 0x0 NOT DUP2 EQ PUSH2 0x2592 JUMPI PUSH1 0x1 ADD SWAP1 JUMP JUMPDEST PUSH4 0x4E487B71 PUSH1 0xE0 SHL PUSH1 0x0 MSTORE PUSH1 0x11 PUSH1 0x4 MSTORE PUSH1 0x24 PUSH1 0x0 REVERT JUMPDEST SWAP2 SWAP1 DUP2 LT ISZERO PUSH2 0x1181 JUMPI PUSH1 0x5 SHL ADD SWAP1 JUMP JUMPDEST SWAP2 SWAP1 DUP3 ADD DUP1 SWAP3 GT PUSH2 0x2592 JUMPI JUMP JUMPDEST DUP2 DUP2 MUL SWAP3 SWAP2 DUP2 ISZERO SWAP2 DUP5 DIV EQ OR ISZERO PUSH2 0x2592 JUMPI JUMP JUMPDEST SWAP1 DUP2 PUSH1 0x20 SWAP2 SUB SLT PUSH2 0x526 JUMPI MLOAD DUP1 ISZERO ISZERO DUP2 SUB PUSH2 0x526 JUMPI SWAP1 JUMP JUMPDEST ISZERO PUSH2 0x25F7 JUMPI JUMP JUMPDEST PUSH1 0x40 MLOAD PUSH3 0x461BCD PUSH1 0xE5 SHL DUP2 MSTORE PUSH1 0x20 PUSH1 0x4 DUP3 ADD MSTORE PUSH1 0xF PUSH1 0x24 DUP3 ADD MSTORE PUSH15 0x151C985B9CD9995C8819985A5B1959 PUSH1 0x8A SHL PUSH1 0x44 DUP3 ADD MSTORE PUSH1 0x64 SWAP1 REVERT JUMPDEST DUP1 SLOAD PUSH9 0x10000000000000000 DUP2 LT ISZERO PUSH2 0x218A JUMPI PUSH2 0x2650 SWAP2 PUSH1 0x1 DUP3 ADD DUP2 SSTORE PUSH2 0x23FA JUMP JUMPDEST DUP2 SWAP3 SWAP2 SLOAD SWAP1 PUSH1 0x3 SHL SWAP2 DUP3 SHL SWAP2 PUSH1 0x0 NOT SWAP1 SHL NOT AND OR SWAP1 SSTORE JUMP JUMPDEST PUSH1 0x2 PUSH1 0x0 SLOAD EQ PUSH2 0x2679 JUMPI PUSH1 0x2 PUSH1 0x0 SSTORE JUMP JUMPDEST PUSH1 0x40 MLOAD PUSH4 0x3EE5AEB5 PUSH1 0xE0 SHL DUP2 MSTORE PUSH1 0x4 SWAP1 REVERT JUMPDEST SWAP1 SWAP2 PUSH1 0x0 DUP4 ISZERO PUSH2 0x29F1 JUMPI PUSH1 0x1 PUSH1 0x1 PUSH1 0xA0 SHL SUB PUSH32 0x0 DUP2 AND SWAP5 SWAP1 SWAP2 SWAP1 DUP6 EXTCODESIZE ISZERO PUSH2 0xC27 JUMPI PUSH1 0x40 DUP1 MLOAD PUSH4 0x7B22EE3 PUSH1 0xE2 SHL DUP2 MSTORE PUSH1 0x1 PUSH1 0x1 PUSH1 0xA0 SHL SUB SWAP7 SWAP1 SWAP7 AND PUSH1 0x4 DUP8 ADD MSTORE PUSH1 0x24 DUP7 ADD SWAP2 SWAP1 SWAP2 MSTORE SWAP4 SWAP1 DUP1 DUP3 PUSH1 0x44 DUP2 DUP4 DUP11 GAS CALL SWAP2 DUP3 PUSH2 0x29E2 JUMPI JUMPDEST POP SWAP1 PUSH2 0x29DB JUMPI DUP3 DUP2 MSTORE PUSH1 0x7 SWAP3 PUSH1 0x20 SWAP4 DUP1 DUP6 MSTORE PUSH1 0x6 SWAP2 DUP3 DUP8 DUP6 KECCAK256 ADD PUSH1 0xFF NOT DUP2 SLOAD AND SWAP1 SSTORE DUP7 MLOAD SWAP8 PUSH4 0x70A08231 PUSH1 0xE0 SHL SWAP9 DUP10 DUP2 MSTORE DUP2 PUSH1 0x4 DUP3 ADD MSTORE DUP8 DUP2 PUSH1 0x24 DUP2 DUP6 GAS STATICCALL SWAP1 DUP2 ISZERO PUSH2 0x29D1 JUMPI DUP7 SWAP2 PUSH2 0x29A4 JUMPI JUMPDEST POP DUP2 EXTCODESIZE ISZERO PUSH2 0x29A0 JUMPI DUP6 DUP1 SWAP3 PUSH1 0x24 DUP3 SWAP4 DUP13 MLOAD SWAP6 DUP7 SWAP4 DUP5 SWAP3 PUSH4 0x57D020CF PUSH1 0xE0 SHL DUP5 MSTORE PUSH1 0x4 DUP5 ADD MSTORE GAS CALL SWAP2 DUP3 PUSH2 0x298C JUMPI JUMPDEST POP POP PUSH2 0x2962 JUMPI JUMPDEST POP PUSH1 0x1 SWAP1 DUP4 JUMPDEST DUP4 DUP2 LT PUSH2 0x2936 JUMPI JUMPDEST POP POP DUP1 PUSH2 0x292A JUMPI JUMPDEST DUP1 PUSH2 0x28FB JUMPI JUMPDEST PUSH2 0x27AF JUMPI JUMPDEST POP POP POP POP POP POP JUMP JUMPDEST SLOAD DUP5 MLOAD SWAP6 DUP7 MSTORE DUP3 AND PUSH1 0x4 DUP7 ADD DUP2 SWAP1 MSTORE PUSH32 0x0 DUP4 AND DUP5 DUP8 PUSH1 0x24 DUP2 DUP5 GAS STATICCALL SWAP7 DUP8 ISZERO PUSH2 0x28F1 JUMPI DUP4 SWAP8 PUSH2 0x28C2 JUMPI JUMPDEST POP DUP7 PUSH2 0x2804 JUMPI JUMPDEST POP PUSH2 0x27A7 JUMP JUMPDEST DUP6 MLOAD PUSH4 0x23B872DD PUSH1 0xE0 SHL DUP2 MSTORE PUSH1 0x1 PUSH1 0x1 PUSH1 0xA0 SHL SUB SWAP3 DUP4 AND PUSH1 0x4 DUP3 ADD MSTORE PUSH32 0x0 SWAP3 DUP4 AND PUSH1 0x24 DUP3 ADD MSTORE PUSH1 0x44 DUP2 ADD DUP9 SWAP1 MSTORE SWAP2 SWAP3 DUP6 SWAP2 DUP4 SWAP2 PUSH1 0x64 SWAP2 DUP4 SWAP2 SWAP1 GAS CALL SWAP1 DUP2 PUSH2 0x28A5 JUMPI JUMPDEST POP PUSH2 0x2872 JUMPI JUMPDEST DUP1 DUP1 PUSH2 0x27FE JUMP JUMPDEST PUSH32 0xCFD2C39038D6FE3AB21A6C57369264DD95402956C840486FCB43008A322495CB SWAP4 MLOAD SWAP5 DUP6 MSTORE AND SWAP3 LOG2 CODESIZE DUP1 DUP1 DUP1 DUP1 PUSH2 0x286B JUMP JUMPDEST PUSH2 0x28BB SWAP1 DUP6 RETURNDATASIZE DUP8 GT PUSH2 0x92C JUMPI PUSH2 0x91E DUP2 DUP4 PUSH2 0x21BC JUMP JUMPDEST POP CODESIZE PUSH2 0x2865 JUMP JUMPDEST SWAP1 SWAP7 POP DUP5 DUP2 DUP2 RETURNDATASIZE DUP4 GT PUSH2 0x28EA JUMPI JUMPDEST PUSH2 0x28DA DUP2 DUP4 PUSH2 0x21BC JUMP JUMPDEST DUP2 ADD SUB SLT PUSH2 0x526 JUMPI MLOAD SWAP6 CODESIZE PUSH2 0x27F7 JUMP JUMPDEST POP RETURNDATASIZE PUSH2 0x28D0 JUMP JUMPDEST DUP7 MLOAD RETURNDATASIZE DUP6 DUP3 RETURNDATACOPY RETURNDATASIZE SWAP1 REVERT JUMPDEST POP DUP3 DUP2 SLOAD AND DUP4 PUSH32 0x0 AND EQ ISZERO PUSH2 0x27A2 JUMP JUMPDEST POP DUP3 DUP2 SLOAD AND ISZERO ISZERO PUSH2 0x279C JUMP JUMPDEST DUP1 DUP6 MSTORE DUP2 DUP8 MSTORE PUSH1 0xFF DUP5 DUP10 DUP8 KECCAK256 ADD SLOAD AND PUSH2 0x2957 JUMPI PUSH2 0x2952 SWAP1 PUSH2 0x2583 JUMP JUMPDEST PUSH2 0x278C JUMP JUMPDEST POP POP POP DUP2 CODESIZE DUP1 PUSH2 0x2794 JUMP JUMPDEST PUSH32 0xA59BE52632C4B7921B8B3FBD4B3904513421C74FE4FBDB2F7CEEF33B87FE3BF6 DUP5 DUP1 LOG2 CODESIZE PUSH2 0x2786 JUMP JUMPDEST PUSH2 0x2995 SWAP1 PUSH2 0x2176 JUMP JUMPDEST PUSH2 0x95D JUMPI DUP5 CODESIZE PUSH2 0x277F JUMP JUMPDEST DUP6 DUP1 REVERT JUMPDEST SWAP1 POP DUP8 DUP2 DUP2 RETURNDATASIZE DUP4 GT PUSH2 0x29CA JUMPI JUMPDEST PUSH2 0x29BB DUP2 DUP4 PUSH2 0x21BC JUMP JUMPDEST DUP2 ADD SUB SLT PUSH2 0x526 JUMPI MLOAD CODESIZE PUSH2 0x2751 JUMP JUMPDEST POP RETURNDATASIZE PUSH2 0x29B1 JUMP JUMPDEST DUP10 MLOAD RETURNDATASIZE DUP9 DUP3 RETURNDATACOPY RETURNDATASIZE SWAP1 REVERT JUMPDEST POP POP POP POP POP JUMP JUMPDEST PUSH2 0x29EB SWAP1 PUSH2 0x2176 JUMP JUMPDEST CODESIZE PUSH2 0x2704 JUMP JUMPDEST POP POP POP POP JUMP JUMPDEST PUSH1 0x0 DUP2 DUP2 MSTORE PUSH1 0x20 SWAP1 PUSH1 0x8 DUP3 MSTORE PUSH1 0x40 DUP1 DUP3 KECCAK256 DUP6 DUP4 MSTORE DUP4 MSTORE DUP1 DUP3 KECCAK256 SWAP1 PUSH1 0x4 DUP3 ADD SWAP1 PUSH1 0xFF DUP3 SLOAD PUSH1 0xA8 SHR AND PUSH2 0x2B7E JUMPI PUSH1 0x6 SLOAD DUP2 MLOAD PUSH4 0x5D3B1D3 PUSH1 0xE4 SHL DUP2 MSTORE PUSH32 0x0 PUSH1 0x4 DUP3 ADD MSTORE PUSH32 0x0 PUSH8 0xFFFFFFFFFFFFFFFF AND PUSH1 0x24 DUP3 ADD MSTORE PUSH1 0x3 PUSH1 0x44 DUP3 ADD MSTORE PUSH1 0xA0 SWAP2 SWAP1 SWAP2 SHR PUSH4 0xFFFFFFFF AND PUSH1 0x64 DUP3 ADD MSTORE PUSH1 0x1 PUSH1 0x84 DUP3 ADD MSTORE SWAP5 DUP1 DUP7 PUSH1 0xA4 DUP2 DUP9 PUSH32 0x0 PUSH1 0x1 PUSH1 0x1 PUSH1 0xA0 SHL SUB AND GAS CALL SWAP6 DUP7 ISZERO PUSH2 0x2B74 JUMPI SWAP1 DUP9 SWAP3 SWAP2 DUP7 SWAP8 PUSH2 0x2B3D JUMPI JUMPDEST POP DUP7 DUP7 MSTORE PUSH1 0xC DUP2 MSTORE DUP2 DUP7 KECCAK256 DUP9 SWAP1 SSTORE PUSH1 0xD SWAP1 MSTORE DUP5 KECCAK256 SSTORE DUP1 SLOAD PUSH1 0xFF PUSH1 0xA8 SHL NOT AND PUSH1 0x1 PUSH1 0xA8 SHL OR SWAP1 SSTORE PUSH1 0x5 ADD DUP3 SWAP1 SSTORE PUSH32 0x3F627F5E911E5F6D4E28A76A1AF48BB55C89492569DAA91A48A7330789DD1E5E SWAP1 DUP1 LOG4 JUMP JUMPDEST DUP2 DUP1 SWAP8 SWAP9 POP DUP2 SWAP4 SWAP5 POP RETURNDATASIZE DUP4 GT PUSH2 0x2B6D JUMPI JUMPDEST PUSH2 0x2B58 DUP2 DUP4 PUSH2 0x21BC JUMP JUMPDEST DUP2 ADD SUB SLT PUSH2 0x29A0 JUMPI MLOAD SWAP5 SWAP4 DUP8 SWAP2 SWAP1 PUSH1 0x5 PUSH2 0x2AEB JUMP JUMPDEST POP RETURNDATASIZE PUSH2 0x2B4E JUMP JUMPDEST DUP3 MLOAD RETURNDATASIZE DUP8 DUP3 RETURNDATACOPY RETURNDATASIZE SWAP1 REVERT JUMPDEST MLOAD PUSH3 0x461BCD PUSH1 0xE5 SHL DUP2 MSTORE PUSH1 0x4 DUP2 ADD DUP6 SWAP1 MSTORE PUSH1 0x15 PUSH1 0x24 DUP3 ADD MSTORE PUSH21 0x15949188185B1C9958591E481C995C5D595CDD1959 PUSH1 0x5A SHL PUSH1 0x44 DUP3 ADD MSTORE PUSH1 0x64 SWAP1 REVERT JUMPDEST DUP2 ISZERO PUSH2 0x2BC3 JUMPI MOD SWAP1 JUMP JUMPDEST PUSH4 0x4E487B71 PUSH1 0xE0 SHL PUSH1 0x0 MSTORE PUSH1 0x12 PUSH1 0x4 MSTORE PUSH1 0x24 PUSH1 0x0 REVERT JUMPDEST DUP2 ISZERO PUSH2 0x2BC3 JUMPI DIV SWAP1 JUMP JUMPDEST PUSH1 0x0 SWAP1 DUP1 DUP3 MSTORE PUSH1 0x20 SWAP1 PUSH1 0x8 DUP3 MSTORE PUSH1 0x40 SWAP2 DUP3 DUP5 KECCAK256 DUP6 DUP6 MSTORE DUP2 MSTORE DUP3 DUP5 KECCAK256 SWAP5 PUSH1 0x2 DUP7 ADD DUP1 SLOAD SWAP1 DUP2 ISZERO PUSH2 0x2D3C JUMPI PUSH1 0xA SWAP2 DUP3 DUP2 LT ISZERO PUSH2 0x2D31 JUMPI PUSH2 0x2C22 DUP2 DUP1 SWAP12 PUSH2 0x2BD9 JUMP JUMPDEST SWAP9 PUSH1 0x0 NOT NUMBER ADD SWAP1 NUMBER DUP3 GT PUSH2 0x2D1D JUMPI PUSH1 0x3 ADD SLOAD DUP9 MLOAD SWAP1 DUP8 DUP3 ADD SWAP3 BLOCKHASH DUP4 MSTORE TIMESTAMP DUP11 DUP4 ADD MSTORE PUSH1 0x60 DUP3 ADD MSTORE DUP8 PUSH1 0x80 DUP3 ADD MSTORE DUP6 PUSH1 0xA0 DUP3 ADD MSTORE PUSH1 0xA0 DUP2 MSTORE PUSH1 0xC0 DUP2 ADD DUP2 DUP2 LT PUSH8 0xFFFFFFFFFFFFFFFF DUP3 GT OR PUSH2 0x2D09 JUMPI DUP4 PUSH2 0x2C8A SWAP4 DUP15 SWAP4 PUSH2 0x2C84 SWAP4 DUP14 MSTORE MLOAD SWAP1 KECCAK256 PUSH2 0x2BB9 JUMP JUMPDEST SWAP3 PUSH2 0x2BD9 JUMP JUMPDEST DUP9 JUMPDEST DUP12 DUP2 LT PUSH2 0x2CA1 JUMPI POP POP POP POP POP POP POP POP POP POP POP POP JUMP JUMPDEST DUP1 PUSH2 0x2CC3 PUSH2 0x2CBB PUSH2 0x2CB5 DUP6 PUSH2 0x2CF4 SWAP6 PUSH2 0x25C5 JUMP JUMPDEST DUP7 PUSH2 0x25B8 JUMP JUMPDEST DUP7 SLOAD SWAP1 PUSH2 0x2BB9 JUMP JUMPDEST DUP10 DUP13 MSTORE DUP7 DUP10 MSTORE DUP11 DUP13 KECCAK256 DUP9 DUP14 MSTORE DUP10 MSTORE DUP11 DUP13 KECCAK256 SWAP1 DUP13 MSTORE DUP9 MSTORE DUP10 DUP12 KECCAK256 SLOAD PUSH1 0x1 PUSH1 0x1 PUSH1 0xA0 SHL SUB AND DUP13 DUP2 PUSH2 0x2CF9 JUMPI JUMPDEST POP POP PUSH2 0x2583 JUMP JUMPDEST PUSH2 0x2C8C JUMP JUMPDEST PUSH2 0x2D02 SWAP2 PUSH2 0x2D47 JUMP JUMPDEST CODESIZE DUP13 PUSH2 0x2CED JUMP JUMPDEST PUSH4 0x4E487B71 PUSH1 0xE0 SHL DUP12 MSTORE PUSH1 0x41 PUSH1 0x4 MSTORE PUSH1 0x24 DUP12 REVERT JUMPDEST PUSH4 0x4E487B71 PUSH1 0xE0 SHL DUP11 MSTORE PUSH1 0x11 PUSH1 0x4 MSTORE PUSH1 0x24 DUP11 REVERT JUMPDEST PUSH2 0x2C22 DUP4 DUP1 SWAP12 PUSH2 0x2BD9 JUMP JUMPDEST POP POP POP POP POP POP POP POP POP JUMP JUMPDEST PUSH1 0x1 PUSH1 0x1 PUSH1 0xA0 SHL SUB SWAP2 DUP2 DUP4 AND ISZERO ISZERO DUP1 PUSH2 0x2DFB JUMPI JUMPDEST PUSH2 0x2D64 JUMPI POP POP POP JUMP JUMPDEST PUSH1 0x40 MLOAD PUSH4 0xA9059CBB PUSH1 0xE0 SHL DUP2 MSTORE PUSH1 0x1 PUSH1 0x1 PUSH1 0xA0 SHL SUB SWAP3 SWAP1 SWAP3 AND PUSH1 0x4 DUP4 ADD MSTORE PUSH1 0x24 DUP3 ADD MSTORE SWAP1 PUSH1 0x20 SWAP1 DUP3 SWAP1 PUSH1 0x44 SWAP1 DUP3 SWAP1 PUSH1 0x0 SWAP1 PUSH32 0x0 AND GAS CALL DUP1 ISZERO PUSH2 0x2DEF JUMPI PUSH2 0x22EB SWAP2 PUSH1 0x0 SWAP2 PUSH2 0x2DD1 JUMPI JUMPDEST POP PUSH2 0x25F0 JUMP JUMPDEST PUSH2 0x2DE9 SWAP2 POP PUSH1 0x20 RETURNDATASIZE DUP2 GT PUSH2 0x92C JUMPI PUSH2 0x91E DUP2 DUP4 PUSH2 0x21BC JUMP JUMPDEST CODESIZE PUSH2 0x2DCB JUMP JUMPDEST PUSH1 0x40 MLOAD RETURNDATASIZE PUSH1 0x0 DUP3 RETURNDATACOPY RETURNDATASIZE SWAP1 REVERT JUMPDEST POP DUP1 ISZERO ISZERO PUSH2 0x2D5B JUMP JUMPDEST PUSH1 0x0 DUP2 DUP2 MSTORE PUSH1 0x9 PUSH1 0x20 MSTORE PUSH1 0x40 SWAP2 DUP3 DUP3 KECCAK256 SLOAD PUSH1 0x8 PUSH1 0x20 MSTORE DUP4 DUP4 KECCAK256 SWAP1 DUP4 MSTORE PUSH1 0x20 MSTORE DUP3 DUP3 KECCAK256 SWAP1 DUP3 MSTORE PUSH1 0x7 PUSH1 0x20 MSTORE DUP3 DUP3 KECCAK256 PUSH1 0xC0 PUSH1 0xFF PUSH1 0x6 DUP7 MLOAD SWAP4 PUSH2 0x2E43 DUP6 PUSH2 0x21A0 JUMP JUMPDEST PUSH2 0x2E4C DUP2 PUSH2 0x229B JUMP JUMPDEST DUP6 MSTORE PUSH1 0x1 DUP2 ADD SLOAD PUSH1 0x20 DUP7 ADD MSTORE PUSH1 0x2 DUP2 ADD SLOAD DUP1 SWAP9 DUP7 ADD MSTORE PUSH1 0x3 DUP2 ADD SLOAD PUSH1 0x60 DUP7 ADD MSTORE PUSH1 0x4 DUP2 ADD SLOAD PUSH1 0x80 DUP7 ADD MSTORE PUSH1 0x5 DUP2 ADD SLOAD PUSH1 0xA0 DUP7 ADD MSTORE ADD SLOAD AND ISZERO ISZERO SWAP2 ADD MSTORE PUSH1 0xFF PUSH1 0x4 DUP3 ADD SLOAD PUSH1 0xA0 SHR AND PUSH2 0x2EBC JUMPI PUSH1 0x2 ADD SLOAD DUP3 SUB SWAP2 DUP3 GT PUSH2 0x2EA8 JUMPI POP SWAP1 JUMP JUMPDEST PUSH4 0x4E487B71 PUSH1 0xE0 SHL DUP2 MSTORE PUSH1 0x11 PUSH1 0x4 MSTORE PUSH1 0x24 SWAP1 REVERT JUMPDEST POP SWAP1 POP SWAP1 JUMP INVALID LOG2 PUSH5 0x6970667358 0x22 SLT KECCAK256 PUSH19 0xA9E6BDDF7EB28233DB5946AB75AC657005E525 TIMESTAMP SWAP12 0xDA 0x5C SWAP14 JUMPI PC BYTE LOG2 DIV 0xF 0xC1 PUSH5 0x736F6C6343 STOP ADDMOD EQ STOP CALLER "},"methodIdentifiers":{"AMBASSADORS_PCT()":"43f4dabe","AUDIT_SHARE()":"5f0b764f","FEES_SHARE()":"f731d1ba","FOUNDER_SHARE()":"7f44a9bb","INSTANT_REWARDS_PCT()":"37f69bf5","MAIN_PRIZE_PCT()":"d4eeb14d","MULTILEVEL_PCT()":"e5346f30","NUM_WORDS()":"72cf6e34","OPERATIONS_PCT()":"882ecb10","PARTNER_SHARE()":"d60f669c","PRODUCT_COUNT()":"976286e2","REQUEST_CONFIRMATIONS()":"67f082b0","TREASURY_BTC_PCT()":"4192bf94","ambassadorRegistry()":"be8c2feb","auditFunds()":"182be553","buySpecificTickets(uint256,uint256[],address)":"d8b945aa","buyTickets(uint256,uint256,address)":"a792813c","buybackContract()":"8542b336","callbackGasLimit()":"24f74697","currentRound(uint256)":"f64d85af","emergencyPause()":"51858e27","emergencyUnpause()":"4a4e3bd5","emergencyWithdraw()":"db2e21bc","founder()":"4d853ee5","getAvailableTickets(uint256)":"0cc7b2a9","getProductInfo(uint256)":"79a85e6c","getRoundInfo(uint256,uint256)":"8a9bb02a","getUserTickets(uint256,uint256,address)":"9a2b3012","isTicketAvailable(uint256,uint256,uint256)":"e9789855","keyHash()":"61728f39","nxlToken()":"89ef723b","owner()":"8da5cb5b","partner()":"be10862b","paused()":"5c975abb","products(uint256)":"7acc0b20","rawFulfillRandomWords(uint256,uint256[])":"1fe543e3","reactivateProduct(uint256)":"6e0e5332","referralNetwork()":"4644ea4b","renounceOwnership()":"715018a6","rounds(uint256,uint256)":"e6da9213","setCallbackGasLimit(uint32)":"a4eb718c","setEcosystemAddresses(address,address,address,address)":"6d5a730c","stablecoin()":"e9cbd822","subscriptionId()":"09c1ba2e","ticketOwner(uint256,uint256,uint256)":"80b70e37","transferOwnership(address)":"f2fde38b","treasuryBTC()":"eb348f83","userTickets(uint256,uint256,address,uint256)":"cb1b5106","vrfCoordinator()":"a3e56fa8","vrfRequestToProduct(uint256)":"42b511c4","vrfRequestToRound(uint256)":"d5aa06fa"}}}}}