{"contracts/TreasuryBTC.sol":{"TreasuryBTC":{"abi":[{"inputs":[{"internalType":"address","name":"_stablecoin","type":"address"},{"internalType":"address","name":"_nxlToken","type":"address"},{"internalType":"address","name":"_founder","type":"address"}],"stateMutability":"nonpayable","type":"constructor"},{"inputs":[{"internalType":"address","name":"owner","type":"address"}],"name":"OwnableInvalidOwner","type":"error"},{"inputs":[{"internalType":"address","name":"account","type":"address"}],"name":"OwnableUnauthorizedAccount","type":"error"},{"inputs":[],"name":"ReentrancyGuardReentrantCall","type":"error"},{"anonymous":false,"inputs":[{"indexed":true,"internalType":"address","name":"from","type":"address"},{"indexed":false,"internalType":"uint256","name":"amount","type":"uint256"}],"name":"FundsReceived","type":"event"},{"anonymous":false,"inputs":[{"indexed":true,"internalType":"address","name":"to","type":"address"},{"indexed":false,"internalType":"uint256","name":"amount","type":"uint256"}],"name":"FundsWithdrawnForStaking","type":"event"},{"anonymous":false,"inputs":[{"indexed":true,"internalType":"address","name":"manager","type":"address"}],"name":"NexumManagerSet","type":"event"},{"anonymous":false,"inputs":[{"indexed":true,"internalType":"address","name":"previousOwner","type":"address"},{"indexed":true,"internalType":"address","name":"newOwner","type":"address"}],"name":"OwnershipTransferred","type":"event"},{"anonymous":false,"inputs":[{"indexed":true,"internalType":"address","name":"user","type":"address"},{"indexed":true,"internalType":"uint256","name":"snapshotId","type":"uint256"},{"indexed":false,"internalType":"uint256","name":"amount","type":"uint256"}],"name":"RewardClaimed","type":"event"},{"anonymous":false,"inputs":[{"indexed":true,"internalType":"uint256","name":"snapshotId","type":"uint256"},{"indexed":false,"internalType":"uint256","name":"amount","type":"uint256"}],"name":"RewardsDeposited","type":"event"},{"anonymous":false,"inputs":[{"indexed":false,"internalType":"bool","name":"active","type":"bool"}],"name":"StakingStatusChanged","type":"event"},{"inputs":[],"name":"MIN_WITHDRAWAL_INTERVAL","outputs":[{"internalType":"uint256","name":"","type":"uint256"}],"stateMutability":"view","type":"function"},{"inputs":[{"internalType":"uint256[]","name":"snapshotIds","type":"uint256[]"}],"name":"claimMultipleRewards","outputs":[],"stateMutability":"nonpayable","type":"function"},{"inputs":[{"internalType":"uint256","name":"snapshotId","type":"uint256"}],"name":"claimRewards","outputs":[],"stateMutability":"nonpayable","type":"function"},{"inputs":[{"internalType":"uint256","name":"amount","type":"uint256"}],"name":"depositFunds","outputs":[],"stateMutability":"nonpayable","type":"function"},{"inputs":[{"internalType":"uint256","name":"rewardAmount","type":"uint256"}],"name":"depositMonthlyRewards","outputs":[],"stateMutability":"nonpayable","type":"function"},{"inputs":[{"internalType":"uint256","name":"amount","type":"uint256"}],"name":"emergencyWithdraw","outputs":[],"stateMutability":"nonpayable","type":"function"},{"inputs":[],"name":"founder","outputs":[{"internalType":"address","name":"","type":"address"}],"stateMutability":"view","type":"function"},{"inputs":[],"name":"getContractInfo","outputs":[{"internalType":"uint256","name":"balance","type":"uint256"},{"internalType":"uint256","name":"deposited","type":"uint256"},{"internalType":"uint256","name":"withdrawnForStaking","type":"uint256"},{"internalType":"uint256","name":"rewardsDistributed","type":"uint256"},{"internalType":"uint256","name":"snapshots","type":"uint256"},{"internalType":"bool","name":"isStakingActive","type":"bool"},{"internalType":"uint256","name":"lastWithdrawal","type":"uint256"},{"internalType":"uint256","name":"nextWithdrawalAvailable","type":"uint256"}],"stateMutability":"view","type":"function"},{"inputs":[{"internalType":"address","name":"user","type":"address"},{"internalType":"uint256","name":"snapshotId","type":"uint256"}],"name":"getPendingRewards","outputs":[{"internalType":"uint256","name":"","type":"uint256"}],"stateMutability":"view","type":"function"},{"inputs":[{"internalType":"uint256","name":"snapshotId","type":"uint256"}],"name":"getSnapshotInfo","outputs":[{"internalType":"uint256","name":"timestamp","type":"uint256"},{"internalType":"uint256","name":"totalRewards","type":"uint256"},{"internalType":"uint256","name":"totalSupply","type":"uint256"},{"internalType":"bool","name":"distributed","type":"bool"}],"stateMutability":"view","type":"function"},{"inputs":[{"internalType":"address","name":"user","type":"address"}],"name":"getTotalPendingRewards","outputs":[{"internalType":"uint256","name":"total","type":"uint256"}],"stateMutability":"view","type":"function"},{"inputs":[],"name":"lastWithdrawalTime","outputs":[{"internalType":"uint256","name":"","type":"uint256"}],"stateMutability":"view","type":"function"},{"inputs":[],"name":"nexumManager","outputs":[{"internalType":"address","name":"","type":"address"}],"stateMutability":"view","type":"function"},{"inputs":[],"name":"nxlToken","outputs":[{"internalType":"contract IERC20","name":"","type":"address"}],"stateMutability":"view","type":"function"},{"inputs":[],"name":"owner","outputs":[{"internalType":"address","name":"","type":"address"}],"stateMutability":"view","type":"function"},{"inputs":[],"name":"receiveFunds","outputs":[],"stateMutability":"nonpayable","type":"function"},{"inputs":[{"internalType":"address","name":"tokenAddress","type":"address"},{"internalType":"uint256","name":"amount","type":"uint256"}],"name":"recoverERC20","outputs":[],"stateMutability":"nonpayable","type":"function"},{"inputs":[],"name":"renounceOwnership","outputs":[],"stateMutability":"nonpayable","type":"function"},{"inputs":[{"internalType":"uint256","name":"","type":"uint256"}],"name":"rewardSnapshots","outputs":[{"internalType":"uint256","name":"timestamp","type":"uint256"},{"internalType":"uint256","name":"totalRewards","type":"uint256"},{"internalType":"uint256","name":"totalNXLSupply","type":"uint256"},{"internalType":"bool","name":"distributed","type":"bool"}],"stateMutability":"view","type":"function"},{"inputs":[{"internalType":"address","name":"_nexumManager","type":"address"}],"name":"setNexumManager","outputs":[],"stateMutability":"nonpayable","type":"function"},{"inputs":[{"internalType":"bool","name":"_active","type":"bool"}],"name":"setStakingStatus","outputs":[],"stateMutability":"nonpayable","type":"function"},{"inputs":[],"name":"snapshotCount","outputs":[{"internalType":"uint256","name":"","type":"uint256"}],"stateMutability":"view","type":"function"},{"inputs":[],"name":"stablecoin","outputs":[{"internalType":"contract IERC20","name":"","type":"address"}],"stateMutability":"view","type":"function"},{"inputs":[],"name":"stakingActive","outputs":[{"internalType":"bool","name":"","type":"bool"}],"stateMutability":"view","type":"function"},{"inputs":[{"internalType":"address","name":"","type":"address"}],"name":"totalClaimedByUser","outputs":[{"internalType":"uint256","name":"","type":"uint256"}],"stateMutability":"view","type":"function"},{"inputs":[],"name":"totalDeposited","outputs":[{"internalType":"uint256","name":"","type":"uint256"}],"stateMutability":"view","type":"function"},{"inputs":[],"name":"totalRewardsDistributed","outputs":[{"internalType":"uint256","name":"","type":"uint256"}],"stateMutability":"view","type":"function"},{"inputs":[],"name":"totalWithdrawnForStaking","outputs":[{"internalType":"uint256","name":"","type":"uint256"}],"stateMutability":"view","type":"function"},{"inputs":[{"internalType":"address","name":"newOwner","type":"address"}],"name":"transferOwnership","outputs":[],"stateMutability":"nonpayable","type":"function"},{"inputs":[{"internalType":"address","name":"","type":"address"},{"internalType":"uint256","name":"","type":"uint256"}],"name":"userClaimed","outputs":[{"internalType":"bool","name":"","type":"bool"}],"stateMutability":"view","type":"function"},{"inputs":[{"internalType":"uint256","name":"amount","type":"uint256"}],"name":"withdrawForStaking","outputs":[],"stateMutability":"nonpayable","type":"function"}],"evm":{"bytecode":{"linkReferences":{},"object":"60e0346200024457601f62001efe38819003918201601f191683019291906001600160401b0384118385101762000249578160609284926040968752833981010312620002445762000051816200025f565b6200006c8362000064602085016200025f565b93016200025f565b9133156200022c5760008054336001600160a01b031982168117835586516001600160a01b039590949386939192918416907f8be0079c531659141344cd1fd0a4f28419497f9722a3daafe3b4186f6b6457e09080a36001805516918215620001f557508216918215620001bd57831615620001875760805260a05260c05260ff196007541660075551611c899081620002758239608051818181610323015281816105730152818161063401528181610c2f01528181610d5101528181610f2f01528181611253015281816113ee0152818161164601526117d3015260a0518181816106860152818161089e01528181610bcb01528181610e990152818161157d0152611bb8015260c0518181816102a801526113450152f35b835162461bcd60e51b815260206004820152600f60248201526e24b73b30b634b2103337bab73232b960891b6044820152606490fd5b845162461bcd60e51b815260206004820152601160248201527024b73b30b634b210272c26103a37b5b2b760791b6044820152606490fd5b62461bcd60e51b815260206004820152601260248201527124b73b30b634b21039ba30b13632b1b7b4b760711b6044820152606490fd5b8351631e4fbdf760e01b815260006004820152602490fd5b600080fd5b634e487b7160e01b600052604160045260246000fd5b51906001600160a01b0382168203620002445756fe608060408181526004918236101561001657600080fd5b600092833560e01c9182625c33e1146117a8575081630962ef79146114cc578163098ab6a1146114ad57816334a014dc1461148e5781633b76594d1461139257816344a39964146113745781634d853ee5146113305781635312ea8e1461120a5781635d648588146111b7578163715018a61461115d578163729d0a8a14610e2d5781637cc1f86714610d1a5781638980f11f14610bfa57816389ef723b14610bb65781638da5cb5b14610b8e578163925d7c4414610ab157816395c4cc6214610a1f578163a6ac4b35146109fb578163a8c478ba14610867578163b8bec6a014610804578163bb0fecc7146107cc578163d66ee30d146107a3578163dbcb285b146105d2578163e4e7c6b4146105a2578163e9cbd8221461055e578163ee1725461461053f578163efe441d914610288578163f2fde38b146101fd57508063f9e8052d146101e0578063fcbf8b241461019a5763ff50abdc1461017957600080fd5b346101965781600319360112610196576020906003549051908152f35b5080fd5b503461019657806003193601126101965760209160ff9082906001600160a01b036101c361189e565b168152600a85528181206024358252855220541690519015158152f35b50346101965781600319360112610196576020905162278d008152f35b9050346102845760203660031901126102845761021861189e565b906102216118b9565b6001600160a01b0391821692831561026e57505082546001600160a01b0319811683178455167f8be0079c531659141344cd1fd0a4f28419497f9722a3daafe3b4186f6b6457e08380a380f35b51631e4fbdf760e01b8152908101849052602490fd5b8280fd5b9050346102845760208060031936011261053b5781356102a66118b9565b7f00000000000000000000000000000000000000000000000000000000000000006001600160a01b038181169490338614801561052f575b156104fd5760ff60075416156104c5576102f9841515611969565b60065462278d0081018091116104b257421061047b5786516370a0823160e01b81523083820152907f0000000000000000000000000000000000000000000000000000000000000000168582602481845afa9389851561047057879487948297610432575b5061036e856103b3981015611a00565b4260065561037d85825461195c565b81558a5163a9059cbb60e01b81526001600160a01b03909316908301908152602081019490945290948593849291839160400190565b03925af1908115610428577f919af1fc10649a8224f81a2f2b22d4789bd0d845caa1a114dcb69265b4cb16e09495916103f39188916103fb575b506119c2565b51908152a280f35b61041b9150853d8711610421575b6104138183611917565b8101906119aa565b386103ed565b503d610409565b85513d88823e3d90fd5b94509490955083813d8311610469575b61044c8183611917565b810103126104655791519386938693919061036e61035e565b8480fd5b503d610442565b8951903d90823e3d90fd5b865162461bcd60e51b815280830186905260116024820152704d7573742077616974203330206461797360781b6044820152606490fd5b634e487b7160e01b895260118352602489fd5b865162461bcd60e51b815280830186905260126024820152715374616b696e67206e6f742061637469766560701b6044820152606490fd5b865162461bcd60e51b8152808301869052600c60248201526b27b7363c903337bab73232b960a11b6044820152606490fd5b508088541633146102de565b8380fd5b5050346101965781600319360112610196576020906005549051908152f35b505034610196578160031936011261019657517f00000000000000000000000000000000000000000000000000000000000000006001600160a01b03168152602090f35b5050346101965780600319360112610196576020906105cb6105c261189e565b60243590611b20565b9051908152f35b9050346102845760208060031936011261053b5781356105f06118b9565b6105fb811515611969565b83516323b872dd60e01b815233848201908152306020820152604081018390526001600160a01b0395919084908290819003606001818a7f00000000000000000000000000000000000000000000000000000000000000008b165af1908115610799579061066f9188916103fb57506119c2565b82600954958251958680926318160ddd60e01b82527f0000000000000000000000000000000000000000000000000000000000000000165afa801561078f57869061073e575b7f8ad0c4905aa5603107e860e0c2b1a78e23eba312c30f8114a70d94d9e187f5af9450600382516106e5816118e5565b4281528581019285845284820190815260608201938a8552898b5260088852858b2092518355516001830155516002820155019051151560ff80198354169116179055610733600954611a43565b60095551908152a280f35b508284813d8311610788575b6107548183611917565b81010312610784577f8ad0c4905aa5603107e860e0c2b1a78e23eba312c30f8114a70d94d9e187f5af93516106b5565b8580fd5b503d61074a565b81513d88823e3d90fd5b82513d89823e3d90fd5b50503461019657816003193601126101965760025490516001600160a01b039091168152602090f35b5050346101965760203660031901126101965760209181906001600160a01b036107f461189e565b168152600b845220549051908152f35b905034610284576020366003190112610284573590811515809203610284577f8d2382069f9b9c6cbe24a294ec111217f32f20524e7099bc8882d7af51a61e1c916020916108506118b9565b60ff196007541660ff83161760075551908152a180f35b9190503461028457602092836003193601126109f85761088561189e565b60095491938492839290916001600160a01b03918216917f0000000000000000000000000000000000000000000000000000000000000000165b8386106108cf5788888851908152f35b909192939496838652600a8952868620888752895260ff8088882054166109ed57879060088b528a828920916060845191610909836118e5565b84548352600360018601549484019585875260028101549785019788520154161515910152156109e15788516370a0823160e01b8152858101879052908b82602481885afa9182156109d75789926109a4575b508115610997576109879261097961098d95936109819351611aca565b905190611add565b9061195c565b97611a43565b94939291906108bf565b5050509661098d90611a43565b9091508b81813d83116109d0575b6109bc8183611917565b810103126109cc5751903861095c565b8880fd5b503d6109b2565b8a513d8b823e3d90fd5b50509661098d90611a43565b509661098d90611a43565b80fd5b50503461019657816003193601126101965760209060ff6007541690519015158152f35b9050346102845760203660031901126102845791819235610a436009548210611a52565b815260086020522090610aad6060825193610a5d856118e5565b80549384865260018201549586602082015260ff60036002850154948585850152015416151593849101525194859485926060929594919560808501968552602085015260408401521515910152565b0390f35b8391503461019657602036600319011261019657610acd61189e565b610ad56118b9565b600254906001600160a01b0390818316610b5d5716918215610b2857506001600160a01b03191681176002557f1f93eb4af9964a0fbf3c59e4668618db26f4f90ff336d62addeb24270471eb708280a280f35b606490602086519162461bcd60e51b8352820152600f60248201526e496e76616c6964206164647265737360881b6044820152fd5b855162461bcd60e51b8152602081860152600b60248201526a105b1c9958591e481cd95d60aa1b6044820152606490fd5b505034610196578160031936011261019657905490516001600160a01b039091168152602090f35b505034610196578160031936011261019657517f00000000000000000000000000000000000000000000000000000000000000006001600160a01b03168152602090f35b83915034610196578260031936011261019657610c1561189e565b60243591610c216118b9565b6001600160a01b03918216917f000000000000000000000000000000000000000000000000000000000000000081168314610cd75792859260209286610c9f96610c6c851515611969565b8154169186519788958694859363a9059cbb60e01b8552840160209093929193604081019460018060a01b031681520152565b03925af1908115610cce5750610cb3575080f35b610cca9060203d8111610421576104138183611917565b5080f35b513d84823e3d90fd5b855162461bcd60e51b8152602081840152601960248201527f43616e6e6f74207265636f76657220737461626c65636f696e000000000000006044820152606490fd5b905034610284578260031936011261028457600654839181610e05575b83516370a0823160e01b81523082820152936020856024817f00000000000000000000000000000000000000000000000000000000000000006001600160a01b03165afa94851561078f578695610dcd575b5061010095506003549154600554906009549260ff60075416948151988952602089015287015260608601526080850152151560a084015260c083015260e0820152f35b9094506020813d8211610dfd575b81610de860209383611917565b81010312610784576101009550519338610d89565b3d9150610ddb565b915062278d008101808211610e1a5791610d37565b634e487b7160e01b855260118352602485fd5b905034610284576020908160031936011261053b57803567ffffffffffffffff918282116107845736602383011215610784578181013592831161078457602492600590368582841b8601011161115957918593918895610e8c611afd565b86946001600160a01b03947f000000000000000000000000000000000000000000000000000000000000000086169290875b838110610f9c575050505050610f2b9550610eda841515611a91565b338952600b8552878920610eef85825461195c565b9055610efc84825461195c565b9055865163a9059cbb60e01b815233918101918252602082019390935291938492839189918391604090910190565b03927f0000000000000000000000000000000000000000000000000000000000000000165af1918215610f8f57610f6b93508492610f72575b50506119c2565b6001805580f35b610f889250803d10610421576104138183611917565b3880610f64565b50505051903d90823e3d90fd5b918597995082819597999294961b840101359060095482101561114d57338b528b8d600a9c8d8352818120858252835260ff9283838320541661113d5760088152828220835194610fec866118e5565b81548652600195868301549060608582019383855260036002870154968a850197885201541615159101521561112b578c908f84908d8851809581936370a0823160e01b835233908301525afa9182156111215785926110f2575b5081156110df5761105d92916109799151611aca565b9e8f156110ce573383528152828220868352905220805460ff191690911790556110be92919061108e908c9061195c565b9a8d519081527ff01da32686223933d8a18a391060918c7f11a3648639edd87ae013e2e27317438d3392a3611a43565b9189979593918c99979593610ebe565b50505050509950506110be90611a43565b505050505050509950506110be90611a43565b9091508381813d831161111a575b61110a8183611917565b8101031261046557519038611047565b503d611100565b86513d87823e3d90fd5b5050505050509950506110be90611a43565b505050509950506110be90611a43565b9950506110be90611a43565b8780fd5b83346109f857806003193601126109f8576111766118b9565b80546001600160a01b03198116825581906001600160a01b03167f8be0079c531659141344cd1fd0a4f28419497f9722a3daafe3b4186f6b6457e08280a380f35b905034610284576020366003190112610284573582526008602090815291819020805460018201546002830154600390930154935191825293810193909352604083015260ff1615156060820152608090f35b905034610284576020908160031936011261053b5780359061122a6118b9565b611235821515611969565b83516370a0823160e01b815230828201526001600160a01b039290917f0000000000000000000000000000000000000000000000000000000000000000841690878685602481865afa801561132457879582916112f1575b509561129e856112d1981015611a00565b8154169188519687958694859363a9059cbb60e01b8552840160209093929193604081019460018060a01b031681520152565b03925af1918215610f8f576112ee93508492610f725750506119c2565b80f35b86819792503d831161131d575b6113088183611917565b810103126109f857935186949061129e61128d565b503d6112fe565b508751903d90823e3d90fd5b505034610196578160031936011261019657517f00000000000000000000000000000000000000000000000000000000000000006001600160a01b03168152602090f35b90503461028457826003193601126102845760209250549051908152f35b91905034610284576020366003190112610284576113e96020833580946113ba821515611969565b84516323b872dd60e01b8152339181019182523060208301526040820192909252909283918291606090910190565b0381877f00000000000000000000000000000000000000000000000000000000000000006001600160a01b03165af1908115611484579061143091859161146c57506119c2565b61143c8260035461195c565b600355519081527f8e47b87b0ef542cdfa1659c551d88bad38aa7f452d2bbb349ab7530dfec8be8f60203392a280f35b61041b915060203d8111610421576104138183611917565b82513d86823e3d90fd5b5050346101965781600319360112610196576020906006549051908152f35b5050346101965781600319360112610196576020906009549051908152f35b9050346102845760208060031936011261053b578135926114eb611afd565b6114f86009548510611a52565b338552600a8252808520848652825260ff81862054166117755783855260088252808520815190611528826118e5565b8054825261155c600182015485840193818552606060ff600360028701549689850197885201541615159101521515611a91565b82516370a0823160e01b815233868201526001600160a01b039285826024817f000000000000000000000000000000000000000000000000000000000000000088165afa91821561176b57899261173c575b508115611708576115c492916109799151611aca565b9384156116d25784611642928592338a52600a8452858a20898b528452858a20600160ff19825416179055338a52600b8452858a2061160484825461195c565b90556116128360055461195c565b600555855163a9059cbb60e01b81523391810191825260208201939093529193849283918b918391604090910190565b03927f0000000000000000000000000000000000000000000000000000000000000000165af19081156116c8577ff01da32686223933d8a18a391060918c7f11a3648639edd87ae013e2e27317439392916116a39188916116b157506119c2565b519283523392a36001805580f35b61041b9150843d8611610421576104138183611917565b82513d88823e3d90fd5b825162461bcd60e51b8152908101849052601060248201526f14995dd85c99081d1bdbc81cdb585b1b60821b6044820152606490fd5b845162461bcd60e51b8152808801879052600e60248201526d4e6f204e584c2062616c616e636560901b6044820152606490fd5b9091508581813d8311611764575b6117548183611917565b810103126109cc575190386115ae565b503d61174a565b85513d8b823e3d90fd5b5162461bcd60e51b815291820152600f60248201526e105b1c9958591e4818db185a5b5959608a1b604482015260649150fd5b909291503461053b578360031936011261053b576370a0823160e01b815230838201526020816024817f00000000000000000000000000000000000000000000000000000000000000006001600160a01b03165afa801561148457849061186b575b611823915061181d600354945485611939565b90611939565b918261182d578380f35b826118379161195c565b600355519081527f8e47b87b0ef542cdfa1659c551d88bad38aa7f452d2bbb349ab7530dfec8be8f60203392a23880808380f35b506020813d8211611896575b8161188460209383611917565b8101031261053b57611823905161180a565b3d9150611877565b600435906001600160a01b03821682036118b457565b600080fd5b6000546001600160a01b031633036118cd57565b60405163118cdaa760e01b8152336004820152602490fd5b6080810190811067ffffffffffffffff82111761190157604052565b634e487b7160e01b600052604160045260246000fd5b90601f8019910116810190811067ffffffffffffffff82111761190157604052565b9190820391821161194657565b634e487b7160e01b600052601160045260246000fd5b9190820180921161194657565b1561197057565b60405162461bcd60e51b81526020600482015260126024820152710416d6f756e74206d757374206265203e20360741b6044820152606490fd5b908160209103126118b4575180151581036118b45790565b156119c957565b60405162461bcd60e51b815260206004820152600f60248201526e151c985b9cd9995c8819985a5b1959608a1b6044820152606490fd5b15611a0757565b60405162461bcd60e51b8152602060048201526014602482015273496e73756666696369656e742062616c616e636560601b6044820152606490fd5b60001981146119465760010190565b15611a5957565b60405162461bcd60e51b815260206004820152601060248201526f125b9d985b1a59081cdb985c1cda1bdd60821b6044820152606490fd5b15611a9857565b60405162461bcd60e51b815260206004820152600a6024820152694e6f207265776172647360b01b6044820152606490fd5b8181029291811591840414171561194657565b8115611ae7570490565b634e487b7160e01b600052601260045260246000fd5b600260015414611b0e576002600155565b604051633ee5aeb560e01b8152600490fd5b600954821015611c4c576001600160a01b039081166000818152600a602090815260408083209583529481528482205490939060ff16611c44576008845284822093855193611b6e856118e5565b85548552600186015482860195818752606060ff600360028b01549a8c85019b8c52015416151591015215611c3a57819060248851809581936370a0823160e01b835260048301527f0000000000000000000000000000000000000000000000000000000000000000165afa958615610cce57508295611c0a575b50508315611c035750611c00926109799151611aca565b90565b9250505090565b9080929550813d8311611c33575b611c228183611917565b8101031261053b5751923880611be9565b503d611c18565b5050509250505090565b509250505090565b505060009056fea26469706673582212205f8b63d93c1c6035efb86ae6069a61c5cba39a0f9efa922cfca48ae0ee754f8b64736f6c63430008140033","opcodes":"PUSH1 0xE0 CALLVALUE PUSH3 0x244 JUMPI PUSH1 0x1F PUSH3 0x1EFE CODESIZE DUP2 SWAP1 SUB SWAP2 DUP3 ADD PUSH1 0x1F NOT AND DUP4 ADD SWAP3 SWAP2 SWAP1 PUSH1 0x1 PUSH1 0x1 PUSH1 0x40 SHL SUB DUP5 GT DUP4 DUP6 LT OR PUSH3 0x249 JUMPI DUP2 PUSH1 0x60 SWAP3 DUP5 SWAP3 PUSH1 0x40 SWAP7 DUP8 MSTORE DUP4 CODECOPY DUP2 ADD SUB SLT PUSH3 0x244 JUMPI PUSH3 0x51 DUP2 PUSH3 0x25F JUMP JUMPDEST PUSH3 0x6C DUP4 PUSH3 0x64 PUSH1 0x20 DUP6 ADD PUSH3 0x25F JUMP JUMPDEST SWAP4 ADD PUSH3 0x25F JUMP JUMPDEST SWAP2 CALLER ISZERO PUSH3 0x22C JUMPI PUSH1 0x0 DUP1 SLOAD CALLER PUSH1 0x1 PUSH1 0x1 PUSH1 0xA0 SHL SUB NOT DUP3 AND DUP2 OR DUP4 SSTORE DUP7 MLOAD PUSH1 0x1 PUSH1 0x1 PUSH1 0xA0 SHL SUB SWAP6 SWAP1 SWAP5 SWAP4 DUP7 SWAP4 SWAP2 SWAP3 SWAP2 DUP5 AND SWAP1 PUSH32 0x8BE0079C531659141344CD1FD0A4F28419497F9722A3DAAFE3B4186F6B6457E0 SWAP1 DUP1 LOG3 PUSH1 0x1 DUP1 SSTORE AND SWAP2 DUP3 ISZERO PUSH3 0x1F5 JUMPI POP DUP3 AND SWAP2 DUP3 ISZERO PUSH3 0x1BD JUMPI DUP4 AND ISZERO PUSH3 0x187 JUMPI PUSH1 0x80 MSTORE PUSH1 0xA0 MSTORE PUSH1 0xC0 MSTORE PUSH1 0xFF NOT PUSH1 0x7 SLOAD AND PUSH1 0x7 SSTORE MLOAD PUSH2 0x1C89 SWAP1 DUP2 PUSH3 0x275 DUP3 CODECOPY PUSH1 0x80 MLOAD DUP2 DUP2 DUP2 PUSH2 0x323 ADD MSTORE DUP2 DUP2 PUSH2 0x573 ADD MSTORE DUP2 DUP2 PUSH2 0x634 ADD MSTORE DUP2 DUP2 PUSH2 0xC2F ADD MSTORE DUP2 DUP2 PUSH2 0xD51 ADD MSTORE DUP2 DUP2 PUSH2 0xF2F ADD MSTORE DUP2 DUP2 PUSH2 0x1253 ADD MSTORE DUP2 DUP2 PUSH2 0x13EE ADD MSTORE DUP2 DUP2 PUSH2 0x1646 ADD MSTORE PUSH2 0x17D3 ADD MSTORE PUSH1 0xA0 MLOAD DUP2 DUP2 DUP2 PUSH2 0x686 ADD MSTORE DUP2 DUP2 PUSH2 0x89E ADD MSTORE DUP2 DUP2 PUSH2 0xBCB ADD MSTORE DUP2 DUP2 PUSH2 0xE99 ADD MSTORE DUP2 DUP2 PUSH2 0x157D ADD MSTORE PUSH2 0x1BB8 ADD MSTORE PUSH1 0xC0 MLOAD DUP2 DUP2 DUP2 PUSH2 0x2A8 ADD MSTORE PUSH2 0x1345 ADD MSTORE RETURN JUMPDEST DUP4 MLOAD PUSH3 0x461BCD PUSH1 0xE5 SHL DUP2 MSTORE PUSH1 0x20 PUSH1 0x4 DUP3 ADD MSTORE PUSH1 0xF PUSH1 0x24 DUP3 ADD MSTORE PUSH15 0x24B73B30B634B2103337BAB73232B9 PUSH1 0x89 SHL PUSH1 0x44 DUP3 ADD MSTORE PUSH1 0x64 SWAP1 REVERT JUMPDEST DUP5 MLOAD PUSH3 0x461BCD PUSH1 0xE5 SHL DUP2 MSTORE PUSH1 0x20 PUSH1 0x4 DUP3 ADD MSTORE PUSH1 0x11 PUSH1 0x24 DUP3 ADD MSTORE PUSH17 0x24B73B30B634B210272C26103A37B5B2B7 PUSH1 0x79 SHL PUSH1 0x44 DUP3 ADD MSTORE PUSH1 0x64 SWAP1 REVERT JUMPDEST PUSH3 0x461BCD PUSH1 0xE5 SHL DUP2 MSTORE PUSH1 0x20 PUSH1 0x4 DUP3 ADD MSTORE PUSH1 0x12 PUSH1 0x24 DUP3 ADD MSTORE PUSH18 0x24B73B30B634B21039BA30B13632B1B7B4B7 PUSH1 0x71 SHL PUSH1 0x44 DUP3 ADD MSTORE PUSH1 0x64 SWAP1 REVERT JUMPDEST DUP4 MLOAD PUSH4 0x1E4FBDF7 PUSH1 0xE0 SHL DUP2 MSTORE PUSH1 0x0 PUSH1 0x4 DUP3 ADD MSTORE PUSH1 0x24 SWAP1 REVERT JUMPDEST PUSH1 0x0 DUP1 REVERT JUMPDEST PUSH4 0x4E487B71 PUSH1 0xE0 SHL PUSH1 0x0 MSTORE PUSH1 0x41 PUSH1 0x4 MSTORE PUSH1 0x24 PUSH1 0x0 REVERT JUMPDEST MLOAD SWAP1 PUSH1 0x1 PUSH1 0x1 PUSH1 0xA0 SHL SUB DUP3 AND DUP3 SUB PUSH3 0x244 JUMPI JUMP INVALID PUSH1 0x80 PUSH1 0x40 DUP2 DUP2 MSTORE PUSH1 0x4 SWAP2 DUP3 CALLDATASIZE LT ISZERO PUSH2 0x16 JUMPI PUSH1 0x0 DUP1 REVERT JUMPDEST PUSH1 0x0 SWAP3 DUP4 CALLDATALOAD PUSH1 0xE0 SHR SWAP2 DUP3 PUSH3 0x5C33E1 EQ PUSH2 0x17A8 JUMPI POP DUP2 PUSH4 0x962EF79 EQ PUSH2 0x14CC JUMPI DUP2 PUSH4 0x98AB6A1 EQ PUSH2 0x14AD JUMPI DUP2 PUSH4 0x34A014DC EQ PUSH2 0x148E JUMPI DUP2 PUSH4 0x3B76594D EQ PUSH2 0x1392 JUMPI DUP2 PUSH4 0x44A39964 EQ PUSH2 0x1374 JUMPI DUP2 PUSH4 0x4D853EE5 EQ PUSH2 0x1330 JUMPI DUP2 PUSH4 0x5312EA8E EQ PUSH2 0x120A JUMPI DUP2 PUSH4 0x5D648588 EQ PUSH2 0x11B7 JUMPI DUP2 PUSH4 0x715018A6 EQ PUSH2 0x115D JUMPI DUP2 PUSH4 0x729D0A8A EQ PUSH2 0xE2D JUMPI DUP2 PUSH4 0x7CC1F867 EQ PUSH2 0xD1A JUMPI DUP2 PUSH4 0x8980F11F EQ PUSH2 0xBFA JUMPI DUP2 PUSH4 0x89EF723B EQ PUSH2 0xBB6 JUMPI DUP2 PUSH4 0x8DA5CB5B EQ PUSH2 0xB8E JUMPI DUP2 PUSH4 0x925D7C44 EQ PUSH2 0xAB1 JUMPI DUP2 PUSH4 0x95C4CC62 EQ PUSH2 0xA1F JUMPI DUP2 PUSH4 0xA6AC4B35 EQ PUSH2 0x9FB JUMPI DUP2 PUSH4 0xA8C478BA EQ PUSH2 0x867 JUMPI DUP2 PUSH4 0xB8BEC6A0 EQ PUSH2 0x804 JUMPI DUP2 PUSH4 0xBB0FECC7 EQ PUSH2 0x7CC JUMPI DUP2 PUSH4 0xD66EE30D EQ PUSH2 0x7A3 JUMPI DUP2 PUSH4 0xDBCB285B EQ PUSH2 0x5D2 JUMPI DUP2 PUSH4 0xE4E7C6B4 EQ PUSH2 0x5A2 JUMPI DUP2 PUSH4 0xE9CBD822 EQ PUSH2 0x55E JUMPI DUP2 PUSH4 0xEE172546 EQ PUSH2 0x53F JUMPI DUP2 PUSH4 0xEFE441D9 EQ PUSH2 0x288 JUMPI DUP2 PUSH4 0xF2FDE38B EQ PUSH2 0x1FD JUMPI POP DUP1 PUSH4 0xF9E8052D EQ PUSH2 0x1E0 JUMPI DUP1 PUSH4 0xFCBF8B24 EQ PUSH2 0x19A JUMPI PUSH4 0xFF50ABDC EQ PUSH2 0x179 JUMPI PUSH1 0x0 DUP1 REVERT JUMPDEST CALLVALUE PUSH2 0x196 JUMPI DUP2 PUSH1 0x3 NOT CALLDATASIZE ADD SLT PUSH2 0x196 JUMPI PUSH1 0x20 SWAP1 PUSH1 0x3 SLOAD SWAP1 MLOAD SWAP1 DUP2 MSTORE RETURN JUMPDEST POP DUP1 REVERT JUMPDEST POP CALLVALUE PUSH2 0x196 JUMPI DUP1 PUSH1 0x3 NOT CALLDATASIZE ADD SLT PUSH2 0x196 JUMPI PUSH1 0x20 SWAP2 PUSH1 0xFF SWAP1 DUP3 SWAP1 PUSH1 0x1 PUSH1 0x1 PUSH1 0xA0 SHL SUB PUSH2 0x1C3 PUSH2 0x189E JUMP JUMPDEST AND DUP2 MSTORE PUSH1 0xA DUP6 MSTORE DUP2 DUP2 KECCAK256 PUSH1 0x24 CALLDATALOAD DUP3 MSTORE DUP6 MSTORE KECCAK256 SLOAD AND SWAP1 MLOAD SWAP1 ISZERO ISZERO DUP2 MSTORE RETURN JUMPDEST POP CALLVALUE PUSH2 0x196 JUMPI DUP2 PUSH1 0x3 NOT CALLDATASIZE ADD SLT PUSH2 0x196 JUMPI PUSH1 0x20 SWAP1 MLOAD PUSH3 0x278D00 DUP2 MSTORE RETURN JUMPDEST SWAP1 POP CALLVALUE PUSH2 0x284 JUMPI PUSH1 0x20 CALLDATASIZE PUSH1 0x3 NOT ADD SLT PUSH2 0x284 JUMPI PUSH2 0x218 PUSH2 0x189E JUMP JUMPDEST SWAP1 PUSH2 0x221 PUSH2 0x18B9 JUMP JUMPDEST PUSH1 0x1 PUSH1 0x1 PUSH1 0xA0 SHL SUB SWAP2 DUP3 AND SWAP3 DUP4 ISZERO PUSH2 0x26E JUMPI POP POP DUP3 SLOAD PUSH1 0x1 PUSH1 0x1 PUSH1 0xA0 SHL SUB NOT DUP2 AND DUP4 OR DUP5 SSTORE AND PUSH32 0x8BE0079C531659141344CD1FD0A4F28419497F9722A3DAAFE3B4186F6B6457E0 DUP4 DUP1 LOG3 DUP1 RETURN JUMPDEST MLOAD PUSH4 0x1E4FBDF7 PUSH1 0xE0 SHL DUP2 MSTORE SWAP1 DUP2 ADD DUP5 SWAP1 MSTORE PUSH1 0x24 SWAP1 REVERT JUMPDEST DUP3 DUP1 REVERT JUMPDEST SWAP1 POP CALLVALUE PUSH2 0x284 JUMPI PUSH1 0x20 DUP1 PUSH1 0x3 NOT CALLDATASIZE ADD SLT PUSH2 0x53B JUMPI DUP2 CALLDATALOAD PUSH2 0x2A6 PUSH2 0x18B9 JUMP JUMPDEST PUSH32 0x0 PUSH1 0x1 PUSH1 0x1 PUSH1 0xA0 SHL SUB DUP2 DUP2 AND SWAP5 SWAP1 CALLER DUP7 EQ DUP1 ISZERO PUSH2 0x52F JUMPI JUMPDEST ISZERO PUSH2 0x4FD JUMPI PUSH1 0xFF PUSH1 0x7 SLOAD AND ISZERO PUSH2 0x4C5 JUMPI PUSH2 0x2F9 DUP5 ISZERO ISZERO PUSH2 0x1969 JUMP JUMPDEST PUSH1 0x6 SLOAD PUSH3 0x278D00 DUP2 ADD DUP1 SWAP2 GT PUSH2 0x4B2 JUMPI TIMESTAMP LT PUSH2 0x47B JUMPI DUP7 MLOAD PUSH4 0x70A08231 PUSH1 0xE0 SHL DUP2 MSTORE ADDRESS DUP4 DUP3 ADD MSTORE SWAP1 PUSH32 0x0 AND DUP6 DUP3 PUSH1 0x24 DUP2 DUP5 GAS STATICCALL SWAP4 DUP10 DUP6 ISZERO PUSH2 0x470 JUMPI DUP8 SWAP5 DUP8 SWAP5 DUP3 SWAP8 PUSH2 0x432 JUMPI JUMPDEST POP PUSH2 0x36E DUP6 PUSH2 0x3B3 SWAP9 LT ISZERO PUSH2 0x1A00 JUMP JUMPDEST TIMESTAMP PUSH1 0x6 SSTORE PUSH2 0x37D DUP6 DUP3 SLOAD PUSH2 0x195C JUMP JUMPDEST DUP2 SSTORE DUP11 MLOAD PUSH4 0xA9059CBB PUSH1 0xE0 SHL DUP2 MSTORE PUSH1 0x1 PUSH1 0x1 PUSH1 0xA0 SHL SUB SWAP1 SWAP4 AND SWAP1 DUP4 ADD SWAP1 DUP2 MSTORE PUSH1 0x20 DUP2 ADD SWAP5 SWAP1 SWAP5 MSTORE SWAP1 SWAP5 DUP6 SWAP4 DUP5 SWAP3 SWAP2 DUP4 SWAP2 PUSH1 0x40 ADD SWAP1 JUMP JUMPDEST SUB SWAP3 GAS CALL SWAP1 DUP2 ISZERO PUSH2 0x428 JUMPI PUSH32 0x919AF1FC10649A8224F81A2F2B22D4789BD0D845CAA1A114DCB69265B4CB16E0 SWAP5 SWAP6 SWAP2 PUSH2 0x3F3 SWAP2 DUP9 SWAP2 PUSH2 0x3FB JUMPI JUMPDEST POP PUSH2 0x19C2 JUMP JUMPDEST MLOAD SWAP1 DUP2 MSTORE LOG2 DUP1 RETURN JUMPDEST PUSH2 0x41B SWAP2 POP DUP6 RETURNDATASIZE DUP8 GT PUSH2 0x421 JUMPI JUMPDEST PUSH2 0x413 DUP2 DUP4 PUSH2 0x1917 JUMP JUMPDEST DUP2 ADD SWAP1 PUSH2 0x19AA JUMP JUMPDEST CODESIZE PUSH2 0x3ED JUMP JUMPDEST POP RETURNDATASIZE PUSH2 0x409 JUMP JUMPDEST DUP6 MLOAD RETURNDATASIZE DUP9 DUP3 RETURNDATACOPY RETURNDATASIZE SWAP1 REVERT JUMPDEST SWAP5 POP SWAP5 SWAP1 SWAP6 POP DUP4 DUP2 RETURNDATASIZE DUP4 GT PUSH2 0x469 JUMPI JUMPDEST PUSH2 0x44C DUP2 DUP4 PUSH2 0x1917 JUMP JUMPDEST DUP2 ADD SUB SLT PUSH2 0x465 JUMPI SWAP2 MLOAD SWAP4 DUP7 SWAP4 DUP7 SWAP4 SWAP2 SWAP1 PUSH2 0x36E PUSH2 0x35E JUMP JUMPDEST DUP5 DUP1 REVERT JUMPDEST POP RETURNDATASIZE PUSH2 0x442 JUMP JUMPDEST DUP10 MLOAD SWAP1 RETURNDATASIZE SWAP1 DUP3 RETURNDATACOPY RETURNDATASIZE SWAP1 REVERT JUMPDEST DUP7 MLOAD PUSH3 0x461BCD PUSH1 0xE5 SHL DUP2 MSTORE DUP1 DUP4 ADD DUP7 SWAP1 MSTORE PUSH1 0x11 PUSH1 0x24 DUP3 ADD MSTORE PUSH17 0x4D75737420776169742033302064617973 PUSH1 0x78 SHL PUSH1 0x44 DUP3 ADD MSTORE PUSH1 0x64 SWAP1 REVERT JUMPDEST PUSH4 0x4E487B71 PUSH1 0xE0 SHL DUP10 MSTORE PUSH1 0x11 DUP4 MSTORE PUSH1 0x24 DUP10 REVERT JUMPDEST DUP7 MLOAD PUSH3 0x461BCD PUSH1 0xE5 SHL DUP2 MSTORE DUP1 DUP4 ADD DUP7 SWAP1 MSTORE PUSH1 0x12 PUSH1 0x24 DUP3 ADD MSTORE PUSH18 0x5374616B696E67206E6F7420616374697665 PUSH1 0x70 SHL PUSH1 0x44 DUP3 ADD MSTORE PUSH1 0x64 SWAP1 REVERT JUMPDEST DUP7 MLOAD PUSH3 0x461BCD PUSH1 0xE5 SHL DUP2 MSTORE DUP1 DUP4 ADD DUP7 SWAP1 MSTORE PUSH1 0xC PUSH1 0x24 DUP3 ADD MSTORE PUSH12 0x27B7363C903337BAB73232B9 PUSH1 0xA1 SHL PUSH1 0x44 DUP3 ADD MSTORE PUSH1 0x64 SWAP1 REVERT JUMPDEST POP DUP1 DUP9 SLOAD AND CALLER EQ PUSH2 0x2DE JUMP JUMPDEST DUP4 DUP1 REVERT JUMPDEST POP POP CALLVALUE PUSH2 0x196 JUMPI DUP2 PUSH1 0x3 NOT CALLDATASIZE ADD SLT PUSH2 0x196 JUMPI PUSH1 0x20 SWAP1 PUSH1 0x5 SLOAD SWAP1 MLOAD SWAP1 DUP2 MSTORE RETURN JUMPDEST POP POP CALLVALUE PUSH2 0x196 JUMPI DUP2 PUSH1 0x3 NOT CALLDATASIZE ADD SLT PUSH2 0x196 JUMPI MLOAD PUSH32 0x0 PUSH1 0x1 PUSH1 0x1 PUSH1 0xA0 SHL SUB AND DUP2 MSTORE PUSH1 0x20 SWAP1 RETURN JUMPDEST POP POP CALLVALUE PUSH2 0x196 JUMPI DUP1 PUSH1 0x3 NOT CALLDATASIZE ADD SLT PUSH2 0x196 JUMPI PUSH1 0x20 SWAP1 PUSH2 0x5CB PUSH2 0x5C2 PUSH2 0x189E JUMP JUMPDEST PUSH1 0x24 CALLDATALOAD SWAP1 PUSH2 0x1B20 JUMP JUMPDEST SWAP1 MLOAD SWAP1 DUP2 MSTORE RETURN JUMPDEST SWAP1 POP CALLVALUE PUSH2 0x284 JUMPI PUSH1 0x20 DUP1 PUSH1 0x3 NOT CALLDATASIZE ADD SLT PUSH2 0x53B JUMPI DUP2 CALLDATALOAD PUSH2 0x5F0 PUSH2 0x18B9 JUMP JUMPDEST PUSH2 0x5FB DUP2 ISZERO ISZERO PUSH2 0x1969 JUMP JUMPDEST DUP4 MLOAD PUSH4 0x23B872DD PUSH1 0xE0 SHL DUP2 MSTORE CALLER DUP5 DUP3 ADD SWAP1 DUP2 MSTORE ADDRESS PUSH1 0x20 DUP3 ADD MSTORE PUSH1 0x40 DUP2 ADD DUP4 SWAP1 MSTORE PUSH1 0x1 PUSH1 0x1 PUSH1 0xA0 SHL SUB SWAP6 SWAP2 SWAP1 DUP5 SWAP1 DUP3 SWAP1 DUP2 SWAP1 SUB PUSH1 0x60 ADD DUP2 DUP11 PUSH32 0x0 DUP12 AND GAS CALL SWAP1 DUP2 ISZERO PUSH2 0x799 JUMPI SWAP1 PUSH2 0x66F SWAP2 DUP9 SWAP2 PUSH2 0x3FB JUMPI POP PUSH2 0x19C2 JUMP JUMPDEST DUP3 PUSH1 0x9 SLOAD SWAP6 DUP3 MLOAD SWAP6 DUP7 DUP1 SWAP3 PUSH4 0x18160DDD PUSH1 0xE0 SHL DUP3 MSTORE PUSH32 0x0 AND GAS STATICCALL DUP1 ISZERO PUSH2 0x78F JUMPI DUP7 SWAP1 PUSH2 0x73E JUMPI JUMPDEST PUSH32 0x8AD0C4905AA5603107E860E0C2B1A78E23EBA312C30F8114A70D94D9E187F5AF SWAP5 POP PUSH1 0x3 DUP3 MLOAD PUSH2 0x6E5 DUP2 PUSH2 0x18E5 JUMP JUMPDEST TIMESTAMP DUP2 MSTORE DUP6 DUP2 ADD SWAP3 DUP6 DUP5 MSTORE DUP5 DUP3 ADD SWAP1 DUP2 MSTORE PUSH1 0x60 DUP3 ADD SWAP4 DUP11 DUP6 MSTORE DUP10 DUP12 MSTORE PUSH1 0x8 DUP9 MSTORE DUP6 DUP12 KECCAK256 SWAP3 MLOAD DUP4 SSTORE MLOAD PUSH1 0x1 DUP4 ADD SSTORE MLOAD PUSH1 0x2 DUP3 ADD SSTORE ADD SWAP1 MLOAD ISZERO ISZERO PUSH1 0xFF DUP1 NOT DUP4 SLOAD AND SWAP2 AND OR SWAP1 SSTORE PUSH2 0x733 PUSH1 0x9 SLOAD PUSH2 0x1A43 JUMP JUMPDEST PUSH1 0x9 SSTORE MLOAD SWAP1 DUP2 MSTORE LOG2 DUP1 RETURN JUMPDEST POP DUP3 DUP5 DUP2 RETURNDATASIZE DUP4 GT PUSH2 0x788 JUMPI JUMPDEST PUSH2 0x754 DUP2 DUP4 PUSH2 0x1917 JUMP JUMPDEST DUP2 ADD SUB SLT PUSH2 0x784 JUMPI PUSH32 0x8AD0C4905AA5603107E860E0C2B1A78E23EBA312C30F8114A70D94D9E187F5AF SWAP4 MLOAD PUSH2 0x6B5 JUMP JUMPDEST DUP6 DUP1 REVERT JUMPDEST POP RETURNDATASIZE PUSH2 0x74A JUMP JUMPDEST DUP2 MLOAD RETURNDATASIZE DUP9 DUP3 RETURNDATACOPY RETURNDATASIZE SWAP1 REVERT JUMPDEST DUP3 MLOAD RETURNDATASIZE DUP10 DUP3 RETURNDATACOPY RETURNDATASIZE SWAP1 REVERT JUMPDEST POP POP CALLVALUE PUSH2 0x196 JUMPI DUP2 PUSH1 0x3 NOT CALLDATASIZE ADD SLT PUSH2 0x196 JUMPI PUSH1 0x2 SLOAD SWAP1 MLOAD PUSH1 0x1 PUSH1 0x1 PUSH1 0xA0 SHL SUB SWAP1 SWAP2 AND DUP2 MSTORE PUSH1 0x20 SWAP1 RETURN JUMPDEST POP POP CALLVALUE PUSH2 0x196 JUMPI PUSH1 0x20 CALLDATASIZE PUSH1 0x3 NOT ADD SLT PUSH2 0x196 JUMPI PUSH1 0x20 SWAP2 DUP2 SWAP1 PUSH1 0x1 PUSH1 0x1 PUSH1 0xA0 SHL SUB PUSH2 0x7F4 PUSH2 0x189E JUMP JUMPDEST AND DUP2 MSTORE PUSH1 0xB DUP5 MSTORE KECCAK256 SLOAD SWAP1 MLOAD SWAP1 DUP2 MSTORE RETURN JUMPDEST SWAP1 POP CALLVALUE PUSH2 0x284 JUMPI PUSH1 0x20 CALLDATASIZE PUSH1 0x3 NOT ADD SLT PUSH2 0x284 JUMPI CALLDATALOAD SWAP1 DUP2 ISZERO ISZERO DUP1 SWAP3 SUB PUSH2 0x284 JUMPI PUSH32 0x8D2382069F9B9C6CBE24A294EC111217F32F20524E7099BC8882D7AF51A61E1C SWAP2 PUSH1 0x20 SWAP2 PUSH2 0x850 PUSH2 0x18B9 JUMP JUMPDEST PUSH1 0xFF NOT PUSH1 0x7 SLOAD AND PUSH1 0xFF DUP4 AND OR PUSH1 0x7 SSTORE MLOAD SWAP1 DUP2 MSTORE LOG1 DUP1 RETURN JUMPDEST SWAP2 SWAP1 POP CALLVALUE PUSH2 0x284 JUMPI PUSH1 0x20 SWAP3 DUP4 PUSH1 0x3 NOT CALLDATASIZE ADD SLT PUSH2 0x9F8 JUMPI PUSH2 0x885 PUSH2 0x189E JUMP JUMPDEST PUSH1 0x9 SLOAD SWAP2 SWAP4 DUP5 SWAP3 DUP4 SWAP3 SWAP1 SWAP2 PUSH1 0x1 PUSH1 0x1 PUSH1 0xA0 SHL SUB SWAP2 DUP3 AND SWAP2 PUSH32 0x0 AND JUMPDEST DUP4 DUP7 LT PUSH2 0x8CF JUMPI DUP9 DUP9 DUP9 MLOAD SWAP1 DUP2 MSTORE RETURN JUMPDEST SWAP1 SWAP2 SWAP3 SWAP4 SWAP5 SWAP7 DUP4 DUP7 MSTORE PUSH1 0xA DUP10 MSTORE DUP7 DUP7 KECCAK256 DUP9 DUP8 MSTORE DUP10 MSTORE PUSH1 0xFF DUP1 DUP9 DUP9 KECCAK256 SLOAD AND PUSH2 0x9ED JUMPI DUP8 SWAP1 PUSH1 0x8 DUP12 MSTORE DUP11 DUP3 DUP10 KECCAK256 SWAP2 PUSH1 0x60 DUP5 MLOAD SWAP2 PUSH2 0x909 DUP4 PUSH2 0x18E5 JUMP JUMPDEST DUP5 SLOAD DUP4 MSTORE PUSH1 0x3 PUSH1 0x1 DUP7 ADD SLOAD SWAP5 DUP5 ADD SWAP6 DUP6 DUP8 MSTORE PUSH1 0x2 DUP2 ADD SLOAD SWAP8 DUP6 ADD SWAP8 DUP9 MSTORE ADD SLOAD AND ISZERO ISZERO SWAP2 ADD MSTORE ISZERO PUSH2 0x9E1 JUMPI DUP9 MLOAD PUSH4 0x70A08231 PUSH1 0xE0 SHL DUP2 MSTORE DUP6 DUP2 ADD DUP8 SWAP1 MSTORE SWAP1 DUP12 DUP3 PUSH1 0x24 DUP2 DUP9 GAS STATICCALL SWAP2 DUP3 ISZERO PUSH2 0x9D7 JUMPI DUP10 SWAP3 PUSH2 0x9A4 JUMPI JUMPDEST POP DUP2 ISZERO PUSH2 0x997 JUMPI PUSH2 0x987 SWAP3 PUSH2 0x979 PUSH2 0x98D SWAP6 SWAP4 PUSH2 0x981 SWAP4 MLOAD PUSH2 0x1ACA JUMP JUMPDEST SWAP1 MLOAD SWAP1 PUSH2 0x1ADD JUMP JUMPDEST SWAP1 PUSH2 0x195C JUMP JUMPDEST SWAP8 PUSH2 0x1A43 JUMP JUMPDEST SWAP5 SWAP4 SWAP3 SWAP2 SWAP1 PUSH2 0x8BF JUMP JUMPDEST POP POP POP SWAP7 PUSH2 0x98D SWAP1 PUSH2 0x1A43 JUMP JUMPDEST SWAP1 SWAP2 POP DUP12 DUP2 DUP2 RETURNDATASIZE DUP4 GT PUSH2 0x9D0 JUMPI JUMPDEST PUSH2 0x9BC DUP2 DUP4 PUSH2 0x1917 JUMP JUMPDEST DUP2 ADD SUB SLT PUSH2 0x9CC JUMPI MLOAD SWAP1 CODESIZE PUSH2 0x95C JUMP JUMPDEST DUP9 DUP1 REVERT JUMPDEST POP RETURNDATASIZE PUSH2 0x9B2 JUMP JUMPDEST DUP11 MLOAD RETURNDATASIZE DUP12 DUP3 RETURNDATACOPY RETURNDATASIZE SWAP1 REVERT JUMPDEST POP POP SWAP7 PUSH2 0x98D SWAP1 PUSH2 0x1A43 JUMP JUMPDEST POP SWAP7 PUSH2 0x98D SWAP1 PUSH2 0x1A43 JUMP JUMPDEST DUP1 REVERT JUMPDEST POP POP CALLVALUE PUSH2 0x196 JUMPI DUP2 PUSH1 0x3 NOT CALLDATASIZE ADD SLT PUSH2 0x196 JUMPI PUSH1 0x20 SWAP1 PUSH1 0xFF PUSH1 0x7 SLOAD AND SWAP1 MLOAD SWAP1 ISZERO ISZERO DUP2 MSTORE RETURN JUMPDEST SWAP1 POP CALLVALUE PUSH2 0x284 JUMPI PUSH1 0x20 CALLDATASIZE PUSH1 0x3 NOT ADD SLT PUSH2 0x284 JUMPI SWAP2 DUP2 SWAP3 CALLDATALOAD PUSH2 0xA43 PUSH1 0x9 SLOAD DUP3 LT PUSH2 0x1A52 JUMP JUMPDEST DUP2 MSTORE PUSH1 0x8 PUSH1 0x20 MSTORE KECCAK256 SWAP1 PUSH2 0xAAD PUSH1 0x60 DUP3 MLOAD SWAP4 PUSH2 0xA5D DUP6 PUSH2 0x18E5 JUMP JUMPDEST DUP1 SLOAD SWAP4 DUP5 DUP7 MSTORE PUSH1 0x1 DUP3 ADD SLOAD SWAP6 DUP7 PUSH1 0x20 DUP3 ADD MSTORE PUSH1 0xFF PUSH1 0x3 PUSH1 0x2 DUP6 ADD SLOAD SWAP5 DUP6 DUP6 DUP6 ADD MSTORE ADD SLOAD AND ISZERO ISZERO SWAP4 DUP5 SWAP2 ADD MSTORE MLOAD SWAP5 DUP6 SWAP5 DUP6 SWAP3 PUSH1 0x60 SWAP3 SWAP6 SWAP5 SWAP2 SWAP6 PUSH1 0x80 DUP6 ADD SWAP7 DUP6 MSTORE PUSH1 0x20 DUP6 ADD MSTORE PUSH1 0x40 DUP5 ADD MSTORE ISZERO ISZERO SWAP2 ADD MSTORE JUMP JUMPDEST SUB SWAP1 RETURN JUMPDEST DUP4 SWAP2 POP CALLVALUE PUSH2 0x196 JUMPI PUSH1 0x20 CALLDATASIZE PUSH1 0x3 NOT ADD SLT PUSH2 0x196 JUMPI PUSH2 0xACD PUSH2 0x189E JUMP JUMPDEST PUSH2 0xAD5 PUSH2 0x18B9 JUMP JUMPDEST PUSH1 0x2 SLOAD SWAP1 PUSH1 0x1 PUSH1 0x1 PUSH1 0xA0 SHL SUB SWAP1 DUP2 DUP4 AND PUSH2 0xB5D JUMPI AND SWAP2 DUP3 ISZERO PUSH2 0xB28 JUMPI POP PUSH1 0x1 PUSH1 0x1 PUSH1 0xA0 SHL SUB NOT AND DUP2 OR PUSH1 0x2 SSTORE PUSH32 0x1F93EB4AF9964A0FBF3C59E4668618DB26F4F90FF336D62ADDEB24270471EB70 DUP3 DUP1 LOG2 DUP1 RETURN JUMPDEST PUSH1 0x64 SWAP1 PUSH1 0x20 DUP7 MLOAD SWAP2 PUSH3 0x461BCD PUSH1 0xE5 SHL DUP4 MSTORE DUP3 ADD MSTORE PUSH1 0xF PUSH1 0x24 DUP3 ADD MSTORE PUSH15 0x496E76616C69642061646472657373 PUSH1 0x88 SHL PUSH1 0x44 DUP3 ADD MSTORE REVERT JUMPDEST DUP6 MLOAD PUSH3 0x461BCD PUSH1 0xE5 SHL DUP2 MSTORE PUSH1 0x20 DUP2 DUP7 ADD MSTORE PUSH1 0xB PUSH1 0x24 DUP3 ADD MSTORE PUSH11 0x105B1C9958591E481CD95D PUSH1 0xAA SHL PUSH1 0x44 DUP3 ADD MSTORE PUSH1 0x64 SWAP1 REVERT JUMPDEST POP POP CALLVALUE PUSH2 0x196 JUMPI DUP2 PUSH1 0x3 NOT CALLDATASIZE ADD SLT PUSH2 0x196 JUMPI SWAP1 SLOAD SWAP1 MLOAD PUSH1 0x1 PUSH1 0x1 PUSH1 0xA0 SHL SUB SWAP1 SWAP2 AND DUP2 MSTORE PUSH1 0x20 SWAP1 RETURN JUMPDEST POP POP CALLVALUE PUSH2 0x196 JUMPI DUP2 PUSH1 0x3 NOT CALLDATASIZE ADD SLT PUSH2 0x196 JUMPI MLOAD PUSH32 0x0 PUSH1 0x1 PUSH1 0x1 PUSH1 0xA0 SHL SUB AND DUP2 MSTORE PUSH1 0x20 SWAP1 RETURN JUMPDEST DUP4 SWAP2 POP CALLVALUE PUSH2 0x196 JUMPI DUP3 PUSH1 0x3 NOT CALLDATASIZE ADD SLT PUSH2 0x196 JUMPI PUSH2 0xC15 PUSH2 0x189E JUMP JUMPDEST PUSH1 0x24 CALLDATALOAD SWAP2 PUSH2 0xC21 PUSH2 0x18B9 JUMP JUMPDEST PUSH1 0x1 PUSH1 0x1 PUSH1 0xA0 SHL SUB SWAP2 DUP3 AND SWAP2 PUSH32 0x0 DUP2 AND DUP4 EQ PUSH2 0xCD7 JUMPI SWAP3 DUP6 SWAP3 PUSH1 0x20 SWAP3 DUP7 PUSH2 0xC9F SWAP7 PUSH2 0xC6C DUP6 ISZERO ISZERO PUSH2 0x1969 JUMP JUMPDEST DUP2 SLOAD AND SWAP2 DUP7 MLOAD SWAP8 DUP9 SWAP6 DUP7 SWAP5 DUP6 SWAP4 PUSH4 0xA9059CBB PUSH1 0xE0 SHL DUP6 MSTORE DUP5 ADD PUSH1 0x20 SWAP1 SWAP4 SWAP3 SWAP2 SWAP4 PUSH1 0x40 DUP2 ADD SWAP5 PUSH1 0x1 DUP1 PUSH1 0xA0 SHL SUB AND DUP2 MSTORE ADD MSTORE JUMP JUMPDEST SUB SWAP3 GAS CALL SWAP1 DUP2 ISZERO PUSH2 0xCCE JUMPI POP PUSH2 0xCB3 JUMPI POP DUP1 RETURN JUMPDEST PUSH2 0xCCA SWAP1 PUSH1 0x20 RETURNDATASIZE DUP2 GT PUSH2 0x421 JUMPI PUSH2 0x413 DUP2 DUP4 PUSH2 0x1917 JUMP JUMPDEST POP DUP1 RETURN JUMPDEST MLOAD RETURNDATASIZE DUP5 DUP3 RETURNDATACOPY RETURNDATASIZE SWAP1 REVERT JUMPDEST DUP6 MLOAD PUSH3 0x461BCD PUSH1 0xE5 SHL DUP2 MSTORE PUSH1 0x20 DUP2 DUP5 ADD MSTORE PUSH1 0x19 PUSH1 0x24 DUP3 ADD MSTORE PUSH32 0x43616E6E6F74207265636F76657220737461626C65636F696E00000000000000 PUSH1 0x44 DUP3 ADD MSTORE PUSH1 0x64 SWAP1 REVERT JUMPDEST SWAP1 POP CALLVALUE PUSH2 0x284 JUMPI DUP3 PUSH1 0x3 NOT CALLDATASIZE ADD SLT PUSH2 0x284 JUMPI PUSH1 0x6 SLOAD DUP4 SWAP2 DUP2 PUSH2 0xE05 JUMPI JUMPDEST DUP4 MLOAD PUSH4 0x70A08231 PUSH1 0xE0 SHL DUP2 MSTORE ADDRESS DUP3 DUP3 ADD MSTORE SWAP4 PUSH1 0x20 DUP6 PUSH1 0x24 DUP2 PUSH32 0x0 PUSH1 0x1 PUSH1 0x1 PUSH1 0xA0 SHL SUB AND GAS STATICCALL SWAP5 DUP6 ISZERO PUSH2 0x78F JUMPI DUP7 SWAP6 PUSH2 0xDCD JUMPI JUMPDEST POP PUSH2 0x100 SWAP6 POP PUSH1 0x3 SLOAD SWAP2 SLOAD PUSH1 0x5 SLOAD SWAP1 PUSH1 0x9 SLOAD SWAP3 PUSH1 0xFF PUSH1 0x7 SLOAD AND SWAP5 DUP2 MLOAD SWAP9 DUP10 MSTORE PUSH1 0x20 DUP10 ADD MSTORE DUP8 ADD MSTORE PUSH1 0x60 DUP7 ADD MSTORE PUSH1 0x80 DUP6 ADD MSTORE ISZERO ISZERO PUSH1 0xA0 DUP5 ADD MSTORE PUSH1 0xC0 DUP4 ADD MSTORE PUSH1 0xE0 DUP3 ADD MSTORE RETURN JUMPDEST SWAP1 SWAP5 POP PUSH1 0x20 DUP2 RETURNDATASIZE DUP3 GT PUSH2 0xDFD JUMPI JUMPDEST DUP2 PUSH2 0xDE8 PUSH1 0x20 SWAP4 DUP4 PUSH2 0x1917 JUMP JUMPDEST DUP2 ADD SUB SLT PUSH2 0x784 JUMPI PUSH2 0x100 SWAP6 POP MLOAD SWAP4 CODESIZE PUSH2 0xD89 JUMP JUMPDEST RETURNDATASIZE SWAP2 POP PUSH2 0xDDB JUMP JUMPDEST SWAP2 POP PUSH3 0x278D00 DUP2 ADD DUP1 DUP3 GT PUSH2 0xE1A JUMPI SWAP2 PUSH2 0xD37 JUMP JUMPDEST PUSH4 0x4E487B71 PUSH1 0xE0 SHL DUP6 MSTORE PUSH1 0x11 DUP4 MSTORE PUSH1 0x24 DUP6 REVERT JUMPDEST SWAP1 POP CALLVALUE PUSH2 0x284 JUMPI PUSH1 0x20 SWAP1 DUP2 PUSH1 0x3 NOT CALLDATASIZE ADD SLT PUSH2 0x53B JUMPI DUP1 CALLDATALOAD PUSH8 0xFFFFFFFFFFFFFFFF SWAP2 DUP3 DUP3 GT PUSH2 0x784 JUMPI CALLDATASIZE PUSH1 0x23 DUP4 ADD SLT ISZERO PUSH2 0x784 JUMPI DUP2 DUP2 ADD CALLDATALOAD SWAP3 DUP4 GT PUSH2 0x784 JUMPI PUSH1 0x24 SWAP3 PUSH1 0x5 SWAP1 CALLDATASIZE DUP6 DUP3 DUP5 SHL DUP7 ADD ADD GT PUSH2 0x1159 JUMPI SWAP2 DUP6 SWAP4 SWAP2 DUP9 SWAP6 PUSH2 0xE8C PUSH2 0x1AFD JUMP JUMPDEST DUP7 SWAP5 PUSH1 0x1 PUSH1 0x1 PUSH1 0xA0 SHL SUB SWAP5 PUSH32 0x0 DUP7 AND SWAP3 SWAP1 DUP8 JUMPDEST DUP4 DUP2 LT PUSH2 0xF9C JUMPI POP POP POP POP POP PUSH2 0xF2B SWAP6 POP PUSH2 0xEDA DUP5 ISZERO ISZERO PUSH2 0x1A91 JUMP JUMPDEST CALLER DUP10 MSTORE PUSH1 0xB DUP6 MSTORE DUP8 DUP10 KECCAK256 PUSH2 0xEEF DUP6 DUP3 SLOAD PUSH2 0x195C JUMP JUMPDEST SWAP1 SSTORE PUSH2 0xEFC DUP5 DUP3 SLOAD PUSH2 0x195C JUMP JUMPDEST SWAP1 SSTORE DUP7 MLOAD PUSH4 0xA9059CBB PUSH1 0xE0 SHL DUP2 MSTORE CALLER SWAP2 DUP2 ADD SWAP2 DUP3 MSTORE PUSH1 0x20 DUP3 ADD SWAP4 SWAP1 SWAP4 MSTORE SWAP2 SWAP4 DUP5 SWAP3 DUP4 SWAP2 DUP10 SWAP2 DUP4 SWAP2 PUSH1 0x40 SWAP1 SWAP2 ADD SWAP1 JUMP JUMPDEST SUB SWAP3 PUSH32 0x0 AND GAS CALL SWAP2 DUP3 ISZERO PUSH2 0xF8F JUMPI PUSH2 0xF6B SWAP4 POP DUP5 SWAP3 PUSH2 0xF72 JUMPI JUMPDEST POP POP PUSH2 0x19C2 JUMP JUMPDEST PUSH1 0x1 DUP1 SSTORE DUP1 RETURN JUMPDEST PUSH2 0xF88 SWAP3 POP DUP1 RETURNDATASIZE LT PUSH2 0x421 JUMPI PUSH2 0x413 DUP2 DUP4 PUSH2 0x1917 JUMP JUMPDEST CODESIZE DUP1 PUSH2 0xF64 JUMP JUMPDEST POP POP POP MLOAD SWAP1 RETURNDATASIZE SWAP1 DUP3 RETURNDATACOPY RETURNDATASIZE SWAP1 REVERT JUMPDEST SWAP2 DUP6 SWAP8 SWAP10 POP DUP3 DUP2 SWAP6 SWAP8 SWAP10 SWAP3 SWAP5 SWAP7 SHL DUP5 ADD ADD CALLDATALOAD SWAP1 PUSH1 0x9 SLOAD DUP3 LT ISZERO PUSH2 0x114D JUMPI CALLER DUP12 MSTORE DUP12 DUP14 PUSH1 0xA SWAP13 DUP14 DUP4 MSTORE DUP2 DUP2 KECCAK256 DUP6 DUP3 MSTORE DUP4 MSTORE PUSH1 0xFF SWAP3 DUP4 DUP4 DUP4 KECCAK256 SLOAD AND PUSH2 0x113D JUMPI PUSH1 0x8 DUP2 MSTORE DUP3 DUP3 KECCAK256 DUP4 MLOAD SWAP5 PUSH2 0xFEC DUP7 PUSH2 0x18E5 JUMP JUMPDEST DUP2 SLOAD DUP7 MSTORE PUSH1 0x1 SWAP6 DUP7 DUP4 ADD SLOAD SWAP1 PUSH1 0x60 DUP6 DUP3 ADD SWAP4 DUP4 DUP6 MSTORE PUSH1 0x3 PUSH1 0x2 DUP8 ADD SLOAD SWAP7 DUP11 DUP6 ADD SWAP8 DUP9 MSTORE ADD SLOAD AND ISZERO ISZERO SWAP2 ADD MSTORE ISZERO PUSH2 0x112B JUMPI DUP13 SWAP1 DUP16 DUP5 SWAP1 DUP14 DUP9 MLOAD DUP1 SWAP6 DUP2 SWAP4 PUSH4 0x70A08231 PUSH1 0xE0 SHL DUP4 MSTORE CALLER SWAP1 DUP4 ADD MSTORE GAS STATICCALL SWAP2 DUP3 ISZERO PUSH2 0x1121 JUMPI DUP6 SWAP3 PUSH2 0x10F2 JUMPI JUMPDEST POP DUP2 ISZERO PUSH2 0x10DF JUMPI PUSH2 0x105D SWAP3 SWAP2 PUSH2 0x979 SWAP2 MLOAD PUSH2 0x1ACA JUMP JUMPDEST SWAP15 DUP16 ISZERO PUSH2 0x10CE JUMPI CALLER DUP4 MSTORE DUP2 MSTORE DUP3 DUP3 KECCAK256 DUP7 DUP4 MSTORE SWAP1 MSTORE KECCAK256 DUP1 SLOAD PUSH1 0xFF NOT AND SWAP1 SWAP2 OR SWAP1 SSTORE PUSH2 0x10BE SWAP3 SWAP2 SWAP1 PUSH2 0x108E SWAP1 DUP13 SWAP1 PUSH2 0x195C JUMP JUMPDEST SWAP11 DUP14 MLOAD SWAP1 DUP2 MSTORE PUSH32 0xF01DA32686223933D8A18A391060918C7F11A3648639EDD87AE013E2E2731743 DUP14 CALLER SWAP3 LOG3 PUSH2 0x1A43 JUMP JUMPDEST SWAP2 DUP10 SWAP8 SWAP6 SWAP4 SWAP2 DUP13 SWAP10 SWAP8 SWAP6 SWAP4 PUSH2 0xEBE JUMP JUMPDEST POP POP POP POP POP SWAP10 POP POP PUSH2 0x10BE SWAP1 PUSH2 0x1A43 JUMP JUMPDEST POP POP POP POP POP POP POP SWAP10 POP POP PUSH2 0x10BE SWAP1 PUSH2 0x1A43 JUMP JUMPDEST SWAP1 SWAP2 POP DUP4 DUP2 DUP2 RETURNDATASIZE DUP4 GT PUSH2 0x111A JUMPI JUMPDEST PUSH2 0x110A DUP2 DUP4 PUSH2 0x1917 JUMP JUMPDEST DUP2 ADD SUB SLT PUSH2 0x465 JUMPI MLOAD SWAP1 CODESIZE PUSH2 0x1047 JUMP JUMPDEST POP RETURNDATASIZE PUSH2 0x1100 JUMP JUMPDEST DUP7 MLOAD RETURNDATASIZE DUP8 DUP3 RETURNDATACOPY RETURNDATASIZE SWAP1 REVERT JUMPDEST POP POP POP POP POP POP SWAP10 POP POP PUSH2 0x10BE SWAP1 PUSH2 0x1A43 JUMP JUMPDEST POP POP POP POP SWAP10 POP POP PUSH2 0x10BE SWAP1 PUSH2 0x1A43 JUMP JUMPDEST SWAP10 POP POP PUSH2 0x10BE SWAP1 PUSH2 0x1A43 JUMP JUMPDEST DUP8 DUP1 REVERT JUMPDEST DUP4 CALLVALUE PUSH2 0x9F8 JUMPI DUP1 PUSH1 0x3 NOT CALLDATASIZE ADD SLT PUSH2 0x9F8 JUMPI PUSH2 0x1176 PUSH2 0x18B9 JUMP JUMPDEST DUP1 SLOAD PUSH1 0x1 PUSH1 0x1 PUSH1 0xA0 SHL SUB NOT DUP2 AND DUP3 SSTORE DUP2 SWAP1 PUSH1 0x1 PUSH1 0x1 PUSH1 0xA0 SHL SUB AND PUSH32 0x8BE0079C531659141344CD1FD0A4F28419497F9722A3DAAFE3B4186F6B6457E0 DUP3 DUP1 LOG3 DUP1 RETURN JUMPDEST SWAP1 POP CALLVALUE PUSH2 0x284 JUMPI PUSH1 0x20 CALLDATASIZE PUSH1 0x3 NOT ADD SLT PUSH2 0x284 JUMPI CALLDATALOAD DUP3 MSTORE PUSH1 0x8 PUSH1 0x20 SWAP1 DUP2 MSTORE SWAP2 DUP2 SWAP1 KECCAK256 DUP1 SLOAD PUSH1 0x1 DUP3 ADD SLOAD PUSH1 0x2 DUP4 ADD SLOAD PUSH1 0x3 SWAP1 SWAP4 ADD SLOAD SWAP4 MLOAD SWAP2 DUP3 MSTORE SWAP4 DUP2 ADD SWAP4 SWAP1 SWAP4 MSTORE PUSH1 0x40 DUP4 ADD MSTORE PUSH1 0xFF AND ISZERO ISZERO PUSH1 0x60 DUP3 ADD MSTORE PUSH1 0x80 SWAP1 RETURN JUMPDEST SWAP1 POP CALLVALUE PUSH2 0x284 JUMPI PUSH1 0x20 SWAP1 DUP2 PUSH1 0x3 NOT CALLDATASIZE ADD SLT PUSH2 0x53B JUMPI DUP1 CALLDATALOAD SWAP1 PUSH2 0x122A PUSH2 0x18B9 JUMP JUMPDEST PUSH2 0x1235 DUP3 ISZERO ISZERO PUSH2 0x1969 JUMP JUMPDEST DUP4 MLOAD PUSH4 0x70A08231 PUSH1 0xE0 SHL DUP2 MSTORE ADDRESS DUP3 DUP3 ADD MSTORE PUSH1 0x1 PUSH1 0x1 PUSH1 0xA0 SHL SUB SWAP3 SWAP1 SWAP2 PUSH32 0x0 DUP5 AND SWAP1 DUP8 DUP7 DUP6 PUSH1 0x24 DUP2 DUP7 GAS STATICCALL DUP1 ISZERO PUSH2 0x1324 JUMPI DUP8 SWAP6 DUP3 SWAP2 PUSH2 0x12F1 JUMPI JUMPDEST POP SWAP6 PUSH2 0x129E DUP6 PUSH2 0x12D1 SWAP9 LT ISZERO PUSH2 0x1A00 JUMP JUMPDEST DUP2 SLOAD AND SWAP2 DUP9 MLOAD SWAP7 DUP8 SWAP6 DUP7 SWAP5 DUP6 SWAP4 PUSH4 0xA9059CBB PUSH1 0xE0 SHL DUP6 MSTORE DUP5 ADD PUSH1 0x20 SWAP1 SWAP4 SWAP3 SWAP2 SWAP4 PUSH1 0x40 DUP2 ADD SWAP5 PUSH1 0x1 DUP1 PUSH1 0xA0 SHL SUB AND DUP2 MSTORE ADD MSTORE JUMP JUMPDEST SUB SWAP3 GAS CALL SWAP2 DUP3 ISZERO PUSH2 0xF8F JUMPI PUSH2 0x12EE SWAP4 POP DUP5 SWAP3 PUSH2 0xF72 JUMPI POP POP PUSH2 0x19C2 JUMP JUMPDEST DUP1 RETURN JUMPDEST DUP7 DUP2 SWAP8 SWAP3 POP RETURNDATASIZE DUP4 GT PUSH2 0x131D JUMPI JUMPDEST PUSH2 0x1308 DUP2 DUP4 PUSH2 0x1917 JUMP JUMPDEST DUP2 ADD SUB SLT PUSH2 0x9F8 JUMPI SWAP4 MLOAD DUP7 SWAP5 SWAP1 PUSH2 0x129E PUSH2 0x128D JUMP JUMPDEST POP RETURNDATASIZE PUSH2 0x12FE JUMP JUMPDEST POP DUP8 MLOAD SWAP1 RETURNDATASIZE SWAP1 DUP3 RETURNDATACOPY RETURNDATASIZE SWAP1 REVERT JUMPDEST POP POP CALLVALUE PUSH2 0x196 JUMPI DUP2 PUSH1 0x3 NOT CALLDATASIZE ADD SLT PUSH2 0x196 JUMPI MLOAD PUSH32 0x0 PUSH1 0x1 PUSH1 0x1 PUSH1 0xA0 SHL SUB AND DUP2 MSTORE PUSH1 0x20 SWAP1 RETURN JUMPDEST SWAP1 POP CALLVALUE PUSH2 0x284 JUMPI DUP3 PUSH1 0x3 NOT CALLDATASIZE ADD SLT PUSH2 0x284 JUMPI PUSH1 0x20 SWAP3 POP SLOAD SWAP1 MLOAD SWAP1 DUP2 MSTORE RETURN JUMPDEST SWAP2 SWAP1 POP CALLVALUE PUSH2 0x284 JUMPI PUSH1 0x20 CALLDATASIZE PUSH1 0x3 NOT ADD SLT PUSH2 0x284 JUMPI PUSH2 0x13E9 PUSH1 0x20 DUP4 CALLDATALOAD DUP1 SWAP5 PUSH2 0x13BA DUP3 ISZERO ISZERO PUSH2 0x1969 JUMP JUMPDEST DUP5 MLOAD PUSH4 0x23B872DD PUSH1 0xE0 SHL DUP2 MSTORE CALLER SWAP2 DUP2 ADD SWAP2 DUP3 MSTORE ADDRESS PUSH1 0x20 DUP4 ADD MSTORE PUSH1 0x40 DUP3 ADD SWAP3 SWAP1 SWAP3 MSTORE SWAP1 SWAP3 DUP4 SWAP2 DUP3 SWAP2 PUSH1 0x60 SWAP1 SWAP2 ADD SWAP1 JUMP JUMPDEST SUB DUP2 DUP8 PUSH32 0x0 PUSH1 0x1 PUSH1 0x1 PUSH1 0xA0 SHL SUB AND GAS CALL SWAP1 DUP2 ISZERO PUSH2 0x1484 JUMPI SWAP1 PUSH2 0x1430 SWAP2 DUP6 SWAP2 PUSH2 0x146C JUMPI POP PUSH2 0x19C2 JUMP JUMPDEST PUSH2 0x143C DUP3 PUSH1 0x3 SLOAD PUSH2 0x195C JUMP JUMPDEST PUSH1 0x3 SSTORE MLOAD SWAP1 DUP2 MSTORE PUSH32 0x8E47B87B0EF542CDFA1659C551D88BAD38AA7F452D2BBB349AB7530DFEC8BE8F PUSH1 0x20 CALLER SWAP3 LOG2 DUP1 RETURN JUMPDEST PUSH2 0x41B SWAP2 POP PUSH1 0x20 RETURNDATASIZE DUP2 GT PUSH2 0x421 JUMPI PUSH2 0x413 DUP2 DUP4 PUSH2 0x1917 JUMP JUMPDEST DUP3 MLOAD RETURNDATASIZE DUP7 DUP3 RETURNDATACOPY RETURNDATASIZE SWAP1 REVERT JUMPDEST POP POP CALLVALUE PUSH2 0x196 JUMPI DUP2 PUSH1 0x3 NOT CALLDATASIZE ADD SLT PUSH2 0x196 JUMPI PUSH1 0x20 SWAP1 PUSH1 0x6 SLOAD SWAP1 MLOAD SWAP1 DUP2 MSTORE RETURN JUMPDEST POP POP CALLVALUE PUSH2 0x196 JUMPI DUP2 PUSH1 0x3 NOT CALLDATASIZE ADD SLT PUSH2 0x196 JUMPI PUSH1 0x20 SWAP1 PUSH1 0x9 SLOAD SWAP1 MLOAD SWAP1 DUP2 MSTORE RETURN JUMPDEST SWAP1 POP CALLVALUE PUSH2 0x284 JUMPI PUSH1 0x20 DUP1 PUSH1 0x3 NOT CALLDATASIZE ADD SLT PUSH2 0x53B JUMPI DUP2 CALLDATALOAD SWAP3 PUSH2 0x14EB PUSH2 0x1AFD JUMP JUMPDEST PUSH2 0x14F8 PUSH1 0x9 SLOAD DUP6 LT PUSH2 0x1A52 JUMP JUMPDEST CALLER DUP6 MSTORE PUSH1 0xA DUP3 MSTORE DUP1 DUP6 KECCAK256 DUP5 DUP7 MSTORE DUP3 MSTORE PUSH1 0xFF DUP2 DUP7 KECCAK256 SLOAD AND PUSH2 0x1775 JUMPI DUP4 DUP6 MSTORE PUSH1 0x8 DUP3 MSTORE DUP1 DUP6 KECCAK256 DUP2 MLOAD SWAP1 PUSH2 0x1528 DUP3 PUSH2 0x18E5 JUMP JUMPDEST DUP1 SLOAD DUP3 MSTORE PUSH2 0x155C PUSH1 0x1 DUP3 ADD SLOAD DUP6 DUP5 ADD SWAP4 DUP2 DUP6 MSTORE PUSH1 0x60 PUSH1 0xFF PUSH1 0x3 PUSH1 0x2 DUP8 ADD SLOAD SWAP7 DUP10 DUP6 ADD SWAP8 DUP9 MSTORE ADD SLOAD AND ISZERO ISZERO SWAP2 ADD MSTORE ISZERO ISZERO PUSH2 0x1A91 JUMP JUMPDEST DUP3 MLOAD PUSH4 0x70A08231 PUSH1 0xE0 SHL DUP2 MSTORE CALLER DUP7 DUP3 ADD MSTORE PUSH1 0x1 PUSH1 0x1 PUSH1 0xA0 SHL SUB SWAP3 DUP6 DUP3 PUSH1 0x24 DUP2 PUSH32 0x0 DUP9 AND GAS STATICCALL SWAP2 DUP3 ISZERO PUSH2 0x176B JUMPI DUP10 SWAP3 PUSH2 0x173C JUMPI JUMPDEST POP DUP2 ISZERO PUSH2 0x1708 JUMPI PUSH2 0x15C4 SWAP3 SWAP2 PUSH2 0x979 SWAP2 MLOAD PUSH2 0x1ACA JUMP JUMPDEST SWAP4 DUP5 ISZERO PUSH2 0x16D2 JUMPI DUP5 PUSH2 0x1642 SWAP3 DUP6 SWAP3 CALLER DUP11 MSTORE PUSH1 0xA DUP5 MSTORE DUP6 DUP11 KECCAK256 DUP10 DUP12 MSTORE DUP5 MSTORE DUP6 DUP11 KECCAK256 PUSH1 0x1 PUSH1 0xFF NOT DUP3 SLOAD AND OR SWAP1 SSTORE CALLER DUP11 MSTORE PUSH1 0xB DUP5 MSTORE DUP6 DUP11 KECCAK256 PUSH2 0x1604 DUP5 DUP3 SLOAD PUSH2 0x195C JUMP JUMPDEST SWAP1 SSTORE PUSH2 0x1612 DUP4 PUSH1 0x5 SLOAD PUSH2 0x195C JUMP JUMPDEST PUSH1 0x5 SSTORE DUP6 MLOAD PUSH4 0xA9059CBB PUSH1 0xE0 SHL DUP2 MSTORE CALLER SWAP2 DUP2 ADD SWAP2 DUP3 MSTORE PUSH1 0x20 DUP3 ADD SWAP4 SWAP1 SWAP4 MSTORE SWAP2 SWAP4 DUP5 SWAP3 DUP4 SWAP2 DUP12 SWAP2 DUP4 SWAP2 PUSH1 0x40 SWAP1 SWAP2 ADD SWAP1 JUMP JUMPDEST SUB SWAP3 PUSH32 0x0 AND GAS CALL SWAP1 DUP2 ISZERO PUSH2 0x16C8 JUMPI PUSH32 0xF01DA32686223933D8A18A391060918C7F11A3648639EDD87AE013E2E2731743 SWAP4 SWAP3 SWAP2 PUSH2 0x16A3 SWAP2 DUP9 SWAP2 PUSH2 0x16B1 JUMPI POP PUSH2 0x19C2 JUMP JUMPDEST MLOAD SWAP3 DUP4 MSTORE CALLER SWAP3 LOG3 PUSH1 0x1 DUP1 SSTORE DUP1 RETURN JUMPDEST PUSH2 0x41B SWAP2 POP DUP5 RETURNDATASIZE DUP7 GT PUSH2 0x421 JUMPI PUSH2 0x413 DUP2 DUP4 PUSH2 0x1917 JUMP JUMPDEST DUP3 MLOAD RETURNDATASIZE DUP9 DUP3 RETURNDATACOPY RETURNDATASIZE SWAP1 REVERT JUMPDEST DUP3 MLOAD PUSH3 0x461BCD PUSH1 0xE5 SHL DUP2 MSTORE SWAP1 DUP2 ADD DUP5 SWAP1 MSTORE PUSH1 0x10 PUSH1 0x24 DUP3 ADD MSTORE PUSH16 0x14995DD85C99081D1BDBC81CDB585B1B PUSH1 0x82 SHL PUSH1 0x44 DUP3 ADD MSTORE PUSH1 0x64 SWAP1 REVERT JUMPDEST DUP5 MLOAD PUSH3 0x461BCD PUSH1 0xE5 SHL DUP2 MSTORE DUP1 DUP9 ADD DUP8 SWAP1 MSTORE PUSH1 0xE PUSH1 0x24 DUP3 ADD MSTORE PUSH14 0x4E6F204E584C2062616C616E6365 PUSH1 0x90 SHL PUSH1 0x44 DUP3 ADD MSTORE PUSH1 0x64 SWAP1 REVERT JUMPDEST SWAP1 SWAP2 POP DUP6 DUP2 DUP2 RETURNDATASIZE DUP4 GT PUSH2 0x1764 JUMPI JUMPDEST PUSH2 0x1754 DUP2 DUP4 PUSH2 0x1917 JUMP JUMPDEST DUP2 ADD SUB SLT PUSH2 0x9CC JUMPI MLOAD SWAP1 CODESIZE PUSH2 0x15AE JUMP JUMPDEST POP RETURNDATASIZE PUSH2 0x174A JUMP JUMPDEST DUP6 MLOAD RETURNDATASIZE DUP12 DUP3 RETURNDATACOPY RETURNDATASIZE SWAP1 REVERT JUMPDEST MLOAD PUSH3 0x461BCD PUSH1 0xE5 SHL DUP2 MSTORE SWAP2 DUP3 ADD MSTORE PUSH1 0xF PUSH1 0x24 DUP3 ADD MSTORE PUSH15 0x105B1C9958591E4818DB185A5B5959 PUSH1 0x8A SHL PUSH1 0x44 DUP3 ADD MSTORE PUSH1 0x64 SWAP2 POP REVERT JUMPDEST SWAP1 SWAP3 SWAP2 POP CALLVALUE PUSH2 0x53B JUMPI DUP4 PUSH1 0x3 NOT CALLDATASIZE ADD SLT PUSH2 0x53B JUMPI PUSH4 0x70A08231 PUSH1 0xE0 SHL DUP2 MSTORE ADDRESS DUP4 DUP3 ADD MSTORE PUSH1 0x20 DUP2 PUSH1 0x24 DUP2 PUSH32 0x0 PUSH1 0x1 PUSH1 0x1 PUSH1 0xA0 SHL SUB AND GAS STATICCALL DUP1 ISZERO PUSH2 0x1484 JUMPI DUP5 SWAP1 PUSH2 0x186B JUMPI JUMPDEST PUSH2 0x1823 SWAP2 POP PUSH2 0x181D PUSH1 0x3 SLOAD SWAP5 SLOAD DUP6 PUSH2 0x1939 JUMP JUMPDEST SWAP1 PUSH2 0x1939 JUMP JUMPDEST SWAP2 DUP3 PUSH2 0x182D JUMPI DUP4 DUP1 RETURN JUMPDEST DUP3 PUSH2 0x1837 SWAP2 PUSH2 0x195C JUMP JUMPDEST PUSH1 0x3 SSTORE MLOAD SWAP1 DUP2 MSTORE PUSH32 0x8E47B87B0EF542CDFA1659C551D88BAD38AA7F452D2BBB349AB7530DFEC8BE8F PUSH1 0x20 CALLER SWAP3 LOG2 CODESIZE DUP1 DUP1 DUP4 DUP1 RETURN JUMPDEST POP PUSH1 0x20 DUP2 RETURNDATASIZE DUP3 GT PUSH2 0x1896 JUMPI JUMPDEST DUP2 PUSH2 0x1884 PUSH1 0x20 SWAP4 DUP4 PUSH2 0x1917 JUMP JUMPDEST DUP2 ADD SUB SLT PUSH2 0x53B JUMPI PUSH2 0x1823 SWAP1 MLOAD PUSH2 0x180A JUMP JUMPDEST RETURNDATASIZE SWAP2 POP PUSH2 0x1877 JUMP JUMPDEST PUSH1 0x4 CALLDATALOAD SWAP1 PUSH1 0x1 PUSH1 0x1 PUSH1 0xA0 SHL SUB DUP3 AND DUP3 SUB PUSH2 0x18B4 JUMPI JUMP JUMPDEST PUSH1 0x0 DUP1 REVERT JUMPDEST PUSH1 0x0 SLOAD PUSH1 0x1 PUSH1 0x1 PUSH1 0xA0 SHL SUB AND CALLER SUB PUSH2 0x18CD JUMPI JUMP JUMPDEST PUSH1 0x40 MLOAD PUSH4 0x118CDAA7 PUSH1 0xE0 SHL DUP2 MSTORE CALLER PUSH1 0x4 DUP3 ADD MSTORE PUSH1 0x24 SWAP1 REVERT JUMPDEST PUSH1 0x80 DUP2 ADD SWAP1 DUP2 LT PUSH8 0xFFFFFFFFFFFFFFFF DUP3 GT OR PUSH2 0x1901 JUMPI PUSH1 0x40 MSTORE JUMP JUMPDEST PUSH4 0x4E487B71 PUSH1 0xE0 SHL PUSH1 0x0 MSTORE PUSH1 0x41 PUSH1 0x4 MSTORE PUSH1 0x24 PUSH1 0x0 REVERT JUMPDEST SWAP1 PUSH1 0x1F DUP1 NOT SWAP2 ADD AND DUP2 ADD SWAP1 DUP2 LT PUSH8 0xFFFFFFFFFFFFFFFF DUP3 GT OR PUSH2 0x1901 JUMPI PUSH1 0x40 MSTORE JUMP JUMPDEST SWAP2 SWAP1 DUP3 SUB SWAP2 DUP3 GT PUSH2 0x1946 JUMPI JUMP JUMPDEST PUSH4 0x4E487B71 PUSH1 0xE0 SHL PUSH1 0x0 MSTORE PUSH1 0x11 PUSH1 0x4 MSTORE PUSH1 0x24 PUSH1 0x0 REVERT JUMPDEST SWAP2 SWAP1 DUP3 ADD DUP1 SWAP3 GT PUSH2 0x1946 JUMPI JUMP JUMPDEST ISZERO PUSH2 0x1970 JUMPI JUMP JUMPDEST PUSH1 0x40 MLOAD PUSH3 0x461BCD PUSH1 0xE5 SHL DUP2 MSTORE PUSH1 0x20 PUSH1 0x4 DUP3 ADD MSTORE PUSH1 0x12 PUSH1 0x24 DUP3 ADD MSTORE PUSH18 0x416D6F756E74206D757374206265203E203 PUSH1 0x74 SHL PUSH1 0x44 DUP3 ADD MSTORE PUSH1 0x64 SWAP1 REVERT JUMPDEST SWAP1 DUP2 PUSH1 0x20 SWAP2 SUB SLT PUSH2 0x18B4 JUMPI MLOAD DUP1 ISZERO ISZERO DUP2 SUB PUSH2 0x18B4 JUMPI SWAP1 JUMP JUMPDEST ISZERO PUSH2 0x19C9 JUMPI JUMP JUMPDEST PUSH1 0x40 MLOAD PUSH3 0x461BCD PUSH1 0xE5 SHL DUP2 MSTORE PUSH1 0x20 PUSH1 0x4 DUP3 ADD MSTORE PUSH1 0xF PUSH1 0x24 DUP3 ADD MSTORE PUSH15 0x151C985B9CD9995C8819985A5B1959 PUSH1 0x8A SHL PUSH1 0x44 DUP3 ADD MSTORE PUSH1 0x64 SWAP1 REVERT JUMPDEST ISZERO PUSH2 0x1A07 JUMPI JUMP JUMPDEST PUSH1 0x40 MLOAD PUSH3 0x461BCD PUSH1 0xE5 SHL DUP2 MSTORE PUSH1 0x20 PUSH1 0x4 DUP3 ADD MSTORE PUSH1 0x14 PUSH1 0x24 DUP3 ADD MSTORE PUSH20 0x496E73756666696369656E742062616C616E6365 PUSH1 0x60 SHL PUSH1 0x44 DUP3 ADD MSTORE PUSH1 0x64 SWAP1 REVERT JUMPDEST PUSH1 0x0 NOT DUP2 EQ PUSH2 0x1946 JUMPI PUSH1 0x1 ADD SWAP1 JUMP JUMPDEST ISZERO PUSH2 0x1A59 JUMPI JUMP JUMPDEST PUSH1 0x40 MLOAD PUSH3 0x461BCD PUSH1 0xE5 SHL DUP2 MSTORE PUSH1 0x20 PUSH1 0x4 DUP3 ADD MSTORE PUSH1 0x10 PUSH1 0x24 DUP3 ADD MSTORE PUSH16 0x125B9D985B1A59081CDB985C1CDA1BDD PUSH1 0x82 SHL PUSH1 0x44 DUP3 ADD MSTORE PUSH1 0x64 SWAP1 REVERT JUMPDEST ISZERO PUSH2 0x1A98 JUMPI JUMP JUMPDEST PUSH1 0x40 MLOAD PUSH3 0x461BCD PUSH1 0xE5 SHL DUP2 MSTORE PUSH1 0x20 PUSH1 0x4 DUP3 ADD MSTORE PUSH1 0xA PUSH1 0x24 DUP3 ADD MSTORE PUSH10 0x4E6F2072657761726473 PUSH1 0xB0 SHL PUSH1 0x44 DUP3 ADD MSTORE PUSH1 0x64 SWAP1 REVERT JUMPDEST DUP2 DUP2 MUL SWAP3 SWAP2 DUP2 ISZERO SWAP2 DUP5 DIV EQ OR ISZERO PUSH2 0x1946 JUMPI JUMP JUMPDEST DUP2 ISZERO PUSH2 0x1AE7 JUMPI DIV SWAP1 JUMP JUMPDEST PUSH4 0x4E487B71 PUSH1 0xE0 SHL PUSH1 0x0 MSTORE PUSH1 0x12 PUSH1 0x4 MSTORE PUSH1 0x24 PUSH1 0x0 REVERT JUMPDEST PUSH1 0x2 PUSH1 0x1 SLOAD EQ PUSH2 0x1B0E JUMPI PUSH1 0x2 PUSH1 0x1 SSTORE JUMP JUMPDEST PUSH1 0x40 MLOAD PUSH4 0x3EE5AEB5 PUSH1 0xE0 SHL DUP2 MSTORE PUSH1 0x4 SWAP1 REVERT JUMPDEST PUSH1 0x9 SLOAD DUP3 LT ISZERO PUSH2 0x1C4C JUMPI PUSH1 0x1 PUSH1 0x1 PUSH1 0xA0 SHL SUB SWAP1 DUP2 AND PUSH1 0x0 DUP2 DUP2 MSTORE PUSH1 0xA PUSH1 0x20 SWAP1 DUP2 MSTORE PUSH1 0x40 DUP1 DUP4 KECCAK256 SWAP6 DUP4 MSTORE SWAP5 DUP2 MSTORE DUP5 DUP3 KECCAK256 SLOAD SWAP1 SWAP4 SWAP1 PUSH1 0xFF AND PUSH2 0x1C44 JUMPI PUSH1 0x8 DUP5 MSTORE DUP5 DUP3 KECCAK256 SWAP4 DUP6 MLOAD SWAP4 PUSH2 0x1B6E DUP6 PUSH2 0x18E5 JUMP JUMPDEST DUP6 SLOAD DUP6 MSTORE PUSH1 0x1 DUP7 ADD SLOAD DUP3 DUP7 ADD SWAP6 DUP2 DUP8 MSTORE PUSH1 0x60 PUSH1 0xFF PUSH1 0x3 PUSH1 0x2 DUP12 ADD SLOAD SWAP11 DUP13 DUP6 ADD SWAP12 DUP13 MSTORE ADD SLOAD AND ISZERO ISZERO SWAP2 ADD MSTORE ISZERO PUSH2 0x1C3A JUMPI DUP2 SWAP1 PUSH1 0x24 DUP9 MLOAD DUP1 SWAP6 DUP2 SWAP4 PUSH4 0x70A08231 PUSH1 0xE0 SHL DUP4 MSTORE PUSH1 0x4 DUP4 ADD MSTORE PUSH32 0x0 AND GAS STATICCALL SWAP6 DUP7 ISZERO PUSH2 0xCCE JUMPI POP DUP3 SWAP6 PUSH2 0x1C0A JUMPI JUMPDEST POP POP DUP4 ISZERO PUSH2 0x1C03 JUMPI POP PUSH2 0x1C00 SWAP3 PUSH2 0x979 SWAP2 MLOAD PUSH2 0x1ACA JUMP JUMPDEST SWAP1 JUMP JUMPDEST SWAP3 POP POP POP SWAP1 JUMP JUMPDEST SWAP1 DUP1 SWAP3 SWAP6 POP DUP2 RETURNDATASIZE DUP4 GT PUSH2 0x1C33 JUMPI JUMPDEST PUSH2 0x1C22 DUP2 DUP4 PUSH2 0x1917 JUMP JUMPDEST DUP2 ADD SUB SLT PUSH2 0x53B JUMPI MLOAD SWAP3 CODESIZE DUP1 PUSH2 0x1BE9 JUMP JUMPDEST POP RETURNDATASIZE PUSH2 0x1C18 JUMP JUMPDEST POP POP POP SWAP3 POP POP POP SWAP1 JUMP JUMPDEST POP SWAP3 POP POP POP SWAP1 JUMP JUMPDEST POP POP PUSH1 0x0 SWAP1 JUMP INVALID LOG2 PUSH5 0x6970667358 0x22 SLT KECCAK256 PUSH0 DUP12 PUSH4 0xD93C1C60 CALLDATALOAD 0xEF 0xB8 PUSH11 0xE6069A61C5CBA39A0F9EFA SWAP3 0x2C 0xFC LOG4 DUP11 0xE0 0xEE PUSH22 0x4F8B64736F6C63430008140033000000000000000000 "},"methodIdentifiers":{"MIN_WITHDRAWAL_INTERVAL()":"f9e8052d","claimMultipleRewards(uint256[])":"729d0a8a","claimRewards(uint256)":"0962ef79","depositFunds(uint256)":"3b76594d","depositMonthlyRewards(uint256)":"dbcb285b","emergencyWithdraw(uint256)":"5312ea8e","founder()":"4d853ee5","getContractInfo()":"7cc1f867","getPendingRewards(address,uint256)":"e4e7c6b4","getSnapshotInfo(uint256)":"95c4cc62","getTotalPendingRewards(address)":"a8c478ba","lastWithdrawalTime()":"34a014dc","nexumManager()":"d66ee30d","nxlToken()":"89ef723b","owner()":"8da5cb5b","receiveFunds()":"005c33e1","recoverERC20(address,uint256)":"8980f11f","renounceOwnership()":"715018a6","rewardSnapshots(uint256)":"5d648588","setNexumManager(address)":"925d7c44","setStakingStatus(bool)":"b8bec6a0","snapshotCount()":"098ab6a1","stablecoin()":"e9cbd822","stakingActive()":"a6ac4b35","totalClaimedByUser(address)":"bb0fecc7","totalDeposited()":"ff50abdc","totalRewardsDistributed()":"ee172546","totalWithdrawnForStaking()":"44a39964","transferOwnership(address)":"f2fde38b","userClaimed(address,uint256)":"fcbf8b24","withdrawForStaking(uint256)":"efe441d9"}}}}}