{
  "_format": "hh-sol-artifact-1",
  "contractName": "DonationVault",
  "sourceName": "contracts/DonationVault.sol",
  "abi": [
    {
      "inputs": [
        {
          "internalType": "address",
          "name": "_stablecoin",
          "type": "address"
        },
        {
          "internalType": "address",
          "name": "_treasuryBTC",
          "type": "address"
        }
      ],
      "stateMutability": "nonpayable",
      "type": "constructor"
    },
    {
      "inputs": [
        {
          "internalType": "address",
          "name": "owner",
          "type": "address"
        }
      ],
      "name": "OwnableInvalidOwner",
      "type": "error"
    },
    {
      "inputs": [
        {
          "internalType": "address",
          "name": "account",
          "type": "address"
        }
      ],
      "name": "OwnableUnauthorizedAccount",
      "type": "error"
    },
    {
      "inputs": [],
      "name": "ReentrancyGuardReentrantCall",
      "type": "error"
    },
    {
      "anonymous": false,
      "inputs": [
        {
          "indexed": true,
          "internalType": "address",
          "name": "donor",
          "type": "address"
        },
        {
          "indexed": false,
          "internalType": "uint256",
          "name": "amount",
          "type": "uint256"
        },
        {
          "indexed": false,
          "internalType": "uint256",
          "name": "donationId",
          "type": "uint256"
        },
        {
          "indexed": false,
          "internalType": "string",
          "name": "message",
          "type": "string"
        }
      ],
      "name": "DonationReceived",
      "type": "event"
    },
    {
      "anonymous": false,
      "inputs": [
        {
          "indexed": true,
          "internalType": "address",
          "name": "treasury",
          "type": "address"
        },
        {
          "indexed": false,
          "internalType": "uint256",
          "name": "amount",
          "type": "uint256"
        }
      ],
      "name": "DonationsForwarded",
      "type": "event"
    },
    {
      "anonymous": false,
      "inputs": [
        {
          "indexed": true,
          "internalType": "address",
          "name": "previousOwner",
          "type": "address"
        },
        {
          "indexed": true,
          "internalType": "address",
          "name": "newOwner",
          "type": "address"
        }
      ],
      "name": "OwnershipTransferred",
      "type": "event"
    },
    {
      "inputs": [
        {
          "internalType": "uint256",
          "name": "amount",
          "type": "uint256"
        },
        {
          "internalType": "string",
          "name": "message",
          "type": "string"
        }
      ],
      "name": "donate",
      "outputs": [],
      "stateMutability": "nonpayable",
      "type": "function"
    },
    {
      "inputs": [
        {
          "internalType": "uint256",
          "name": "",
          "type": "uint256"
        }
      ],
      "name": "donations",
      "outputs": [
        {
          "internalType": "address",
          "name": "donor",
          "type": "address"
        },
        {
          "internalType": "uint256",
          "name": "amount",
          "type": "uint256"
        },
        {
          "internalType": "uint256",
          "name": "timestamp",
          "type": "uint256"
        },
        {
          "internalType": "string",
          "name": "message",
          "type": "string"
        }
      ],
      "stateMutability": "view",
      "type": "function"
    },
    {
      "inputs": [
        {
          "internalType": "address",
          "name": "",
          "type": "address"
        },
        {
          "internalType": "uint256",
          "name": "",
          "type": "uint256"
        }
      ],
      "name": "donorDonations",
      "outputs": [
        {
          "internalType": "uint256",
          "name": "",
          "type": "uint256"
        }
      ],
      "stateMutability": "view",
      "type": "function"
    },
    {
      "inputs": [
        {
          "internalType": "address",
          "name": "donor",
          "type": "address"
        }
      ],
      "name": "getDonorDonations",
      "outputs": [
        {
          "internalType": "uint256[]",
          "name": "donationIds",
          "type": "uint256[]"
        },
        {
          "internalType": "uint256[]",
          "name": "amounts",
          "type": "uint256[]"
        },
        {
          "internalType": "uint256[]",
          "name": "timestamps",
          "type": "uint256[]"
        }
      ],
      "stateMutability": "view",
      "type": "function"
    },
    {
      "inputs": [
        {
          "internalType": "address",
          "name": "donor",
          "type": "address"
        }
      ],
      "name": "getDonorInfo",
      "outputs": [
        {
          "internalType": "uint256",
          "name": "_totalDonated",
          "type": "uint256"
        },
        {
          "internalType": "uint256",
          "name": "_donationCount",
          "type": "uint256"
        },
        {
          "internalType": "uint256",
          "name": "_lastDonationTime",
          "type": "uint256"
        }
      ],
      "stateMutability": "view",
      "type": "function"
    },
    {
      "inputs": [
        {
          "internalType": "uint256",
          "name": "limit",
          "type": "uint256"
        }
      ],
      "name": "getRecentDonations",
      "outputs": [
        {
          "internalType": "address[]",
          "name": "donors",
          "type": "address[]"
        },
        {
          "internalType": "uint256[]",
          "name": "amounts",
          "type": "uint256[]"
        },
        {
          "internalType": "uint256[]",
          "name": "timestamps",
          "type": "uint256[]"
        },
        {
          "internalType": "string[]",
          "name": "messages",
          "type": "string[]"
        }
      ],
      "stateMutability": "view",
      "type": "function"
    },
    {
      "inputs": [],
      "name": "getStats",
      "outputs": [
        {
          "internalType": "uint256",
          "name": "_totalReceived",
          "type": "uint256"
        },
        {
          "internalType": "uint256",
          "name": "_totalDonors",
          "type": "uint256"
        },
        {
          "internalType": "uint256",
          "name": "_totalDonations",
          "type": "uint256"
        }
      ],
      "stateMutability": "view",
      "type": "function"
    },
    {
      "inputs": [
        {
          "internalType": "uint256",
          "name": "limit",
          "type": "uint256"
        }
      ],
      "name": "getTopDonors",
      "outputs": [
        {
          "internalType": "address[]",
          "name": "topDonors",
          "type": "address[]"
        },
        {
          "internalType": "uint256[]",
          "name": "amounts",
          "type": "uint256[]"
        }
      ],
      "stateMutability": "view",
      "type": "function"
    },
    {
      "inputs": [],
      "name": "owner",
      "outputs": [
        {
          "internalType": "address",
          "name": "",
          "type": "address"
        }
      ],
      "stateMutability": "view",
      "type": "function"
    },
    {
      "inputs": [
        {
          "internalType": "address",
          "name": "token",
          "type": "address"
        },
        {
          "internalType": "uint256",
          "name": "amount",
          "type": "uint256"
        }
      ],
      "name": "recoverTokens",
      "outputs": [],
      "stateMutability": "nonpayable",
      "type": "function"
    },
    {
      "inputs": [],
      "name": "renounceOwnership",
      "outputs": [],
      "stateMutability": "nonpayable",
      "type": "function"
    },
    {
      "inputs": [],
      "name": "stablecoin",
      "outputs": [
        {
          "internalType": "contract IERC20",
          "name": "",
          "type": "address"
        }
      ],
      "stateMutability": "view",
      "type": "function"
    },
    {
      "inputs": [
        {
          "internalType": "address",
          "name": "",
          "type": "address"
        }
      ],
      "name": "totalDonated",
      "outputs": [
        {
          "internalType": "uint256",
          "name": "",
          "type": "uint256"
        }
      ],
      "stateMutability": "view",
      "type": "function"
    },
    {
      "inputs": [],
      "name": "totalDonors",
      "outputs": [
        {
          "internalType": "uint256",
          "name": "",
          "type": "uint256"
        }
      ],
      "stateMutability": "view",
      "type": "function"
    },
    {
      "inputs": [],
      "name": "totalReceived",
      "outputs": [
        {
          "internalType": "uint256",
          "name": "",
          "type": "uint256"
        }
      ],
      "stateMutability": "view",
      "type": "function"
    },
    {
      "inputs": [
        {
          "internalType": "address",
          "name": "newOwner",
          "type": "address"
        }
      ],
      "name": "transferOwnership",
      "outputs": [],
      "stateMutability": "nonpayable",
      "type": "function"
    },
    {
      "inputs": [],
      "name": "treasuryBTC",
      "outputs": [
        {
          "internalType": "address",
          "name": "",
          "type": "address"
        }
      ],
      "stateMutability": "view",
      "type": "function"
    },
    {
      "inputs": [
        {
          "internalType": "address",
          "name": "newTreasury",
          "type": "address"
        }
      ],
      "name": "updateTreasury",
      "outputs": [],
      "stateMutability": "nonpayable",
      "type": "function"
    }
  ],
  "bytecode": "0x60a03461017e576200165690601f38839003908101601f19168201906001600160401b03821183831017610183578083916040958694855283398101031261017e57610056602061004f83610199565b9201610199565b33156101665760008054336001600160a01b03198083168217845586519590946001600160a01b03949093859391908416907f8be0079c531659141344cd1fd0a4f28419497f9722a3daafe3b4186f6b6457e09080a3600180551693841561012f5750169182156100f8576080526002541617600255516114a89081620001ae8239608051818181610451015281816106900152818161090d0152610e9b0152f35b835162461bcd60e51b815260206004820152601060248201526f496e76616c696420747265617375727960801b6044820152606490fd5b62461bcd60e51b815260206004820152601260248201527124b73b30b634b21039ba30b13632b1b7b4b760711b6044820152606490fd5b8251631e4fbdf760e01b815260006004820152602490fd5b600080fd5b634e487b7160e01b600052604160045260246000fd5b51906001600160a01b038216820361017e5756fe6080604052600436101561001257600080fd5b60003560e01c80623062ca14610f65578063069c9fae14610e6d5780630f3a1d4714610e3357806315a4640614610d2857806325c302e414610d0a5780634395e1bf14610cb2578063715018a614610c595780637f51bb1f14610bd45780638d59d1f1146105ee5780638da5cb5b146105c5578063a3c2c462146105a7578063c46a60a5146104b2578063c59d484714610480578063e9cbd8221461043b578063eb348f8314610412578063f2fde38b14610384578063f5d1282b1461015a5763f8626af8146100e157600080fd5b34610155576020366003190112610155576004356003548110156101555761010890611217565b5060018060a01b0381541661015160018301549261012d6003600283015492016112c9565b90604051948594855260208501526040840152608060608401526080830190611193565b0390f35b600080fd5b3461015557602080600319360112610155576007546004358181111561037d57505b610185816113e7565b9161018f826113e7565b60035461019b816113e7565b9060009060005b8181106102f557505060005b858110806102ec575b156102c25760008060005b84811061020857506101e69291906001600160a01b0316806101eb575b50506113b3565b6101ae565b6101f5838b61145e565b52610200828761145e565b5288806101df565b6001600160a01b038061021b838961145e565b5116600052600489528360406000205411610240575b5061023b906113b3565b6101c2565b6000805b828d88831061028a575b505050610231579250905081610264828761145e565b51166000526004875261023b60406000205492610281838861145e565b51169190610231565b826102949161145e565b5116836102a1868c61145e565b5116146102b6576102b1906113b3565b610244565b505060018c828d61024e565b6102df876101518787604051948594604086526040860190611122565b918483039085015261115f565b508181106101b7565b6102fe81611217565b50546001600160a01b0390811690600090815b868110610350575b505015610330575b5061032b906113b3565b6101a2565b836103499161034361032b94968861145e565b526113b3565b9290610321565b838261035c838b61145e565b5116146103715761036c906113b3565b610311565b50505060018a80610319565b905061017c565b346101555760203660031901126101555761039d6111d3565b6103a561136f565b6001600160a01b039081169081156103f957600054826bffffffffffffffffffffffff60a01b821617600055167f8be0079c531659141344cd1fd0a4f28419497f9722a3daafe3b4186f6b6457e0600080a3005b604051631e4fbdf760e01b815260006004820152602490fd5b34610155576000366003190112610155576002546040516001600160a01b039091168152602090f35b34610155576000366003190112610155576040517f00000000000000000000000000000000000000000000000000000000000000006001600160a01b03168152602090f35b346101555760003660031901126101555760065460075460035460408051938452602084019290925290820152606090f35b3461015557602080600319360112610155576001600160a01b036104d46111d3565b16908160005260058152604060002090604051808383829554938481520190600052836000209260005b8582821061059157505050610515925003836112a7565b600092825180610549575b506000908152600490915260409081902054915181519283526020830152810191909152606090f35b90935060001981019190821161057b57600261057061056a6004948661145e565b51611217565b500154939091610520565b634e487b7160e01b600052601160045260246000fd5b85548452600195860195889550930192016104fe565b34610155576000366003190112610155576020600654604051908152f35b34610155576000366003190112610155576000546040516001600160a01b039091168152602090f35b346101555760403660031901126101555760243567ffffffffffffffff811161015557366023820112156101555767ffffffffffffffff8160040135116101555736602482600401358301011161015557600260015414610bc257600260015560043515610b8857610118816004013511610b50576040516323b872dd60e01b81523360048083019190915230602483015235604482015260208160648160007f00000000000000000000000000000000000000000000000000000000000000006001600160a01b03165af19081156109ee57600091610b31575b5015610afa576003546040516106de8161128b565b338152600435602082015242604082015260405161070a6020601f19601f8760040135011601826112a7565b6004840135808252602485016020830137600060208560040135830101526060820152600160401b821015610a0d576001820160035561074982611217565b919091610ae457805182546001600160a01b0319166001600160a01b039190911617825560208101516001830155604081015160028301556060015180519067ffffffffffffffff8211610a0d576107a46003840154611251565b601f8111610a9d575b50602090601f8311600114610a2e576003929160009183610a23575b50508160011b9160001990841b1c1916179101555b336000526005602052604060002090815491600160401b831015610a0d578261082d9160017ff041a5bfea1be2e3f78bbadfadc66bb6f6d62860e629a44d71bec1ef49411c9e950181556111e9565b81549060031b9083821b91600019901b1916179055336000526004602052604060002054156109fa575b336000526004602052604060002061087260043582546113c2565b90556108826004356006546113c2565b600655604051906004358252602082015260606040820152826004013560608201528260040135602484016080830137600060808460040135830101526080813394601f8019916004013501168101030190a260025460405163a9059cbb60e01b81526001600160a01b039091166004808301919091523560248201526020818060448101038160007f00000000000000000000000000000000000000000000000000000000000000006001600160a01b03165af19081156109ee576000916109bf575b50156109895760018060a01b03600254167f14c9f9f91afb3fe6c277d43ca2970a36f719db489f69409f3e8236a146cd235660206040516004358152a260018055005b60405162461bcd60e51b815260206004820152600e60248201526d119bdc9dd85c990819985a5b195960921b6044820152606490fd5b6109e1915060203d6020116109e7575b6109d981836112a7565b81019061139b565b81610946565b503d6109cf565b6040513d6000823e3d90fd5b610a056007546113b3565b600755610857565b634e487b7160e01b600052604160045260246000fd5b0151905086806107c9565b906003840160005260206000209160005b601f1985168110610a855750918391600193600395601f19811610610a6d575b505050811b019101556107de565b015160001983861b60f8161c19169055868080610a5f565b91926020600181928685015181550194019201610a3f565b600384016000526020600020601f840160051c810160208510610add575b601f830160051c82018110610ad15750506107ad565b60008155600101610abb565b5080610abb565b634e487b7160e01b600052600060045260246000fd5b60405162461bcd60e51b815260206004820152600f60248201526e151c985b9cd9995c8819985a5b1959608a1b6044820152606490fd5b610b4a915060203d6020116109e7576109d981836112a7565b826106c9565b60405162461bcd60e51b815260206004820152601060248201526f4d65737361676520746f6f206c6f6e6760801b6044820152606490fd5b60405162461bcd60e51b81526020600482015260126024820152710416d6f756e74206d757374206265203e20360741b6044820152606490fd5b604051633ee5aeb560e01b8152600490fd5b3461015557602036600319011261015557610bed6111d3565b610bf561136f565b6001600160a01b03168015610c21576bffffffffffffffffffffffff60a01b6002541617600255600080f35b60405162461bcd60e51b815260206004820152601060248201526f496e76616c696420747265617375727960801b6044820152606490fd5b3461015557600036600319011261015557610c7261136f565b600080546001600160a01b0319811682556001600160a01b03167f8be0079c531659141344cd1fd0a4f28419497f9722a3daafe3b4186f6b6457e08280a3005b3461015557604036600319011261015557610ccb6111d3565b6001600160a01b031660009081526005602052604090208054602435919082101561015557602091610cfc916111e9565b90546040519160031b1c8152f35b34610155576000366003190112610155576020600754604051908152f35b3461015557602080600319360112610155576001600160a01b03610d4a6111d3565b16600052600581526040600020604051808284829454938481520190600052846000209260005b86828210610e1d5784610d86818603826112a7565b8051610d91816113e7565b610d9a826113e7565b9160005b818110610de157610dc68561015186610dd38a8860405196879660608852606088019061115f565b918683039087015261115f565b90838203604085015261115f565b806040610dfd610df761056a610e18958a61145e565b50611419565b88810151610e0b848861145e565b520151610343828761145e565b610d9e565b8554845260019586019587955093019201610d71565b34610155576020366003190112610155576001600160a01b03610e546111d3565b1660005260046020526020604060002054604051908152f35b3461015557604036600319011261015557610e866111d3565b610e8e61136f565b6001600160a01b039081167f000000000000000000000000000000000000000000000000000000000000000082168114610f20576000805460405163a9059cbb60e01b815293166001600160a01b03166004840152602480359084015260209183918290816044810103925af180156109ee57610f0757005b610f1e9060203d81116109e7576109d981836112a7565b005b60405162461bcd60e51b815260206004820152601960248201527f43616e6e6f74207265636f76657220737461626c65636f696e000000000000006044820152606490fd5b346101555760208060031936011261015557600354906004358281111561111a575090805b610f93816113e7565b91610f9d826113e7565b610fa6836113e7565b90610fb0846113cf565b93610fbe60405195866112a7565b808552601f199384610fcf836113cf565b0160005b81811061110b5750506000198082019180831160005b85811061108b575050505050509061102061102e9261101360405197608089526080890190611122565b908782038989015261115f565b90858203604087015261115f565b93838503606085015282519081865280860181808460051b8901019501936000975b84891061105d5787870388f35b9091929394958480611079838686600196030188528a51611193565b98019401980197919094939294611050565b819b989b61057b5783818403019085821161057b5760606110b1610df761110394611217565b8d6110c68460018060a01b038451169261145e565b528b8101516110d5848c61145e565b5260408101516110e5848d61145e565b5201516110f2828d61145e565b526110fd818c61145e565b506113b3565b9a979a610fe9565b60608882018b01528901610fd3565b919091610f8a565b90815180825260208080930193019160005b828110611142575050505090565b83516001600160a01b031685529381019392810192600101611134565b90815180825260208080930193019160005b82811061117f575050505090565b835185529381019392810192600101611171565b919082519283825260005b8481106111bf575050826000602080949584010152601f8019910116010190565b60208183018101518483018201520161119e565b600435906001600160a01b038216820361015557565b80548210156112015760005260206000200190600090565b634e487b7160e01b600052603260045260246000fd5b60035481101561120157600360005260021b7fc2575a0e9e593c00f959f8c92f12db2869c3395a3b0502d05e2516446f71f85b0190600090565b90600182811c92168015611281575b602083101461126b57565b634e487b7160e01b600052602260045260246000fd5b91607f1691611260565b6080810190811067ffffffffffffffff821117610a0d57604052565b90601f8019910116810190811067ffffffffffffffff821117610a0d57604052565b90604051918260008254926112dd84611251565b90818452600194858116908160001461134c5750600114611309575b5050611307925003836112a7565b565b9093915060005260209081600020936000915b818310611334575050611307935082010138806112f9565b8554888401850152948501948794509183019161131c565b91505061130794506020925060ff191682840152151560051b82010138806112f9565b6000546001600160a01b0316330361138357565b60405163118cdaa760e01b8152336004820152602490fd5b90816020910312610155575180151581036101555790565b600019811461057b5760010190565b9190820180921161057b57565b67ffffffffffffffff8111610a0d5760051b60200190565b906113f1826113cf565b6113fe60405191826112a7565b828152809261140f601f19916113cf565b0190602036910137565b906040516114268161128b565b82546001600160a01b031681526001830154602082015260028301546040820152918290606090611459906003016112c9565b910152565b80518210156112015760209160051b01019056fea2646970667358221220efe5d12bb789494f5fe5e19185ba3704e93f3dd3e190cfa450dddd54b2b56ae564736f6c63430008140033",
  "linkReferences": {},
  "deployedLinkReferences": {}
}