{
  "_format": "hh-sol-artifact-1",
  "contractName": "ReferralNetwork",
  "sourceName": "contracts/ReferralNetwork.sol",
  "abi": [
    {
      "inputs": [
        {
          "internalType": "address",
          "name": "_stablecoin",
          "type": "address"
        }
      ],
      "stateMutability": "nonpayable",
      "type": "constructor"
    },
    {
      "inputs": [
        {
          "internalType": "address",
          "name": "owner",
          "type": "address"
        }
      ],
      "name": "OwnableInvalidOwner",
      "type": "error"
    },
    {
      "inputs": [
        {
          "internalType": "address",
          "name": "account",
          "type": "address"
        }
      ],
      "name": "OwnableUnauthorizedAccount",
      "type": "error"
    },
    {
      "inputs": [],
      "name": "ReentrancyGuardReentrantCall",
      "type": "error"
    },
    {
      "anonymous": false,
      "inputs": [
        {
          "indexed": true,
          "internalType": "address",
          "name": "referrer",
          "type": "address"
        },
        {
          "indexed": true,
          "internalType": "address",
          "name": "buyer",
          "type": "address"
        },
        {
          "indexed": false,
          "internalType": "uint256",
          "name": "level",
          "type": "uint256"
        },
        {
          "indexed": false,
          "internalType": "uint256",
          "name": "amount",
          "type": "uint256"
        }
      ],
      "name": "CommissionPaid",
      "type": "event"
    },
    {
      "anonymous": false,
      "inputs": [
        {
          "indexed": true,
          "internalType": "address",
          "name": "previousOwner",
          "type": "address"
        },
        {
          "indexed": true,
          "internalType": "address",
          "name": "newOwner",
          "type": "address"
        }
      ],
      "name": "OwnershipTransferred",
      "type": "event"
    },
    {
      "anonymous": false,
      "inputs": [
        {
          "indexed": true,
          "internalType": "address",
          "name": "user",
          "type": "address"
        },
        {
          "indexed": true,
          "internalType": "address",
          "name": "referrer",
          "type": "address"
        }
      ],
      "name": "ReferrerSet",
      "type": "event"
    },
    {
      "inputs": [],
      "name": "LEVEL1_PCT",
      "outputs": [
        {
          "internalType": "uint256",
          "name": "",
          "type": "uint256"
        }
      ],
      "stateMutability": "view",
      "type": "function"
    },
    {
      "inputs": [],
      "name": "LEVEL2_PCT",
      "outputs": [
        {
          "internalType": "uint256",
          "name": "",
          "type": "uint256"
        }
      ],
      "stateMutability": "view",
      "type": "function"
    },
    {
      "inputs": [],
      "name": "LEVEL3_PCT",
      "outputs": [
        {
          "internalType": "uint256",
          "name": "",
          "type": "uint256"
        }
      ],
      "stateMutability": "view",
      "type": "function"
    },
    {
      "inputs": [
        {
          "internalType": "address",
          "name": "",
          "type": "address"
        },
        {
          "internalType": "uint256",
          "name": "",
          "type": "uint256"
        }
      ],
      "name": "directReferrals",
      "outputs": [
        {
          "internalType": "address",
          "name": "",
          "type": "address"
        }
      ],
      "stateMutability": "view",
      "type": "function"
    },
    {
      "inputs": [
        {
          "internalType": "address",
          "name": "buyer",
          "type": "address"
        },
        {
          "internalType": "uint256",
          "name": "totalAmount",
          "type": "uint256"
        }
      ],
      "name": "distributeCommissions",
      "outputs": [],
      "stateMutability": "nonpayable",
      "type": "function"
    },
    {
      "inputs": [
        {
          "internalType": "address",
          "name": "user",
          "type": "address"
        }
      ],
      "name": "getReferralChain",
      "outputs": [
        {
          "internalType": "address",
          "name": "level1",
          "type": "address"
        },
        {
          "internalType": "address",
          "name": "level2",
          "type": "address"
        },
        {
          "internalType": "address",
          "name": "level3",
          "type": "address"
        }
      ],
      "stateMutability": "view",
      "type": "function"
    },
    {
      "inputs": [
        {
          "internalType": "address",
          "name": "user",
          "type": "address"
        }
      ],
      "name": "hasReferrer",
      "outputs": [
        {
          "internalType": "bool",
          "name": "",
          "type": "bool"
        }
      ],
      "stateMutability": "view",
      "type": "function"
    },
    {
      "inputs": [],
      "name": "nexumManager",
      "outputs": [
        {
          "internalType": "address",
          "name": "",
          "type": "address"
        }
      ],
      "stateMutability": "view",
      "type": "function"
    },
    {
      "inputs": [],
      "name": "owner",
      "outputs": [
        {
          "internalType": "address",
          "name": "",
          "type": "address"
        }
      ],
      "stateMutability": "view",
      "type": "function"
    },
    {
      "inputs": [
        {
          "internalType": "address",
          "name": "",
          "type": "address"
        }
      ],
      "name": "referrer",
      "outputs": [
        {
          "internalType": "address",
          "name": "",
          "type": "address"
        }
      ],
      "stateMutability": "view",
      "type": "function"
    },
    {
      "inputs": [],
      "name": "renounceOwnership",
      "outputs": [],
      "stateMutability": "nonpayable",
      "type": "function"
    },
    {
      "inputs": [
        {
          "internalType": "address",
          "name": "_manager",
          "type": "address"
        }
      ],
      "name": "setNexumManager",
      "outputs": [],
      "stateMutability": "nonpayable",
      "type": "function"
    },
    {
      "inputs": [
        {
          "internalType": "address",
          "name": "user",
          "type": "address"
        },
        {
          "internalType": "address",
          "name": "_referrer",
          "type": "address"
        }
      ],
      "name": "setReferrer",
      "outputs": [],
      "stateMutability": "nonpayable",
      "type": "function"
    },
    {
      "inputs": [],
      "name": "stablecoin",
      "outputs": [
        {
          "internalType": "contract IERC20",
          "name": "",
          "type": "address"
        }
      ],
      "stateMutability": "view",
      "type": "function"
    },
    {
      "inputs": [
        {
          "internalType": "address",
          "name": "",
          "type": "address"
        }
      ],
      "name": "totalEarned",
      "outputs": [
        {
          "internalType": "uint256",
          "name": "",
          "type": "uint256"
        }
      ],
      "stateMutability": "view",
      "type": "function"
    },
    {
      "inputs": [
        {
          "internalType": "address",
          "name": "newOwner",
          "type": "address"
        }
      ],
      "name": "transferOwnership",
      "outputs": [],
      "stateMutability": "nonpayable",
      "type": "function"
    }
  ],
  "bytecode": "0x60a03461012157601f610e5c38819003918201601f19168301916001600160401b038311848410176101265780849260209460405283398101031261012157516001600160a01b0380821691829003610121573315610108576000543360018060a01b0319821617600055604051913391167f8be0079c531659141344cd1fd0a4f28419497f9722a3daafe3b4186f6b6457e0600080a36001805581156100d15750608052604051610d1f908161013d8239608051818181610171015281816106430152818161077c01526108a10152f35b62461bcd60e51b815260206004820152601260248201527124b73b30b634b21039ba30b13632b1b7b4b760711b6044820152606490fd5b604051631e4fbdf760e01b815260006004820152602490fd5b600080fd5b634e487b7160e01b600052604160045260246000fdfe6080604081815260048036101561001557600080fd5b600092833560e01c90816302fb1b8514610b6c5750806305ad393514610b1157806318452cd814610ad45780632cf003c214610a99578063649aca4a14610a615780636667864d146109df578063715018a61461098257806375003aa11461054057806384da436f146105235780638da5cb5b146104fb578063925d7c4414610443578063a1992fb814610426578063bbddaca3146101cd578063d66ee30d146101a4578063e9cbd8221461015c5763f2fde38b146100d357600080fd5b34610158576020366003190112610158576100ec610b88565b906100f5610bd1565b6001600160a01b0391821692831561014257505082546001600160a01b0319811683178455167f8be0079c531659141344cd1fd0a4f28419497f9722a3daafe3b4186f6b6457e08380a380f35b51631e4fbdf760e01b8152908101849052602490fd5b8280fd5b5050346101a057816003193601126101a057517f00000000000000000000000000000000000000000000000000000000000000006001600160a01b03168152602090f35b5080fd5b5050346101a057816003193601126101a05760055490516001600160a01b039091168152602090f35b50346101585781600319360112610158576101e6610b88565b6001600160a01b0360248035828116959094929386860361042257849061021282600554163314610bfd565b169485151580610419575b156103e3578686146103a957858852600260209181835286848b2054166103705790859291878b915b600383106102e9575b505050878a528152828920886bffffffffffffffffffffffff60a01b82541617905587895252862090815492680100000000000000008410156102d85750509061029e91600182018155610ba3565b819291549060031b9184831b921b19161790557f5f7165288eef601591cf549e15ff19ef9060b7f71b9c115be946fa1fe7ebf68a8380a380f35b634e487b7160e01b88526041905286fd5b909192939450168681156103665750888114610333578a52818352838a20548716906000198114610321576001018787949392610246565b634e487b7160e01b8b5260118752858bfd5b845162461bcd60e51b8152808801859052600e818801526d526566657272616c206379636c6560901b6044820152606490fd5b939291889061024f565b835162461bcd60e51b81528087018490526014818701527320b63932b0b23c903430b9903932b332b93932b960611b6044820152606490fd5b815162461bcd60e51b81526020818601526015818501527421b0b73737ba103932b332b9103cb7bab939b2b63360591b6044820152606490fd5b815162461bcd60e51b815260208186015260118185015270496e76616c69642061646472657373657360781b6044820152606490fd5b5086151561021d565b8780fd5b5050346101a057816003193601126101a057602090516107d08152f35b50346101585760203660031901126101585761045d610b88565b90610466610bd1565b6001600160a01b039182169283156104c6576005549283166104955750506001600160a01b0319161760055580f35b906020606492519162461bcd60e51b8352820152600b60248201526a105b1c9958591e481cd95d60aa1b6044820152fd5b906020606492519162461bcd60e51b8352820152600f60248201526e24b73b30b634b21036b0b730b3b2b960891b6044820152fd5b5050346101a057816003193601126101a057905490516001600160a01b039091168152602090f35b5050346101a057816003193601126101a05760209051610bb88152f35b50903461015857806003193601126101585761055a610b88565b6005546001600160a01b03926024359290916105799085163314610bfd565b60029081600154146109725781600155831561093e578416938487526020918083528184892054168015158061084a575b156108435788528083528184892054165b828116908115159081610724575b501561071b5788528252808388205416955b81871694856105ed575b886001805580f35b6107d0808202918204036107085790612710899204928361060f575b506105e5565b855163a9059cbb60e01b81526001600160a01b039099169189019182526020820184905284928992839190829060400103927f0000000000000000000000000000000000000000000000000000000000000000165af19586156106fe577f7161a6d15990a776271cac78139f4808bc04ae5936b9c96a3aece1acb7877b3f9495966106a19189916106d1575b50610c88565b848752600382528287206106b6828254610cc6565b905582519160038352820152a3388080808080868180610609565b6106f19150843d86116106f7575b6106e98183610c38565b810190610c70565b3861069b565b503d6106df565b83513d89823e3d90fd5b634e487b7160e01b895260118252602489fd5b505086956105db565b610bb88802610bb71989820401610830576127108c910491878361074b575b5050506105c9565b895163a9059cbb60e01b81526001600160a01b03909216828e0190815260208101859052829081906040010381858b7f0000000000000000000000000000000000000000000000000000000000000000165af1908115610826578b938a846107e07f7161a6d15990a776271cac78139f4808bc04ae5936b9c96a3aece1acb7877b3f9583958e8c9992610809575b5050610c88565b85815260038c52206107f3828254610cc6565b90558151908882528a820152a3388a8187610743565b61081f9250803d106106f7576106e98183610c38565b388e6107d9565b89513d84823e3d90fd5b634e487b7160e01b8c5260118b5260248cfd5b50876105bb565b6113888702611387198882040161092b5761271090048061086c575b506105aa565b865163a9059cbb60e01b81526001600160a01b038416818c01908152602081018390528c91908890829081906040010381858b7f0000000000000000000000000000000000000000000000000000000000000000165af1908115610826578b938a846109047f7161a6d15990a776271cac78139f4808bc04ae5936b9c96a3aece1acb7877b3f9583958e8c9992610809575050610c88565b85815260038c5220610917828254610cc6565b9055815190600182528a820152a338610866565b634e487b7160e01b8b5260118a5260248bfd5b825162461bcd60e51b8152602081880152600e60248201526d125b9d985b1a5908185b5bdd5b9d60921b6044820152606490fd5b8251633ee5aeb560e01b81528690fd5b83346109dc57806003193601126109dc5761099b610bd1565b80546001600160a01b03198116825581906001600160a01b03167f8be0079c531659141344cd1fd0a4f28419497f9722a3daafe3b4186f6b6457e08280a380f35b80fd5b5050346101a05760203660031901126101a057606091906001600160a01b0380610a07610b88565b1683526002602052818320548116928315610a58578381528183818082852054165b16928315610a4f578381526002602052205416905b835194855260208501521690820152f35b91505090610a3e565b81838183610a29565b5050346101a05760203660031901126101a05760209181906001600160a01b03610a89610b88565b1681526003845220549051908152f35b5050346101a05760203660031901126101a0576020916001600160a01b0390829082610ac3610b88565b168152600285522054169051908152f35b5050346101a05760203660031901126101a0576020916001600160a01b0390829082610afe610b88565b1681526002855220541615159051908152f35b5091346109dc57816003193601126109dc57610b2b610b88565b6001600160a01b03908116825260209390935281812080546024359492908510156109dc5750602093610b5d91610ba3565b92905490519260031b1c168152f35b8490346101a057816003193601126101a0578061138860209252f35b600435906001600160a01b0382168203610b9e57565b600080fd5b8054821015610bbb5760005260206000200190600090565b634e487b7160e01b600052603260045260246000fd5b6000546001600160a01b03163303610be557565b60405163118cdaa760e01b8152336004820152602490fd5b15610c0457565b60405162461bcd60e51b815260206004820152600c60248201526b27b7363c9036b0b730b3b2b960a11b6044820152606490fd5b90601f8019910116810190811067ffffffffffffffff821117610c5a57604052565b634e487b7160e01b600052604160045260246000fd5b90816020910312610b9e57518015158103610b9e5790565b15610c8f57565b60405162461bcd60e51b815260206004820152600f60248201526e151c985b9cd9995c8819985a5b1959608a1b6044820152606490fd5b91908201809211610cd357565b634e487b7160e01b600052601160045260246000fdfea2646970667358221220f2aa53d43d2a74ea4f4fa3629cbc9601c8a6e81c2c9df78ae34d71ae7c46a46264736f6c63430008140033",
  "linkReferences": {},
  "deployedLinkReferences": {}
}