{"abi":[{"type":"constructor","inputs":[{"name":"_stablecoin","type":"address","internalType":"address"}],"stateMutability":"nonpayable"},{"type":"function","name":"acceptOwnership","inputs":[],"outputs":[],"stateMutability":"nonpayable"},{"type":"function","name":"claim","inputs":[],"outputs":[],"stateMutability":"nonpayable"},{"type":"function","name":"claimable","inputs":[{"name":"","type":"address","internalType":"address"}],"outputs":[{"name":"","type":"uint256","internalType":"uint256"}],"stateMutability":"view"},{"type":"function","name":"distributeCommissions","inputs":[{"name":"buyer","type":"address","internalType":"address"},{"name":"referralBudget","type":"uint256","internalType":"uint256"}],"outputs":[],"stateMutability":"nonpayable"},{"type":"function","name":"getReferralChain","inputs":[{"name":"user","type":"address","internalType":"address"}],"outputs":[{"name":"l1","type":"address","internalType":"address"},{"name":"l2","type":"address","internalType":"address"},{"name":"l3","type":"address","internalType":"address"}],"stateMutability":"view"},{"type":"function","name":"hasReferrer","inputs":[{"name":"user","type":"address","internalType":"address"}],"outputs":[{"name":"","type":"bool","internalType":"bool"}],"stateMutability":"view"},{"type":"function","name":"nexumManager","inputs":[],"outputs":[{"name":"","type":"address","internalType":"address"}],"stateMutability":"view"},{"type":"function","name":"owner","inputs":[],"outputs":[{"name":"","type":"address","internalType":"address"}],"stateMutability":"view"},{"type":"function","name":"pendingOwner","inputs":[],"outputs":[{"name":"","type":"address","internalType":"address"}],"stateMutability":"view"},{"type":"function","name":"referrerOf","inputs":[{"name":"","type":"address","internalType":"address"}],"outputs":[{"name":"","type":"address","internalType":"address"}],"stateMutability":"view"},{"type":"function","name":"renounceOwnership","inputs":[],"outputs":[],"stateMutability":"nonpayable"},{"type":"function","name":"setNexumManager","inputs":[{"name":"_nexumManager","type":"address","internalType":"address"}],"outputs":[],"stateMutability":"nonpayable"},{"type":"function","name":"setReferrer","inputs":[{"name":"user","type":"address","internalType":"address"},{"name":"referrer","type":"address","internalType":"address"}],"outputs":[],"stateMutability":"nonpayable"},{"type":"function","name":"stablecoin","inputs":[],"outputs":[{"name":"","type":"address","internalType":"contract IERC20"}],"stateMutability":"view"},{"type":"function","name":"transferOwnership","inputs":[{"name":"newOwner","type":"address","internalType":"address"}],"outputs":[],"stateMutability":"nonpayable"},{"type":"event","name":"Claimed","inputs":[{"name":"user","type":"address","indexed":true,"internalType":"address"},{"name":"amount","type":"uint256","indexed":false,"internalType":"uint256"}],"anonymous":false},{"type":"event","name":"CommissionsAccrued","inputs":[{"name":"buyer","type":"address","indexed":true,"internalType":"address"},{"name":"budget","type":"uint256","indexed":false,"internalType":"uint256"},{"name":"l1","type":"address","indexed":false,"internalType":"address"},{"name":"l2","type":"address","indexed":false,"internalType":"address"},{"name":"l3","type":"address","indexed":false,"internalType":"address"},{"name":"paidTotal","type":"uint256","indexed":false,"internalType":"uint256"}],"anonymous":false},{"type":"event","name":"NexumManagerSet","inputs":[{"name":"manager","type":"address","indexed":true,"internalType":"address"}],"anonymous":false},{"type":"event","name":"OwnershipTransferStarted","inputs":[{"name":"previousOwner","type":"address","indexed":true,"internalType":"address"},{"name":"newOwner","type":"address","indexed":true,"internalType":"address"}],"anonymous":false},{"type":"event","name":"OwnershipTransferred","inputs":[{"name":"previousOwner","type":"address","indexed":true,"internalType":"address"},{"name":"newOwner","type":"address","indexed":true,"internalType":"address"}],"anonymous":false},{"type":"event","name":"ReferrerSet","inputs":[{"name":"user","type":"address","indexed":true,"internalType":"address"},{"name":"referrer","type":"address","indexed":true,"internalType":"address"}],"anonymous":false},{"type":"error","name":"OwnableInvalidOwner","inputs":[{"name":"owner","type":"address","internalType":"address"}]},{"type":"error","name":"OwnableUnauthorizedAccount","inputs":[{"name":"account","type":"address","internalType":"address"}]},{"type":"error","name":"ReentrancyGuardReentrantCall","inputs":[]},{"type":"error","name":"SafeERC20FailedOperation","inputs":[{"name":"token","type":"address","internalType":"address"}]}],"bytecode":{"object":"0x60a03461012557601f610df538819003918201601f19168301916001600160401b0383118484101761012a5780849260209460405283398101031261012557516001600160a01b038082169182900361012557331561010c5760018060a01b03198060015416600155600054903390821617600055604051913391167f8be0079c531659141344cd1fd0a4f28419497f9722a3daafe3b4186f6b6457e0600080a3600160025581156100d55750608052604051610cb490816101418239608051818181610150015281816106060152610a0e0152f35b62461bcd60e51b815260206004820152601260248201527124b73b30b634b21039ba30b13632b1b7b4b760711b6044820152606490fd5b604051631e4fbdf760e01b815260006004820152602490fd5b600080fd5b634e487b7160e01b600052604160045260246000fdfe60806040908082526004918236101561001757600080fd5b600092833560e01c92836318452cd814610b7857508263402914f514610b405782634e71d92d146109d15782636667864d1461094e578263715018a6146108e957826375003aa11461059a57826379ba5097146105185782638da5cb5b146104f0578263925d7c4414610414578263bbddaca314610214578263d21cacdf146101d557508163d66ee30d146101ac578163e30c397814610183578163e9cbd8221461013b575063f2fde38b146100cc57600080fd5b34610138576020366003190112610138576100e5610bb3565b6100ed610c31565b600180546001600160a01b0319166001600160a01b0392831690811790915582549091167f38d16b8cac22d99fc7c124b9cd0de2d3fa1faef420bfe791d8c362d765e227008380a380f35b80fd5b90503461017f578160031936011261017f57517f00000000000000000000000000000000000000000000000000000000000000006001600160a01b03168152602090f35b5080fd5b90503461017f578160031936011261017f5760015490516001600160a01b039091168152602090f35b90503461017f578160031936011261017f5760035490516001600160a01b039091168152602090f35b90915034610210576020366003190112610210576020926001600160a01b039183919083610201610bb3565b16825285522054169051908152f35b8280fd5b9091503461021057816003193601126102105761022f610bb3565b91602491823560018060a01b03938482169586830361041057859061025982600354163314610bce565b169485156103df5786156103aa5785871461037d5785885260209284845281868a205416610345579088915b60028311156102d0575b5050508487525052832080546001600160a01b031916831790557f5f7165288eef601591cf549e15ff19ef9060b7f71b9c115be946fa1fe7ebf68a8380a380f35b8116895284845280868a2054169182156103405787831461030f5760001981146102fd5760010191610285565b634e487b7160e01b8a5260118652838afd5b505050600c91606494519362461bcd60e51b85528401528201526b21b4b931bab630b9103932b360a11b6044820152fd5b61028f565b5050601491606494519362461bcd60e51b85528401528201527320b63932b0b23c903430b9903932b332b93932b960611b6044820152fd5b845162461bcd60e51b81526020818601526008818401526729b2b633103932b360c11b6044820152606490fd5b845162461bcd60e51b81526020818601526010818401526f24b73b30b634b2103932b332b93932b960811b6044820152606490fd5b845162461bcd60e51b8152602081860152600c818401526b24b73b30b634b2103ab9b2b960a11b6044820152606490fd5b8780fd5b83903461017f57602036600319011261017f5761042f610bb3565b610437610c31565b600354906001600160a01b03908183166104bf571691821561048a57506001600160a01b03191681176003557f1f93eb4af9964a0fbf3c59e4668618db26f4f90ff336d62addeb24270471eb708280a280f35b606490602086519162461bcd60e51b8352820152600f60248201526e496e76616c6964206164647265737360881b6044820152fd5b855162461bcd60e51b8152602081860152600b60248201526a105b1c9958591e481cd95d60aa1b6044820152606490fd5b83823461017f578160031936011261017f57905490516001600160a01b039091168152602090f35b915034610210578260031936011261021057600154916001600160a01b039133838516036105835750506001600160a01b031991821660015582543392811683178455167f8be0079c531659141344cd1fd0a4f28419497f9722a3daafe3b4186f6b6457e08380a380f35b60249250519063118cdaa760e01b82523390820152fd5b909150346102105781600319360112610210576105b5610bb3565b9060248035926105c3610c5d565b6003546001600160a01b039182916105de9083163314610bce565b169485156108b857841561088c5780516370a0823160e01b81523085820152602090818186817f000000000000000000000000000000000000000000000000000000000000000088165afa908115610882579087918a91610825575b50106107e45786885284815282828920541690811595866000146107d557848a5b1694851580156107c3578b905b8c991561078e575b15610745575b1695866106c3575b50508251968752860152840152606083015260808201527f88ee9a78dbfc2d498f82a4c82bf638dc3468520503ad1de8b6581af9d74a4e359060a090a2600160025580f35b60c889989398029189830460c803610734575050916107267f88ee9a78dbfc2d498f82a4c82bf638dc3468520503ad1de8b6581af9d74a4e35989694926103e860a09997950490868d5260058852848d2061071f838254610c0e565b9055610c0e565b96819395929496985061067e565b634e487b7160e01b8c52601190528afd5b9761012c8a0261012b198b82040161077c5761077691876103e88f9304928a8152600588522061071f838254610c0e565b97610676565b634e487b7160e01b8d5260118452888dfd5b98506101f48a026101f3198b82040161077c576103e89004858d5260058552868d206107bb828254610c0e565b905598610670565b868c5282845281868d20541690610668565b828a528480858c20541661065b565b601b848692606494519362461bcd60e51b85528401528201527f496e73756666696369656e7420726566657272616c2066756e647300000000006044820152fd5b915050813d831161087b575b601f8101601f1916820167ffffffffffffffff8111838210176108695783918391865281010312610865578690513861063a565b8880fd5b634e487b7160e01b8b5260418852868bfd5b503d610831565b83513d8b823e3d90fd5b5162461bcd60e51b81526020818501526008818401526704275646765743d360c41b6044820152606490fd5b5162461bcd60e51b8152602081850152600d818401526c24b73b30b634b210313abcb2b960991b6044820152606490fd5b8334610138578060031936011261013857610902610c31565b600180546001600160a01b03199081169091558154908116825581906001600160a01b03167f8be0079c531659141344cd1fd0a4f28419497f9722a3daafe3b4186f6b6457e08280a380f35b83823461017f57602036600319011261017f576060926001600160a01b039081610976610bb3565b168452806020528183852054169384156000146109c057828481835b1693846109af57505050905b835194855260208501521690820152f35b84845260205290912054169061099e565b848152828481808285205416610992565b9150346102105782600319360112610210576109eb610c5d565b3383526020906005825280842054928315610b0c573385526005835284828120557f00000000000000000000000000000000000000000000000000000000000000009082518481019063a9059cbb60e01b8252336024820152866044820152604481526080810181811067ffffffffffffffff821117610af957855251859188919082865af115610aef5785513d610ae657506001600160a01b0382163b155b610ac3575050907fd8138f8a3f377c5259ca548e70e4c2de94f129f5a11036a15b69513cba2b426a91519283523392a2600160025580f35b9151635274afe760e01b81526001600160a01b0390911691810191909152602490fd5b60011415610a8b565b82513d87823e3d90fd5b634e487b7160e01b895260418452602489fd5b82606492519162461bcd60e51b8352820152601060248201526f4e6f7468696e6720746f20636c61696d60801b6044820152fd5b83823461017f57602036600319011261017f5760209181906001600160a01b03610b68610bb3565b1681526005845220549051908152f35b92509034610baf576020366003190112610baf576020936001600160a01b039283610ba1610bb3565b168252855220541615158152f35b8380fd5b600435906001600160a01b0382168203610bc957565b600080fd5b15610bd557565b60405162461bcd60e51b815260206004820152601160248201527027b7363c902732bc3ab6a6b0b730b3b2b960791b6044820152606490fd5b91908201809211610c1b57565b634e487b7160e01b600052601160045260246000fd5b6000546001600160a01b03163303610c4557565b60405163118cdaa760e01b8152336004820152602490fd5b6002805414610c6c5760028055565b604051633ee5aeb560e01b8152600490fdfea2646970667358221220dabd0f2cfaa14b6ee4cfe6df4c63abcc226b1c87a5afdc0fd4e29f91c129a63364736f6c63430008140033","linkReferences":{}},"methodIdentifiers":{"acceptOwnership()":"79ba5097","claim()":"4e71d92d","claimable(address)":"402914f5","distributeCommissions(address,uint256)":"75003aa1","getReferralChain(address)":"6667864d","hasReferrer(address)":"18452cd8","nexumManager()":"d66ee30d","owner()":"8da5cb5b","pendingOwner()":"e30c3978","referrerOf(address)":"d21cacdf","renounceOwnership()":"715018a6","setNexumManager(address)":"925d7c44","setReferrer(address,address)":"bbddaca3","stablecoin()":"e9cbd822","transferOwnership(address)":"f2fde38b"},"id":8}