{"abi":[{"type":"constructor","inputs":[{"name":"_stablecoin","type":"address","internalType":"address"},{"name":"_nxlToken","type":"address","internalType":"address"}],"stateMutability":"nonpayable"},{"type":"function","name":"acceptOwnership","inputs":[],"outputs":[],"stateMutability":"nonpayable"},{"type":"function","name":"getBalance","inputs":[],"outputs":[{"name":"","type":"uint256","internalType":"uint256"}],"stateMutability":"view"},{"type":"function","name":"nxlToken","inputs":[],"outputs":[{"name":"","type":"address","internalType":"contract IERC20"}],"stateMutability":"view"},{"type":"function","name":"owner","inputs":[],"outputs":[{"name":"","type":"address","internalType":"address"}],"stateMutability":"view"},{"type":"function","name":"pendingOwner","inputs":[],"outputs":[{"name":"","type":"address","internalType":"address"}],"stateMutability":"view"},{"type":"function","name":"receiveFunds","inputs":[],"outputs":[],"stateMutability":"nonpayable"},{"type":"function","name":"renounceOwnership","inputs":[],"outputs":[],"stateMutability":"nonpayable"},{"type":"function","name":"spend","inputs":[{"name":"to","type":"address","internalType":"address"},{"name":"amount","type":"uint256","internalType":"uint256"}],"outputs":[],"stateMutability":"nonpayable"},{"type":"function","name":"stablecoin","inputs":[],"outputs":[{"name":"","type":"address","internalType":"contract IERC20"}],"stateMutability":"view"},{"type":"function","name":"totalReceived","inputs":[],"outputs":[{"name":"","type":"uint256","internalType":"uint256"}],"stateMutability":"view"},{"type":"function","name":"totalSpent","inputs":[],"outputs":[{"name":"","type":"uint256","internalType":"uint256"}],"stateMutability":"view"},{"type":"function","name":"transferOwnership","inputs":[{"name":"newOwner","type":"address","internalType":"address"}],"outputs":[],"stateMutability":"nonpayable"},{"type":"event","name":"FundsReceived","inputs":[{"name":"from","type":"address","indexed":true,"internalType":"address"},{"name":"amount","type":"uint256","indexed":false,"internalType":"uint256"}],"anonymous":false},{"type":"event","name":"FundsSpent","inputs":[{"name":"to","type":"address","indexed":true,"internalType":"address"},{"name":"amount","type":"uint256","indexed":false,"internalType":"uint256"}],"anonymous":false},{"type":"event","name":"OwnershipTransferStarted","inputs":[{"name":"previousOwner","type":"address","indexed":true,"internalType":"address"},{"name":"newOwner","type":"address","indexed":true,"internalType":"address"}],"anonymous":false},{"type":"event","name":"OwnershipTransferred","inputs":[{"name":"previousOwner","type":"address","indexed":true,"internalType":"address"},{"name":"newOwner","type":"address","indexed":true,"internalType":"address"}],"anonymous":false},{"type":"error","name":"OwnableInvalidOwner","inputs":[{"name":"owner","type":"address","internalType":"address"}]},{"type":"error","name":"OwnableUnauthorizedAccount","inputs":[{"name":"account","type":"address","internalType":"address"}]},{"type":"error","name":"ReentrancyGuardReentrantCall","inputs":[]},{"type":"error","name":"SafeERC20FailedOperation","inputs":[{"name":"token","type":"address","internalType":"address"}]}],"bytecode":{"object":"0x60c03461018057610a2690601f38839003908101601f19168201906001600160401b03821183831017610185578083916040958694855283398101031261018057610055602061004e8361019b565b920161019b565b9033156101685760018060a01b031991826001541660015560005492339084161760005583519260018060a01b03928391823391167f8be0079c531659141344cd1fd0a4f28419497f9722a3daafe3b4186f6b6457e0600080a36001600255169283156101315750169081156100ff5760805260a0525161087690816101b082396080518181816101490152818161020401528181610592015261064a015260a0518161044e0152f35b825162461bcd60e51b815260206004820152600b60248201526a125b9d985b1a590813961360aa1b6044820152606490fd5b62461bcd60e51b815260206004820152601260248201527124b73b30b634b21039ba30b13632b1b7b4b760711b6044820152606490fd5b8251631e4fbdf760e01b815260006004820152602490fd5b600080fd5b634e487b7160e01b600052604160045260246000fd5b51906001600160a01b03821682036101805756fe6040608081526004908136101561001557600080fd5b600091823560e01c80625c33e11461061557806312065fe014610564578063715018a6146104ff57806379ba50971461047d57806389ef723b146104395780638da5cb5b14610411578063a3c2c462146103f2578063af7d6ca3146101a5578063e30c39781461017c578063e9cbd82214610134578063f2fde38b146100c45763fb346eab146100a457600080fd5b346100c057826003193601126100c05760209250549051908152f35b8280fd5b8334610131576020366003190112610131576100de610770565b6100e66107f3565b600180546001600160a01b0319166001600160a01b0392831690811790915582549091167f38d16b8cac22d99fc7c124b9cd0de2d3fa1faef420bfe791d8c362d765e227008380a380f35b80fd5b505034610178578160031936011261017857517f00000000000000000000000000000000000000000000000000000000000000006001600160a01b03168152602090f35b5080fd5b50503461017857816003193601126101785760015490516001600160a01b039091168152602090f35b508290346101785782600319360112610178576101c0610770565b6024938435906101ce61081f565b6101d66107f3565b6001600160a01b039283169384156103c457821561038e5781516370a0823160e01b815230828201526020947f00000000000000000000000000000000000000000000000000000000000000009081169186818b81865afa908115610384579086918a9161034f575b50106103165787906102528685546107e6565b845584518781019063a9059cbb60e01b8252898c820152876044820152604481526080810181811067ffffffffffffffff8211176103045793809392918a95895251925af1156102fa5786513d6102f15750803b155b6102de575050519081527f2feff302d1155e92d28ec9fe2f00d6d52404ba591f0b1c1d95aec10c84e04aa89190a2600160025580f35b87925191635274afe760e01b8352820152fd5b600114156102a8565b82513d88823e3d90fd5b634e487b7160e01b8552604187528c85fd5b835162461bcd60e51b81528084018790526014818b015273496e73756666696369656e742062616c616e636560601b6044820152606490fd5b809250888092503d831161037d575b610368818361078b565b81010312610379578590518b61023f565b8880fd5b503d61035e565b85513d8b823e3d90fd5b6012876020606494519362461bcd60e51b8552840152820152710416d6f756e74206d757374206265203e20360741b6044820152fd5b600a876020606494519362461bcd60e51b855284015282015269496e76616c696420746f60b01b6044820152fd5b5050346101785781600319360112610178576020906003549051908152f35b505034610178578160031936011261017857905490516001600160a01b039091168152602090f35b505034610178578160031936011261017857517f00000000000000000000000000000000000000000000000000000000000000006001600160a01b03168152602090f35b5090346100c057826003193601126100c057600154916001600160a01b039133838516036104e85750506001600160a01b031991821660015582543392811683178455167f8be0079c531659141344cd1fd0a4f28419497f9722a3daafe3b4186f6b6457e08380a380f35b60249250519063118cdaa760e01b82523390820152fd5b83346101315780600319360112610131576105186107f3565b600180546001600160a01b03199081169091558154908116825581906001600160a01b03167f8be0079c531659141344cd1fd0a4f28419497f9722a3daafe3b4186f6b6457e08280a380f35b5090346100c057826003193601126100c05780516370a0823160e01b815230928101929092526020826024817f00000000000000000000000000000000000000000000000000000000000000006001600160a01b03165afa91821561060b5783926105d4575b6020838351908152f35b9091506020813d8211610603575b816105ef6020938361078b565b810103126100c057602092505190386105ca565b3d91506105e2565b81513d85823e3d90fd5b50346100c057826003193601126100c05761062e61081f565b81516370a0823160e01b815230828201529160209182846024817f00000000000000000000000000000000000000000000000000000000000000006001600160a01b03165afa938415610766578594610733575b50600354936106928254866107c3565b91600183018084116107205782106106ee57506106d57f8e47b87b0ef542cdfa1659c551d88bad38aa7f452d2bbb349ab7530dfec8be8f9493926106dc926107c3565b80956107e6565b600355519283523392a2600160025580f35b835162461bcd60e51b8152908101859052600c60248201526b4e6f206e65772066756e647360a01b6044820152606490fd5b634e487b7160e01b885260118252602488fd5b9093508281813d831161075f575b61074b818361078b565b8101031261075b57519238610682565b8480fd5b503d610741565b82513d87823e3d90fd5b600435906001600160a01b038216820361078657565b600080fd5b90601f8019910116810190811067ffffffffffffffff8211176107ad57604052565b634e487b7160e01b600052604160045260246000fd5b919082039182116107d057565b634e487b7160e01b600052601160045260246000fd5b919082018092116107d057565b6000546001600160a01b0316330361080757565b60405163118cdaa760e01b8152336004820152602490fd5b600280541461082e5760028055565b604051633ee5aeb560e01b8152600490fdfea2646970667358221220e1253e25832c10764cb7313c61bb99500a91e873e25bfba63a22a6bc84cbd3e664736f6c63430008140033","linkReferences":{}},"methodIdentifiers":{"acceptOwnership()":"79ba5097","getBalance()":"12065fe0","nxlToken()":"89ef723b","owner()":"8da5cb5b","pendingOwner()":"e30c3978","receiveFunds()":"005c33e1","renounceOwnership()":"715018a6","spend(address,uint256)":"af7d6ca3","stablecoin()":"e9cbd822","totalReceived()":"a3c2c462","totalSpent()":"fb346eab","transferOwnership(address)":"f2fde38b"},"id":2}