{"abi":[{"type":"constructor","inputs":[{"name":"baseFee","type":"uint96","internalType":"uint96"},{"name":"gasPriceLink","type":"uint96","internalType":"uint96"}],"stateMutability":"nonpayable"},{"type":"function","name":"BASE_FEE","inputs":[],"outputs":[{"name":"","type":"uint96","internalType":"uint96"}],"stateMutability":"view"},{"type":"function","name":"GAS_PRICE_LINK","inputs":[],"outputs":[{"name":"","type":"uint96","internalType":"uint96"}],"stateMutability":"view"},{"type":"function","name":"addConsumer","inputs":[{"name":"subId","type":"uint64","internalType":"uint64"},{"name":"consumer","type":"address","internalType":"address"}],"outputs":[],"stateMutability":"nonpayable"},{"type":"function","name":"createSubscription","inputs":[],"outputs":[{"name":"subId","type":"uint64","internalType":"uint64"}],"stateMutability":"nonpayable"},{"type":"function","name":"fulfillRandomWords","inputs":[{"name":"requestId","type":"uint256","internalType":"uint256"},{"name":"consumer","type":"address","internalType":"address"}],"outputs":[],"stateMutability":"nonpayable"},{"type":"function","name":"fundSubscription","inputs":[{"name":"subId","type":"uint64","internalType":"uint64"},{"name":"amount","type":"uint96","internalType":"uint96"}],"outputs":[],"stateMutability":"nonpayable"},{"type":"function","name":"requestRandomWords","inputs":[{"name":"keyHash","type":"bytes32","internalType":"bytes32"},{"name":"subId","type":"uint64","internalType":"uint64"},{"name":"minimumRequestConfirmations","type":"uint16","internalType":"uint16"},{"name":"callbackGasLimit","type":"uint32","internalType":"uint32"},{"name":"numWords","type":"uint32","internalType":"uint32"}],"outputs":[{"name":"requestId","type":"uint256","internalType":"uint256"}],"stateMutability":"nonpayable"},{"type":"event","name":"ConsumerAdded","inputs":[{"name":"subId","type":"uint64","indexed":true,"internalType":"uint64"},{"name":"consumer","type":"address","indexed":false,"internalType":"address"}],"anonymous":false},{"type":"event","name":"RandomWordsFulfilled","inputs":[{"name":"requestId","type":"uint256","indexed":true,"internalType":"uint256"},{"name":"outputSeed","type":"uint256","indexed":false,"internalType":"uint256"},{"name":"payment","type":"uint96","indexed":false,"internalType":"uint96"},{"name":"success","type":"bool","indexed":false,"internalType":"bool"}],"anonymous":false},{"type":"event","name":"RandomWordsRequested","inputs":[{"name":"keyHash","type":"bytes32","indexed":true,"internalType":"bytes32"},{"name":"requestId","type":"uint256","indexed":false,"internalType":"uint256"},{"name":"preSeed","type":"uint256","indexed":false,"internalType":"uint256"},{"name":"subId","type":"uint64","indexed":true,"internalType":"uint64"},{"name":"minimumRequestConfirmations","type":"uint16","indexed":false,"internalType":"uint16"},{"name":"callbackGasLimit","type":"uint32","indexed":false,"internalType":"uint32"},{"name":"numWords","type":"uint32","indexed":false,"internalType":"uint32"},{"name":"sender","type":"address","indexed":true,"internalType":"address"}],"anonymous":false},{"type":"event","name":"SubscriptionCreated","inputs":[{"name":"subId","type":"uint64","indexed":true,"internalType":"uint64"},{"name":"owner","type":"address","indexed":false,"internalType":"address"}],"anonymous":false},{"type":"event","name":"SubscriptionFunded","inputs":[{"name":"subId","type":"uint64","indexed":true,"internalType":"uint64"},{"name":"oldBalance","type":"uint256","indexed":false,"internalType":"uint256"},{"name":"newBalance","type":"uint256","indexed":false,"internalType":"uint256"}],"anonymous":false}],"bytecode":{"object":"0x60c03461009357601f6107fc38819003918201601f19168301916001600160401b0383118484101761009857808492604094855283398101031261009357610052602061004b836100ae565b92016100ae565b6001600081905580546001600160401b0319168117905560809190915260a05260405161073990816100c382396080518161065b015260a051816101500152f35b600080fd5b634e487b7160e01b600052604160045260246000fd5b51906001600160601b03821682036100935756fe60806040908082526004918236101561001757600080fd5b600091823560e01c9081633d18651e1461063c575080635d3b1d30146104f65780637341c10c14610421578063808974ff1461027f578063a21a23e414610174578063a410347f146101315763afc69b531461007257600080fd5b3461012d578060031936011261012d5761008a61067f565b906024356001600160601b03928382168092036101295767ffffffffffffffff169283855260026020528285208054828116938401838111610116577fd39ec07f4e209f627a4c427971473820dc129761ba28de8906bd56f57101d4f8969798508316906001600160601b0319161790558486526002602052828620541682519182526020820152a280f35b634e487b7160e01b885260118952602488fd5b8480fd5b5080fd5b503461012d578160031936011261012d57602090516001600160601b037f0000000000000000000000000000000000000000000000000000000000000000168152f35b503461012d578160031936011261012d576001549167ffffffffffffffff80841693816101a0866106b1565b169067ffffffffffffffff19161760015582519460608601908682108383111761026a5750835281855260208086018381523385880190815286855260028352938590209651875491516001600160a01b03199092166001600160601b039190911617921660601b67ffffffffffffffff60601b16919091178555936001019060018060a01b039051166001600160601b0360a01b825416179055817f464722b4166576d3dcbba877b999bc35cf911f4eaf434b7eba68fa113951d0bf848351338152a251908152f35b604190634e487b7160e01b6000525260246000fd5b50823461041d578160031936011261041d5780359161029c61069b565b9080518181019367ffffffffffffffff948281108682111761040a57835260019384835260209586840191873684378551888101908a8252428882015287815260608101818110858211176103f75788525190206102f9866106e0565b526001600160a01b0316803b156103f3579189908651938491631fe543e360e01b8352604483018c8885015289602485015288518091526064840191908c8c87915b8383106103d25750505050508383809203925af180156103c85761039e575b505050917f7dffc5ae5ee4e2e4df1651cf6ad329a73cebdb728f37ea0187b9b17e036756e493918661038d6060956106e0565b51938251948552840152820152a280f35b81989298116103b55783529550818161038d61035a565b634e487b7160e01b825260418852602482fd5b85513d8b823e3d90fd5b92959750929550928190865181520194019101908d94928794928c8e61033b565b8980fd5b634e487b7160e01b8d526041875260248dfd5b634e487b7160e01b885260418252602488fd5b8280fd5b5082903461041d578060031936011261041d5761043c61067f565b9067ffffffffffffffff61044e61069b565b9216928385526003602052818520805491680100000000000000008310156104e357600183018083558310156104d057508552602080862090910180546001600160a01b0319166001600160a01b03909416938417905590519182527f752ead9f4536ec1319ee3a5a604e1d65eded22e0924251552ba14ae4faa1bbc391a280f35b634e487b7160e01b875260329052602486fd5b634e487b7160e01b875260419052602486fd5b503461012d5760a036600319011261012d576024359267ffffffffffffffff93848116809103610638576044359361ffff85168095036106355760643563ffffffff9081811680910361041d5760843591821680920361041d578254966000198814610622576105dc60209960018a018655898652878b528886208767ffffffffffffffff1982541617905560058b52888620336001600160601b0360a01b82541617905586865260028b526105b489872091825460601c166106b1565b815467ffffffffffffffff60601b191660609190911b67ffffffffffffffff60601b16179055565b8651938885528985015286840152606083015260808201527f63373d1c4696214b898952999c9aaec57dac1ee2723cec59bea6888f489a977260a033943592a451908152f35b634e487b7160e01b845260118652602484fd5b80fd5b8380fd5b83903461012d578160031936011261012d576020906001600160601b037f0000000000000000000000000000000000000000000000000000000000000000168152f35b6004359067ffffffffffffffff8216820361069657565b600080fd5b602435906001600160a01b038216820361069657565b67ffffffffffffffff8091169081146106ca5760010190565b634e487b7160e01b600052601160045260246000fd5b8051156106ed5760200190565b634e487b7160e01b600052603260045260246000fdfea2646970667358221220a0363653a02817df2522b343772d84889f1ce8f09783de059e1ae7125106700564736f6c63430008140033","linkReferences":{}},"methodIdentifiers":{"BASE_FEE()":"3d18651e","GAS_PRICE_LINK()":"a410347f","addConsumer(uint64,address)":"7341c10c","createSubscription()":"a21a23e4","fulfillRandomWords(uint256,address)":"808974ff","fundSubscription(uint64,uint96)":"afc69b53","requestRandomWords(bytes32,uint64,uint16,uint32,uint32)":"5d3b1d30"},"id":22}