{
  "_format": "hh-sol-artifact-1",
  "contractName": "NexumManager",
  "sourceName": "contracts/NexumManager.sol",
  "abi": [
    {
      "inputs": [
        {
          "internalType": "address",
          "name": "_vrfCoordinator",
          "type": "address"
        },
        {
          "internalType": "uint64",
          "name": "_subscriptionId",
          "type": "uint64"
        },
        {
          "internalType": "bytes32",
          "name": "_keyHash",
          "type": "bytes32"
        },
        {
          "internalType": "address",
          "name": "_stablecoin",
          "type": "address"
        },
        {
          "internalType": "address",
          "name": "_nxlToken",
          "type": "address"
        },
        {
          "internalType": "address",
          "name": "_founder",
          "type": "address"
        },
        {
          "internalType": "address",
          "name": "_partner",
          "type": "address"
        }
      ],
      "stateMutability": "nonpayable",
      "type": "constructor"
    },
    {
      "inputs": [
        {
          "internalType": "address",
          "name": "have",
          "type": "address"
        },
        {
          "internalType": "address",
          "name": "want",
          "type": "address"
        }
      ],
      "name": "OnlyCoordinatorCanFulfill",
      "type": "error"
    },
    {
      "inputs": [
        {
          "internalType": "address",
          "name": "owner",
          "type": "address"
        }
      ],
      "name": "OwnableInvalidOwner",
      "type": "error"
    },
    {
      "inputs": [
        {
          "internalType": "address",
          "name": "account",
          "type": "address"
        }
      ],
      "name": "OwnableUnauthorizedAccount",
      "type": "error"
    },
    {
      "inputs": [],
      "name": "ReentrancyGuardReentrantCall",
      "type": "error"
    },
    {
      "anonymous": false,
      "inputs": [
        {
          "indexed": true,
          "internalType": "address",
          "name": "to",
          "type": "address"
        },
        {
          "indexed": false,
          "internalType": "uint256",
          "name": "amount",
          "type": "uint256"
        }
      ],
      "name": "AuditFundsTransferred",
      "type": "event"
    },
    {
      "anonymous": false,
      "inputs": [
        {
          "indexed": true,
          "internalType": "uint256",
          "name": "productId",
          "type": "uint256"
        }
      ],
      "name": "NXLRewardsExhausted",
      "type": "event"
    },
    {
      "anonymous": false,
      "inputs": [
        {
          "indexed": true,
          "internalType": "uint256",
          "name": "productId",
          "type": "uint256"
        },
        {
          "indexed": true,
          "internalType": "uint256",
          "name": "roundId",
          "type": "uint256"
        },
        {
          "indexed": false,
          "internalType": "uint256",
          "name": "timestamp",
          "type": "uint256"
        }
      ],
      "name": "NewRoundStarted",
      "type": "event"
    },
    {
      "anonymous": false,
      "inputs": [
        {
          "indexed": true,
          "internalType": "address",
          "name": "previousOwner",
          "type": "address"
        },
        {
          "indexed": true,
          "internalType": "address",
          "name": "newOwner",
          "type": "address"
        }
      ],
      "name": "OwnershipTransferred",
      "type": "event"
    },
    {
      "anonymous": false,
      "inputs": [
        {
          "indexed": true,
          "internalType": "uint256",
          "name": "productId",
          "type": "uint256"
        }
      ],
      "name": "ProductReactivated",
      "type": "event"
    },
    {
      "anonymous": false,
      "inputs": [
        {
          "indexed": true,
          "internalType": "uint256",
          "name": "productId",
          "type": "uint256"
        },
        {
          "indexed": true,
          "internalType": "uint256",
          "name": "roundId",
          "type": "uint256"
        },
        {
          "indexed": true,
          "internalType": "address",
          "name": "winner",
          "type": "address"
        },
        {
          "indexed": false,
          "internalType": "uint256",
          "name": "prize",
          "type": "uint256"
        },
        {
          "indexed": false,
          "internalType": "uint256",
          "name": "winningTicket",
          "type": "uint256"
        }
      ],
      "name": "RoundCompleted",
      "type": "event"
    },
    {
      "anonymous": false,
      "inputs": [
        {
          "indexed": true,
          "internalType": "uint256",
          "name": "productId",
          "type": "uint256"
        },
        {
          "indexed": true,
          "internalType": "uint256",
          "name": "roundId",
          "type": "uint256"
        },
        {
          "indexed": true,
          "internalType": "address",
          "name": "buyer",
          "type": "address"
        },
        {
          "indexed": false,
          "internalType": "uint256",
          "name": "quantity",
          "type": "uint256"
        },
        {
          "indexed": false,
          "internalType": "uint256[]",
          "name": "ticketNumbers",
          "type": "uint256[]"
        },
        {
          "indexed": false,
          "internalType": "uint256",
          "name": "amountPaid",
          "type": "uint256"
        }
      ],
      "name": "TicketsPurchased",
      "type": "event"
    },
    {
      "anonymous": false,
      "inputs": [
        {
          "indexed": true,
          "internalType": "uint256",
          "name": "requestId",
          "type": "uint256"
        },
        {
          "indexed": true,
          "internalType": "uint256",
          "name": "productId",
          "type": "uint256"
        },
        {
          "indexed": true,
          "internalType": "uint256",
          "name": "roundId",
          "type": "uint256"
        }
      ],
      "name": "VRFRequested",
      "type": "event"
    },
    {
      "inputs": [],
      "name": "AMBASSADORS_PCT",
      "outputs": [
        {
          "internalType": "uint256",
          "name": "",
          "type": "uint256"
        }
      ],
      "stateMutability": "view",
      "type": "function"
    },
    {
      "inputs": [],
      "name": "AUDIT_SHARE",
      "outputs": [
        {
          "internalType": "uint256",
          "name": "",
          "type": "uint256"
        }
      ],
      "stateMutability": "view",
      "type": "function"
    },
    {
      "inputs": [],
      "name": "FEES_SHARE",
      "outputs": [
        {
          "internalType": "uint256",
          "name": "",
          "type": "uint256"
        }
      ],
      "stateMutability": "view",
      "type": "function"
    },
    {
      "inputs": [],
      "name": "FOUNDER_SHARE",
      "outputs": [
        {
          "internalType": "uint256",
          "name": "",
          "type": "uint256"
        }
      ],
      "stateMutability": "view",
      "type": "function"
    },
    {
      "inputs": [],
      "name": "INSTANT_REWARDS_PCT",
      "outputs": [
        {
          "internalType": "uint256",
          "name": "",
          "type": "uint256"
        }
      ],
      "stateMutability": "view",
      "type": "function"
    },
    {
      "inputs": [],
      "name": "MAIN_PRIZE_PCT",
      "outputs": [
        {
          "internalType": "uint256",
          "name": "",
          "type": "uint256"
        }
      ],
      "stateMutability": "view",
      "type": "function"
    },
    {
      "inputs": [],
      "name": "MULTILEVEL_PCT",
      "outputs": [
        {
          "internalType": "uint256",
          "name": "",
          "type": "uint256"
        }
      ],
      "stateMutability": "view",
      "type": "function"
    },
    {
      "inputs": [],
      "name": "NUM_WORDS",
      "outputs": [
        {
          "internalType": "uint32",
          "name": "",
          "type": "uint32"
        }
      ],
      "stateMutability": "view",
      "type": "function"
    },
    {
      "inputs": [],
      "name": "OPERATIONS_PCT",
      "outputs": [
        {
          "internalType": "uint256",
          "name": "",
          "type": "uint256"
        }
      ],
      "stateMutability": "view",
      "type": "function"
    },
    {
      "inputs": [],
      "name": "PARTNER_SHARE",
      "outputs": [
        {
          "internalType": "uint256",
          "name": "",
          "type": "uint256"
        }
      ],
      "stateMutability": "view",
      "type": "function"
    },
    {
      "inputs": [],
      "name": "PRODUCT_COUNT",
      "outputs": [
        {
          "internalType": "uint256",
          "name": "",
          "type": "uint256"
        }
      ],
      "stateMutability": "view",
      "type": "function"
    },
    {
      "inputs": [],
      "name": "REQUEST_CONFIRMATIONS",
      "outputs": [
        {
          "internalType": "uint16",
          "name": "",
          "type": "uint16"
        }
      ],
      "stateMutability": "view",
      "type": "function"
    },
    {
      "inputs": [],
      "name": "TREASURY_BTC_PCT",
      "outputs": [
        {
          "internalType": "uint256",
          "name": "",
          "type": "uint256"
        }
      ],
      "stateMutability": "view",
      "type": "function"
    },
    {
      "inputs": [],
      "name": "ambassadorRegistry",
      "outputs": [
        {
          "internalType": "address",
          "name": "",
          "type": "address"
        }
      ],
      "stateMutability": "view",
      "type": "function"
    },
    {
      "inputs": [],
      "name": "auditFunds",
      "outputs": [
        {
          "internalType": "address",
          "name": "",
          "type": "address"
        }
      ],
      "stateMutability": "view",
      "type": "function"
    },
    {
      "inputs": [
        {
          "internalType": "uint256",
          "name": "productId",
          "type": "uint256"
        },
        {
          "internalType": "uint256[]",
          "name": "ticketNumbers",
          "type": "uint256[]"
        },
        {
          "internalType": "address",
          "name": "referrer",
          "type": "address"
        }
      ],
      "name": "buySpecificTickets",
      "outputs": [],
      "stateMutability": "nonpayable",
      "type": "function"
    },
    {
      "inputs": [
        {
          "internalType": "uint256",
          "name": "productId",
          "type": "uint256"
        },
        {
          "internalType": "uint256",
          "name": "quantity",
          "type": "uint256"
        },
        {
          "internalType": "address",
          "name": "referrer",
          "type": "address"
        }
      ],
      "name": "buyTickets",
      "outputs": [],
      "stateMutability": "nonpayable",
      "type": "function"
    },
    {
      "inputs": [],
      "name": "buybackContract",
      "outputs": [
        {
          "internalType": "address",
          "name": "",
          "type": "address"
        }
      ],
      "stateMutability": "view",
      "type": "function"
    },
    {
      "inputs": [],
      "name": "callbackGasLimit",
      "outputs": [
        {
          "internalType": "uint32",
          "name": "",
          "type": "uint32"
        }
      ],
      "stateMutability": "view",
      "type": "function"
    },
    {
      "inputs": [
        {
          "internalType": "uint256",
          "name": "",
          "type": "uint256"
        }
      ],
      "name": "currentRound",
      "outputs": [
        {
          "internalType": "uint256",
          "name": "",
          "type": "uint256"
        }
      ],
      "stateMutability": "view",
      "type": "function"
    },
    {
      "inputs": [],
      "name": "emergencyPause",
      "outputs": [],
      "stateMutability": "nonpayable",
      "type": "function"
    },
    {
      "inputs": [],
      "name": "emergencyUnpause",
      "outputs": [],
      "stateMutability": "nonpayable",
      "type": "function"
    },
    {
      "inputs": [],
      "name": "emergencyWithdraw",
      "outputs": [],
      "stateMutability": "nonpayable",
      "type": "function"
    },
    {
      "inputs": [],
      "name": "founder",
      "outputs": [
        {
          "internalType": "address",
          "name": "",
          "type": "address"
        }
      ],
      "stateMutability": "view",
      "type": "function"
    },
    {
      "inputs": [
        {
          "internalType": "uint256",
          "name": "productId",
          "type": "uint256"
        }
      ],
      "name": "getAvailableTickets",
      "outputs": [
        {
          "internalType": "uint256",
          "name": "",
          "type": "uint256"
        }
      ],
      "stateMutability": "view",
      "type": "function"
    },
    {
      "inputs": [
        {
          "internalType": "uint256",
          "name": "productId",
          "type": "uint256"
        }
      ],
      "name": "getProductInfo",
      "outputs": [
        {
          "internalType": "string",
          "name": "name",
          "type": "string"
        },
        {
          "internalType": "uint256",
          "name": "priceUSD",
          "type": "uint256"
        },
        {
          "internalType": "uint256",
          "name": "maxTickets",
          "type": "uint256"
        },
        {
          "internalType": "uint256",
          "name": "nxlPerTicket",
          "type": "uint256"
        },
        {
          "internalType": "uint256",
          "name": "jackpotUSD",
          "type": "uint256"
        },
        {
          "internalType": "bool",
          "name": "active",
          "type": "bool"
        }
      ],
      "stateMutability": "view",
      "type": "function"
    },
    {
      "inputs": [
        {
          "internalType": "uint256",
          "name": "productId",
          "type": "uint256"
        },
        {
          "internalType": "uint256",
          "name": "roundId",
          "type": "uint256"
        }
      ],
      "name": "getRoundInfo",
      "outputs": [
        {
          "internalType": "uint256",
          "name": "ticketsSold",
          "type": "uint256"
        },
        {
          "internalType": "uint256",
          "name": "totalCollected",
          "type": "uint256"
        },
        {
          "internalType": "address",
          "name": "winner",
          "type": "address"
        },
        {
          "internalType": "bool",
          "name": "completed",
          "type": "bool"
        },
        {
          "internalType": "bool",
          "name": "vrfRequested",
          "type": "bool"
        }
      ],
      "stateMutability": "view",
      "type": "function"
    },
    {
      "inputs": [
        {
          "internalType": "uint256",
          "name": "productId",
          "type": "uint256"
        },
        {
          "internalType": "uint256",
          "name": "roundId",
          "type": "uint256"
        },
        {
          "internalType": "address",
          "name": "user",
          "type": "address"
        }
      ],
      "name": "getUserTickets",
      "outputs": [
        {
          "internalType": "uint256[]",
          "name": "",
          "type": "uint256[]"
        }
      ],
      "stateMutability": "view",
      "type": "function"
    },
    {
      "inputs": [
        {
          "internalType": "uint256",
          "name": "productId",
          "type": "uint256"
        },
        {
          "internalType": "uint256",
          "name": "roundId",
          "type": "uint256"
        },
        {
          "internalType": "uint256",
          "name": "ticketNumber",
          "type": "uint256"
        }
      ],
      "name": "isTicketAvailable",
      "outputs": [
        {
          "internalType": "bool",
          "name": "",
          "type": "bool"
        }
      ],
      "stateMutability": "view",
      "type": "function"
    },
    {
      "inputs": [],
      "name": "keyHash",
      "outputs": [
        {
          "internalType": "bytes32",
          "name": "",
          "type": "bytes32"
        }
      ],
      "stateMutability": "view",
      "type": "function"
    },
    {
      "inputs": [],
      "name": "nxlToken",
      "outputs": [
        {
          "internalType": "contract INXLToken",
          "name": "",
          "type": "address"
        }
      ],
      "stateMutability": "view",
      "type": "function"
    },
    {
      "inputs": [],
      "name": "owner",
      "outputs": [
        {
          "internalType": "address",
          "name": "",
          "type": "address"
        }
      ],
      "stateMutability": "view",
      "type": "function"
    },
    {
      "inputs": [],
      "name": "partner",
      "outputs": [
        {
          "internalType": "address",
          "name": "",
          "type": "address"
        }
      ],
      "stateMutability": "view",
      "type": "function"
    },
    {
      "inputs": [],
      "name": "paused",
      "outputs": [
        {
          "internalType": "bool",
          "name": "",
          "type": "bool"
        }
      ],
      "stateMutability": "view",
      "type": "function"
    },
    {
      "inputs": [
        {
          "internalType": "uint256",
          "name": "",
          "type": "uint256"
        }
      ],
      "name": "products",
      "outputs": [
        {
          "internalType": "string",
          "name": "name",
          "type": "string"
        },
        {
          "internalType": "uint256",
          "name": "priceUSD",
          "type": "uint256"
        },
        {
          "internalType": "uint256",
          "name": "maxTickets",
          "type": "uint256"
        },
        {
          "internalType": "uint256",
          "name": "nxlPerTicket",
          "type": "uint256"
        },
        {
          "internalType": "uint256",
          "name": "nxlWinnerBonus",
          "type": "uint256"
        },
        {
          "internalType": "uint256",
          "name": "jackpotUSD",
          "type": "uint256"
        },
        {
          "internalType": "bool",
          "name": "active",
          "type": "bool"
        }
      ],
      "stateMutability": "view",
      "type": "function"
    },
    {
      "inputs": [
        {
          "internalType": "uint256",
          "name": "requestId",
          "type": "uint256"
        },
        {
          "internalType": "uint256[]",
          "name": "randomWords",
          "type": "uint256[]"
        }
      ],
      "name": "rawFulfillRandomWords",
      "outputs": [],
      "stateMutability": "nonpayable",
      "type": "function"
    },
    {
      "inputs": [
        {
          "internalType": "uint256",
          "name": "productId",
          "type": "uint256"
        }
      ],
      "name": "reactivateProduct",
      "outputs": [],
      "stateMutability": "nonpayable",
      "type": "function"
    },
    {
      "inputs": [],
      "name": "referralNetwork",
      "outputs": [
        {
          "internalType": "address",
          "name": "",
          "type": "address"
        }
      ],
      "stateMutability": "view",
      "type": "function"
    },
    {
      "inputs": [],
      "name": "renounceOwnership",
      "outputs": [],
      "stateMutability": "nonpayable",
      "type": "function"
    },
    {
      "inputs": [
        {
          "internalType": "uint256",
          "name": "",
          "type": "uint256"
        },
        {
          "internalType": "uint256",
          "name": "",
          "type": "uint256"
        }
      ],
      "name": "rounds",
      "outputs": [
        {
          "internalType": "uint256",
          "name": "productId",
          "type": "uint256"
        },
        {
          "internalType": "uint256",
          "name": "roundId",
          "type": "uint256"
        },
        {
          "internalType": "uint256",
          "name": "ticketsSold",
          "type": "uint256"
        },
        {
          "internalType": "uint256",
          "name": "totalCollected",
          "type": "uint256"
        },
        {
          "internalType": "address",
          "name": "winner",
          "type": "address"
        },
        {
          "internalType": "bool",
          "name": "completed",
          "type": "bool"
        },
        {
          "internalType": "bool",
          "name": "vrfRequested",
          "type": "bool"
        },
        {
          "internalType": "uint256",
          "name": "vrfRequestId",
          "type": "uint256"
        },
        {
          "internalType": "uint256",
          "name": "vrfRandomWord",
          "type": "uint256"
        }
      ],
      "stateMutability": "view",
      "type": "function"
    },
    {
      "inputs": [
        {
          "internalType": "uint32",
          "name": "_gasLimit",
          "type": "uint32"
        }
      ],
      "name": "setCallbackGasLimit",
      "outputs": [],
      "stateMutability": "nonpayable",
      "type": "function"
    },
    {
      "inputs": [
        {
          "internalType": "address",
          "name": "_treasuryBTC",
          "type": "address"
        },
        {
          "internalType": "address",
          "name": "_referralNetwork",
          "type": "address"
        },
        {
          "internalType": "address",
          "name": "_ambassadorRegistry",
          "type": "address"
        },
        {
          "internalType": "address",
          "name": "_buybackContract",
          "type": "address"
        }
      ],
      "name": "setEcosystemAddresses",
      "outputs": [],
      "stateMutability": "nonpayable",
      "type": "function"
    },
    {
      "inputs": [],
      "name": "stablecoin",
      "outputs": [
        {
          "internalType": "contract IERC20",
          "name": "",
          "type": "address"
        }
      ],
      "stateMutability": "view",
      "type": "function"
    },
    {
      "inputs": [],
      "name": "subscriptionId",
      "outputs": [
        {
          "internalType": "uint64",
          "name": "",
          "type": "uint64"
        }
      ],
      "stateMutability": "view",
      "type": "function"
    },
    {
      "inputs": [
        {
          "internalType": "uint256",
          "name": "",
          "type": "uint256"
        },
        {
          "internalType": "uint256",
          "name": "",
          "type": "uint256"
        },
        {
          "internalType": "uint256",
          "name": "",
          "type": "uint256"
        }
      ],
      "name": "ticketOwner",
      "outputs": [
        {
          "internalType": "address",
          "name": "",
          "type": "address"
        }
      ],
      "stateMutability": "view",
      "type": "function"
    },
    {
      "inputs": [
        {
          "internalType": "address",
          "name": "newOwner",
          "type": "address"
        }
      ],
      "name": "transferOwnership",
      "outputs": [],
      "stateMutability": "nonpayable",
      "type": "function"
    },
    {
      "inputs": [],
      "name": "treasuryBTC",
      "outputs": [
        {
          "internalType": "address",
          "name": "",
          "type": "address"
        }
      ],
      "stateMutability": "view",
      "type": "function"
    },
    {
      "inputs": [
        {
          "internalType": "uint256",
          "name": "",
          "type": "uint256"
        },
        {
          "internalType": "uint256",
          "name": "",
          "type": "uint256"
        },
        {
          "internalType": "address",
          "name": "",
          "type": "address"
        },
        {
          "internalType": "uint256",
          "name": "",
          "type": "uint256"
        }
      ],
      "name": "userTickets",
      "outputs": [
        {
          "internalType": "uint256",
          "name": "",
          "type": "uint256"
        }
      ],
      "stateMutability": "view",
      "type": "function"
    },
    {
      "inputs": [],
      "name": "vrfCoordinator",
      "outputs": [
        {
          "internalType": "contract VRFCoordinatorV2Interface",
          "name": "",
          "type": "address"
        }
      ],
      "stateMutability": "view",
      "type": "function"
    },
    {
      "inputs": [
        {
          "internalType": "uint256",
          "name": "",
          "type": "uint256"
        }
      ],
      "name": "vrfRequestToProduct",
      "outputs": [
        {
          "internalType": "uint256",
          "name": "",
          "type": "uint256"
        }
      ],
      "stateMutability": "view",
      "type": "function"
    },
    {
      "inputs": [
        {
          "internalType": "uint256",
          "name": "",
          "type": "uint256"
        }
      ],
      "name": "vrfRequestToRound",
      "outputs": [
        {
          "internalType": "uint256",
          "name": "",
          "type": "uint256"
        }
      ],
      "stateMutability": "view",
      "type": "function"
    }
  ],
  "bytecode": "0x6101803462000ffe57601f62003f4638819003918201601f19168301916001600160401b0383118484101762000acd5780849260e09460405283398101031262000ffe576200004e8162001043565b60208201516001600160401b038116810362000ffe576040830151620000776060850162001043565b620000856080860162001043565b91620000a260c06200009a60a0890162001043565b970162001043565b93856080526001600055331562000fe55760018054336001600160a01b0319821681179092556040519791906001600160a01b03167f8be0079c531659141344cd1fd0a4f28419497f9722a3daafe3b4186f6b6457e0600080a3600654966001600160a01b0385161562000fae57506001600160a01b0385161562000f75576001600160a01b0388161562000f3e576001600160a01b0386161562000f07576001600160a01b0390811661012052610140919091526101609190915290811660a05290811660c05260e0849052610100919091526001600160c01b0319909116911617610c3560a61b176006556200019962001003565b620001a362001023565b600581526408c9882a6960db1b60208201528152670de0b6b3a764000060208201526103e8604082015267016345785d8a0000606082015267016345785d8a00006080820152681b1ae4d6e2ef50000060a0820152600160c0820152600080526007602052604060002090805180519060018060401b03821162000acd578354600181811c9116801562000efc575b602082101462000aac57601f811162000eb3575b50602090601f831160011462000e3f5791806006949260c09460009262000e33575b50508160011b916000199060031b1c19161784555b6020810151600185015560408101516002850155606081015160038501556080810151600485015560a081015160058501550151151560ff80198385015416911617910155620002cc62001003565b620002d662001023565b600881526713d49251d253905360c21b60208201528152670de0b6b3a7640000602082015261271060408201526703782dace9d90000806060830152608082015269010f0cf064dd5920000060a0820152600160c0820152600160005260076020526040600020815180519060018060401b03821162000acd578254600181811c9116801562000e28575b602082101462000aac57601f811162000ddf575b50602090601f831160011462000d6b57918060c0949260069460009262000d5f575b50508160011b916000199060031b1c19161781555b6020840151600182015560408401516002820155606084015160038201556080840151600482015560a0840151600582015501910151151560ff80198354169116179055620003fa62001003565b6200040462001023565b60078152665052454d49554d60c81b602082015281526801158e460913d0000060208201526103e860408201526706f05b59d3b20000806060830152608082015269021e19e0c9bab240000060a0820152600160c0820152600260005260076020526040600020815180519060018060401b03821162000acd578254600181811c9116801562000d54575b602082101462000aac57601f811162000d0b575b50602090601f831160011462000c9757918060c0949260069460009262000c8b575b50508160011b916000199060031b1c19161781555b6020840151600182015560408401516002820155606084015160038201556080840151600482015560a0840151600582015501910151151560ff801983541691161790556200052862001003565b6200053262001023565b6005815264454c49544560d81b60208201528152678ac7230489e80000602082015261271060408201526707a1fe16027700008060608301526080820152690a968163f0a57b40000060a0820152600160c0820152600360005260076020526040600020815180519060018060401b03821162000acd578254600181811c9116801562000c80575b602082101462000aac57601f811162000c37575b50602090601f831160011462000bc357918060c0949260069460009262000bb7575b50508160011b916000199060031b1c19161781555b6020840151600182015560408401516002820155606084015160038201556080840151600482015560a0840151600582015501910151151560ff801983541691161790556200065362001003565b6200065d62001023565b600381526205649560ec1b60208201528152680ad78ebc5ac620000060208201526103e86040820152670bcbce7f1b150000806060830152608082015269152d02c7e14af680000060a0820152600160c0820152600460005260076020526040600020815180519060018060401b03821162000acd578254600181811c9116801562000bac575b602082101462000aac57601f811162000b63575b50602090601f831160011462000aef57918060c0949260069460009262000ae3575b50508160011b916000199060031b1c19161781555b6020840151600182015560408401516002820155606084015160038201556080840151600482015560a0840151600582015501910151151560ff801983541691161790556200077d62001003565b6200078762001023565b6009815268424c41434b424c4f4b60b81b60208201528152680ad78ebc5ac620000060208201526127106040820152670de0b6b3a76400006060820152670de0b6b3a7640000608082015269d3c21bcecceda100000060a0820152600160c0820152600560005260076020526040600020815180519060018060401b03821162000acd578254600181811c9116801562000ac2575b602082101462000aac57601f811162000a63575b50602090601f8311600114620009ef57918060c09492600694600092620009e3575b50508160011b916000199060031b1c19161781555b6020840151600182015560408401516002820155606084015160038201556080840151600482015560a0840151600582015501910151151560ff8019835416911617905560005b600681106200097c57604051612eed908162001059823960805181611af0015260a05181818161034a0152818161048e0152818161070301528181610ed301528181611bed015281816127c90152612d8c015260c05181818161146a01528181611dc301526126a8015260e05181818161198801528181611ccc0152818161282b015261290c015261010051818181610d430152611d330152610120518181816112e40152612ab801526101405181818161215b0152612a620152610160518181816119060152612a3c0152f35b80600052600960205260016040600020556001817fb0b0c60f0267584d50a65485b5eff6babad43c5727703515fde33bb545b191146020604051428152a36000198114620009cd57600101620008ae565b634e487b7160e01b600052601160045260246000fd5b01519050388062000852565b908360005260206000209160005b601f198516811062000a4a57509260c0949260019260069583601f1981161062000a30575b505050811b01815562000867565b015160001960f88460031b161c1916905538808062000a22565b91926020600181928685015181550194019201620009fd565b836000526020600020601f840160051c81016020851062000aa4575b601f830160051c8201811062000a9757505062000830565b6000815560010162000a7f565b508062000a7f565b634e487b7160e01b600052602260045260246000fd5b90607f16906200081c565b634e487b7160e01b600052604160045260246000fd5b0151905038806200071a565b908360005260206000209160005b601f198516811062000b4a57509260c0949260019260069583601f1981161062000b30575b505050811b0181556200072f565b015160001960f88460031b161c1916905538808062000b22565b9192602060018192868501518155019401920162000afd565b836000526020600020601f840160051c81016020851062000ba4575b601f830160051c8201811062000b97575050620006f8565b6000815560010162000b7f565b508062000b7f565b90607f1690620006e4565b015190503880620005f0565b908360005260206000209160005b601f198516811062000c1e57509260c0949260019260069583601f1981161062000c04575b505050811b01815562000605565b015160001960f88460031b161c1916905538808062000bf6565b9192602060018192868501518155019401920162000bd1565b836000526020600020601f840160051c81016020851062000c78575b601f830160051c8201811062000c6b575050620005ce565b6000815560010162000c53565b508062000c53565b90607f1690620005ba565b015190503880620004c5565b908360005260206000209160005b601f198516811062000cf257509260c0949260019260069583601f1981161062000cd8575b505050811b018155620004da565b015160001960f88460031b161c1916905538808062000cca565b9192602060018192868501518155019401920162000ca5565b836000526020600020601f840160051c81016020851062000d4c575b601f830160051c8201811062000d3f575050620004a3565b6000815560010162000d27565b508062000d27565b90607f16906200048f565b01519050388062000397565b908360005260206000209160005b601f198516811062000dc657509260c0949260019260069583601f1981161062000dac575b505050811b018155620003ac565b015160001960f88460031b161c1916905538808062000d9e565b9192602060018192868501518155019401920162000d79565b836000526020600020601f840160051c81016020851062000e20575b601f830160051c8201811062000e1357505062000375565b6000815560010162000dfb565b508062000dfb565b90607f169062000361565b01519050388062000268565b908460005260206000209160005b601f198516811062000e9a5750926006949260019260c09583601f1981161062000e80575b505050811b0184556200027d565b015160001960f88460031b161c1916905538808062000e72565b9192602060018192868501518155019401920162000e4d565b846000526020600020601f840160051c81016020851062000ef4575b601f830160051c8201811062000ee757505062000246565b6000815560010162000ecf565b508062000ecf565b90607f169062000232565b60405162461bcd60e51b815260206004820152600f60248201526e24b73b30b634b2103830b93a3732b960891b6044820152606490fd5b60405162461bcd60e51b815260206004820152600f60248201526e24b73b30b634b2103337bab73232b960891b6044820152606490fd5b60405162461bcd60e51b815260206004820152601160248201527024b73b30b634b210272c26103a37b5b2b760791b6044820152606490fd5b62461bcd60e51b815260206004820152601260248201527124b73b30b634b21039ba30b13632b1b7b4b760711b6044820152606490fd5b604051631e4fbdf760e01b815260006004820152602490fd5b600080fd5b6040519060e082016001600160401b0381118382101762000acd57604052565b60408051919082016001600160401b0381118382101762000acd57604052565b51906001600160a01b038216820362000ffe5756fe608080604052600436101561001357600080fd5b6000803560e01c91826309c1ba2e1461213d575081630cc7b2a914612117578163182be553146120ef5781631fe543e314611a6f57816324f7469714611a4957816337f69bf51461044d5781634192bf941461044d57816342b511c414611a2057816343f4dabe14611a045781634644ea4b146119dc5781634a4e3bd5146119b75781634d853ee51461197357816351858e271461194b5781635c975abb146119295781635f0b764f1461025257816361728f39146118ef57816367f082b0146118d45781636d5a730c146117a65781636e0e5332146116f0578163715018a61461169357816372cf6e341461167857816379a85e6c146115c25781637acc0b20146115385781637f44a9bb1461151c57816380b70e37146114dd5781638542b336146114b5578163882ecb101461149957816389ef723b146114555781638a9bb02a146113ec5781638da5cb5b146113c4578163976286e2146113a95781639a2b301214611313578163a3e56fa8146112cf578163a4eb718c14611224578163a792813c14610d72578163be10862b14610d2e578163be8c2feb14610d06578163cb1b510614610c96578163d4eeb14d14610c7a578163d5aa06fa14610c51578163d60f669c14610c36578163d8b945aa14610549578163db2e21bc14610452578163e5346f301461044d578163e6da9213146103b9578163e978985514610379578163e9cbd82214610335578163eb348f831461030d578163f2fde38b14610283578163f64d85af14610257575063f731d1ba1461025257600080fd5b61221c565b346102805760203660031901126102805760406020916004358152600983522054604051908152f35b80fd5b346102805760203660031901126102805761029c612238565b6102a461241b565b6001600160a01b039081169081156102f457600154826001600160601b0360a01b821617600155167f8be0079c531659141344cd1fd0a4f28419497f9722a3daafe3b4186f6b6457e0600080a380f35b604051631e4fbdf760e01b815260048101849052602490fd5b346102805780600319360112610280576002546040516001600160a01b039091168152602090f35b346102805780600319360112610280576040517f00000000000000000000000000000000000000000000000000000000000000006001600160a01b03168152602090f35b346102805760209061038a36612375565b918352600a8452604083209083528352604082209082528252604060018060a01b039120541615604051908152f35b34610280576040610120916103cd3661238f565b90825260086020528282209082526020522080549060018101549060ff60028201546003830154600484015491600660058601549501549560405197885260208801526040870152606086015260018060a01b0381166080860152818160a01c16151560a086015260a81c16151560c084015260e0830152610100820152f35b6121ff565b3461028057806003193601126102805761046a61241b565b6040516370a0823160e01b81523060048201526001600160a01b03906020816024817f000000000000000000000000000000000000000000000000000000000000000086165afa90811561053e578391610508575b5080156104d6576104d39160015416612d3c565b80f35b60405162461bcd60e51b815260206004820152600a6024820152694e6f2062616c616e636560b01b6044820152606490fd5b90506020813d8211610536575b81610522602093836121c5565b810103126105315751836104bf565b600080fd5b3d9150610515565b6040513d85823e3d90fd5b346102805760603660031901126102805760243567ffffffffffffffff80821161090b573660238301121561090b57816004013511610c3257366024826004013560051b83010111610c325761059d61224e565b906105a6612671565b6105b560ff600e541615612447565b6105c3600660043510612485565b600435835260076020526105e060ff6006604086200154166124c3565b60043583526009602052604083205491600860205260408420838552602052604084209060043585526007602052604085209260ff600660405195610624876121a9565b61062d816122a4565b875260018101546020880152600281015460408801526003810154606088015260048101546080880152600581015460a0880152015416151560c085015261067f60ff600485015460a01c1615612502565b806004013515610bed5760018160040135148015610bdf575b8015610bd1575b8015610bc3575b6106af90612540565b855b81600401358110610a3357506106cf816004013560208601516125ce565b6040516323b872dd60e01b8152336004820152306024820152604481018290529091906020816064818b6001600160a01b037f0000000000000000000000000000000000000000000000000000000000000000165af18015610a2857610742918991610a09575b509088949392916125f9565b835b8160040135811061096c5750610762816004013560028701546125c1565b6002860155600385016107768382546125c1565b9055604051600482013580825260606020830181905282018190526001600160fb1b03106109685761080c92826004013560051b60248401608084013760408201528733917f312ffeb81136178607528c21ab6d9c6bf3eab08cb7eb3ed968c8aa9d9bef9fd060043591608081876004013560051b8101030190a4610806600435916004013560608801516125ce565b33612694565b6001600160a01b038116801515908161095d575b5080610949575b610859575b5050600260409101549101511115610847575b506001815580f35b61085390600435612a00565b8161083f565b600354604051630308a59b60e31b81523360048201526001600160a01b0390911690602081602481855afa90811561093e57849161090f575b501561089f575b5061082c565b803b1561090b5760405163bbddaca360e01b81523360048201526001600160a01b0392909216602483015282908290604490829084905af18015610900576108e8575b80610899565b6108f19061217f565b6108fc5783856108e2565b8380fd5b6040513d84823e3d90fd5b8280fd5b610931915060203d602011610937575b61092981836121c5565b8101906125e1565b88610892565b503d61091f565b6040513d86823e3d90fd5b506003546001600160a01b03161515610827565b905033141587610820565b8480fd5b6109ff91929394506004358952600a60205260408920888a526020526040892061099e828560040135602487016125b1565b358a5260205260408920336001600160601b0360a01b8254161790556004358952600b60205260408920888a5260205260408920336000526020526109fa60406000206109f3838660040135602488016125b1565b3590612637565b61258c565b9087939291610744565b610a22915060203d6020116109375761092981836121c5565b89610736565b6040513d8a823e3d90fd5b610a45818360040135602485016125b1565b3560408601511115610b86576004358752600a6020526040872086885260205260408720610a7b828460040135602486016125b1565b35885260205260408720546001600160a01b0316610b4b5760018101808211610b37575b82600401358110610ab95750610ab49061258c565b6106b1565b610acb828460040135602486016125b1565b35610ade828560040135602487016125b1565b3514610af257610aed9061258c565b610a9f565b60405162461bcd60e51b815260206004820152601760248201527f4475706c6963617465207469636b6574206e756d6265720000000000000000006044820152606490fd5b634e487b7160e01b88526011600452602488fd5b60405162461bcd60e51b8152602060048201526013602482015272151a58dad95d08185b1c9958591e481cdbdb19606a1b6044820152606490fd5b60405162461bcd60e51b815260206004820152601560248201527424b73b30b634b2103a34b1b5b2ba10373ab6b132b960591b6044820152606490fd5b506004810135600a146106a6565b50600581600401351461069f565b506003816004013514610698565b60405162461bcd60e51b815260206004820152601f60248201527f4d7573742073656c656374206174206c65617374206f6e65207469636b6574006044820152606490fd5b5080fd5b34610280578060031936011261028057602060405160438152f35b346102805760203660031901126102805760406020916004358152600d83522054604051908152f35b3461028057806003193601126102805760206040516113888152f35b3461028057608036600319011261028057610caf61224e565b90606435916004358252600b602052604082206024358352602052604082209060018060a01b03166000526020526040600020908154831015610280576020610cf88484612403565b90546040519160031b1c8152f35b346102805780600319360112610280576004546040516001600160a01b039091168152602090f35b346102805780600319360112610280576040517f00000000000000000000000000000000000000000000000000000000000000006001600160a01b03168152602090f35b3461028057610d80366123a5565b90610d89612671565b610d9860ff600e541615612447565b610da460068410612485565b8284526007602052610dbf60ff6006604087200154166124c3565b60018114801561121a575b8015611210575b8015611206575b610de190612540565b828452600960205260408420549160086020526040852083865260205260408520908486526007602052604086209260405193610e1d856121a9565b610e26816122a4565b855260ff600660018301549260208801938452600281015460408901526003810154606089015260048101546080890152600581015460a0890152015416151560c0860152610e7f60ff600486015460a01c1615612502565b610e8d8260028601546125c1565b6040860151106111cc5781610ea291516125ce565b6040516323b872dd60e01b8152336004820152306024820152604481018290526020816064818c6001600160a01b037f0000000000000000000000000000000000000000000000000000000000000000165af180156111c157610f13918a916111a2575b50918994939189936125f9565b87610f1d836121e7565b610f2a60405191826121c5565b838152601f19610f39856121e7565b01366020830137865b8481106110e5575091849391610fb9957f312ffeb81136178607528c21ab6d9c6bf3eab08cb7eb3ed968c8aa9d9bef9fd06108069560038c01610f868682546125c1565b9055610fa3604051918783526060602084015260608301906123cf565b9460408201528033950390a460608801516125ce565b6001600160a01b03811680151590816110da575b50806110c6575b611004575b5050600260409101549101511115610ff4575b826001815580f35b610ffd91612a00565b8180610fec565b600354604051630308a59b60e31b81523360048201526001600160a01b0390911690602081602481855afa90811561093e5784916110a7575b501561104a575b50610fd9565b803b1561090b5760405163bbddaca360e01b81523360048201526001600160a01b0392909216602483015282908290604490829084905af1801561090057611093575b80611044565b61109c9061217f565b61096857848661108d565b6110c0915060203d6020116109375761092981836121c5565b8961103d565b506003546001600160a01b03161515610fd4565b905033141588610fcd565b9294509294955050600286015490898b52600a60205260408b20898c5260205260408b20828c5260205260408b20336001600160601b0360a01b825416179055825181101561118c576111688261117f9360208460051b870101528b8d52600b6020528c8b60408220915260205260408d20336000526020526040600020612637565b611175600288015461258c565b600288015561258c565b91878a9594928a94610f42565b634e487b7160e01b600052603260045260246000fd5b6111bb915060203d6020116109375761092981836121c5565b8a610f06565b6040513d8b823e3d90fd5b60405162461bcd60e51b81526020600482015260126024820152714e6f7420656e6f756768207469636b65747360701b6044820152606490fd5b50600a8114610dd8565b5060058114610dd1565b5060038114610dca565b346102805760203660031901126102805760043563ffffffff811680820361090b5761124e61241b565b620186a081101590816112c1575b5015611288576006805463ffffffff60a01b191660a09290921b63ffffffff60a01b1691909117905580f35b60405162461bcd60e51b8152602060048201526011602482015270125b9d985b1a590819d85cc81b1a5b5a5d607a1b6044820152606490fd5b6207a120915011158361125c565b346102805780600319360112610280576040517f00000000000000000000000000000000000000000000000000000000000000006001600160a01b03168152602090f35b3461028057611321366123a5565b90918352602091600b8352604084209084528252604083209060018060a01b03166000528152604060002091604051809384918482549182815201918452848420935b858282106113935750505061137b925003836121c5565b61138f6040519282849384528301906123cf565b0390f35b8554845260019586019588955093019201611364565b34610280578060031936011261028057602060405160068152f35b346102805780600319360112610280576001546040516001600160a01b039091168152602090f35b3461028057604060a0916113ff3661238f565b90825260086020528282209082526020522060ff60028201549160046003820154910154906040519384526020840152600180851b03811660408401528181851c161515606084015260a81c1615156080820152f35b346102805780600319360112610280576040517f00000000000000000000000000000000000000000000000000000000000000006001600160a01b03168152602090f35b3461028057806003193601126102805760206040516105dc8152f35b346102805780600319360112610280576005546040516001600160a01b039091168152602090f35b34610280576020906114ee36612375565b918352600a8452604083209083528352604082209082528252604060018060a01b0391205416604051908152f35b34610280578060031936011261028057602060405161029b8152f35b3461028057602036600319011261028057604061159d916004358152600760205220611563816122a4565b90600181015490600281015490600381015460048201549060ff60066005850154940154169360405197889760e0895260e0890190612264565b95602088015260408701526060860152608085015260a0840152151560c08301520390f35b3461028057602036600319011261028057604061165a9160043581526007602052206040516115f0816121a9565b60c06115fb836122a4565b9283835260018101549283602082015260028201548060408301526003830154918260608201526004840154608082015260ff60066005860154958660a08501520154161515948591015260405196879660c0885260c0880190612264565b94602087015260408601526060850152608084015260a08301520390f35b34610280578060031936011261028057602060405160018152f35b346102805780600319360112610280576116ab61241b565b600180546001600160a01b031981169091556000906001600160a01b03167f8be0079c531659141344cd1fd0a4f28419497f9722a3daafe3b4186f6b6457e08280a380f35b346102805760203660031901126102805760043561170c61241b565b61171860068210612485565b808252600760205260ff60066040842001541661177057808252600760205260408220600601805460ff191660011790557fdafa141a8af958d7a84cabde0f7268b548a11e070a9576865e8ac71d7107bce98280a280f35b60405162461bcd60e51b815260206004820152600e60248201526d416c72656164792061637469766560901b6044820152606490fd5b34610280576080366003190112610280576117bf612238565b6024356001600160a01b038181169291839003610531576117de61224e565b60643593828516809503610531576117f461241b565b600254938385166118a157831680151580611898575b8061188d575b80611884575b1561184b576001600160601b0360a01b8095161760025583600354161760035516816004541617600455600554161760055580f35b60405162461bcd60e51b8152602060048201526011602482015270496e76616c69642061646472657373657360781b6044820152606490fd5b50851515611816565b508383161515611810565b5081151561180a565b60405162461bcd60e51b815260206004820152600b60248201526a105b1c9958591e481cd95d60aa1b6044820152606490fd5b34610280578060031936011261028057602060405160038152f35b3461028057806003193601126102805760206040517f00000000000000000000000000000000000000000000000000000000000000008152f35b34610280578060031936011261028057602060ff600e54166040519015158152f35b3461028057806003193601126102805761196361241b565b600160ff19600e541617600e5580f35b346102805780600319360112610280576040517f00000000000000000000000000000000000000000000000000000000000000006001600160a01b03168152602090f35b346102805780600319360112610280576119cf61241b565b60ff19600e5416600e5580f35b346102805780600319360112610280576003546040516001600160a01b039091168152602090f35b3461028057806003193601126102805760206040516101f48152f35b346102805760203660031901126102805760406020916004358152600c83522054604051908152f35b34610280578060031936011261028057602063ffffffff60065460a01c16604051908152f35b34610280576040366003190112610280576024803567ffffffffffffffff811161090b573660238201121561090b57806004013590611aad826121e7565b91611abb60405193846121c5565b80835260209182840185819360051b830101913683116120eb5786859101915b8383106120db57506001600160a01b039592507f000000000000000000000000000000000000000000000000000000000000000091505084811633036120b257506004358652600c8352604086205493600d8452604087205491858852600885526040882083895285526040882093600485019081549260ff8460a01c1661206e57511561205b57908992915191826006866040611b7d60028c015485612bc2565b978d8152600a8d528181208b82528d528181208982528d5220541698015586600160a01b916affffffffffffffffffffff60a81b16171790558689526008865260408920848a528652600360408a200154801561202c576040516370a0823160e01b815230600482015287818b817f000000000000000000000000000000000000000000000000000000000000000089165afa80156120215782918c91611fec575b5010611fb1576113888102906113871981830401611f0757611c4661271080930488612d3c565b6103e8928382028281048503611ef45783611c6591049182898d612bec565b85600354168181611f3d575b505085600254169081611f2d575b50506101f481026101f31982820401611ee15785600454168381611f1a575b5050506105dc80820291820403611f07570461029b918282029180159381840414841715611ee157611cf3827f0000000000000000000000000000000000000000000000000000000000000000940484612d3c565b60858102818104608514851715611ef45782900493611d16858860065416612d3c565b604382029182046043141715611ee157611d5c939291611d5791047f0000000000000000000000000000000000000000000000000000000000000000612d3c565b612d3c565b85885260078552876040812092604051611d75816121a9565b611d7e856122a4565b8152600185015488820152600285015460408201526003850154606082015260c060ff6006600488015497886080860152600581015460a086015201541615159101527f00000000000000000000000000000000000000000000000000000000000000001692833b15610c32576040516307b22ee360e21b81526001600160a01b03871660048201526024810191909152879382908290604490829084905af1611ec4575b507e706d4e712e28530b00b7eb917a52cdd384f93a89105f8161b97223b3ae1871918360409252600787526005828b20015490825191825287820152a48184526009815260408420549260018401809411611eb257507fb0b0c60f0267584d50a65485b5eff6babad43c5727703515fde33bb545b191149082855260098152836040862055604051428152a380f35b634e487b7160e01b8552601160045284fd5b611ed09192935061217f565b611edd5784908789611e23565b8680fd5b634e487b7160e01b8c5260116004528a8cfd5b634e487b7160e01b8d5260116004528b8dfd5b634e487b7160e01b8b526011600452898bfd5b611f25920490612d3c565b8b8083611c9e565b611f3691612d3c565b8b80611c7f565b611f4691612d3c565b85600354168c813b15610280576040516375003aa160e01b81526001600160a01b038b16600482015260248101849052918290604490829084905af18015611fa657611f93575b81611c71565b611f9f909c919c61217f565b9a8c611f8d565b6040513d8f823e3d90fd5b60405162461bcd60e51b8152600481018890526014818b015273496e73756666696369656e742062616c616e636560601b6044820152606490fd5b809250898092503d831161201a575b61200581836121c5565b81010312612016578190518c611c1f565b8a80fd5b503d611ffb565b6040513d8d823e3d90fd5b60405162461bcd60e51b8152600481018890526008818b0152674e6f2066756e647360c01b6044820152606490fd5b634e487b7160e01b8a526032600452888afd5b60405162461bcd60e51b8152600481018990526017818c01527f526f756e6420616c726561647920636f6d706c657465640000000000000000006044820152606490fd5b60405163073e64fd60e21b81523360048201526001600160a01b03919091166024820152604490fd5b8235815291810191859101611adb565b8780fd5b346102805780600319360112610280576006546040516001600160a01b039091168152602090f35b34610280576020366003190112610280576020612135600435612df9565b604051908152f35b34610c325781600319360112610c325760209067ffffffffffffffff7f0000000000000000000000000000000000000000000000000000000000000000168152f35b67ffffffffffffffff811161219357604052565b634e487b7160e01b600052604160045260246000fd5b60e0810190811067ffffffffffffffff82111761219357604052565b90601f8019910116810190811067ffffffffffffffff82111761219357604052565b67ffffffffffffffff81116121935760051b60200190565b346105315760003660031901126105315760206040516103e88152f35b3461053157600036600319011261053157602060405160858152f35b600435906001600160a01b038216820361053157565b604435906001600160a01b038216820361053157565b919082519283825260005b848110612290575050826000602080949584010152601f8019910116010190565b60208183018101518483018201520161226f565b90604051906000835490600182811c9080841696871561236b575b6020948584108914612357578798848997989952908160001461233557506001146122f6575b5050506122f4925003836121c5565b565b600090815285812095935091905b81831061231d5750506122f493508201013880806122e5565b85548884018501529485019487945091830191612304565b925050506122f494925060ff191682840152151560051b8201013880806122e5565b634e487b7160e01b85526022600452602485fd5b91607f16916122bf565b606090600319011261053157600435906024359060443590565b6040906003190112610531576004359060243590565b60609060031901126105315760043590602435906044356001600160a01b03811681036105315790565b90815180825260208080930193019160005b8281106123ef575050505090565b8351855293810193928101926001016123e1565b805482101561118c5760005260206000200190600090565b6001546001600160a01b0316330361242f57565b60405163118cdaa760e01b8152336004820152602490fd5b1561244e57565b60405162461bcd60e51b815260206004820152600f60248201526e10dbdb9d1c9858dd081c185d5cd959608a1b6044820152606490fd5b1561248c57565b60405162461bcd60e51b815260206004820152600f60248201526e125b9d985b1a59081c1c9bd91d58dd608a1b6044820152606490fd5b156124ca57565b60405162461bcd60e51b815260206004820152601060248201526f50726f6475637420696e61637469766560801b6044820152606490fd5b1561250957565b60405162461bcd60e51b815260206004820152600f60248201526e149bdd5b990818dbdb5c1b195d1959608a1b6044820152606490fd5b1561254757565b60405162461bcd60e51b815260206004820152601b60248201527f496e76616c6964207175616e746974792028312f332f352f31302900000000006044820152606490fd5b600019811461259b5760010190565b634e487b7160e01b600052601160045260246000fd5b919081101561118c5760051b0190565b9190820180921161259b57565b8181029291811591840414171561259b57565b90816020910312610531575180151581036105315790565b1561260057565b60405162461bcd60e51b815260206004820152600f60248201526e151c985b9cd9995c8819985a5b1959608a1b6044820152606490fd5b8054680100000000000000008110156121935761265991600182018155612403565b819291549060031b91821b91600019901b1916179055565b600260005414612682576002600055565b604051633ee5aeb560e01b8152600490fd5b9091600083156129fa576001600160a01b037f0000000000000000000000000000000000000000000000000000000000000000811694909190853b15610c3257604080516307b22ee360e21b81526001600160a01b03969096166004870152602486019190915293908082604481838a5af191826129eb575b50906129e457828152600792602093808552600691828785200160ff1981541690558651976370a0823160e01b988981528160048201528781602481855afa9081156129da5786916129ad575b50813b156129a957858092602482938c5195869384926357d020cf60e01b845260048401525af19182612995575b505061296b575b50600190835b83811061293f575b505080612933575b80612904575b6127b8575b505050505050565b5484519586528216600486018190527f000000000000000000000000000000000000000000000000000000000000000083168487602481845afa9687156128fa5783976128cb575b508661280d575b506127b0565b85516323b872dd60e01b81526001600160a01b0392831660048201527f00000000000000000000000000000000000000000000000000000000000000009283166024820152604481018890529192859183916064918391905af190816128ae575b5061287b575b8080612807565b7fcfd2c39038d6fe3ab21a6c57369264dd95402956c840486fcb43008a322495cb93519485521692a23880808080612874565b6128c490853d87116109375761092981836121c5565b503861286e565b9096508481813d83116128f3575b6128e381836121c5565b8101031261053157519538612800565b503d6128d9565b86513d85823e3d90fd5b5082815416837f00000000000000000000000000000000000000000000000000000000000000001614156127ab565b508281541615156127a5565b80855281875260ff848987200154166129605761295b9061258c565b612795565b50505081388061279d565b7fa59be52632c4b7921b8b3fbd4b3904513421c74fe4fbdb2f7ceef33b87fe3bf68480a23861278f565b61299e9061217f565b610968578438612788565b8580fd5b90508781813d83116129d3575b6129c481836121c5565b8101031261053157513861275a565b503d6129ba565b89513d88823e3d90fd5b5050505050565b6129f49061217f565b3861270d565b50505050565b6000818152602090600882526040808220858352835280822090600482019060ff825460a81c16612b875760065481516305d3b1d360e41b81527f000000000000000000000000000000000000000000000000000000000000000060048201527f000000000000000000000000000000000000000000000000000000000000000067ffffffffffffffff1660248201526003604482015260a09190911c63ffffffff1660648201526001608482015294808660a481887f00000000000000000000000000000000000000000000000000000000000000006001600160a01b03165af1958615612b7d57908892918697612b46575b50868652600c8152818620889055600d9052842055805460ff60a81b1916600160a81b1790556005018290557f3f627f5e911e5f6d4e28a76a1af48bb55c89492569daa91a48a7330789dd1e5e9080a4565b8180979850819394503d8311612b76575b612b6181836121c5565b810103126129a9575194938791906005612af4565b503d612b57565b82513d87823e3d90fd5b5162461bcd60e51b815260048101859052601560248201527415949188185b1c9958591e481c995c5d595cdd1959605a1b6044820152606490fd5b8115612bcc570690565b634e487b7160e01b600052601260045260246000fd5b8115612bcc570490565b9092919260009180835260206008815260409283852081865282528385209560028701805480158015612d34575b612d2857600a9283821015612d1b576003612c3683809d612be2565b9a0154885190878201928352898201528760608201528560808201526080815260a0810181811067ffffffffffffffff821117612d075783612c88938e93612c82938d52519020612bc2565b92612be2565b885b8b8110612c9f57505050505050505050505050565b80612cc1612cb9612cb385612cf2956125ce565b866125c1565b865490612bc2565b898c528689528a8c20888d5289528a8c20908c528852898b20546001600160a01b03168c81612cf7575b505061258c565b612c8a565b612d0091612d3c565b388c612ceb565b634e487b7160e01b8b52604160045260248bfd5b6003612c3685809d612be2565b50505050505050505050565b508915612c1a565b6001600160a01b0391818316151580612df0575b612d5957505050565b60405163a9059cbb60e01b81526001600160a01b03929092166004830152602482015290602090829060449082906000907f0000000000000000000000000000000000000000000000000000000000000000165af18015612de4576122f491600091612dc6575b506125f9565b612dde915060203d81116109375761092981836121c5565b38612dc0565b6040513d6000823e3d90fd5b50801515612d50565b60008181526009602052604091828220546008602052838320908352602052828220908252600760205282822060c060ff6006865193612e38856121a9565b612e41816122a4565b855260018101546020860152600281015480988601526003810154606086015260048101546080860152600581015460a0860152015416151591015260ff600482015460a01c16612eb157600201548203918211612e9d575090565b634e487b7160e01b81526011600452602490fd5b5090509056fea2646970667358221220bcf87dd528ffdcb9e6966420f3b4348acade609e3af1e17977ae46c0ad4838a464736f6c63430008140033",
  "linkReferences": {},
  "deployedLinkReferences": {}
}