{"abi":[{"type":"constructor","inputs":[{"name":"_vrfCoordinator","type":"address","internalType":"address"},{"name":"_subscriptionId","type":"uint64","internalType":"uint64"},{"name":"_keyHash","type":"bytes32","internalType":"bytes32"},{"name":"_stablecoin","type":"address","internalType":"address"},{"name":"_nxlToken","type":"address","internalType":"address"},{"name":"_founder","type":"address","internalType":"address"},{"name":"_partner","type":"address","internalType":"address"},{"name":"_feesReceiver","type":"address","internalType":"address"},{"name":"_operationsService","type":"address","internalType":"address"},{"name":"_auditFunds","type":"address","internalType":"address"},{"name":"_pauseGuardian","type":"address","internalType":"address"}],"stateMutability":"nonpayable"},{"type":"function","name":"MAX_INVESTORS_PER_SETTLEMENT","inputs":[],"outputs":[{"name":"","type":"uint256","internalType":"uint256"}],"stateMutability":"view"},{"type":"function","name":"NUM_WORDS","inputs":[],"outputs":[{"name":"","type":"uint32","internalType":"uint32"}],"stateMutability":"view"},{"type":"function","name":"PCT_AMBASSADORS","inputs":[],"outputs":[{"name":"","type":"uint256","internalType":"uint256"}],"stateMutability":"view"},{"type":"function","name":"PCT_AUDIT","inputs":[],"outputs":[{"name":"","type":"uint256","internalType":"uint256"}],"stateMutability":"view"},{"type":"function","name":"PCT_FEES","inputs":[],"outputs":[{"name":"","type":"uint256","internalType":"uint256"}],"stateMutability":"view"},{"type":"function","name":"PCT_FOUNDER","inputs":[],"outputs":[{"name":"","type":"uint256","internalType":"uint256"}],"stateMutability":"view"},{"type":"function","name":"PCT_INSTANT","inputs":[],"outputs":[{"name":"","type":"uint256","internalType":"uint256"}],"stateMutability":"view"},{"type":"function","name":"PCT_INVESTOR","inputs":[],"outputs":[{"name":"","type":"uint256","internalType":"uint256"}],"stateMutability":"view"},{"type":"function","name":"PCT_OPS_SERVICE","inputs":[],"outputs":[{"name":"","type":"uint256","internalType":"uint256"}],"stateMutability":"view"},{"type":"function","name":"PCT_PARTNER","inputs":[],"outputs":[{"name":"","type":"uint256","internalType":"uint256"}],"stateMutability":"view"},{"type":"function","name":"PCT_PRIZE_POOL","inputs":[],"outputs":[{"name":"","type":"uint256","internalType":"uint256"}],"stateMutability":"view"},{"type":"function","name":"PCT_REFERRALS","inputs":[],"outputs":[{"name":"","type":"uint256","internalType":"uint256"}],"stateMutability":"view"},{"type":"function","name":"PCT_TREASURY_BTC","inputs":[],"outputs":[{"name":"","type":"uint256","internalType":"uint256"}],"stateMutability":"view"},{"type":"function","name":"PRODUCT_COUNT","inputs":[],"outputs":[{"name":"","type":"uint256","internalType":"uint256"}],"stateMutability":"view"},{"type":"function","name":"REQUEST_CONFIRMATIONS","inputs":[],"outputs":[{"name":"","type":"uint16","internalType":"uint16"}],"stateMutability":"view"},{"type":"function","name":"VRF_TIMEOUT","inputs":[],"outputs":[{"name":"","type":"uint256","internalType":"uint256"}],"stateMutability":"view"},{"type":"function","name":"_externalSettle","inputs":[{"name":"productId","type":"uint256","internalType":"uint256"},{"name":"roundId","type":"uint256","internalType":"uint256"},{"name":"winner","type":"address","internalType":"address"},{"name":"winningTicket","type":"uint256","internalType":"uint256"},{"name":"randomWord","type":"uint256","internalType":"uint256"}],"outputs":[],"stateMutability":"nonpayable"},{"type":"function","name":"_externalStartNewRound","inputs":[{"name":"productId","type":"uint256","internalType":"uint256"}],"outputs":[],"stateMutability":"nonpayable"},{"type":"function","name":"_safeTransferOut","inputs":[{"name":"to","type":"address","internalType":"address"},{"name":"amount","type":"uint256","internalType":"uint256"}],"outputs":[],"stateMutability":"nonpayable"},{"type":"function","name":"acceptOwnership","inputs":[],"outputs":[],"stateMutability":"nonpayable"},{"type":"function","name":"ambassadorRegistry","inputs":[],"outputs":[{"name":"","type":"address","internalType":"address"}],"stateMutability":"view"},{"type":"function","name":"auditAccrued","inputs":[],"outputs":[{"name":"","type":"uint256","internalType":"uint256"}],"stateMutability":"view"},{"type":"function","name":"auditFunds","inputs":[],"outputs":[{"name":"","type":"address","internalType":"address"}],"stateMutability":"view"},{"type":"function","name":"auditFundsLocked","inputs":[],"outputs":[{"name":"","type":"bool","internalType":"bool"}],"stateMutability":"view"},{"type":"function","name":"availableTickets","inputs":[{"name":"","type":"uint256","internalType":"uint256"},{"name":"","type":"uint256","internalType":"uint256"},{"name":"","type":"uint256","internalType":"uint256"}],"outputs":[{"name":"","type":"uint256","internalType":"uint256"}],"stateMutability":"view"},{"type":"function","name":"buySpecificTickets","inputs":[{"name":"productId","type":"uint256","internalType":"uint256"},{"name":"ticketNumbers","type":"uint256[]","internalType":"uint256[]"},{"name":"referrerAddr","type":"address","internalType":"address"}],"outputs":[],"stateMutability":"nonpayable"},{"type":"function","name":"buyTickets","inputs":[{"name":"productId","type":"uint256","internalType":"uint256"},{"name":"quantity","type":"uint256","internalType":"uint256"},{"name":"referrerAddr","type":"address","internalType":"address"}],"outputs":[],"stateMutability":"nonpayable"},{"type":"function","name":"callbackGasLimit","inputs":[],"outputs":[{"name":"","type":"uint32","internalType":"uint32"}],"stateMutability":"view"},{"type":"function","name":"claimNXL","inputs":[],"outputs":[],"stateMutability":"nonpayable"},{"type":"function","name":"claimStable","inputs":[],"outputs":[],"stateMutability":"nonpayable"},{"type":"function","name":"claimableNXL","inputs":[{"name":"","type":"address","internalType":"address"}],"outputs":[{"name":"","type":"uint256","internalType":"uint256"}],"stateMutability":"view"},{"type":"function","name":"claimableStable","inputs":[{"name":"","type":"address","internalType":"address"}],"outputs":[{"name":"","type":"uint256","internalType":"uint256"}],"stateMutability":"view"},{"type":"function","name":"configureNXLTokenTreasury","inputs":[{"name":"_treasuryBTC","type":"address","internalType":"address"}],"outputs":[],"stateMutability":"nonpayable"},{"type":"function","name":"continueSettlement","inputs":[{"name":"productId","type":"uint256","internalType":"uint256"},{"name":"roundId","type":"uint256","internalType":"uint256"}],"outputs":[],"stateMutability":"nonpayable"},{"type":"function","name":"currentRound","inputs":[{"name":"","type":"uint256","internalType":"uint256"}],"outputs":[{"name":"","type":"uint256","internalType":"uint256"}],"stateMutability":"view"},{"type":"function","name":"ecosystemLocked","inputs":[],"outputs":[{"name":"","type":"bool","internalType":"bool"}],"stateMutability":"view"},{"type":"function","name":"emergencyPause","inputs":[],"outputs":[],"stateMutability":"nonpayable"},{"type":"function","name":"emergencyUnpause","inputs":[],"outputs":[],"stateMutability":"nonpayable"},{"type":"function","name":"feesReceiver","inputs":[],"outputs":[{"name":"","type":"address","internalType":"address"}],"stateMutability":"view"},{"type":"function","name":"finalizeAutonomy","inputs":[],"outputs":[],"stateMutability":"nonpayable"},{"type":"function","name":"founder","inputs":[],"outputs":[{"name":"","type":"address","internalType":"address"}],"stateMutability":"view"},{"type":"function","name":"getInvestorPosition","inputs":[{"name":"productId","type":"uint256","internalType":"uint256"},{"name":"roundId","type":"uint256","internalType":"uint256"},{"name":"user","type":"address","internalType":"address"}],"outputs":[{"name":"principal","type":"uint256","internalType":"uint256"},{"name":"estimatedProfit","type":"uint256","internalType":"uint256"},{"name":"estimatedTotalReturn","type":"uint256","internalType":"uint256"},{"name":"fundedProgressBps","type":"uint256","internalType":"uint256"},{"name":"settled","type":"bool","internalType":"bool"},{"name":"alreadyAccrued","type":"uint256","internalType":"uint256"}],"stateMutability":"view"},{"type":"function","name":"getRoundInvestors","inputs":[{"name":"productId","type":"uint256","internalType":"uint256"},{"name":"roundId","type":"uint256","internalType":"uint256"}],"outputs":[{"name":"","type":"address[]","internalType":"address[]"}],"stateMutability":"view"},{"type":"function","name":"getRoundLiquidityStatus","inputs":[{"name":"productId","type":"uint256","internalType":"uint256"},{"name":"roundId","type":"uint256","internalType":"uint256"}],"outputs":[{"name":"liquidityTarget","type":"uint256","internalType":"uint256"},{"name":"liquidityFunded","type":"uint256","internalType":"uint256"},{"name":"liquidityProfitPool","type":"uint256","internalType":"uint256"},{"name":"liquidityReturnedPrincipal","type":"uint256","internalType":"uint256"},{"name":"liquiditySettled","type":"bool","internalType":"bool"},{"name":"investorsCount","type":"uint256","internalType":"uint256"},{"name":"progressBps","type":"uint256","internalType":"uint256"}],"stateMutability":"view"},{"type":"function","name":"getTicketOwner","inputs":[{"name":"productId","type":"uint256","internalType":"uint256"},{"name":"roundId","type":"uint256","internalType":"uint256"},{"name":"ticketNumber","type":"uint256","internalType":"uint256"}],"outputs":[{"name":"","type":"address","internalType":"address"}],"stateMutability":"view"},{"type":"function","name":"getUserTickets","inputs":[{"name":"productId","type":"uint256","internalType":"uint256"},{"name":"roundId","type":"uint256","internalType":"uint256"},{"name":"user","type":"address","internalType":"address"}],"outputs":[{"name":"","type":"uint256[]","internalType":"uint256[]"}],"stateMutability":"view"},{"type":"function","name":"globalStopped","inputs":[],"outputs":[{"name":"","type":"bool","internalType":"bool"}],"stateMutability":"view"},{"type":"function","name":"keyHash","inputs":[],"outputs":[{"name":"","type":"bytes32","internalType":"bytes32"}],"stateMutability":"view"},{"type":"function","name":"liquiditySettleIndex","inputs":[{"name":"","type":"uint256","internalType":"uint256"},{"name":"","type":"uint256","internalType":"uint256"}],"outputs":[{"name":"","type":"uint256","internalType":"uint256"}],"stateMutability":"view"},{"type":"function","name":"manualSettle","inputs":[{"name":"productId","type":"uint256","internalType":"uint256"},{"name":"roundId","type":"uint256","internalType":"uint256"}],"outputs":[],"stateMutability":"nonpayable"},{"type":"function","name":"nxlToken","inputs":[],"outputs":[{"name":"","type":"address","internalType":"contract INXLToken"}],"stateMutability":"view"},{"type":"function","name":"nxlTreasuryConfigured","inputs":[],"outputs":[{"name":"","type":"bool","internalType":"bool"}],"stateMutability":"view"},{"type":"function","name":"operationsService","inputs":[],"outputs":[{"name":"","type":"address","internalType":"address"}],"stateMutability":"view"},{"type":"function","name":"owner","inputs":[],"outputs":[{"name":"","type":"address","internalType":"address"}],"stateMutability":"view"},{"type":"function","name":"partner","inputs":[],"outputs":[{"name":"","type":"address","internalType":"address"}],"stateMutability":"view"},{"type":"function","name":"pauseGuardian","inputs":[],"outputs":[{"name":"","type":"address","internalType":"address"}],"stateMutability":"view"},{"type":"function","name":"pauseGuardianLocked","inputs":[],"outputs":[{"name":"","type":"bool","internalType":"bool"}],"stateMutability":"view"},{"type":"function","name":"paused","inputs":[],"outputs":[{"name":"","type":"bool","internalType":"bool"}],"stateMutability":"view"},{"type":"function","name":"pendingOwner","inputs":[],"outputs":[{"name":"","type":"address","internalType":"address"}],"stateMutability":"view"},{"type":"function","name":"products","inputs":[{"name":"","type":"uint256","internalType":"uint256"}],"outputs":[{"name":"name","type":"string","internalType":"string"},{"name":"priceUSDE18","type":"uint256","internalType":"uint256"},{"name":"maxTickets","type":"uint256","internalType":"uint256"},{"name":"nxlPerTicket","type":"uint256","internalType":"uint256"},{"name":"nxlWinnerBonus","type":"uint256","internalType":"uint256"},{"name":"jackpotUSDE18","type":"uint256","internalType":"uint256"},{"name":"active","type":"bool","internalType":"bool"}],"stateMutability":"view"},{"type":"function","name":"provideRoundLiquidity","inputs":[{"name":"productId","type":"uint256","internalType":"uint256"},{"name":"roundId","type":"uint256","internalType":"uint256"},{"name":"amount","type":"uint256","internalType":"uint256"}],"outputs":[],"stateMutability":"nonpayable"},{"type":"function","name":"rawFulfillRandomWords","inputs":[{"name":"requestId","type":"uint256","internalType":"uint256"},{"name":"randomWords","type":"uint256[]","internalType":"uint256[]"}],"outputs":[],"stateMutability":"nonpayable"},{"type":"function","name":"reactivateProduct","inputs":[{"name":"productId","type":"uint256","internalType":"uint256"}],"outputs":[],"stateMutability":"nonpayable"},{"type":"function","name":"referralNetwork","inputs":[],"outputs":[{"name":"","type":"address","internalType":"address"}],"stateMutability":"view"},{"type":"function","name":"renounceOwnership","inputs":[],"outputs":[],"stateMutability":"nonpayable"},{"type":"function","name":"resolveStuckRound","inputs":[{"name":"productId","type":"uint256","internalType":"uint256"},{"name":"roundId","type":"uint256","internalType":"uint256"}],"outputs":[],"stateMutability":"nonpayable"},{"type":"function","name":"roundInvestorKnown","inputs":[{"name":"","type":"uint256","internalType":"uint256"},{"name":"","type":"uint256","internalType":"uint256"},{"name":"","type":"address","internalType":"address"}],"outputs":[{"name":"","type":"bool","internalType":"bool"}],"stateMutability":"view"},{"type":"function","name":"roundInvestorPrincipal","inputs":[{"name":"","type":"uint256","internalType":"uint256"},{"name":"","type":"uint256","internalType":"uint256"},{"name":"","type":"address","internalType":"address"}],"outputs":[{"name":"","type":"uint256","internalType":"uint256"}],"stateMutability":"view"},{"type":"function","name":"roundInvestorReturned","inputs":[{"name":"","type":"uint256","internalType":"uint256"},{"name":"","type":"uint256","internalType":"uint256"},{"name":"","type":"address","internalType":"address"}],"outputs":[{"name":"","type":"uint256","internalType":"uint256"}],"stateMutability":"view"},{"type":"function","name":"roundPrizeAccrued","inputs":[{"name":"","type":"uint256","internalType":"uint256"},{"name":"","type":"uint256","internalType":"uint256"}],"outputs":[{"name":"","type":"bool","internalType":"bool"}],"stateMutability":"view"},{"type":"function","name":"roundVRFRequestTime","inputs":[{"name":"","type":"uint256","internalType":"uint256"},{"name":"","type":"uint256","internalType":"uint256"}],"outputs":[{"name":"","type":"uint256","internalType":"uint256"}],"stateMutability":"view"},{"type":"function","name":"rounds","inputs":[{"name":"","type":"uint256","internalType":"uint256"},{"name":"","type":"uint256","internalType":"uint256"}],"outputs":[{"name":"productId","type":"uint256","internalType":"uint256"},{"name":"roundId","type":"uint256","internalType":"uint256"},{"name":"ticketsSold","type":"uint256","internalType":"uint256"},{"name":"completed","type":"bool","internalType":"bool"},{"name":"vrfRequested","type":"bool","internalType":"bool"},{"name":"vrfRequestId","type":"uint256","internalType":"uint256"},{"name":"vrfRandomWord","type":"uint256","internalType":"uint256"},{"name":"winner","type":"address","internalType":"address"},{"name":"winningTicket","type":"uint256","internalType":"uint256"},{"name":"prizePot","type":"uint256","internalType":"uint256"},{"name":"instantPot","type":"uint256","internalType":"uint256"},{"name":"liquidityTarget","type":"uint256","internalType":"uint256"},{"name":"liquidityFunded","type":"uint256","internalType":"uint256"},{"name":"liquidityProfitPool","type":"uint256","internalType":"uint256"},{"name":"liquidityReturnedPrincipal","type":"uint256","internalType":"uint256"},{"name":"liquiditySettled","type":"bool","internalType":"bool"}],"stateMutability":"view"},{"type":"function","name":"s_vrfCoordinator","inputs":[],"outputs":[{"name":"","type":"address","internalType":"contract VRFCoordinatorV2Interface"}],"stateMutability":"view"},{"type":"function","name":"setAuditFunds","inputs":[{"name":"_auditFunds","type":"address","internalType":"address"}],"outputs":[],"stateMutability":"nonpayable"},{"type":"function","name":"setCallbackGasLimit","inputs":[{"name":"_gasLimit","type":"uint32","internalType":"uint32"}],"outputs":[],"stateMutability":"nonpayable"},{"type":"function","name":"setEcosystemAddresses","inputs":[{"name":"_treasuryBTC","type":"address","internalType":"address"},{"name":"_referralNetwork","type":"address","internalType":"address"},{"name":"_ambassadorRegistry","type":"address","internalType":"address"}],"outputs":[],"stateMutability":"nonpayable"},{"type":"function","name":"setPauseGuardian","inputs":[{"name":"_guardian","type":"address","internalType":"address"}],"outputs":[],"stateMutability":"nonpayable"},{"type":"function","name":"settleRemainingPrincipal","inputs":[{"name":"","type":"uint256","internalType":"uint256"},{"name":"","type":"uint256","internalType":"uint256"}],"outputs":[{"name":"","type":"uint256","internalType":"uint256"}],"stateMutability":"view"},{"type":"function","name":"settleRemainingProfit","inputs":[{"name":"","type":"uint256","internalType":"uint256"},{"name":"","type":"uint256","internalType":"uint256"}],"outputs":[{"name":"","type":"uint256","internalType":"uint256"}],"stateMutability":"view"},{"type":"function","name":"stableDecimals","inputs":[],"outputs":[{"name":"","type":"uint8","internalType":"uint8"}],"stateMutability":"view"},{"type":"function","name":"stablecoin","inputs":[],"outputs":[{"name":"","type":"address","internalType":"contract IERC20"}],"stateMutability":"view"},{"type":"function","name":"subscriptionId","inputs":[],"outputs":[{"name":"","type":"uint64","internalType":"uint64"}],"stateMutability":"view"},{"type":"function","name":"ticketIndexInAvailable","inputs":[{"name":"","type":"uint256","internalType":"uint256"},{"name":"","type":"uint256","internalType":"uint256"},{"name":"","type":"uint256","internalType":"uint256"}],"outputs":[{"name":"","type":"uint256","internalType":"uint256"}],"stateMutability":"view"},{"type":"function","name":"ticketOwner","inputs":[{"name":"","type":"uint256","internalType":"uint256"},{"name":"","type":"uint256","internalType":"uint256"},{"name":"","type":"uint256","internalType":"uint256"}],"outputs":[{"name":"","type":"address","internalType":"address"}],"stateMutability":"view"},{"type":"function","name":"ticketSwapMap","inputs":[{"name":"","type":"uint256","internalType":"uint256"},{"name":"","type":"uint256","internalType":"uint256"},{"name":"","type":"uint256","internalType":"uint256"}],"outputs":[{"name":"","type":"uint256","internalType":"uint256"}],"stateMutability":"view"},{"type":"function","name":"ticketsRemaining","inputs":[{"name":"","type":"uint256","internalType":"uint256"},{"name":"","type":"uint256","internalType":"uint256"}],"outputs":[{"name":"","type":"uint256","internalType":"uint256"}],"stateMutability":"view"},{"type":"function","name":"transferOwnership","inputs":[{"name":"newOwner","type":"address","internalType":"address"}],"outputs":[],"stateMutability":"nonpayable"},{"type":"function","name":"treasuryBTC","inputs":[],"outputs":[{"name":"","type":"address","internalType":"address"}],"stateMutability":"view"},{"type":"function","name":"userTickets","inputs":[{"name":"","type":"uint256","internalType":"uint256"},{"name":"","type":"uint256","internalType":"uint256"},{"name":"","type":"address","internalType":"address"},{"name":"","type":"uint256","internalType":"uint256"}],"outputs":[{"name":"","type":"uint256","internalType":"uint256"}],"stateMutability":"view"},{"type":"function","name":"vrfRequestToProduct","inputs":[{"name":"","type":"uint256","internalType":"uint256"}],"outputs":[{"name":"","type":"uint256","internalType":"uint256"}],"stateMutability":"view"},{"type":"function","name":"vrfRequestToRound","inputs":[{"name":"","type":"uint256","internalType":"uint256"}],"outputs":[{"name":"","type":"uint256","internalType":"uint256"}],"stateMutability":"view"},{"type":"function","name":"withdrawAuditFunds","inputs":[],"outputs":[],"stateMutability":"nonpayable"},{"type":"event","name":"AuditFundsSet","inputs":[{"name":"auditFunds","type":"address","indexed":true,"internalType":"address"}],"anonymous":false},{"type":"event","name":"AuditFundsWithdrawn","inputs":[{"name":"to","type":"address","indexed":true,"internalType":"address"},{"name":"amount","type":"uint256","indexed":false,"internalType":"uint256"}],"anonymous":false},{"type":"event","name":"AutonomyFinalized","inputs":[],"anonymous":false},{"type":"event","name":"ClaimAccrued","inputs":[{"name":"user","type":"address","indexed":true,"internalType":"address"},{"name":"amount","type":"uint256","indexed":false,"internalType":"uint256"}],"anonymous":false},{"type":"event","name":"Claimed","inputs":[{"name":"user","type":"address","indexed":true,"internalType":"address"},{"name":"amount","type":"uint256","indexed":false,"internalType":"uint256"}],"anonymous":false},{"type":"event","name":"EcosystemAddressesSet","inputs":[{"name":"treasuryBTC","type":"address","indexed":true,"internalType":"address"},{"name":"referralNetwork","type":"address","indexed":true,"internalType":"address"},{"name":"ambassadorRegistry","type":"address","indexed":true,"internalType":"address"}],"anonymous":false},{"type":"event","name":"GlobalStoppedAndNXLBurned","inputs":[{"name":"burnedAmount","type":"uint256","indexed":false,"internalType":"uint256"}],"anonymous":false},{"type":"event","name":"InstantRewardsDistributed","inputs":[{"name":"productId","type":"uint256","indexed":true,"internalType":"uint256"},{"name":"roundId","type":"uint256","indexed":true,"internalType":"uint256"},{"name":"totalPaid","type":"uint256","indexed":false,"internalType":"uint256"}],"anonymous":false},{"type":"event","name":"NXLAccrued","inputs":[{"name":"user","type":"address","indexed":true,"internalType":"address"},{"name":"amount","type":"uint256","indexed":false,"internalType":"uint256"}],"anonymous":false},{"type":"event","name":"NXLClaimed","inputs":[{"name":"user","type":"address","indexed":true,"internalType":"address"},{"name":"amount","type":"uint256","indexed":false,"internalType":"uint256"}],"anonymous":false},{"type":"event","name":"NXLPartialAccrued","inputs":[{"name":"user","type":"address","indexed":true,"internalType":"address"},{"name":"requested","type":"uint256","indexed":false,"internalType":"uint256"},{"name":"accrued","type":"uint256","indexed":false,"internalType":"uint256"}],"anonymous":false},{"type":"event","name":"NXLRewardsExhausted","inputs":[{"name":"productId","type":"uint256","indexed":true,"internalType":"uint256"}],"anonymous":false},{"type":"event","name":"NXLTokenTreasuryConfigured","inputs":[{"name":"treasury","type":"address","indexed":true,"internalType":"address"}],"anonymous":false},{"type":"event","name":"NewRoundFailed","inputs":[{"name":"productId","type":"uint256","indexed":true,"internalType":"uint256"},{"name":"reason","type":"bytes","indexed":false,"internalType":"bytes"}],"anonymous":false},{"type":"event","name":"NewRoundStarted","inputs":[{"name":"productId","type":"uint256","indexed":true,"internalType":"uint256"},{"name":"roundId","type":"uint256","indexed":true,"internalType":"uint256"}],"anonymous":false},{"type":"event","name":"OwnershipTransferStarted","inputs":[{"name":"previousOwner","type":"address","indexed":true,"internalType":"address"},{"name":"newOwner","type":"address","indexed":true,"internalType":"address"}],"anonymous":false},{"type":"event","name":"OwnershipTransferred","inputs":[{"name":"previousOwner","type":"address","indexed":true,"internalType":"address"},{"name":"newOwner","type":"address","indexed":true,"internalType":"address"}],"anonymous":false},{"type":"event","name":"ProductReactivated","inputs":[{"name":"productId","type":"uint256","indexed":true,"internalType":"uint256"}],"anonymous":false},{"type":"event","name":"RoundCompleted","inputs":[{"name":"productId","type":"uint256","indexed":true,"internalType":"uint256"},{"name":"roundId","type":"uint256","indexed":true,"internalType":"uint256"},{"name":"winner","type":"address","indexed":true,"internalType":"address"},{"name":"prize","type":"uint256","indexed":false,"internalType":"uint256"},{"name":"winningTicket","type":"uint256","indexed":false,"internalType":"uint256"}],"anonymous":false},{"type":"event","name":"RoundInvestorAccrued","inputs":[{"name":"productId","type":"uint256","indexed":true,"internalType":"uint256"},{"name":"roundId","type":"uint256","indexed":true,"internalType":"uint256"},{"name":"investor","type":"address","indexed":true,"internalType":"address"},{"name":"principal","type":"uint256","indexed":false,"internalType":"uint256"},{"name":"profit","type":"uint256","indexed":false,"internalType":"uint256"},{"name":"totalReturn","type":"uint256","indexed":false,"internalType":"uint256"}],"anonymous":false},{"type":"event","name":"RoundLiquidityProvided","inputs":[{"name":"productId","type":"uint256","indexed":true,"internalType":"uint256"},{"name":"roundId","type":"uint256","indexed":true,"internalType":"uint256"},{"name":"investor","type":"address","indexed":true,"internalType":"address"},{"name":"amount","type":"uint256","indexed":false,"internalType":"uint256"},{"name":"fundedAfter","type":"uint256","indexed":false,"internalType":"uint256"},{"name":"target","type":"uint256","indexed":false,"internalType":"uint256"}],"anonymous":false},{"type":"event","name":"RoundLiquiditySettled","inputs":[{"name":"productId","type":"uint256","indexed":true,"internalType":"uint256"},{"name":"roundId","type":"uint256","indexed":true,"internalType":"uint256"},{"name":"totalPrincipal","type":"uint256","indexed":false,"internalType":"uint256"},{"name":"totalProfit","type":"uint256","indexed":false,"internalType":"uint256"}],"anonymous":false},{"type":"event","name":"SettlementFailed","inputs":[{"name":"productId","type":"uint256","indexed":true,"internalType":"uint256"},{"name":"roundId","type":"uint256","indexed":true,"internalType":"uint256"},{"name":"reason","type":"bytes","indexed":false,"internalType":"bytes"}],"anonymous":false},{"type":"event","name":"StuckRoundPaused","inputs":[{"name":"productId","type":"uint256","indexed":true,"internalType":"uint256"},{"name":"roundId","type":"uint256","indexed":true,"internalType":"uint256"}],"anonymous":false},{"type":"event","name":"StuckRoundResolved","inputs":[{"name":"productId","type":"uint256","indexed":true,"internalType":"uint256"},{"name":"roundId","type":"uint256","indexed":true,"internalType":"uint256"},{"name":"newRequestId","type":"uint256","indexed":false,"internalType":"uint256"}],"anonymous":false},{"type":"event","name":"TicketsPurchased","inputs":[{"name":"productId","type":"uint256","indexed":true,"internalType":"uint256"},{"name":"roundId","type":"uint256","indexed":true,"internalType":"uint256"},{"name":"buyer","type":"address","indexed":true,"internalType":"address"},{"name":"quantity","type":"uint256","indexed":false,"internalType":"uint256"},{"name":"ticketNumbers","type":"uint256[]","indexed":false,"internalType":"uint256[]"},{"name":"amountPaid","type":"uint256","indexed":false,"internalType":"uint256"}],"anonymous":false},{"type":"event","name":"VRFRequested","inputs":[{"name":"requestId","type":"uint256","indexed":true,"internalType":"uint256"},{"name":"productId","type":"uint256","indexed":true,"internalType":"uint256"},{"name":"roundId","type":"uint256","indexed":true,"internalType":"uint256"}],"anonymous":false},{"type":"error","name":"AlreadySet","inputs":[]},{"type":"error","name":"AuditLocked","inputs":[]},{"type":"error","name":"ContractPaused","inputs":[]},{"type":"error","name":"ContractStopped","inputs":[]},{"type":"error","name":"EcosystemAlreadyLocked","inputs":[]},{"type":"error","name":"InsufficientNXL","inputs":[]},{"type":"error","name":"InvalidAddress","inputs":[]},{"type":"error","name":"InvalidProduct","inputs":[]},{"type":"error","name":"LiquidityFull","inputs":[]},{"type":"error","name":"NoFunds","inputs":[]},{"type":"error","name":"NotGuardian","inputs":[]},{"type":"error","name":"NothingToClaim","inputs":[]},{"type":"error","name":"OnlyCoordinatorCanFulfill","inputs":[{"name":"have","type":"address","internalType":"address"},{"name":"want","type":"address","internalType":"address"}]},{"type":"error","name":"OnlySelf","inputs":[]},{"type":"error","name":"OwnableInvalidOwner","inputs":[{"name":"owner","type":"address","internalType":"address"}]},{"type":"error","name":"OwnableUnauthorizedAccount","inputs":[{"name":"account","type":"address","internalType":"address"}]},{"type":"error","name":"ProductInactive","inputs":[]},{"type":"error","name":"ReentrancyGuardReentrantCall","inputs":[]},{"type":"error","name":"RoundAlreadyCompleted","inputs":[]},{"type":"error","name":"RoundNotFull","inputs":[]},{"type":"error","name":"RoundNotStuck","inputs":[]},{"type":"error","name":"SafeERC20FailedOperation","inputs":[{"name":"token","type":"address","internalType":"address"}]},{"type":"error","name":"TimeoutNotReached","inputs":[]},{"type":"error","name":"VRFAlreadyRequested","inputs":[]}],"bytecode":{"object":"0x6101e06040523462000ee357610160620077c7803803809162000025826101e06200168d565b6101e0391262000ee3576200003c6101e0620016b1565b610200516001600160401b038116810362000ee357610220519162000063610240620016b1565b9162000071610260620016b1565b6200007e610280620016b1565b6200008b6102a0620016b1565b91620000996102c0620016b1565b93620000a76102e0620016b1565b95620000b5610300620016b1565b97620000c3610320620016b1565b9982608052600160005533156200163c57600280546001600160a01b03199081169091556001805491821633908117909155604051916001600160a01b03167f8be0079c531659141344cd1fd0a4f28419497f9722a3daafe3b4186f6b6457e0600080a36008805463ffffffff1916622625a01790556001600160a01b03841615620015fa57506001600160a01b03821615620015c0576001600160a01b0385161562001587576001600160a01b0386161562001550576001600160a01b0387161562001519576001600160a01b03881615620014d4576001600160a01b038916156200148f576001600160a01b038a161562001455576001600160a01b038b161562001410576001600160a01b03928316610180526101a0939093526101c0929092521660a081905260405163313ce56760e01b815290602090829060049082905afa90811562000ef157600091620013cc575b5060ff8160129260c052161162001387576001600160a01b0390811660e05261010091909152610120919091526101409190915261016091909152600680546001600160a81b0319169290911691909117600160a01b1790556019805463ffffff01600160c01b03191660209290921b600160201b600160c01b03169190911760011763ff00000019169055604051620002b28162001655565b604051620002c08162001671565b600581526408c9882a6960db1b60208201528152670de0b6b3a764000060208201526103e8604082015267016345785d8a0000606082015267016345785d8a00006080820152681b1ae4d6e2ef50000060a0820152600160c082015260008052600a6020526040600020815180519060018060401b03821162000f6657620003498354620016d6565b601f81116200133e575b50602090601f8311600114620012e157938260069360c093620003d79760009262000f7c575b50508160011b916000199060031b1c19161784555b6020810151600185015560408101516002850155606081015160038501556080810151600485015560a081015160058501550151151591019060ff801983541691151516179055565b604051620003e58162001655565b604051620003f38162001671565b600881526713d49251d253905360c21b60208201528152670de0b6b3a7640000602082015261271060408201526703782dace9d90000806060830152608082015269010f0cf064dd5920000060a0820152600160c08201526001600052600a6020526040600020815180519060018060401b03821162000f6657620004798354620016d6565b601f811162001298575b50602090601f83116001146200123b57938260069360c093620005059760009262000f7c5750508160011b916000199060031b1c19161784556020810151600185015560408101516002850155606081015160038501556080810151600485015560a081015160058501550151151591019060ff801983541691151516179055565b604051620005138162001655565b604051620005218162001671565b60078152665052454d49554d60c81b602082015281526801158e460913d0000060208201526103e860408201526706f05b59d3b20000806060830152608082015269021e19e0c9bab240000060a0820152600160c08201526002600052600a6020526040600020815180519060018060401b03821162000f6657620005a78354620016d6565b601f8111620011f2575b50602090601f83116001146200119557938260069360c093620006339760009262000f7c5750508160011b916000199060031b1c19161784556020810151600185015560408101516002850155606081015160038501556080810151600485015560a081015160058501550151151591019060ff801983541691151516179055565b604051620006418162001655565b6040516200064f8162001671565b6005815264454c49544560d81b60208201528152678ac7230489e80000602082015261271060408201526707a1fe16027700008060608301526080820152690a968163f0a57b40000060a0820152600160c08201526003600052600a6020526040600020815180519060018060401b03821162000f6657620006d28354620016d6565b601f81116200114c575b50602090601f8311600114620010ef57938260069360c0936200075e9760009262000f7c5750508160011b916000199060031b1c19161784556020810151600185015560408101516002850155606081015160038501556080810151600485015560a081015160058501550151151591019060ff801983541691151516179055565b6040516200076c8162001655565b6040516200077a8162001671565b600381526205649560ec1b60208201528152680ad78ebc5ac620000060208201526103e86040820152670bcbce7f1b150000806060830152608082015269152d02c7e14af680000060a0820152600160c08201526004600052600a6020526040600020815180519060018060401b03821162000f6657620007fc8354620016d6565b601f8111620010a6575b50602090601f83116001146200104957938260069360c093620008889760009262000f7c5750508160011b916000199060031b1c19161784556020810151600185015560408101516002850155606081015160038501556080810151600485015560a081015160058501550151151591019060ff801983541691151516179055565b604051620008968162001655565b604051620008a48162001671565b6009815268424c41434b424c4f4b60b81b60208201528152680ad78ebc5ac620000060208201526127106040820152670de0b6b3a76400006060820152670de0b6b3a7640000608082015269d3c21bcecceda100000060a0820152600160c08201526005600052600a6020526040600020815180519060018060401b03821162000f6657620009348354620016d6565b601f811162001000575b50602090601f831160011462000f8857938260069360c093620009c09760009262000f7c5750508160011b916000199060031b1c19161784556020810151600185015560408101516002850155606081015160038501556080810151600485015560a081015160058501550151151591019060ff801983541691151516179055565b60005b600581111562000af657604051615c76908162001b3182396080518161300a015260a051818181610698015281816108a901528181610ce7015281816111a1015281816113b401528181611fb7015281816141b9015261498f015260c051818181612f50015261387e015260e051818181611b1501528181611c4301528181612ca301528181614a3c01528181614d2e0152615609015261010051818181612a8501528181613c1d01526148140152610120518181816110210152613dd601526101405181818161113201528181613d61015261496e015261016051818181611a8e0152613da101526101805181818161187c015281816125d1015261430101526101a0518181816125760152818161327c01526142a601526101c051818181612550015281816127ce01526142800152f35b80600052600c6020526040600020549060018201821162000e9e5780600052600c6020526001820160406000205562000b2f8162001713565b6040516001600160401b0361020082019081119082111762000f665762000cd9916102008201604052838252600185016020830152600060408301526000606083015260006080830152600060a0830152600060c0830152600060e0830152600061010083015260006101208301526000610140830152610160820152600061018082015260006101a082015260006101c082015260006101e082015282600052600b602052604060002060018501600052602052600e6101e06040600020928051845560208101516001850155604081015160028501556003840162000c2860608301511515829060ff801983541691151516179055565b6080820151151561ff0082549160081b169061ff00191617905560a0810151600485015560c081015160058501556006840160018060a01b0360e08301511660018060a01b0319825416179055610100810151600785015561012081015160088501556101408101516009850155610160810151600a850155610180810151600b8501556101a0810151600c8501556101c0810151600d8501550151151591019060ff801983541691151516179055565b80600052600a602052600260406000200154601c60205260406000206001840160005260205260406000205580600052600a60205260406000206040519262000d228462001655565b604051825481600062000d3583620016d6565b808352926001811690811562000f45575060011462000efd575b62000d5d925003826200168d565b8452600182015460208501526002820154604085015260038201549384606082015260c060ff6006600486015495866080860152600581015460a08601520154161515910152818401841162000e9e5760e051604051633f27266b60e21b815290602090829060049082906001600160a01b03165afa90811562000ef15760009162000eb4575b5084830160001981011162000e9e5762000e35946001930160001901101562000e3b575b01817ffee93879a5e67f5411452c57c1bc6f494462a67847f16a8ae120e5ff78e8b9c3600080a3620016c6565b620009c3565b82600052600a6020526006604060002001805460ff811662000e60575b505062000e08565b60ff19169055827fa59be52632c4b7921b8b3fbd4b3904513421c74fe4fbdb2f7ceef33b87fe3bf6600080a262000e96620018e7565b388062000e58565b634e487b7160e01b600052601160045260246000fd5b90506020813d60201162000ee8575b8162000ed2602093836200168d565b8101031262000ee357513862000de4565b600080fd5b3d915062000ec3565b6040513d6000823e3d90fd5b5090846000526020600020906000915b81831062000f2857505090602062000d5d9282010162000d4f565b602091935080600191548385880101520191019091839262000f0d565b6020925062000d5d94915060ff191682840152151560051b82010162000d4f565b634e487b7160e01b600052604160045260246000fd5b01519050388062000379565b908360005260206000209160005b601f198516811062000fe757508360c093620009c09793600193600697601f1981161062000fcd575b505050811b0184556200038e565b015160001960f88460031b161c1916905538808062000fbf565b9192602060018192868501518155019401920162000f96565b836000526020600020601f840160051c81016020851062001041575b601f830160051c82018110620010345750506200093e565b600081556001016200101c565b50806200101c565b908360005260206000209160005b601f19851681106200108d57508360c093620008889793600193600697601f1981161062000fcd57505050811b0184556200038e565b9192602060018192868501518155019401920162001057565b836000526020600020601f840160051c810160208510620010e7575b601f830160051c82018110620010da57505062000806565b60008155600101620010c2565b5080620010c2565b908360005260206000209160005b601f19851681106200113357508360c0936200075e9793600193600697601f1981161062000fcd57505050811b0184556200038e565b91926020600181928685015181550194019201620010fd565b836000526020600020601f840160051c8101602085106200118d575b601f830160051c8201811062001180575050620006dc565b6000815560010162001168565b508062001168565b908360005260206000209160005b601f1985168110620011d957508360c093620006339793600193600697601f1981161062000fcd57505050811b0184556200038e565b91926020600181928685015181550194019201620011a3565b836000526020600020601f840160051c81016020851062001233575b601f830160051c8201811062001226575050620005b1565b600081556001016200120e565b50806200120e565b908360005260206000209160005b601f19851681106200127f57508360c093620005059793600193600697601f1981161062000fcd57505050811b0184556200038e565b9192602060018192868501518155019401920162001249565b836000526020600020601f840160051c810160208510620012d9575b601f830160051c82018110620012cc57505062000483565b60008155600101620012b4565b5080620012b4565b908360005260206000209160005b601f19851681106200132557508360c093620003d79793600193600697601f1981161062000fcd57505050811b0184556200038e565b91926020600181928685015181550194019201620012ef565b836000526020600020601f840160051c8101602085106200137f575b601f830160051c820181106200137257505062000353565b600081556001016200135a565b50806200135a565b60405162461bcd60e51b815260206004820152601460248201527f537461626c6520646563696d616c73203e2031380000000000000000000000006044820152606490fd5b90506020813d60201162001407575b81620013ea602093836200168d565b8101031262000ee3575160ff8116810362000ee35760ff62000218565b3d9150620013db565b60405162461bcd60e51b815260206004820152601560248201527f496e76616c6964207061757365477561726469616e00000000000000000000006044820152606490fd5b60405162461bcd60e51b8152602060048201526012602482015271496e76616c696420617564697446756e647360701b6044820152606490fd5b60405162461bcd60e51b815260206004820152601960248201527f496e76616c6964206f7065726174696f6e7353657276696365000000000000006044820152606490fd5b60405162461bcd60e51b815260206004820152601460248201527f496e76616c6964206665657352656365697665720000000000000000000000006044820152606490fd5b60405162461bcd60e51b815260206004820152600f60248201526e24b73b30b634b2103830b93a3732b960891b6044820152606490fd5b60405162461bcd60e51b815260206004820152600f60248201526e24b73b30b634b2103337bab73232b960891b6044820152606490fd5b60405162461bcd60e51b815260206004820152601160248201527024b73b30b634b210272c26103a37b5b2b760791b6044820152606490fd5b60405162461bcd60e51b815260206004820152601260248201527124b73b30b634b21039ba30b13632b1b7b4b760711b6044820152606490fd5b62461bcd60e51b815260206004820152601660248201527f496e76616c696420767266436f6f7264696e61746f72000000000000000000006044820152606490fd5b604051631e4fbdf760e01b815260006004820152602490fd5b60e081019081106001600160401b0382111762000f6657604052565b604081019081106001600160401b0382111762000f6657604052565b601f909101601f19168101906001600160401b0382119082101762000f6657604052565b51906001600160a01b038216820362000ee357565b600019811462000e9e5760010190565b90600182811c9216801562001708575b6020831014620016f257565b634e487b7160e01b600052602260045260246000fd5b91607f1691620016e6565b6000908152602090600a825260408120604051620017318162001655565b60405182549084816200174484620016d6565b918282526001948986821691826000146200187857505060011462001837575b62001772925003826200168d565b8252820154809482015260c060ff60066002850154948560408601526003810154606086015260048101546080860152600581015460a086015201541615159101528015801562001829575b62001823576103e890049182606402926064840481036200180f578102606402928115918404141715620017fb5750620017f89062001897565b90565b634e487b7160e01b81526011600452602490fd5b634e487b7160e01b83526011600452602483fd5b50905090565b506103e881061515620017be565b505084865281878088208589915b8583106200185e57505062001772935082010162001764565b809192945054838588010152019101889085859362001845565b60ff1916848201526200177294151560051b8401019150620017649050565b60ff60c0511660128114620018e35760120360ff811162000e9e5760ff16604d811162000e9e57600a0a908115620018cd570490565b634e487b7160e01b600052601260045260246000fd5b5090565b6019549060009160ff809160181c1662001b2b57825b600581111562001afd57505060e05160408051633f27266b60e21b81526020929091906001600160a01b039084908490600490829085165afa92831562001af357869362001aba575b508262001969575b505050509050630100000063ff000000196019541617601955565b859060e05116803b1562001ab657819060248451809481936357d020cf60e01b83528860048401525af1908162001a86575b5062001a6d573d1562001a64573d946001600160401b03861162000f6657815195620019d1601f8201601f19168601886200168d565b86523d818588013e5b8151958487528051908186890152825b82811062001a505750507f44232928b0d605f94135daacd2d0446a78a3b33eaadb29e8a9e42d045a440b548784818486838197600080516020620077a78339815191529d9e010152601f80199101168101030190a35b51908152a180388080806200194e565b8181018701518982018601528601620019ea565b606094620019da565b600080516020620077a783398151915293945062001a40565b9095906001600160401b03811162001aa257825294386200199b565b634e487b7160e01b82526041600452602482fd5b5080fd5b9092508381813d831162001aeb575b62001ad581836200168d565b8101031262001ae75751913862001946565b8580fd5b503d62001ac9565b82513d88823e3d90fd5b808452600a6020528160066040862001541662001b255762001b1f90620016c6565b620018fd565b50509050565b50905056fe6101a080604052600436101561001457600080fd5b6000803560e01c91826309c1ba2e1461325f575081630a368449146131325781630af54e16146131075781630f60d4dd146130db578163182be553146130b357816319433bf7146130825781631fe543e314612f975781632103935c14612f745781632104d3fa14612f3757816324a3d62214612f0f57816324f7469714612eec5781632d05907714612eac57816336834cd414612e8757816341259bc014612da857816342b511c414612d7f57816344969fba14612c6d5781634644ea4b14612c45578163474b989414612c0a57816348bde20c14612b1957816349f474af14612afc5781634a4e3bd514612ab45781634d853ee514612a7057816350cfd41e14612a3857816351858e27146129ed57816356ec5a40146129b9578163582189231461045657816359f05678146129725781635c975abb146129505781635ce23d961461290e5781635eafb5531461280d57816360ae23f6146127f157816361728f39146127b757816361b9722b1461244457816361eeeec71461241f57816367f082b014612404578163690e4b52146123e95781636b12ec5c146123c45781636bf9c04a1461239f5781636e0e5332146122b3578163715018a61461229b57816372cf6e3414612280578163768ff2fe14611ed45781637837389a14611d8757816379ba509714611e505781637acc0b2014611dc65781637b73ca821461045657816380b70e3714611d87578163813757ea14611cd05781638747991814611c8e57816387d4704f14611c7257816389ef723b14611c2e5781638da5cb5b14611c065781638dabaf6714611ad95781638e18e62914611abd5781638efc3f3114611a7957816391b5433d14611a4d578163937ba8e614611a21578163976286e214611a0657816398653262146119415781639a2b3012146118ab5781639eccacf614611867578163a4eb718c1461179d578163a71cf8c614611778578163a792813c1461126a578163aa5f7fcc1461123e578163ac23c2991461120a578163b402f4d314611161578163bca93cf51461111d578163bda9fea614611050578163be10862b1461100c578163be8c2feb14610fe4578163c6ae540d14610416578163cb1b510614610f74578163d5aa06fa14610f4b578163d8b945aa14610924578163daeadc5e14610416578163dc66f11f1461086a578163e0138c0c14610845578163e05dac0514610829578163e30c397814610801578163e6da921314610710578163e9bb927f146106c7578163e9cbd82214610683578163eb348f831461065b578163eef9b69914610456578163f1ea82881461050e578163f2fde38b146104a1578163f4d1c5f614610484578163f64d85af1461045b578163faaec71914610456578163fc4d6cd21461041b575063ff396d6b1461041657600080fd5b613536565b34610453576020366003190112610453576020906040906001600160a01b03610442613337565b168152601383522054604051908152f35b80fd5b6133d5565b346104535760203660031901126104535760406020916004358152600c83522054604051908152f35b34610453578060031936011261045357602060405162093a808152f35b34610453576020366003190112610453576104ba613337565b6104c2615adc565b600280546001600160a01b0319166001600160a01b039283169081179091556001549091167f38d16b8cac22d99fc7c124b9cd0de2d3fa1faef420bfe791d8c362d765e227008380a380f35b34610453578060031936011261045357610526615adc565b60195460ff8160081c16156106205760ff8160101c16156105db57602081901c6001600160a01b03161561059e5760ff60ff60c01b011916600160c01b176019557f0b4a492ee310b9c1e8e5a63313d28ed5a5285fecf69482d9bf579675f75a272c8180a1610593615adc565b61059b615af0565b80f35b60405162461bcd60e51b8152602060048201526015602482015274139bc81c185d5cd94819dd585c991a585b881cd95d605a1b6044820152606490fd5b60405162461bcd60e51b815260206004820152601b60248201527f4e584c207472656173757279206e6f7420636f6e6669677572656400000000006044820152606490fd5b60405162461bcd60e51b815260206004820152601360248201527214d95d081958dbdcde5cdd195b48199a5c9cdd606a1b6044820152606490fd5b346104535780600319360112610453576003546040516001600160a01b039091168152602090f35b346104535780600319360112610453576040517f00000000000000000000000000000000000000000000000000000000000000006001600160a01b03168152602090f35b346104535760a0366003190112610453576106e061334d565b3033036106fe5761059b906084359060643590602435600435614846565b60405163029a949d60e31b8152600490fd5b346104535761071e366132a0565b908252600b602052604082209082526020526040902080546001820154916002810154600382015460048301546005840154600160a01b600190036006860154166007860154600887015491600988015493600a89015495600b8a015497600c8b015499600d8c01549b600e015460ff169c6040519e8f9182526020820152604001528c60ff82161515906060015260081c60ff16151560808d015260a08c015260c08b015260e08a01526101008901526101208801526101408701526101608601526101808501526101a08401526101c083015215156101e082015261020090f35b346104535780600319360112610453576002546040516001600160a01b039091168152602090f35b3461045357806003193601126104535760206040516113888152f35b34610453578060031936011261045357602060ff60195460c01c166040519015158152f35b34610453578060031936011261045357610882615c1d565b6006546001600160a01b031633036109125760075480156109005760016007556108cd81337f0000000000000000000000000000000000000000000000000000000000000000615b3e565b6040519081527f87b69857165e557bec74ede39e74144bd8c93c5fd3497b1064aca8ee3aeec72e60203392a26001815580f35b60405163043f9e1160e41b8152600490fd5b60405163e6c4247b60e01b8152600490fd5b34610453576060366003190112610453576001600160401b038060243511610f4757366023602435011215610f475760243560040135116104535736602480356004013560051b81350101116104535761097c61334d565b610984615c1d565b60195460ff8116610f355760181c60ff16610f235760066004351015610f11576004358252600a60205260ff60066040842001541615610eff576004358252600c6020526040822054600b6020526040832081845260205260408320916004358452600a602052604084209060ff600660405193610a01856132c9565b610a0a816133f1565b855260018101546020860152600281015460408601526003810154606086015260048101546080860152600581015460a0860152015416151560c0830152610a5960ff60038601541615613553565b6024356004013515610ec857600160243560040135148015610eb8575b8015610ea8575b8015610e98575b610a93909492949391936136fe565b610ab6610aaa6024356004013560028501546135b4565b60408601511015613738565b84935b60046024350135600019810111610c225760046024350135600019018511610cb357610af085602435600401356024803501613788565b604082015160001981019135908211610c9f5711610c69576004358652600d6020526040862082875260205260408620610b3586602435600401356024803501613788565b35875260205260408620546001600160a01b0316610c3657600185018511610c2257600185015b60046024350135600019810111610c0e5760046024350135600019018111610bf557610b9386602435600401356024803501613788565b35610ba982602435600401356024803501613788565b3514610bbd57610bb890613779565b610b5c565b60405162461bcd60e51b815260206004820152601060248201526f111d5c1b1a58d85d19481d1a58dad95d60821b6044820152606490fd5b509193610c0490939193613779565b9391929092610ab9565b634e487b7160e01b87526011600452602487fd5b634e487b7160e01b86526011600452602486fd5b60405162461bcd60e51b815260206004820152600b60248201526a151a58dad95d081cdbdb1960aa1b6044820152606490fd5b60405162461bcd60e51b815260206004820152600e60248201526d125b9d985b1a59081d1a58dad95d60921b6044820152606490fd5b634e487b7160e01b88526011600452602488fd5b90929350610cd3610cce6024356004013560208401516135c1565b61387a565b91610cdf831515613798565b610d0b8330337f0000000000000000000000000000000000000000000000000000000000000000615b7f565b610d1a602435600401356137d6565b92865b60046024350135600019810111610c9f5760046024350135600019018111610ddc5780610d58610dd792602435600401356024803501613788565b35610d668189600435613916565b6004358a52600d60205260408a20888b5260205260408a20818b5260205260408a20336001600160601b0360a01b8254161790556004358a52600e60205260408a20888b5260205260408a2033600052602052610dc7816040600020613808565b610dd18288613844565b52613779565b610d1d565b50610e5390610e496002949697604096610dff60243560040135888801546135b4565b87870155898851917f312ffeb81136178607528c21ab6d9c6bf3eab08cb7eb3ed968c8aa9d9bef9fd0339380610e4089600435956024356004013584613858565b0390a433613a74565b3387600435613b90565b610e73600435610e6d6024356004013560608801516135c1565b33614a10565b015491015114610e86575b506001815580f35b610e929060043561421e565b81610e7e565b5060046024350135600a14610a84565b5060056024356004013514610a7d565b5060036024356004013514610a76565b60405162461bcd60e51b815260206004820152600f60248201526e4d7573742073656c656374203e3d3160881b6044820152606490fd5b604051634664648b60e01b8152600490fd5b60405163a661c0e760e01b8152600490fd5b60405163250440b360e01b8152600490fd5b60405163ab35696f60e01b8152600490fd5b5080fd5b346104535760203660031901126104535760406020916004358152601283522054604051908152f35b3461045357608036600319011261045357610f8d61334d565b90606435916004358252600e602052604082206024358352602052604082209060018060a01b03166000526020526040600020908154831015610453576020610fd684846133a7565b90546040519160031b1c8152f35b346104535780600319360112610453576005546040516001600160a01b039091168152602090f35b346104535780600319360112610453576040517f00000000000000000000000000000000000000000000000000000000000000006001600160a01b03168152602090f35b346104535761105e366132a0565b818352600b602052604083208184526020526040832090600a82015492600b83015492600c8101549260ff600e600d8401549301541692875260156020526040872090875260205260408620549285156000146110e25760e096945b6040519687526020870152604086015260608501521515608084015260a083015260c0820152f35b6127109687860297868904148615171561110957506111038660e0986135d4565b946110ba565b634e487b7160e01b81526011600452602490fd5b346104535780600319360112610453576040517f00000000000000000000000000000000000000000000000000000000000000006001600160a01b03168152602090f35b34610453578060031936011261045357611179615c1d565b3381526013602052604081205480156111f85733825260136020528160408120556111c581337f0000000000000000000000000000000000000000000000000000000000000000615b3e565b6040519081527fd8138f8a3f377c5259ca548e70e4c2de94f129f5a11036a15b69513cba2b426a60203392a26001815580f35b6040516312d37ee560e31b8152600490fd5b3461045357604060209161121d3661338d565b91835260108552838320908352845282822090825283522054604051908152f35b34610453576040602091611251366132a0565b9082526009845282822090825283522054604051908152f35b346104535761127836613363565b90611281615c1d565b60195460ff8116610f355760181c60ff16610f23576006831015610f1157828452600a60205260ff60066040862001541615610eff5760018114801561176e575b8015611764575b801561175a575b6112dc909392936136fe565b818452600c6020526040842054600b602052604085208186526020526040852092808652600a6020526040862060ff60066040519261131a846132c9565b611323816133f1565b845260018101546020850152600281015460408501526003810154606085015260048101546080850152600581015460a0850152015416151560c082015261137260ff60038701541615613553565b61138f6113838560028801546135b4565b60408301511015613738565b6113a0610cce8560208401516135c1565b946113ac861515613798565b6113d88630337f0000000000000000000000000000000000000000000000000000000000000000615b7f565b6113e1856137d6565b9488966000194301975b60001983018381116117465781116116b257604085015190868c52601c60205260408c20888d5260205260408c2054918c83159081611690575b50611688575b50811561165157868c52601a60205260408c20888d5260205260408c206114528154613779565b809155438b1161163d57604051908b4060208301524460408301523360601b60608301523060601b60748301528860888301528960a88301528360c88301528260e883015261010890818301528152806101408101106001600160401b03610140830111176116275782816101406114d4930160405260208151910120613a6a565b916114e0838a8a6138d1565b9080600019810111611613578d906114fd60001982018c8c6138d1565b6001828703016115bc575b506115b794506040908a8352601b6020528183208c8452602052818320600019820184526020526000828420558a8352601c6020528183208c845260205260001901912055878d52600d6020528c896040822091526020528c8160408220915260205260408d20336001600160601b0360a01b825416179055878d52600e6020528c8960408220915260205260408d20336000526020526115ad816040600020613808565b610dd1828b613844565b6113eb565b91509192936001820182116115ff576115b79493928f926001906040938e8e8752601b602052858720908752602052848620908652602052018284205590611508565b634e487b7160e01b8f52601160045260248ffd5b634e487b7160e01b8e52601160045260248efd5b634e487b7160e01b600052604160045260246000fd5b634e487b7160e01b8d52601160045260248dfd5b60405162461bcd60e51b815260206004820152600f60248201526e139bc81d1a58dad95d1cc81b19599d608a1b6044820152606490fd5b91508c61142b565b60029150808a60409252600b6020528181208c8252602052200154158d611425565b508995939261172386610e6d6040956117196002968f611711908f6116da868c8c01546135b4565b8b8b01558d887f312ffeb81136178607528c21ab6d9c6bf3eab08cb7eb3ed968c8aa9d9bef9fd08e5180610e408933978d84613858565b338b86613b90565b60608801516135c1565b015491015114611736575b826001815580f35b61173f9161421e565b818061172e565b634e487b7160e01b8c52601160045260248cfd5b50600a81146112d0565b50600581146112c9565b50600381146112c2565b34610453578060031936011261045357602060ff60195460181c166040519015158152f35b346104535760203660031901126104535760043563ffffffff8116809103610f475760018060a01b038060195460201c163314159081611858575b5061184657620f424081101580611839575b156118005763ffffffff19600854161760085580f35b60405162461bcd60e51b8152602060048201526011602482015270125b9d985b1a590819d85cc81b1a5b5a5d607a1b6044820152606490fd5b50624c4b408111156117ea565b6040516377b6878160e11b8152600490fd5b905060015416331415836117d8565b346104535780600319360112610453576040517f00000000000000000000000000000000000000000000000000000000000000006001600160a01b03168152602090f35b34610453576118b936613363565b90918352602091600e8352604084209084528252604083209060018060a01b03166000528152604060002091604051809384918482549182815201918452848420935b8582821061192b57505050611913925003836132ff565b611927604051928284938452830190613502565b0390f35b85548452600195860195889550930192016118fc565b346104535761194f366132a0565b611957615c1d565b818352600b602052604083208184526020526040832060ff600382015416156119cc57600e015460ff166119955761198e91614415565b6001815580f35b60405162461bcd60e51b815260206004820152600f60248201526e105b1c9958591e481cd95d1d1b1959608a1b6044820152606490fd5b60405162461bcd60e51b8152602060048201526012602482015271526f756e64206e6f7420636f6d706c65746560701b6044820152606490fd5b34610453578060031936011261045357602060405160068152f35b34610453576040602091611a34366132a0565b908252601e845282822090825283522054604051908152f35b34610453576040602091611a60366132a0565b908252601c845282822090825283522054604051908152f35b346104535780600319360112610453576040517f00000000000000000000000000000000000000000000000000000000000000006001600160a01b03168152602090f35b34610453578060031936011261045357602060405161012c8152f35b34610453578060031936011261045357611af1615c1d565b3381526014602052604081205480156111f8573382526014602052604082208290557f00000000000000000000000000000000000000000000000000000000000000006001600160a01b0316803b15611c02576040516307b22ee360e21b81523360048201526024810183905290839081908390604490829084905af19182611bee575b5050611bbb57503390526014602052606460405162461bcd60e51b815260206004820152601060248201526f1396130818db185a5b4819985a5b195960821b6044820152fd5b6040519081527f2ae2419f267b533feaa7c0b1c08eafb96af442c583a72e722f0f04d16ac0123f60203392a26001815580f35b611bf7906132b6565b611c02578284611b75565b8280fd5b346104535780600319360112610453576001546040516001600160a01b039091168152602090f35b346104535780600319360112610453576040517f00000000000000000000000000000000000000000000000000000000000000006001600160a01b03168152602090f35b3461045357806003193601126104535760206040516102bc8152f35b34610453576040611c9e36613363565b939182526017602052828220908252602052209060018060a01b03166000526020526020604060002054604051908152f35b3461045357611cde366132a0565b908252602090601582526040832090835281526040822060405192838383549182815201908193835284832090835b818110611d6a5750505084611d239103856132ff565b60405193838594850191818652518092526040850193925b828110611d4a57505050500390f35b83516001600160a01b031685528695509381019392810192600101611d3b565b82546001600160a01b031684529286019260019283019201611d0d565b3461045357602090611d983661338d565b918352600d8452604083209083528352604082209082528252604060018060a01b0391205416604051908152f35b34610453576020366003190112610453576040611e2b916004358152600a60205220611df1816133f1565b90600181015490600281015490600381015460048201549060ff60066005850154940154169360405197889760e0895260e08901906134c2565b95602088015260408701526060860152608085015260a0840152151560c08301520390f35b346104535780600319360112610453576002546001600160a01b033381831603611ebc576001600160601b0360a01b8092166002556001549133908316176001553391167f8be0079c531659141344cd1fd0a4f28419497f9722a3daafe3b4186f6b6457e0600080a380f35b60405163118cdaa760e01b8152336004820152602490fd5b3461045357611ee23661338d565b91611eeb615c1d565b6019549260ff93848116610f355760181c8416610f23576006821015610f11578185526020600a81528460066040882001541615610eff57828652600b815260408620848752815260408620908460018301541480612276575b1561224057856003830154611f5c82821615613553565b60081c1661220c5782156121da57600b820192600a8454930192835460001981018181116121c65782116121905790611f9491613591565b906001820180831161217c5781106121745750955b861561213c57611fdb8730337f0000000000000000000000000000000000000000000000000000000000000000615b7f565b84885260168252604088208689528252604088203360005282526040600020541615612082575b907fb518e2d3616c08d6006532be4f044541cc610b897460c70043462f5ff19712249291848852601781526040882086895281526040882090336000525260406000206120508782546135b4565b905561205d8683546135b4565b9182905554604080519687526020870192909252908501523393606090a46001815580f35b83875260168152604087208588528152604087203360005281526040600020600160ff198254161790558387526015815260408720858852815260408720805490600160401b82101561212857816121039160017fb518e2d3616c08d6006532be4f044541cc610b897460c70043462f5ff1971224979695940181556133a7565b81546001600160a01b0360039290921b91821b19163390911b17905591925090612002565b634e487b7160e01b89526041600452602489fd5b60405162461bcd60e51b815260048101839052601060248201526f139bdd1a1a5b99c81858d8d95c1d195960821b6044820152606490fd5b905095611fa9565b634e487b7160e01b8a52601160045260248afd5b60405162461bcd60e51b815260048101859052600e60248201526d131a5c5d5a591a5d1e48199d5b1b60921b6044820152606490fd5b634e487b7160e01b8b52601160045260248bfd5b6064906040519062461bcd60e51b82526004820152600b60248201526a416d6f756e74207a65726f60a81b6044820152fd5b6064906040519062461bcd60e51b82526004820152600d60248201526c526f756e6420636c6f73696e6760981b6044820152fd5b6064906040519062461bcd60e51b82526004820152600f60248201526e149bdd5b99081b9bdd08199bdd5b99608a1b6044820152fd5b5083825414611f45565b34610453578060031936011261045357602060405160018152f35b34610453578060031936011261045357610593615adc565b346104535760203660031901126104535760043560195460018060a01b03808260201c163314159081612390575b50611846576006821015610f1157818352600a60205260ff60066040852001541661235a5760181c60ff16610f2357808252600a60205260408220600601805460ff191660011790556123338161537a565b7fdafa141a8af958d7a84cabde0f7268b548a11e070a9576865e8ac71d7107bce98280a280f35b60405162461bcd60e51b815260206004820152600e60248201526d416c72656164792061637469766560901b6044820152606490fd5b905060015416331415846122e1565b34610453578060031936011261045357602060ff60195460101c166040519015158152f35b34610453578060031936011261045357602060ff60065460a01c166040519015158152f35b34610453578060031936011261045357602060405160c88152f35b34610453578060031936011261045357602060405160038152f35b346104535760403660031901126104535761059b61243b613337565b602435906141a5565b3461045357612452366132a0565b9061245b615c1d565b8083526020600b81526040842083855281526040842090600382015460ff8160081c1690816127ab575b501561277557828552600981526040852084865281526040852054801561273e5762093a80810190818111610c0e5762093a8101809111610c2257421061270457826125cc928592828852600a815261253e604089206040516124e7816132c9565b6124f0826133f1565b815260018201548482015260c060ff60066002850154948560408601526003810154606086015260048101546080860152600581015460a086015201541615159101526002840154146141e1565b6008546040516305d3b1d360e41b81527f000000000000000000000000000000000000000000000000000000000000000060048201527f00000000000000000000000000000000000000000000000000000000000000006001600160401b031660248201526003604482015263ffffffff9091166064820152600160848201529481908690819060a4820190565b03818b7f00000000000000000000000000000000000000000000000000000000000000006001600160a01b03165af18895816126c9575b50612645575050505050600160ff1960195416176019557f87aed49f9e1122ee5a41e81240e92a8040577113a982cca7b01f8aebd866874e8380a36001815580f35b8460047f2894baf89477401428c5b7dfa04a94e8501ce376eacbc812ce44f070b0701ac293828b52601184528560408c2055601284528660408c2055015582885260098152604088208489528152426040892055604051858152a37f3f627f5e911e5f6d4e28a76a1af48bb55c89492569daa91a48a7330789dd1e5e8480a461198e565b9350945080935082813d83116126fd575b6126e481836132ff565b810103126126f85785928592519489612603565b600080fd5b503d6126da565b6064906040519062461bcd60e51b825260048201526013602482015272151a5b595bdd5d081b9bdd081c995858da1959606a1b6044820152fd5b60405162461bcd60e51b815260048101839052600f60248201526e4e6f20726571756573742074696d6560881b6044820152606490fd5b6064906040519062461bcd60e51b82526004820152600f60248201526e526f756e64206e6f7420737475636b60881b6044820152fd5b60ff9150161586612485565b3461045357806003193601126104535760206040517f00000000000000000000000000000000000000000000000000000000000000008152f35b3461045357806003193601126104535760206040516101f48152f35b3461045357606036600319011261045357612826613337565b6024356001600160a01b03818116918290036126f85761284461334d565b61284c615adc565b60195460ff8160081c166128fc57600354948386166128ea57831692831580156128e2575b80156128d8575b6109125761010092846001600160601b0360a01b8098161760035585876004541617600455168095600554161760055561ff001916176019557f6a67b1c8894b3cd9ea20c8d1fd6c8b51eb04c080639332340f9da26750e35d7d8480a480f35b5080831615612878565b508415612871565b60405163a741a04560e01b8152600490fd5b604051637bfa907b60e01b8152600490fd5b3461045357604061291e36613363565b939182526018602052828220908252602052209060018060a01b03166000526020526020604060002054604051908152f35b34610453578060031936011261045357602060ff601954166040519015158152f35b3461045357604061298236613363565b939182526016602052828220908252602052209060018060a01b0316600052602052602060ff604060002054166040519015158152f35b346104535760406020916129cc3661338d565b918352601b8552838320908352845282822090825283522054604051908152f35b3461045357806003193601126104535760195460018060a01b03808260201c163314159081612a29575b506118465760ff191660011760195580f35b90506001541633141583612a17565b34610453576020366003190112610453576020906040906001600160a01b03612a5f613337565b168152601483522054604051908152f35b346104535780600319360112610453576040517f00000000000000000000000000000000000000000000000000000000000000006001600160a01b03168152602090f35b3461045357806003193601126104535760195460018060a01b03808260201c163314159081612aed575b506118465760ff191660195580f35b90506001541633141583612ade565b346104535780600319360112610453576020600754604051908152f35b3461045357602036600319011261045357612b32613337565b612b3a615adc565b6019549060ff8260c01c16612bba576001600160a01b03811615612b8257640100000000600160c01b031990911660209190911b640100000000600160c01b03161760195580f35b60405162461bcd60e51b815260206004820152601060248201526f24b73b30b634b21033bab0b93234b0b760811b6044820152606490fd5b60405162461bcd60e51b815260206004820152602260248201527f477561726469616e206c6f636b65642061667465722066696e616c697a61746960448201526137b760f11b6064820152608490fd5b3461045357612c183661338d565b92918252600f6020526040822090825260205260408120908154831015610453576020610fd684846133a7565b346104535780600319360112610453576004546040516001600160a01b039091168152602090f35b3461045357602036600319011261045357612c86613337565b90612c8f615adc565b6001600160a01b03918216918215612d47577f000000000000000000000000000000000000000000000000000000000000000016803b15610f4757818091602460405180948193631daed9cb60e21b83528860048401525af18015612d3c57612d2d575b50906201000062ff00001960195416176019557f6e4ef29a2f35618644973d5d436189a9d7bcb686de432d7683866c8ead7cb2ff8280a280f35b612d36906132b6565b82612cf3565b6040513d84823e3d90fd5b60405162461bcd60e51b815260206004820152601060248201526f496e76616c696420747265617375727960801b6044820152606490fd5b346104535760203660031901126104535760406020916004358152601183522054604051908152f35b3461045357602036600319011261045357612dc1613337565b612dc9615adc565b6006549060ff8260a01c16612e53576001600160a01b0316908115612e24576001600160a81b0319168117600160a01b176006557fe125fc1c4fc17681e50eef0705e1f33efe22f55c6fa0dcf19096b5cf2b41f4958280a280f35b60405162461bcd60e51b8152602060048201526007602482015266125b9d985b1a5960ca1b6044820152606490fd5b60405162461bcd60e51b815260206004820152600c60248201526b105d591a5d081b1bd8dad95960a21b6044820152606490fd5b34610453578060031936011261045357602060ff60195460081c166040519015158152f35b346104535760c0612ec5612ebf36613363565b916135f4565b936040939193519586526020860152604085015260608401521515608083015260a0820152f35b34610453578060031936011261045357602063ffffffff60085416604051908152f35b34610453578060031936011261045357601954604051602091821c6001600160a01b03168152f35b34610453578060031936011261045357602060405160ff7f0000000000000000000000000000000000000000000000000000000000000000168152f35b34610453576020366003190112610453573033036106fe5761059b60043561537a565b34610453576040366003190112610453576024356001600160401b038111610f475736602382011215610f47578060040135612fd281613320565b91612fe060405193846132ff565b81835260209160248385019160051b8301019136831161307e57602401905b82821061306f5785857f00000000000000000000000000000000000000000000000000000000000000006001600160a01b0381163303613046575061059b90600435615767565b60405163073e64fd60e21b81523360048201526001600160a01b03919091166024820152604490fd5b81358152908301908301612fff565b8580fd5b346104535760ff6040602092613097366132a0565b908252601d855282822090825284522054166040519015158152f35b346104535780600319360112610453576006546040516001600160a01b039091168152602090f35b346104535760406020916130ee366132a0565b908252601f845282822090825283522054604051908152f35b3461045357604060209161311a366132a0565b90825283805282822090825283522054604051908152f35b3461045357613140366132a0565b919061314a615c1d565b808252602092600b8452604083208184528452604083209060ff600383015416156132245760068201546001600160a01b03169081156131f357838552601d865260408520818652865260ff6040862054166131b65761198e9495506005600784015493015493614846565b60405162461bcd60e51b8152600481018790526015602482015274141c9a5e9948185b1c9958591e481858d8dc9d5959605a1b6044820152606490fd5b60405162461bcd60e51b81526004810187905260096024820152682737903bb4b73732b960b91b6044820152606490fd5b60405162461bcd60e51b8152600481018690526013602482015272149bdd5b99081b9bdd0818dbdb5c1b195d1959606a1b6044820152606490fd5b34610f475781600319360112610f47576020906001600160401b037f0000000000000000000000000000000000000000000000000000000000000000168152f35b60409060031901126126f8576004359060243590565b6001600160401b03811161162757604052565b60e081019081106001600160401b0382111761162757604052565b60a081019081106001600160401b0382111761162757604052565b90601f801991011681019081106001600160401b0382111761162757604052565b6001600160401b0381116116275760051b60200190565b600435906001600160a01b03821682036126f857565b604435906001600160a01b03821682036126f857565b60609060031901126126f85760043590602435906044356001600160a01b03811681036126f85790565b60609060031901126126f857600435906024359060443590565b80548210156133bf5760005260206000200190600090565b634e487b7160e01b600052603260045260246000fd5b346126f85760003660031901126126f857602060405160648152f35b90604051906000835490600182811c908084169687156134b8575b60209485841089146134a457879884899798995290816000146134825750600114613443575b505050613441925003836132ff565b565b600090815285812095935091905b81831061346a5750506134419350820101388080613432565b85548884018501529485019487945091830191613451565b9250505061344194925060ff191682840152151560051b820101388080613432565b634e487b7160e01b85526022600452602485fd5b91607f169161340c565b919082519283825260005b8481106134ee575050826000602080949584010152601f8019910116010190565b6020818301810151848301820152016134cd565b90815180825260208080930193019160005b828110613522575050505090565b835185529381019392810192600101613514565b346126f85760003660031901126126f85760206040516103e88152f35b1561355a57565b60405162461bcd60e51b815260206004820152600f60248201526e149bdd5b990818dbdb5c1b195d1959608a1b6044820152606490fd5b9190820391821161359e57565b634e487b7160e01b600052601160045260246000fd5b9190820180921161359e57565b8181029291811591840414171561359e57565b81156135de570490565b634e487b7160e01b600052601260045260246000fd5b919290600092808452602094600b865260408086208487528752808620918387526017885281872085885288528187209060018060a01b03169081885288528187205497889560ff600e860154169589526018825283892090895281528288209188525285205494600a82015480156000146136c1575080935b84881580156136b5575b6136aa5750505080600b61369388600c61369c9501546135c1565b910154906135d4565b936136a785876135b4565b93565b919690959194509150565b50600b84015415613678565b600b830154612710908181029181830414901517156136ea57906136e4916135d4565b9361366e565b634e487b7160e01b83526011600452602483fd5b1561370557565b60405162461bcd60e51b815260206004820152600b60248201526a496e76616c69642071747960a81b6044820152606490fd5b1561373f57565b60405162461bcd60e51b81526020600482015260126024820152714e6f7420656e6f756768207469636b65747360701b6044820152606490fd5b600019811461359e5760010190565b91908110156133bf5760051b0190565b1561379f57565b60405162461bcd60e51b815260206004820152600f60248201526e141c9a58d9481d1bdbc81cdb585b1b608a1b6044820152606490fd5b906137e082613320565b6137ed60405191826132ff565b82815280926137fe601f1991613320565b0190602036910137565b90815491600160401b831015611627578261382b916001613441950181556133a7565b90919082549060031b91821b91600019901b1916179055565b80518210156133bf5760209160051b010190565b939291613875906040928652606060208701526060860190613502565b930152565b60ff7f000000000000000000000000000000000000000000000000000000000000000016601281146138cd5760120360ff811161359e5760ff1690604d821161359e576138ca91600a0a906135d4565b90565b5090565b906000918252601b6020526040822090825260205260408120828252602052604081205490811560001461390457505090565b60001982019250908211611109575090565b9091600092828452602090600f825260409384862082875283528486208054908115613a44578288526010855286882084895285528688208689528552868820548683821091821592613a4e575b5050613a445760001991808301908111613a305783895260108652878920858a528652878920878a52865287892054908082036139ef575b5050805480156139db578201916139b383836133a7565b909182549160031b1b1916905555855260108252838520908552815282842091845252812055565b634e487b7160e01b89526031600452602489fd5b6139f990836133a7565b90549060031b1c613a0e8161382b84866133a7565b848a5260108752888a20868b528752888a20908a52865287892055388061399c565b634e487b7160e01b89526011600452602489fd5b5050505050505050565b613a5a919250836133a7565b90549060031b1c14158638613964565b81156135de570690565b6004546001600160a01b0390811692908315613b6a578082168015908115613b70575b50613b6a57604051630308a59b60e31b81529083166004820152602081602481875afa908115613b2457600091613b30575b5015613ad457505050565b823b156126f85760405163bbddaca360e01b81526001600160a01b03928316600482015291166024820152906000908290604490829084905af18015613b2457613b1b5750565b613441906132b6565b6040513d6000823e3d90fd5b6020813d8211613b62575b81613b48602093836132ff565b81010312610f475751908115158203610453575038613ac9565b3d9150613b3b565b50505050565b90508184161438613a97565b51906001600160a01b03821682036126f857565b9093926000918252600b602052604094858320908352602052848220916113889384830294831590848704148117156136ea576103e89081850285810483148217159081610c225761271080910496613bf08260088b019b048b546135b4565b8a5560098901613c018982546135b4565b90556102bc8082029082820414851715610c9f5782613c4191047f00000000000000000000000000000000000000000000000000000000000000006149ba565b61012c98898202908282048b14861715613a305783600c613c669201920482546135b4565b90556003546001600160a01b03949085161561418f5783610c9f578460035416303b15614178578d516361eeeec760e01b81526001600160a01b03919091166004820152602481018a9052888160448183305af1908161417c575b5061412857613cd1898c546135b4565b8b555b600554851615614102576101f48083029083820414821715613a30578390048560055416303b156140c8578e516361eeeec760e01b81526001600160a01b039190911660048201526024810182905289808260448183305af191826140ee575b50506140e857613d45908c546135b4565b8b555b60c8820282810460c814821715613a305783613d8591047f00000000000000000000000000000000000000000000000000000000000000006149ba565b606482029182046064141715610c0e5790613dfa9104613dc5817f00000000000000000000000000000000000000000000000000000000000000006149ba565b613dd1816007546135b4565b6007557f00000000000000000000000000000000000000000000000000000000000000006149ba565b6140d4578395600492828454169182613e39575b50505050505050613e2192939450613591565b80613e2a575050565b613e359082546135b4565b9055565b8b51636667864d60e01b8152868516868201529798969790606082602481875afa9189838b928c95614077575b50613e8c5750505050505050505050613e2192939450905b849392388080808080613e0e565b989a99988616614046575b851661400b575b508316613fcf575b5086613ebe575b5050505050613e2192939450613e7e565b95939495303b1561307e5789516361eeeec760e01b81526001600160a01b03909116838201908152602081018690528690819083908190604001038183305af19182613fbb575b5050613f305750505083949550613f2090613e2194546135b4565b8455905b84939238808080613ead565b81541697883b15613fb757516375003aa160e01b81526001600160a01b03909216908201908152602081018390529096839188919082908490829060400103925af19586613fa3575b50613e2193949515600014613f9b57613f939085546135b4565b845590613f24565b919050613f24565b613fad83916132b6565b610f475738613f79565b8480fd5b613fc4906132b6565b61307e578538613f05565b60c8879892980287810460c81488151715613ff85790613ff1929104906135b4565b9538613ea6565b634e487b7160e01b875260118552602487fd5b80899a929a029089820414891517156140335784918361402c9204906135b4565b9890613e9e565b634e487b7160e01b885260118652602488fd5b99506101f4808a02908a8204148a1517156140645783900499613e97565b634e487b7160e01b895260118752602489fd5b92509350506060813d82116140cc575b81614094606093836132ff565b810103126140c8578d906140be6140aa82613b7c565b926140b760208401613b7c565b9201613b7c565b9190919338613e66565b8980fd5b3d9150614087565b634e487b7160e01b84526011600452602484fd5b50613d48565b6140f7906132b6565b6140c8578938613d34565b6101f48083029083820414821715613a30578361412191048c546135b4565b8b55613d48565b8460035416803b156141785788808f9260248d83955194859384926314c77c6560e11b845260048401525af1614160575b5050613cd4565b614169906132b6565b614174578738614159565b8780fd5b8880fd5b614188909991996132b6565b9738613cc1565b9250869261419e898c546135b4565b8b55613cd4565b903033036106fe5780156141dd57613441917f0000000000000000000000000000000000000000000000000000000000000000615b3e565b5050565b156141e857565b60405162461bcd60e51b815260206004820152600e60248201526d149bdd5b99081b9bdd08199d5b1b60921b6044820152606490fd5b9190600092808452602093600b85526040808220848352865280822095600387019660ff885460081c166143da576142fc9495969761426f6002830154888752600a855260028688200154146141e1565b60085484516305d3b1d360e41b81527f000000000000000000000000000000000000000000000000000000000000000060048201527f00000000000000000000000000000000000000000000000000000000000000006001600160401b031660248201526003604482015263ffffffff9091166064820152600160848201529583908790819060a4820190565b0381887f00000000000000000000000000000000000000000000000000000000000000006001600160a01b03165af19586156143d057859661439e575b508585526011835283852087905560128352838520889055805461ff00191661010017905560040184905584835260098152818320868452905281204290557f3f627f5e911e5f6d4e28a76a1af48bb55c89492569daa91a48a7330789dd1e5e9080a4565b909195508281813d83116143c9575b6143b781836132ff565b81010312613fb7575194906004614339565b503d6143ad565b84513d87823e3d90fd5b50606491519062461bcd60e51b82526004820152601560248201527415949188185b1c9958591e481c995c5d595cdd1959605a1b6044820152fd5b9081600052600b602052604060002081600052602052604060002090600e8201549260ff8416613b6a57600b83015492600c810154938260005260156020526040600020846000526020526040600020958115801561483d575b6147c4575082600052601e60205260406000208460005260205260406000205496606488019687891161359e578054600181018981831161359e5710156147bc575b508861478057829187995b995b8960001981011161359e576000198a018b116146ca576144de8b846133a7565b60018060a01b0391549060031b1c169a87600052601760205260406000208960005260205260406000208c6000526020526040600020549b8c156146be57845460001981019d908e1161359e5780888f8e9086146000146146a557505050839d8e5b9e60018601861161359e5760018601111561469c575b8303614696575085925b8360018801881161359e578e978c928c9260018301111561468d575b6145868a886135b4565b9183600052601860205260406000208560005260205260406000208660005260205260406000206145b88482546135b4565b90558c600d6145ca8a828401546135b4565b9101556145d783876149ba565b87808210614683576145e891613591565b995b808210614650576145fa91613591565b9f61464a966146427f2088942f79fa9635b1d4cd7de6181f28fe0bf82e7b412a369abf7b4bb802f430935b604051938493846040919493926060820195825260208201520152565b0390a4613779565b996144be565b505060009f61464a966146427f2088942f79fa9635b1d4cd7de6181f28fe0bf82e7b412a369abf7b4bb802f43093614625565b50506000996145ea565b9550809561457c565b92614560565b9d50839d614556565b6146b7926146b2916135c1565b6135d4565b9d8e614540565b5061464a919b50613779565b91929099509792939496959787600052601e6020526040600020896000526020528360406000205587600052601f6020526040600020896000526020526040600020558660005260208052604060002088600052602052604060002055541115614736575b5050505050565b7f06b9c933db9fbf6279b8ff8d288ce20d36f2b65cfdbdd29b1c6d948287c0fdeb92604092600e600160ff1982840154161791015582519182526020820152a3388080808061472f565b84600052601f602052604060002086600052602052604060002054918560005260208052604060002087600052602052604060002054996144bc565b9750386144b1565b7f06b9c933db9fbf6279b8ff8d288ce20d36f2b65cfdbdd29b1c6d948287c0fdeb94965091600e600160409597939460ff1916179101558061480e575b82519182526020820152a3565b614838817f00000000000000000000000000000000000000000000000000000000000000006149ba565b614801565b5086541561446f565b929493906000848152602090600b8252604090818120848252835281812098878252600a84528683832096845161487c816132c9565b614885896133f1565b81526001890154878201526002890154868201526003890154606082015260048901549860808201998a52600581015460a08301526006015460ff1615159060c00152898452601d8652848420878552865284842060ff19815416600117905560088c01546148f490836149ba565b6148ff92878b614eb3565b98600901549060018a0190818b11611109575084938a61495896946134419b9c857f96e171f43abc1ef0a7e309ae1b6fb8e9805de3058cfe90c0ef39876c4c203857958d97101561495f575b505051908152a384614415565b5190614a10565b6149b39161496c91613591565b7f00000000000000000000000000000000000000000000000000000000000000007f0000000000000000000000000000000000000000000000000000000000000000615b3e565b813861494b565b81156141dd5760207f37188942ca914a9a4b1824299eb9271c52627e054678d409439f1ce5b34628239160018060a01b03169283600052601382526040600020614a058282546135b4565b9055604051908152a2565b91906000908015613b6a5760408051633f27266b60e21b80825290956020936001600160a01b039391927f000000000000000000000000000000000000000000000000000000000000000085169190868a600481865afa998a15614c6057889a614c31575b50600019820199828b11613a30578a811115614bbe5750823b156141745783516307b22ee360e21b81526001600160a01b038616600482015260248101839052888160448183885af19081614bab575b50614b9f578690600485518095819382525afa918215614b95578792614b58575b50613441987fdd70b41bbef091f98f5388c2ff8a6ccaf7c77729f334e783761fb1c6088c003f9695949392839290918211614b505750965b87614b32575b5050519485521692a2614c6a565b84841681526014865220614b478782546135b4565b90558038614b24565b905096614b1e565b909580959493925081813d8311614b8e575b614b7481836132ff565b810103126126f85751939492939192909190613441614ae6565b503d614b6a565b83513d89823e3d90fd5b50505050505050505050565b614bb7909991996132b6565b9738614ac5565b95989196949397995050614bd29150614c6a565b82614be1575b50505050505050565b7fe1a59f77e207bfb9a5c48b12d039b2ee17b932f138c279824a9a381c1f313f0e95859116968781526014835220614c1a8382546135b4565b90558351928352820152a238808080808080614bd8565b9099508681813d8311614c59575b614c4981836132ff565b8101031261417457519838614a75565b503d614c3f565b84513d8a823e3d90fd5b80600052600a6020526006604060002001805460ff8116614c8a57505050565b60ff191690557fa59be52632c4b7921b8b3fbd4b3904513421c74fe4fbdb2f7ceef33b87fe3bf6600080a2613441614cfc565b3d15614cf7573d906001600160401b0382116116275760405191614ceb601f8201601f1916602001846132ff565b82523d6000602084013e565b606090565b6019549060009160ff809160181c16614eae57825b6005811115614e84575050604051633f27266b60e21b81526020907f00000000000000000000000000000000000000000000000000000000000000006001600160a01b03168282600481845afa918215614e79578592614e4a575b5081614d8d575b5050509050630100000063ff000000196019541617601955565b803b15613fb7579380807fb099661b3d34992531a20e84e63375dcdd54b051378963cae3b2a198aaa23dad95966024604051809581936357d020cf60e01b83528860048401525af19182614e3b575b5090614e3557807f44232928b0d605f94135daacd2d0446a78a3b33eaadb29e8a9e42d045a440b54614e21614e0f614cbd565b604051918291888352888301906134c2565b0390a35b604051908152a180388080614d73565b50614e25565b614e44906132b6565b38614ddc565b9091508281813d8311614e72575b614e6281836132ff565b81010312613fb757519038614d6c565b503d614e58565b6040513d87823e3d90fd5b808452600a60205281600660408620015416614ea857614ea390613779565b614d11565b50509050565b509050565b92909194936101205260009183600052600b60205260406000208160005260205260406000209184600052600a60205260406000209660405192614ef6846132c9565b614eff896133f1565b84526001890154602085015260ff600660028b01549a8b60408801526003810154606088015260048101546080880152600581015460a0880152015416151560c0850152881561536d576103e892838a0661535f576029848b04810204848b040361359e57600a848b04810204848b040361359e576005848b04810204848b040361359e576006848b04810204848b040361359e57614fbc848b046006810290614fb79060058102908290600a8102906029026135b4565b6135b4565b60e05260208501518080046001148115171561359e57614fdb9061387a565b9560208601518060011b908082046002149015171561359e57614ffd9061387a565b9560208101518060038102046003148115171561359e576003615020910261387a565b60a052602081015190818060021b046004148215171561359e5761504860209260021b61387a565b60c05201516064868d04810204868d040361359e57615072610cce600992888f04606402906135c1565b91826080520154600019820191821161359e57111561535f578960001981011161359e576150a46000198b0182613a6a565b60018101811161359e57600101610140525b610140518a90815b61534e5760019150146150ed57896150d861014051613779565b8061014052106150b6576001610140526150b6565b8961512b919a9798999a604051602081019182528b60408201528460608201523060601b608082015260748152615123816132e4565b519020613a6a565b6101805260006101605261514160e051876135b4565b610100526000965b610100518060001981011161359e576000190188111580615330575b156153245761c34f5a111561532457608051811015615324576151978761519261014051610180516135b4565b613a6a565b80610180528381146153195760008a8152600d60209081526040808320868452825280832093835292905220546001600160a01b031690811561530e57610120516001600160a01b0316821461530e5760298589040260001981011161359e57610160516029868a0402600019011061528c5786915b61521982608051613591565b801561527d576001810180821161359e57841015615275575b508215615267579161524b91614fb782615261956149ba565b9761525861016051613779565b61016052613779565b96615149565b509850505050505050505090565b925038615232565b50509850505050505050505090565b6152a0858904600a02868a046029026135b4565b8060001981011161359e57600019016101605111156000146152c357859161520d565b6152e0858904600502614fb7878b04600a02888c046029026135b4565b8060001981011161359e57600019016101605111156000146153055760a0519161520d565b60c0519161520d565b976152619150613779565b509661526190613779565b97505050505050505090565b5060e0518060001981011161359e5760001901610160511115615165565b8161535891613a6a565b90816150be565b506000985050505050505050565b5060009750505050505050565b80600052600c60205260406000205460018101811161359e5781600052600c602052600181016040600020556153af826156bc565b906040516102008101928184106001600160401b0385111761162757600493604052848252600183016020830152600060408301526000606083015260006080830152600060a0830152600060c0830152600060e0830152600061010083015260006101208301526000610140830152610160820152600061018082015260006101a082015260006101c082015260006101e082015283600052600b60205260406000206001830160005260205261555860406000208251815560208301516001820155604083015160028201556003810161549d60608501511515829060ff801983541691151516179055565b6080840151151561ff0082549160081b169061ff00191617905560a08301518582015560c08301516005820155600e6101e0600683019460018060a01b03958660e0830151166001600160601b0360a01b825416179055610100810151600785015561012081015160088501556101408101516009850155610160810151600a850155610180810151600b8501556101a0810151600c8501556101c0810151600d8501550151151591019060ff801983541691151516179055565b83600052600a602052600260406000200154601c60205260406000206001840160005260205260406000205583600052600a60205260206155f560406000206040516155a3816132c9565b6155ac826133f1565b81526001820154848201526002820154604082015260038201549081606082015260c060ff60068a86015495866080860152600581015460a086015201541615159101526135b4565b9160405194858092633f27266b60e21b82527f0000000000000000000000000000000000000000000000000000000000000000165afa928315613b2457600093615688575b50600019810190811161359e57600192111561567a575b01907ffee93879a5e67f5411452c57c1bc6f494462a67847f16a8ae120e5ff78e8b9c3600080a3565b61568383614c6a565b615651565b9092506020813d6020116156b4575b816156a4602093836132ff565b810103126126f85751913861563a565b3d9150615697565b600052600a6020526040600020604051906156d6826132c9565b6156df816133f1565b825260018101549182602082015260c060ff60066002850154948560408601526003810154606086015260048101546080860152600581015460a086015201541615159101528015801561575a575b615753576103e89004908160640291606483040361359e576138ca91610cce916135c1565b5050600090565b506103e88106151561572e565b60009081526020906011825260409081812054936012845282822054858352600b8552838320818452855283832091868452600a8652848420928551936157ad856132c9565b6157b6816133f1565b855260018101548886015260028101549460c060ff60068a8401948986526003810154606086015260048101546080860152600581015460a08601520154161515910152600382019283549560ff8760081c16158015615ad2575b615ac557600284015403614b9f57805115615ab15788615835910151915182613a6a565b898752600d895287872085885289528787208188528952878720546001600160a01b0316959093908615615a1c57600584018390556006840180546001600160a01b031916881790556007840185905560ff19166001179055303b1561307e57918691899383519063e9bb927f60e01b82528560048301528660248301528760448301528360648301526084820152878160a48183305af190816159e1575b507e706d4e712e28530b00b7eb917a52cdd384f93a89105f8161b97223b3ae18719392916008916159dc5786867f44232928b0d605f94135daacd2d0446a78a3b33eaadb29e8a9e42d045a440b548d61592b614cbd565b9061593f89519282849384528301906134c2565b0390a35b015490825191825289820152a4303b15610453578151630840e4d760e21b81526004810185905290808260248183305af191826159c8575b50506159c3577f31b20c3f09616fa49b6ca2ac3b45af9d890bc68b88788b063eead0e40613712e916159be6159ae614cbd565b92519282849384528301906134c2565b0390a2565b505050565b6159d282916132b6565b610453578061597b565b615943565b9160089198615a117e706d4e712e28530b00b7eb917a52cdd384f93a89105f8161b97223b3ae18719695946132b6565b9891509192936158d4565b50505050509493905082919251917077696e6e65725f736c6f745f656d70747960781b8284015260118352808301938385106001600160401b03861117615a9d575083905282527f44232928b0d605f94135daacd2d0446a78a3b33eaadb29e8a9e42d045a440b549190603f1990615a9760608201826134c2565b030190a3565b634e487b7160e01b81526041600452602490fd5b634e487b7160e01b87526032600452602487fd5b5050505050505050505050565b5060ff8716615811565b6001546001600160a01b03163303611ebc57565b600280546001600160a01b03199081169091556001805491821690556000906001600160a01b03167f8be0079c531659141344cd1fd0a4f28419497f9722a3daafe3b4186f6b6457e08280a3565b60405163a9059cbb60e01b60208201526001600160a01b0392909216602483015260448083019390935291815261344191615b7a6064836132ff565b615bc1565b6040516323b872dd60e01b60208201526001600160a01b03928316602482015292909116604483015260648083019390935291815261344191615b7a826132e4565b906000602091828151910182855af115613b24576000513d615c1457506001600160a01b0381163b155b615bf25750565b604051635274afe760e01b81526001600160a01b039091166004820152602490fd5b60011415615beb565b600260005414615c2e576002600055565b604051633ee5aeb560e01b8152600490fdfea26469706673582212208d0e3bfebee569a1c8e82eab24b9a8f0228f05edc82d9ec5002f1e256501b62664736f6c63430008140033b099661b3d34992531a20e84e63375dcdd54b051378963cae3b2a198aaa23dad","linkReferences":{}},"methodIdentifiers":{"MAX_INVESTORS_PER_SETTLEMENT()":"faaec719","NUM_WORDS()":"72cf6e34","PCT_AMBASSADORS()":"60ae23f6","PCT_AUDIT()":"7b73ca82","PCT_FEES()":"690e4b52","PCT_FOUNDER()":"87d4704f","PCT_INSTANT()":"c6ae540d","PCT_INVESTOR()":"8e18e629","PCT_OPS_SERVICE()":"eef9b699","PCT_PARTNER()":"58218923","PCT_PRIZE_POOL()":"e05dac05","PCT_REFERRALS()":"ff396d6b","PCT_TREASURY_BTC()":"daeadc5e","PRODUCT_COUNT()":"976286e2","REQUEST_CONFIRMATIONS()":"67f082b0","VRF_TIMEOUT()":"f4d1c5f6","_externalSettle(uint256,uint256,address,uint256,uint256)":"e9bb927f","_externalStartNewRound(uint256)":"2103935c","_safeTransferOut(address,uint256)":"61eeeec7","acceptOwnership()":"79ba5097","ambassadorRegistry()":"be8c2feb","auditAccrued()":"49f474af","auditFunds()":"182be553","auditFundsLocked()":"6b12ec5c","availableTickets(uint256,uint256,uint256)":"474b9894","buySpecificTickets(uint256,uint256[],address)":"d8b945aa","buyTickets(uint256,uint256,address)":"a792813c","callbackGasLimit()":"24f74697","claimNXL()":"8dabaf67","claimStable()":"b402f4d3","claimableNXL(address)":"50cfd41e","claimableStable(address)":"fc4d6cd2","configureNXLTokenTreasury(address)":"44969fba","continueSettlement(uint256,uint256)":"98653262","currentRound(uint256)":"f64d85af","ecosystemLocked()":"36834cd4","emergencyPause()":"51858e27","emergencyUnpause()":"4a4e3bd5","feesReceiver()":"bca93cf5","finalizeAutonomy()":"f1ea8288","founder()":"4d853ee5","getInvestorPosition(uint256,uint256,address)":"2d059077","getRoundInvestors(uint256,uint256)":"813757ea","getRoundLiquidityStatus(uint256,uint256)":"bda9fea6","getTicketOwner(uint256,uint256,uint256)":"7837389a","getUserTickets(uint256,uint256,address)":"9a2b3012","globalStopped()":"a71cf8c6","keyHash()":"61728f39","liquiditySettleIndex(uint256,uint256)":"937ba8e6","manualSettle(uint256,uint256)":"0a368449","nxlToken()":"89ef723b","nxlTreasuryConfigured()":"6bf9c04a","operationsService()":"8efc3f31","owner()":"8da5cb5b","partner()":"be10862b","pauseGuardian()":"24a3d622","pauseGuardianLocked()":"e0138c0c","paused()":"5c975abb","pendingOwner()":"e30c3978","products(uint256)":"7acc0b20","provideRoundLiquidity(uint256,uint256,uint256)":"768ff2fe","rawFulfillRandomWords(uint256,uint256[])":"1fe543e3","reactivateProduct(uint256)":"6e0e5332","referralNetwork()":"4644ea4b","renounceOwnership()":"715018a6","resolveStuckRound(uint256,uint256)":"61b9722b","roundInvestorKnown(uint256,uint256,address)":"59f05678","roundInvestorPrincipal(uint256,uint256,address)":"87479918","roundInvestorReturned(uint256,uint256,address)":"5ce23d96","roundPrizeAccrued(uint256,uint256)":"19433bf7","roundVRFRequestTime(uint256,uint256)":"aa5f7fcc","rounds(uint256,uint256)":"e6da9213","s_vrfCoordinator()":"9eccacf6","setAuditFunds(address)":"41259bc0","setCallbackGasLimit(uint32)":"a4eb718c","setEcosystemAddresses(address,address,address)":"5eafb553","setPauseGuardian(address)":"48bde20c","settleRemainingPrincipal(uint256,uint256)":"0f60d4dd","settleRemainingProfit(uint256,uint256)":"0af54e16","stableDecimals()":"2104d3fa","stablecoin()":"e9cbd822","subscriptionId()":"09c1ba2e","ticketIndexInAvailable(uint256,uint256,uint256)":"ac23c299","ticketOwner(uint256,uint256,uint256)":"80b70e37","ticketSwapMap(uint256,uint256,uint256)":"56ec5a40","ticketsRemaining(uint256,uint256)":"91b5433d","transferOwnership(address)":"f2fde38b","treasuryBTC()":"eb348f83","userTickets(uint256,uint256,address,uint256)":"cb1b5106","vrfRequestToProduct(uint256)":"42b511c4","vrfRequestToRound(uint256)":"d5aa06fa","withdrawAuditFunds()":"dc66f11f"},"storageLayout":{"storage":[{"astId":55225,"contract":"contracts/NexumManager.sol:NexumManager","label":"_status","offset":0,"slot":"0","type":"t_uint256"},{"astId":53597,"contract":"contracts/NexumManager.sol:NexumManager","label":"_owner","offset":0,"slot":"1","type":"t_address"},{"astId":53745,"contract":"contracts/NexumManager.sol:NexumManager","label":"_pendingOwner","offset":0,"slot":"2","type":"t_address"},{"astId":2876,"contract":"contracts/NexumManager.sol:NexumManager","label":"treasuryBTC","offset":0,"slot":"3","type":"t_address"},{"astId":2878,"contract":"contracts/NexumManager.sol:NexumManager","label":"referralNetwork","offset":0,"slot":"4","type":"t_address"},{"astId":2880,"contract":"contracts/NexumManager.sol:NexumManager","label":"ambassadorRegistry","offset":0,"slot":"5","type":"t_address"},{"astId":2886,"contract":"contracts/NexumManager.sol:NexumManager","label":"auditFunds","offset":0,"slot":"6","type":"t_address"},{"astId":2888,"contract":"contracts/NexumManager.sol:NexumManager","label":"auditFundsLocked","offset":20,"slot":"6","type":"t_bool"},{"astId":2890,"contract":"contracts/NexumManager.sol:NexumManager","label":"auditAccrued","offset":0,"slot":"7","type":"t_uint256"},{"astId":2900,"contract":"contracts/NexumManager.sol:NexumManager","label":"callbackGasLimit","offset":0,"slot":"8","type":"t_uint32"},{"astId":2912,"contract":"contracts/NexumManager.sol:NexumManager","label":"roundVRFRequestTime","offset":0,"slot":"9","type":"t_mapping(t_uint256,t_mapping(t_uint256,t_uint256))"},{"astId":2920,"contract":"contracts/NexumManager.sol:NexumManager","label":"products","offset":0,"slot":"10","type":"t_mapping(t_uint256,t_struct(NexumProduct)2829_storage)"},{"astId":2930,"contract":"contracts/NexumManager.sol:NexumManager","label":"rounds","offset":0,"slot":"11","type":"t_mapping(t_uint256,t_mapping(t_uint256,t_struct(Round)2862_storage))"},{"astId":2934,"contract":"contracts/NexumManager.sol:NexumManager","label":"currentRound","offset":0,"slot":"12","type":"t_mapping(t_uint256,t_uint256)"},{"astId":2942,"contract":"contracts/NexumManager.sol:NexumManager","label":"ticketOwner","offset":0,"slot":"13","type":"t_mapping(t_uint256,t_mapping(t_uint256,t_mapping(t_uint256,t_address)))"},{"astId":2951,"contract":"contracts/NexumManager.sol:NexumManager","label":"userTickets","offset":0,"slot":"14","type":"t_mapping(t_uint256,t_mapping(t_uint256,t_mapping(t_address,t_array(t_uint256)dyn_storage)))"},{"astId":2958,"contract":"contracts/NexumManager.sol:NexumManager","label":"availableTickets","offset":0,"slot":"15","type":"t_mapping(t_uint256,t_mapping(t_uint256,t_array(t_uint256)dyn_storage))"},{"astId":2966,"contract":"contracts/NexumManager.sol:NexumManager","label":"ticketIndexInAvailable","offset":0,"slot":"16","type":"t_mapping(t_uint256,t_mapping(t_uint256,t_mapping(t_uint256,t_uint256)))"},{"astId":2970,"contract":"contracts/NexumManager.sol:NexumManager","label":"vrfRequestToProduct","offset":0,"slot":"17","type":"t_mapping(t_uint256,t_uint256)"},{"astId":2974,"contract":"contracts/NexumManager.sol:NexumManager","label":"vrfRequestToRound","offset":0,"slot":"18","type":"t_mapping(t_uint256,t_uint256)"},{"astId":2978,"contract":"contracts/NexumManager.sol:NexumManager","label":"claimableStable","offset":0,"slot":"19","type":"t_mapping(t_address,t_uint256)"},{"astId":2982,"contract":"contracts/NexumManager.sol:NexumManager","label":"claimableNXL","offset":0,"slot":"20","type":"t_mapping(t_address,t_uint256)"},{"astId":2989,"contract":"contracts/NexumManager.sol:NexumManager","label":"roundInvestorList","offset":0,"slot":"21","type":"t_mapping(t_uint256,t_mapping(t_uint256,t_array(t_address)dyn_storage))"},{"astId":2997,"contract":"contracts/NexumManager.sol:NexumManager","label":"roundInvestorKnown","offset":0,"slot":"22","type":"t_mapping(t_uint256,t_mapping(t_uint256,t_mapping(t_address,t_bool)))"},{"astId":3005,"contract":"contracts/NexumManager.sol:NexumManager","label":"roundInvestorPrincipal","offset":0,"slot":"23","type":"t_mapping(t_uint256,t_mapping(t_uint256,t_mapping(t_address,t_uint256)))"},{"astId":3013,"contract":"contracts/NexumManager.sol:NexumManager","label":"roundInvestorReturned","offset":0,"slot":"24","type":"t_mapping(t_uint256,t_mapping(t_uint256,t_mapping(t_address,t_uint256)))"},{"astId":3048,"contract":"contracts/NexumManager.sol:NexumManager","label":"paused","offset":0,"slot":"25","type":"t_bool"},{"astId":3050,"contract":"contracts/NexumManager.sol:NexumManager","label":"ecosystemLocked","offset":1,"slot":"25","type":"t_bool"},{"astId":3052,"contract":"contracts/NexumManager.sol:NexumManager","label":"nxlTreasuryConfigured","offset":2,"slot":"25","type":"t_bool"},{"astId":3054,"contract":"contracts/NexumManager.sol:NexumManager","label":"globalStopped","offset":3,"slot":"25","type":"t_bool"},{"astId":3057,"contract":"contracts/NexumManager.sol:NexumManager","label":"pauseGuardian","offset":4,"slot":"25","type":"t_address"},{"astId":3059,"contract":"contracts/NexumManager.sol:NexumManager","label":"pauseGuardianLocked","offset":24,"slot":"25","type":"t_bool"},{"astId":3066,"contract":"contracts/NexumManager.sol:NexumManager","label":"_roundTicketNonce","offset":0,"slot":"26","type":"t_mapping(t_uint256,t_mapping(t_uint256,t_uint256))"},{"astId":4859,"contract":"contracts/NexumManager.sol:NexumManager","label":"ticketSwapMap","offset":0,"slot":"27","type":"t_mapping(t_uint256,t_mapping(t_uint256,t_mapping(t_uint256,t_uint256)))"},{"astId":4865,"contract":"contracts/NexumManager.sol:NexumManager","label":"ticketsRemaining","offset":0,"slot":"28","type":"t_mapping(t_uint256,t_mapping(t_uint256,t_uint256))"},{"astId":6129,"contract":"contracts/NexumManager.sol:NexumManager","label":"roundPrizeAccrued","offset":0,"slot":"29","type":"t_mapping(t_uint256,t_mapping(t_uint256,t_bool))"},{"astId":6334,"contract":"contracts/NexumManager.sol:NexumManager","label":"liquiditySettleIndex","offset":0,"slot":"30","type":"t_mapping(t_uint256,t_mapping(t_uint256,t_uint256))"},{"astId":6341,"contract":"contracts/NexumManager.sol:NexumManager","label":"settleRemainingPrincipal","offset":0,"slot":"31","type":"t_mapping(t_uint256,t_mapping(t_uint256,t_uint256))"},{"astId":6347,"contract":"contracts/NexumManager.sol:NexumManager","label":"settleRemainingProfit","offset":0,"slot":"32","type":"t_mapping(t_uint256,t_mapping(t_uint256,t_uint256))"}],"types":{"t_address":{"encoding":"inplace","label":"address","numberOfBytes":"20"},"t_array(t_address)dyn_storage":{"encoding":"dynamic_array","label":"address[]","numberOfBytes":"32","base":"t_address"},"t_array(t_uint256)dyn_storage":{"encoding":"dynamic_array","label":"uint256[]","numberOfBytes":"32","base":"t_uint256"},"t_bool":{"encoding":"inplace","label":"bool","numberOfBytes":"1"},"t_mapping(t_address,t_array(t_uint256)dyn_storage)":{"encoding":"mapping","key":"t_address","label":"mapping(address => uint256[])","numberOfBytes":"32","value":"t_array(t_uint256)dyn_storage"},"t_mapping(t_address,t_bool)":{"encoding":"mapping","key":"t_address","label":"mapping(address => bool)","numberOfBytes":"32","value":"t_bool"},"t_mapping(t_address,t_uint256)":{"encoding":"mapping","key":"t_address","label":"mapping(address => uint256)","numberOfBytes":"32","value":"t_uint256"},"t_mapping(t_uint256,t_address)":{"encoding":"mapping","key":"t_uint256","label":"mapping(uint256 => address)","numberOfBytes":"32","value":"t_address"},"t_mapping(t_uint256,t_array(t_address)dyn_storage)":{"encoding":"mapping","key":"t_uint256","label":"mapping(uint256 => address[])","numberOfBytes":"32","value":"t_array(t_address)dyn_storage"},"t_mapping(t_uint256,t_array(t_uint256)dyn_storage)":{"encoding":"mapping","key":"t_uint256","label":"mapping(uint256 => uint256[])","numberOfBytes":"32","value":"t_array(t_uint256)dyn_storage"},"t_mapping(t_uint256,t_bool)":{"encoding":"mapping","key":"t_uint256","label":"mapping(uint256 => bool)","numberOfBytes":"32","value":"t_bool"},"t_mapping(t_uint256,t_mapping(t_address,t_array(t_uint256)dyn_storage))":{"encoding":"mapping","key":"t_uint256","label":"mapping(uint256 => mapping(address => uint256[]))","numberOfBytes":"32","value":"t_mapping(t_address,t_array(t_uint256)dyn_storage)"},"t_mapping(t_uint256,t_mapping(t_address,t_bool))":{"encoding":"mapping","key":"t_uint256","label":"mapping(uint256 => mapping(address => bool))","numberOfBytes":"32","value":"t_mapping(t_address,t_bool)"},"t_mapping(t_uint256,t_mapping(t_address,t_uint256))":{"encoding":"mapping","key":"t_uint256","label":"mapping(uint256 => mapping(address => uint256))","numberOfBytes":"32","value":"t_mapping(t_address,t_uint256)"},"t_mapping(t_uint256,t_mapping(t_uint256,t_address))":{"encoding":"mapping","key":"t_uint256","label":"mapping(uint256 => mapping(uint256 => address))","numberOfBytes":"32","value":"t_mapping(t_uint256,t_address)"},"t_mapping(t_uint256,t_mapping(t_uint256,t_array(t_address)dyn_storage))":{"encoding":"mapping","key":"t_uint256","label":"mapping(uint256 => mapping(uint256 => address[]))","numberOfBytes":"32","value":"t_mapping(t_uint256,t_array(t_address)dyn_storage)"},"t_mapping(t_uint256,t_mapping(t_uint256,t_array(t_uint256)dyn_storage))":{"encoding":"mapping","key":"t_uint256","label":"mapping(uint256 => mapping(uint256 => uint256[]))","numberOfBytes":"32","value":"t_mapping(t_uint256,t_array(t_uint256)dyn_storage)"},"t_mapping(t_uint256,t_mapping(t_uint256,t_bool))":{"encoding":"mapping","key":"t_uint256","label":"mapping(uint256 => mapping(uint256 => bool))","numberOfBytes":"32","value":"t_mapping(t_uint256,t_bool)"},"t_mapping(t_uint256,t_mapping(t_uint256,t_mapping(t_address,t_array(t_uint256)dyn_storage)))":{"encoding":"mapping","key":"t_uint256","label":"mapping(uint256 => mapping(uint256 => mapping(address => uint256[])))","numberOfBytes":"32","value":"t_mapping(t_uint256,t_mapping(t_address,t_array(t_uint256)dyn_storage))"},"t_mapping(t_uint256,t_mapping(t_uint256,t_mapping(t_address,t_bool)))":{"encoding":"mapping","key":"t_uint256","label":"mapping(uint256 => mapping(uint256 => mapping(address => bool)))","numberOfBytes":"32","value":"t_mapping(t_uint256,t_mapping(t_address,t_bool))"},"t_mapping(t_uint256,t_mapping(t_uint256,t_mapping(t_address,t_uint256)))":{"encoding":"mapping","key":"t_uint256","label":"mapping(uint256 => mapping(uint256 => mapping(address => uint256)))","numberOfBytes":"32","value":"t_mapping(t_uint256,t_mapping(t_address,t_uint256))"},"t_mapping(t_uint256,t_mapping(t_uint256,t_mapping(t_uint256,t_address)))":{"encoding":"mapping","key":"t_uint256","label":"mapping(uint256 => mapping(uint256 => mapping(uint256 => address)))","numberOfBytes":"32","value":"t_mapping(t_uint256,t_mapping(t_uint256,t_address))"},"t_mapping(t_uint256,t_mapping(t_uint256,t_mapping(t_uint256,t_uint256)))":{"encoding":"mapping","key":"t_uint256","label":"mapping(uint256 => mapping(uint256 => mapping(uint256 => uint256)))","numberOfBytes":"32","value":"t_mapping(t_uint256,t_mapping(t_uint256,t_uint256))"},"t_mapping(t_uint256,t_mapping(t_uint256,t_struct(Round)2862_storage))":{"encoding":"mapping","key":"t_uint256","label":"mapping(uint256 => mapping(uint256 => struct NexumManager.Round))","numberOfBytes":"32","value":"t_mapping(t_uint256,t_struct(Round)2862_storage)"},"t_mapping(t_uint256,t_mapping(t_uint256,t_uint256))":{"encoding":"mapping","key":"t_uint256","label":"mapping(uint256 => mapping(uint256 => uint256))","numberOfBytes":"32","value":"t_mapping(t_uint256,t_uint256)"},"t_mapping(t_uint256,t_struct(NexumProduct)2829_storage)":{"encoding":"mapping","key":"t_uint256","label":"mapping(uint256 => struct NexumManager.NexumProduct)","numberOfBytes":"32","value":"t_struct(NexumProduct)2829_storage"},"t_mapping(t_uint256,t_struct(Round)2862_storage)":{"encoding":"mapping","key":"t_uint256","label":"mapping(uint256 => struct NexumManager.Round)","numberOfBytes":"32","value":"t_struct(Round)2862_storage"},"t_mapping(t_uint256,t_uint256)":{"encoding":"mapping","key":"t_uint256","label":"mapping(uint256 => uint256)","numberOfBytes":"32","value":"t_uint256"},"t_string_storage":{"encoding":"bytes","label":"string","numberOfBytes":"32"},"t_struct(NexumProduct)2829_storage":{"encoding":"inplace","label":"struct NexumManager.NexumProduct","numberOfBytes":"224","members":[{"astId":2816,"contract":"contracts/NexumManager.sol:NexumManager","label":"name","offset":0,"slot":"0","type":"t_string_storage"},{"astId":2818,"contract":"contracts/NexumManager.sol:NexumManager","label":"priceUSDE18","offset":0,"slot":"1","type":"t_uint256"},{"astId":2820,"contract":"contracts/NexumManager.sol:NexumManager","label":"maxTickets","offset":0,"slot":"2","type":"t_uint256"},{"astId":2822,"contract":"contracts/NexumManager.sol:NexumManager","label":"nxlPerTicket","offset":0,"slot":"3","type":"t_uint256"},{"astId":2824,"contract":"contracts/NexumManager.sol:NexumManager","label":"nxlWinnerBonus","offset":0,"slot":"4","type":"t_uint256"},{"astId":2826,"contract":"contracts/NexumManager.sol:NexumManager","label":"jackpotUSDE18","offset":0,"slot":"5","type":"t_uint256"},{"astId":2828,"contract":"contracts/NexumManager.sol:NexumManager","label":"active","offset":0,"slot":"6","type":"t_bool"}]},"t_struct(Round)2862_storage":{"encoding":"inplace","label":"struct NexumManager.Round","numberOfBytes":"480","members":[{"astId":2831,"contract":"contracts/NexumManager.sol:NexumManager","label":"productId","offset":0,"slot":"0","type":"t_uint256"},{"astId":2833,"contract":"contracts/NexumManager.sol:NexumManager","label":"roundId","offset":0,"slot":"1","type":"t_uint256"},{"astId":2835,"contract":"contracts/NexumManager.sol:NexumManager","label":"ticketsSold","offset":0,"slot":"2","type":"t_uint256"},{"astId":2837,"contract":"contracts/NexumManager.sol:NexumManager","label":"completed","offset":0,"slot":"3","type":"t_bool"},{"astId":2839,"contract":"contracts/NexumManager.sol:NexumManager","label":"vrfRequested","offset":1,"slot":"3","type":"t_bool"},{"astId":2841,"contract":"contracts/NexumManager.sol:NexumManager","label":"vrfRequestId","offset":0,"slot":"4","type":"t_uint256"},{"astId":2843,"contract":"contracts/NexumManager.sol:NexumManager","label":"vrfRandomWord","offset":0,"slot":"5","type":"t_uint256"},{"astId":2845,"contract":"contracts/NexumManager.sol:NexumManager","label":"winner","offset":0,"slot":"6","type":"t_address"},{"astId":2847,"contract":"contracts/NexumManager.sol:NexumManager","label":"winningTicket","offset":0,"slot":"7","type":"t_uint256"},{"astId":2849,"contract":"contracts/NexumManager.sol:NexumManager","label":"prizePot","offset":0,"slot":"8","type":"t_uint256"},{"astId":2851,"contract":"contracts/NexumManager.sol:NexumManager","label":"instantPot","offset":0,"slot":"9","type":"t_uint256"},{"astId":2853,"contract":"contracts/NexumManager.sol:NexumManager","label":"liquidityTarget","offset":0,"slot":"10","type":"t_uint256"},{"astId":2855,"contract":"contracts/NexumManager.sol:NexumManager","label":"liquidityFunded","offset":0,"slot":"11","type":"t_uint256"},{"astId":2857,"contract":"contracts/NexumManager.sol:NexumManager","label":"liquidityProfitPool","offset":0,"slot":"12","type":"t_uint256"},{"astId":2859,"contract":"contracts/NexumManager.sol:NexumManager","label":"liquidityReturnedPrincipal","offset":0,"slot":"13","type":"t_uint256"},{"astId":2861,"contract":"contracts/NexumManager.sol:NexumManager","label":"liquiditySettled","offset":0,"slot":"14","type":"t_bool"}]},"t_uint256":{"encoding":"inplace","label":"uint256","numberOfBytes":"32"},"t_uint32":{"encoding":"inplace","label":"uint32","numberOfBytes":"4"}}},"id":7}