{"abi":[{"type":"constructor","inputs":[],"stateMutability":"nonpayable"},{"type":"function","name":"acceptOwnership","inputs":[],"outputs":[],"stateMutability":"nonpayable"},{"type":"function","name":"allowance","inputs":[{"name":"owner","type":"address","internalType":"address"},{"name":"spender","type":"address","internalType":"address"}],"outputs":[{"name":"","type":"uint256","internalType":"uint256"}],"stateMutability":"view"},{"type":"function","name":"approve","inputs":[{"name":"spender","type":"address","internalType":"address"},{"name":"value","type":"uint256","internalType":"uint256"}],"outputs":[{"name":"","type":"bool","internalType":"bool"}],"stateMutability":"nonpayable"},{"type":"function","name":"balanceOf","inputs":[{"name":"account","type":"address","internalType":"address"}],"outputs":[{"name":"","type":"uint256","internalType":"uint256"}],"stateMutability":"view"},{"type":"function","name":"decimals","inputs":[],"outputs":[{"name":"","type":"uint8","internalType":"uint8"}],"stateMutability":"view"},{"type":"function","name":"mint","inputs":[{"name":"to","type":"address","internalType":"address"},{"name":"amount","type":"uint256","internalType":"uint256"}],"outputs":[],"stateMutability":"nonpayable"},{"type":"function","name":"name","inputs":[],"outputs":[{"name":"","type":"string","internalType":"string"}],"stateMutability":"view"},{"type":"function","name":"owner","inputs":[],"outputs":[{"name":"","type":"address","internalType":"address"}],"stateMutability":"view"},{"type":"function","name":"pendingOwner","inputs":[],"outputs":[{"name":"","type":"address","internalType":"address"}],"stateMutability":"view"},{"type":"function","name":"renounceOwnership","inputs":[],"outputs":[],"stateMutability":"nonpayable"},{"type":"function","name":"symbol","inputs":[],"outputs":[{"name":"","type":"string","internalType":"string"}],"stateMutability":"view"},{"type":"function","name":"totalSupply","inputs":[],"outputs":[{"name":"","type":"uint256","internalType":"uint256"}],"stateMutability":"view"},{"type":"function","name":"transfer","inputs":[{"name":"to","type":"address","internalType":"address"},{"name":"value","type":"uint256","internalType":"uint256"}],"outputs":[{"name":"","type":"bool","internalType":"bool"}],"stateMutability":"nonpayable"},{"type":"function","name":"transferFrom","inputs":[{"name":"from","type":"address","internalType":"address"},{"name":"to","type":"address","internalType":"address"},{"name":"value","type":"uint256","internalType":"uint256"}],"outputs":[{"name":"","type":"bool","internalType":"bool"}],"stateMutability":"nonpayable"},{"type":"function","name":"transferOwnership","inputs":[{"name":"newOwner","type":"address","internalType":"address"}],"outputs":[],"stateMutability":"nonpayable"},{"type":"event","name":"Approval","inputs":[{"name":"owner","type":"address","indexed":true,"internalType":"address"},{"name":"spender","type":"address","indexed":true,"internalType":"address"},{"name":"value","type":"uint256","indexed":false,"internalType":"uint256"}],"anonymous":false},{"type":"event","name":"OwnershipTransferStarted","inputs":[{"name":"previousOwner","type":"address","indexed":true,"internalType":"address"},{"name":"newOwner","type":"address","indexed":true,"internalType":"address"}],"anonymous":false},{"type":"event","name":"OwnershipTransferred","inputs":[{"name":"previousOwner","type":"address","indexed":true,"internalType":"address"},{"name":"newOwner","type":"address","indexed":true,"internalType":"address"}],"anonymous":false},{"type":"event","name":"Transfer","inputs":[{"name":"from","type":"address","indexed":true,"internalType":"address"},{"name":"to","type":"address","indexed":true,"internalType":"address"},{"name":"value","type":"uint256","indexed":false,"internalType":"uint256"}],"anonymous":false},{"type":"error","name":"ERC20InsufficientAllowance","inputs":[{"name":"spender","type":"address","internalType":"address"},{"name":"allowance","type":"uint256","internalType":"uint256"},{"name":"needed","type":"uint256","internalType":"uint256"}]},{"type":"error","name":"ERC20InsufficientBalance","inputs":[{"name":"sender","type":"address","internalType":"address"},{"name":"balance","type":"uint256","internalType":"uint256"},{"name":"needed","type":"uint256","internalType":"uint256"}]},{"type":"error","name":"ERC20InvalidApprover","inputs":[{"name":"approver","type":"address","internalType":"address"}]},{"type":"error","name":"ERC20InvalidReceiver","inputs":[{"name":"receiver","type":"address","internalType":"address"}]},{"type":"error","name":"ERC20InvalidSender","inputs":[{"name":"sender","type":"address","internalType":"address"}]},{"type":"error","name":"ERC20InvalidSpender","inputs":[{"name":"spender","type":"address","internalType":"address"}]},{"type":"error","name":"OwnableInvalidOwner","inputs":[{"name":"owner","type":"address","internalType":"address"}]},{"type":"error","name":"OwnableUnauthorizedAccount","inputs":[{"name":"account","type":"address","internalType":"address"}]}],"bytecode":{"object":"0x608034620003e6576040906001600160401b0381830181811183821017620002e8578352600b82526020906a11985d58d95d081554d11560aa1b8284015283519284840184811083821117620002e857855260059182855264199554d11560da1b848601528151818111620002e8576003908154906001948583811c93168015620003db575b88841014620003c5578190601f9384811162000371575b5088908483116001146200030a57600092620002fe575b505060001982851b1c191690851b1782555b8651928311620002e85760049687548581811c91168015620002dd575b88821014620002c8578281116200027f575b5086918411600114620002145793839491849260009562000208575b50501b92600019911b1c19161783555b3315620001f157600680546001600160a01b03199081169091558154908116339081179092556001600160a01b03167f8be0079c531659141344cd1fd0a4f28419497f9722a3daafe3b4186f6b6457e0600080a360025469d3c21bcecceda100000092838201809211620001dc57506000917fddf252ad1be2c89b69c2b068fc378daa952ba7f163c4a11628f55a4df523b3ef9160025533835282815284832084815401905584519384523393a35161098f9081620003ec8239f35b601190634e487b7160e01b6000525260246000fd5b8351631e4fbdf760e01b8152600081850152602490fd5b01519350388062000110565b9190601f198416928860005284886000209460005b8a898383106200026757505050106200024c575b50505050811b01835562000120565b01519060f884600019921b161c19169055388080806200023d565b86860151895590970196948501948893500162000229565b886000528760002083808701891c8201928a8810620002be575b01881c019086905b828110620002b1575050620000f4565b60008155018690620002a1565b9250819262000299565b602289634e487b7160e01b6000525260246000fd5b90607f1690620000e2565b634e487b7160e01b600052604160045260246000fd5b015190503880620000b3565b90879350601f19831691866000528a6000209260005b8c8282106200035a575050841162000341575b505050811b018255620000c5565b015160001983871b60f8161c1916905538808062000333565b8385015186558b9790950194938401930162000320565b9091508460005288600020848085018a1c8201928b8610620003bb575b91899186959493018b1c01915b828110620003ab5750506200009c565b600081558594508991016200039b565b925081926200038e565b634e487b7160e01b600052602260045260246000fd5b92607f169262000085565b600080fdfe60806040908082526004918236101561001757600080fd5b600092833560e01c92836306fdde03146106fd57508263095ea7b31461065257826318160ddd1461063357826323b872dd14610541578263313ce5671461052557826340c10f191461045a57826370a0823114610423578263715018a6146103bc57826379ba50971461032b5782638da5cb5b1461030257826395d89b41146101e357508163a9059cbb146101b2578163dd62ed3e14610169578163e30c39781461013c575063f2fde38b146100cc57600080fd5b34610139576020366003190112610139576100e561081e565b6100ed61084f565b600680546001600160a01b0319166001600160a01b039283169081179091556005549091167f38d16b8cac22d99fc7c124b9cd0de2d3fa1faef420bfe791d8c362d765e227008380a380f35b80fd5b90503461016557816003193601126101655760065490516001600160a01b039091168152602090f35b5080fd5b9050346101655780600319360112610165578060209261018761081e565b61018f610839565b6001600160a01b0391821683526001865283832091168252845220549051908152f35b9050346101655780600319360112610165576020906101dc6101d261081e565b602435903361087b565b5160018152f35b838234610165578160031936011261016557805190828454600181811c908083169283156102f8575b60209384841081146102e5578388529081156102c95750600114610274575b505050829003601f01601f191682019267ffffffffffffffff841183851017610261575082918261025d9252826107d5565b0390f35b634e487b7160e01b815260418552602490fd5b8787529192508591837f8a35acfbc15ff81a39ae7d344fd709f28e8600b4aa8c65c6b64bfe7fe36bd19b5b8385106102b5575050505083010185808061022b565b80548886018301529301928490820161029f565b60ff1916878501525050151560051b840101905085808061022b565b634e487b7160e01b895260228a52602489fd5b91607f169161020c565b83823461016557816003193601126101655760055490516001600160a01b039091168152602090f35b9150346103b857826003193601126103b857600654916001600160a01b039133838516036103a15750506bffffffffffffffffffffffff60a01b8092166006556005549133908316176005553391167f8be0079c531659141344cd1fd0a4f28419497f9722a3daafe3b4186f6b6457e08380a380f35b60249250519063118cdaa760e01b82523390820152fd5b8280fd5b83346101395780600319360112610139576103d561084f565b600680546001600160a01b031990811690915560058054918216905581906001600160a01b03167f8be0079c531659141344cd1fd0a4f28419497f9722a3daafe3b4186f6b6457e08280a380f35b8382346101655760203660031901126101655760209181906001600160a01b0361044b61081e565b16815280845220549051908152f35b9150346103b857806003193601126103b85761047461081e565b906024359161048161084f565b6001600160a01b03169283156104f457600254908382018092116104e1575084927fddf252ad1be2c89b69c2b068fc378daa952ba7f163c4a11628f55a4df523b3ef9260209260025585855284835280852082815401905551908152a380f35b634e487b7160e01b865260119052602485fd5b6020606492519162461bcd60e51b8352820152600c60248201526b5a65726f206164647265737360a01b6044820152fd5b8382346101655781600319360112610165576020905160128152f35b83346101395760603660031901126101395761055b61081e565b610563610839565b916044359360018060a01b03831680835260016020528683203384526020528683205491600019831061059f575b6020886101dc89898961087b565b8683106106075781156105f05733156105d9575082526001602090815286832033845281529186902090859003905582906101dc87610591565b8751634a1406b160e11b8152908101849052602490fd5b875163e602df0560e01b8152908101849052602490fd5b8751637dc7a0d960e11b8152339181019182526020820193909352604081018790528291506060010390fd5b8382346101655781600319360112610165576020906002549051908152f35b909150346103b857816003193601126103b85761066d61081e565b6024359033156106e6576001600160a01b03169182156106cf57508083602095338152600187528181208582528752205582519081527f8c5be1e5ebec7d5bd14f71427d1e84f3dd0314c0f7b2291e5b200ac8c7c3b925843392a35160018152f35b8351634a1406b160e11b8152908101859052602490fd5b835163e602df0560e01b8152808401869052602490fd5b849192346103b857826003193601126103b85782600354600181811c908083169283156107cb575b60209384841081146102e5578388529081156102c9575060011461077557505050829003601f01601f191682019267ffffffffffffffff841183851017610261575082918261025d9252826107d5565b600387529192508591837fc2575a0e9e593c00f959f8c92f12db2869c3395a3b0502d05e2516446f71f85b5b8385106107b7575050505083010185808061022b565b8054888601830152930192849082016107a1565b91607f1691610725565b6020808252825181830181905290939260005b82811061080a57505060409293506000838284010152601f8019910116010190565b8181018601518482016040015285016107e8565b600435906001600160a01b038216820361083457565b600080fd5b602435906001600160a01b038216820361083457565b6005546001600160a01b0316330361086357565b60405163118cdaa760e01b8152336004820152602490fd5b916001600160a01b03808416928315610940571692831561092757600090838252816020526040822054908382106108f5575091604082827fddf252ad1be2c89b69c2b068fc378daa952ba7f163c4a11628f55a4df523b3ef958760209652828652038282205586815220818154019055604051908152a3565b60405163391434e360e21b81526001600160a01b03919091166004820152602481019190915260448101839052606490fd5b60405163ec442f0560e01b815260006004820152602490fd5b604051634b637e8f60e11b815260006004820152602490fdfea26469706673582212208387165eda2bb1e054f08938c2906c19aa51933cecb352da461e5998168d422364736f6c63430008140033","linkReferences":{}},"methodIdentifiers":{"acceptOwnership()":"79ba5097","allowance(address,address)":"dd62ed3e","approve(address,uint256)":"095ea7b3","balanceOf(address)":"70a08231","decimals()":"313ce567","mint(address,uint256)":"40c10f19","name()":"06fdde03","owner()":"8da5cb5b","pendingOwner()":"e30c3978","renounceOwnership()":"715018a6","symbol()":"95d89b41","totalSupply()":"18160ddd","transfer(address,uint256)":"a9059cbb","transferFrom(address,address,uint256)":"23b872dd","transferOwnership(address)":"f2fde38b"},"storageLayout":{"storage":[{"astId":54072,"contract":"contracts/usdtfaucet.sol:USDTFaucet","label":"_balances","offset":0,"slot":"0","type":"t_mapping(t_address,t_uint256)"},{"astId":54078,"contract":"contracts/usdtfaucet.sol:USDTFaucet","label":"_allowances","offset":0,"slot":"1","type":"t_mapping(t_address,t_mapping(t_address,t_uint256))"},{"astId":54080,"contract":"contracts/usdtfaucet.sol:USDTFaucet","label":"_totalSupply","offset":0,"slot":"2","type":"t_uint256"},{"astId":54082,"contract":"contracts/usdtfaucet.sol:USDTFaucet","label":"_name","offset":0,"slot":"3","type":"t_string_storage"},{"astId":54084,"contract":"contracts/usdtfaucet.sol:USDTFaucet","label":"_symbol","offset":0,"slot":"4","type":"t_string_storage"},{"astId":53597,"contract":"contracts/usdtfaucet.sol:USDTFaucet","label":"_owner","offset":0,"slot":"5","type":"t_address"},{"astId":53745,"contract":"contracts/usdtfaucet.sol:USDTFaucet","label":"_pendingOwner","offset":0,"slot":"6","type":"t_address"}],"types":{"t_address":{"encoding":"inplace","label":"address","numberOfBytes":"20"},"t_mapping(t_address,t_mapping(t_address,t_uint256))":{"encoding":"mapping","key":"t_address","label":"mapping(address => mapping(address => uint256))","numberOfBytes":"32","value":"t_mapping(t_address,t_uint256)"},"t_mapping(t_address,t_uint256)":{"encoding":"mapping","key":"t_address","label":"mapping(address => uint256)","numberOfBytes":"32","value":"t_uint256"},"t_string_storage":{"encoding":"bytes","label":"string","numberOfBytes":"32"},"t_uint256":{"encoding":"inplace","label":"uint256","numberOfBytes":"32"}}},"id":25}