{
  "_format": "hh-sol-artifact-1",
  "contractName": "BuybackContract",
  "sourceName": "contracts/BuybackContract.sol",
  "abi": [
    {
      "inputs": [
        {
          "internalType": "address",
          "name": "_stablecoin",
          "type": "address"
        },
        {
          "internalType": "address",
          "name": "_nxlToken",
          "type": "address"
        }
      ],
      "stateMutability": "nonpayable",
      "type": "constructor"
    },
    {
      "inputs": [
        {
          "internalType": "address",
          "name": "owner",
          "type": "address"
        }
      ],
      "name": "OwnableInvalidOwner",
      "type": "error"
    },
    {
      "inputs": [
        {
          "internalType": "address",
          "name": "account",
          "type": "address"
        }
      ],
      "name": "OwnableUnauthorizedAccount",
      "type": "error"
    },
    {
      "anonymous": false,
      "inputs": [
        {
          "indexed": false,
          "internalType": "uint256",
          "name": "amount",
          "type": "uint256"
        }
      ],
      "name": "BuybackExecuted",
      "type": "event"
    },
    {
      "anonymous": false,
      "inputs": [
        {
          "indexed": false,
          "internalType": "uint256",
          "name": "amount",
          "type": "uint256"
        }
      ],
      "name": "FundsReceived",
      "type": "event"
    },
    {
      "anonymous": false,
      "inputs": [
        {
          "indexed": true,
          "internalType": "address",
          "name": "previousOwner",
          "type": "address"
        },
        {
          "indexed": true,
          "internalType": "address",
          "name": "newOwner",
          "type": "address"
        }
      ],
      "name": "OwnershipTransferred",
      "type": "event"
    },
    {
      "inputs": [
        {
          "internalType": "uint256",
          "name": "stableAmount",
          "type": "uint256"
        }
      ],
      "name": "executeBuyback",
      "outputs": [],
      "stateMutability": "nonpayable",
      "type": "function"
    },
    {
      "inputs": [],
      "name": "getBalance",
      "outputs": [
        {
          "internalType": "uint256",
          "name": "",
          "type": "uint256"
        }
      ],
      "stateMutability": "view",
      "type": "function"
    },
    {
      "inputs": [],
      "name": "nxlToken",
      "outputs": [
        {
          "internalType": "contract IERC20",
          "name": "",
          "type": "address"
        }
      ],
      "stateMutability": "view",
      "type": "function"
    },
    {
      "inputs": [],
      "name": "owner",
      "outputs": [
        {
          "internalType": "address",
          "name": "",
          "type": "address"
        }
      ],
      "stateMutability": "view",
      "type": "function"
    },
    {
      "inputs": [
        {
          "internalType": "uint256",
          "name": "amount",
          "type": "uint256"
        }
      ],
      "name": "recordDeposit",
      "outputs": [],
      "stateMutability": "nonpayable",
      "type": "function"
    },
    {
      "inputs": [],
      "name": "renounceOwnership",
      "outputs": [],
      "stateMutability": "nonpayable",
      "type": "function"
    },
    {
      "inputs": [],
      "name": "stablecoin",
      "outputs": [
        {
          "internalType": "contract IERC20",
          "name": "",
          "type": "address"
        }
      ],
      "stateMutability": "view",
      "type": "function"
    },
    {
      "inputs": [],
      "name": "totalBuyback",
      "outputs": [
        {
          "internalType": "uint256",
          "name": "",
          "type": "uint256"
        }
      ],
      "stateMutability": "view",
      "type": "function"
    },
    {
      "inputs": [],
      "name": "totalReceived",
      "outputs": [
        {
          "internalType": "uint256",
          "name": "",
          "type": "uint256"
        }
      ],
      "stateMutability": "view",
      "type": "function"
    },
    {
      "inputs": [
        {
          "internalType": "address",
          "name": "newOwner",
          "type": "address"
        }
      ],
      "name": "transferOwnership",
      "outputs": [],
      "stateMutability": "nonpayable",
      "type": "function"
    },
    {
      "stateMutability": "payable",
      "type": "receive"
    }
  ],
  "bytecode": "0x60c03461016f5761073890601f38839003908101601f19168201906001600160401b03821183831017610174578083916040958694855283398101031261016f57610055602061004e8361018a565b920161018a565b9033156101575760008054336001600160a01b03198216811783558551946001600160a01b0394909385939192918416907f8be0079c531659141344cd1fd0a4f28419497f9722a3daafe3b4186f6b6457e09080a3169283156101205750169081156100ee5760805260a05251610599908161019f8239608051818181610176015281816102c80152610455015260a051816102050152f35b825162461bcd60e51b815260206004820152600b60248201526a125b9d985b1a590813961360aa1b6044820152606490fd5b62461bcd60e51b815260206004820152601260248201527124b73b30b634b21039ba30b13632b1b7b4b760711b6044820152606490fd5b8251631e4fbdf760e01b815260006004820152602490fd5b600080fd5b634e487b7160e01b600052604160045260246000fd5b51906001600160a01b038216820361016f5756fe6080604090808252600480361015610059575b5050361561001f57600080fd5b60207fbcdc7071c1beb6dcf2744621e0b29a2f2432ee20812d9ca5e3d5e8f9308d93a39161004f34600154610508565b60015551348152a1005b600091823560e01c90816312065fe01461042a575080631424c182146103d857806327b91109146103b95780636869c67314610291578063715018a61461023457806389ef723b146101f05780638da5cb5b146101c8578063a3c2c462146101a9578063e9cbd822146101615763f2fde38b0361001257823461015d57602036600319011261015d576001600160a01b03823581811693919290849003610159576101026104dc565b831561014357505082546001600160a01b0319811683178455167f8be0079c531659141344cd1fd0a4f28419497f9722a3daafe3b4186f6b6457e08380a380f35b51631e4fbdf760e01b8152908101849052602490fd5b8480fd5b8280fd5b8284346101a557816003193601126101a557517f00000000000000000000000000000000000000000000000000000000000000006001600160a01b03168152602090f35b5080fd5b8284346101a557816003193601126101a5576020906001549051908152f35b8284346101a557816003193601126101a557905490516001600160a01b039091168152602090f35b8284346101a557816003193601126101a557517f00000000000000000000000000000000000000000000000000000000000000006001600160a01b03168152602090f35b823461028e578060031936011261028e5761024d6104dc565b80546001600160a01b03198116825581906001600160a01b03167f8be0079c531659141344cd1fd0a4f28419497f9722a3daafe3b4186f6b6457e08280a380f35b80fd5b50346101a5576020908160031936011261015d578035906102b06104dc565b84516370a0823160e01b8152308282015283816024817f00000000000000000000000000000000000000000000000000000000000000006001600160a01b03165afa9081156103af57908391869161037e575b501061034457507fd2c5a6b66fbd4c28346666274dd95b77fd31d5c730deb119439b2b5482deafc9929361033982600254610508565b60025551908152a180f35b845162461bcd60e51b81529081018390526014602482015273496e73756666696369656e742062616c616e636560601b6044820152606490fd5b809250858092503d83116103a8575b610397818361052b565b810103126101595782905138610303565b503d61038d565b86513d87823e3d90fd5b8284346101a557816003193601126101a5576020906002549051908152f35b5082903461015d57602036600319011261015d577fbcdc7071c1beb6dcf2744621e0b29a2f2432ee20812d9ca5e3d5e8f9308d93a391602091359061041f82600154610508565b60015551908152a180f35b91849150346104d857836003193601126104d8576370a0823160e01b835230908301526020826024817f00000000000000000000000000000000000000000000000000000000000000006001600160a01b03165afa9182156104ce578392610497575b6020838351908152f35b9091506020813d82116104c6575b816104b26020938361052b565b8101031261015d576020925051908361048d565b3d91506104a5565b81513d85823e3d90fd5b8380fd5b6000546001600160a01b031633036104f057565b60405163118cdaa760e01b8152336004820152602490fd5b9190820180921161051557565b634e487b7160e01b600052601160045260246000fd5b90601f8019910116810190811067ffffffffffffffff82111761054d57604052565b634e487b7160e01b600052604160045260246000fdfea2646970667358221220e44c9bdeb69c9be51ed215109cc9a30369d1041b0f1d2173ff88ef8b6243f00664736f6c63430008140033",
  "linkReferences": {},
  "deployedLinkReferences": {}
}