{
  "_format": "hh-sol-artifact-1",
  "contractName": "NXLToken",
  "sourceName": "contracts/NXLToken.sol",
  "abi": [
    {
      "inputs": [
        {
          "internalType": "address",
          "name": "_founderAddress",
          "type": "address"
        },
        {
          "internalType": "address",
          "name": "_partnerAddress",
          "type": "address"
        }
      ],
      "stateMutability": "nonpayable",
      "type": "constructor"
    },
    {
      "inputs": [
        {
          "internalType": "address",
          "name": "spender",
          "type": "address"
        },
        {
          "internalType": "uint256",
          "name": "allowance",
          "type": "uint256"
        },
        {
          "internalType": "uint256",
          "name": "needed",
          "type": "uint256"
        }
      ],
      "name": "ERC20InsufficientAllowance",
      "type": "error"
    },
    {
      "inputs": [
        {
          "internalType": "address",
          "name": "sender",
          "type": "address"
        },
        {
          "internalType": "uint256",
          "name": "balance",
          "type": "uint256"
        },
        {
          "internalType": "uint256",
          "name": "needed",
          "type": "uint256"
        }
      ],
      "name": "ERC20InsufficientBalance",
      "type": "error"
    },
    {
      "inputs": [
        {
          "internalType": "address",
          "name": "approver",
          "type": "address"
        }
      ],
      "name": "ERC20InvalidApprover",
      "type": "error"
    },
    {
      "inputs": [
        {
          "internalType": "address",
          "name": "receiver",
          "type": "address"
        }
      ],
      "name": "ERC20InvalidReceiver",
      "type": "error"
    },
    {
      "inputs": [
        {
          "internalType": "address",
          "name": "sender",
          "type": "address"
        }
      ],
      "name": "ERC20InvalidSender",
      "type": "error"
    },
    {
      "inputs": [
        {
          "internalType": "address",
          "name": "spender",
          "type": "address"
        }
      ],
      "name": "ERC20InvalidSpender",
      "type": "error"
    },
    {
      "inputs": [
        {
          "internalType": "address",
          "name": "owner",
          "type": "address"
        }
      ],
      "name": "OwnableInvalidOwner",
      "type": "error"
    },
    {
      "inputs": [
        {
          "internalType": "address",
          "name": "account",
          "type": "address"
        }
      ],
      "name": "OwnableUnauthorizedAccount",
      "type": "error"
    },
    {
      "anonymous": false,
      "inputs": [
        {
          "indexed": true,
          "internalType": "address",
          "name": "owner",
          "type": "address"
        },
        {
          "indexed": true,
          "internalType": "address",
          "name": "spender",
          "type": "address"
        },
        {
          "indexed": false,
          "internalType": "uint256",
          "name": "value",
          "type": "uint256"
        }
      ],
      "name": "Approval",
      "type": "event"
    },
    {
      "anonymous": false,
      "inputs": [
        {
          "indexed": true,
          "internalType": "address",
          "name": "manager",
          "type": "address"
        }
      ],
      "name": "NexumManagerSet",
      "type": "event"
    },
    {
      "anonymous": false,
      "inputs": [
        {
          "indexed": true,
          "internalType": "address",
          "name": "previousOwner",
          "type": "address"
        },
        {
          "indexed": true,
          "internalType": "address",
          "name": "newOwner",
          "type": "address"
        }
      ],
      "name": "OwnershipTransferred",
      "type": "event"
    },
    {
      "anonymous": false,
      "inputs": [
        {
          "indexed": true,
          "internalType": "address",
          "name": "recipient",
          "type": "address"
        },
        {
          "indexed": false,
          "internalType": "uint256",
          "name": "amount",
          "type": "uint256"
        }
      ],
      "name": "RewardDistributed",
      "type": "event"
    },
    {
      "anonymous": false,
      "inputs": [
        {
          "indexed": false,
          "internalType": "uint256",
          "name": "amount",
          "type": "uint256"
        }
      ],
      "name": "TokensBurned",
      "type": "event"
    },
    {
      "anonymous": false,
      "inputs": [
        {
          "indexed": true,
          "internalType": "address",
          "name": "from",
          "type": "address"
        },
        {
          "indexed": true,
          "internalType": "address",
          "name": "to",
          "type": "address"
        },
        {
          "indexed": false,
          "internalType": "uint256",
          "name": "value",
          "type": "uint256"
        }
      ],
      "name": "Transfer",
      "type": "event"
    },
    {
      "anonymous": false,
      "inputs": [
        {
          "indexed": true,
          "internalType": "address",
          "name": "beneficiary",
          "type": "address"
        },
        {
          "indexed": false,
          "internalType": "uint256",
          "name": "amount",
          "type": "uint256"
        }
      ],
      "name": "VestedTokensWithdrawn",
      "type": "event"
    },
    {
      "inputs": [
        {
          "internalType": "address",
          "name": "owner",
          "type": "address"
        },
        {
          "internalType": "address",
          "name": "spender",
          "type": "address"
        }
      ],
      "name": "allowance",
      "outputs": [
        {
          "internalType": "uint256",
          "name": "",
          "type": "uint256"
        }
      ],
      "stateMutability": "view",
      "type": "function"
    },
    {
      "inputs": [
        {
          "internalType": "address",
          "name": "spender",
          "type": "address"
        },
        {
          "internalType": "uint256",
          "name": "value",
          "type": "uint256"
        }
      ],
      "name": "approve",
      "outputs": [
        {
          "internalType": "bool",
          "name": "",
          "type": "bool"
        }
      ],
      "stateMutability": "nonpayable",
      "type": "function"
    },
    {
      "inputs": [
        {
          "internalType": "address",
          "name": "account",
          "type": "address"
        }
      ],
      "name": "balanceOf",
      "outputs": [
        {
          "internalType": "uint256",
          "name": "",
          "type": "uint256"
        }
      ],
      "stateMutability": "view",
      "type": "function"
    },
    {
      "inputs": [
        {
          "internalType": "uint256",
          "name": "amount",
          "type": "uint256"
        }
      ],
      "name": "burn",
      "outputs": [],
      "stateMutability": "nonpayable",
      "type": "function"
    },
    {
      "inputs": [
        {
          "internalType": "uint256",
          "name": "amount",
          "type": "uint256"
        }
      ],
      "name": "burnUndistributed",
      "outputs": [],
      "stateMutability": "nonpayable",
      "type": "function"
    },
    {
      "inputs": [],
      "name": "decimals",
      "outputs": [
        {
          "internalType": "uint8",
          "name": "",
          "type": "uint8"
        }
      ],
      "stateMutability": "view",
      "type": "function"
    },
    {
      "inputs": [],
      "name": "deploymentTime",
      "outputs": [
        {
          "internalType": "uint256",
          "name": "",
          "type": "uint256"
        }
      ],
      "stateMutability": "view",
      "type": "function"
    },
    {
      "inputs": [
        {
          "internalType": "address",
          "name": "recipient",
          "type": "address"
        },
        {
          "internalType": "uint256",
          "name": "amount",
          "type": "uint256"
        }
      ],
      "name": "distributeReward",
      "outputs": [],
      "stateMutability": "nonpayable",
      "type": "function"
    },
    {
      "inputs": [],
      "name": "founderAddress",
      "outputs": [
        {
          "internalType": "address",
          "name": "",
          "type": "address"
        }
      ],
      "stateMutability": "view",
      "type": "function"
    },
    {
      "inputs": [],
      "name": "founderVestingEnd",
      "outputs": [
        {
          "internalType": "uint256",
          "name": "",
          "type": "uint256"
        }
      ],
      "stateMutability": "view",
      "type": "function"
    },
    {
      "inputs": [],
      "name": "founderWithdraw",
      "outputs": [],
      "stateMutability": "nonpayable",
      "type": "function"
    },
    {
      "inputs": [],
      "name": "founderWithdrawn",
      "outputs": [
        {
          "internalType": "uint256",
          "name": "",
          "type": "uint256"
        }
      ],
      "stateMutability": "view",
      "type": "function"
    },
    {
      "inputs": [],
      "name": "getAvailableRewards",
      "outputs": [
        {
          "internalType": "uint256",
          "name": "available",
          "type": "uint256"
        }
      ],
      "stateMutability": "view",
      "type": "function"
    },
    {
      "inputs": [],
      "name": "getFounderAvailable",
      "outputs": [
        {
          "internalType": "uint256",
          "name": "available",
          "type": "uint256"
        }
      ],
      "stateMutability": "view",
      "type": "function"
    },
    {
      "inputs": [],
      "name": "getPartnerAvailable",
      "outputs": [
        {
          "internalType": "uint256",
          "name": "available",
          "type": "uint256"
        }
      ],
      "stateMutability": "view",
      "type": "function"
    },
    {
      "inputs": [],
      "name": "getTokenInfo",
      "outputs": [
        {
          "internalType": "uint256",
          "name": "totalSupply_",
          "type": "uint256"
        },
        {
          "internalType": "uint256",
          "name": "contractBalance",
          "type": "uint256"
        },
        {
          "internalType": "uint256",
          "name": "availableRewards",
          "type": "uint256"
        },
        {
          "internalType": "uint256",
          "name": "rewardsDistributed_",
          "type": "uint256"
        },
        {
          "internalType": "uint256",
          "name": "founderTotal",
          "type": "uint256"
        },
        {
          "internalType": "uint256",
          "name": "founderWithdrawn_",
          "type": "uint256"
        },
        {
          "internalType": "uint256",
          "name": "founderAvailable",
          "type": "uint256"
        },
        {
          "internalType": "uint256",
          "name": "partnerTotal",
          "type": "uint256"
        },
        {
          "internalType": "uint256",
          "name": "partnerWithdrawn_",
          "type": "uint256"
        },
        {
          "internalType": "uint256",
          "name": "partnerAvailable",
          "type": "uint256"
        }
      ],
      "stateMutability": "view",
      "type": "function"
    },
    {
      "inputs": [],
      "name": "getVestingInfo",
      "outputs": [
        {
          "internalType": "uint256",
          "name": "founderTotal",
          "type": "uint256"
        },
        {
          "internalType": "uint256",
          "name": "founderWithdrawnAmount",
          "type": "uint256"
        },
        {
          "internalType": "uint256",
          "name": "founderAvailable",
          "type": "uint256"
        },
        {
          "internalType": "uint256",
          "name": "founderVestingEndTime",
          "type": "uint256"
        },
        {
          "internalType": "uint256",
          "name": "partnerTotal",
          "type": "uint256"
        },
        {
          "internalType": "uint256",
          "name": "partnerWithdrawnAmount",
          "type": "uint256"
        },
        {
          "internalType": "uint256",
          "name": "partnerAvailable",
          "type": "uint256"
        },
        {
          "internalType": "uint256",
          "name": "partnerVestingEndTime",
          "type": "uint256"
        }
      ],
      "stateMutability": "view",
      "type": "function"
    },
    {
      "inputs": [],
      "name": "name",
      "outputs": [
        {
          "internalType": "string",
          "name": "",
          "type": "string"
        }
      ],
      "stateMutability": "view",
      "type": "function"
    },
    {
      "inputs": [],
      "name": "nexumManager",
      "outputs": [
        {
          "internalType": "address",
          "name": "",
          "type": "address"
        }
      ],
      "stateMutability": "view",
      "type": "function"
    },
    {
      "inputs": [],
      "name": "nexumManagerSet",
      "outputs": [
        {
          "internalType": "bool",
          "name": "",
          "type": "bool"
        }
      ],
      "stateMutability": "view",
      "type": "function"
    },
    {
      "inputs": [],
      "name": "owner",
      "outputs": [
        {
          "internalType": "address",
          "name": "",
          "type": "address"
        }
      ],
      "stateMutability": "view",
      "type": "function"
    },
    {
      "inputs": [],
      "name": "partnerAddress",
      "outputs": [
        {
          "internalType": "address",
          "name": "",
          "type": "address"
        }
      ],
      "stateMutability": "view",
      "type": "function"
    },
    {
      "inputs": [],
      "name": "partnerVestingEnd",
      "outputs": [
        {
          "internalType": "uint256",
          "name": "",
          "type": "uint256"
        }
      ],
      "stateMutability": "view",
      "type": "function"
    },
    {
      "inputs": [],
      "name": "partnerWithdraw",
      "outputs": [],
      "stateMutability": "nonpayable",
      "type": "function"
    },
    {
      "inputs": [],
      "name": "partnerWithdrawn",
      "outputs": [
        {
          "internalType": "uint256",
          "name": "",
          "type": "uint256"
        }
      ],
      "stateMutability": "view",
      "type": "function"
    },
    {
      "inputs": [],
      "name": "renounceOwnership",
      "outputs": [],
      "stateMutability": "nonpayable",
      "type": "function"
    },
    {
      "inputs": [],
      "name": "rewardsDistributed",
      "outputs": [
        {
          "internalType": "uint256",
          "name": "",
          "type": "uint256"
        }
      ],
      "stateMutability": "view",
      "type": "function"
    },
    {
      "inputs": [
        {
          "internalType": "address",
          "name": "_nexumManager",
          "type": "address"
        }
      ],
      "name": "setNexumManager",
      "outputs": [],
      "stateMutability": "nonpayable",
      "type": "function"
    },
    {
      "inputs": [],
      "name": "symbol",
      "outputs": [
        {
          "internalType": "string",
          "name": "",
          "type": "string"
        }
      ],
      "stateMutability": "view",
      "type": "function"
    },
    {
      "inputs": [],
      "name": "totalSupply",
      "outputs": [
        {
          "internalType": "uint256",
          "name": "",
          "type": "uint256"
        }
      ],
      "stateMutability": "view",
      "type": "function"
    },
    {
      "inputs": [
        {
          "internalType": "address",
          "name": "to",
          "type": "address"
        },
        {
          "internalType": "uint256",
          "name": "value",
          "type": "uint256"
        }
      ],
      "name": "transfer",
      "outputs": [
        {
          "internalType": "bool",
          "name": "",
          "type": "bool"
        }
      ],
      "stateMutability": "nonpayable",
      "type": "function"
    },
    {
      "inputs": [
        {
          "internalType": "address",
          "name": "from",
          "type": "address"
        },
        {
          "internalType": "address",
          "name": "to",
          "type": "address"
        },
        {
          "internalType": "uint256",
          "name": "value",
          "type": "uint256"
        }
      ],
      "name": "transferFrom",
      "outputs": [
        {
          "internalType": "bool",
          "name": "",
          "type": "bool"
        }
      ],
      "stateMutability": "nonpayable",
      "type": "function"
    },
    {
      "inputs": [
        {
          "internalType": "address",
          "name": "newOwner",
          "type": "address"
        }
      ],
      "name": "transferOwnership",
      "outputs": [],
      "stateMutability": "nonpayable",
      "type": "function"
    }
  ],
  "bytecode": "0x610120346200057757620019fc601f6001600160401b03601f1938849003838101821686019083821187831017620004755780879160409788948552833981010312620005775762000051856200059c565b906200006160208097016200059c565b926200006c6200057c565b94600c86526b2722ac20a627902a37b5b2b760a11b888701526200008f6200057c565b956003918288526213961360ea1b8a8901528151848111620004755783546001938482811c921680156200056c575b8d83101462000556578c8285859411620004fd575b50508c908d8584116001146200049757506000926200048b575b505060001982861b1c191690831b1783555b8751938411620004755760049788548381811c911680156200046a575b8c821014620004555780838d921162000408575b50508a9185116001146200039f578495509084929160009562000393575b50501b92600019911b1c19161783555b33156200037c5760058054336001600160a01b03198216811790925585516001600160a01b0392909183167f8be0079c531659141344cd1fd0a4f28419497f9722a3daafe3b4186f6b6457e0600080a3818316156200033b5750821615620002f85760805260a0524260c0526303c267004201804211620002e35760e0526301e13380420192834211620002e3576101009384523015620002cc576002546a52b7d2dcc80cd2e400000092838201809211620002b757506000917fddf252ad1be2c89b69c2b068fc378daa952ba7f163c4a11628f55a4df523b3ef9160025530835282815284832084815401905584519384523093a35161144a9182620005b283396080518281816107f30152610aca015260a0518281816104bd0152610a86015260c05182818161027e0152818161122901526112b3015260e0518281816103330152610b7f01525181818161037301526109980152f35b601190634e487b7160e01b6000525260246000fd5b506000602492519163ec442f0560e01b8352820152fd5b601182634e487b7160e01b6000525260246000fd5b835162461bcd60e51b8152808401869052601760248201527f496e76616c696420706172746e657220616464726573730000000000000000006044820152606490fd5b62461bcd60e51b8152848101879052601760248201527f496e76616c696420666f756e64657220616464726573730000000000000000006044820152606490fd5b8351631e4fbdf760e01b8152600081850152602490fd5b0151935038806200014e565b92919484169288600052848b6000209460005b8d89838310620003f05750505010620003d5575b50505050811b0183556200015e565b01519060f884600019921b161c1916905538808080620003c6565b868601518955909701969485019488935001620003b2565b8a60005283826000209181890160051c83019389106200044b575b0160051c019084905b8281106200043e57508c915062000130565b600081550184906200042c565b9250819262000423565b60228a634e487b7160e01b6000525260246000fd5b90607f16906200011c565b634e487b7160e01b600052604160045260246000fd5b015190503880620000ed565b9190898795168860005283600020936000905b828210620004e35750508411620004ca575b505050811b018355620000ff565b015160001983881b60f8161c19169055388080620004bc565b8484015186558997909501949384019390810190620004aa565b909192508660005284826000209181860160051c83019386106200054c575b918791869594930160051c01915b8281106200053c57508e9150620000d3565b600081558594508791016200052a565b925081926200051c565b634e487b7160e01b600052602260045260246000fd5b91607f1691620000be565b600080fd5b60408051919082016001600160401b038111838210176200047557604052565b51906001600160a01b0382168203620005775756fe608060408181526004918236101561001657600080fd5b600092833560e01c91826306fdde0314610e8d57508163095ea7b314610de357816318160ddd14610dc45781631ec8bb8c14610cb257816323b872dd14610bbe578163313ce56714610ba257816336272d1e14610b675781633e24fb9814610b4857816342966c6814610af957816346bb283314610ab5578163576168fc14610a7157816357d020cf146109bb5781635e3705da146109805781636ec92ef51461096357816370a082311461092c578163715018a6146108cc5781638167593f146108a857816384f85951146107de57816389384b07146107bf5781638da5cb5b14610796578163925d7c441461069957816395d89b411461057a578163971362c9146104a85781639c1454d414610489578163a9059cbb14610458578163abb1dc44146103c2578163d66ee30d14610399578163dc25a300146102ea578163dd62ed3e146102a1578163ecda10f514610266578163f2fde38b146101d257508063f6f3f582146101b65763fc9c99ac1461019057600080fd5b346101b257816003193601126101b2576020906101ab61119a565b9051908152f35b5080fd5b50346101b257816003193601126101b2576020906101ab6112b1565b905034610262576020366003190112610262576101ed610fae565b906101f6610fdf565b6001600160a01b0391821692831561024c575050600554826bffffffffffffffffffffffff60a01b821617600555167f8be0079c531659141344cd1fd0a4f28419497f9722a3daafe3b4186f6b6457e08380a380f35b51631e4fbdf760e01b8152908101849052602490fd5b8280fd5b5050346101b257816003193601126101b257602090517f00000000000000000000000000000000000000000000000000000000000000008152f35b5050346101b257806003193601126101b257806020926102bf610fae565b6102c7610fc9565b6001600160a01b0391821683526001865283832091168252845220549051908152f35b5050346101b257816003193601126101b2576007546101009161030b611227565b600854906103176112b1565b928051946a027b46536c66c8e3000000865260208601528401527f0000000000000000000000000000000000000000000000000000000000000000606084015269d3c21bcecceda1000000608084015260a083015260c08201527f000000000000000000000000000000000000000000000000000000000000000060e0820152f35b5050346101b257816003193601126101b25760065490516001600160a01b039091168152602090f35b5050346101b257816003193601126101b25790816101409260025492308152806020522054906103f061119a565b600954600754906103ff611227565b926008549461040c6112b1565b968151988952602089015287015260608601526a027b46536c66c8e3000000608086015260a085015260c084015269d3c21bcecceda100000060e0840152610100830152610120820152f35b5050346101b257806003193601126101b257602090610482610478610fae565b602435903361100b565b5160018152f35b5050346101b257816003193601126101b2576020906009549051908152f35b919050346102625782600319360112610262577f00000000000000000000000000000000000000000000000000000000000000009060018060a01b0382169283330361054957507f3274398530b4fdab6be36c4e94e06a398b1cd05f753f49093441a08a89bde4df9160209161054161051f6112b1565b809361052c821515611333565b610538826008546110e9565b6008553061100b565b51908152a280f35b6020606492519162461bcd60e51b8352820152600c60248201526b27b7363c903830b93a3732b960a11b6044820152fd5b8383346101b257816003193601126101b257805190828454600181811c9080831692831561068f575b602093848410811461067c57838852908115610660575060011461060b575b505050829003601f01601f191682019267ffffffffffffffff8411838510176105f857508291826105f4925282610f65565b0390f35b634e487b7160e01b815260418552602490fd5b8787529192508591837f8a35acfbc15ff81a39ae7d344fd709f28e8600b4aa8c65c6b64bfe7fe36bd19b5b83851061064c57505050508301018580806105c2565b805488860183015293019284908201610636565b60ff1916878501525050151560051b84010190508580806105c2565b634e487b7160e01b895260228a52602489fd5b91607f16916105a3565b905034610262576020366003190112610262576106b4610fae565b906106bd610fdf565b600a549160ff8316610753576001600160a01b031692831561071e575050600680546001600160a01b0319168317905560ff1916600117600a557f1f93eb4af9964a0fbf3c59e4668618db26f4f90ff336d62addeb24270471eb708280a280f35b906020606492519162461bcd60e51b8352820152600f60248201526e496e76616c6964206164647265737360881b6044820152fd5b835162461bcd60e51b8152602081840152601860248201527f4e6578756d4d616e6167657220616c72656164792073657400000000000000006044820152606490fd5b5050346101b257816003193601126101b25760055490516001600160a01b039091168152602090f35b5050346101b257816003193601126101b2576020906008549051908152f35b919050346102625782600319360112610262577f00000000000000000000000000000000000000000000000000000000000000009060018060a01b0382169283330361087757507f3274398530b4fdab6be36c4e94e06a398b1cd05f753f49093441a08a89bde4df91602091610541610855611227565b8093610862821515611333565b61086e826007546110e9565b6007553061100b565b6020606492519162461bcd60e51b8352820152600c60248201526b27b7363c903337bab73232b960a11b6044820152fd5b5050346101b257816003193601126101b25760209060ff600a541690519015158152f35b83346109295780600319360112610929576108e5610fdf565b600580546001600160a01b0319811690915581906001600160a01b03167f8be0079c531659141344cd1fd0a4f28419497f9722a3daafe3b4186f6b6457e08280a380f35b80fd5b5050346101b25760203660031901126101b25760209181906001600160a01b03610954610fae565b16815280845220549051908152f35b5050346101b257816003193601126101b2576020906101ab611227565b5050346101b257816003193601126101b257602090517f00000000000000000000000000000000000000000000000000000000000000008152f35b91905034610262576020366003190112610262578135916109e760018060a01b0360065416331461110c565b6109f283151561114c565b826109fb61119a565b10610a38575081602091610a307f6ef4855b666dcc7884561072e4358b28dfe01feb1b7f4dcebc00e62d50394ac79430611375565b51908152a180f35b6020606492519162461bcd60e51b83528201526014602482015273496e73756666696369656e742062616c616e636560601b6044820152fd5b5050346101b257816003193601126101b257517f00000000000000000000000000000000000000000000000000000000000000006001600160a01b03168152602090f35b5050346101b257816003193601126101b257517f00000000000000000000000000000000000000000000000000000000000000006001600160a01b03168152602090f35b905034610262576020366003190112610262577f6ef4855b666dcc7884561072e4358b28dfe01feb1b7f4dcebc00e62d50394ac7916020913590610b3e82151561114c565b610a308233611375565b5050346101b257816003193601126101b2576020906007549051908152f35b5050346101b257816003193601126101b257602090517f00000000000000000000000000000000000000000000000000000000000000008152f35b5050346101b257816003193601126101b2576020905160128152f35b9050823461092957606036600319011261092957610bda610fae565b610be2610fc9565b916044359360018060a01b038316808352600160205286832033845260205286832054916000198310610c1e575b60208861048289898961100b565b868310610c86578115610c6f573315610c585750825260016020908152868320338452815291869020908590039055829061048287610c10565b8751634a1406b160e11b8152908101849052602490fd5b875163e602df0560e01b8152908101849052602490fd5b8751637dc7a0d960e11b8152339181019182526020820193909352604081018790528291506060010390fd5b91905034610262578060031936011261026257610ccd610fae565b906024359160018060a01b03610ce88160065416331461110c565b8116938415610d8d57610cfc84151561114c565b83610d0561119a565b10610d4a575091602091610541827fe34918ff1c7084970068b53fd71ad6d8b04e9f15d3886cbf006443e6cdc52ea695610d41826009546110e9565b6009553061100b565b606490602084519162461bcd60e51b8352820152601e60248201527f496e73756666696369656e74207265776172647320617661696c61626c6500006044820152fd5b606490602084519162461bcd60e51b83528201526011602482015270125b9d985b1a59081c9958da5c1a595b9d607a1b6044820152fd5b5050346101b257816003193601126101b2576020906002549051908152f35b905034610262578160031936011261026257610dfd610fae565b602435903315610e76576001600160a01b0316918215610e5f57508083602095338152600187528181208582528752205582519081527f8c5be1e5ebec7d5bd14f71427d1e84f3dd0314c0f7b2291e5b200ac8c7c3b925843392a35160018152f35b8351634a1406b160e11b8152908101859052602490fd5b835163e602df0560e01b8152808401869052602490fd5b8490843461026257826003193601126102625782600354600181811c90808316928315610f5b575b602093848410811461067c578388529081156106605750600114610f0557505050829003601f01601f191682019267ffffffffffffffff8411838510176105f857508291826105f4925282610f65565b600387529192508591837fc2575a0e9e593c00f959f8c92f12db2869c3395a3b0502d05e2516446f71f85b5b838510610f4757505050508301018580806105c2565b805488860183015293019284908201610f31565b91607f1691610eb5565b6020808252825181830181905290939260005b828110610f9a57505060409293506000838284010152601f8019910116010190565b818101860151848201604001528501610f78565b600435906001600160a01b0382168203610fc457565b600080fd5b602435906001600160a01b0382168203610fc457565b6005546001600160a01b03163303610ff357565b60405163118cdaa760e01b8152336004820152602490fd5b916001600160a01b038084169283156110d057169283156110b75760009083825281602052604082205490838210611085575091604082827fddf252ad1be2c89b69c2b068fc378daa952ba7f163c4a11628f55a4df523b3ef958760209652828652038282205586815220818154019055604051908152a3565b60405163391434e360e21b81526001600160a01b03919091166004820152602481019190915260448101839052606490fd5b60405163ec442f0560e01b815260006004820152602490fd5b604051634b637e8f60e11b815260006004820152602490fd5b919082018092116110f657565b634e487b7160e01b600052601160045260246000fd5b1561111357565b60405162461bcd60e51b815260206004820152601160248201527027b7363c902732bc3ab6a6b0b730b3b2b960791b6044820152606490fd5b1561115357565b60405162461bcd60e51b81526020600482015260126024820152710416d6f756e74206d757374206265203e20360741b6044820152606490fd5b919082039182116110f657565b60003081528060205260408120546007546a027b46536c66c8e3000000908103908111611213576008549069d3c21bcecceda10000009182039182116111ff57906111e4916110e9565b90818111156111fa576111f7925061118d565b90565b505090565b634e487b7160e01b84526011600452602484fd5b634e487b7160e01b83526011600452602483fd5b7f00000000000000000000000000000000000000000000000000000000000000008042106112ab57611259904261118d565b600091906303c267009081811061128757505090506111f76a027b46536c66c8e30000005b6007549061118d565b6a027b46536c66c8e300000090808202918204036111ff576111f79293500461127e565b50600090565b7f00000000000000000000000000000000000000000000000000000000000000008042106112ab576112e3904261118d565b600091906301e133809081811061131057505090506111f769d3c21bcecceda10000005b6008549061118d565b69d3c21bcecceda100000090808202918204036111ff576111f792935004611307565b1561133a57565b60405162461bcd60e51b81526020600482015260136024820152724e6f20746f6b656e7320617661696c61626c6560681b6044820152606490fd5b906001600160a01b0382169081156110d057600092828452836020526040842054908282106113e25750817fddf252ad1be2c89b69c2b068fc378daa952ba7f163c4a11628f55a4df523b3ef926020928587528684520360408620558060025403600255604051908152a3565b60405163391434e360e21b81526001600160a01b03919091166004820152602481019190915260448101829052606490fdfea26469706673582212200cc6ed29eeb71f47c3929a4ec3b2cbd1fe03591f71deafd37626fc04753e96cd64736f6c63430008140033",
  "linkReferences": {},
  "deployedLinkReferences": {}
}