{
  "_format": "hh-sol-artifact-1",
  "contractName": "NexaloStaking",
  "sourceName": "contracts/NexaloStaking.sol",
  "abi": [
    {
      "inputs": [
        {
          "internalType": "address",
          "name": "_nxlToken",
          "type": "address"
        },
        {
          "internalType": "address",
          "name": "_wbtc",
          "type": "address"
        }
      ],
      "stateMutability": "nonpayable",
      "type": "constructor"
    },
    {
      "inputs": [
        {
          "internalType": "address",
          "name": "owner",
          "type": "address"
        }
      ],
      "name": "OwnableInvalidOwner",
      "type": "error"
    },
    {
      "inputs": [
        {
          "internalType": "address",
          "name": "account",
          "type": "address"
        }
      ],
      "name": "OwnableUnauthorizedAccount",
      "type": "error"
    },
    {
      "inputs": [],
      "name": "ReentrancyGuardReentrantCall",
      "type": "error"
    },
    {
      "anonymous": false,
      "inputs": [
        {
          "indexed": true,
          "internalType": "address",
          "name": "previousOwner",
          "type": "address"
        },
        {
          "indexed": true,
          "internalType": "address",
          "name": "newOwner",
          "type": "address"
        }
      ],
      "name": "OwnershipTransferred",
      "type": "event"
    },
    {
      "anonymous": false,
      "inputs": [
        {
          "indexed": true,
          "internalType": "address",
          "name": "user",
          "type": "address"
        },
        {
          "indexed": false,
          "internalType": "uint256",
          "name": "amount",
          "type": "uint256"
        }
      ],
      "name": "RewardsClaimed",
      "type": "event"
    },
    {
      "anonymous": false,
      "inputs": [
        {
          "indexed": true,
          "internalType": "address",
          "name": "funder",
          "type": "address"
        },
        {
          "indexed": false,
          "internalType": "uint256",
          "name": "amount",
          "type": "uint256"
        }
      ],
      "name": "RewardsFunded",
      "type": "event"
    },
    {
      "anonymous": false,
      "inputs": [
        {
          "indexed": true,
          "internalType": "address",
          "name": "user",
          "type": "address"
        },
        {
          "indexed": false,
          "internalType": "uint256",
          "name": "amount",
          "type": "uint256"
        }
      ],
      "name": "Staked",
      "type": "event"
    },
    {
      "anonymous": false,
      "inputs": [
        {
          "indexed": true,
          "internalType": "address",
          "name": "user",
          "type": "address"
        },
        {
          "indexed": false,
          "internalType": "uint256",
          "name": "amount",
          "type": "uint256"
        }
      ],
      "name": "Unstaked",
      "type": "event"
    },
    {
      "inputs": [],
      "name": "APY_RATE",
      "outputs": [
        {
          "internalType": "uint256",
          "name": "",
          "type": "uint256"
        }
      ],
      "stateMutability": "view",
      "type": "function"
    },
    {
      "inputs": [],
      "name": "SECONDS_PER_YEAR",
      "outputs": [
        {
          "internalType": "uint256",
          "name": "",
          "type": "uint256"
        }
      ],
      "stateMutability": "view",
      "type": "function"
    },
    {
      "inputs": [
        {
          "internalType": "address",
          "name": "user",
          "type": "address"
        }
      ],
      "name": "calculatePendingRewards",
      "outputs": [
        {
          "internalType": "uint256",
          "name": "",
          "type": "uint256"
        }
      ],
      "stateMutability": "view",
      "type": "function"
    },
    {
      "inputs": [],
      "name": "claimRewards",
      "outputs": [],
      "stateMutability": "nonpayable",
      "type": "function"
    },
    {
      "inputs": [
        {
          "internalType": "uint256",
          "name": "nxlAmount",
          "type": "uint256"
        },
        {
          "internalType": "uint256",
          "name": "days_",
          "type": "uint256"
        }
      ],
      "name": "estimateRewards",
      "outputs": [
        {
          "internalType": "uint256",
          "name": "",
          "type": "uint256"
        }
      ],
      "stateMutability": "pure",
      "type": "function"
    },
    {
      "inputs": [
        {
          "internalType": "uint256",
          "name": "amount",
          "type": "uint256"
        }
      ],
      "name": "fundRewards",
      "outputs": [],
      "stateMutability": "nonpayable",
      "type": "function"
    },
    {
      "inputs": [],
      "name": "getCurrentAPY",
      "outputs": [
        {
          "internalType": "uint256",
          "name": "",
          "type": "uint256"
        }
      ],
      "stateMutability": "pure",
      "type": "function"
    },
    {
      "inputs": [],
      "name": "getGlobalStats",
      "outputs": [
        {
          "internalType": "uint256",
          "name": "_totalStaked",
          "type": "uint256"
        },
        {
          "internalType": "uint256",
          "name": "_totalStakers",
          "type": "uint256"
        },
        {
          "internalType": "uint256",
          "name": "_totalRewardsPaid",
          "type": "uint256"
        },
        {
          "internalType": "uint256",
          "name": "_wbtcBalance",
          "type": "uint256"
        },
        {
          "internalType": "uint256",
          "name": "_apy",
          "type": "uint256"
        }
      ],
      "stateMutability": "view",
      "type": "function"
    },
    {
      "inputs": [
        {
          "internalType": "address",
          "name": "user",
          "type": "address"
        }
      ],
      "name": "getStakeInfo",
      "outputs": [
        {
          "internalType": "uint256",
          "name": "stakedAmount",
          "type": "uint256"
        },
        {
          "internalType": "uint256",
          "name": "pendingRewards",
          "type": "uint256"
        },
        {
          "internalType": "uint256",
          "name": "totalClaimed",
          "type": "uint256"
        },
        {
          "internalType": "uint256",
          "name": "stakingDuration",
          "type": "uint256"
        }
      ],
      "stateMutability": "view",
      "type": "function"
    },
    {
      "inputs": [],
      "name": "nxlToken",
      "outputs": [
        {
          "internalType": "contract INXLToken",
          "name": "",
          "type": "address"
        }
      ],
      "stateMutability": "view",
      "type": "function"
    },
    {
      "inputs": [],
      "name": "owner",
      "outputs": [
        {
          "internalType": "address",
          "name": "",
          "type": "address"
        }
      ],
      "stateMutability": "view",
      "type": "function"
    },
    {
      "inputs": [],
      "name": "pause",
      "outputs": [],
      "stateMutability": "nonpayable",
      "type": "function"
    },
    {
      "inputs": [],
      "name": "paused",
      "outputs": [
        {
          "internalType": "bool",
          "name": "",
          "type": "bool"
        }
      ],
      "stateMutability": "view",
      "type": "function"
    },
    {
      "inputs": [
        {
          "internalType": "address",
          "name": "token",
          "type": "address"
        },
        {
          "internalType": "uint256",
          "name": "amount",
          "type": "uint256"
        }
      ],
      "name": "recoverTokens",
      "outputs": [],
      "stateMutability": "nonpayable",
      "type": "function"
    },
    {
      "inputs": [],
      "name": "renounceOwnership",
      "outputs": [],
      "stateMutability": "nonpayable",
      "type": "function"
    },
    {
      "inputs": [
        {
          "internalType": "uint256",
          "name": "amount",
          "type": "uint256"
        }
      ],
      "name": "stake",
      "outputs": [],
      "stateMutability": "nonpayable",
      "type": "function"
    },
    {
      "inputs": [
        {
          "internalType": "address",
          "name": "",
          "type": "address"
        }
      ],
      "name": "stakes",
      "outputs": [
        {
          "internalType": "uint256",
          "name": "amount",
          "type": "uint256"
        },
        {
          "internalType": "uint256",
          "name": "startTime",
          "type": "uint256"
        },
        {
          "internalType": "uint256",
          "name": "lastClaimTime",
          "type": "uint256"
        },
        {
          "internalType": "uint256",
          "name": "totalClaimed",
          "type": "uint256"
        }
      ],
      "stateMutability": "view",
      "type": "function"
    },
    {
      "inputs": [],
      "name": "totalRewardsPaid",
      "outputs": [
        {
          "internalType": "uint256",
          "name": "",
          "type": "uint256"
        }
      ],
      "stateMutability": "view",
      "type": "function"
    },
    {
      "inputs": [],
      "name": "totalStaked",
      "outputs": [
        {
          "internalType": "uint256",
          "name": "",
          "type": "uint256"
        }
      ],
      "stateMutability": "view",
      "type": "function"
    },
    {
      "inputs": [],
      "name": "totalStakers",
      "outputs": [
        {
          "internalType": "uint256",
          "name": "",
          "type": "uint256"
        }
      ],
      "stateMutability": "view",
      "type": "function"
    },
    {
      "inputs": [
        {
          "internalType": "address",
          "name": "newOwner",
          "type": "address"
        }
      ],
      "name": "transferOwnership",
      "outputs": [],
      "stateMutability": "nonpayable",
      "type": "function"
    },
    {
      "inputs": [],
      "name": "unpause",
      "outputs": [],
      "stateMutability": "nonpayable",
      "type": "function"
    },
    {
      "inputs": [
        {
          "internalType": "uint256",
          "name": "amount",
          "type": "uint256"
        }
      ],
      "name": "unstake",
      "outputs": [],
      "stateMutability": "nonpayable",
      "type": "function"
    },
    {
      "inputs": [],
      "name": "wbtc",
      "outputs": [
        {
          "internalType": "contract IERC20",
          "name": "",
          "type": "address"
        }
      ],
      "stateMutability": "view",
      "type": "function"
    },
    {
      "inputs": [
        {
          "internalType": "uint256",
          "name": "amount",
          "type": "uint256"
        }
      ],
      "name": "withdrawExcess",
      "outputs": [],
      "stateMutability": "nonpayable",
      "type": "function"
    }
  ],
  "bytecode": "0x60c03461019e57620015bc90601f38839003908101601f19168201906001600160401b038211838310176101a3578083916040958694855283398101031261019e57610056602061004f836101b9565b92016101b9565b90600160005533156101865760018054336001600160a01b0319821681179092558451936001600160a01b03939092849283167f8be0079c531659141344cd1fd0a4f28419497f9722a3daafe3b4186f6b6457e0600080a31692831561015057501690811561011d5760805260a052516113ee9081620001ce823960805181818161047d0152818161082601528181610c480152610dec015260a0518181816102130152818161074c0152818161096e01528181610b0c01528181610e16015261113c0152f35b825162461bcd60e51b815260206004820152600c60248201526b496e76616c6964205742544360a01b6044820152606490fd5b62461bcd60e51b815260206004820152601160248201527024b73b30b634b210272c26103a37b5b2b760791b6044820152606490fd5b8251631e4fbdf760e01b815260006004820152602490fd5b600080fd5b634e487b7160e01b600052604160045260246000fd5b51906001600160a01b038216820361019e5756fe6040608081526004908136101561001557600080fd5b600091823560e01c8063069c9fae14610dbd578063097aad1014610d9057806316934fc414610d285780632e17de7814610ba4578063372500ab14610b3b5780633cdc538914610af75780633f4ba83a14610ad157806346a203d0146106cc5780635c975abb14610aad57806360df829714610a085780636b4169c314610936578063715018a6146108d957806374958e35146108bc578063817b1cd21461089d5780638456cb5914610874578063869890381461085557806389ef723b146108115780638da5cb5b146107e857806393707a19146106e9578063962ca496146106cc578063a694fc3a1461043f578063c345315314610387578063e6a69ab814610364578063e755ddd7146101c65763f2fde38b1461013457600080fd5b346101c25760203660031901126101c25761014d610f3c565b90610156610f57565b6001600160a01b039182169283156101ac575050600154826bffffffffffffffffffffffff60a01b821617600155167f8be0079c531659141344cd1fd0a4f28419497f9722a3daafe3b4186f6b6457e08380a380f35b51631e4fbdf760e01b8152908101849052602490fd5b8280fd5b50346101c25760209081600319360112610360578035906101e5610f57565b6101ed611091565b6101f8821515610f83565b83516370a0823160e01b815230828201526001600160a01b037f0000000000000000000000000000000000000000000000000000000000000000811692918581602481875afa80156103565785918991610321575b50106102e757600154865163a9059cbb60e01b815291166001600160a01b031691810191825260208201939093528391839182908890829060400103925af19182156102da576102a6935084926102ad575b5050611030565b6001815580f35b6102cc9250803d106102d3575b6102c48183610ff6565b810190611018565b388061029f565b503d6102ba565b50505051903d90823e3d90fd5b855162461bcd60e51b81528083018690526014602482015273496e73756666696369656e742062616c616e636560601b6044820152606490fd5b809250878092503d831161034f575b61033a8183610ff6565b8101031261034b578490513861024d565b8780fd5b503d610330565b87513d8a823e3d90fd5b8380fd5b505034610383578160031936011261038357602090516301e133808152f35b5080fd5b82843461043c57602036600319011261043c576104316103a5610f3c565b9160018060a01b03831681526002602052838120938051916103c683610fc4565b855483526103f4600360018801549760208601988952600281015485870152015495606085019687526112e5565b8351909690156104355761040a915051426110b4565b915b5193519051948594859094939260609260808301968352602083015260408201520152565b0390f35b509161040c565b80fd5b50919034610383576020806003193601126101c25783359161045f611091565b61046a831515610f83565b80516370a0823160e01b815233868201527f00000000000000000000000000000000000000000000000000000000000000006001600160a01b0316908381602481855afa9081156106c257908591879161068d575b501061064a57338552600283528185205461063c575b81516323b872dd60e01b815233878201908152306020820152604081018690529091849183919082908990829060600103925af19081156106325790610522918691610615575b50611030565b338452600282528084208054806105df57505060055460001981146105cc577f9e71bc8eea02a63969f509818f2dafb9254532904319f9dbda79b67bd34a5f3d93949550600101600555805161057781610fc4565b84815260038382014281528383014281526060840191898352338a5260028752858a2094518555516001850155516002840155519101555b6105bb8460035461106e565b600355519283523392a26001815580f35b634e487b7160e01b855260118652602485fd5b847f9e71bc8eea02a63969f509818f2dafb9254532904319f9dbda79b67bd34a5f3d9596975061060e9161106e565b90556105af565b61062c9150843d86116102d3576102c48183610ff6565b3861051c565b82513d87823e3d90fd5b61064533611104565b6104d5565b815162461bcd60e51b8152808701849052601860248201527f496e73756666696369656e74204e584c2062616c616e636500000000000000006044820152606490fd5b809250858092503d83116106bb575b6106a68183610ff6565b810103126106b757849051386104bf565b8580fd5b503d61069c565b83513d88823e3d90fd5b505034610383578160031936011261038357602090516101908152f35b5090346101c25760203660031901126101c25761074760208335809461070d611091565b610718821515610f83565b84516323b872dd60e01b8152339181019182523060208301526040820192909252909283918291606090910190565b0381877f00000000000000000000000000000000000000000000000000000000000000006001600160a01b03165af19081156107de579061078f9185916107c0575b506110c1565b519081527fd53214ca07be5520e229c395f05a3e5c0697ec6279184ffbe2758d304fd322cc60203392a26001815580f35b6107d8915060203d81116102d3576102c48183610ff6565b38610789565b82513d86823e3d90fd5b50503461038357816003193601126103835760015490516001600160a01b039091168152602090f35b505034610383578160031936011261038357517f00000000000000000000000000000000000000000000000000000000000000006001600160a01b03168152602090f35b5050346103835781600319360112610383576020906005549051908152f35b833461043c578060031936011261043c5761088d610f57565b600160ff19600654161760065580f35b5050346103835781600319360112610383576020906003549051908152f35b50346101c257826003193601126101c25760209250549051908152f35b833461043c578060031936011261043c576108f2610f57565b600180546001600160a01b0319811690915581906001600160a01b03167f8be0079c531659141344cd1fd0a4f28419497f9722a3daafe3b4186f6b6457e08280a380f35b50346101c257826003193601126101c257600354600554825484516370a0823160e01b815230948101949094529193906020846024817f00000000000000000000000000000000000000000000000000000000000000006001600160a01b03165afa9384156109fe5786946109c7575b5060a095508151948552602085015283015260608201526101906080820152f35b9093506020813d82116109f6575b816109e260209383610ff6565b810103126106b75760a095505192386109a6565b3d91506109d5565b82513d88823e3d90fd5b50823461043c578260031936011261043c578135602435906201518091828102928184041490151715610a9a5761019090818102918183041490151715610a9a5764496cebb80091610a59916112d2565b04916305f5e10092838102938185041490151715610a875760208369d3c21bcecceda1000000865191048152f35b634e487b7160e01b825260119052602490fd5b634e487b7160e01b835260118452602483fd5b50503461038357816003193601126103835760209060ff6006541690519015158152f35b833461043c578060031936011261043c57610aea610f57565b60ff196006541660065580f35b505034610383578160031936011261038357517f00000000000000000000000000000000000000000000000000000000000000006001600160a01b03168152602090f35b5090346101c257826003193601126101c257610b55611091565b33835260026020528083205415610b7057826102a633611104565b906020606492519162461bcd60e51b8352820152600e60248201526d139bc81cdd185ad948199bdd5b9960921b6044820152fd5b50346101c25760208060031936011261036057813591610bc2611091565b610bcd831515610f83565b33855260028252828486205410610cf157610be733611104565b33855260028252838520610bfc8482546110b4565b9055610c0a836003546110b4565b6003553385526002825281838587205415610cc5575b855163a9059cbb60e01b815233938101938452602084019190915291829081906040010381887f00000000000000000000000000000000000000000000000000000000000000006001600160a01b03165af1908115610cbb577f0f5bb82176feb1b5e747e28471aa92156a04d9f3ab9f45f28e2d704232b93f75939491610cad9187916106155750611030565b519283523392a26001815580f35b84513d87823e3d90fd5b50506005548015610cde57600019016005558183610c20565b634e487b7160e01b865260118252602486fd5b60649184519162461bcd60e51b83528201526013602482015272125b9cdd59999a58da595b9d081cdd185ad959606a1b6044820152fd5b505034610383576020366003190112610383579081906001600160a01b03610d4e610f3c565b16815260026020522090610431825491600184015493600360028201549101549151948594859094939260609260808301968352602083015260408201520152565b50503461038357602036600319011261038357602090610db6610db1610f3c565b6112e5565b9051908152f35b50346101c257816003193601126101c257610dd6610f3c565b610dde610f57565b6001600160a01b03908116907f000000000000000000000000000000000000000000000000000000000000000081168214610f0457807f0000000000000000000000000000000000000000000000000000000000000000168214610eb057600154845163a9059cbb60e01b815291166001600160a01b03169281019283526024356020808501919091529093929091849182908790829060400103925af1908115610ea75750610e8c575080f35b610ea39060203d81116102d3576102c48183610ff6565b5080f35b513d84823e3d90fd5b835162461bcd60e51b8152602081850152602860248201527f43616e6e6f74207265636f766572205742544320287573652077697468647261604482015267774578636573732960c01b6064820152608490fd5b835162461bcd60e51b8152602081850152601260248201527110d85b9b9bdd081c9958dbdd995c8813961360721b6044820152606490fd5b600435906001600160a01b0382168203610f5257565b600080fd5b6001546001600160a01b03163303610f6b57565b60405163118cdaa760e01b8152336004820152602490fd5b15610f8a57565b60405162461bcd60e51b81526020600482015260126024820152710416d6f756e74206d757374206265203e20360741b6044820152606490fd5b6080810190811067ffffffffffffffff821117610fe057604052565b634e487b7160e01b600052604160045260246000fd5b90601f8019910116810190811067ffffffffffffffff821117610fe057604052565b90816020910312610f5257518015158103610f525790565b1561103757565b60405162461bcd60e51b815260206004820152600f60248201526e151c985b9cd9995c8819985a5b1959608a1b6044820152606490fd5b9190820180921161107b57565b634e487b7160e01b600052601160045260246000fd5b6002600054146110a2576002600055565b604051633ee5aeb560e01b8152600490fd5b9190820391821161107b57565b156110c857565b60405162461bcd60e51b815260206004820152601460248201527315d09510c81d1c985b9cd9995c8819985a5b195960621b6044820152606490fd5b9061110e826112e5565b918261111957509050565b604080516370a0823160e01b815230600482015290936020916001600160a01b037f00000000000000000000000000000000000000000000000000000000000000008116918481602481865afa80156112c7578491600091611297575b501061125357826111e9928592871696876000526002845260038a600020426002820155016111a684825461106e565b90556111b48360045461106e565b60045560008a5180968195829463a9059cbb60e01b84526004840160209093929193604081019460018060a01b031681520152565b03925af1908115611248577ffc30cddea38e2bf4d6ea7d3f9ed3b6ad7f176419f4963bd81318067a4aee73fe9495969161122a9160009161123157506110c1565b51908152a2565b6107d89150853d87116102d3576102c48183610ff6565b86513d6000823e3d90fd5b865162461bcd60e51b815260048101859052601d60248201527f496e73756666696369656e74205742544320696e20636f6e74726163740000006044820152606490fd5b91508582813d83116112c0575b6112ae8183610ff6565b8101031261043c575083905138611176565b503d6112a4565b88513d6000823e3d90fd5b8181029291811591840414171561107b57565b6001600160a01b031660009081526002602052604080822090519061130982610fc4565b805480835260018201546020840152600360028301549283604086015201546060840152156113b35761133c90426110b4565b90516101909081810291818304149015171561139f5764496cebb80091611362916112d2565b04906305f5e1009182810292818404149015171561138b575069d3c21bcecceda1000000900490565b634e487b7160e01b81526011600452602490fd5b634e487b7160e01b83526011600452602483fd5b50509056fea26469706673582212208d82c4e881fd3adc1983c5831ea6575b07efe2dc3db686a2223c0b0b5a20aaeb64736f6c63430008140033",
  "linkReferences": {},
  "deployedLinkReferences": {}
}