{
  "_format": "hh-sol-artifact-1",
  "contractName": "AmbassadorRegistry",
  "sourceName": "contracts/AmbassadorRegistry.sol",
  "abi": [
    {
      "inputs": [
        {
          "internalType": "address",
          "name": "_stablecoin",
          "type": "address"
        }
      ],
      "stateMutability": "nonpayable",
      "type": "constructor"
    },
    {
      "inputs": [
        {
          "internalType": "address",
          "name": "owner",
          "type": "address"
        }
      ],
      "name": "OwnableInvalidOwner",
      "type": "error"
    },
    {
      "inputs": [
        {
          "internalType": "address",
          "name": "account",
          "type": "address"
        }
      ],
      "name": "OwnableUnauthorizedAccount",
      "type": "error"
    },
    {
      "inputs": [],
      "name": "ReentrancyGuardReentrantCall",
      "type": "error"
    },
    {
      "anonymous": false,
      "inputs": [
        {
          "indexed": true,
          "internalType": "address",
          "name": "ambassador",
          "type": "address"
        },
        {
          "indexed": false,
          "internalType": "string",
          "name": "name",
          "type": "string"
        }
      ],
      "name": "AmbassadorRegistered",
      "type": "event"
    },
    {
      "anonymous": false,
      "inputs": [
        {
          "indexed": false,
          "internalType": "uint256",
          "name": "totalAmount",
          "type": "uint256"
        },
        {
          "indexed": false,
          "internalType": "uint256",
          "name": "ambassadorCount",
          "type": "uint256"
        }
      ],
      "name": "FundsDistributed",
      "type": "event"
    },
    {
      "anonymous": false,
      "inputs": [
        {
          "indexed": true,
          "internalType": "address",
          "name": "previousOwner",
          "type": "address"
        },
        {
          "indexed": true,
          "internalType": "address",
          "name": "newOwner",
          "type": "address"
        }
      ],
      "name": "OwnershipTransferred",
      "type": "event"
    },
    {
      "inputs": [
        {
          "internalType": "uint256",
          "name": "",
          "type": "uint256"
        }
      ],
      "name": "ambassadorList",
      "outputs": [
        {
          "internalType": "address",
          "name": "",
          "type": "address"
        }
      ],
      "stateMutability": "view",
      "type": "function"
    },
    {
      "inputs": [
        {
          "internalType": "address",
          "name": "",
          "type": "address"
        }
      ],
      "name": "ambassadors",
      "outputs": [
        {
          "internalType": "bool",
          "name": "active",
          "type": "bool"
        },
        {
          "internalType": "uint256",
          "name": "totalEarned",
          "type": "uint256"
        },
        {
          "internalType": "string",
          "name": "name",
          "type": "string"
        }
      ],
      "stateMutability": "view",
      "type": "function"
    },
    {
      "inputs": [],
      "name": "distributeFunds",
      "outputs": [],
      "stateMutability": "nonpayable",
      "type": "function"
    },
    {
      "inputs": [],
      "name": "getActiveAmbassadorCount",
      "outputs": [
        {
          "internalType": "uint256",
          "name": "",
          "type": "uint256"
        }
      ],
      "stateMutability": "view",
      "type": "function"
    },
    {
      "inputs": [],
      "name": "owner",
      "outputs": [
        {
          "internalType": "address",
          "name": "",
          "type": "address"
        }
      ],
      "stateMutability": "view",
      "type": "function"
    },
    {
      "inputs": [
        {
          "internalType": "address",
          "name": "ambassador",
          "type": "address"
        },
        {
          "internalType": "string",
          "name": "name",
          "type": "string"
        }
      ],
      "name": "registerAmbassador",
      "outputs": [],
      "stateMutability": "nonpayable",
      "type": "function"
    },
    {
      "inputs": [],
      "name": "renounceOwnership",
      "outputs": [],
      "stateMutability": "nonpayable",
      "type": "function"
    },
    {
      "inputs": [],
      "name": "stablecoin",
      "outputs": [
        {
          "internalType": "contract IERC20",
          "name": "",
          "type": "address"
        }
      ],
      "stateMutability": "view",
      "type": "function"
    },
    {
      "inputs": [
        {
          "internalType": "address",
          "name": "newOwner",
          "type": "address"
        }
      ],
      "name": "transferOwnership",
      "outputs": [],
      "stateMutability": "nonpayable",
      "type": "function"
    }
  ],
  "bytecode": "0x60a03461011357601f610ccc38819003918201601f19168301916001600160401b038311848410176101185780849260209460405283398101031261011357516001600160a01b03808216918290036101135733156100fa576000543360018060a01b0319821617600055604051913391167f8be0079c531659141344cd1fd0a4f28419497f9722a3daafe3b4186f6b6457e0600080a36001805581156100c35750608052604051610b9d908161012f823960805181818161012b015261064d0152f35b62461bcd60e51b815260206004820152601260248201527124b73b30b634b21039ba30b13632b1b7b4b760711b6044820152606490fd5b604051631e4fbdf760e01b815260006004820152602490fd5b600080fd5b634e487b7160e01b600052604160045260246000fdfe608080604052600436101561001357600080fd5b60003560e01c90816328ce48a01461092f575080633a6a4d2e14610618578063715018a6146105bf57806378a42bb4146102435780638da5cb5b1461021a578063b92571aa1461019c578063c7ce57071461015a578063e9cbd822146101155763f2fde38b1461008257600080fd5b346101105760203660031901126101105761009b610a6d565b6100a3610b2c565b6001600160a01b039081169081156100f757600054826bffffffffffffffffffffffff60a01b821617600055167f8be0079c531659141344cd1fd0a4f28419497f9722a3daafe3b4186f6b6457e0600080a3005b604051631e4fbdf760e01b815260006004820152602490fd5b600080fd5b34610110576000366003190112610110576040517f00000000000000000000000000000000000000000000000000000000000000006001600160a01b03168152602090f35b346101105760203660031901126101105760043560035481101561011057610183602091610adf565b905460405160039290921b1c6001600160a01b03168152f35b346101105760003660031901126101105760008060038054915b8281106101c857602084604051908152f35b6101d181610adf565b905490831b1c6001600160a01b031660009081526002602052604090205460ff16610205575b61020090610b58565b6101b6565b9261021261020091610b58565b9390506101f7565b34610110576000366003190112610110576000546040516001600160a01b039091168152602090f35b346101105760403660031901126101105761025c610a6d565b6024359067ffffffffffffffff821161011057366023830112156101105767ffffffffffffffff82600401351161011057366024836004013584010111610110576102a5610b2c565b6001600160a01b03811615610588576001600160a01b03811660009081526002602052604090205460ff1661054e576040516060810181811067ffffffffffffffff8211176104745760405260018152600060208201526040516103176020601f19601f876004013501160182610abd565b6004840135808252602485016020830137600060208560040135830101526040820190815260018060a01b038316600052600260205260206040600020928051151560ff80198654169116178455015160018301555180519067ffffffffffffffff82116104745761038c6002840154610a83565b601f8111610503575b50602090601f831160011461049557600292916000918361048a575b50508160011b916000199060031b1c1916179101555b60035490680100000000000000008210156104745761040d8260017fdc50763ba3a9913608b4503be1144367f90c3784cdd0c8de36d2c2d6920f6b599401600355610adf565b81546001600160a01b0384811660039390931b92831b921b1916179055604080516020808252600486013590820181905290928391602487018385013760006004909601358281018401969096526001600160a01b031694601f01601f19168101030190a2005b634e487b7160e01b600052604160045260246000fd5b0151905086806103b1565b90601f198316916002850160005260206000209260005b8181106104eb575091600193918560029694106104d2575b505050811b019101556103c7565b015160001960f88460031b161c191690558680806104c4565b929360206001819287860151815501950193016104ac565b600284016000526020600020601f840160051c81019160208510610544575b601f0160051c01905b8181106105385750610395565b6000815560010161052b565b9091508190610522565b60405162461bcd60e51b8152602060048201526012602482015271105b1c9958591e481c9959da5cdd195c995960721b6044820152606490fd5b60405162461bcd60e51b815260206004820152600f60248201526e496e76616c6964206164647265737360881b6044820152606490fd5b34610110576000366003190112610110576105d8610b2c565b600080546001600160a01b0319811682556001600160a01b03167f8be0079c531659141344cd1fd0a4f28419497f9722a3daafe3b4186f6b6457e08280a3005b346101105760003660031901126101105760026001541461091d5760026001556040516370a0823160e01b81523060048201527f00000000000000000000000000000000000000000000000000000000000000006001600160a01b0316602082602481845afa9182156107e9576000926108e9575b5081156108b9576000916000600354905b818110610868575050821561082b5760005b6003548110156107f5576106c381610adf565b905460039190911b1c6001600160a01b031660008181526002602052604090205460ff166106fb575b506106f690610b58565b6106b0565b60405163a9059cbb60e01b81526004810182905285840460248201526020816044816000895af19081156107e9576000916107ae575b501561077757600052600260205260016040600020019081548584048101809111610761576106f69255906106ec565b634e487b7160e01b600052601160045260246000fd5b60405162461bcd60e51b815260206004820152600f60248201526e151c985b9cd9995c8819985a5b1959608a1b6044820152606490fd5b90506020813d6020116107e1575b816107c960209383610abd565b81010312610110575180151581036101105786610731565b3d91506107bc565b6040513d6000823e3d90fd5b7f40d8c854b6d5329fd5fccae04f5a931d7529963fbab81aced7337394e737cb4d6040838682519182526020820152a160018055005b60405162461bcd60e51b81526020600482015260156024820152744e6f2061637469766520616d6261737361646f727360581b6044820152606490fd5b61087181610adf565b60018060a01b0391549060031b1c16600052600260205260ff604060002054166108a4575b61089f90610b58565b61069e565b936108b161089f91610b58565b949050610896565b60405162461bcd60e51b81526020600482015260086024820152674e6f2066756e647360c01b6044820152606490fd5b9091506020813d602011610915575b8161090560209383610abd565b810103126101105751908261068d565b3d91506108f8565b604051633ee5aeb560e01b8152600490fd5b346101105760209081600319360112610110576001600160a01b03610952610a6d565b166000526002825260406000209160ff8354169260018360028284015493019160009083549361098185610a83565b94858552878382169182600014610a4b575050600114610a0c575b50506109ae9250959392950384610abd565b6040519384921515835281830152606060408301528251908160608401526000935b8285106109f3575050608092506000838284010152601f80199101168101030190f35b84810182015186860160800152938101938593506109d0565b86925060005281600020906000915b858310610a335750506109ae9350820101878061099c565b8054838a018501528894508793909201918101610a1b565b92509350506109ae94915060ff191682840152151560051b820101878061099c565b600435906001600160a01b038216820361011057565b90600182811c92168015610ab3575b6020831014610a9d57565b634e487b7160e01b600052602260045260246000fd5b91607f1691610a92565b90601f8019910116810190811067ffffffffffffffff82111761047457604052565b600354811015610b165760036000527fc2575a0e9e593c00f959f8c92f12db2869c3395a3b0502d05e2516446f71f85b0190600090565b634e487b7160e01b600052603260045260246000fd5b6000546001600160a01b03163303610b4057565b60405163118cdaa760e01b8152336004820152602490fd5b6000198114610761576001019056fea26469706673582212207a81b93212400ea15da5e41b90cf50ba449b48d61822a20a4500470a30fad8f264736f6c63430008140033",
  "linkReferences": {},
  "deployedLinkReferences": {}
}