{"abi":[{"type":"constructor","inputs":[{"name":"_treasury","type":"address","internalType":"address"},{"name":"_nxlToken","type":"address","internalType":"address"},{"name":"_stablecoin","type":"address","internalType":"address"}],"stateMutability":"nonpayable"},{"type":"function","name":"attackRedeem","inputs":[{"name":"nxlAmount","type":"uint256","internalType":"uint256"}],"outputs":[{"name":"success","type":"bool","internalType":"bool"}],"stateMutability":"nonpayable"},{"type":"function","name":"nxlToken","inputs":[],"outputs":[{"name":"","type":"address","internalType":"address"}],"stateMutability":"view"},{"type":"function","name":"stablecoin","inputs":[],"outputs":[{"name":"","type":"address","internalType":"address"}],"stateMutability":"view"},{"type":"function","name":"treasury","inputs":[],"outputs":[{"name":"","type":"address","internalType":"address"}],"stateMutability":"view"}],"bytecode":{"object":"0x6080346100a057601f6102bb38819003918201601f19168301916001600160401b038311848410176100a5578084926060946040528339810103126100a057610047816100bb565b906100606040610059602084016100bb565b92016100bb565b60018060a01b0380928160018060a01b0319951685600054161760005516836001541617600155169060025416176002556040516101eb90816100d08239f35b600080fd5b634e487b7160e01b600052604160045260246000fd5b51906001600160a01b03821682036100a05756fe60806040818152600436101561001457600080fd5b600091823560e01c90816361d027b3146101915750806389ef723b14610169578063d58d4d96146100795763e9cbd8221461004e57600080fd5b3461007557816003193601126100755760025490516001600160a01b039091168152602090f35b5080fd5b509034610166576020366003190112610166578054825163db006a7560e01b60208201908152600435602480840191909152825267ffffffffffffffff94926001600160a01b031691606081018681118282101761015257845251849283929083905af1913d15610148573d9084821161013457825191601f19603f81601f8401160116830195838710908711176101205760209584528252843d92013e5b519015158152f35b634e487b7160e01b82526041600452602482fd5b634e487b7160e01b81526041600452602490fd5b5060209250610118565b634e487b7160e01b86526041600452602486fd5b80fd5b503461007557816003193601126100755760015490516001600160a01b039091168152602090f35b83903461007557816003193601126100755790546001600160a01b03168152602090f3fea2646970667358221220c3e4a40995674e05ebcec58b3f0454e3b9137e5db8217e8c2b380d709322563f64736f6c63430008140033","linkReferences":{}},"methodIdentifiers":{"attackRedeem(uint256)":"d58d4d96","nxlToken()":"89ef723b","stablecoin()":"e9cbd822","treasury()":"61d027b3"},"id":14}