{"abi":[{"type":"constructor","inputs":[{"name":"_registry","type":"address","internalType":"address"}],"stateMutability":"nonpayable"},{"type":"fallback","stateMutability":"nonpayable"},{"type":"receive","stateMutability":"payable"},{"type":"function","name":"reentryAttempts","inputs":[],"outputs":[{"name":"","type":"uint256","internalType":"uint256"}],"stateMutability":"view"},{"type":"function","name":"registry","inputs":[],"outputs":[{"name":"","type":"address","internalType":"address"}],"stateMutability":"view"},{"type":"function","name":"triggerClaim","inputs":[],"outputs":[],"stateMutability":"nonpayable"}],"bytecode":{"object":"0x60803461007457601f61031938819003918201601f19168301916001600160401b038311848410176100795780849260209460405283398101031261007457516001600160a01b0381169081900361007457600080546001600160a01b03191691909117905560405161028990816100908239f35b600080fd5b634e487b7160e01b600052604160045260246000fdfe6080604090808252600490813610156100de575b5036156100dc57346100d75760015460001981146100c25760019081019055600080548351634e71d92d60e01b6020820190815284825283926001600160a01b0316918390610061816101d6565b51925af161006d610208565b5061007457005b6020608492519162461bcd60e51b83528201526024808201527f5265656e7472616e637920696e20616d6261737361646f7220636c61696d202d6044820152632042554760e01b6064820152fd5b601182634e487b7160e01b6000525260246000fd5b600080fd5b005b600090813560e01c9081637b103999146101b257508063a8745cd21461018f5763ef21fe5a0361001357913461018b578260031936011261018b57828060018060a01b038154168351826020820191634e71d92d60e01b8352878152610143816101d6565b51925af161014f610208565b5015610159578280f35b906020606492519162461bcd60e51b8352820152600c60248201526b10db185a5b4819985a5b195960a21b6044820152fd5b8280fd5b5082346101ae57816003193601126101ae576020906001549051908152f35b5080fd5b9050346101ae57816003193601126101ae5790546001600160a01b03168152602090f35b6040810190811067ffffffffffffffff8211176101f257604052565b634e487b7160e01b600052604160045260246000fd5b3d1561024e5767ffffffffffffffff903d8281116101f25760405192601f8201601f19908116603f01168401908111848210176101f25760405282523d6000602084013e565b60609056fea2646970667358221220db09061785534f7265c76f187541913ba3f324f626001b0a13a0523f8cfb3fe864736f6c63430008140033","linkReferences":{}},"methodIdentifiers":{"reentryAttempts()":"a8745cd2","registry()":"7b103999","triggerClaim()":"ef21fe5a"},"id":14}