{"abi":[{"type":"constructor","inputs":[{"name":"_target","type":"address","internalType":"address"}],"stateMutability":"nonpayable"},{"type":"fallback","stateMutability":"nonpayable"},{"type":"receive","stateMutability":"payable"},{"type":"function","name":"attack","inputs":[],"outputs":[],"stateMutability":"nonpayable"},{"type":"function","name":"attackType","inputs":[],"outputs":[{"name":"","type":"uint8","internalType":"uint8"}],"stateMutability":"view"},{"type":"function","name":"reentryCount","inputs":[],"outputs":[{"name":"","type":"uint256","internalType":"uint256"}],"stateMutability":"view"},{"type":"function","name":"setAttackType","inputs":[{"name":"_type","type":"uint8","internalType":"uint8"}],"outputs":[],"stateMutability":"nonpayable"},{"type":"function","name":"target","inputs":[],"outputs":[{"name":"","type":"address","internalType":"address"}],"stateMutability":"view"}],"bytecode":{"object":"0x60803461007457601f61044438819003918201601f19168301916001600160401b038311848410176100795780849260209460405283398101031261007457516001600160a01b0381169081900361007457600080546001600160a01b0319169190911790556040516103b490816100908239f35b600080fd5b634e487b7160e01b600052604160045260246000fdfe6080604090808252600490813610156100f4575b50361561002c57346100ef57600154600281111561002e575b005b60001981146100da5760010160015560005460ff8160a01c161561004e57005b60008091845182602082019163b402f4d360e01b835286815261007081610301565b51926001600160a01b03165af1610085610333565b5061008c57005b6020608492519162461bcd60e51b8352820152602360248201527f5265656e7472616e637920737563636565646564202d20435249544943414c2060448201526242554760e81b6064820152fd5b601182634e487b7160e01b6000525260246000fd5b600080fd5b600090813560e01c908163032fb82b146102c857816353b38169146102ac575080639e5faafc14610182578063ad0b523f1461015f5763d4b839920361001357823461015b578160031936011261015b57905490516001600160a01b039091168152602090f35b5080fd5b50823461015b578160031936011261015b5760ff6020925460a01c169051908152f35b5091346102a857826003193601126102a85782805460ff8160a01c161560001461022557508054825163b402f4d360e01b6020820190815285825283926001600160a01b03169183906101d481610301565b51925af16101e0610333565b50156101eb57505080f35b906020606492519162461bcd60e51b83528201526014602482015273125b9a5d1a585b0818db185a5b4819985a5b195960621b6044820152fd5b81908351826020820191638dabaf6760e01b835287815261024581610301565b51926001600160a01b03165af161025a610333565b501561026557505080f35b906020606492519162461bcd60e51b8352820152601860248201527f496e697469616c204e584c20636c61696d206661696c656400000000000000006044820152fd5b8280fd5b90503461015b578160031936011261015b576020906001548152f35b82843461015b57602036600319011261015b573560ff8116810361015b57815460ff60a01b191660a09190911b60ff60a01b1617815580f35b6040810190811067ffffffffffffffff82111761031d57604052565b634e487b7160e01b600052604160045260246000fd5b3d156103795767ffffffffffffffff903d82811161031d5760405192601f8201601f19908116603f011684019081118482101761031d5760405282523d6000602084013e565b60609056fea2646970667358221220c6070e1d544ac9ddd60f4324b67d6c2f825c4f7d0bb11c1bf4142abead34d10d64736f6c63430008140033","linkReferences":{}},"methodIdentifiers":{"attack()":"9e5faafc","attackType()":"ad0b523f","reentryCount()":"53b38169","setAttackType(uint8)":"032fb82b","target()":"d4b83992"},"id":14}