{"abi":[{"type":"constructor","inputs":[{"name":"stable_","type":"address","internalType":"address"},{"name":"treasury_","type":"address","internalType":"address"}],"stateMutability":"nonpayable"},{"type":"function","name":"deposit","inputs":[{"name":"amount","type":"uint256","internalType":"uint256"}],"outputs":[],"stateMutability":"nonpayable"},{"type":"function","name":"harvest","inputs":[],"outputs":[{"name":"gained","type":"uint256","internalType":"uint256"}],"stateMutability":"nonpayable"},{"type":"function","name":"stablecoin","inputs":[],"outputs":[{"name":"","type":"address","internalType":"address"}],"stateMutability":"view"},{"type":"function","name":"totalAssets","inputs":[],"outputs":[{"name":"","type":"uint256","internalType":"uint256"}],"stateMutability":"view"},{"type":"function","name":"treasury","inputs":[],"outputs":[{"name":"","type":"address","internalType":"address"}],"stateMutability":"view"},{"type":"function","name":"withdraw","inputs":[{"name":"amount","type":"uint256","internalType":"uint256"}],"outputs":[],"stateMutability":"nonpayable"},{"type":"function","name":"withdrawAll","inputs":[],"outputs":[{"name":"withdrawn","type":"uint256","internalType":"uint256"}],"stateMutability":"nonpayable"},{"type":"error","name":"ReentrancyGuardReentrantCall","inputs":[]},{"type":"error","name":"SafeERC20FailedOperation","inputs":[{"name":"token","type":"address","internalType":"address"}]}],"bytecode":{"object":"0x60c03461014057601f61085838819003918201601f19168301916001600160401b0383118484101761014557808492604094855283398101031261014057610052602061004b8361015b565b920161015b565b6001600055906001600160a01b03908116908115610106578216156100ce5760805260a0526040516106e89081610170823960805181818160850152818161015b01528181610217015281816103f601526104a0015260a05181818160d0015281816101df015281816102e40152818161032f01526103870152f35b60405162461bcd60e51b815260206004820152601060248201526f496e76616c696420747265617375727960801b6044820152606490fd5b60405162461bcd60e51b815260206004820152601260248201527124b73b30b634b21039ba30b13632b1b7b4b760711b6044820152606490fd5b600080fd5b634e487b7160e01b600052604160045260246000fd5b51906001600160a01b03821682036101405756fe608060408181526004918236101561001657600080fd5b600092833560e01c91826301e1d11414610476575081632e1a7d4d1461036f5781634641257d1461031357816361d027b3146102cf578163853828b6146101c1578163b6b55f25146100b8575063e9cbd8221461007257600080fd5b346100b457816003193601126100b457517f00000000000000000000000000000000000000000000000000000000000000006001600160a01b03168152602090f35b5080fd5b9050346101bd5760203660031901126101bd578035917f00000000000000000000000000000000000000000000000000000000000000006001600160a01b031690610104338314610527565b61010c61068f565b610117841515610566565b8051916323b872dd60e01b602084015260248301523060448301528360648301526064825260a082019082821067ffffffffffffffff8311176101aa575261017f907f0000000000000000000000000000000000000000000000000000000000000000610627565b60015491820180921161019757506001556001815580f35b634e487b7160e01b835260119052602482fd5b634e487b7160e01b865260418452602486fd5b8280fd5b919050346101bd57826003193601126101bd576001600160a01b03917f000000000000000000000000000000000000000000000000000000000000000061020b3385831614610527565b61021361068f565b60207f00000000000000000000000000000000000000000000000000000000000000009260248551809781936370a0823160e01b8352309083015286165afa9384156102c557859461028d575b5093600191846020968480558161027c575b5050505551908152f35b610285926105d5565b388481610272565b9093506020813d82116102bd575b816102a86020938361059d565b810103126102b95751926001610260565b8480fd5b3d915061029b565b83513d87823e3d90fd5b5050346100b457816003193601126100b457517f00000000000000000000000000000000000000000000000000000000000000006001600160a01b03168152602090f35b5050346100b457816003193601126100b4576020919061035d337f00000000000000000000000000000000000000000000000000000000000000006001600160a01b031614610527565b61036561068f565b6001825551908152f35b8383346100b45760203660031901126100b4578235907f0000000000000000000000000000000000000000000000000000000000000000906103bb336001600160a01b03841614610527565b6103c361068f565b6103ce831515610566565b6001549083821061043d575082810381811161042a5760015561041a9291908214610421575b7f00000000000000000000000000000000000000000000000000000000000000006105d5565b6001815580f35b600180556103f4565b634e487b7160e01b855260118652602485fd5b5162461bcd60e51b81526020818701526014602482015273125b9cdd59999a58da595b9d081b585b9859d95960621b6044820152606490fd5b929150346105235783600319360112610523576370a0823160e01b835230908301526020826024817f00000000000000000000000000000000000000000000000000000000000000006001600160a01b03165afa9182156105195783926104e2575b6020838351908152f35b9091506020813d8211610511575b816104fd6020938361059d565b810103126101bd57602092505190386104d8565b3d91506104f0565b81513d85823e3d90fd5b8380fd5b1561052e57565b60405162461bcd60e51b815260206004820152601060248201526f4f6e6c7920547265617375727942544360801b6044820152606490fd5b1561056d57565b60405162461bcd60e51b81526020600482015260086024820152670416d6f756e743d360c41b6044820152606490fd5b90601f8019910116810190811067ffffffffffffffff8211176105bf57604052565b634e487b7160e01b600052604160045260246000fd5b60405163a9059cbb60e01b60208201526001600160a01b039092166024830152604480830193909352918152608081019167ffffffffffffffff8311828410176105bf5761062592604052610627565b565b906000602091828151910182855af115610683576000513d61067a57506001600160a01b0381163b155b6106585750565b604051635274afe760e01b81526001600160a01b039091166004820152602490fd5b60011415610651565b6040513d6000823e3d90fd5b6002600054146106a0576002600055565b604051633ee5aeb560e01b8152600490fdfea264697066735822122047247736774c9fabfca420daf73ffc320be125213d4cc9d9dcdcd710a88e674864736f6c63430008140033","linkReferences":{}},"methodIdentifiers":{"deposit(uint256)":"b6b55f25","harvest()":"4641257d","stablecoin()":"e9cbd822","totalAssets()":"01e1d114","treasury()":"61d027b3","withdraw(uint256)":"2e1a7d4d","withdrawAll()":"853828b6"},"storageLayout":{"storage":[{"astId":55225,"contract":"contracts/AaveStrategy.sol:AaveStrategy","label":"_status","offset":0,"slot":"0","type":"t_uint256"},{"astId":25,"contract":"contracts/AaveStrategy.sol:AaveStrategy","label":"_managed","offset":0,"slot":"1","type":"t_uint256"}],"types":{"t_uint256":{"encoding":"inplace","label":"uint256","numberOfBytes":"32"}}},"id":0}