{"abi":[{"type":"constructor","inputs":[{"name":"_stablecoin","type":"address","internalType":"address"},{"name":"_nxlToken","type":"address","internalType":"address"},{"name":"_nexumManager","type":"address","internalType":"address"},{"name":"_wbtc","type":"address","internalType":"address"},{"name":"_redeemWindowStart","type":"uint256","internalType":"uint256"},{"name":"_redeemWindowDuration","type":"uint256","internalType":"uint256"}],"stateMutability":"nonpayable"},{"type":"function","name":"acceptOwnership","inputs":[],"outputs":[],"stateMutability":"nonpayable"},{"type":"function","name":"accountedBalance","inputs":[],"outputs":[{"name":"","type":"uint256","internalType":"uint256"}],"stateMutability":"view"},{"type":"function","name":"activateStrategy","inputs":[{"name":"useAave","type":"bool","internalType":"bool"}],"outputs":[],"stateMutability":"nonpayable"},{"type":"function","name":"activeStrategy","inputs":[],"outputs":[{"name":"","type":"address","internalType":"contract IYieldStrategy"}],"stateMutability":"view"},{"type":"function","name":"auditFunds","inputs":[],"outputs":[{"name":"","type":"address","internalType":"address"}],"stateMutability":"view"},{"type":"function","name":"auditFundsLocked","inputs":[],"outputs":[{"name":"","type":"bool","internalType":"bool"}],"stateMutability":"view"},{"type":"function","name":"claimHolderRewards","inputs":[{"name":"snapshotId","type":"uint256","internalType":"uint256"}],"outputs":[],"stateMutability":"nonpayable"},{"type":"function","name":"claimedByUserGross","inputs":[{"name":"","type":"uint256","internalType":"uint256"},{"name":"","type":"address","internalType":"address"}],"outputs":[{"name":"","type":"uint256","internalType":"uint256"}],"stateMutability":"view"},{"type":"function","name":"closeRedeemWindow","inputs":[],"outputs":[],"stateMutability":"nonpayable"},{"type":"function","name":"depositToStrategy","inputs":[{"name":"amount","type":"uint256","internalType":"uint256"}],"outputs":[],"stateMutability":"nonpayable"},{"type":"function","name":"depositWBTC","inputs":[{"name":"amount","type":"uint256","internalType":"uint256"}],"outputs":[],"stateMutability":"nonpayable"},{"type":"function","name":"fundStakingWBTC","inputs":[{"name":"amount","type":"uint256","internalType":"uint256"}],"outputs":[],"stateMutability":"nonpayable"},{"type":"function","name":"harvest","inputs":[],"outputs":[{"name":"gained","type":"uint256","internalType":"uint256"}],"stateMutability":"nonpayable"},{"type":"function","name":"holderRewardsBySnapshot","inputs":[{"name":"","type":"uint256","internalType":"uint256"}],"outputs":[{"name":"totalWBTC","type":"uint256","internalType":"uint256"},{"name":"rewardPerTokenE18","type":"uint256","internalType":"uint256"},{"name":"claimedWBTC","type":"uint256","internalType":"uint256"},{"name":"circulatingAt","type":"uint256","internalType":"uint256"},{"name":"exists","type":"bool","internalType":"bool"}],"stateMutability":"view"},{"type":"function","name":"lastOpenedYear","inputs":[],"outputs":[{"name":"","type":"uint256","internalType":"uint256"}],"stateMutability":"view"},{"type":"function","name":"lastOpenedYearInit","inputs":[],"outputs":[{"name":"","type":"bool","internalType":"bool"}],"stateMutability":"view"},{"type":"function","name":"nexumManager","inputs":[],"outputs":[{"name":"","type":"address","internalType":"address"}],"stateMutability":"view"},{"type":"function","name":"nxlBurnedThisWindow","inputs":[],"outputs":[{"name":"","type":"uint256","internalType":"uint256"}],"stateMutability":"view"},{"type":"function","name":"nxlToken","inputs":[],"outputs":[{"name":"","type":"address","internalType":"contract INXLTokenSnapshot"}],"stateMutability":"view"},{"type":"function","name":"onFundsReceived","inputs":[{"name":"amount","type":"uint256","internalType":"uint256"}],"outputs":[],"stateMutability":"nonpayable"},{"type":"function","name":"openRedeemWindow","inputs":[],"outputs":[],"stateMutability":"nonpayable"},{"type":"function","name":"owner","inputs":[],"outputs":[{"name":"","type":"address","internalType":"address"}],"stateMutability":"view"},{"type":"function","name":"pendingHolderRewards","inputs":[{"name":"snapshotId","type":"uint256","internalType":"uint256"},{"name":"user","type":"address","internalType":"address"}],"outputs":[{"name":"","type":"uint256","internalType":"uint256"}],"stateMutability":"view"},{"type":"function","name":"pendingOwner","inputs":[],"outputs":[{"name":"","type":"address","internalType":"address"}],"stateMutability":"view"},{"type":"function","name":"receiveFunds","inputs":[],"outputs":[],"stateMutability":"nonpayable"},{"type":"function","name":"redeem","inputs":[{"name":"nxlAmount","type":"uint256","internalType":"uint256"}],"outputs":[],"stateMutability":"nonpayable"},{"type":"function","name":"redeemRateE18","inputs":[],"outputs":[{"name":"","type":"uint256","internalType":"uint256"}],"stateMutability":"view"},{"type":"function","name":"redeemWindowDuration","inputs":[],"outputs":[{"name":"","type":"uint256","internalType":"uint256"}],"stateMutability":"view"},{"type":"function","name":"redeemWindowPeriod","inputs":[],"outputs":[{"name":"","type":"uint256","internalType":"uint256"}],"stateMutability":"view"},{"type":"function","name":"redeemWindowStart","inputs":[],"outputs":[{"name":"","type":"uint256","internalType":"uint256"}],"stateMutability":"view"},{"type":"function","name":"redeemedInWindow","inputs":[{"name":"","type":"address","internalType":"address"}],"outputs":[{"name":"","type":"uint256","internalType":"uint256"}],"stateMutability":"view"},{"type":"function","name":"renounceOwnership","inputs":[],"outputs":[],"stateMutability":"nonpayable"},{"type":"function","name":"reservedWBTC","inputs":[],"outputs":[{"name":"","type":"uint256","internalType":"uint256"}],"stateMutability":"view"},{"type":"function","name":"setAuditFunds","inputs":[{"name":"_auditFunds","type":"address","internalType":"address"}],"outputs":[],"stateMutability":"nonpayable"},{"type":"function","name":"setStaking","inputs":[{"name":"_staking","type":"address","internalType":"address"}],"outputs":[],"stateMutability":"nonpayable"},{"type":"function","name":"setStrategies","inputs":[{"name":"_aave","type":"address","internalType":"address"},{"name":"_venus","type":"address","internalType":"address"}],"outputs":[],"stateMutability":"nonpayable"},{"type":"function","name":"snapshotAndAllocateHolderRewards","inputs":[{"name":"amount","type":"uint256","internalType":"uint256"}],"outputs":[{"name":"snapshotId","type":"uint256","internalType":"uint256"}],"stateMutability":"nonpayable"},{"type":"function","name":"stablecoin","inputs":[],"outputs":[{"name":"","type":"address","internalType":"contract IERC20"}],"stateMutability":"view"},{"type":"function","name":"staking","inputs":[],"outputs":[{"name":"","type":"address","internalType":"contract INexaloStakingWBTC"}],"stateMutability":"view"},{"type":"function","name":"strategyAave","inputs":[],"outputs":[{"name":"","type":"address","internalType":"contract IYieldStrategy"}],"stateMutability":"view"},{"type":"function","name":"strategyVenus","inputs":[],"outputs":[{"name":"","type":"address","internalType":"contract IYieldStrategy"}],"stateMutability":"view"},{"type":"function","name":"totalAssets","inputs":[],"outputs":[{"name":"","type":"uint256","internalType":"uint256"}],"stateMutability":"view"},{"type":"function","name":"totalDepositedToStrat","inputs":[],"outputs":[{"name":"","type":"uint256","internalType":"uint256"}],"stateMutability":"view"},{"type":"function","name":"totalFromManager","inputs":[],"outputs":[{"name":"","type":"uint256","internalType":"uint256"}],"stateMutability":"view"},{"type":"function","name":"totalHarvested","inputs":[],"outputs":[{"name":"","type":"uint256","internalType":"uint256"}],"stateMutability":"view"},{"type":"function","name":"totalRedeemed","inputs":[],"outputs":[{"name":"","type":"uint256","internalType":"uint256"}],"stateMutability":"view"},{"type":"function","name":"totalWithdrawnFromStrat","inputs":[],"outputs":[{"name":"","type":"uint256","internalType":"uint256"}],"stateMutability":"view"},{"type":"function","name":"transferOwnership","inputs":[{"name":"newOwner","type":"address","internalType":"address"}],"outputs":[],"stateMutability":"nonpayable"},{"type":"function","name":"unpaidByUser","inputs":[{"name":"","type":"uint256","internalType":"uint256"},{"name":"","type":"address","internalType":"address"}],"outputs":[{"name":"","type":"uint256","internalType":"uint256"}],"stateMutability":"view"},{"type":"function","name":"wbtc","inputs":[],"outputs":[{"name":"","type":"address","internalType":"contract IERC20"}],"stateMutability":"view"},{"type":"function","name":"windowCloseTime","inputs":[],"outputs":[{"name":"","type":"uint256","internalType":"uint256"}],"stateMutability":"view"},{"type":"function","name":"windowOpen","inputs":[],"outputs":[{"name":"","type":"bool","internalType":"bool"}],"stateMutability":"view"},{"type":"function","name":"windowSnapshotId","inputs":[],"outputs":[{"name":"","type":"uint256","internalType":"uint256"}],"stateMutability":"view"},{"type":"function","name":"withdrawAllFromStrategy","inputs":[],"outputs":[],"stateMutability":"nonpayable"},{"type":"function","name":"withdrawFromStrategy","inputs":[{"name":"amount","type":"uint256","internalType":"uint256"}],"outputs":[],"stateMutability":"nonpayable"},{"type":"event","name":"AuditFundsSet","inputs":[{"name":"auditFunds","type":"address","indexed":true,"internalType":"address"}],"anonymous":false},{"type":"event","name":"DepositedToStrategy","inputs":[{"name":"strategy","type":"address","indexed":true,"internalType":"address"},{"name":"amount","type":"uint256","indexed":false,"internalType":"uint256"}],"anonymous":false},{"type":"event","name":"FundsReceived","inputs":[{"name":"amount","type":"uint256","indexed":false,"internalType":"uint256"}],"anonymous":false},{"type":"event","name":"Harvested","inputs":[{"name":"strategy","type":"address","indexed":true,"internalType":"address"},{"name":"gained","type":"uint256","indexed":false,"internalType":"uint256"}],"anonymous":false},{"type":"event","name":"HolderClaimedBestEffort","inputs":[{"name":"user","type":"address","indexed":true,"internalType":"address"},{"name":"snapshotId","type":"uint256","indexed":true,"internalType":"uint256"},{"name":"paid","type":"uint256","indexed":false,"internalType":"uint256"},{"name":"remainingUnpaid","type":"uint256","indexed":false,"internalType":"uint256"}],"anonymous":false},{"type":"event","name":"HolderRewardsSnapshotted","inputs":[{"name":"snapshotId","type":"uint256","indexed":true,"internalType":"uint256"},{"name":"totalWBTC","type":"uint256","indexed":false,"internalType":"uint256"},{"name":"rewardPerTokenE18","type":"uint256","indexed":false,"internalType":"uint256"},{"name":"circulatingAt","type":"uint256","indexed":false,"internalType":"uint256"}],"anonymous":false},{"type":"event","name":"OwnershipTransferStarted","inputs":[{"name":"previousOwner","type":"address","indexed":true,"internalType":"address"},{"name":"newOwner","type":"address","indexed":true,"internalType":"address"}],"anonymous":false},{"type":"event","name":"OwnershipTransferred","inputs":[{"name":"previousOwner","type":"address","indexed":true,"internalType":"address"},{"name":"newOwner","type":"address","indexed":true,"internalType":"address"}],"anonymous":false},{"type":"event","name":"Redeemed","inputs":[{"name":"user","type":"address","indexed":true,"internalType":"address"},{"name":"nxlIn","type":"uint256","indexed":false,"internalType":"uint256"},{"name":"usdtOut","type":"uint256","indexed":false,"internalType":"uint256"}],"anonymous":false},{"type":"event","name":"StakingFundedWBTC","inputs":[{"name":"amount","type":"uint256","indexed":false,"internalType":"uint256"}],"anonymous":false},{"type":"event","name":"StakingSet","inputs":[{"name":"staking","type":"address","indexed":true,"internalType":"address"}],"anonymous":false},{"type":"event","name":"StrategyActivated","inputs":[{"name":"strategy","type":"address","indexed":true,"internalType":"address"}],"anonymous":false},{"type":"event","name":"StrategySet","inputs":[{"name":"aave","type":"address","indexed":true,"internalType":"address"},{"name":"venus","type":"address","indexed":true,"internalType":"address"}],"anonymous":false},{"type":"event","name":"WBTCDeposited","inputs":[{"name":"from","type":"address","indexed":true,"internalType":"address"},{"name":"amount","type":"uint256","indexed":false,"internalType":"uint256"}],"anonymous":false},{"type":"event","name":"WindowClosed","inputs":[{"name":"burned","type":"uint256","indexed":false,"internalType":"uint256"}],"anonymous":false},{"type":"event","name":"WindowOpened","inputs":[{"name":"yearIndex","type":"uint256","indexed":false,"internalType":"uint256"},{"name":"redeemRateE18","type":"uint256","indexed":false,"internalType":"uint256"}],"anonymous":false},{"type":"event","name":"WithdrawnFromStrategy","inputs":[{"name":"strategy","type":"address","indexed":true,"internalType":"address"},{"name":"amount","type":"uint256","indexed":false,"internalType":"uint256"}],"anonymous":false},{"type":"error","name":"OwnableInvalidOwner","inputs":[{"name":"owner","type":"address","internalType":"address"}]},{"type":"error","name":"OwnableUnauthorizedAccount","inputs":[{"name":"account","type":"address","internalType":"address"}]},{"type":"error","name":"ReentrancyGuardReentrantCall","inputs":[]},{"type":"error","name":"SafeERC20FailedOperation","inputs":[{"name":"token","type":"address","internalType":"address"}]}],"bytecode":{"object":"0x61016060409080825234620003b25760c081620034c28038038091620000268285620003b7565b833981010312620003b2576200003c81620003f1565b906020926200004d848301620003f1565b936200005b828401620003f1565b936200006a60608501620003f1565b9360a06080820151910151956000926001845533156200039a57600280546001600160a01b03199081169091556001805433928116831790915587519a6001600160a01b03939092849283167f8be0079c531659141344cd1fd0a4f28419497f9722a3daafe3b4186f6b6457e08980a316998a156200036357508116968715620003315781831615620002fb5716958615620002c8576201518088101580620002ba575b1562000287579060249392918960805260a05260c05261014095865260e05282610100976301e1338089526101209788528551938480926370a0823160e01b82523060048301525afa9283156200027b57819362000241575b50505060035551916130bb93846200040785396080518481816103cc0152818161058201528181610abe01528181610d0b015281816126b4015281816127d80152612a59015260a05184818161050101528181611137015281816116c801528181611ae401528181611eb101528181612b720152612ce4015260c05184818161084b01526124fd015260e051848181611a660152611de80152518381816102d90152611e2c015251828181611f4801526126590152518181816108d3015281816110e40152818161176001528181611bcb015261246e0152f35b9091809350813d831162000273575b6200025c8183620003b7565b810103126200027057505138808062000167565b80fd5b503d62000250565b508351903d90823e3d90fd5b855162461bcd60e51b815260048101869052600c60248201526b2130b210323ab930ba34b7b760a11b6044820152606490fd5b5062278d008811156200010e565b855162461bcd60e51b815260048101869052600c60248201526b496e76616c6964205742544360a01b6044820152606490fd5b865162461bcd60e51b815260048101879052600f60248201526e24b73b30b634b21036b0b730b3b2b960891b6044820152606490fd5b865162461bcd60e51b815260048101879052600b60248201526a125b9d985b1a590813961360aa1b6044820152606490fd5b62461bcd60e51b815260048101879052601260248201527124b73b30b634b21039ba30b13632b1b7b4b760711b6044820152606490fd5b8551631e4fbdf760e01b815260048101859052602490fd5b600080fd5b601f909101601f19168101906001600160401b03821190821017620003db57604052565b634e487b7160e01b600052604160045260246000fd5b51906001600160a01b0382168203620003b25756fe6080604081815260048036101561001557600080fd5b600092833560e01c90816205a2e5146128f3575080625c33e1146127a457806301e1d1141461267c578063059c7708146126415780630937eb54146126225780630e8f68e014612603578063182be553146125da57806323dc1142146125bb578063298ef8ca146124e557806329a830a0146124c657806339fbc9d71461249d5780633cdc53891461245957806341259bc0146123695780634641257d1461227457806348b19335146121b45780634c22ebe3146121955780634c369b39146121555780634cf088d91461212c5780634f8cc23d14611dc35780636240b11a14611cce57806366c992e414611caf5780636b12ec5c14611c88578063715018a614611c20578063737ec20f14611b9c57806379ba509714611b1357806389ef723b14611acf5780638b951c5614611ab25780638da5cb5b14611a895780638fd8fb7714611a4e5780638ff39099146119ac57806393a78b1d146116605780639f6af4fc1461163c578063aac5b75d1461161d578063ade1096014611545578063af74102a1461151c578063b00f7baa14611449578063b0d386bc1461108c578063b4423c7614611035578063bdf764ee14611016578063c583214c14610c50578063cd3c425514610c27578063d33b0aa714610a61578063d531fb021461087a578063d66ee30d14610836578063db006a7514610491578063df70db9e14610472578063e30c397814610449578063e6039aad1461042a578063e92e3410146103fb578063e9cbd822146103b7578063f2fde38b14610346578063f35dad4014610327578063fa61dff414610300578063fc41b72b146102c15763fc73bc061461027e57600080fd5b346102bd57816003193601126102bd578160209361029a61293d565b9235815260188552209060018060a01b0316600052825280600020549051908152f35b8280fd5b5050346102fc57816003193601126102fc57602090517f00000000000000000000000000000000000000000000000000000000000000008152f35b5080fd5b5050346102fc57816003193601126102fc5760209060ff600d5460081c1690519015158152f35b5050346102fc57816003193601126102fc576020906006549051908152f35b83346103b45760203660031901126103b457610360612927565b610368612dbc565b600280546001600160a01b0319166001600160a01b039283169081179091556001549091167f38d16b8cac22d99fc7c124b9cd0de2d3fa1faef420bfe791d8c362d765e227008380a380f35b80fd5b5050346102fc57816003193601126102fc57517f00000000000000000000000000000000000000000000000000000000000000006001600160a01b03168152602090f35b5091346103b457816003193601126103b4575061042360209261041c61293d565b9035612c62565b9051908152f35b5050346102fc57816003193601126102fc576020906010549051908152f35b5050346102fc57816003193601126102fc5760025490516001600160a01b039091168152602090f35b5050346102fc57816003193601126102fc57602090600f549051908152f35b50346102bd5760209182600319360112610832578135926104b0613042565b60ff600d5460081c161561080157600e5442116107cf57610531906104d6851515612a07565b601154835163277166bf60e11b81523381870190815260208101929092526001600160a01b039590937f0000000000000000000000000000000000000000000000000000000000000000871692849186918291604090910190565b0381855afa9384156107c5578894610796575b5033885260128352848820549361055b88866129d7565b1161075357670de0b6b3a7640000610575600f5489612b4e565b04938415610724576024847f0000000000000000000000000000000000000000000000000000000000000000988851928380926370a0823160e01b825230888301528c165afa90811561071a579086918b916106e4575b50106106ad57906105df888a94936129d7565b33845260128552868420556105f6886010546129d7565b601055610605856006546129d7565b60065561061488303385612e2b565b813b156102bd5787602484928389519586948593630852cd8d60e31b85528401525af180156106a35761068b575b5050610671827ff3a670cd3af7d64b488926880889d08a8585a138ff455227af6737339a1ec262953390612de8565b610679612a3e565b82519485528401523392a26001815580f35b61069490612953565b61069f578538610642565b8580fd5b85513d84823e3d90fd5b855162461bcd60e51b81528083018590526011602482015270125b9cdd59999a58da595b9d081554d115607a1b6044820152606490fd5b809250868092503d8311610713575b6106fd81836129b5565b8101031261070e57859051386105cc565b600080fd5b503d6106f3565b87513d8c823e3d90fd5b855162461bcd60e51b81528083018590526009602482015268151bdbc81cdb585b1b60ba1b6044820152606490fd5b845162461bcd60e51b8152908101839052601860248201527f4578636565647320736e617073686f742062616c616e636500000000000000006044820152606490fd5b9093508281813d83116107be575b6107ae81836129b5565b8101031261070e57519238610544565b503d6107a4565b85513d8a823e3d90fd5b905162461bcd60e51b815291820152600e60248201526d15da5b991bddc8195e1c1a5c995960921b6044820152606490fd5b905162461bcd60e51b815291820152600d60248201526c15da5b991bddc818db1bdcd959609a1b6044820152606490fd5b8380fd5b5050346102fc57816003193601126102fc57517f00000000000000000000000000000000000000000000000000000000000000006001600160a01b03168152602090f35b50346102bd576020908160031936011261083257803590610899613042565b6108a1612dbc565b6014546001600160a01b039081168015610a2c576108c0841515612a07565b85516370a0823160e01b815230848201527f0000000000000000000000000000000000000000000000000000000000000000919086816024818787165afa908115610a225789916109f5575b50610919866015546129d7565b116109b257848261093061093b938b979695612e6d565b836014541690612f26565b6014541690813b156102bd57836024849283895195869485936393707a1960e01b85528401525af180156106a35761099e575b50507f9d7073783f3ff97f2c714527e5a46236f97f5c44c31f21a54d20eebe53c1259b9251908152a16001815580f35b6109a790612953565b61083257833861096e565b865162461bcd60e51b8152808501879052601a60248201527f4e6f7420656e6f75676820756e726573657276656420574254430000000000006044820152606490fd5b90508681813d8311610a1b575b610a0c81836129b5565b8101031261070e57513861090c565b503d610a02565b88513d8b823e3d90fd5b855162461bcd60e51b8152808401869052600f60248201526e14dd185ada5b99c81b9bdd081cd95d608a1b6044820152606490fd5b50346102bd57602080600319360112610832578135610a7e613042565b610a86612dbc565b600b546001600160a01b0393908416610aa0811515612af4565b610aab831515612a07565b85516370a0823160e01b815230838201527f0000000000000000000000000000000000000000000000000000000000000000919085816024818a87165afa8015610a225785918a91610bf6575b5010610bbc578382610b0f610b1a938b9695612e6d565b87600b541690612f26565b84600b541690813b156102bd578360248492838a51958694859363b6b55f2560e01b85528401525af18015610bb257610b9a575b50507ff47c2ba90b71ef36b592a780f1d750d3a480494fdc7c9b84bb3f9d8de8a1b40a92610b7e826007546129d7565b600755610b89612a3e565b600b54169351908152a26001815580f35b610ba390612953565b610bae578438610b4e565b8480fd5b86513d84823e3d90fd5b865162461bcd60e51b81528084018690526014602482015273496e73756666696369656e742062616c616e636560601b6044820152606490fd5b809250878092503d8311610c20575b610c0f81836129b5565b8101031261070e5784905138610af8565b503d610c05565b5050346102fc57816003193601126102fc57600b5490516001600160a01b039091168152602090f35b508290346102fc57826003193601126102fc57610c6b612927565b90610c7461293d565b91610c7d613042565b610c85612dbc565b600954916001600160a01b0391828416158061100a575b15610fd95782169283151580610fce575b15610fa157826001600160601b0360a01b958587841617600955169086600a54918388841617600a551692858417918951906374e5ec1160e11b9081835260209283818681895afa908115610ee857908992918d91610f84575b50827f0000000000000000000000000000000000000000000000000000000000000000169283911603610f4a578c519283528b1686179183818681865afa908115610ee8579089918d91610f2d575b501603610ef2578a516361d027b360e01b8082529083818681895afa908115610ee8578c91610ecb575b508830911603610e8f578290848d518094819382525afa908115610e85578a91610e58575b508630911603610e16575050869750600b9695965496871617600b55837f7a587acd0fd101cfe7d6d98bad768e91209a7ae91e55c3702570425bf0eae9bc8680a316179116177f652f053fc39779b70b29678135ade972fcb79966fc68fcb77c996b1aa4fd9afb8280a26001815580f35b895162461bcd60e51b815291820152601760248201527f56656e7573207472656173757279206d69736d61746368000000000000000000604482015260649150fd5b610e789150823d8411610e7e575b610e7081836129b5565b810190612ad5565b8b610da5565b503d610e66565b8b513d8c823e3d90fd5b8b5162461bcd60e51b81528085018490526016602482015275082c2ecca40e8e4cac2e6eae4f240dad2e6dac2e8c6d60531b6044820152606490fd5b610ee29150843d8611610e7e57610e7081836129b5565b8d610d80565b8d513d8e823e3d90fd5b8a5162461bcd60e51b815280840183905260156024820152740accadceae640e6e8c2c4d8ca40dad2e6dac2e8c6d605b1b6044820152606490fd5b610f449150853d8711610e7e57610e7081836129b5565b8e610d56565b8c5162461bcd60e51b81528086018590526014602482015273082c2ecca40e6e8c2c4d8ca40dad2e6dac2e8c6d60631b6044820152606490fd5b610f9b9150853d8711610e7e57610e7081836129b5565b8e610d07565b865162461bcd60e51b81526020818401526007602482015266125b9d985b1a5960ca1b6044820152606490fd5b508285161515610cad565b865162461bcd60e51b8152602081840152600b60248201526a105b1c9958591e481cd95d60aa1b6044820152606490fd5b5082600a541615610c9c565b5050346102fc57816003193601126102fc576020906007549051908152f35b5090346102bd5760203660031901126102bd578060a0938335815260166020522080549260018201549260ff6002840154926003850154940154169381519586526020860152840152606083015215156080820152f35b5090346102bd57602092836003193601126103b45782356110ab613042565b6110b3612dbc565b8015936110c08515612a07565b83516370a0823160e01b81523082820152602491906001600160a01b0390888185817f000000000000000000000000000000000000000000000000000000000000000086165afa9081156113d157869161141c575b50611122856015546129d7565b116113db578551634b88b8ad60e11b815296907f0000000000000000000000000000000000000000000000000000000000000000168888848189855af19788156113d15786986113a2575b508651630981b24d60e41b81528381018990529089828681845afa90811561136557898b91899361136f575b8a5163277166bf60e11b81526001600160a01b038216888201908152602081019390935294508491829081906040015b03915afa918215611365578792611336575b50600182018083116113245781106112d857906111f7916129fa565b92670de0b6b3a764000091828602928684041417156112c757508493837fb53a159f2f87d553a0c72eb46f31de042a965f641c21e9175ddc452db4845e29936001976112468b97606096612b2e565b918c888c51916112558361297d565b8783528d818401908782526016818601938885528c8701958b8752608088019960018b5252528d2093518455518d840155516002830155516003820155019051151560ff801983541691161790556112af836015546129d7565b60155588519283528a83015287820152a25551908152f35b634e487b7160e01b86526011835285fd5b875162461bcd60e51b81528085018b90526021818701527f4e6f2063697263756c6174696e6720737570706c7920617420736e617073686f6044820152601d60fa1b6064820152608490fd5b634e487b7160e01b8852601185528588fd5b9091508981813d831161135e575b61134e81836129b5565b8101031261070e575190386111db565b503d611344565b88513d89823e3d90fd5b92505082813d831161139b575b61138681836129b5565b8101031261070e5789896111c9935192611199565b503d61137c565b9097508881813d83116113ca575b6113ba81836129b5565b8101031261070e5751963861116d565b503d6113b0565b87513d88823e3d90fd5b50601c6064928887519362461bcd60e51b85528401528201527f496e73756666696369656e7420756e72657365727665642057425443000000006044820152fd5b90508881813d8311611442575b61143381836129b5565b8101031261070e575138611115565b503d611429565b5090346102bd5760203660031901126102bd57813580151581036108325761146f613042565b611477612dbc565b6009546001600160a01b03939084169283156114e4575050156114d9575b1681600b54826001600160601b0360a01b821617600b5516177f652f053fc39779b70b29678135ade972fcb79966fc68fcb77c996b1aa4fd9afb8280a26001815580f35b5080600a5416611495565b906020606492519162461bcd60e51b8352820152601260248201527114dd1c985d1959da595cc81b9bdd081cd95d60721b6044820152fd5b5050346102fc57816003193601126102fc5760095490516001600160a01b039091168152602090f35b50346102bd57826003193601126102bd5761155e613042565b611566612dbc565b600b546001600160a01b0391849160209190841690611586821515612af4565b85518094819363429c145b60e11b83525af19081156116105784916115d1575b5080600080516020613066833981519152926115c66020936008546129d7565b600855610b89612a3e565b90506020813d8211611608575b816115eb602093836129b5565b8101031261070e57516000805160206130668339815191526115a6565b3d91506115de565b50505051903d90823e3d90fd5b5050346102fc57816003193601126102fc57602090600e549051908152f35b5050346102fc57816003193601126102fc5760209060ff600d541690519015158152f35b5090346102bd576020918260031936011261083257803592611680613042565b8385526016815282852060ff83820154161561197657835163277166bf60e11b815233848201908152602081018790526001600160a01b0394919084908290819003604001817f000000000000000000000000000000000000000000000000000000000000000089165afa90811561196c57889161193d575b50611712670de0b6b3a764000091600185015490612b4e565b049386885260178452858820336000528452856000205491878952601885528689203360005285528660002054926001810180821161192a5787101561190e575b5082156118d857602490857f0000000000000000000000000000000000000000000000000000000000000000938951938480926370a0823160e01b8252308683015287165afa9182156118ce578a9261189f575b50600182019081831161188c5750916117f4979593917fcc2c61f7a580d16fe921b6bb8f62d9187484658f4be74c39a99636c88a66566f97959383101560001461188157978880936129fa565b94898b5260178552868b203360005285528660002055888a5260188452858a203360005284528486600020558161183b575b50505082519485528401523392a36001815580f35b600261186f930161184d8382546129d7565b9055601554821161187757611864826015546129fa565b6015555b3390612de8565b388581611826565b6001601555611868565b5081978880936129fa565b634e487b7160e01b8b526011905260248afd5b9091508581813d83116118c7575b6118b781836129b5565b8101031261070e575190386117a7565b503d6118ad565b88513d8c823e3d90fd5b865162461bcd60e51b8152908101859052601060248201526f4e6f7468696e6720746f20636c61696d60801b6044820152606490fd5b9261191d6119239294886129fa565b906129d7565b9138611753565b634e487b7160e01b8b526011835260248bfd5b90508381813d8311611965575b61195481836129b5565b8101031261070e57516117126116f9565b503d61194a565b86513d8a823e3d90fd5b50606492519162461bcd60e51b8352820152601260248201527114db985c1cda1bdd081b9bdd08199bdd5b9960721b6044820152fd5b50346102bd5760203660031901126102bd576119c6612927565b6119ce612dbc565b6001600160a01b0316918215611a19575050601480546001600160a01b031916821790557ff520447191196b125f76f7110397fdf32b1b9cefb7dec323bd3b998022ac23388280a280f35b906020606492519162461bcd60e51b8352820152600f60248201526e496e76616c6964207374616b696e6760881b6044820152fd5b5050346102fc57816003193601126102fc57602090517f00000000000000000000000000000000000000000000000000000000000000008152f35b5050346102fc57816003193601126102fc5760015490516001600160a01b039091168152602090f35b50346102bd57826003193601126102bd5760209250549051908152f35b5050346102fc57816003193601126102fc57517f00000000000000000000000000000000000000000000000000000000000000006001600160a01b03168152602090f35b5090346102bd57826003193601126102bd57600254916001600160a01b03913383851603611b855750506001600160601b0360a01b8092166002556001549133908316176001553391167f8be0079c531659141344cd1fd0a4f28419497f9722a3daafe3b4186f6b6457e0600080a380f35b60249250519063118cdaa760e01b82523390820152fd5b50346102bd5760203660031901126102bd573590611bb8613042565b611bc3821515612a07565b611bef8230337f0000000000000000000000000000000000000000000000000000000000000000612e2b565b519081527f70643c3965cf5651f0e637bfa8f51f484f21af206691d8ac833d3ab2439f62d760203392a26001815580f35b83346103b457806003193601126103b457611c39612dbc565b600280546001600160a01b03199081169091556001805491821690556000906001600160a01b03167f8be0079c531659141344cd1fd0a4f28419497f9722a3daafe3b4186f6b6457e08280a380f35b5050346102fc57816003193601126102fc5760209060ff60135460a01c1690519015158152f35b5050346102fc57816003193601126102fc57602090600c549051908152f35b50346102bd57826003193601126102bd57611ce7613042565b611cef612dbc565b600d549060ff8260081c1615611d9557600e5460018101809111611d82574210611d51575061ff001916600d5560105490519081527fdb57bfb806503bdc5f96f060a25aead2076b299c2f2f3d4e36eab8e8336149e890602090a16001815580f35b606490602084519162461bcd60e51b8352820152600b60248201526a139bdd08195e1c1a5c995960aa1b6044820152fd5b634e487b7160e01b855260118252602485fd5b606490602084519162461bcd60e51b835282015260086024820152672737ba1037b832b760c11b6044820152fd5b509190346102fc57816003193601126102fc57611dde613042565b611de6612dbc565b7f00000000000000000000000000000000000000000000000000000000000000008042106120fb57600d549060ff8260081c166120c957611e2a611e5191426129fa565b7f000000000000000000000000000000000000000000000000000000000000000090612b2e565b9060ff811661207c5760ff1916600117600d555b81516278744560e21b815260209081818781305afa908115612072578591612045575b50801561200e57611e97612b61565b908115611fd3578451634b88b8ad60e11b8152838189818a7f00000000000000000000000000000000000000000000000000000000000000006001600160a01b03165af1908115611fc9578791611f9c575b50601155670de0b6b3a764000080820291820403611f89577f3aca044bff0471e753256535d9eba39be46c5996ed073d786565f9574162e05c95965090611f2f91612b2e565b9081600f5561010061ff0019600d541617600d55611f6d7f0000000000000000000000000000000000000000000000000000000000000000426129d7565b600e5582600c5560016010558351928352820152a16001815580f35b634e487b7160e01b865260118752602486fd5b90508381813d8311611fc2575b611fb381836129b5565b8101031261070e575138611ee9565b503d611fa9565b86513d89823e3d90fd5b845162461bcd60e51b815280880184905260156024820152744e6f2063697263756c6174696e6720737570706c7960581b6044820152606490fd5b835162461bcd60e51b815280870183905260116024820152704e6f2055534454206c697175696469747960781b6044820152606490fd5b90508181813d831161206b575b61205c81836129b5565b8101031261070e575138611e88565b503d612052565b84513d87823e3d90fd5b50600c548103611e6557815162461bcd60e51b8152602081860152601860248201527f416c7265616479206f70656e65642074686973207965617200000000000000006044820152606490fd5b825162461bcd60e51b8152602081870152600c60248201526b20b63932b0b23c9037b832b760a11b6044820152606490fd5b815162461bcd60e51b8152602081860152600b60248201526a139bdd081cdd185c9d195960aa1b6044820152606490fd5b5050346102fc57816003193601126102fc5760145490516001600160a01b039091168152602090f35b50346102bd57816003193601126102bd578160209361217261293d565b9235815260178552209060018060a01b0316600052825280600020549051908152f35b5050346102fc57816003193601126102fc576020906015549051908152f35b50346102bd5760203660031901126102bd578035906121d1613042565b6121d9612dbc565b600b546001600160a01b03919082169085906121f6831515612af4565b612201851515612a07565b823b156102fc57602485918388519586948593632e1a7d4d60e01b85528401525af180156120725761224e575b50816020916115c6600080516020613066833981519152946008546129d7565b916020919461226b60008051602061306683398151915294612953565b9491509161222e565b5090346102bd57826003193601126102bd5761228e613042565b612296612dbc565b600b5483906001600160a01b039081166122b1811515612af4565b83518095634641257d60e01b82528160209889945af193841561235f57829461232f575b509060019184612313575b600b54167f121c5042302bae5fc561fbc64368f297ca60a880878e1e3a7f7e9380377260bf868551878152a25551908152f35b61231f856005546129d7565b60055561232a612a3e565b6122e0565b9093508481813d8311612358575b61234781836129b5565b810103126102fc57519260016122d5565b503d61233d565b83513d84823e3d90fd5b50346102bd5760203660031901126102bd57612383612927565b9061238c612dbc565b6013549160ff8360a01c16612421576001600160a01b03169283156123e95750506001600160a81b0319168117600160a01b176013557fe125fc1c4fc17681e50eef0705e1f33efe22f55c6fa0dcf19096b5cf2b41f4958280a280f35b906020606492519162461bcd60e51b83528201526012602482015271496e76616c696420617564697446756e647360701b6044820152fd5b835162461bcd60e51b81526020818401526012602482015271105d591a5d08199d5b991cc81b1bd8dad95960721b6044820152606490fd5b5050346102fc57816003193601126102fc57517f00000000000000000000000000000000000000000000000000000000000000006001600160a01b03168152602090f35b5050346102fc57816003193601126102fc57600a5490516001600160a01b039091168152602090f35b5050346102fc57816003193601126102fc576020906008549051908152f35b5090346102bd5760203660031901126102bd578135917f00000000000000000000000000000000000000000000000000000000000000006001600160a01b0316330361258557916020917fbcdc7071c1beb6dcf2744621e0b29a2f2432ee20812d9ca5e3d5e8f9308d93a393612559613042565b612564831515612a07565b61256f8382546129d7565b9055612579612a3e565b51908152a16001815580f35b6020606492519162461bcd60e51b8352820152601160248201527027b7363c902732bc3ab6a6b0b730b3b2b960791b6044820152fd5b5050346102fc57816003193601126102fc576020906005549051908152f35b5050346102fc57816003193601126102fc5760135490516001600160a01b039091168152602090f35b5050346102fc57816003193601126102fc576020906011549051908152f35b5050346102fc57816003193601126102fc576020906003549051908152f35b5050346102fc57816003193601126102fc57602090517f00000000000000000000000000000000000000000000000000000000000000008152f35b5091346103b457806003193601126103b45781516370a0823160e01b815230848201526020939091906001600160a01b0385846024817f000000000000000000000000000000000000000000000000000000000000000085165afa93841561279a579086918495612769575b50600b541680612700575050509061042391906129d7565b85516278744560e21b815292839182905afa91821561275e57809261272c575b506104239290506129d7565b9091508482813d8311612757575b61274481836129b5565b810103126103b457505161042338612720565b503d61273a565b8451903d90823e3d90fd5b8281939296503d8311612793575b61278181836129b5565b810103126102bd5785905193386126e8565b503d612777565b85513d85823e3d90fd5b5090346102bd57826003193601126102bd576127be613042565b80516370a0823160e01b81523083820152916020836024817f00000000000000000000000000000000000000000000000000000000000000006001600160a01b03165afa9283156128e95784936128b6575b5060035490600182018083116128a357841061286a5750507fbcdc7071c1beb6dcf2744621e0b29a2f2432ee20812d9ca5e3d5e8f9308d93a391602091612859600354836129fa565b9160035551908152a15b6001815580f35b600019820192509082116128905750811115612887575b50612863565b60035538612881565b634e487b7160e01b845260119052602483fd5b634e487b7160e01b865260118252602486fd5b9092506020813d82116128e1575b816128d1602093836129b5565b8101031261083257519138612810565b3d91506128c4565b82513d86823e3d90fd5b849084346102bd5760203660031901126102bd576020926001600160a01b0361291a612927565b1681526012845220548152f35b600435906001600160a01b038216820361070e57565b602435906001600160a01b038216820361070e57565b67ffffffffffffffff811161296757604052565b634e487b7160e01b600052604160045260246000fd5b60a0810190811067ffffffffffffffff82111761296757604052565b6080810190811067ffffffffffffffff82111761296757604052565b90601f8019910116810190811067ffffffffffffffff82111761296757604052565b919082018092116129e457565b634e487b7160e01b600052601160045260246000fd5b919082039182116129e457565b15612a0e57565b60405162461bcd60e51b81526020600482015260086024820152670416d6f756e743d360c41b6044820152606490fd5b6040516370a0823160e01b81523060048201526020816024817f00000000000000000000000000000000000000000000000000000000000000006001600160a01b03165afa908115612ac957600091612a98575b50600355565b906020823d8211612ac1575b81612ab1602093836129b5565b810103126103b457505138612a92565b3d9150612aa4565b6040513d6000823e3d90fd5b9081602091031261070e57516001600160a01b038116810361070e5790565b15612afb57565b60405162461bcd60e51b815260206004820152600b60248201526a4e6f20737472617465677960a81b6044820152606490fd5b8115612b38570490565b634e487b7160e01b600052601260045260246000fd5b818102929181159184041417156129e457565b6040516318160ddd60e01b815260207f00000000000000000000000000000000000000000000000000000000000000006001600160a01b03168183600481845afa928315612ac957600093612c33575b509080602492604051938480926370a0823160e01b82528060048301525afa908115612ac957600091612c07575b509050600181018082116129e457821015612bfb575050600090565b612c04916129fa565b90565b82813d8311612c2c575b612c1b81836129b5565b810103126103b45750518038612bdf565b503d612c11565b90928282813d8311612c5b575b612c4a81836129b5565b810103126103b45750519181612bb1565b503d612c40565b60009181835260209260168452604091828220948351612c818161297d565b8654815260ff6004600189015498848401998a5260028101548885015260038101546060850152015416159060808215910152612db357835163277166bf60e11b81526001600160a01b03838116600483015260248201879052969082816044817f00000000000000000000000000000000000000000000000000000000000000008c165afa908115612da9578591612d74575b50612d2b90670de0b6b3a7640000925190612b4e565b049585845260178252848420921691828452815283832054948352601881528383209183525220549181811115612d6f57612c049291612d6a916129fa565b6129d7565b505090565b90508281813d8311612da2575b612d8b81836129b5565b81010312610bae5751670de0b6b3a7640000612d15565b503d612d81565b86513d87823e3d90fd5b50509250505090565b6001546001600160a01b03163303612dd057565b60405163118cdaa760e01b8152336004820152602490fd5b60405163a9059cbb60e01b60208201526001600160a01b03929092166024830152604480830193909352918152612e2991612e246064836129b5565b612fe6565b565b6040516323b872dd60e01b60208201526001600160a01b039283166024820152929091166044830152606480830193909352918152612e2991612e248261297d565b60405190602082019263095ea7b360e01b80855260018060a01b038092169182602486015260206000809781604489015260448852612eab88612999565b87519082885af1903d87519083612f05575b50505015612ecd575b5050505050565b612efb94612e24926040519260208401526024830152604482015260448152612ef581612999565b82612fe6565b3880808080612ec6565b91925090612f1c575083163b15155b388080612ebd565b6001915014612f14565b60405163095ea7b360e01b60208083018281526001600160a01b03861660248501526044808501979097529583529094919391600090612f676064876129b5565b85519082865af16000513d82612fc1575b505015612f86575b50505050565b612fb893612e249160405191602083015260018060a01b031660248201526000604482015260448152612ef581612999565b38808080612f80565b909150612fde57506001600160a01b0382163b15155b3880612f78565b600114612fd7565b906000602091828151910182855af115612ac9576000513d61303957506001600160a01b0381163b155b6130175750565b604051635274afe760e01b81526001600160a01b039091166004820152602490fd5b60011415613010565b600260005414613053576002600055565b604051633ee5aeb560e01b8152600490fdfed442d8f1594fc5996caed833eb6135a4c223a05bdbed778c0d8415a52eb87feaa264697066735822122083e841b43665b8858fda2de1fae37efed7206f7734ac45f81be82d0c795cdb5364736f6c63430008140033","linkReferences":{}},"methodIdentifiers":{"acceptOwnership()":"79ba5097","accountedBalance()":"0937eb54","activateStrategy(bool)":"b00f7baa","activeStrategy()":"cd3c4255","auditFunds()":"182be553","auditFundsLocked()":"6b12ec5c","claimHolderRewards(uint256)":"93a78b1d","claimedByUserGross(uint256,address)":"4c369b39","closeRedeemWindow()":"6240b11a","depositToStrategy(uint256)":"d33b0aa7","depositWBTC(uint256)":"737ec20f","fundStakingWBTC(uint256)":"d531fb02","harvest()":"4641257d","holderRewardsBySnapshot(uint256)":"b4423c76","lastOpenedYear()":"66c992e4","lastOpenedYearInit()":"9f6af4fc","nexumManager()":"d66ee30d","nxlBurnedThisWindow()":"e6039aad","nxlToken()":"89ef723b","onFundsReceived(uint256)":"298ef8ca","openRedeemWindow()":"4f8cc23d","owner()":"8da5cb5b","pendingHolderRewards(uint256,address)":"e92e3410","pendingOwner()":"e30c3978","receiveFunds()":"005c33e1","redeem(uint256)":"db006a75","redeemRateE18()":"df70db9e","redeemWindowDuration()":"059c7708","redeemWindowPeriod()":"fc41b72b","redeemWindowStart()":"8fd8fb77","redeemedInWindow(address)":"0005a2e5","renounceOwnership()":"715018a6","reservedWBTC()":"4c22ebe3","setAuditFunds(address)":"41259bc0","setStaking(address)":"8ff39099","setStrategies(address,address)":"c583214c","snapshotAndAllocateHolderRewards(uint256)":"b0d386bc","stablecoin()":"e9cbd822","staking()":"4cf088d9","strategyAave()":"af74102a","strategyVenus()":"39fbc9d7","totalAssets()":"01e1d114","totalDepositedToStrat()":"bdf764ee","totalFromManager()":"8b951c56","totalHarvested()":"23dc1142","totalRedeemed()":"f35dad40","totalWithdrawnFromStrat()":"29a830a0","transferOwnership(address)":"f2fde38b","unpaidByUser(uint256,address)":"fc73bc06","wbtc()":"3cdc5389","windowCloseTime()":"aac5b75d","windowOpen()":"fa61dff4","windowSnapshotId()":"0e8f68e0","withdrawAllFromStrategy()":"ade10960","withdrawFromStrategy(uint256)":"48b19335"},"id":11}