{"abi":[{"type":"function","name":"distributeCommissions","inputs":[{"name":"","type":"address","internalType":"address"},{"name":"","type":"uint256","internalType":"uint256"}],"outputs":[],"stateMutability":"nonpayable"},{"type":"function","name":"getReferralChain","inputs":[{"name":"user","type":"address","internalType":"address"}],"outputs":[{"name":"level1","type":"address","internalType":"address"},{"name":"level2","type":"address","internalType":"address"},{"name":"level3","type":"address","internalType":"address"}],"stateMutability":"view"},{"type":"function","name":"hasReferrer","inputs":[{"name":"user","type":"address","internalType":"address"}],"outputs":[{"name":"","type":"bool","internalType":"bool"}],"stateMutability":"view"},{"type":"function","name":"referrerOf","inputs":[{"name":"","type":"address","internalType":"address"}],"outputs":[{"name":"","type":"address","internalType":"address"}],"stateMutability":"view"},{"type":"function","name":"setReferrer","inputs":[{"name":"user","type":"address","internalType":"address"},{"name":"referrer","type":"address","internalType":"address"}],"outputs":[],"stateMutability":"nonpayable"}],"bytecode":{"object":"0x60808060405234610016576101dd908161001c8239f35b600080fdfe60806040818152600436101561001457600080fd5b600091823560e01c90816318452cd81461014f575080636667864d1461010c57806375003aa1146100ed578063bbddaca3146100955763d21cacdf1461005957600080fd5b34610091576020366003190112610091576020916001600160a01b039082908261008161018c565b1681528085522054169051908152f35b5080fd5b50346100915780600319360112610091576100ae61018c565b6001600160a01b036024358181169392908490036100e957168352826020528220906bffffffffffffffffffffffff60a01b82541617905580f35b8480fd5b5034610091573660031901126101095761010561018c565b5080f35b80fd5b5034610091576020366003190112610091576060916001600160a01b038061013261018c565b168252816020528282205416918051928352816020840152820152f35b91905034610188576020366003190112610188576020926001600160a01b0391908261017961018c565b16815280855220541615158152f35b8280fd5b600435906001600160a01b03821682036101a257565b600080fdfea2646970667358221220c340881b61eb0267a7111900d70d3905fe30e813c79d428f568e1a7ee893f58e64736f6c63430008140033","linkReferences":{}},"methodIdentifiers":{"distributeCommissions(address,uint256)":"75003aa1","getReferralChain(address)":"6667864d","hasReferrer(address)":"18452cd8","referrerOf(address)":"d21cacdf","setReferrer(address,address)":"bbddaca3"},"storageLayout":{"storage":[{"astId":11176,"contract":"contracts/mocks/MockReferralNetwork.sol:MockReferralNetwork","label":"referrerOf","offset":0,"slot":"0","type":"t_mapping(t_address,t_address)"}],"types":{"t_address":{"encoding":"inplace","label":"address","numberOfBytes":"20"},"t_mapping(t_address,t_address)":{"encoding":"mapping","key":"t_address","label":"mapping(address => address)","numberOfBytes":"32","value":"t_address"}}},"id":20}