{"abi":[{"type":"constructor","inputs":[],"stateMutability":"nonpayable"},{"type":"function","name":"availableRewards","inputs":[],"outputs":[{"name":"","type":"uint256","internalType":"uint256"}],"stateMutability":"view"},{"type":"function","name":"burnUndistributed","inputs":[{"name":"amount","type":"uint256","internalType":"uint256"}],"outputs":[],"stateMutability":"nonpayable"},{"type":"function","name":"distributeReward","inputs":[{"name":"recipient","type":"address","internalType":"address"},{"name":"amount","type":"uint256","internalType":"uint256"}],"outputs":[],"stateMutability":"nonpayable"},{"type":"function","name":"failDistribute","inputs":[],"outputs":[{"name":"","type":"bool","internalType":"bool"}],"stateMutability":"view"},{"type":"function","name":"getAvailableRewards","inputs":[],"outputs":[{"name":"","type":"uint256","internalType":"uint256"}],"stateMutability":"view"},{"type":"function","name":"rewarded","inputs":[{"name":"","type":"address","internalType":"address"}],"outputs":[{"name":"","type":"uint256","internalType":"uint256"}],"stateMutability":"view"},{"type":"function","name":"setAvailableRewards","inputs":[{"name":"v","type":"uint256","internalType":"uint256"}],"outputs":[],"stateMutability":"nonpayable"},{"type":"function","name":"setFailDistribute","inputs":[{"name":"v","type":"bool","internalType":"bool"}],"outputs":[],"stateMutability":"nonpayable"},{"type":"function","name":"setTreasuryBTC","inputs":[{"name":"_treasuryBTC","type":"address","internalType":"address"}],"outputs":[],"stateMutability":"nonpayable"},{"type":"function","name":"treasuryBTC","inputs":[],"outputs":[{"name":"","type":"address","internalType":"address"}],"stateMutability":"view"}],"bytecode":{"object":"0x6080806040523461002357600160ff1960025416176002556103a390816100298239f35b600080fdfe608060408181526004918236101561001657600080fd5b600092833560e01c9182631ec8bb8c1461024c57508163379f53e31461021557816357d020cf146101b157816376bb672c1461016c57816376ec1a0614610152578163879d9090146101335781639081640b1461010f578163dc6ad4ce146100e057508063eb348f83146100b45763fc9c99ac1461009357600080fd5b346100b057816003193601126100b0576020906001549051908152f35b5080fd5b50346100b057816003193601126100b057600254905160089190911c6001600160a01b03168152602090f35b8390346100b05760203660031901126100b057358015158091036100b05760ff80196002541691161760025580f35b5050346100b057816003193601126100b05760209060ff6002541690519015158152f35b5050346100b057816003193601126100b0576020906001549051908152f35b8390346100b05760203660031901126100b0573560015580f35b83346101ae5760203660031901126101ae5761018661032f565b60028054610100600160a81b03191660089290921b610100600160a81b031691909117905580f35b80fd5b839150346100b05760203660031901126100b0576001548135918282106101e35750906101dd9161034a565b60015580f35b606490602086519162461bcd60e51b8352820152600c60248201526b1a5b9cdd59999a58da595b9d60a21b6044820152fd5b5050346100b05760203660031901126100b05760209181906001600160a01b0361023d61032f565b16815280845220549051908152f35b8491843461032b578060031936011261032b5761026761032f565b6024359360ff600254166102fc57506001548481106102c2578461028a9161034a565b60015560018060a01b031684528360205283209081549283018093116102af57505580f35b634e487b7160e01b845260119052602483fd5b825162461bcd60e51b81526020818601526014602482015273696e73756666696369656e74207265776172647360601b6044820152606490fd5b62461bcd60e51b8152602084820152600b60248201526a199bdc98d9590819985a5b60aa1b6044820152606490fd5b8380fd5b600435906001600160a01b038216820361034557565b600080fd5b9190820391821161035757565b634e487b7160e01b600052601160045260246000fdfea2646970667358221220ab0a3fbb1e2fa6875d069a72382455360b5ef482cae7c08f50d7c5d58e43db8564736f6c63430008140033","linkReferences":{}},"methodIdentifiers":{"availableRewards()":"879d9090","burnUndistributed(uint256)":"57d020cf","distributeReward(address,uint256)":"1ec8bb8c","failDistribute()":"9081640b","getAvailableRewards()":"fc9c99ac","rewarded(address)":"379f53e3","setAvailableRewards(uint256)":"76ec1a06","setFailDistribute(bool)":"dc6ad4ce","setTreasuryBTC(address)":"76bb672c","treasuryBTC()":"eb348f83"},"id":18}