{"abi":[{"type":"function","name":"availableRewards","inputs":[],"outputs":[{"name":"","type":"uint256","internalType":"uint256"}],"stateMutability":"view"},{"type":"function","name":"burnUndistributed","inputs":[{"name":"amount","type":"uint256","internalType":"uint256"}],"outputs":[],"stateMutability":"nonpayable"},{"type":"function","name":"distributeReward","inputs":[{"name":"","type":"address","internalType":"address"},{"name":"amount","type":"uint256","internalType":"uint256"}],"outputs":[],"stateMutability":"nonpayable"},{"type":"function","name":"getAvailableRewards","inputs":[],"outputs":[{"name":"","type":"uint256","internalType":"uint256"}],"stateMutability":"view"},{"type":"function","name":"setAvailableRewards","inputs":[{"name":"amount","type":"uint256","internalType":"uint256"}],"outputs":[],"stateMutability":"nonpayable"},{"type":"function","name":"setTreasuryBTC","inputs":[{"name":"treasury","type":"address","internalType":"address"}],"outputs":[],"stateMutability":"nonpayable"},{"type":"function","name":"treasuryBTC","inputs":[],"outputs":[{"name":"","type":"address","internalType":"address"}],"stateMutability":"view"}],"bytecode":{"object":"0x60808060405234610025576a52b7d2dcc80cd2e40000006000556101f0908161002b8239f35b600080fdfe6080604052600436101561001257600080fd5b6000803560e01c80631ec8bb8c1461014757806357d020cf1461012757806376bb672c146100e957806376ec1a06146100cf578063879d9090146100b2578063eb348f83146100895763fc9c99ac1461006a57600080fd5b3461008657806003193601126100865760209054604051908152f35b80fd5b50346100865780600319360112610086576001546040516001600160a01b039091168152602090f35b503461008657806003193601126100865760209054604051908152f35b503461008657602036600319011261008657600435815580f35b5034610086576020366003190112610086576001600160a01b0361010b61016d565b166bffffffffffffffffffffffff60a01b600154161760015580f35b503461008657602036600319011261008657610144600435610188565b80f35b50346100865760403660031901126100865761016161016d565b50610144602435610188565b600435906001600160a01b038216820361018357565b600080fd5b6000805482116101b55780549182039182116101a15755565b634e487b7160e01b81526011600452602490fd5b80555056fea264697066735822122083bbceee1f0b968115ed2f0599790275406bdac8a8dd664c4dd1943d02dfc71164736f6c63430008140033","linkReferences":{}},"methodIdentifiers":{"availableRewards()":"879d9090","burnUndistributed(uint256)":"57d020cf","distributeReward(address,uint256)":"1ec8bb8c","getAvailableRewards()":"fc9c99ac","setAvailableRewards(uint256)":"76ec1a06","setTreasuryBTC(address)":"76bb672c","treasuryBTC()":"eb348f83"},"id":17}