{"abi":[{"type":"function","name":"fulfillRandomWords","inputs":[{"name":"requestId","type":"uint256","internalType":"uint256"},{"name":"words","type":"uint256[]","internalType":"uint256[]"}],"outputs":[],"stateMutability":"nonpayable"},{"type":"function","name":"requestRandomWords","inputs":[{"name":"","type":"bytes32","internalType":"bytes32"},{"name":"","type":"uint64","internalType":"uint64"},{"name":"","type":"uint16","internalType":"uint16"},{"name":"","type":"uint32","internalType":"uint32"},{"name":"","type":"uint32","internalType":"uint32"}],"outputs":[{"name":"requestId","type":"uint256","internalType":"uint256"}],"stateMutability":"nonpayable"},{"type":"event","name":"RandomWordsRequested","inputs":[{"name":"requestId","type":"uint256","indexed":false,"internalType":"uint256"},{"name":"consumer","type":"address","indexed":false,"internalType":"address"}],"anonymous":false}],"bytecode":{"object":"0x6080806040523461001b57600160005561036a90816100218239f35b600080fdfe608060408181526004908136101561001657600080fd5b600092833560e01c90816338ba46141461010a5750635d3b1d301461003a57600080fd5b346101025760a03660031901126101025760243567ffffffffffffffff8116036101025760443561ffff8116036101025763ffffffff6064358181160361010657608435908116036101025782549160001983146100ef5750806020936001840181558381526001855220336bffffffffffffffffffffffff60a01b8254161790557f5afc92f47019f6f981dbe48fba0d8bc10298b161505d2ead5ad4b975bfde77f48180518481523386820152a151908152f35b634e487b7160e01b845260119052602483fd5b8280fd5b8380fd5b90503461010657816003193601126101065760249167ffffffffffffffff843584358281116102f857366023820112156102f85780870135948386116102e6578560051b9160209661015e888501846102fc565b8252868201888194830101913683116102e25789899101915b8383106102d257505050838a52506001808752858a20546001600160a01b03169290831561029e579290918a9287519586958a870193631fe543e360e01b855260648801928d8901528a604489015251809252608487019291865b8c82821061027c5750505050508394849103956101f7601f19978881018352826102fc565b51925af1913d15610275573d9081116102635761021d85855193601f84011601836102fc565b815286843d92013e5b1561022f578480f35b5162461bcd60e51b81529283015260129082015271119d5b199a5b1b1b595b9d0819985a5b195960721b6044820152606490fd5b634e487b7160e01b8852604187528588fd5b5050610226565b919484839295989a5084979950518152019501910192879694928e96946101d2565b865162461bcd60e51b8152808b01899052600f818b01526e155b9adb9bdddb881c995c5d595cdd608a1b6044820152606490fd5b8235815291810191899101610177565b8b80fd5b634e487b7160e01b8952604188528689fd5b8780fd5b90601f8019910116810190811067ffffffffffffffff82111761031e57604052565b634e487b7160e01b600052604160045260246000fdfea26469706673582212206514a1ee883581fc50ffd450c5bc4531b5151624a33650d429b1e78e1d1a967d64736f6c63430008140033","linkReferences":{}},"methodIdentifiers":{"fulfillRandomWords(uint256,uint256[])":"38ba4614","requestRandomWords(bytes32,uint64,uint16,uint32,uint32)":"5d3b1d30"},"id":21}