{
  "_format": "hh-sol-artifact-1",
  "contractName": "TreasuryBTC",
  "sourceName": "contracts/TreasuryBTC.sol",
  "abi": [
    {
      "inputs": [
        {
          "internalType": "address",
          "name": "_stablecoin",
          "type": "address"
        },
        {
          "internalType": "address",
          "name": "_nxlToken",
          "type": "address"
        },
        {
          "internalType": "address",
          "name": "_founder",
          "type": "address"
        }
      ],
      "stateMutability": "nonpayable",
      "type": "constructor"
    },
    {
      "inputs": [
        {
          "internalType": "address",
          "name": "owner",
          "type": "address"
        }
      ],
      "name": "OwnableInvalidOwner",
      "type": "error"
    },
    {
      "inputs": [
        {
          "internalType": "address",
          "name": "account",
          "type": "address"
        }
      ],
      "name": "OwnableUnauthorizedAccount",
      "type": "error"
    },
    {
      "inputs": [],
      "name": "ReentrancyGuardReentrantCall",
      "type": "error"
    },
    {
      "anonymous": false,
      "inputs": [
        {
          "indexed": true,
          "internalType": "address",
          "name": "from",
          "type": "address"
        },
        {
          "indexed": false,
          "internalType": "uint256",
          "name": "amount",
          "type": "uint256"
        }
      ],
      "name": "FundsReceived",
      "type": "event"
    },
    {
      "anonymous": false,
      "inputs": [
        {
          "indexed": true,
          "internalType": "address",
          "name": "to",
          "type": "address"
        },
        {
          "indexed": false,
          "internalType": "uint256",
          "name": "amount",
          "type": "uint256"
        }
      ],
      "name": "FundsWithdrawnForStaking",
      "type": "event"
    },
    {
      "anonymous": false,
      "inputs": [
        {
          "indexed": true,
          "internalType": "address",
          "name": "manager",
          "type": "address"
        }
      ],
      "name": "NexumManagerSet",
      "type": "event"
    },
    {
      "anonymous": false,
      "inputs": [
        {
          "indexed": true,
          "internalType": "address",
          "name": "previousOwner",
          "type": "address"
        },
        {
          "indexed": true,
          "internalType": "address",
          "name": "newOwner",
          "type": "address"
        }
      ],
      "name": "OwnershipTransferred",
      "type": "event"
    },
    {
      "anonymous": false,
      "inputs": [
        {
          "indexed": true,
          "internalType": "address",
          "name": "user",
          "type": "address"
        },
        {
          "indexed": true,
          "internalType": "uint256",
          "name": "snapshotId",
          "type": "uint256"
        },
        {
          "indexed": false,
          "internalType": "uint256",
          "name": "amount",
          "type": "uint256"
        }
      ],
      "name": "RewardClaimed",
      "type": "event"
    },
    {
      "anonymous": false,
      "inputs": [
        {
          "indexed": true,
          "internalType": "uint256",
          "name": "snapshotId",
          "type": "uint256"
        },
        {
          "indexed": false,
          "internalType": "uint256",
          "name": "amount",
          "type": "uint256"
        }
      ],
      "name": "RewardsDeposited",
      "type": "event"
    },
    {
      "anonymous": false,
      "inputs": [
        {
          "indexed": false,
          "internalType": "bool",
          "name": "active",
          "type": "bool"
        }
      ],
      "name": "StakingStatusChanged",
      "type": "event"
    },
    {
      "inputs": [],
      "name": "MIN_WITHDRAWAL_INTERVAL",
      "outputs": [
        {
          "internalType": "uint256",
          "name": "",
          "type": "uint256"
        }
      ],
      "stateMutability": "view",
      "type": "function"
    },
    {
      "inputs": [
        {
          "internalType": "uint256[]",
          "name": "snapshotIds",
          "type": "uint256[]"
        }
      ],
      "name": "claimMultipleRewards",
      "outputs": [],
      "stateMutability": "nonpayable",
      "type": "function"
    },
    {
      "inputs": [
        {
          "internalType": "uint256",
          "name": "snapshotId",
          "type": "uint256"
        }
      ],
      "name": "claimRewards",
      "outputs": [],
      "stateMutability": "nonpayable",
      "type": "function"
    },
    {
      "inputs": [
        {
          "internalType": "uint256",
          "name": "amount",
          "type": "uint256"
        }
      ],
      "name": "depositFunds",
      "outputs": [],
      "stateMutability": "nonpayable",
      "type": "function"
    },
    {
      "inputs": [
        {
          "internalType": "uint256",
          "name": "rewardAmount",
          "type": "uint256"
        }
      ],
      "name": "depositMonthlyRewards",
      "outputs": [],
      "stateMutability": "nonpayable",
      "type": "function"
    },
    {
      "inputs": [
        {
          "internalType": "uint256",
          "name": "amount",
          "type": "uint256"
        }
      ],
      "name": "emergencyWithdraw",
      "outputs": [],
      "stateMutability": "nonpayable",
      "type": "function"
    },
    {
      "inputs": [],
      "name": "founder",
      "outputs": [
        {
          "internalType": "address",
          "name": "",
          "type": "address"
        }
      ],
      "stateMutability": "view",
      "type": "function"
    },
    {
      "inputs": [],
      "name": "getContractInfo",
      "outputs": [
        {
          "internalType": "uint256",
          "name": "balance",
          "type": "uint256"
        },
        {
          "internalType": "uint256",
          "name": "deposited",
          "type": "uint256"
        },
        {
          "internalType": "uint256",
          "name": "withdrawnForStaking",
          "type": "uint256"
        },
        {
          "internalType": "uint256",
          "name": "rewardsDistributed",
          "type": "uint256"
        },
        {
          "internalType": "uint256",
          "name": "snapshots",
          "type": "uint256"
        },
        {
          "internalType": "bool",
          "name": "isStakingActive",
          "type": "bool"
        },
        {
          "internalType": "uint256",
          "name": "lastWithdrawal",
          "type": "uint256"
        },
        {
          "internalType": "uint256",
          "name": "nextWithdrawalAvailable",
          "type": "uint256"
        }
      ],
      "stateMutability": "view",
      "type": "function"
    },
    {
      "inputs": [
        {
          "internalType": "address",
          "name": "user",
          "type": "address"
        },
        {
          "internalType": "uint256",
          "name": "snapshotId",
          "type": "uint256"
        }
      ],
      "name": "getPendingRewards",
      "outputs": [
        {
          "internalType": "uint256",
          "name": "",
          "type": "uint256"
        }
      ],
      "stateMutability": "view",
      "type": "function"
    },
    {
      "inputs": [
        {
          "internalType": "uint256",
          "name": "snapshotId",
          "type": "uint256"
        }
      ],
      "name": "getSnapshotInfo",
      "outputs": [
        {
          "internalType": "uint256",
          "name": "timestamp",
          "type": "uint256"
        },
        {
          "internalType": "uint256",
          "name": "totalRewards",
          "type": "uint256"
        },
        {
          "internalType": "uint256",
          "name": "totalSupply",
          "type": "uint256"
        },
        {
          "internalType": "bool",
          "name": "distributed",
          "type": "bool"
        }
      ],
      "stateMutability": "view",
      "type": "function"
    },
    {
      "inputs": [
        {
          "internalType": "address",
          "name": "user",
          "type": "address"
        }
      ],
      "name": "getTotalPendingRewards",
      "outputs": [
        {
          "internalType": "uint256",
          "name": "total",
          "type": "uint256"
        }
      ],
      "stateMutability": "view",
      "type": "function"
    },
    {
      "inputs": [],
      "name": "lastWithdrawalTime",
      "outputs": [
        {
          "internalType": "uint256",
          "name": "",
          "type": "uint256"
        }
      ],
      "stateMutability": "view",
      "type": "function"
    },
    {
      "inputs": [],
      "name": "nexumManager",
      "outputs": [
        {
          "internalType": "address",
          "name": "",
          "type": "address"
        }
      ],
      "stateMutability": "view",
      "type": "function"
    },
    {
      "inputs": [],
      "name": "nxlToken",
      "outputs": [
        {
          "internalType": "contract IERC20",
          "name": "",
          "type": "address"
        }
      ],
      "stateMutability": "view",
      "type": "function"
    },
    {
      "inputs": [],
      "name": "owner",
      "outputs": [
        {
          "internalType": "address",
          "name": "",
          "type": "address"
        }
      ],
      "stateMutability": "view",
      "type": "function"
    },
    {
      "inputs": [],
      "name": "receiveFunds",
      "outputs": [],
      "stateMutability": "nonpayable",
      "type": "function"
    },
    {
      "inputs": [
        {
          "internalType": "address",
          "name": "tokenAddress",
          "type": "address"
        },
        {
          "internalType": "uint256",
          "name": "amount",
          "type": "uint256"
        }
      ],
      "name": "recoverERC20",
      "outputs": [],
      "stateMutability": "nonpayable",
      "type": "function"
    },
    {
      "inputs": [],
      "name": "renounceOwnership",
      "outputs": [],
      "stateMutability": "nonpayable",
      "type": "function"
    },
    {
      "inputs": [
        {
          "internalType": "uint256",
          "name": "",
          "type": "uint256"
        }
      ],
      "name": "rewardSnapshots",
      "outputs": [
        {
          "internalType": "uint256",
          "name": "timestamp",
          "type": "uint256"
        },
        {
          "internalType": "uint256",
          "name": "totalRewards",
          "type": "uint256"
        },
        {
          "internalType": "uint256",
          "name": "totalNXLSupply",
          "type": "uint256"
        },
        {
          "internalType": "bool",
          "name": "distributed",
          "type": "bool"
        }
      ],
      "stateMutability": "view",
      "type": "function"
    },
    {
      "inputs": [
        {
          "internalType": "address",
          "name": "_nexumManager",
          "type": "address"
        }
      ],
      "name": "setNexumManager",
      "outputs": [],
      "stateMutability": "nonpayable",
      "type": "function"
    },
    {
      "inputs": [
        {
          "internalType": "bool",
          "name": "_active",
          "type": "bool"
        }
      ],
      "name": "setStakingStatus",
      "outputs": [],
      "stateMutability": "nonpayable",
      "type": "function"
    },
    {
      "inputs": [],
      "name": "snapshotCount",
      "outputs": [
        {
          "internalType": "uint256",
          "name": "",
          "type": "uint256"
        }
      ],
      "stateMutability": "view",
      "type": "function"
    },
    {
      "inputs": [],
      "name": "stablecoin",
      "outputs": [
        {
          "internalType": "contract IERC20",
          "name": "",
          "type": "address"
        }
      ],
      "stateMutability": "view",
      "type": "function"
    },
    {
      "inputs": [],
      "name": "stakingActive",
      "outputs": [
        {
          "internalType": "bool",
          "name": "",
          "type": "bool"
        }
      ],
      "stateMutability": "view",
      "type": "function"
    },
    {
      "inputs": [
        {
          "internalType": "address",
          "name": "",
          "type": "address"
        }
      ],
      "name": "totalClaimedByUser",
      "outputs": [
        {
          "internalType": "uint256",
          "name": "",
          "type": "uint256"
        }
      ],
      "stateMutability": "view",
      "type": "function"
    },
    {
      "inputs": [],
      "name": "totalDeposited",
      "outputs": [
        {
          "internalType": "uint256",
          "name": "",
          "type": "uint256"
        }
      ],
      "stateMutability": "view",
      "type": "function"
    },
    {
      "inputs": [],
      "name": "totalRewardsDistributed",
      "outputs": [
        {
          "internalType": "uint256",
          "name": "",
          "type": "uint256"
        }
      ],
      "stateMutability": "view",
      "type": "function"
    },
    {
      "inputs": [],
      "name": "totalWithdrawnForStaking",
      "outputs": [
        {
          "internalType": "uint256",
          "name": "",
          "type": "uint256"
        }
      ],
      "stateMutability": "view",
      "type": "function"
    },
    {
      "inputs": [
        {
          "internalType": "address",
          "name": "newOwner",
          "type": "address"
        }
      ],
      "name": "transferOwnership",
      "outputs": [],
      "stateMutability": "nonpayable",
      "type": "function"
    },
    {
      "inputs": [
        {
          "internalType": "address",
          "name": "",
          "type": "address"
        },
        {
          "internalType": "uint256",
          "name": "",
          "type": "uint256"
        }
      ],
      "name": "userClaimed",
      "outputs": [
        {
          "internalType": "bool",
          "name": "",
          "type": "bool"
        }
      ],
      "stateMutability": "view",
      "type": "function"
    },
    {
      "inputs": [
        {
          "internalType": "uint256",
          "name": "amount",
          "type": "uint256"
        }
      ],
      "name": "withdrawForStaking",
      "outputs": [],
      "stateMutability": "nonpayable",
      "type": "function"
    }
  ],
  "bytecode": "0x60e0346200024457601f62001efe38819003918201601f191683019291906001600160401b0384118385101762000249578160609284926040968752833981010312620002445762000051816200025f565b6200006c8362000064602085016200025f565b93016200025f565b9133156200022c5760008054336001600160a01b031982168117835586516001600160a01b039590949386939192918416907f8be0079c531659141344cd1fd0a4f28419497f9722a3daafe3b4186f6b6457e09080a36001805516918215620001f557508216918215620001bd57831615620001875760805260a05260c05260ff196007541660075551611c899081620002758239608051818181610323015281816105730152818161063401528181610c2f01528181610d5101528181610f2f01528181611253015281816113ee0152818161164601526117d3015260a0518181816106860152818161089e01528181610bcb01528181610e990152818161157d0152611bb8015260c0518181816102a801526113450152f35b835162461bcd60e51b815260206004820152600f60248201526e24b73b30b634b2103337bab73232b960891b6044820152606490fd5b845162461bcd60e51b815260206004820152601160248201527024b73b30b634b210272c26103a37b5b2b760791b6044820152606490fd5b62461bcd60e51b815260206004820152601260248201527124b73b30b634b21039ba30b13632b1b7b4b760711b6044820152606490fd5b8351631e4fbdf760e01b815260006004820152602490fd5b600080fd5b634e487b7160e01b600052604160045260246000fd5b51906001600160a01b0382168203620002445756fe608060408181526004918236101561001657600080fd5b600092833560e01c9182625c33e1146117a8575081630962ef79146114cc578163098ab6a1146114ad57816334a014dc1461148e5781633b76594d1461139257816344a39964146113745781634d853ee5146113305781635312ea8e1461120a5781635d648588146111b7578163715018a61461115d578163729d0a8a14610e2d5781637cc1f86714610d1a5781638980f11f14610bfa57816389ef723b14610bb65781638da5cb5b14610b8e578163925d7c4414610ab157816395c4cc6214610a1f578163a6ac4b35146109fb578163a8c478ba14610867578163b8bec6a014610804578163bb0fecc7146107cc578163d66ee30d146107a3578163dbcb285b146105d2578163e4e7c6b4146105a2578163e9cbd8221461055e578163ee1725461461053f578163efe441d914610288578163f2fde38b146101fd57508063f9e8052d146101e0578063fcbf8b241461019a5763ff50abdc1461017957600080fd5b346101965781600319360112610196576020906003549051908152f35b5080fd5b503461019657806003193601126101965760209160ff9082906001600160a01b036101c361189e565b168152600a85528181206024358252855220541690519015158152f35b50346101965781600319360112610196576020905162278d008152f35b9050346102845760203660031901126102845761021861189e565b906102216118b9565b6001600160a01b0391821692831561026e57505082546001600160a01b0319811683178455167f8be0079c531659141344cd1fd0a4f28419497f9722a3daafe3b4186f6b6457e08380a380f35b51631e4fbdf760e01b8152908101849052602490fd5b8280fd5b9050346102845760208060031936011261053b5781356102a66118b9565b7f00000000000000000000000000000000000000000000000000000000000000006001600160a01b038181169490338614801561052f575b156104fd5760ff60075416156104c5576102f9841515611969565b60065462278d0081018091116104b257421061047b5786516370a0823160e01b81523083820152907f0000000000000000000000000000000000000000000000000000000000000000168582602481845afa9389851561047057879487948297610432575b5061036e856103b3981015611a00565b4260065561037d85825461195c565b81558a5163a9059cbb60e01b81526001600160a01b03909316908301908152602081019490945290948593849291839160400190565b03925af1908115610428577f919af1fc10649a8224f81a2f2b22d4789bd0d845caa1a114dcb69265b4cb16e09495916103f39188916103fb575b506119c2565b51908152a280f35b61041b9150853d8711610421575b6104138183611917565b8101906119aa565b386103ed565b503d610409565b85513d88823e3d90fd5b94509490955083813d8311610469575b61044c8183611917565b810103126104655791519386938693919061036e61035e565b8480fd5b503d610442565b8951903d90823e3d90fd5b865162461bcd60e51b815280830186905260116024820152704d7573742077616974203330206461797360781b6044820152606490fd5b634e487b7160e01b895260118352602489fd5b865162461bcd60e51b815280830186905260126024820152715374616b696e67206e6f742061637469766560701b6044820152606490fd5b865162461bcd60e51b8152808301869052600c60248201526b27b7363c903337bab73232b960a11b6044820152606490fd5b508088541633146102de565b8380fd5b5050346101965781600319360112610196576020906005549051908152f35b505034610196578160031936011261019657517f00000000000000000000000000000000000000000000000000000000000000006001600160a01b03168152602090f35b5050346101965780600319360112610196576020906105cb6105c261189e565b60243590611b20565b9051908152f35b9050346102845760208060031936011261053b5781356105f06118b9565b6105fb811515611969565b83516323b872dd60e01b815233848201908152306020820152604081018390526001600160a01b0395919084908290819003606001818a7f00000000000000000000000000000000000000000000000000000000000000008b165af1908115610799579061066f9188916103fb57506119c2565b82600954958251958680926318160ddd60e01b82527f0000000000000000000000000000000000000000000000000000000000000000165afa801561078f57869061073e575b7f8ad0c4905aa5603107e860e0c2b1a78e23eba312c30f8114a70d94d9e187f5af9450600382516106e5816118e5565b4281528581019285845284820190815260608201938a8552898b5260088852858b2092518355516001830155516002820155019051151560ff80198354169116179055610733600954611a43565b60095551908152a280f35b508284813d8311610788575b6107548183611917565b81010312610784577f8ad0c4905aa5603107e860e0c2b1a78e23eba312c30f8114a70d94d9e187f5af93516106b5565b8580fd5b503d61074a565b81513d88823e3d90fd5b82513d89823e3d90fd5b50503461019657816003193601126101965760025490516001600160a01b039091168152602090f35b5050346101965760203660031901126101965760209181906001600160a01b036107f461189e565b168152600b845220549051908152f35b905034610284576020366003190112610284573590811515809203610284577f8d2382069f9b9c6cbe24a294ec111217f32f20524e7099bc8882d7af51a61e1c916020916108506118b9565b60ff196007541660ff83161760075551908152a180f35b9190503461028457602092836003193601126109f85761088561189e565b60095491938492839290916001600160a01b03918216917f0000000000000000000000000000000000000000000000000000000000000000165b8386106108cf5788888851908152f35b909192939496838652600a8952868620888752895260ff8088882054166109ed57879060088b528a828920916060845191610909836118e5565b84548352600360018601549484019585875260028101549785019788520154161515910152156109e15788516370a0823160e01b8152858101879052908b82602481885afa9182156109d75789926109a4575b508115610997576109879261097961098d95936109819351611aca565b905190611add565b9061195c565b97611a43565b94939291906108bf565b5050509661098d90611a43565b9091508b81813d83116109d0575b6109bc8183611917565b810103126109cc5751903861095c565b8880fd5b503d6109b2565b8a513d8b823e3d90fd5b50509661098d90611a43565b509661098d90611a43565b80fd5b50503461019657816003193601126101965760209060ff6007541690519015158152f35b9050346102845760203660031901126102845791819235610a436009548210611a52565b815260086020522090610aad6060825193610a5d856118e5565b80549384865260018201549586602082015260ff60036002850154948585850152015416151593849101525194859485926060929594919560808501968552602085015260408401521515910152565b0390f35b8391503461019657602036600319011261019657610acd61189e565b610ad56118b9565b600254906001600160a01b0390818316610b5d5716918215610b2857506001600160a01b03191681176002557f1f93eb4af9964a0fbf3c59e4668618db26f4f90ff336d62addeb24270471eb708280a280f35b606490602086519162461bcd60e51b8352820152600f60248201526e496e76616c6964206164647265737360881b6044820152fd5b855162461bcd60e51b8152602081860152600b60248201526a105b1c9958591e481cd95d60aa1b6044820152606490fd5b505034610196578160031936011261019657905490516001600160a01b039091168152602090f35b505034610196578160031936011261019657517f00000000000000000000000000000000000000000000000000000000000000006001600160a01b03168152602090f35b83915034610196578260031936011261019657610c1561189e565b60243591610c216118b9565b6001600160a01b03918216917f000000000000000000000000000000000000000000000000000000000000000081168314610cd75792859260209286610c9f96610c6c851515611969565b8154169186519788958694859363a9059cbb60e01b8552840160209093929193604081019460018060a01b031681520152565b03925af1908115610cce5750610cb3575080f35b610cca9060203d8111610421576104138183611917565b5080f35b513d84823e3d90fd5b855162461bcd60e51b8152602081840152601960248201527f43616e6e6f74207265636f76657220737461626c65636f696e000000000000006044820152606490fd5b905034610284578260031936011261028457600654839181610e05575b83516370a0823160e01b81523082820152936020856024817f00000000000000000000000000000000000000000000000000000000000000006001600160a01b03165afa94851561078f578695610dcd575b5061010095506003549154600554906009549260ff60075416948151988952602089015287015260608601526080850152151560a084015260c083015260e0820152f35b9094506020813d8211610dfd575b81610de860209383611917565b81010312610784576101009550519338610d89565b3d9150610ddb565b915062278d008101808211610e1a5791610d37565b634e487b7160e01b855260118352602485fd5b905034610284576020908160031936011261053b57803567ffffffffffffffff918282116107845736602383011215610784578181013592831161078457602492600590368582841b8601011161115957918593918895610e8c611afd565b86946001600160a01b03947f000000000000000000000000000000000000000000000000000000000000000086169290875b838110610f9c575050505050610f2b9550610eda841515611a91565b338952600b8552878920610eef85825461195c565b9055610efc84825461195c565b9055865163a9059cbb60e01b815233918101918252602082019390935291938492839189918391604090910190565b03927f0000000000000000000000000000000000000000000000000000000000000000165af1918215610f8f57610f6b93508492610f72575b50506119c2565b6001805580f35b610f889250803d10610421576104138183611917565b3880610f64565b50505051903d90823e3d90fd5b918597995082819597999294961b840101359060095482101561114d57338b528b8d600a9c8d8352818120858252835260ff9283838320541661113d5760088152828220835194610fec866118e5565b81548652600195868301549060608582019383855260036002870154968a850197885201541615159101521561112b578c908f84908d8851809581936370a0823160e01b835233908301525afa9182156111215785926110f2575b5081156110df5761105d92916109799151611aca565b9e8f156110ce573383528152828220868352905220805460ff191690911790556110be92919061108e908c9061195c565b9a8d519081527ff01da32686223933d8a18a391060918c7f11a3648639edd87ae013e2e27317438d3392a3611a43565b9189979593918c99979593610ebe565b50505050509950506110be90611a43565b505050505050509950506110be90611a43565b9091508381813d831161111a575b61110a8183611917565b8101031261046557519038611047565b503d611100565b86513d87823e3d90fd5b5050505050509950506110be90611a43565b505050509950506110be90611a43565b9950506110be90611a43565b8780fd5b83346109f857806003193601126109f8576111766118b9565b80546001600160a01b03198116825581906001600160a01b03167f8be0079c531659141344cd1fd0a4f28419497f9722a3daafe3b4186f6b6457e08280a380f35b905034610284576020366003190112610284573582526008602090815291819020805460018201546002830154600390930154935191825293810193909352604083015260ff1615156060820152608090f35b905034610284576020908160031936011261053b5780359061122a6118b9565b611235821515611969565b83516370a0823160e01b815230828201526001600160a01b039290917f0000000000000000000000000000000000000000000000000000000000000000841690878685602481865afa801561132457879582916112f1575b509561129e856112d1981015611a00565b8154169188519687958694859363a9059cbb60e01b8552840160209093929193604081019460018060a01b031681520152565b03925af1918215610f8f576112ee93508492610f725750506119c2565b80f35b86819792503d831161131d575b6113088183611917565b810103126109f857935186949061129e61128d565b503d6112fe565b508751903d90823e3d90fd5b505034610196578160031936011261019657517f00000000000000000000000000000000000000000000000000000000000000006001600160a01b03168152602090f35b90503461028457826003193601126102845760209250549051908152f35b91905034610284576020366003190112610284576113e96020833580946113ba821515611969565b84516323b872dd60e01b8152339181019182523060208301526040820192909252909283918291606090910190565b0381877f00000000000000000000000000000000000000000000000000000000000000006001600160a01b03165af1908115611484579061143091859161146c57506119c2565b61143c8260035461195c565b600355519081527f8e47b87b0ef542cdfa1659c551d88bad38aa7f452d2bbb349ab7530dfec8be8f60203392a280f35b61041b915060203d8111610421576104138183611917565b82513d86823e3d90fd5b5050346101965781600319360112610196576020906006549051908152f35b5050346101965781600319360112610196576020906009549051908152f35b9050346102845760208060031936011261053b578135926114eb611afd565b6114f86009548510611a52565b338552600a8252808520848652825260ff81862054166117755783855260088252808520815190611528826118e5565b8054825261155c600182015485840193818552606060ff600360028701549689850197885201541615159101521515611a91565b82516370a0823160e01b815233868201526001600160a01b039285826024817f000000000000000000000000000000000000000000000000000000000000000088165afa91821561176b57899261173c575b508115611708576115c492916109799151611aca565b9384156116d25784611642928592338a52600a8452858a20898b528452858a20600160ff19825416179055338a52600b8452858a2061160484825461195c565b90556116128360055461195c565b600555855163a9059cbb60e01b81523391810191825260208201939093529193849283918b918391604090910190565b03927f0000000000000000000000000000000000000000000000000000000000000000165af19081156116c8577ff01da32686223933d8a18a391060918c7f11a3648639edd87ae013e2e27317439392916116a39188916116b157506119c2565b519283523392a36001805580f35b61041b9150843d8611610421576104138183611917565b82513d88823e3d90fd5b825162461bcd60e51b8152908101849052601060248201526f14995dd85c99081d1bdbc81cdb585b1b60821b6044820152606490fd5b845162461bcd60e51b8152808801879052600e60248201526d4e6f204e584c2062616c616e636560901b6044820152606490fd5b9091508581813d8311611764575b6117548183611917565b810103126109cc575190386115ae565b503d61174a565b85513d8b823e3d90fd5b5162461bcd60e51b815291820152600f60248201526e105b1c9958591e4818db185a5b5959608a1b604482015260649150fd5b909291503461053b578360031936011261053b576370a0823160e01b815230838201526020816024817f00000000000000000000000000000000000000000000000000000000000000006001600160a01b03165afa801561148457849061186b575b611823915061181d600354945485611939565b90611939565b918261182d578380f35b826118379161195c565b600355519081527f8e47b87b0ef542cdfa1659c551d88bad38aa7f452d2bbb349ab7530dfec8be8f60203392a23880808380f35b506020813d8211611896575b8161188460209383611917565b8101031261053b57611823905161180a565b3d9150611877565b600435906001600160a01b03821682036118b457565b600080fd5b6000546001600160a01b031633036118cd57565b60405163118cdaa760e01b8152336004820152602490fd5b6080810190811067ffffffffffffffff82111761190157604052565b634e487b7160e01b600052604160045260246000fd5b90601f8019910116810190811067ffffffffffffffff82111761190157604052565b9190820391821161194657565b634e487b7160e01b600052601160045260246000fd5b9190820180921161194657565b1561197057565b60405162461bcd60e51b81526020600482015260126024820152710416d6f756e74206d757374206265203e20360741b6044820152606490fd5b908160209103126118b4575180151581036118b45790565b156119c957565b60405162461bcd60e51b815260206004820152600f60248201526e151c985b9cd9995c8819985a5b1959608a1b6044820152606490fd5b15611a0757565b60405162461bcd60e51b8152602060048201526014602482015273496e73756666696369656e742062616c616e636560601b6044820152606490fd5b60001981146119465760010190565b15611a5957565b60405162461bcd60e51b815260206004820152601060248201526f125b9d985b1a59081cdb985c1cda1bdd60821b6044820152606490fd5b15611a9857565b60405162461bcd60e51b815260206004820152600a6024820152694e6f207265776172647360b01b6044820152606490fd5b8181029291811591840414171561194657565b8115611ae7570490565b634e487b7160e01b600052601260045260246000fd5b600260015414611b0e576002600155565b604051633ee5aeb560e01b8152600490fd5b600954821015611c4c576001600160a01b039081166000818152600a602090815260408083209583529481528482205490939060ff16611c44576008845284822093855193611b6e856118e5565b85548552600186015482860195818752606060ff600360028b01549a8c85019b8c52015416151591015215611c3a57819060248851809581936370a0823160e01b835260048301527f0000000000000000000000000000000000000000000000000000000000000000165afa958615610cce57508295611c0a575b50508315611c035750611c00926109799151611aca565b90565b9250505090565b9080929550813d8311611c33575b611c228183611917565b8101031261053b5751923880611be9565b503d611c18565b5050509250505090565b509250505090565b505060009056fea26469706673582212205f8b63d93c1c6035efb86ae6069a61c5cba39a0f9efa922cfca48ae0ee754f8b64736f6c63430008140033",
  "linkReferences": {},
  "deployedLinkReferences": {}
}