{"abi":[{"type":"constructor","inputs":[{"name":"_nxl","type":"address","internalType":"address"},{"name":"_wbtc","type":"address","internalType":"address"}],"stateMutability":"nonpayable"},{"type":"function","name":"ACC","inputs":[],"outputs":[{"name":"","type":"uint256","internalType":"uint256"}],"stateMutability":"view"},{"type":"function","name":"accRewardPerShareE18","inputs":[],"outputs":[{"name":"","type":"uint256","internalType":"uint256"}],"stateMutability":"view"},{"type":"function","name":"acceptOwnership","inputs":[],"outputs":[],"stateMutability":"nonpayable"},{"type":"function","name":"claimRewards","inputs":[],"outputs":[],"stateMutability":"nonpayable"},{"type":"function","name":"fundRewards","inputs":[{"name":"amount","type":"uint256","internalType":"uint256"}],"outputs":[],"stateMutability":"nonpayable"},{"type":"function","name":"fundedButUndistributed","inputs":[],"outputs":[{"name":"","type":"uint256","internalType":"uint256"}],"stateMutability":"view"},{"type":"function","name":"nxl","inputs":[],"outputs":[{"name":"","type":"address","internalType":"contract IERC20"}],"stateMutability":"view"},{"type":"function","name":"owner","inputs":[],"outputs":[{"name":"","type":"address","internalType":"address"}],"stateMutability":"view"},{"type":"function","name":"pendingOwner","inputs":[],"outputs":[{"name":"","type":"address","internalType":"address"}],"stateMutability":"view"},{"type":"function","name":"pendingRewards","inputs":[{"name":"user","type":"address","internalType":"address"}],"outputs":[{"name":"","type":"uint256","internalType":"uint256"}],"stateMutability":"view"},{"type":"function","name":"renounceOwnership","inputs":[],"outputs":[],"stateMutability":"nonpayable"},{"type":"function","name":"rescueTokens","inputs":[{"name":"token","type":"address","internalType":"address"},{"name":"amount","type":"uint256","internalType":"uint256"}],"outputs":[],"stateMutability":"nonpayable"},{"type":"function","name":"stake","inputs":[{"name":"amount","type":"uint256","internalType":"uint256"}],"outputs":[],"stateMutability":"nonpayable"},{"type":"function","name":"totalStaked","inputs":[],"outputs":[{"name":"","type":"uint256","internalType":"uint256"}],"stateMutability":"view"},{"type":"function","name":"transferOwnership","inputs":[{"name":"newOwner","type":"address","internalType":"address"}],"outputs":[],"stateMutability":"nonpayable"},{"type":"function","name":"unstake","inputs":[{"name":"amount","type":"uint256","internalType":"uint256"}],"outputs":[],"stateMutability":"nonpayable"},{"type":"function","name":"users","inputs":[{"name":"","type":"address","internalType":"address"}],"outputs":[{"name":"amount","type":"uint256","internalType":"uint256"},{"name":"rewardDebt","type":"uint256","internalType":"uint256"},{"name":"totalClaimed","type":"uint256","internalType":"uint256"},{"name":"unpaidRewards","type":"uint256","internalType":"uint256"}],"stateMutability":"view"},{"type":"function","name":"wbtc","inputs":[],"outputs":[{"name":"","type":"address","internalType":"contract IERC20"}],"stateMutability":"view"},{"type":"event","name":"BufferedRewards","inputs":[{"name":"funder","type":"address","indexed":true,"internalType":"address"},{"name":"amount","type":"uint256","indexed":false,"internalType":"uint256"}],"anonymous":false},{"type":"event","name":"Claimed","inputs":[{"name":"user","type":"address","indexed":true,"internalType":"address"},{"name":"amount","type":"uint256","indexed":false,"internalType":"uint256"}],"anonymous":false},{"type":"event","name":"DistributedBufferedRewards","inputs":[{"name":"amount","type":"uint256","indexed":false,"internalType":"uint256"}],"anonymous":false},{"type":"event","name":"OwnershipTransferStarted","inputs":[{"name":"previousOwner","type":"address","indexed":true,"internalType":"address"},{"name":"newOwner","type":"address","indexed":true,"internalType":"address"}],"anonymous":false},{"type":"event","name":"OwnershipTransferred","inputs":[{"name":"previousOwner","type":"address","indexed":true,"internalType":"address"},{"name":"newOwner","type":"address","indexed":true,"internalType":"address"}],"anonymous":false},{"type":"event","name":"RewardsFunded","inputs":[{"name":"funder","type":"address","indexed":true,"internalType":"address"},{"name":"amount","type":"uint256","indexed":false,"internalType":"uint256"}],"anonymous":false},{"type":"event","name":"Staked","inputs":[{"name":"user","type":"address","indexed":true,"internalType":"address"},{"name":"amount","type":"uint256","indexed":false,"internalType":"uint256"}],"anonymous":false},{"type":"event","name":"Unstaked","inputs":[{"name":"user","type":"address","indexed":true,"internalType":"address"},{"name":"amount","type":"uint256","indexed":false,"internalType":"uint256"}],"anonymous":false},{"type":"error","name":"OwnableInvalidOwner","inputs":[{"name":"owner","type":"address","internalType":"address"}]},{"type":"error","name":"OwnableUnauthorizedAccount","inputs":[{"name":"account","type":"address","internalType":"address"}]},{"type":"error","name":"ReentrancyGuardReentrantCall","inputs":[]},{"type":"error","name":"SafeERC20FailedOperation","inputs":[{"name":"token","type":"address","internalType":"address"}]}],"bytecode":{"object":"0x60c03461016d57601f610f7e38819003918201601f19168301916001600160401b0383118484101761017257808492604094855283398101031261016d57610052602061004b83610188565b9201610188565b6001600055331561015457600280546001600160a01b0319908116909155600180543392811683179091556040516001600160a01b03949092859283167f8be0079c531659141344cd1fd0a4f28419497f9722a3daafe3b4186f6b6457e0600080a3169081151580610149575b1561011757506080521660a052604051610de1908161019d8239608051818181610226015281816105560152818161071601526107dc015260a0518181816102e9015281816105cf0152818161060c0152610a950152f35b62461bcd60e51b815260206004820152600d60248201526c24b73b30b634b2103a37b5b2b760991b6044820152606490fd5b5083831615156100bf565b604051631e4fbdf760e01b815260006004820152602490fd5b600080fd5b634e487b7160e01b600052604160045260246000fd5b51906001600160a01b038216820361016d5756fe60806040908082526004918236101561001757600080fd5b600092833560e01c928363076c5fa91461080b5750826309085698146107c75782630ed52473146107a45782632e17de781461069b57826331d7a2621461066e578263372500ab1461063b5782633cdc5389146105f757826357376198146105255782636277fc0d14610506578263715018a61461049f57826379ba509714610412578263817b1cd2146103f35782638da5cb5b146103ca57826393707a19146102b7578263a694fc3a146101e457508163a87430ba1461018a578163e30c39781461015d575063f2fde38b146100ed57600080fd5b3461015a57602036600319011261015a57610106610827565b61010e610c4f565b600280546001600160a01b0319166001600160a01b039283169081179091556001549091167f38d16b8cac22d99fc7c124b9cd0de2d3fa1faef420bfe791d8c362d765e227008380a380f35b80fd5b90503461018657816003193601126101865760025490516001600160a01b039091168152602090f35b5080fd5b9050346101865760203660031901126101865760809181906001600160a01b036101b2610827565b168152600660205220908154916001810154916003600283015492015492815194855260208501528301526060820152f35b909150346102b35760203660031901126102b3573590610202610d88565b61020d821515610965565b6102156109d0565b61021e33610a51565b61024a8230337f0000000000000000000000000000000000000000000000000000000000000000610ccb565b3383526006602052808320610260838254610898565b905561026e82600354610898565b6003556102796109d0565b6102823361099c565b519081527f9e71bc8eea02a63969f509818f2dafb9254532904319f9dbda79b67bd34a5f3d60203392a26001815580f35b8280fd5b9150346102b35760203660031901126102b3578135916102d5610d88565b82156102e18115610965565b61030d8430337f0000000000000000000000000000000000000000000000000000000000000000610ccb565b600354908161035a5750505061032582600554610898565b600555519081527fb55f11e84ac00c12f2e3882f31bf2d7358ace56500f80855ce6d2ce6eb26aa8c60203392a25b6001815580f35b670de0b6b3a764000090818602918683041417156103b7576103869161037f9161086b565b8254610898565b9055519081527fd53214ca07be5520e229c395f05a3e5c0697ec6279184ffbe2758d304fd322cc60203392a2610353565b634e487b7160e01b865260118352602486fd5b83823461018657816003193601126101865760015490516001600160a01b039091168152602090f35b8382346101865781600319360112610186576020906003549051908152f35b9150346102b357826003193601126102b357600254916001600160a01b039133838516036104885750506bffffffffffffffffffffffff60a01b8092166002556001549133908316176001553391167f8be0079c531659141344cd1fd0a4f28419497f9722a3daafe3b4186f6b6457e08380a380f35b60249250519063118cdaa760e01b82523390820152fd5b833461015a578060031936011261015a576104b8610c4f565b600280546001600160a01b031990811690915560018054918216905581906001600160a01b03167f8be0079c531659141344cd1fd0a4f28419497f9722a3daafe3b4186f6b6457e08280a380f35b909150346102b357826003193601126102b35760209250549051908152f35b83903461018657826003193601126101865761053f610827565b90610548610c4f565b6001600160a01b03918216907f00000000000000000000000000000000000000000000000000000000000000008316821415806105cb575b1561059c57509061059991602435916001541690610c7b565b80f35b606490602086519162461bcd60e51b83528201526009602482015268141c9bdd1958dd195960ba1b6044820152fd5b50827f000000000000000000000000000000000000000000000000000000000000000016821415610580565b838234610186578160031936011261018657517f00000000000000000000000000000000000000000000000000000000000000006001600160a01b03168152602090f35b833461015a578060031936011261015a57610654610d88565b61065c6109d0565b61066533610a51565b6103533361099c565b8382346101865760203660031901126101865760209061069461068f610827565b6108a5565b9051908152f35b9150346102b35760203660031901126102b3578135916106b9610d88565b6106c4831515610965565b3384526006602052818420908382541061076b57506106e16109d0565b6106ea33610a51565b6106f583825461088b565b90556107038260035461088b565b60035561070f3361099c565b61073a82337f0000000000000000000000000000000000000000000000000000000000000000610c7b565b519081527f0f5bb82176feb1b5e747e28471aa92156a04d9f3ab9f45f28e2d704232b93f7560203392a26001815580f35b606490602084519162461bcd60e51b83528201526013602482015272125b9cdd59999a58da595b9d081cdd185ad959606a1b6044820152fd5b83823461018657816003193601126101865760209051670de0b6b3a76400008152f35b838234610186578160031936011261018657517f00000000000000000000000000000000000000000000000000000000000000006001600160a01b03168152602090f35b8490346101865781600319360112610186576020906005548152f35b600435906001600160a01b038216820361083d57565b600080fd5b8181029291811591840414171561085557565b634e487b7160e01b600052601160045260246000fd5b8115610875570490565b634e487b7160e01b600052601260045260246000fd5b9190820391821161085557565b9190820180921161085557565b60018060a01b031660005260066020526040600020604051906080820182811067ffffffffffffffff82111761094f57604052805480835260606003600184015493602086019485526002810154604087015201549301928084528115610948575061091d670de0b6b3a76400009160045490610842565b04905190818111156109425761093f92916109379161088b565b905190610898565b90565b50505190565b9250505090565b634e487b7160e01b600052604160045260246000fd5b1561096c57565b60405162461bcd60e51b81526020600482015260086024820152670416d6f756e743d360c41b6044820152606490fd5b60018060a01b0316600052600660205260406000206001670de0b6b3a76400006109ca835460045490610842565b04910155565b6005548015610a4e57600354908115610a4a576001600555670de0b6b3a7640000810290670de0b6b3a763ffff198183040161085557610a3e610a367f34b1262287c2303598540e71a7917542bce9ea0cf0ddd0e7c02ffb8a52e77c999460209461086b565b600454610898565b600455604051908152a1565b5050565b50565b9060018060a01b03918281166000938185526020906006825260408620908691805480610c06575b50610a8960038201938454610898565b928315610bf5576024857f000000000000000000000000000000000000000000000000000000000000000094604051928380926370a0823160e01b825230600483015288165afa908115610bea578a91610b8d575b5060018101808211610b7957989950610b1d9888969594939291908510610b6e57610b0a90809561088b565b905582610b1f575b50505050505061099c565b565b7fd8138f8a3f377c5259ca548e70e4c2de94f129f5a11036a15b69513cba2b426a94610b5c926002859301610b55848254610898565b9055610c7b565b604051908152a2388181808080610b12565b50610b0a848061088b565b634e487b7160e01b8b52601160045260248bfd5b9050853d8711610be3575b601f8101601f1916820167ffffffffffffffff811183821017610bcf578791839160405281010312610bcb575138610ade565b8980fd5b634e487b7160e01b8c52604160045260248cfd5b503d610b98565b6040513d8c823e3d90fd5b505050505050610b1d91925061099c565b610c1c670de0b6b3a76400009160045490610842565b0460018201549060018201808311610b7957811015610c3c575b50610a79565b610c4792945061088b565b913880610c36565b6001546001600160a01b03163303610c6357565b60405163118cdaa760e01b8152336004820152602490fd5b60405163a9059cbb60e01b60208201526001600160a01b039092166024830152604480830193909352918152608081019167ffffffffffffffff83118284101761094f57610b1d92604052610d20565b6040516323b872dd60e01b60208201526001600160a01b03928316602482015292909116604483015260648083019390935291815260a081019181831067ffffffffffffffff84111761094f57610b1d926040525b906000602091828151910182855af115610d7c576000513d610d7357506001600160a01b0381163b155b610d515750565b604051635274afe760e01b81526001600160a01b039091166004820152602490fd5b60011415610d4a565b6040513d6000823e3d90fd5b600260005414610d99576002600055565b604051633ee5aeb560e01b8152600490fdfea2646970667358221220e3a2660ddc3e9bc35a773ef0f6d677ef3c129b078fb01833670f1bd736ca1f4164736f6c63430008140033","linkReferences":{}},"methodIdentifiers":{"ACC()":"0ed52473","accRewardPerShareE18()":"6277fc0d","acceptOwnership()":"79ba5097","claimRewards()":"372500ab","fundRewards(uint256)":"93707a19","fundedButUndistributed()":"076c5fa9","nxl()":"09085698","owner()":"8da5cb5b","pendingOwner()":"e30c3978","pendingRewards(address)":"31d7a262","renounceOwnership()":"715018a6","rescueTokens(address,uint256)":"57376198","stake(uint256)":"a694fc3a","totalStaked()":"817b1cd2","transferOwnership(address)":"f2fde38b","unstake(uint256)":"2e17de78","users(address)":"a87430ba","wbtc()":"3cdc5389"},"storageLayout":{"storage":[{"astId":55225,"contract":"contracts/NexaloStaking.sol:NexaloStaking","label":"_status","offset":0,"slot":"0","type":"t_uint256"},{"astId":53597,"contract":"contracts/NexaloStaking.sol:NexaloStaking","label":"_owner","offset":0,"slot":"1","type":"t_address"},{"astId":53745,"contract":"contracts/NexaloStaking.sol:NexaloStaking","label":"_pendingOwner","offset":0,"slot":"2","type":"t_address"},{"astId":2145,"contract":"contracts/NexaloStaking.sol:NexaloStaking","label":"totalStaked","offset":0,"slot":"3","type":"t_uint256"},{"astId":2147,"contract":"contracts/NexaloStaking.sol:NexaloStaking","label":"accRewardPerShareE18","offset":0,"slot":"4","type":"t_uint256"},{"astId":2152,"contract":"contracts/NexaloStaking.sol:NexaloStaking","label":"fundedButUndistributed","offset":0,"slot":"5","type":"t_uint256"},{"astId":2166,"contract":"contracts/NexaloStaking.sol:NexaloStaking","label":"users","offset":0,"slot":"6","type":"t_mapping(t_address,t_struct(UserInfo)2161_storage)"}],"types":{"t_address":{"encoding":"inplace","label":"address","numberOfBytes":"20"},"t_mapping(t_address,t_struct(UserInfo)2161_storage)":{"encoding":"mapping","key":"t_address","label":"mapping(address => struct NexaloStaking.UserInfo)","numberOfBytes":"32","value":"t_struct(UserInfo)2161_storage"},"t_struct(UserInfo)2161_storage":{"encoding":"inplace","label":"struct NexaloStaking.UserInfo","numberOfBytes":"128","members":[{"astId":2154,"contract":"contracts/NexaloStaking.sol:NexaloStaking","label":"amount","offset":0,"slot":"0","type":"t_uint256"},{"astId":2156,"contract":"contracts/NexaloStaking.sol:NexaloStaking","label":"rewardDebt","offset":0,"slot":"1","type":"t_uint256"},{"astId":2158,"contract":"contracts/NexaloStaking.sol:NexaloStaking","label":"totalClaimed","offset":0,"slot":"2","type":"t_uint256"},{"astId":2160,"contract":"contracts/NexaloStaking.sol:NexaloStaking","label":"unpaidRewards","offset":0,"slot":"3","type":"t_uint256"}]},"t_uint256":{"encoding":"inplace","label":"uint256","numberOfBytes":"32"}}},"id":6}