{"abi":[{"type":"function","name":"fulfill","inputs":[{"name":"consumer","type":"address","internalType":"address"},{"name":"requestId","type":"uint256","internalType":"uint256"},{"name":"randomWord","type":"uint256","internalType":"uint256"}],"outputs":[],"stateMutability":"nonpayable"},{"type":"function","name":"nextRequestId","inputs":[],"outputs":[{"name":"","type":"uint256","internalType":"uint256"}],"stateMutability":"view"},{"type":"function","name":"requestRandomWords","inputs":[{"name":"","type":"bytes32","internalType":"bytes32"},{"name":"","type":"uint64","internalType":"uint64"},{"name":"","type":"uint16","internalType":"uint16"},{"name":"","type":"uint32","internalType":"uint32"},{"name":"","type":"uint32","internalType":"uint32"}],"outputs":[{"name":"requestId","type":"uint256","internalType":"uint256"}],"stateMutability":"nonpayable"}],"bytecode":{"object":"0x6080806040523461001b57600160005561024e90816100218239f35b600080fdfe608060408181526004908136101561001657600080fd5b600092833560e01c9081635d3b1d3014610199575080636a84a9851461017857637f8ce9b91461004557600080fd5b346101745760603660031901126101745781356001600160a01b03811692908390036101705781519267ffffffffffffffff908484018281118682101761015d578452600194858152602095868201918736843780511561014a576044358352833b156101465791889391978751988994631fe543e360e01b865260448601906024358a8801528a602488015251809152606486019392875b82811061012d5750505050508383809203925af1801561012357610100578480f35b8311610110575052388080808480f35b634e487b7160e01b845260419052602483fd5b83513d87823e3d90fd5b845186528d98508c9750948101949381019383016100de565b8880fd5b634e487b7160e01b895260328652602489fd5b634e487b7160e01b875260418452602487fd5b8380fd5b8280fd5b838234610195578160031936011261019557602091549051908152f35b5080fd5b839085346102155760a03660031901126102155760243567ffffffffffffffff8116036102155760443561ffff8116036102155763ffffffff60643581811603610195576084359081160361021557805490600019821461020257602093506001820190558152f35b634e487b7160e01b815260118452602490fd5b80fdfea26469706673582212202ddbeefee877559ee100fe3b30b5b88828bd7a5c099a13a41e10c628ff3445f264736f6c63430008140033","linkReferences":{}},"methodIdentifiers":{"fulfill(address,uint256,uint256)":"7f8ce9b9","nextRequestId()":"6a84a985","requestRandomWords(bytes32,uint64,uint16,uint32,uint32)":"5d3b1d30"},"id":9}