{"abi":[{"type":"function","name":"availableRewards","inputs":[],"outputs":[{"name":"","type":"uint256","internalType":"uint256"}],"stateMutability":"view"},{"type":"function","name":"burnUndistributed","inputs":[{"name":"amount","type":"uint256","internalType":"uint256"}],"outputs":[],"stateMutability":"nonpayable"},{"type":"function","name":"distributeReward","inputs":[{"name":"recipient","type":"address","internalType":"address"},{"name":"amount","type":"uint256","internalType":"uint256"}],"outputs":[],"stateMutability":"nonpayable"},{"type":"function","name":"distributed","inputs":[{"name":"","type":"address","internalType":"address"}],"outputs":[{"name":"","type":"uint256","internalType":"uint256"}],"stateMutability":"view"},{"type":"function","name":"getAvailableRewards","inputs":[],"outputs":[{"name":"","type":"uint256","internalType":"uint256"}],"stateMutability":"view"},{"type":"function","name":"setTreasuryBTC","inputs":[{"name":"treasury","type":"address","internalType":"address"}],"outputs":[],"stateMutability":"nonpayable"},{"type":"function","name":"treasuryBTC","inputs":[],"outputs":[{"name":"","type":"address","internalType":"address"}],"stateMutability":"view"}],"bytecode":{"object":"0x60808060405234610021576001600160fe1b036000556102b990816100278239f35b600080fdfe60806040818152600436101561001457600080fd5b600091823560e01c9081631ec8bb8c146101a757508063578bcf351461017057806357d020cf1461011357806376bb672c146100d2578063879d9090146100b6578063eb348f831461008e5763fc9c99ac1461006f57600080fd5b3461008a578160031936011261008a57602091549051908152f35b5080fd5b503461008a578160031936011261008a5760025490516001600160a01b039091168152602090f35b503461008a578160031936011261008a57602091549051908152f35b8234610110576020366003190112610110576001600160a01b036100f4610245565b166bffffffffffffffffffffffff60a01b600254161760025580f35b80fd5b509034610110576020366003190112610110576004358154818110610141579061013c91610260565b815580f35b835162461bcd60e51b81526020600482015260086024820152670e8dede40daeac6d60c31b6044820152606490fd5b503461008a57602036600319011261008a5760209181906001600160a01b03610197610245565b1681526001845220549051908152f35b919050346102415780600319360112610241576101c2610245565b8354602435938482106102125750836101da91610260565b84556001600160a01b031683526001602052822080549182019182106101fe575580f35b634e487b7160e01b83526011600452602483fd5b62461bcd60e51b815260206004820152600a6024820152696e6f207265776172647360b01b6044820152606490fd5b8280fd5b600435906001600160a01b038216820361025b57565b600080fd5b9190820391821161026d57565b634e487b7160e01b600052601160045260246000fdfea2646970667358221220511ea16d7a04eb879234d3b9aaf8ddf0bd6c480e68a568ce6dd507daa08a995564736f6c63430008140033","linkReferences":{}},"methodIdentifiers":{"availableRewards()":"879d9090","burnUndistributed(uint256)":"57d020cf","distributeReward(address,uint256)":"1ec8bb8c","distributed(address)":"578bcf35","getAvailableRewards()":"fc9c99ac","setTreasuryBTC(address)":"76bb672c","treasuryBTC()":"eb348f83"},"id":9}