{"abi":[{"type":"function","name":"distributeCommissions","inputs":[{"name":"","type":"address","internalType":"address"},{"name":"","type":"uint256","internalType":"uint256"}],"outputs":[],"stateMutability":"nonpayable"},{"type":"function","name":"getReferralChain","inputs":[{"name":"","type":"address","internalType":"address"}],"outputs":[{"name":"level1","type":"address","internalType":"address"},{"name":"level2","type":"address","internalType":"address"},{"name":"level3","type":"address","internalType":"address"}],"stateMutability":"pure"},{"type":"function","name":"hasReferrer","inputs":[{"name":"user","type":"address","internalType":"address"}],"outputs":[{"name":"","type":"bool","internalType":"bool"}],"stateMutability":"view"},{"type":"function","name":"referrerOf","inputs":[{"name":"","type":"address","internalType":"address"}],"outputs":[{"name":"","type":"address","internalType":"address"}],"stateMutability":"view"},{"type":"function","name":"setReferrer","inputs":[{"name":"user","type":"address","internalType":"address"},{"name":"referrer","type":"address","internalType":"address"}],"outputs":[],"stateMutability":"nonpayable"}],"bytecode":{"object":"0x60808060405234610016576101c9908161001c8239f35b600080fdfe60806040818152600436101561001457600080fd5b600091823560e01c90816318452cd81461013b575080636667864d1461010c57806375003aa1146100ed578063bbddaca3146100955763d21cacdf1461005957600080fd5b34610091576020366003190112610091576020916001600160a01b0390829082610081610178565b1681528085522054169051908152f35b5080fd5b50346100915780600319360112610091576100ae610178565b6001600160a01b036024358181169392908490036100e957168352826020528220906bffffffffffffffffffffffff60a01b82541617905580f35b8480fd5b50346100915736600319011261010957610105610178565b5080f35b80fd5b503461009157602036600319011261009157606091610129610178565b50815191818352816020840152820152f35b91905034610174576020366003190112610174576020926001600160a01b03919082610165610178565b16815280855220541615158152f35b8280fd5b600435906001600160a01b038216820361018e57565b600080fdfea2646970667358221220110481de3bf81cb8bd8f57633b79c45b9559d4210121e3610d225e610747640264736f6c63430008140033","linkReferences":{}},"methodIdentifiers":{"distributeCommissions(address,uint256)":"75003aa1","getReferralChain(address)":"6667864d","hasReferrer(address)":"18452cd8","referrerOf(address)":"d21cacdf","setReferrer(address,address)":"bbddaca3"},"id":9}