{"abi":[{"type":"function","name":"onFundsReceived","inputs":[{"name":"amount","type":"uint256","internalType":"uint256"}],"outputs":[],"stateMutability":"nonpayable"},{"type":"function","name":"received","inputs":[],"outputs":[{"name":"","type":"uint256","internalType":"uint256"}],"stateMutability":"view"}],"bytecode":{"object":"0x6080806040523460145760b9908161001a8239f35b600080fdfe60806040526004361015601157600080fd5b6000803560e01c8063298ef8ca14604d576383a6deb514603057600080fd5b34604a5780600319360112604a5760209054604051908152f35b80fd5b5034604a576020366003190112604a5780546004358101809111606f57815580f35b634e487b7160e01b82526011600452602482fdfea264697066735822122038a344dbb9a753eb9eb5fa1e97e08d789e5fa7f93a453fdc1693a27f09a350a264736f6c63430008140033","linkReferences":{}},"methodIdentifiers":{"onFundsReceived(uint256)":"298ef8ca","received()":"83a6deb5"},"id":9}