{"abi":[{"type":"constructor","inputs":[{"name":"_stablecoin","type":"address","internalType":"address"},{"name":"_treasuryBTC","type":"address","internalType":"address"}],"stateMutability":"nonpayable"},{"type":"function","name":"TREASURY_TIMELOCK","inputs":[],"outputs":[{"name":"","type":"uint256","internalType":"uint256"}],"stateMutability":"view"},{"type":"function","name":"acceptOwnership","inputs":[],"outputs":[],"stateMutability":"nonpayable"},{"type":"function","name":"donate","inputs":[{"name":"amount","type":"uint256","internalType":"uint256"},{"name":"message","type":"string","internalType":"string"}],"outputs":[],"stateMutability":"nonpayable"},{"type":"function","name":"donations","inputs":[{"name":"","type":"uint256","internalType":"uint256"}],"outputs":[{"name":"donor","type":"address","internalType":"address"},{"name":"amount","type":"uint256","internalType":"uint256"},{"name":"timestamp","type":"uint256","internalType":"uint256"},{"name":"message","type":"string","internalType":"string"}],"stateMutability":"view"},{"type":"function","name":"donorDonations","inputs":[{"name":"","type":"address","internalType":"address"},{"name":"","type":"uint256","internalType":"uint256"}],"outputs":[{"name":"","type":"uint256","internalType":"uint256"}],"stateMutability":"view"},{"type":"function","name":"executeTreasuryUpdate","inputs":[],"outputs":[],"stateMutability":"nonpayable"},{"type":"function","name":"owner","inputs":[],"outputs":[{"name":"","type":"address","internalType":"address"}],"stateMutability":"view"},{"type":"function","name":"pendingOwner","inputs":[],"outputs":[{"name":"","type":"address","internalType":"address"}],"stateMutability":"view"},{"type":"function","name":"pendingTreasury","inputs":[],"outputs":[{"name":"","type":"address","internalType":"address"}],"stateMutability":"view"},{"type":"function","name":"pendingTreasuryAvailableAt","inputs":[],"outputs":[{"name":"","type":"uint256","internalType":"uint256"}],"stateMutability":"view"},{"type":"function","name":"proposeTreasuryUpdate","inputs":[{"name":"newTreasury","type":"address","internalType":"address"}],"outputs":[],"stateMutability":"nonpayable"},{"type":"function","name":"renounceOwnership","inputs":[],"outputs":[],"stateMutability":"nonpayable"},{"type":"function","name":"stablecoin","inputs":[],"outputs":[{"name":"","type":"address","internalType":"contract IERC20"}],"stateMutability":"view"},{"type":"function","name":"totalDonated","inputs":[{"name":"","type":"address","internalType":"address"}],"outputs":[{"name":"","type":"uint256","internalType":"uint256"}],"stateMutability":"view"},{"type":"function","name":"totalDonors","inputs":[],"outputs":[{"name":"","type":"uint256","internalType":"uint256"}],"stateMutability":"view"},{"type":"function","name":"totalReceived","inputs":[],"outputs":[{"name":"","type":"uint256","internalType":"uint256"}],"stateMutability":"view"},{"type":"function","name":"transferOwnership","inputs":[{"name":"newOwner","type":"address","internalType":"address"}],"outputs":[],"stateMutability":"nonpayable"},{"type":"function","name":"treasuryBTC","inputs":[],"outputs":[{"name":"","type":"address","internalType":"address"}],"stateMutability":"view"},{"type":"event","name":"DonationReceived","inputs":[{"name":"donor","type":"address","indexed":true,"internalType":"address"},{"name":"amount","type":"uint256","indexed":false,"internalType":"uint256"},{"name":"donationId","type":"uint256","indexed":false,"internalType":"uint256"},{"name":"message","type":"string","indexed":false,"internalType":"string"}],"anonymous":false},{"type":"event","name":"DonationsForwarded","inputs":[{"name":"treasury","type":"address","indexed":true,"internalType":"address"},{"name":"amount","type":"uint256","indexed":false,"internalType":"uint256"}],"anonymous":false},{"type":"event","name":"OwnershipTransferStarted","inputs":[{"name":"previousOwner","type":"address","indexed":true,"internalType":"address"},{"name":"newOwner","type":"address","indexed":true,"internalType":"address"}],"anonymous":false},{"type":"event","name":"OwnershipTransferred","inputs":[{"name":"previousOwner","type":"address","indexed":true,"internalType":"address"},{"name":"newOwner","type":"address","indexed":true,"internalType":"address"}],"anonymous":false},{"type":"event","name":"TreasuryUpdateProposed","inputs":[{"name":"newTreasury","type":"address","indexed":true,"internalType":"address"}],"anonymous":false},{"type":"event","name":"TreasuryUpdated","inputs":[{"name":"newTreasury","type":"address","indexed":true,"internalType":"address"}],"anonymous":false},{"type":"error","name":"OwnableInvalidOwner","inputs":[{"name":"owner","type":"address","internalType":"address"}]},{"type":"error","name":"OwnableUnauthorizedAccount","inputs":[{"name":"account","type":"address","internalType":"address"}]},{"type":"error","name":"ReentrancyGuardReentrantCall","inputs":[]},{"type":"error","name":"SafeERC20FailedOperation","inputs":[{"name":"token","type":"address","internalType":"address"}]}],"bytecode":{"object":"0x60a03461017a57610fbd90601f38839003908101601f19168201906001600160401b0382118383101761017f578083916040958694855283398101031261017a57610055602061004e83610195565b9201610195565b9033156101625760018060a01b031990816001541660015560005492338385161760005584519360018060a01b03928391823391167f8be0079c531659141344cd1fd0a4f28419497f9722a3daafe3b4186f6b6457e0600080a360016002551693841561012b5750169182156100f457608052600354161760035551610e1390816101aa82396080518181816102dc0152818161054701526107d50152f35b835162461bcd60e51b815260206004820152601060248201526f496e76616c696420747265617375727960801b6044820152606490fd5b62461bcd60e51b815260206004820152601260248201527124b73b30b634b21039ba30b13632b1b7b4b760711b6044820152606490fd5b8251631e4fbdf760e01b815260006004820152602490fd5b600080fd5b634e487b7160e01b600052604160045260246000fd5b51906001600160a01b038216820361017a5756fe608080604052600436101561001357600080fd5b60003560e01c9081630f3a1d4714610c4457508063214529ad14610c26578063225cf6e414610b7357806325c302e414610b555780632ed6b75d14610b2c5780634395e1bf14610ad4578063715018a614610a6f57806379ba5097146109eb5780638d59d1f11461048b5780638da5cb5b14610462578063a3c2c46214610444578063c7e2ecd614610426578063d236b9c614610334578063e30c39781461030b578063e9cbd822146102c6578063eb348f831461029d578063f2fde38b146102325763f8626af8146100e557600080fd5b3461022d5760208060031936011261022d5760043560045481101561022d5761010d90610cbe565b5060018060a01b038154169160019182810154600360028301549201604051809560009083549361013d85610cf8565b9485855288838216918260001461020b5750506001146101cc575b505061016b925096949392960385610d32565b6040519485938452828401526040830152608060608301528251908160808401526000935b8285106101b357505060a092506000838284010152601f80199101168101030190f35b84810182015186860160a0015293810193859350610190565b87925060005281600020906000915b8583106101f357505061016b93508201013880610158565b8054838b0185015289945088939092019181016101db565b925093505061016b94915060ff191682840152151560051b8201013880610158565b600080fd5b3461022d57602036600319011261022d5761024b610c7a565b610253610d61565b60018060a01b0380911690816001600160601b0360a01b6001541617600155600054167f38d16b8cac22d99fc7c124b9cd0de2d3fa1faef420bfe791d8c362d765e22700600080a3005b3461022d57600036600319011261022d576003546040516001600160a01b039091168152602090f35b3461022d57600036600319011261022d576040517f00000000000000000000000000000000000000000000000000000000000000006001600160a01b03168152602090f35b3461022d57600036600319011261022d576001546040516001600160a01b039091168152602090f35b3461022d57600036600319011261022d5761034d610d61565b6009546001600160a01b0381169081156103ed57600a5442106103b15781906001600160601b0360a01b8091166009556001600a5560035416176003557f7dae230f18360d76a040c81f050aa14eb9d6dc7901b20fc5d855e2a20fe814d1600080a2005b60405162461bcd60e51b8152602060048201526014602482015273151a5b595b1bd8dac81b9bdd08195b185c1cd95960621b6044820152606490fd5b60405162461bcd60e51b81526020600482015260116024820152704e6f2070656e64696e672075706461746560781b6044820152606490fd5b3461022d57600036600319011261022d576020600a54604051908152f35b3461022d57600036600319011261022d576020600754604051908152f35b3461022d57600036600319011261022d576000546040516001600160a01b039091168152602090f35b3461022d57604036600319011261022d5760243567ffffffffffffffff811161022d573660238201121561022d5767ffffffffffffffff81600401351161022d5736602482600401358301011161022d5760028054146109d95760028055600435156109a957610118816004013511610971576040516323b872dd60e01b602082015233602482015230604482015260043560648201526064815260a081019080821067ffffffffffffffff8311176108375761056b916040527f0000000000000000000000000000000000000000000000000000000000000000610d75565b6004546040516080810181811067ffffffffffffffff8211176108375760405233815260043560208201524260408201526040516105b76020601f19601f876004013501160182610d32565b6004840135808252602485016020830137600060208560040135830101526060820152600160401b82101561083757600182016004556105f682610cbe565b91909161095b57805182546001600160a01b0319166001600160a01b039190911617825560208101516001830155604081015160028301556060015180519067ffffffffffffffff8211610837576106516003840154610cf8565b601f8111610914575b50602090601f83116001146108a557600392916000918361089a575b50508160011b9160001990841b1c1916179101555b33600052600660205260406000208054600160401b811015610837576106b691600182018155610c90565b919080549260031b600019938484831b921b19161790553360005260056020526040600020541561084d575b7ff041a5bfea1be2e3f78bbadfadc66bb6f6d62860e629a44d71bec1ef49411c9e915033600052600560205260406000206107206004358254610d54565b9055610730600435600754610d54565b600755604051906004358252602082015260606040820152826004013560608201528260040135602484016080830137600060808460040135830101526080813394601f8019916004013501168101030190a260035460405163a9059cbb60e01b60208201526001600160a01b0390911660248201526004356044808301919091528152608081019080821067ffffffffffffffff831117610837576107f9916040527f0000000000000000000000000000000000000000000000000000000000000000610d75565b60018060a01b03600354167f14c9f9f91afb3fe6c277d43ca2970a36f719db489f69409f3e8236a146cd235660206040516004358152a26001600255005b634e487b7160e01b600052604160045260246000fd5b6008549182146108845760017ff041a5bfea1be2e3f78bbadfadc66bb6f6d62860e629a44d71bec1ef49411c9e92016008556106e2565b634e487b7160e01b600052601160045260246000fd5b015190508680610676565b906003840160005260206000209160005b601f19851681106108fc5750918391600193600395601f198116106108e4575b505050811b0191015561068b565b015160001983861b60f8161c191690558680806108d6565b919260206001819286850151815501940192016108b6565b600384016000526020600020601f840160051c810160208510610954575b601f830160051c8201811061094857505061065a565b60008155600101610932565b5080610932565b634e487b7160e01b600052600060045260246000fd5b60405162461bcd60e51b815260206004820152601060248201526f4d65737361676520746f6f206c6f6e6760801b6044820152606490fd5b60405162461bcd60e51b81526020600482015260086024820152670416d6f756e743e360c41b6044820152606490fd5b604051633ee5aeb560e01b8152600490fd5b3461022d57600036600319011261022d576001546001600160a01b033381831603610a57576001600160601b0360a01b8092166001556000549133908316176000553391167f8be0079c531659141344cd1fd0a4f28419497f9722a3daafe3b4186f6b6457e0600080a3005b60405163118cdaa760e01b8152336004820152602490fd5b3461022d57600036600319011261022d57610a88610d61565b600180546001600160a01b0319908116909155600080549182168155906001600160a01b03167f8be0079c531659141344cd1fd0a4f28419497f9722a3daafe3b4186f6b6457e08280a3005b3461022d57604036600319011261022d57610aed610c7a565b6001600160a01b031660009081526006602052604090208054602435919082101561022d57602091610b1e91610c90565b90546040519160031b1c8152f35b3461022d57600036600319011261022d576009546040516001600160a01b039091168152602090f35b3461022d57600036600319011261022d576020600854604051908152f35b3461022d57602036600319011261022d57610b8c610c7a565b610b94610d61565b6001600160a01b03168015610bee57806001600160601b0360a01b60095416176009556202a300420180421161088457600a557f80611615023e6779ecbc865359a56744d55da941f78c0ce3f80510f68abd71f3600080a2005b60405162461bcd60e51b815260206004820152601060248201526f496e76616c696420747265617375727960801b6044820152606490fd5b3461022d57600036600319011261022d5760206040516202a3008152f35b3461022d57602036600319011261022d576020906001600160a01b03610c68610c7a565b16600052600582526040600020548152f35b600435906001600160a01b038216820361022d57565b8054821015610ca85760005260206000200190600090565b634e487b7160e01b600052603260045260246000fd5b600454811015610ca857600460005260021b7f8a35acfbc15ff81a39ae7d344fd709f28e8600b4aa8c65c6b64bfe7fe36bd19b0190600090565b90600182811c92168015610d28575b6020831014610d1257565b634e487b7160e01b600052602260045260246000fd5b91607f1691610d07565b90601f8019910116810190811067ffffffffffffffff82111761083757604052565b9190820180921161088457565b6000546001600160a01b03163303610a5757565b906000602091828151910182855af115610dd1576000513d610dc857506001600160a01b0381163b155b610da65750565b604051635274afe760e01b81526001600160a01b039091166004820152602490fd5b60011415610d9f565b6040513d6000823e3d90fdfea2646970667358221220b2238ec48ad59233633b067ec63de632bb6b4ab28e05cdc837f05fb35573fb2664736f6c63430008140033","linkReferences":{}},"methodIdentifiers":{"TREASURY_TIMELOCK()":"214529ad","acceptOwnership()":"79ba5097","donate(uint256,string)":"8d59d1f1","donations(uint256)":"f8626af8","donorDonations(address,uint256)":"4395e1bf","executeTreasuryUpdate()":"d236b9c6","owner()":"8da5cb5b","pendingOwner()":"e30c3978","pendingTreasury()":"2ed6b75d","pendingTreasuryAvailableAt()":"c7e2ecd6","proposeTreasuryUpdate(address)":"225cf6e4","renounceOwnership()":"715018a6","stablecoin()":"e9cbd822","totalDonated(address)":"0f3a1d47","totalDonors()":"25c302e4","totalReceived()":"a3c2c462","transferOwnership(address)":"f2fde38b","treasuryBTC()":"eb348f83"},"storageLayout":{"storage":[{"astId":53597,"contract":"contracts/DonationVault.sol:DonationVault","label":"_owner","offset":0,"slot":"0","type":"t_address"},{"astId":53745,"contract":"contracts/DonationVault.sol:DonationVault","label":"_pendingOwner","offset":0,"slot":"1","type":"t_address"},{"astId":55225,"contract":"contracts/DonationVault.sol:DonationVault","label":"_status","offset":0,"slot":"2","type":"t_uint256"},{"astId":1026,"contract":"contracts/DonationVault.sol:DonationVault","label":"treasuryBTC","offset":0,"slot":"3","type":"t_address"},{"astId":1039,"contract":"contracts/DonationVault.sol:DonationVault","label":"donations","offset":0,"slot":"4","type":"t_array(t_struct(Donation)1035_storage)dyn_storage"},{"astId":1043,"contract":"contracts/DonationVault.sol:DonationVault","label":"totalDonated","offset":0,"slot":"5","type":"t_mapping(t_address,t_uint256)"},{"astId":1048,"contract":"contracts/DonationVault.sol:DonationVault","label":"donorDonations","offset":0,"slot":"6","type":"t_mapping(t_address,t_array(t_uint256)dyn_storage)"},{"astId":1050,"contract":"contracts/DonationVault.sol:DonationVault","label":"totalReceived","offset":0,"slot":"7","type":"t_uint256"},{"astId":1052,"contract":"contracts/DonationVault.sol:DonationVault","label":"totalDonors","offset":0,"slot":"8","type":"t_uint256"},{"astId":1220,"contract":"contracts/DonationVault.sol:DonationVault","label":"pendingTreasury","offset":0,"slot":"9","type":"t_address"},{"astId":1222,"contract":"contracts/DonationVault.sol:DonationVault","label":"pendingTreasuryAvailableAt","offset":0,"slot":"10","type":"t_uint256"}],"types":{"t_address":{"encoding":"inplace","label":"address","numberOfBytes":"20"},"t_array(t_struct(Donation)1035_storage)dyn_storage":{"encoding":"dynamic_array","label":"struct DonationVault.Donation[]","numberOfBytes":"32","base":"t_struct(Donation)1035_storage"},"t_array(t_uint256)dyn_storage":{"encoding":"dynamic_array","label":"uint256[]","numberOfBytes":"32","base":"t_uint256"},"t_mapping(t_address,t_array(t_uint256)dyn_storage)":{"encoding":"mapping","key":"t_address","label":"mapping(address => uint256[])","numberOfBytes":"32","value":"t_array(t_uint256)dyn_storage"},"t_mapping(t_address,t_uint256)":{"encoding":"mapping","key":"t_address","label":"mapping(address => uint256)","numberOfBytes":"32","value":"t_uint256"},"t_string_storage":{"encoding":"bytes","label":"string","numberOfBytes":"32"},"t_struct(Donation)1035_storage":{"encoding":"inplace","label":"struct DonationVault.Donation","numberOfBytes":"128","members":[{"astId":1028,"contract":"contracts/DonationVault.sol:DonationVault","label":"donor","offset":0,"slot":"0","type":"t_address"},{"astId":1030,"contract":"contracts/DonationVault.sol:DonationVault","label":"amount","offset":0,"slot":"1","type":"t_uint256"},{"astId":1032,"contract":"contracts/DonationVault.sol:DonationVault","label":"timestamp","offset":0,"slot":"2","type":"t_uint256"},{"astId":1034,"contract":"contracts/DonationVault.sol:DonationVault","label":"message","offset":0,"slot":"3","type":"t_string_storage"}]},"t_uint256":{"encoding":"inplace","label":"uint256","numberOfBytes":"32"}}},"id":3}