{"abi":[{"type":"constructor","inputs":[{"name":"_stablecoin","type":"address","internalType":"address"}],"stateMutability":"nonpayable"},{"type":"function","name":"accRewardPerActiveE18","inputs":[],"outputs":[{"name":"","type":"uint256","internalType":"uint256"}],"stateMutability":"view"},{"type":"function","name":"acceptOwnership","inputs":[],"outputs":[],"stateMutability":"nonpayable"},{"type":"function","name":"activeCount","inputs":[],"outputs":[{"name":"","type":"uint256","internalType":"uint256"}],"stateMutability":"view"},{"type":"function","name":"ambassadors","inputs":[{"name":"","type":"address","internalType":"address"}],"outputs":[{"name":"active","type":"bool","internalType":"bool"},{"name":"totalClaimed","type":"uint256","internalType":"uint256"},{"name":"rewardDebtE18","type":"uint256","internalType":"uint256"},{"name":"storedRewards","type":"uint256","internalType":"uint256"},{"name":"name","type":"string","internalType":"string"}],"stateMutability":"view"},{"type":"function","name":"approveForRegistration","inputs":[{"name":"candidate","type":"address","internalType":"address"}],"outputs":[],"stateMutability":"nonpayable"},{"type":"function","name":"approvedForRegistration","inputs":[{"name":"","type":"address","internalType":"address"}],"outputs":[{"name":"","type":"bool","internalType":"bool"}],"stateMutability":"view"},{"type":"function","name":"claim","inputs":[],"outputs":[],"stateMutability":"nonpayable"},{"type":"function","name":"distributeFunds","inputs":[],"outputs":[],"stateMutability":"nonpayable"},{"type":"function","name":"lastBalance","inputs":[],"outputs":[{"name":"","type":"uint256","internalType":"uint256"}],"stateMutability":"view"},{"type":"function","name":"owner","inputs":[],"outputs":[{"name":"","type":"address","internalType":"address"}],"stateMutability":"view"},{"type":"function","name":"pendingOwner","inputs":[],"outputs":[{"name":"","type":"address","internalType":"address"}],"stateMutability":"view"},{"type":"function","name":"pendingRewards","inputs":[{"name":"ambassador","type":"address","internalType":"address"}],"outputs":[{"name":"","type":"uint256","internalType":"uint256"}],"stateMutability":"view"},{"type":"function","name":"renounceOwnership","inputs":[],"outputs":[],"stateMutability":"nonpayable"},{"type":"function","name":"revokeApproval","inputs":[{"name":"candidate","type":"address","internalType":"address"}],"outputs":[],"stateMutability":"nonpayable"},{"type":"function","name":"selfRegister","inputs":[{"name":"name","type":"string","internalType":"string"}],"outputs":[],"stateMutability":"nonpayable"},{"type":"function","name":"setAmbassadorStatus","inputs":[{"name":"ambassador","type":"address","internalType":"address"},{"name":"active","type":"bool","internalType":"bool"}],"outputs":[],"stateMutability":"nonpayable"},{"type":"function","name":"stablecoin","inputs":[],"outputs":[{"name":"","type":"address","internalType":"contract IERC20"}],"stateMutability":"view"},{"type":"function","name":"transferOwnership","inputs":[{"name":"newOwner","type":"address","internalType":"address"}],"outputs":[],"stateMutability":"nonpayable"},{"type":"event","name":"AmbassadorRegistered","inputs":[{"name":"ambassador","type":"address","indexed":true,"internalType":"address"},{"name":"name","type":"string","indexed":false,"internalType":"string"}],"anonymous":false},{"type":"event","name":"AmbassadorStatusChanged","inputs":[{"name":"ambassador","type":"address","indexed":true,"internalType":"address"},{"name":"active","type":"bool","indexed":false,"internalType":"bool"}],"anonymous":false},{"type":"event","name":"Claimed","inputs":[{"name":"ambassador","type":"address","indexed":true,"internalType":"address"},{"name":"amount","type":"uint256","indexed":false,"internalType":"uint256"}],"anonymous":false},{"type":"event","name":"FundsDistributed","inputs":[{"name":"newFunds","type":"uint256","indexed":false,"internalType":"uint256"},{"name":"activeCount","type":"uint256","indexed":false,"internalType":"uint256"},{"name":"accRewardPerActiveE18","type":"uint256","indexed":false,"internalType":"uint256"}],"anonymous":false},{"type":"event","name":"OwnershipTransferStarted","inputs":[{"name":"previousOwner","type":"address","indexed":true,"internalType":"address"},{"name":"newOwner","type":"address","indexed":true,"internalType":"address"}],"anonymous":false},{"type":"event","name":"OwnershipTransferred","inputs":[{"name":"previousOwner","type":"address","indexed":true,"internalType":"address"},{"name":"newOwner","type":"address","indexed":true,"internalType":"address"}],"anonymous":false},{"type":"error","name":"OwnableInvalidOwner","inputs":[{"name":"owner","type":"address","internalType":"address"}]},{"type":"error","name":"OwnableUnauthorizedAccount","inputs":[{"name":"account","type":"address","internalType":"address"}]},{"type":"error","name":"ReentrancyGuardReentrantCall","inputs":[]},{"type":"error","name":"SafeERC20FailedOperation","inputs":[{"name":"token","type":"address","internalType":"address"}]}],"bytecode":{"object":"0x60a060409080825234620001965780620012e580380380916200002382856200019b565b83396020928391810103126200019657516001600160a01b039081811690819003620001965733156200017e5760018060a01b0319918260015416600155600092835490339082161784558551913391167f8be0079c531659141344cd1fd0a4f28419497f9722a3daafe3b4186f6b6457e08580a3600160025581156200014757509082826024936080528551938480926370a0823160e01b82523060048301525afa9283156200013b57819362000101575b5050506006555161110f9081620001d682396080518181816101700152818161040501526106a30152f35b9091809350813d831162000133575b6200011c81836200019b565b8101031262000130575051388080620000d6565b80fd5b503d62000110565b508351903d90823e3d90fd5b62461bcd60e51b815260048101849052601260248201527124b73b30b634b21039ba30b13632b1b7b4b760711b6044820152606490fd5b8351631e4fbdf760e01b815260006004820152602490fd5b600080fd5b601f909101601f19168101906001600160401b03821190821017620001bf57604052565b634e487b7160e01b600052604160045260246000fdfe608080604052600436101561001357600080fd5b60003560e01c9081631365e5d11461097c5750806328357d4d1461093757806328ce48a01461087d57806331d7a262146108255780633a6a4d2e1461066d5780634331ed1f1461064f578063484685b01461060d5780634a7f75c4146105ce5780634e71d92d1461036b578063715018a61461030657806379ba50971461027d5780638da5cb5b146102545780638f1c56bd14610236578063af5bb24d146101e6578063c5800069146101c8578063e30c39781461019f578063e9cbd8221461015a5763f2fde38b146100e557600080fd5b34610155576020366003190112610155576100fe610d23565b6101066110a4565b60018060a01b0380911690816bffffffffffffffffffffffff60a01b6001541617600155600054167f38d16b8cac22d99fc7c124b9cd0de2d3fa1faef420bfe791d8c362d765e22700600080a3005b600080fd5b34610155576000366003190112610155576040517f00000000000000000000000000000000000000000000000000000000000000006001600160a01b03168152602090f35b34610155576000366003190112610155576001546040516001600160a01b039091168152602090f35b34610155576000366003190112610155576020600554604051908152f35b34610155576020366003190112610155576101ff610d23565b6102076110a4565b6001600160a01b031661021b811515610e57565b6000908152600760205260409020805460ff19166001179055005b34610155576000366003190112610155576020600654604051908152f35b34610155576000366003190112610155576000546040516001600160a01b039091168152602090f35b34610155576000366003190112610155576001546001600160a01b0333818316036102ee576bffffffffffffffffffffffff60a01b8092166001556000549133908316176000553391167f8be0079c531659141344cd1fd0a4f28419497f9722a3daafe3b4186f6b6457e0600080a3005b60405163118cdaa760e01b8152336004820152602490fd5b346101555760003660031901126101555761031f6110a4565b600180546001600160a01b0319908116909155600080549182168155906001600160a01b03167f8be0079c531659141344cd1fd0a4f28419497f9722a3daafe3b4186f6b6457e08280a3005b34610155576000366003190112610155576103846110b8565b336000526020600381526040600020906103ab6103a46004840154610d39565b1515610ea2565b6103bc6103b783610edf565b61105d565b916103cc60038201938454610e95565b92831561059657906000600192556005546002820155016103ee838254610e95565b90556040516370a0823160e01b81523060048201527f00000000000000000000000000000000000000000000000000000000000000006001600160a01b038116918381602481865afa90811561050b57600091610569575b5084811061052d578461045891610f27565b6006556040518381019163a9059cbb60e01b835233602483015285604483015260448252608082019282841067ffffffffffffffff8511176105175760008093879560405251925af11561050b576000513d6105025750803b155b6104ea57507fd8138f8a3f377c5259ca548e70e4c2de94f129f5a11036a15b69513cba2b426a906040519283523392a26001600255005b60249060405190635274afe760e01b82526004820152fd5b600114156104b3565b6040513d6000823e3d90fd5b634e487b7160e01b600052604160045260246000fd5b60405162461bcd60e51b8152600481018590526014602482015273496e73756666696369656e742062616c616e636560601b6044820152606490fd5b90508381813d831161058f575b6105808183610d8f565b81010312610155575185610446565b503d610576565b60405162461bcd60e51b815260048101849052601060248201526f4e6f7468696e6720746f20636c61696d60801b6044820152606490fd5b34610155576020366003190112610155576001600160a01b036105ef610d23565b166000526007602052602060ff604060002054166040519015158152f35b3461015557602036600319011261015557610626610d23565b61062e6110a4565b6001600160a01b03166000908152600760205260409020805460ff19169055005b34610155576000366003190112610155576020600454604051908152f35b34610155576000366003190112610155576106866110b8565b6040516370a0823160e01b815230600482015260209081816024817f00000000000000000000000000000000000000000000000000000000000000006001600160a01b03165afa90811561050b576000916107f8575b5060065490600182018083116107715781106107c457600454918215610787576107069082610f27565b90670de0b6b3a764000092838302938385041483151715610771577fdaf6233a382145376035341e71f8a04305f7e323d0fe3e58c908cf0a26b76df9946107538260609604600554610e95565b92836005556006556040519384528301526040820152a16001600255005b634e487b7160e01b600052601160045260246000fd5b60405162461bcd60e51b81526004810185905260156024820152744e6f2061637469766520616d6261737361646f727360581b6044820152606490fd5b60405162461bcd60e51b815260048101849052600c60248201526b4e6f206e65772066756e647360a01b6044820152606490fd5b90508181813d831161081e575b61080f8183610d8f565b810103126101555751826106dc565b503d610805565b34610155576020366003190112610155576001600160a01b03610846610d23565b16600052600360205260206108756108616040600020610edf565b61086f60608201519161105d565b90610e95565b604051908152f35b3461015557602080600319360112610155576001600160a01b0361089f610d23565b1660005260038152604060002060ff8154166001820154926002830154926108ce600460038301549201610db1565b9360405195869415158552838501526040840152606083015260a060808301528251908160a08401526000935b82851061091e57505060c092506000838284010152601f80199101168101030190f35b84810182015186860160c00152938101938593506108fb565b3461015557604036600319011261015557610950610d23565b602435801515810361015557610975916109686110b8565b6109706110a4565b610f34565b6001600255005b346101555760203660031901126101555767ffffffffffffffff60043511610155573660236004350112156101555767ffffffffffffffff600435600401351161015557366024600435600401356004350101116101555733600052600760205260ff6040600020541615610cf25760043560040135151580610ce1575b15610cad57336000526003602052610a19600460406000200154610d39565b610c735760055460405190610a2d82610d73565b6001825260006020830152604082015260006060820152600460405191610a626020601f19601f853586013501160184610d8f565b81358083013580855290602401602085013760006020833584013585010152608081019283523360005260036020526060604060002091610ab281511515849060ff801983541691151516179055565b60208101516001840155604081015160028401550151600382015501905190815167ffffffffffffffff811161051757610aec8254610d39565b601f8111610c2b575b50602092601f8211600114610bc75792819293600092610bbc575b50508160011b916000199060031b1c19161790555b336000526007602052604060002060ff1981541690556004546001810180911161077157600455604051602081526004356004013560208201526004356004013560246004350160408301376000604060043560040135830101527fdc50763ba3a9913608b4503be1144367f90c3784cdd0c8de36d2c2d6920f6b593391604081601f19601f6004356004013501168101030190a2005b015190508380610b10565b601f198216938360005260206000209160005b868110610c135750836001959610610bfa575b505050811b019055610b25565b015160001960f88460031b161c19169055838080610bed565b91926020600181928685015181550194019201610bda565b826000526020600020601f830160051c81019160208410610c69575b601f0160051c01905b818110610c5d5750610af5565b60008155600101610c50565b9091508190610c47565b60405162461bcd60e51b8152602060048201526012602482015271105b1c9958591e481c9959da5cdd195c995960721b6044820152606490fd5b60405162461bcd60e51b815260206004820152600c60248201526b496e76616c6964206e616d6560a01b6044820152606490fd5b5060406004356004013511156109fa565b62461bcd60e51b815260206004820152600c60248201526b139bdd08185c1c1c9bdd995960a21b6044820152606490fd5b600435906001600160a01b038216820361015557565b90600182811c92168015610d69575b6020831014610d5357565b634e487b7160e01b600052602260045260246000fd5b91607f1691610d48565b60a0810190811067ffffffffffffffff82111761051757604052565b90601f8019910116810190811067ffffffffffffffff82111761051757604052565b9060405191826000825492610dc584610d39565b908184526001948581169081600014610e345750600114610df1575b5050610def92500383610d8f565b565b9093915060005260209081600020936000915b818310610e1c575050610def93508201013880610de1565b85548884018501529485019487945091830191610e04565b915050610def94506020925060ff191682840152151560051b8201013880610de1565b15610e5e57565b60405162461bcd60e51b815260206004820152600f60248201526e496e76616c6964206164647265737360881b6044820152606490fd5b9190820180921161077157565b15610ea957565b60405162461bcd60e51b815260206004820152600e60248201526d139bdd081c9959da5cdd195c995960921b6044820152606490fd5b90604051610eec81610d73565b6080610f226004839560ff8154161515855260018101546020860152600281015460408601526003810154606086015201610db1565b910152565b9190820391821161077157565b6001600160a01b031690610f49821515610e57565b600082815260036020526040812091600490610f6a6103a483860154610d39565b60ff845416938115158095151514611055578181610f8d6103b7610fad94610edf565b8061103e575b5060055460028201559060ff801983541691151516179055565b156110035780549160018301809311610ff15750557fae6be1d637d3ddbb8b240fb2265ad4b15b8b1c4c3c394c2d2ae17b5c31cc0be1906020905b604051908152a2565b6011602492634e487b7160e01b835252fd5b8054600019810192908311610ff15750557fae6be1d637d3ddbb8b240fb2265ad4b15b8b1c4c3c394c2d2ae17b5c31cc0be190602090610fe8565b61104d60038301918254610e95565b905538610f93565b505050505050565b6080810151511561109e5780511561109e576040600554910151908181111561109757670de0b6b3a76400009161109391610f27565b0490565b5050600090565b50600090565b6000546001600160a01b031633036102ee57565b60028054146110c75760028055565b604051633ee5aeb560e01b8152600490fdfea26469706673582212209609bcef610df84cf823cebfbcce107e7a3f7fd73f77c5b1b49c137bdbbda41864736f6c63430008140033","linkReferences":{}},"methodIdentifiers":{"accRewardPerActiveE18()":"c5800069","acceptOwnership()":"79ba5097","activeCount()":"4331ed1f","ambassadors(address)":"28ce48a0","approveForRegistration(address)":"af5bb24d","approvedForRegistration(address)":"4a7f75c4","claim()":"4e71d92d","distributeFunds()":"3a6a4d2e","lastBalance()":"8f1c56bd","owner()":"8da5cb5b","pendingOwner()":"e30c3978","pendingRewards(address)":"31d7a262","renounceOwnership()":"715018a6","revokeApproval(address)":"484685b0","selfRegister(string)":"1365e5d1","setAmbassadorStatus(address,bool)":"28357d4d","stablecoin()":"e9cbd822","transferOwnership(address)":"f2fde38b"},"id":1}