{
  "_format": "hh-sol-artifact-1",
  "contractName": "AmbassadorRegistry",
  "sourceName": "contracts/AmbassadorRegistry.sol",
  "abi": [
    {
      "inputs": [
        {
          "internalType": "address",
          "name": "_stablecoin",
          "type": "address"
        }
      ],
      "stateMutability": "nonpayable",
      "type": "constructor"
    },
    {
      "inputs": [
        {
          "internalType": "address",
          "name": "owner",
          "type": "address"
        }
      ],
      "name": "OwnableInvalidOwner",
      "type": "error"
    },
    {
      "inputs": [
        {
          "internalType": "address",
          "name": "account",
          "type": "address"
        }
      ],
      "name": "OwnableUnauthorizedAccount",
      "type": "error"
    },
    {
      "inputs": [],
      "name": "ReentrancyGuardReentrantCall",
      "type": "error"
    },
    {
      "inputs": [
        {
          "internalType": "address",
          "name": "token",
          "type": "address"
        }
      ],
      "name": "SafeERC20FailedOperation",
      "type": "error"
    },
    {
      "anonymous": false,
      "inputs": [
        {
          "indexed": true,
          "internalType": "address",
          "name": "ambassador",
          "type": "address"
        },
        {
          "indexed": false,
          "internalType": "string",
          "name": "name",
          "type": "string"
        }
      ],
      "name": "AmbassadorRegistered",
      "type": "event"
    },
    {
      "anonymous": false,
      "inputs": [
        {
          "indexed": true,
          "internalType": "address",
          "name": "ambassador",
          "type": "address"
        },
        {
          "indexed": false,
          "internalType": "bool",
          "name": "active",
          "type": "bool"
        }
      ],
      "name": "AmbassadorStatusChanged",
      "type": "event"
    },
    {
      "anonymous": false,
      "inputs": [
        {
          "indexed": true,
          "internalType": "address",
          "name": "ambassador",
          "type": "address"
        },
        {
          "indexed": false,
          "internalType": "uint256",
          "name": "amount",
          "type": "uint256"
        }
      ],
      "name": "Claimed",
      "type": "event"
    },
    {
      "anonymous": false,
      "inputs": [
        {
          "indexed": false,
          "internalType": "uint256",
          "name": "newFunds",
          "type": "uint256"
        },
        {
          "indexed": false,
          "internalType": "uint256",
          "name": "activeCount",
          "type": "uint256"
        },
        {
          "indexed": false,
          "internalType": "uint256",
          "name": "accRewardPerActiveE18",
          "type": "uint256"
        }
      ],
      "name": "FundsDistributed",
      "type": "event"
    },
    {
      "anonymous": false,
      "inputs": [
        {
          "indexed": true,
          "internalType": "address",
          "name": "previousOwner",
          "type": "address"
        },
        {
          "indexed": true,
          "internalType": "address",
          "name": "newOwner",
          "type": "address"
        }
      ],
      "name": "OwnershipTransferred",
      "type": "event"
    },
    {
      "inputs": [],
      "name": "accRewardPerActiveE18",
      "outputs": [
        {
          "internalType": "uint256",
          "name": "",
          "type": "uint256"
        }
      ],
      "stateMutability": "view",
      "type": "function"
    },
    {
      "inputs": [],
      "name": "activeCount",
      "outputs": [
        {
          "internalType": "uint256",
          "name": "",
          "type": "uint256"
        }
      ],
      "stateMutability": "view",
      "type": "function"
    },
    {
      "inputs": [
        {
          "internalType": "address",
          "name": "",
          "type": "address"
        }
      ],
      "name": "ambassadors",
      "outputs": [
        {
          "internalType": "bool",
          "name": "active",
          "type": "bool"
        },
        {
          "internalType": "uint256",
          "name": "totalClaimed",
          "type": "uint256"
        },
        {
          "internalType": "uint256",
          "name": "rewardDebtE18",
          "type": "uint256"
        },
        {
          "internalType": "uint256",
          "name": "storedRewards",
          "type": "uint256"
        },
        {
          "internalType": "string",
          "name": "name",
          "type": "string"
        }
      ],
      "stateMutability": "view",
      "type": "function"
    },
    {
      "inputs": [],
      "name": "claim",
      "outputs": [],
      "stateMutability": "nonpayable",
      "type": "function"
    },
    {
      "inputs": [],
      "name": "distributeFunds",
      "outputs": [],
      "stateMutability": "nonpayable",
      "type": "function"
    },
    {
      "inputs": [],
      "name": "lastBalance",
      "outputs": [
        {
          "internalType": "uint256",
          "name": "",
          "type": "uint256"
        }
      ],
      "stateMutability": "view",
      "type": "function"
    },
    {
      "inputs": [],
      "name": "owner",
      "outputs": [
        {
          "internalType": "address",
          "name": "",
          "type": "address"
        }
      ],
      "stateMutability": "view",
      "type": "function"
    },
    {
      "inputs": [
        {
          "internalType": "address",
          "name": "ambassador",
          "type": "address"
        }
      ],
      "name": "pendingRewards",
      "outputs": [
        {
          "internalType": "uint256",
          "name": "",
          "type": "uint256"
        }
      ],
      "stateMutability": "view",
      "type": "function"
    },
    {
      "inputs": [],
      "name": "renounceOwnership",
      "outputs": [],
      "stateMutability": "nonpayable",
      "type": "function"
    },
    {
      "inputs": [
        {
          "internalType": "string",
          "name": "name",
          "type": "string"
        }
      ],
      "name": "selfRegister",
      "outputs": [],
      "stateMutability": "nonpayable",
      "type": "function"
    },
    {
      "inputs": [
        {
          "internalType": "address",
          "name": "ambassador",
          "type": "address"
        },
        {
          "internalType": "bool",
          "name": "active",
          "type": "bool"
        }
      ],
      "name": "setAmbassadorStatus",
      "outputs": [],
      "stateMutability": "nonpayable",
      "type": "function"
    },
    {
      "inputs": [],
      "name": "stablecoin",
      "outputs": [
        {
          "internalType": "contract IERC20",
          "name": "",
          "type": "address"
        }
      ],
      "stateMutability": "view",
      "type": "function"
    },
    {
      "inputs": [
        {
          "internalType": "address",
          "name": "newOwner",
          "type": "address"
        }
      ],
      "name": "transferOwnership",
      "outputs": [],
      "stateMutability": "nonpayable",
      "type": "function"
    }
  ],
  "bytecode": "0x60a06040908082523461017d5780620010c280380380916100208285610182565b833960209283918101031261017d57516001600160a01b03908181169081900361017d5733156101655760008054336001600160a01b0319821681178355865192949091167f8be0079c531659141344cd1fd0a4f28419497f9722a3daafe3b4186f6b6457e08580a360018055811561012e57509082826024936080528551938480926370a0823160e01b82523060048301525afa9283156101225781936100ee575b50505060055551610f069081620001bc8239608051818181610157015281816102de01526104fa0152f35b9091809350813d831161011b575b6101068183610182565b810103126101185750513880806100c3565b80fd5b503d6100fc565b508351903d90823e3d90fd5b62461bcd60e51b815260048101849052601260248201527124b73b30b634b21039ba30b13632b1b7b4b760711b6044820152606490fd5b8351631e4fbdf760e01b815260006004820152602490fd5b600080fd5b601f909101601f19168101906001600160401b038211908210176101a557604052565b634e487b7160e01b600052604160045260246000fdfe608080604052600436101561001357600080fd5b60003560e01c9081631365e5d1146107c85750806328357d4d1461078457806328ce48a0146106ca57806331d7a262146106725780633a6a4d2e146104c45780634331ed1f146104a65780634e71d92d14610244578063715018a6146101eb5780638da5cb5b146101c25780638f1c56bd146101a4578063c580006914610186578063e9cbd822146101415763f2fde38b146100ae57600080fd5b3461013c57602036600319011261013c576100c7610b0e565b6100cf610c42565b6001600160a01b0390811690811561012357600054826bffffffffffffffffffffffff60a01b821617600055167f8be0079c531659141344cd1fd0a4f28419497f9722a3daafe3b4186f6b6457e0600080a3005b604051631e4fbdf760e01b815260006004820152602490fd5b600080fd5b3461013c57600036600319011261013c576040517f00000000000000000000000000000000000000000000000000000000000000006001600160a01b03168152602090f35b3461013c57600036600319011261013c576020600454604051908152f35b3461013c57600036600319011261013c576020600554604051908152f35b3461013c57600036600319011261013c576000546040516001600160a01b039091168152602090f35b3461013c57600036600319011261013c57610204610c42565b600080546001600160a01b0319811682556001600160a01b03167f8be0079c531659141344cd1fd0a4f28419497f9722a3daafe3b4186f6b6457e08280a3005b3461013c57600036600319011261013c5761025d610e6d565b3360005260206002815260406000209061028461027d6004840154610b24565b1515610c7b565b61029561029083610cb8565b610e90565b916102a560038201938454610c6e565b92831561046e57906000600192556004546002820155016102c7838254610c6e565b90556040516370a0823160e01b81523060048201527f00000000000000000000000000000000000000000000000000000000000000006001600160a01b038116918381602481865afa9081156103e357600091610441575b50848110610405578461033191610d00565b6005556040518381019163a9059cbb60e01b835233602483015285604483015260448252608082019282841067ffffffffffffffff8511176103ef5760008093879560405251925af1156103e3576000513d6103da5750803b155b6103c257507fd8138f8a3f377c5259ca548e70e4c2de94f129f5a11036a15b69513cba2b426a906040519283523392a260018055005b60249060405190635274afe760e01b82526004820152fd5b6001141561038c565b6040513d6000823e3d90fd5b634e487b7160e01b600052604160045260246000fd5b60405162461bcd60e51b8152600481018590526014602482015273496e73756666696369656e742062616c616e636560601b6044820152606490fd5b90508381813d8311610467575b6104588183610b7a565b8101031261013c57518561031f565b503d61044e565b60405162461bcd60e51b815260048101849052601060248201526f4e6f7468696e6720746f20636c61696d60801b6044820152606490fd5b3461013c57600036600319011261013c576020600354604051908152f35b3461013c57600036600319011261013c576104dd610e6d565b6040516370a0823160e01b815230600482015260209081816024817f00000000000000000000000000000000000000000000000000000000000000006001600160a01b03165afa9081156103e357600091610645575b506005549081811115610611576003549182156105d4576105549082610d00565b90670de0b6b3a7640000928383029383850414831517156105be577fdaf6233a382145376035341e71f8a04305f7e323d0fe3e58c908cf0a26b76df9946105a18260609604600454610c6e565b92836004556005556040519384528301526040820152a160018055005b634e487b7160e01b600052601160045260246000fd5b60405162461bcd60e51b81526004810185905260156024820152744e6f2061637469766520616d6261737361646f727360581b6044820152606490fd5b60405162461bcd60e51b815260048101849052600c60248201526b4e6f206e65772066756e647360a01b6044820152606490fd5b90508181813d831161066b575b61065c8183610b7a565b8101031261013c575182610533565b503d610652565b3461013c57602036600319011261013c576001600160a01b03610693610b0e565b16600052600260205260206106c26106ae6040600020610cb8565b6106bc606082015191610e90565b90610c6e565b604051908152f35b3461013c5760208060031936011261013c576001600160a01b036106ec610b0e565b1660005260028152604060002060ff81541660018201549260028301549261071b600460038301549201610b9c565b9360405195869415158552838501526040840152606083015260a060808301528251908160a08401526000935b82851061076b57505060c092506000838284010152601f80199101168101030190f35b84810182015186860160c0015293810193859350610748565b3461013c57604036600319011261013c5761079d610b0e565b602435801515810361013c576107c2916107b5610c42565b6107bd610e6d565b610d0d565b60018055005b3461013c57602036600319011261013c5767ffffffffffffffff6004351161013c5736602360043501121561013c5767ffffffffffffffff600435600401351161013c573660246004356004013560043501011161013c5760043560040135151580610afd575b15610acc5733600052600260205261084e600460406000200154610b24565b610a92576004546040519061086282610b5e565b60018252600060208301526040820152600060608201526004604051916108976020601f19601f853586013501160184610b7a565b813580830135808552906024016020850137600060208335840135850101526080810192835233600052600260205260606040600020916108e781511515849060ff801983541691151516179055565b60208101516001840155604081015160028401550151600382015501905190815167ffffffffffffffff81116103ef576109218254610b24565b601f8111610a4a575b50602092601f82116001146109e657928192936000926109db575b50508160011b916000199060031b1c19161790555b600354600181018091116105be57600355604051602081526004356004013560208201526004356004013560246004350160408301376000604060043560040135830101527fdc50763ba3a9913608b4503be1144367f90c3784cdd0c8de36d2c2d6920f6b593391604081601f19601f6004356004013501168101030190a2005b015190508380610945565b601f198216938360005260206000209160005b868110610a325750836001959610610a19575b505050811b01905561095a565b015160001960f88460031b161c19169055838080610a0c565b919260206001819286850151815501940192016109f9565b826000526020600020601f830160051c81019160208410610a88575b601f0160051c01905b818110610a7c575061092a565b60008155600101610a6f565b9091508190610a66565b60405162461bcd60e51b8152602060048201526012602482015271105b1c9958591e481c9959da5cdd195c995960721b6044820152606490fd5b62461bcd60e51b815260206004820152600c60248201526b496e76616c6964206e616d6560a01b6044820152606490fd5b50604060043560040135111561082f565b600435906001600160a01b038216820361013c57565b90600182811c92168015610b54575b6020831014610b3e57565b634e487b7160e01b600052602260045260246000fd5b91607f1691610b33565b60a0810190811067ffffffffffffffff8211176103ef57604052565b90601f8019910116810190811067ffffffffffffffff8211176103ef57604052565b9060405191826000825492610bb084610b24565b908184526001948581169081600014610c1f5750600114610bdc575b5050610bda92500383610b7a565b565b9093915060005260209081600020936000915b818310610c07575050610bda93508201013880610bcc565b85548884018501529485019487945091830191610bef565b915050610bda94506020925060ff191682840152151560051b8201013880610bcc565b6000546001600160a01b03163303610c5657565b60405163118cdaa760e01b8152336004820152602490fd5b919082018092116105be57565b15610c8257565b60405162461bcd60e51b815260206004820152600e60248201526d139bdd081c9959da5cdd195c995960921b6044820152606490fd5b90604051610cc581610b5e565b6080610cfb6004839560ff8154161515855260018101546020860152600281015460408601526003810154606086015201610b9c565b910152565b919082039182116105be57565b6001600160a01b0316908115610e3657600082815260026020526040812091610d3c61027d6004850154610b24565b60ff835416928115158094151514610e2f578181610d5f610290610d7f94610cb8565b80610e18575b5060045460028201559060ff801983541691151516179055565b15610dda576003549060018201809211610dc657507fae6be1d637d3ddbb8b240fb2265ad4b15b8b1c4c3c394c2d2ae17b5c31cc0be1916020916003555b604051908152a2565b634e487b7160e01b81526011600452602490fd5b600354600019810191908211610dc657507fae6be1d637d3ddbb8b240fb2265ad4b15b8b1c4c3c394c2d2ae17b5c31cc0be191602091600355610dbd565b610e2760038301918254610c6e565b905538610d65565b5050505050565b60405162461bcd60e51b815260206004820152600f60248201526e496e76616c6964206164647265737360881b6044820152606490fd5b600260015414610e7e576002600155565b604051633ee5aeb560e01b8152600490fd5b60808101515115610eca5760406004549101519081811115610ec357670de0b6b3a764000091610ebf91610d00565b0490565b5050600090565b5060009056fea2646970667358221220a417e6e696c465f3fb6359106c1d13d3377f93f9a1a330c195d7555112f3b29964736f6c63430008140033",
  "linkReferences": {},
  "deployedLinkReferences": {}
}