{
  "_format": "hh-sol-artifact-1",
  "contractName": "BuybackContract",
  "sourceName": "contracts/BuybackContract.sol",
  "abi": [
    {
      "inputs": [
        {
          "internalType": "address",
          "name": "_stablecoin",
          "type": "address"
        },
        {
          "internalType": "address",
          "name": "_nxlToken",
          "type": "address"
        }
      ],
      "stateMutability": "nonpayable",
      "type": "constructor"
    },
    {
      "inputs": [
        {
          "internalType": "address",
          "name": "owner",
          "type": "address"
        }
      ],
      "name": "OwnableInvalidOwner",
      "type": "error"
    },
    {
      "inputs": [
        {
          "internalType": "address",
          "name": "account",
          "type": "address"
        }
      ],
      "name": "OwnableUnauthorizedAccount",
      "type": "error"
    },
    {
      "inputs": [],
      "name": "ReentrancyGuardReentrantCall",
      "type": "error"
    },
    {
      "inputs": [
        {
          "internalType": "address",
          "name": "token",
          "type": "address"
        }
      ],
      "name": "SafeERC20FailedOperation",
      "type": "error"
    },
    {
      "anonymous": false,
      "inputs": [
        {
          "indexed": true,
          "internalType": "address",
          "name": "from",
          "type": "address"
        },
        {
          "indexed": false,
          "internalType": "uint256",
          "name": "amount",
          "type": "uint256"
        }
      ],
      "name": "FundsReceived",
      "type": "event"
    },
    {
      "anonymous": false,
      "inputs": [
        {
          "indexed": true,
          "internalType": "address",
          "name": "to",
          "type": "address"
        },
        {
          "indexed": false,
          "internalType": "uint256",
          "name": "amount",
          "type": "uint256"
        }
      ],
      "name": "FundsSpent",
      "type": "event"
    },
    {
      "anonymous": false,
      "inputs": [
        {
          "indexed": true,
          "internalType": "address",
          "name": "previousOwner",
          "type": "address"
        },
        {
          "indexed": true,
          "internalType": "address",
          "name": "newOwner",
          "type": "address"
        }
      ],
      "name": "OwnershipTransferred",
      "type": "event"
    },
    {
      "inputs": [],
      "name": "getBalance",
      "outputs": [
        {
          "internalType": "uint256",
          "name": "",
          "type": "uint256"
        }
      ],
      "stateMutability": "view",
      "type": "function"
    },
    {
      "inputs": [],
      "name": "nxlToken",
      "outputs": [
        {
          "internalType": "contract IERC20",
          "name": "",
          "type": "address"
        }
      ],
      "stateMutability": "view",
      "type": "function"
    },
    {
      "inputs": [],
      "name": "owner",
      "outputs": [
        {
          "internalType": "address",
          "name": "",
          "type": "address"
        }
      ],
      "stateMutability": "view",
      "type": "function"
    },
    {
      "inputs": [],
      "name": "receiveFunds",
      "outputs": [],
      "stateMutability": "nonpayable",
      "type": "function"
    },
    {
      "inputs": [],
      "name": "renounceOwnership",
      "outputs": [],
      "stateMutability": "nonpayable",
      "type": "function"
    },
    {
      "inputs": [
        {
          "internalType": "address",
          "name": "to",
          "type": "address"
        },
        {
          "internalType": "uint256",
          "name": "amount",
          "type": "uint256"
        }
      ],
      "name": "spend",
      "outputs": [],
      "stateMutability": "nonpayable",
      "type": "function"
    },
    {
      "inputs": [],
      "name": "stablecoin",
      "outputs": [
        {
          "internalType": "contract IERC20",
          "name": "",
          "type": "address"
        }
      ],
      "stateMutability": "view",
      "type": "function"
    },
    {
      "inputs": [],
      "name": "totalReceived",
      "outputs": [
        {
          "internalType": "uint256",
          "name": "",
          "type": "uint256"
        }
      ],
      "stateMutability": "view",
      "type": "function"
    },
    {
      "inputs": [],
      "name": "totalSpent",
      "outputs": [
        {
          "internalType": "uint256",
          "name": "",
          "type": "uint256"
        }
      ],
      "stateMutability": "view",
      "type": "function"
    },
    {
      "inputs": [
        {
          "internalType": "address",
          "name": "newOwner",
          "type": "address"
        }
      ],
      "name": "transferOwnership",
      "outputs": [],
      "stateMutability": "nonpayable",
      "type": "function"
    }
  ],
  "bytecode": "0x60c03461017a5761095a90601f38839003908101601f19168201906001600160401b0382118383101761017f578083916040958694855283398101031261017a57610055602061004e83610195565b9201610195565b9033156101625760008054336001600160a01b03198216811783558551946001600160a01b0394909385939192918416907f8be0079c531659141344cd1fd0a4f28419497f9722a3daafe3b4186f6b6457e09080a3600180551692831561012b5750169081156100f95760805260a052516107b090816101aa8239608051818181610151015281816101df015281816104e5015261059e015260a0518161042a0152f35b825162461bcd60e51b815260206004820152600b60248201526a125b9d985b1a590813961360aa1b6044820152606490fd5b62461bcd60e51b815260206004820152601260248201527124b73b30b634b21039ba30b13632b1b7b4b760711b6044820152606490fd5b8251631e4fbdf760e01b815260006004820152602490fd5b600080fd5b634e487b7160e01b600052604160045260246000fd5b51906001600160a01b038216820361017a5756fe6040608081526004908136101561001557600080fd5b600091823560e01c9081625c33e11461056857816312065fe0146104b6578163715018a61461045957816389ef723b146104155781638da5cb5b146103ed578163a3c2c462146103ce578163af7d6ca314610180578163e9cbd8221461013c578163f2fde38b146100b1575063fb346eab1461009057600080fd5b346100ad57816003193601126100ad576020906003549051908152f35b5080fd5b905034610138576020366003190112610138576100cc6106a8565b906100d56106c3565b6001600160a01b0391821692831561012257505082546001600160a01b0319811683178455167f8be0079c531659141344cd1fd0a4f28419497f9722a3daafe3b4186f6b6457e08380a380f35b51631e4fbdf760e01b8152908101849052602490fd5b8280fd5b5050346100ad57816003193601126100ad57517f00000000000000000000000000000000000000000000000000000000000000006001600160a01b03168152602090f35b839150346100ad57826003193601126100ad5761019b6106a8565b6024938435906101a96106c3565b6101b1610757565b6001600160a01b039283169384156103a057821561036a5781516370a0823160e01b815230828201526020947f00000000000000000000000000000000000000000000000000000000000000009081169186818b81865afa908115610360579086918a9161032b575b50106102f257879061022e8660035461074a565b60035584518781019063a9059cbb60e01b8252898c820152876044820152604481526080810181811067ffffffffffffffff8211176102e05793809392918a95895251925af1156102d65786513d6102cd5750803b155b6102ba575050519081527f2feff302d1155e92d28ec9fe2f00d6d52404ba591f0b1c1d95aec10c84e04aa89190a26001805580f35b87925191635274afe760e01b8352820152fd5b60011415610285565b82513d88823e3d90fd5b634e487b7160e01b8552604187528c85fd5b835162461bcd60e51b81528084018790526014818b015273496e73756666696369656e742062616c616e636560601b6044820152606490fd5b809250888092503d8311610359575b61034481836106ef565b81010312610355578590518b61021a565b8880fd5b503d61033a565b85513d8b823e3d90fd5b6012876020606494519362461bcd60e51b8552840152820152710416d6f756e74206d757374206265203e20360741b6044820152fd5b600a876020606494519362461bcd60e51b855284015282015269496e76616c696420746f60b01b6044820152fd5b5050346100ad57816003193601126100ad576020906002549051908152f35b5050346100ad57816003193601126100ad57905490516001600160a01b039091168152602090f35b5050346100ad57816003193601126100ad57517f00000000000000000000000000000000000000000000000000000000000000006001600160a01b03168152602090f35b83346104b357806003193601126104b3576104726106c3565b80546001600160a01b03198116825581906001600160a01b03167f8be0079c531659141344cd1fd0a4f28419497f9722a3daafe3b4186f6b6457e08280a380f35b80fd5b9190503461013857826003193601126101385780516370a0823160e01b815230928101929092526020826024817f00000000000000000000000000000000000000000000000000000000000000006001600160a01b03165afa91821561055e578392610527575b6020838351908152f35b9091506020813d8211610556575b81610542602093836106ef565b81010312610138576020925051903861051d565b3d9150610535565b81513d85823e3d90fd5b905034610138578260031936011261013857610582610757565b81516370a0823160e01b815230828201529160209182846024817f00000000000000000000000000000000000000000000000000000000000000006001600160a01b03165afa93841561069e57859461066b575b50600254936105e760035486610727565b918282111561063957506106217f8e47b87b0ef542cdfa1659c551d88bad38aa7f452d2bbb349ab7530dfec8be8f94939261062892610727565b809561074a565b600255519283523392a26001805580f35b835162461bcd60e51b8152908101859052600c60248201526b4e6f206e65772066756e647360a01b6044820152606490fd5b9093508281813d8311610697575b61068381836106ef565b81010312610693575192386105d6565b8480fd5b503d610679565b82513d87823e3d90fd5b600435906001600160a01b03821682036106be57565b600080fd5b6000546001600160a01b031633036106d757565b60405163118cdaa760e01b8152336004820152602490fd5b90601f8019910116810190811067ffffffffffffffff82111761071157604052565b634e487b7160e01b600052604160045260246000fd5b9190820391821161073457565b634e487b7160e01b600052601160045260246000fd5b9190820180921161073457565b600260015414610768576002600155565b604051633ee5aeb560e01b8152600490fdfea264697066735822122028ca5101f0601789737fb7619158faf42dd175aa1fac0e64f24c0b9ed183d7bd64736f6c63430008140033",
  "linkReferences": {},
  "deployedLinkReferences": {}
}