{
  "_format": "hh-sol-artifact-1",
  "contractName": "NexumManager",
  "sourceName": "contracts/NexumManager.sol",
  "abi": [
    {
      "inputs": [
        {
          "internalType": "address",
          "name": "_vrfCoordinator",
          "type": "address"
        },
        {
          "internalType": "uint64",
          "name": "_subscriptionId",
          "type": "uint64"
        },
        {
          "internalType": "bytes32",
          "name": "_keyHash",
          "type": "bytes32"
        },
        {
          "internalType": "address",
          "name": "_stablecoin",
          "type": "address"
        },
        {
          "internalType": "address",
          "name": "_nxlToken",
          "type": "address"
        },
        {
          "internalType": "address",
          "name": "_founder",
          "type": "address"
        },
        {
          "internalType": "address",
          "name": "_partner",
          "type": "address"
        },
        {
          "internalType": "address",
          "name": "_feesReceiver",
          "type": "address"
        },
        {
          "internalType": "address",
          "name": "_operationsService",
          "type": "address"
        },
        {
          "internalType": "address",
          "name": "_auditFunds",
          "type": "address"
        }
      ],
      "stateMutability": "nonpayable",
      "type": "constructor"
    },
    {
      "inputs": [
        {
          "internalType": "address",
          "name": "have",
          "type": "address"
        },
        {
          "internalType": "address",
          "name": "want",
          "type": "address"
        }
      ],
      "name": "OnlyCoordinatorCanFulfill",
      "type": "error"
    },
    {
      "inputs": [
        {
          "internalType": "address",
          "name": "owner",
          "type": "address"
        }
      ],
      "name": "OwnableInvalidOwner",
      "type": "error"
    },
    {
      "inputs": [
        {
          "internalType": "address",
          "name": "account",
          "type": "address"
        }
      ],
      "name": "OwnableUnauthorizedAccount",
      "type": "error"
    },
    {
      "inputs": [],
      "name": "ReentrancyGuardReentrantCall",
      "type": "error"
    },
    {
      "inputs": [
        {
          "internalType": "address",
          "name": "token",
          "type": "address"
        }
      ],
      "name": "SafeERC20FailedOperation",
      "type": "error"
    },
    {
      "anonymous": false,
      "inputs": [
        {
          "indexed": false,
          "internalType": "address",
          "name": "auditFunds",
          "type": "address"
        }
      ],
      "name": "AuditFundsSet",
      "type": "event"
    },
    {
      "anonymous": false,
      "inputs": [
        {
          "indexed": true,
          "internalType": "address",
          "name": "to",
          "type": "address"
        },
        {
          "indexed": false,
          "internalType": "uint256",
          "name": "amount",
          "type": "uint256"
        }
      ],
      "name": "AuditFundsWithdrawn",
      "type": "event"
    },
    {
      "anonymous": false,
      "inputs": [],
      "name": "AutonomyFinalized",
      "type": "event"
    },
    {
      "anonymous": false,
      "inputs": [
        {
          "indexed": true,
          "internalType": "address",
          "name": "user",
          "type": "address"
        },
        {
          "indexed": false,
          "internalType": "uint256",
          "name": "amount",
          "type": "uint256"
        }
      ],
      "name": "ClaimAccrued",
      "type": "event"
    },
    {
      "anonymous": false,
      "inputs": [
        {
          "indexed": true,
          "internalType": "address",
          "name": "user",
          "type": "address"
        },
        {
          "indexed": false,
          "internalType": "uint256",
          "name": "amount",
          "type": "uint256"
        }
      ],
      "name": "Claimed",
      "type": "event"
    },
    {
      "anonymous": false,
      "inputs": [
        {
          "indexed": false,
          "internalType": "address",
          "name": "treasuryBTC",
          "type": "address"
        },
        {
          "indexed": false,
          "internalType": "address",
          "name": "referralNetwork",
          "type": "address"
        },
        {
          "indexed": false,
          "internalType": "address",
          "name": "ambassadorRegistry",
          "type": "address"
        }
      ],
      "name": "EcosystemAddressesSet",
      "type": "event"
    },
    {
      "anonymous": false,
      "inputs": [
        {
          "indexed": true,
          "internalType": "address",
          "name": "user",
          "type": "address"
        },
        {
          "indexed": false,
          "internalType": "uint256",
          "name": "amount",
          "type": "uint256"
        }
      ],
      "name": "NXLAccrued",
      "type": "event"
    },
    {
      "anonymous": false,
      "inputs": [
        {
          "indexed": true,
          "internalType": "address",
          "name": "user",
          "type": "address"
        },
        {
          "indexed": false,
          "internalType": "uint256",
          "name": "amount",
          "type": "uint256"
        }
      ],
      "name": "NXLClaimed",
      "type": "event"
    },
    {
      "anonymous": false,
      "inputs": [
        {
          "indexed": true,
          "internalType": "uint256",
          "name": "productId",
          "type": "uint256"
        }
      ],
      "name": "NXLRewardsExhausted",
      "type": "event"
    },
    {
      "anonymous": false,
      "inputs": [
        {
          "indexed": false,
          "internalType": "address",
          "name": "treasury",
          "type": "address"
        }
      ],
      "name": "NXLTokenTreasuryConfigured",
      "type": "event"
    },
    {
      "anonymous": false,
      "inputs": [
        {
          "indexed": true,
          "internalType": "uint256",
          "name": "productId",
          "type": "uint256"
        },
        {
          "indexed": true,
          "internalType": "uint256",
          "name": "roundId",
          "type": "uint256"
        },
        {
          "indexed": false,
          "internalType": "uint256",
          "name": "timestamp",
          "type": "uint256"
        }
      ],
      "name": "NewRoundStarted",
      "type": "event"
    },
    {
      "anonymous": false,
      "inputs": [
        {
          "indexed": true,
          "internalType": "address",
          "name": "previousOwner",
          "type": "address"
        },
        {
          "indexed": true,
          "internalType": "address",
          "name": "newOwner",
          "type": "address"
        }
      ],
      "name": "OwnershipTransferred",
      "type": "event"
    },
    {
      "anonymous": false,
      "inputs": [
        {
          "indexed": true,
          "internalType": "uint256",
          "name": "productId",
          "type": "uint256"
        }
      ],
      "name": "ProductReactivated",
      "type": "event"
    },
    {
      "anonymous": false,
      "inputs": [
        {
          "indexed": true,
          "internalType": "uint256",
          "name": "productId",
          "type": "uint256"
        },
        {
          "indexed": true,
          "internalType": "uint256",
          "name": "roundId",
          "type": "uint256"
        },
        {
          "indexed": true,
          "internalType": "address",
          "name": "winner",
          "type": "address"
        },
        {
          "indexed": false,
          "internalType": "uint256",
          "name": "prize",
          "type": "uint256"
        },
        {
          "indexed": false,
          "internalType": "uint256",
          "name": "winningTicket",
          "type": "uint256"
        }
      ],
      "name": "RoundCompleted",
      "type": "event"
    },
    {
      "anonymous": false,
      "inputs": [
        {
          "indexed": true,
          "internalType": "uint256",
          "name": "productId",
          "type": "uint256"
        },
        {
          "indexed": true,
          "internalType": "uint256",
          "name": "roundId",
          "type": "uint256"
        },
        {
          "indexed": false,
          "internalType": "uint256",
          "name": "winningTicket",
          "type": "uint256"
        },
        {
          "indexed": false,
          "internalType": "address",
          "name": "winner",
          "type": "address"
        }
      ],
      "name": "StuckRoundResolved",
      "type": "event"
    },
    {
      "anonymous": false,
      "inputs": [
        {
          "indexed": true,
          "internalType": "uint256",
          "name": "productId",
          "type": "uint256"
        },
        {
          "indexed": true,
          "internalType": "uint256",
          "name": "roundId",
          "type": "uint256"
        },
        {
          "indexed": true,
          "internalType": "address",
          "name": "buyer",
          "type": "address"
        },
        {
          "indexed": false,
          "internalType": "uint256",
          "name": "quantity",
          "type": "uint256"
        },
        {
          "indexed": false,
          "internalType": "uint256[]",
          "name": "ticketNumbers",
          "type": "uint256[]"
        },
        {
          "indexed": false,
          "internalType": "uint256",
          "name": "amountPaid",
          "type": "uint256"
        }
      ],
      "name": "TicketsPurchased",
      "type": "event"
    },
    {
      "anonymous": false,
      "inputs": [
        {
          "indexed": true,
          "internalType": "uint256",
          "name": "requestId",
          "type": "uint256"
        },
        {
          "indexed": true,
          "internalType": "uint256",
          "name": "productId",
          "type": "uint256"
        },
        {
          "indexed": true,
          "internalType": "uint256",
          "name": "roundId",
          "type": "uint256"
        }
      ],
      "name": "VRFRequested",
      "type": "event"
    },
    {
      "inputs": [],
      "name": "NUM_WORDS",
      "outputs": [
        {
          "internalType": "uint32",
          "name": "",
          "type": "uint32"
        }
      ],
      "stateMutability": "view",
      "type": "function"
    },
    {
      "inputs": [],
      "name": "PCT_AMBASSADORS",
      "outputs": [
        {
          "internalType": "uint256",
          "name": "",
          "type": "uint256"
        }
      ],
      "stateMutability": "view",
      "type": "function"
    },
    {
      "inputs": [],
      "name": "PCT_AUDIT",
      "outputs": [
        {
          "internalType": "uint256",
          "name": "",
          "type": "uint256"
        }
      ],
      "stateMutability": "view",
      "type": "function"
    },
    {
      "inputs": [],
      "name": "PCT_FEES",
      "outputs": [
        {
          "internalType": "uint256",
          "name": "",
          "type": "uint256"
        }
      ],
      "stateMutability": "view",
      "type": "function"
    },
    {
      "inputs": [],
      "name": "PCT_FOUNDER",
      "outputs": [
        {
          "internalType": "uint256",
          "name": "",
          "type": "uint256"
        }
      ],
      "stateMutability": "view",
      "type": "function"
    },
    {
      "inputs": [],
      "name": "PCT_INSTANT",
      "outputs": [
        {
          "internalType": "uint256",
          "name": "",
          "type": "uint256"
        }
      ],
      "stateMutability": "view",
      "type": "function"
    },
    {
      "inputs": [],
      "name": "PCT_OPS_SERVICE",
      "outputs": [
        {
          "internalType": "uint256",
          "name": "",
          "type": "uint256"
        }
      ],
      "stateMutability": "view",
      "type": "function"
    },
    {
      "inputs": [],
      "name": "PCT_PARTNER",
      "outputs": [
        {
          "internalType": "uint256",
          "name": "",
          "type": "uint256"
        }
      ],
      "stateMutability": "view",
      "type": "function"
    },
    {
      "inputs": [],
      "name": "PCT_PRIZE_POOL",
      "outputs": [
        {
          "internalType": "uint256",
          "name": "",
          "type": "uint256"
        }
      ],
      "stateMutability": "view",
      "type": "function"
    },
    {
      "inputs": [],
      "name": "PCT_REFERRALS",
      "outputs": [
        {
          "internalType": "uint256",
          "name": "",
          "type": "uint256"
        }
      ],
      "stateMutability": "view",
      "type": "function"
    },
    {
      "inputs": [],
      "name": "PCT_TREASURY_BTC",
      "outputs": [
        {
          "internalType": "uint256",
          "name": "",
          "type": "uint256"
        }
      ],
      "stateMutability": "view",
      "type": "function"
    },
    {
      "inputs": [],
      "name": "PRODUCT_COUNT",
      "outputs": [
        {
          "internalType": "uint256",
          "name": "",
          "type": "uint256"
        }
      ],
      "stateMutability": "view",
      "type": "function"
    },
    {
      "inputs": [],
      "name": "REQUEST_CONFIRMATIONS",
      "outputs": [
        {
          "internalType": "uint16",
          "name": "",
          "type": "uint16"
        }
      ],
      "stateMutability": "view",
      "type": "function"
    },
    {
      "inputs": [],
      "name": "VRF_TIMEOUT",
      "outputs": [
        {
          "internalType": "uint256",
          "name": "",
          "type": "uint256"
        }
      ],
      "stateMutability": "view",
      "type": "function"
    },
    {
      "inputs": [],
      "name": "ambassadorRegistry",
      "outputs": [
        {
          "internalType": "address",
          "name": "",
          "type": "address"
        }
      ],
      "stateMutability": "view",
      "type": "function"
    },
    {
      "inputs": [],
      "name": "auditAccrued",
      "outputs": [
        {
          "internalType": "uint256",
          "name": "",
          "type": "uint256"
        }
      ],
      "stateMutability": "view",
      "type": "function"
    },
    {
      "inputs": [],
      "name": "auditFunds",
      "outputs": [
        {
          "internalType": "address",
          "name": "",
          "type": "address"
        }
      ],
      "stateMutability": "view",
      "type": "function"
    },
    {
      "inputs": [],
      "name": "auditFundsLocked",
      "outputs": [
        {
          "internalType": "bool",
          "name": "",
          "type": "bool"
        }
      ],
      "stateMutability": "view",
      "type": "function"
    },
    {
      "inputs": [
        {
          "internalType": "uint256",
          "name": "productId",
          "type": "uint256"
        },
        {
          "internalType": "uint256[]",
          "name": "ticketNumbers",
          "type": "uint256[]"
        },
        {
          "internalType": "address",
          "name": "referrerAddr",
          "type": "address"
        }
      ],
      "name": "buySpecificTickets",
      "outputs": [],
      "stateMutability": "nonpayable",
      "type": "function"
    },
    {
      "inputs": [
        {
          "internalType": "uint256",
          "name": "productId",
          "type": "uint256"
        },
        {
          "internalType": "uint256",
          "name": "quantity",
          "type": "uint256"
        },
        {
          "internalType": "address",
          "name": "referrerAddr",
          "type": "address"
        }
      ],
      "name": "buyTickets",
      "outputs": [],
      "stateMutability": "nonpayable",
      "type": "function"
    },
    {
      "inputs": [],
      "name": "callbackGasLimit",
      "outputs": [
        {
          "internalType": "uint32",
          "name": "",
          "type": "uint32"
        }
      ],
      "stateMutability": "view",
      "type": "function"
    },
    {
      "inputs": [],
      "name": "claimNXL",
      "outputs": [],
      "stateMutability": "nonpayable",
      "type": "function"
    },
    {
      "inputs": [],
      "name": "claimStable",
      "outputs": [],
      "stateMutability": "nonpayable",
      "type": "function"
    },
    {
      "inputs": [
        {
          "internalType": "address",
          "name": "",
          "type": "address"
        }
      ],
      "name": "claimableNXL",
      "outputs": [
        {
          "internalType": "uint256",
          "name": "",
          "type": "uint256"
        }
      ],
      "stateMutability": "view",
      "type": "function"
    },
    {
      "inputs": [
        {
          "internalType": "address",
          "name": "",
          "type": "address"
        }
      ],
      "name": "claimableStable",
      "outputs": [
        {
          "internalType": "uint256",
          "name": "",
          "type": "uint256"
        }
      ],
      "stateMutability": "view",
      "type": "function"
    },
    {
      "inputs": [
        {
          "internalType": "address",
          "name": "_treasuryBTC",
          "type": "address"
        }
      ],
      "name": "configureNXLTokenTreasury",
      "outputs": [],
      "stateMutability": "nonpayable",
      "type": "function"
    },
    {
      "inputs": [
        {
          "internalType": "uint256",
          "name": "",
          "type": "uint256"
        }
      ],
      "name": "currentRound",
      "outputs": [
        {
          "internalType": "uint256",
          "name": "",
          "type": "uint256"
        }
      ],
      "stateMutability": "view",
      "type": "function"
    },
    {
      "inputs": [],
      "name": "ecosystemLocked",
      "outputs": [
        {
          "internalType": "bool",
          "name": "",
          "type": "bool"
        }
      ],
      "stateMutability": "view",
      "type": "function"
    },
    {
      "inputs": [],
      "name": "emergencyPause",
      "outputs": [],
      "stateMutability": "nonpayable",
      "type": "function"
    },
    {
      "inputs": [],
      "name": "emergencyUnpause",
      "outputs": [],
      "stateMutability": "nonpayable",
      "type": "function"
    },
    {
      "inputs": [],
      "name": "feesReceiver",
      "outputs": [
        {
          "internalType": "address",
          "name": "",
          "type": "address"
        }
      ],
      "stateMutability": "view",
      "type": "function"
    },
    {
      "inputs": [],
      "name": "finalizeAutonomy",
      "outputs": [],
      "stateMutability": "nonpayable",
      "type": "function"
    },
    {
      "inputs": [],
      "name": "founder",
      "outputs": [
        {
          "internalType": "address",
          "name": "",
          "type": "address"
        }
      ],
      "stateMutability": "view",
      "type": "function"
    },
    {
      "inputs": [],
      "name": "keyHash",
      "outputs": [
        {
          "internalType": "bytes32",
          "name": "",
          "type": "bytes32"
        }
      ],
      "stateMutability": "view",
      "type": "function"
    },
    {
      "inputs": [],
      "name": "nxlToken",
      "outputs": [
        {
          "internalType": "contract INXLToken",
          "name": "",
          "type": "address"
        }
      ],
      "stateMutability": "view",
      "type": "function"
    },
    {
      "inputs": [],
      "name": "nxlTreasuryConfigured",
      "outputs": [
        {
          "internalType": "bool",
          "name": "",
          "type": "bool"
        }
      ],
      "stateMutability": "view",
      "type": "function"
    },
    {
      "inputs": [],
      "name": "operationsService",
      "outputs": [
        {
          "internalType": "address",
          "name": "",
          "type": "address"
        }
      ],
      "stateMutability": "view",
      "type": "function"
    },
    {
      "inputs": [],
      "name": "owner",
      "outputs": [
        {
          "internalType": "address",
          "name": "",
          "type": "address"
        }
      ],
      "stateMutability": "view",
      "type": "function"
    },
    {
      "inputs": [],
      "name": "partner",
      "outputs": [
        {
          "internalType": "address",
          "name": "",
          "type": "address"
        }
      ],
      "stateMutability": "view",
      "type": "function"
    },
    {
      "inputs": [],
      "name": "paused",
      "outputs": [
        {
          "internalType": "bool",
          "name": "",
          "type": "bool"
        }
      ],
      "stateMutability": "view",
      "type": "function"
    },
    {
      "inputs": [
        {
          "internalType": "uint256",
          "name": "",
          "type": "uint256"
        }
      ],
      "name": "products",
      "outputs": [
        {
          "internalType": "string",
          "name": "name",
          "type": "string"
        },
        {
          "internalType": "uint256",
          "name": "priceUSDE18",
          "type": "uint256"
        },
        {
          "internalType": "uint256",
          "name": "maxTickets",
          "type": "uint256"
        },
        {
          "internalType": "uint256",
          "name": "nxlPerTicket",
          "type": "uint256"
        },
        {
          "internalType": "uint256",
          "name": "nxlWinnerBonus",
          "type": "uint256"
        },
        {
          "internalType": "uint256",
          "name": "jackpotUSDE18",
          "type": "uint256"
        },
        {
          "internalType": "bool",
          "name": "active",
          "type": "bool"
        }
      ],
      "stateMutability": "view",
      "type": "function"
    },
    {
      "inputs": [
        {
          "internalType": "uint256",
          "name": "requestId",
          "type": "uint256"
        },
        {
          "internalType": "uint256[]",
          "name": "randomWords",
          "type": "uint256[]"
        }
      ],
      "name": "rawFulfillRandomWords",
      "outputs": [],
      "stateMutability": "nonpayable",
      "type": "function"
    },
    {
      "inputs": [
        {
          "internalType": "uint256",
          "name": "productId",
          "type": "uint256"
        }
      ],
      "name": "reactivateProduct",
      "outputs": [],
      "stateMutability": "nonpayable",
      "type": "function"
    },
    {
      "inputs": [],
      "name": "referralNetwork",
      "outputs": [
        {
          "internalType": "address",
          "name": "",
          "type": "address"
        }
      ],
      "stateMutability": "view",
      "type": "function"
    },
    {
      "inputs": [],
      "name": "renounceOwnership",
      "outputs": [],
      "stateMutability": "nonpayable",
      "type": "function"
    },
    {
      "inputs": [
        {
          "internalType": "uint256",
          "name": "productId",
          "type": "uint256"
        },
        {
          "internalType": "uint256",
          "name": "roundId",
          "type": "uint256"
        }
      ],
      "name": "resolveStuckRound",
      "outputs": [],
      "stateMutability": "nonpayable",
      "type": "function"
    },
    {
      "inputs": [
        {
          "internalType": "uint256",
          "name": "",
          "type": "uint256"
        },
        {
          "internalType": "uint256",
          "name": "",
          "type": "uint256"
        }
      ],
      "name": "roundVRFRequestTime",
      "outputs": [
        {
          "internalType": "uint256",
          "name": "",
          "type": "uint256"
        }
      ],
      "stateMutability": "view",
      "type": "function"
    },
    {
      "inputs": [
        {
          "internalType": "uint256",
          "name": "",
          "type": "uint256"
        },
        {
          "internalType": "uint256",
          "name": "",
          "type": "uint256"
        }
      ],
      "name": "rounds",
      "outputs": [
        {
          "internalType": "uint256",
          "name": "productId",
          "type": "uint256"
        },
        {
          "internalType": "uint256",
          "name": "roundId",
          "type": "uint256"
        },
        {
          "internalType": "uint256",
          "name": "ticketsSold",
          "type": "uint256"
        },
        {
          "internalType": "uint256",
          "name": "nextTicketCursor",
          "type": "uint256"
        },
        {
          "internalType": "bool",
          "name": "completed",
          "type": "bool"
        },
        {
          "internalType": "bool",
          "name": "vrfRequested",
          "type": "bool"
        },
        {
          "internalType": "uint256",
          "name": "vrfRequestId",
          "type": "uint256"
        },
        {
          "internalType": "uint256",
          "name": "vrfRandomWord",
          "type": "uint256"
        },
        {
          "internalType": "address",
          "name": "winner",
          "type": "address"
        },
        {
          "internalType": "uint256",
          "name": "winningTicket",
          "type": "uint256"
        },
        {
          "internalType": "uint256",
          "name": "prizePot",
          "type": "uint256"
        },
        {
          "internalType": "uint256",
          "name": "instantPot",
          "type": "uint256"
        }
      ],
      "stateMutability": "view",
      "type": "function"
    },
    {
      "inputs": [
        {
          "internalType": "address",
          "name": "_auditFunds",
          "type": "address"
        }
      ],
      "name": "setAuditFunds",
      "outputs": [],
      "stateMutability": "nonpayable",
      "type": "function"
    },
    {
      "inputs": [
        {
          "internalType": "uint32",
          "name": "_gasLimit",
          "type": "uint32"
        }
      ],
      "name": "setCallbackGasLimit",
      "outputs": [],
      "stateMutability": "nonpayable",
      "type": "function"
    },
    {
      "inputs": [
        {
          "internalType": "address",
          "name": "_treasuryBTC",
          "type": "address"
        },
        {
          "internalType": "address",
          "name": "_referralNetwork",
          "type": "address"
        },
        {
          "internalType": "address",
          "name": "_ambassadorRegistry",
          "type": "address"
        }
      ],
      "name": "setEcosystemAddresses",
      "outputs": [],
      "stateMutability": "nonpayable",
      "type": "function"
    },
    {
      "inputs": [],
      "name": "stableDecimals",
      "outputs": [
        {
          "internalType": "uint8",
          "name": "",
          "type": "uint8"
        }
      ],
      "stateMutability": "view",
      "type": "function"
    },
    {
      "inputs": [],
      "name": "stablecoin",
      "outputs": [
        {
          "internalType": "contract IERC20",
          "name": "",
          "type": "address"
        }
      ],
      "stateMutability": "view",
      "type": "function"
    },
    {
      "inputs": [],
      "name": "subscriptionId",
      "outputs": [
        {
          "internalType": "uint64",
          "name": "",
          "type": "uint64"
        }
      ],
      "stateMutability": "view",
      "type": "function"
    },
    {
      "inputs": [
        {
          "internalType": "uint256",
          "name": "",
          "type": "uint256"
        },
        {
          "internalType": "uint256",
          "name": "",
          "type": "uint256"
        },
        {
          "internalType": "uint256",
          "name": "",
          "type": "uint256"
        }
      ],
      "name": "ticketOwner",
      "outputs": [
        {
          "internalType": "address",
          "name": "",
          "type": "address"
        }
      ],
      "stateMutability": "view",
      "type": "function"
    },
    {
      "inputs": [
        {
          "internalType": "address",
          "name": "newOwner",
          "type": "address"
        }
      ],
      "name": "transferOwnership",
      "outputs": [],
      "stateMutability": "nonpayable",
      "type": "function"
    },
    {
      "inputs": [],
      "name": "treasuryBTC",
      "outputs": [
        {
          "internalType": "address",
          "name": "",
          "type": "address"
        }
      ],
      "stateMutability": "view",
      "type": "function"
    },
    {
      "inputs": [
        {
          "internalType": "uint256",
          "name": "",
          "type": "uint256"
        },
        {
          "internalType": "uint256",
          "name": "",
          "type": "uint256"
        },
        {
          "internalType": "address",
          "name": "",
          "type": "address"
        },
        {
          "internalType": "uint256",
          "name": "",
          "type": "uint256"
        }
      ],
      "name": "userTickets",
      "outputs": [
        {
          "internalType": "uint256",
          "name": "",
          "type": "uint256"
        }
      ],
      "stateMutability": "view",
      "type": "function"
    },
    {
      "inputs": [],
      "name": "vrfCoordinator",
      "outputs": [
        {
          "internalType": "contract VRFCoordinatorV2Interface",
          "name": "",
          "type": "address"
        }
      ],
      "stateMutability": "view",
      "type": "function"
    },
    {
      "inputs": [
        {
          "internalType": "uint256",
          "name": "",
          "type": "uint256"
        }
      ],
      "name": "vrfRequestToProduct",
      "outputs": [
        {
          "internalType": "uint256",
          "name": "",
          "type": "uint256"
        }
      ],
      "stateMutability": "view",
      "type": "function"
    },
    {
      "inputs": [
        {
          "internalType": "uint256",
          "name": "",
          "type": "uint256"
        }
      ],
      "name": "vrfRequestToRound",
      "outputs": [
        {
          "internalType": "uint256",
          "name": "",
          "type": "uint256"
        }
      ],
      "stateMutability": "view",
      "type": "function"
    },
    {
      "inputs": [],
      "name": "withdrawAuditFunds",
      "outputs": [],
      "stateMutability": "nonpayable",
      "type": "function"
    }
  ],
  "bytecode": "0x6101e08060405234620011965761014081620051118038038091620000258285620013e8565b83398101031262001196576200003b816200140c565b60208201519091906001600160401b0381168103620011965760408201519262000068606084016200140c565b9162000077608085016200140c565b6200008560a086016200140c565b916200009460c087016200140c565b93620000a360e088016200140c565b95620000c2610120620000ba6101008b016200140c565b99016200140c565b988260805260016000553315620013975760018054336001600160a01b03198216811790925560405191906001600160a01b03167f8be0079c531659141344cd1fd0a4f28419497f9722a3daafe3b4186f6b6457e0600080a36007805463ffffffff191662035b601790556001600160a01b038416156200135557506001600160a01b038216156200131b576001600160a01b03851615620012e2576001600160a01b03861615620012ab576001600160a01b0387161562001274576001600160a01b038816156200122f576001600160a01b03891615620011ea576001600160a01b038a1615620011b0576001600160a01b03928316610180526101a0939093526101c0929092521660a081905260405163313ce56760e01b815290602090829060049082905afa908115620011a4576000916200115b575b5060ff8160129260c0521611620011165760018060a01b031660e05261010052610120526101405261016052600160a01b9060018060a01b031660018060a81b0319600554161717600555600160ff1960125416176012556040516200026281620013b0565b6040516200027081620013cc565b600581526408c9882a6960db1b60208201528152670de0b6b3a764000060208201526103e8604082015267016345785d8a00008060608301526080820152681b1ae4d6e2ef50000060a0820152600160c08201526000805260096020526040600020815180519060018060401b03821162000c9d578254600181811c911680156200110b575b602082101462000d8057601f8111620010c2575b50602090601f83116001146200106557938260069360c0936200038e9760009262000cb3575b50508160011b916000199060031b1c19161784555b6020810151600185015560408101516002850155606081015160038501556080810151600485015560a081015160058501550151151591019060ff801983541691151516179055565b6040516200039c81620013b0565b604051620003aa81620013cc565b600881526713d49251d253905360c21b60208201528152670de0b6b3a7640000602082015261271060408201526703782dace9d90000806060830152608082015269010f0cf064dd5920000060a0820152600160c0820152600160005260096020526040600020815180519060018060401b03821162000c9d578254600181811c911680156200105a575b602082101462000d8057601f811162001011575b50602090601f831160011462000fb457938260069360c093620004cb9760009262000cb35750508160011b916000199060031b1c19161784556020810151600185015560408101516002850155606081015160038501556080810151600485015560a081015160058501550151151591019060ff801983541691151516179055565b604051620004d981620013b0565b604051620004e781620013cc565b60078152665052454d49554d60c81b602082015281526801158e460913d0000060208201526103e860408201526706f05b59d3b20000806060830152608082015269021e19e0c9bab240000060a0820152600160c0820152600260005260096020526040600020815180519060018060401b03821162000c9d578254600181811c9116801562000fa9575b602082101462000d8057601f811162000f60575b50602090601f831160011462000f0357938260069360c093620006089760009262000cb35750508160011b916000199060031b1c19161784556020810151600185015560408101516002850155606081015160038501556080810151600485015560a081015160058501550151151591019060ff801983541691151516179055565b6040516200061681620013b0565b6040516200062481620013cc565b6005815264454c49544560d81b60208201528152678ac7230489e80000602082015261271060408201526707a1fe16027700008060608301526080820152690a968163f0a57b40000060a0820152600160c0820152600360005260096020526040600020815180519060018060401b03821162000c9d578254600181811c9116801562000ef8575b602082101462000d8057601f811162000eaf575b50602090601f831160011462000e5257938260069360c093620007429760009262000cb35750508160011b916000199060031b1c19161784556020810151600185015560408101516002850155606081015160038501556080810151600485015560a081015160058501550151151591019060ff801983541691151516179055565b6040516200075081620013b0565b6040516200075e81620013cc565b600381526205649560ec1b60208201528152680ad78ebc5ac620000060208201526103e86040820152670bcbce7f1b150000806060830152608082015269152d02c7e14af680000060a0820152600160c0820152600460005260096020526040600020815180519060018060401b03821162000c9d578254600181811c9116801562000e47575b602082101462000d8057601f811162000dfe575b50602090601f831160011462000da157938260069360c0936200087b9760009262000cb35750508160011b916000199060031b1c19161784556020810151600185015560408101516002850155606081015160038501556080810151600485015560a081015160058501550151151591019060ff801983541691151516179055565b6040516200088981620013b0565b6040516200089781620013cc565b6009815268424c41434b424c4f4b60b81b60208201528152680ad78ebc5ac620000060208201526127106040820152670de0b6b3a76400006060820152670de0b6b3a7640000608082015269d3c21bcecceda100000060a0820152600160c0820152600560005260096020526040600020815180519060018060401b03821162000c9d578254600181811c9116801562000d96575b602082101462000d8057601f811162000d37575b50602090601f831160011462000cbf57938260069360c093620009c29760009262000cb35750508160011b916000199060031b1c19161784556020810151600185015560408101516002850155606081015160038501556080810151600485015560a081015160058501550151151591019060ff801983541691151516179055565b60005b6006811062000acd57604051613cef90816200142282396080518161204c015260a05181818161050f01528181610650015281816108e601528181610e1701528181610ffa01528181612b020152613445015260c051818181611fb401526126dd015260e05181818161136e0152818161149c01528181611d65015281816128bf0152613532015261010051818181611c950152612b2a015261012051818181610d5f0152612c6b015261014051818181610da301528181612bf401526134240152610160518181816112fe0152612c3501526101805181818161129f01526130a501526101a05181818161210a015261305401526101c051818181611a6101526130250152f35b80600052600b60205260406000205460018101811162000c875781600052600b602052600181016040600020556040518061018081011060018060401b036101808301111762000c9d576101808101604052828152600182016020820152600060408201526000606082015260006080820152600060a0820152600060c0820152600060e0820152600061010082015260006101208201526000610140820152600061016082015282600052600a602052604060002060018301600052602052600a610160604060002092805184556020810151600185015560408101516002850155606081015160038501556004840162000bdb60808301511515829060ff801983541691151516179055565b60a0820151151561ff0082549160081b169061ff00191617905560c0810151600585015560e081015160068501556007840160018060a01b036101008301511660018060a01b0319825416179055610120810151600885015561014081015160098501550151910155817fb0b0c60f0267584d50a65485b5eff6babad43c5727703515fde33bb545b1911460206001604051944286520193a3600019811462000c8757600101620009c5565b634e487b7160e01b600052601160045260246000fd5b634e487b7160e01b600052604160045260246000fd5b01519050388062000330565b908360005260206000209160005b601f198516811062000d1e57508360c093620009c29793600193600697601f1981161062000d04575b505050811b01845562000345565b015160001960f88460031b161c1916905538808062000cf6565b9192602060018192868501518155019401920162000ccd565b836000526020600020601f840160051c81016020851062000d78575b601f830160051c8201811062000d6b57505062000940565b6000815560010162000d53565b508062000d53565b634e487b7160e01b600052602260045260246000fd5b90607f16906200092c565b908360005260206000209160005b601f198516811062000de557508360c0936200087b9793600193600697601f1981161062000d0457505050811b01845562000345565b9192602060018192868501518155019401920162000daf565b836000526020600020601f840160051c81016020851062000e3f575b601f830160051c8201811062000e32575050620007f9565b6000815560010162000e1a565b508062000e1a565b90607f1690620007e5565b908360005260206000209160005b601f198516811062000e9657508360c093620007429793600193600697601f1981161062000d0457505050811b01845562000345565b9192602060018192868501518155019401920162000e60565b836000526020600020601f840160051c81016020851062000ef0575b601f830160051c8201811062000ee3575050620006c0565b6000815560010162000ecb565b508062000ecb565b90607f1690620006ac565b908360005260206000209160005b601f198516811062000f4757508360c093620006089793600193600697601f1981161062000d0457505050811b01845562000345565b9192602060018192868501518155019401920162000f11565b836000526020600020601f840160051c81016020851062000fa1575b601f830160051c8201811062000f9457505062000586565b6000815560010162000f7c565b508062000f7c565b90607f169062000572565b908360005260206000209160005b601f198516811062000ff857508360c093620004cb9793600193600697601f1981161062000d0457505050811b01845562000345565b9192602060018192868501518155019401920162000fc2565b836000526020600020601f840160051c81016020851062001052575b601f830160051c820181106200104557505062000449565b600081556001016200102d565b50806200102d565b90607f169062000435565b908360005260206000209160005b601f1985168110620010a957508360c0936200038e9793600193600697601f1981161062000d0457505050811b01845562000345565b9192602060018192868501518155019401920162001073565b836000526020600020601f840160051c81016020851062001103575b601f830160051c82018110620010f65750506200030a565b60008155600101620010de565b5080620010de565b90607f1690620002f6565b60405162461bcd60e51b815260206004820152601460248201527f537461626c6520646563696d616c73203e2031380000000000000000000000006044820152606490fd5b90506020813d6020116200119b575b816200117960209383620013e8565b8101031262001196575160ff81168103620011965760ff620001fc565b600080fd5b3d91506200116a565b6040513d6000823e3d90fd5b60405162461bcd60e51b8152602060048201526012602482015271496e76616c696420617564697446756e647360701b6044820152606490fd5b60405162461bcd60e51b815260206004820152601960248201527f496e76616c6964206f7065726174696f6e7353657276696365000000000000006044820152606490fd5b60405162461bcd60e51b815260206004820152601460248201527f496e76616c6964206665657352656365697665720000000000000000000000006044820152606490fd5b60405162461bcd60e51b815260206004820152600f60248201526e24b73b30b634b2103830b93a3732b960891b6044820152606490fd5b60405162461bcd60e51b815260206004820152600f60248201526e24b73b30b634b2103337bab73232b960891b6044820152606490fd5b60405162461bcd60e51b815260206004820152601160248201527024b73b30b634b210272c26103a37b5b2b760791b6044820152606490fd5b60405162461bcd60e51b815260206004820152601260248201527124b73b30b634b21039ba30b13632b1b7b4b760711b6044820152606490fd5b62461bcd60e51b815260206004820152601660248201527f496e76616c696420767266436f6f7264696e61746f72000000000000000000006044820152606490fd5b604051631e4fbdf760e01b815260006004820152602490fd5b60e081019081106001600160401b0382111762000c9d57604052565b604081019081106001600160401b0382111762000c9d57604052565b601f909101601f19168101906001600160401b0382119082101762000c9d57604052565b51906001600160a01b0382168203620011965756fe61016080604052600436101561001457600080fd5b6000803560e01c91826309c1ba2e146120ec57508163182be553146120c45781631fe543e314611fd85781632104d3fa14611f9b57816324f7469714611f7857816336834cd414611f5357816341259bc014611e9657816342b511c414611e6d57816344969fba14611d2e5781634644ea4b14611d0657816349f474af14611ce95781634a4e3bd514611cc45781634d853ee514611c8057816350cfd41e14611c4857816351858e2714611c2057816358218923146104cd5781635c975abb14611bfe5781635eafb55314611aa057816360ae23f614611a8457816361728f3914611a4a57816361b9722b1461173557816367f082b01461171a578163690e4b52146116ff5781636b12ec5c146116da5781636bf9c04a146116b55781636e0e5332146115ff578163715018a6146115e757816372cf6e34146115cc5781637acc0b20146115135781637b73ca82146104cd57816380b70e37146114cb57816387d4704f146102cc57816389ef723b146114875781638da5cb5b1461145f5781638dabaf671461132d5781638efc3f31146112e9578163976286e2146112ce578163a3e56fa81461128a578163a4eb718c146111f7578163a792813c14610e9a578163aa5f7fcc14610e6e578163b402f4d314610dd2578163bca93cf514610d8e578163be10862b14610d4a578163be8c2feb14610d22578163c6ae540d146102cc578163cb1b510614610cb2578163d5aa06fa14610c89578163d8b945aa1461070d578163daeadc5e146102cc578163dc66f11f14610612578163e05dac05146105f6578163e6da92131461053e578163e9cbd822146104fa578163eb348f83146104d2578163eef9b699146104cd578163f1ea8288146103dc578163f2fde38b14610352578163f4d1c5f614610335578163f64d85af1461030c578163fc4d6cd2146102d1575063ff396d6b146102cc57600080fd5b6122f9565b34610309576020366003190112610309576020906040906001600160a01b036102f86121ca565b168152601083522054604051908152f35b80fd5b346103095760203660031901126103095760406020916004358152600b83522054604051908152f35b34610309578060031936011261030957602060405162093a808152f35b346103095760203660031901126103095761036b6121ca565b61037361232e565b6001600160a01b039081169081156103c357600154826001600160601b0360a01b821617600155167f8be0079c531659141344cd1fd0a4f28419497f9722a3daafe3b4186f6b6457e0600080a380f35b604051631e4fbdf760e01b815260048101849052602490fd5b346103095780600319360112610309576103f461232e565b60125460ff8160081c16156104925760ff8160101c161561044d5760ff19166012557f0b4a492ee310b9c1e8e5a63313d28ed5a5285fecf69482d9bf579675f75a272c8180a161044261232e565b61044a61235a565b80f35b60405162461bcd60e51b815260206004820152601b60248201527f4e584c207472656173757279206e6f7420636f6e6669677572656400000000006044820152606490fd5b60405162461bcd60e51b815260206004820152601360248201527214d95d081958dbdcde5cdd195b48199a5c9cdd606a1b6044820152606490fd5b6121f6565b346103095780600319360112610309576002546040516001600160a01b039091168152602090f35b346103095780600319360112610309576040517f00000000000000000000000000000000000000000000000000000000000000006001600160a01b03168152602090f35b346103095760406101809161055236612212565b908252600a60205282822090825260205220805490600181015490600281015460038201546004830154600584015460ff60068601549260018060a01b0360078801541694600888015496600a60098a0154990154996040519b8c5260208c015260408b015260608a0152818116151560808a015260081c16151560a088015260c087015260e0860152610100850152610120840152610140830152610160820152f35b3461030957806003193601126103095760206040516113888152f35b3461030957806003193601126103095761062a6126b6565b6005546001600160a01b031633036106d75760065480156106a7578160065561067481337f0000000000000000000000000000000000000000000000000000000000000000612f54565b6040519081527f87b69857165e557bec74ede39e74144bd8c93c5fd3497b1064aca8ee3aeec72e60203392a26001815580f35b60405162461bcd60e51b81526020600482015260086024820152674e6f2066756e647360c01b6044820152606490fd5b60405162461bcd60e51b815260206004820152600e60248201526d139bdd08185d5d1a1bdc9a5e995960921b6044820152606490fd5b346103095760603660031901126103095767ffffffffffffffff8060243511610c8557366023602435011215610c855760243560040135116103095736602480356004013560051b8135010111610309576107666121e0565b61076e6126b6565b61077d60ff60125416156123d4565b61078b600660043510612409565b600435825260096020526107a860ff600660408520015416612447565b6004358252600b602052604082205490600a602052604083208284526020526040832060043584526009602052604084209160ff6006604051946107eb86612158565b6107f481612228565b865260018101546020870152600281015460408701526003810154606087015260048101546080870152600581015460a0870152015416151560c084015261084360ff60048401541615612486565b6024356004013515610c4e57600160243560040135148015610c3e575b8015610c2e575b8015610c1e575b610877906124c4565b61089a61088e6024356004013560028501546124fe565b60408501511015612521565b6108a684600435612800565b845b602435600401358110610a9c57506108d26108cd602435600401356020860151612581565b6126d9565b916108de831515612594565b61090a8330337f000000000000000000000000000000000000000000000000000000000000000061260c565b855b602435600401358110610a18575061092e6024356004013560028301546124fe565b60028201556040516004602435013580825260606020830181905282018190529092906001600160fb1b0310610a14576040936109c56109cf926002956024356004013560051b6024803501608083013783888201528933917f312ffeb81136178607528c21ab6d9c6bf3eab08cb7eb3ed968c8aa9d9bef9fd0600435916080816024356004013560051b8101030190a433612980565b3387600435612a90565b6109ef6004356109e9602435600401356060880151612581565b33613509565b015491015114610a02575b506001815580f35b610a0e90600435612fcd565b816109fa565b8680fd5b80610a92610a34610a9793602435600401356024803501612571565b356004358a52600c60205260408a20898b5260205260408a20818b5260205260408a20336001600160601b0360a01b8254161790556004358a52600d60205260408a20898b5260205260408a203360005260205260406000206125d2565b612562565b61090c565b610ab181602435600401356024803501612571565b3560408501511115610be8576004358652600c6020526040862085875260205260408620610aea82602435600401356024803501612571565b35875260205260408620546001600160a01b0316610bb55760018101808211610ba1575b602435600401358110610b2a5750610b2590612562565b6108a8565b610b3f82602435600401356024803501612571565b35610b5582602435600401356024803501612571565b3514610b6957610b6490612562565b610b0e565b60405162461bcd60e51b815260206004820152601060248201526f111d5c1b1a58d85d19481d1a58dad95d60821b6044820152606490fd5b634e487b7160e01b87526011600452602487fd5b60405162461bcd60e51b815260206004820152600b60248201526a151a58dad95d081cdbdb1960aa1b6044820152606490fd5b60405162461bcd60e51b815260206004820152600e60248201526d125b9d985b1a59081d1a58dad95d60921b6044820152606490fd5b5060046024350135600a1461086e565b5060056024356004013514610867565b5060036024356004013514610860565b60405162461bcd60e51b815260206004820152600f60248201526e4d7573742073656c656374203e3d3160881b6044820152606490fd5b5080fd5b346103095760203660031901126103095760406020916004358152600f83522054604051908152f35b3461030957608036600319011261030957610ccb6121e0565b90606435916004358252600d602052604082206024358352602052604082209060018060a01b03166000526020526040600020908154831015610309576020610d148484612316565b90546040519160031b1c8152f35b346103095780600319360112610309576004546040516001600160a01b039091168152602090f35b346103095780600319360112610309576040517f00000000000000000000000000000000000000000000000000000000000000006001600160a01b03168152602090f35b346103095780600319360112610309576040517f00000000000000000000000000000000000000000000000000000000000000006001600160a01b03168152602090f35b34610309578060031936011261030957610dea6126b6565b33815260106020526040812054610e028115156134ca565b3382526010602052816040812055610e3b81337f0000000000000000000000000000000000000000000000000000000000000000612f54565b6040519081527fd8138f8a3f377c5259ca548e70e4c2de94f129f5a11036a15b69513cba2b426a60203392a26001815580f35b34610309576040602091610e8136612212565b9082526008845282822090825283522054604051908152f35b3461030957606036600319011261030957610eb36121e0565b610ebb6126b6565b610eca60ff60125416156123d4565b610ed8600660043510612409565b60043582526009602052610ef560ff600660408520015416612447565b60016024351480156111eb575b80156111df575b80156111d3575b610f19906124c4565b6004358252600b602052604082205490600a602052604083208284526020526040832060043584526009602052604084209160ff600660405194610f5c86612158565b610f6581612228565b865260018101546020870152600281015460408701526003810154606087015260048101546080870152600581015460a0870152015416151560c0840152610fb460ff60048401541615612486565b610fc761088e60243560028501546124fe565b610fd384600435612800565b610fe66108cd6024356020860151612581565b90610ff2821515612594565b61101e8230337f000000000000000000000000000000000000000000000000000000000000000061260c565b6110296024356121b2565b6110366040519182612190565b6024358152601f196110496024356121b2565b01366020830137865b6024358110611100575085604051916060830160243584526060602085015281518091526020608085019201908a5b8181106110e757505050604095938386936109c5936002988a6110d19801527f312ffeb81136178607528c21ab6d9c6bf3eab08cb7eb3ed968c8aa9d9bef9fd0339380600435930390a433612980565b6109ef6004356109e96024356060880151612581565b825184528a945060209384019390920191600101611081565b6111128560408801518960043561274d565b6004358952600c60205260408920888a5260205260408920818a5260205260408920336001600160601b0360a01b8254161790556004358952600d60205260408920888a5260205260408920336000526020526111738160406000206125d2565b82518210156111bd5760208260051b840101526002850154600181018091116111a95760028601556111a490612562565b611052565b634e487b7160e01b89526011600452602489fd5b634e487b7160e01b600052603260045260246000fd5b50602435600a14610f10565b50600560243514610f09565b50600360243514610f02565b346103095760203660031901126103095760043563ffffffff8116809103610c855761122161232e565b620186a08110158061127d575b156112445763ffffffff19600754161760075580f35b60405162461bcd60e51b8152602060048201526011602482015270125b9d985b1a590819d85cc81b1a5b5a5d607a1b6044820152606490fd5b506207a12081111561122e565b346103095780600319360112610309576040517f00000000000000000000000000000000000000000000000000000000000000006001600160a01b03168152602090f35b34610309578060031936011261030957602060405160068152f35b346103095780600319360112610309576040517f00000000000000000000000000000000000000000000000000000000000000006001600160a01b03168152602090f35b346103095780600319360112610309576113456126b6565b3381526011602052604081205461135d8115156134ca565b3382526011602052604082208290557f00000000000000000000000000000000000000000000000000000000000000006001600160a01b0316803b1561145b576040516307b22ee360e21b81523360048201526024810183905290839081908390604490829084905af19182611447575b505061141457503390526011602052606460405162461bcd60e51b815260206004820152601060248201526f1396130818db185a5b4819985a5b195960821b6044820152fd5b6040519081527f2ae2419f267b533feaa7c0b1c08eafb96af442c583a72e722f0f04d16ac0123f60203392a26001815580f35b6114509061212e565b61145b5782846113ce565b8280fd5b346103095780600319360112610309576001546040516001600160a01b039091168152602090f35b346103095780600319360112610309576040517f00000000000000000000000000000000000000000000000000000000000000006001600160a01b03168152602090f35b34610309576060366003190112610309576020906004358152600c825260408120602435825282526040812060443582528252604060018060a01b0391205416604051908152f35b34610309576020908160031936011261030957600435815260098252604081209061153d82612228565b600183015492600281015490600381015460048201549060ff6006600585015494015416936040519760e089528651968760e08b0152885b8881106115b7575050889961010099988a898b01015288015260408701526060860152608085015260a0840152151560c0830152601f80199101168101030190f35b8181018c01518b820161010001528b01611575565b34610309578060031936011261030957602060405160018152f35b3461030957806003193601126103095761044261232e565b346103095760203660031901126103095760043561161b61232e565b61162760068210612409565b808252600960205260ff60066040842001541661167f57808252600960205260408220600601805460ff191660011790557fdafa141a8af958d7a84cabde0f7268b548a11e070a9576865e8ac71d7107bce98280a280f35b60405162461bcd60e51b815260206004820152600e60248201526d416c72656164792061637469766560901b6044820152606490fd5b34610309578060031936011261030957602060ff60125460101c166040519015158152f35b34610309578060031936011261030957602060ff60055460a01c166040519015158152f35b34610309578060031936011261030957602060405160c88152f35b34610309578060031936011261030957602060405160038152f35b346103095761174336612212565b919061174d6126b6565b808252602092600a845260408320818452845260408320906004820180549260ff8460081c1680611a3f575b15611a085784865260088752604086208387528752604086205480156119d15762093a808101809111610ba1574211156119965784865260098752604086206118206040516117c781612158565b6117d083612228565b815260018301548a82015260028301549060c060ff600660408401968588526003810154606086015260048101546080860152600581015460a08601520154161515910152600284015414612f90565b600019430143811161198257611873906040518a8101914283524460408301524060608201523060601b60808201528860948201528660b482015260b4815261186881612158565b519020915182612743565b868852600c89526040808920868a528a52808920828a528a528820546001600160a01b03169590939086156119505793600984611909856119499c9d9560018d9a60409960067e706d4e712e28530b00b7eb917a52cdd384f93a89105f8161b97223b3ae18719c01558d60078701906001600160601b0360a01b82541617905587600887015560ff1916179055848b8b8b613357565b87877f256c24db62a6bb5e3e592c0438279e709f1df5af4db53c20b3cbfe603bfb067d8780518781528d89820152a30154918351928352820152a46136f2565b6001815580f35b60405162461bcd60e51b8152600481018b9052600a6024820152692130b2103bb4b73732b960b11b6044820152606490fd5b634e487b7160e01b88526011600452602488fd5b60405162461bcd60e51b8152600481018890526013602482015272151a5b595bdd5d081b9bdd081c995858da1959606a1b6044820152606490fd5b60405162461bcd60e51b815260048101899052600f60248201526e4e6f20726571756573742074696d6560881b6044820152606490fd5b60405162461bcd60e51b815260048101889052600f60248201526e526f756e64206e6f7420737475636b60881b6044820152606490fd5b5060ff841615611779565b3461030957806003193601126103095760206040517f00000000000000000000000000000000000000000000000000000000000000008152f35b3461030957806003193601126103095760206040516101f48152f35b3461030957606036600319011261030957611ab96121ca565b6001600160a01b036024358181169290839003611bf957611ad86121e0565b90611ae161232e565b6012549360ff8560081c16611bcb5760025491848316611b98577f6a67b1c8894b3cd9ea20c8d1fd6c8b51eb04c080639332340f9da26750e35d7d958560609661010093169586151580611b8f575b80611b84575b611b3f9061239e565b866001600160601b0360a01b8097161760025584866003541617600355168094600454161760045561ff0019161760125560405192835260208301526040820152a180f35b508082161515611b36565b50841515611b30565b60405162461bcd60e51b815260206004820152600b60248201526a105b1c9958591e481cd95d60aa1b6044820152606490fd5b60405162461bcd60e51b8152602060048201526006602482015265131bd8dad95960d21b6044820152606490fd5b600080fd5b34610309578060031936011261030957602060ff601254166040519015158152f35b34610309578060031936011261030957611c3861232e565b600160ff19601254161760125580f35b34610309576020366003190112610309576020906040906001600160a01b03611c6f6121ca565b168152601183522054604051908152f35b346103095780600319360112610309576040517f00000000000000000000000000000000000000000000000000000000000000006001600160a01b03168152602090f35b34610309578060031936011261030957611cdc61232e565b60ff196012541660125580f35b346103095780600319360112610309576020600654604051908152f35b346103095780600319360112610309576003546040516001600160a01b039091168152602090f35b3461030957602036600319011261030957611d476121ca565b611d4f61232e565b6001600160a01b03908116908115611e355782907f000000000000000000000000000000000000000000000000000000000000000016803b15610c85578190602460405180948193631daed9cb60e21b83528760048401525af18015611e2a57611df4575b5060207f6e4ef29a2f35618644973d5d436189a9d7bcb686de432d7683866c8ead7cb2ff916201000062ff0000196012541617601255604051908152a180f35b7f6e4ef29a2f35618644973d5d436189a9d7bcb686de432d7683866c8ead7cb2ff9192611e2260209261212e565b929150611db4565b6040513d85823e3d90fd5b60405162461bcd60e51b815260206004820152601060248201526f496e76616c696420747265617375727960801b6044820152606490fd5b346103095760203660031901126103095760406020916004358152600e83522054604051908152f35b3461030957602036600319011261030957611eaf6121ca565b611eb761232e565b6005549060ff8260a01c16611f1f577fe125fc1c4fc17681e50eef0705e1f33efe22f55c6fa0dcf19096b5cf2b41f495916020916001600160a01b031690611f0082151561239e565b6001600160a81b0319168117600160a01b17600555604051908152a180f35b60405162461bcd60e51b815260206004820152600c60248201526b105d591a5d081b1bd8dad95960a21b6044820152606490fd5b34610309578060031936011261030957602060ff60125460081c166040519015158152f35b34610309578060031936011261030957602063ffffffff60075416604051908152f35b34610309578060031936011261030957602060405160ff7f0000000000000000000000000000000000000000000000000000000000000000168152f35b346103095760403660031901126103095760243567ffffffffffffffff8111610c855736602382011215610c85578060040135612014816121b2565b916120226040519384612190565b81835260209160248385019160051b830101913683116120c057602401905b8282106120b15785857f00000000000000000000000000000000000000000000000000000000000000006001600160a01b0381163303612088575061044a906004356131b1565b60405163073e64fd60e21b81523360048201526001600160a01b03919091166024820152604490fd5b81358152908301908301612041565b8580fd5b346103095780600319360112610309576005546040516001600160a01b039091168152602090f35b34610c855781600319360112610c855760209067ffffffffffffffff7f0000000000000000000000000000000000000000000000000000000000000000168152f35b67ffffffffffffffff811161214257604052565b634e487b7160e01b600052604160045260246000fd5b60e0810190811067ffffffffffffffff82111761214257604052565b60a0810190811067ffffffffffffffff82111761214257604052565b90601f8019910116810190811067ffffffffffffffff82111761214257604052565b67ffffffffffffffff81116121425760051b60200190565b600435906001600160a01b0382168203611bf957565b604435906001600160a01b0382168203611bf957565b34611bf9576000366003190112611bf957602060405160648152f35b6040906003190112611bf9576004359060243590565b90604051906000835490600182811c908084169687156122ef575b60209485841089146122db57879884899798995290816000146122b9575060011461227a575b50505061227892500383612190565b565b600090815285812095935091905b8183106122a15750506122789350820101388080612269565b85548884018501529485019487945091830191612288565b9250505061227894925060ff191682840152151560051b820101388080612269565b634e487b7160e01b85526022600452602485fd5b91607f1691612243565b34611bf9576000366003190112611bf95760206040516103e88152f35b80548210156111bd5760005260206000200190600090565b6001546001600160a01b0316330361234257565b60405163118cdaa760e01b8152336004820152602490fd5b600180546001600160a01b031981169091556000906001600160a01b03167f8be0079c531659141344cd1fd0a4f28419497f9722a3daafe3b4186f6b6457e08280a3565b156123a557565b60405162461bcd60e51b8152602060048201526007602482015266125b9d985b1a5960ca1b6044820152606490fd5b156123db57565b60405162461bcd60e51b815260206004820152600660248201526514185d5cd95960d21b6044820152606490fd5b1561241057565b60405162461bcd60e51b815260206004820152600f60248201526e125b9d985b1a59081c1c9bd91d58dd608a1b6044820152606490fd5b1561244e57565b60405162461bcd60e51b815260206004820152601060248201526f50726f6475637420696e61637469766560801b6044820152606490fd5b1561248d57565b60405162461bcd60e51b815260206004820152600f60248201526e149bdd5b990818dbdb5c1b195d1959608a1b6044820152606490fd5b156124cb57565b60405162461bcd60e51b815260206004820152600b60248201526a496e76616c69642071747960a81b6044820152606490fd5b9190820180921161250b57565b634e487b7160e01b600052601160045260246000fd5b1561252857565b60405162461bcd60e51b81526020600482015260126024820152714e6f7420656e6f756768207469636b65747360701b6044820152606490fd5b600019811461250b5760010190565b91908110156111bd5760051b0190565b8181029291811591840414171561250b57565b1561259b57565b60405162461bcd60e51b815260206004820152600f60248201526e141c9a58d9481d1bdbc81cdb585b1b608a1b6044820152606490fd5b805468010000000000000000811015612142576125f491600182018155612316565b819291549060031b91821b91600019901b1916179055565b6040516323b872dd60e01b60208201526001600160a01b0392831660248201529290911660448301526064808301939093529181526122789161264e82612174565b906000602091828151910182855af1156126aa576000513d6126a157506001600160a01b0381163b155b61267f5750565b604051635274afe760e01b81526001600160a01b039091166004820152602490fd5b60011415612678565b6040513d6000823e3d90fd5b6002600054146126c7576002600055565b604051633ee5aeb560e01b8152600490fd5b60ff7f0000000000000000000000000000000000000000000000000000000000000000166012811461273f5760120360ff811161250b5760ff16604d811161250b57600a0a908115612729570490565b634e487b7160e01b600052601260045260246000fd5b5090565b8115612729570690565b60005b83811061278e5760405162461bcd60e51b815260206004820152600f60248201526e139bc81d1a58dad95d1cc81b19599d608a1b6044820152606490fd5b6003850161279d858254612743565b90600182019081831161250b57556000838152600c6020908152604080832087845282528083208484529091529020546001600160a01b0316156127ea57506127e590612562565b612750565b94505050505090565b9190820391821161250b57565b9060008281526128a9602093600985526128a16040946128998686209387519261282984612158565b61283286612228565b845260018601548a8501526002860154918985019283526003870154946060810195865260c060ff600660048b01549a608085019b8c52600581015460a086015201541615159101528852600a8a52888820908852895260028888209151910154906127f3565b905190612581565b9051906124fe565b8251633f27266b60e21b815290919084816004817f00000000000000000000000000000000000000000000000000000000000000006001600160a01b03165afa918215612975578092612945575b505010612902575050565b60649250519062461bcd60e51b82526004820152601a60248201527f496e73756666696369656e74204e584c20666f7220726f756e640000000000006044820152fd5b9091508482813d831161296e575b61295d8183612190565b8101031261030957505138806128f7565b503d612953565b8451903d90823e3d90fd5b6003546001600160a01b0390811692908315612a6a578082168015908115612a70575b50612a6a57604051630308a59b60e31b81529083166004820152602081602481875afa9081156126aa57600091612a30575b50156129e057505050565b823b15611bf95760405163bbddaca360e01b81526001600160a01b03928316600482015291166024820152906000908290604490829084905af180156126aa57612a275750565b6122789061212e565b6020813d8211612a62575b81612a4860209383612190565b81010312610c8557519081151582036103095750386129d5565b3d9150612a3b565b50505050565b905081841614386129a3565b51906001600160a01b0382168203611bf957565b9291926000908152600a602052604091828220908252602052818120916113888085029585159186880414821715612f40576103e895868102968188048114841715612f2c57600a61271080990497612af08a600983019c048c546124fe565b8b5501612afe8882546124fe565b90557f0000000000000000000000000000000000000000000000000000000000000000978690612b4f897f00000000000000000000000000000000000000000000000000000000000000008c612f54565b6002546001600160a01b039490851615612f1657826111a957612b778a86600254168d612f54565b8460025416803b15612f125789809160248d8c5194859384926314c77c6560e11b845260048401525af1612eff575b505b60048054909790861615612ed857858854166101f48084029084820414831715612ec557612bda91858f920491612f54565b60c8820282810460c814821715612eb25783612c1991048d7f000000000000000000000000000000000000000000000000000000000000000090612f54565b606482029182046064141715612dcd5790612c909104612c5a817f00000000000000000000000000000000000000000000000000000000000000008d612f54565b612c66816006546124fe565b6006557f00000000000000000000000000000000000000000000000000000000000000008b612f54565b612e9f57859782600354169182612ccc575b505050505050505090612cb4916127f3565b80612cbd575050565b612cc89082546124fe565b9055565b8651636667864d60e01b815285851687820152606081602481875afa908115612e9557858a8b928c94612e3b575b5016612e1d575b8516612de0575b8416612da4575b5088612d1c575b80612ca2565b612d27918991612f54565b6003541691823b15612da05783516375003aa160e01b81526001600160a01b0390921690820190815260208101879052909291849184919082908490829060400103925af1908115612d975750612d83575b8080808080612d16565b612d8d829161212e565b6103095780612d79565b513d84823e3d90fd5b8480fd5b60c8899a929a0289810460c8148a151715612dcd5790612dc6929104906124fe565b9738612d0f565b634e487b7160e01b895260118752602489fd5b9961012c808b02908b8204148b151715612e0a57859183612e029204906124fe565b9a9050612d08565b634e487b7160e01b8a526011885260248afd5b9a506101f4808b02908b8204148b151715612e0a578290049a612d01565b93505050506060813d8211612e8d575b81612e5860609383612190565b81010312612e8957612e6981612a7c565b85612e818a612e7a60208601612a7c565b9401612a7c565b929138612cfa565b8880fd5b3d9150612e4b565b88513d8b823e3d90fd5b634e487b7160e01b865260118452602486fd5b634e487b7160e01b8b526011895260248bfd5b634e487b7160e01b8c5260118a5260248cfd5b6101f48083029083820414821715612eb2578d84612ef8920490546124fe565b8d55612bda565b612f0b9099919961212e565b9738612ba6565b8980fd5b91508791612f258a8d546124fe565b8c55612ba8565b634e487b7160e01b86526011600452602486fd5b634e487b7160e01b84526011600452602484fd5b60405163a9059cbb60e01b60208201526001600160a01b039290921660248301526044808301939093529181526122789161264e606483612190565b15612f9757565b60405162461bcd60e51b815260206004820152600e60248201526d149bdd5b99081b9bdd08199d5b1b60921b6044820152606490fd5b6000818152602090600a82526040808220858352835280822092600484019360ff855460081c16613176576130146002820154878652600984526002858720015414612f90565b60075483516305d3b1d360e41b81527f0000000000000000000000000000000000000000000000000000000000000000600482015267ffffffffffffffff7f00000000000000000000000000000000000000000000000000000000000000001660248201526003604482015263ffffffff90911660648201526001608482015294828660a481886001600160a01b037f0000000000000000000000000000000000000000000000000000000000000000165af195861561316c57859661313a575b50858552600e8352838520879055600f8352838520889055805461ff00191661010017905560050184905584835260088152818320868452905281204290557f3f627f5e911e5f6d4e28a76a1af48bb55c89492569daa91a48a7330789dd1e5e9080a4565b909195508281813d8311613165575b6131538183612190565b81010312612da05751949060056130d5565b503d613149565b84513d87823e3d90fd5b50606491519062461bcd60e51b82526004820152601560248201527415949188185b1c9958591e481c995c5d595cdd1959605a1b6044820152fd5b6000908152602091600e83526040928383205492600f82528481205491848252600a815285822083835281528582209585835260098252808320918151936131f885612158565b61320184612228565b855260018401548286015260028401549460c060ff6006868401978989526003810154606086015260048101546080860152600581015460a08601520154161515910152600489019687549560ff8760081c1615801561334d575b6133405760028b0154036133205780511561332c5782613280910151945185612743565b888252600c83528382208783528352838220818352835290839020546001600160a01b0316968715613320578961330f8660099360018d9a6122789f9a60067e706d4e712e28530b00b7eb917a52cdd384f93a89105f8161b97223b3ae18719c01558d60078701906001600160601b0360a01b82541617905587600887015560ff1916179055848b8b8b613357565b0154918351928352820152a46136f2565b50505050505050505050565b634e487b7160e01b82526032600452602482fd5b5050505050505050505050565b5060ff871661325c565b92906133fc61227895600093868552600a6020526040852084865260205260408520938786526009602052604086209560405161339381612158565b61339c88612228565b815260018801546020820152600288015460408201526003880154606082015260c060ff600660048b01549a608085019b8c52600581015460a086015201541615159101526133ef600987015489613470565b8760a0526080528761386c565b600a608051910154818111613415575b50505190613509565b61346991613422916127f3565b7f00000000000000000000000000000000000000000000000000000000000000007f0000000000000000000000000000000000000000000000000000000000000000612f54565b388061340c565b81156134c65760207f37188942ca914a9a4b1824299eb9271c52627e054678d409439f1ce5b34628239160018060a01b031692836000526010825260406000206134bb8282546124fe565b9055604051908152a2565b5050565b156134d157565b60405162461bcd60e51b815260206004820152601060248201526f4e6f7468696e6720746f20636c61696d60801b6044820152606490fd5b91906000908015612a6a5760408051633f27266b60e21b81526001600160a01b039260209290917f00000000000000000000000000000000000000000000000000000000000000008516908481600481855afa90811561369b57908491889161366a575b501061361a57803b156120c05781516307b22ee360e21b81526001600160a01b0389166004820152602481018490529086908290604490829084905af19081613607575b506135fe57807fdd70b41bbef091f98f5388c2ff8a6ccaf7c77729f334e783761fb1c6088c003f9461227898169586815260118552206135f28382546124fe565b905551908152a26136a5565b50505050505050565b6136139096919661212e565b94386135b1565b509193959282919361364c7fdd70b41bbef091f98f5388c2ff8a6ccaf7c77729f334e783761fb1c6088c003f976136a5565b169586815260118552206136618382546124fe565b905551908152a2565b809250868092503d8311613694575b6136838183612190565b81010312610a14578390513861356d565b503d613679565b83513d89823e3d90fd5b8060005260096020526006604060002001805460ff81166136c557505050565b60ff191690557fa59be52632c4b7921b8b3fbd4b3904513421c74fe4fbdb2f7ceef33b87fe3bf6600080a2565b80600052600b60205260409081600020549160018301831161250b5781600052600b6020526001830181600020558051610180810181811067ffffffffffffffff82111761214257826020926001927fb0b0c60f0267584d50a65485b5eff6babad43c5727703515fde33bb545b191149552858152600a61016085830192858a018452888a8683016000815260608401906000825260808501916000835260a08601916000835260c08701946000865260e08801966000885260006101008a015260006101208a015260006101408a015260008a8a0152600052898e528c8c60002091016000528d528a6000209987518b55518c8b01555160028a015551600389015560048801915115159060ff61ff0084549251151560081b1692169061ffff19161717905551600586015551600685015560078401868060a01b03610100830151166001600160601b0360a01b82541617905561012081015160088501556101408101516009850155015191015551944286520193a3565b919392600060805282600052600a6020526040600020826000526020526040600020836000526009602052604060002095604051906138aa82612158565b6138b388612228565b82526001880154602083015260ff600660028a0154998a60408601526003810154606086015260048101546080860152600581015460a0860152015416151560c08301528715613caa576103e890818906613c9a576029828a04810204828a040361250b57600a828a04810204828a040361250b576005828a04810204828a040361250b5781890460060260068104838b040361250b5761396d90613968848c0460058102908290600a8102906029026124fe565b6124fe565b6101005260208301518080046001148115171561250b5761398d906126d9565b9560208401518060011b908082046002149015171561250b576139af906126d9565b95602085015160038102908082046003149015171561250b576139d1906126d9565b9560208601518060021b908082046004149015171561250b576139f56020916126d9565b9601516064868e04818102918204900361250b576108cd613a1891600a93612581565b918260e052015410613c88578a60001981011161250b57613a3d6000198c0182612743565b60018101811161250b57600101610120525b610120518b90815b613c77576001915014613a86578a613a7161012051612562565b806101205210613a4f57600161012052613a4f565b8a613ac3919b999a9b604051602081019182528c60408201528460608201523060601b608082015260748152613abb81612174565b519020612743565b98600061014052613ad7610100518a6124fe565b60c0526000995b60c0518b1080613c68575b156133405760e05160805110156133405789613b0c613b119261012051906124fe565b612743565b99838b14613c5f5781600052600c60205260406000208360005260205260406000208b60005260205260018060a01b03908160406000205416918215613c545760a051168214613c4a57858b046029026101405110600014613bf15789915b613b7e60805160e0516127f3565b8015613be157808411613bd9575b508215613bca5782613ba4613bc494613bac93613470565b6080516124fe565b608052613bbb61014051612562565b61014052612562565b99613ade565b50505050505050505050505050565b925038613b8c565b5050505050505050505050505050565b613c05868c04600a02878d046029026124fe565b610140511015613c16578891613b70565b613c32868c04600581029061396890600a8102906029026124fe565b610140511015613c43578791613b70565b8691613b70565b613bc49150612562565b50613bc49150612562565b613bc490612562565b50610100516101405110613ae9565b81613c8191612743565b9081613a57565b50505050505050505090506000608052565b5050505050505090506000608052565b5050505050509050600060805256fea26469706673582212203e36f0517b577e01c38e3294633ed98d7132e042ca5923c7e780a3a5f1f4375664736f6c63430008140033",
  "linkReferences": {},
  "deployedLinkReferences": {}
}