{
  "_format": "hh-sol-artifact-1",
  "contractName": "NXLToken",
  "sourceName": "contracts/NXLToken.sol",
  "abi": [
    {
      "inputs": [
        {
          "internalType": "address",
          "name": "_founderAddress",
          "type": "address"
        },
        {
          "internalType": "address",
          "name": "_partnerAddress",
          "type": "address"
        }
      ],
      "stateMutability": "nonpayable",
      "type": "constructor"
    },
    {
      "inputs": [],
      "name": "CheckpointUnorderedInsertion",
      "type": "error"
    },
    {
      "inputs": [
        {
          "internalType": "address",
          "name": "spender",
          "type": "address"
        },
        {
          "internalType": "uint256",
          "name": "allowance",
          "type": "uint256"
        },
        {
          "internalType": "uint256",
          "name": "needed",
          "type": "uint256"
        }
      ],
      "name": "ERC20InsufficientAllowance",
      "type": "error"
    },
    {
      "inputs": [
        {
          "internalType": "address",
          "name": "sender",
          "type": "address"
        },
        {
          "internalType": "uint256",
          "name": "balance",
          "type": "uint256"
        },
        {
          "internalType": "uint256",
          "name": "needed",
          "type": "uint256"
        }
      ],
      "name": "ERC20InsufficientBalance",
      "type": "error"
    },
    {
      "inputs": [
        {
          "internalType": "address",
          "name": "approver",
          "type": "address"
        }
      ],
      "name": "ERC20InvalidApprover",
      "type": "error"
    },
    {
      "inputs": [
        {
          "internalType": "address",
          "name": "receiver",
          "type": "address"
        }
      ],
      "name": "ERC20InvalidReceiver",
      "type": "error"
    },
    {
      "inputs": [
        {
          "internalType": "address",
          "name": "sender",
          "type": "address"
        }
      ],
      "name": "ERC20InvalidSender",
      "type": "error"
    },
    {
      "inputs": [
        {
          "internalType": "address",
          "name": "spender",
          "type": "address"
        }
      ],
      "name": "ERC20InvalidSpender",
      "type": "error"
    },
    {
      "anonymous": false,
      "inputs": [
        {
          "indexed": true,
          "internalType": "address",
          "name": "owner",
          "type": "address"
        },
        {
          "indexed": true,
          "internalType": "address",
          "name": "spender",
          "type": "address"
        },
        {
          "indexed": false,
          "internalType": "uint256",
          "name": "value",
          "type": "uint256"
        }
      ],
      "name": "Approval",
      "type": "event"
    },
    {
      "anonymous": false,
      "inputs": [
        {
          "indexed": true,
          "internalType": "address",
          "name": "manager",
          "type": "address"
        }
      ],
      "name": "NexumManagerSet",
      "type": "event"
    },
    {
      "anonymous": false,
      "inputs": [
        {
          "indexed": true,
          "internalType": "address",
          "name": "recipient",
          "type": "address"
        },
        {
          "indexed": false,
          "internalType": "uint256",
          "name": "amount",
          "type": "uint256"
        }
      ],
      "name": "RewardDistributed",
      "type": "event"
    },
    {
      "anonymous": false,
      "inputs": [
        {
          "indexed": false,
          "internalType": "uint256",
          "name": "snapshotId",
          "type": "uint256"
        },
        {
          "indexed": false,
          "internalType": "uint256",
          "name": "blockNumber",
          "type": "uint256"
        }
      ],
      "name": "SnapshotCreated",
      "type": "event"
    },
    {
      "anonymous": false,
      "inputs": [
        {
          "indexed": false,
          "internalType": "uint256",
          "name": "amount",
          "type": "uint256"
        }
      ],
      "name": "TokensBurned",
      "type": "event"
    },
    {
      "anonymous": false,
      "inputs": [
        {
          "indexed": true,
          "internalType": "address",
          "name": "from",
          "type": "address"
        },
        {
          "indexed": true,
          "internalType": "address",
          "name": "to",
          "type": "address"
        },
        {
          "indexed": false,
          "internalType": "uint256",
          "name": "value",
          "type": "uint256"
        }
      ],
      "name": "Transfer",
      "type": "event"
    },
    {
      "anonymous": false,
      "inputs": [
        {
          "indexed": true,
          "internalType": "address",
          "name": "treasury",
          "type": "address"
        }
      ],
      "name": "TreasuryBTCSet",
      "type": "event"
    },
    {
      "anonymous": false,
      "inputs": [
        {
          "indexed": true,
          "internalType": "address",
          "name": "beneficiary",
          "type": "address"
        },
        {
          "indexed": false,
          "internalType": "uint256",
          "name": "amount",
          "type": "uint256"
        }
      ],
      "name": "VestedTokensWithdrawn",
      "type": "event"
    },
    {
      "inputs": [
        {
          "internalType": "address",
          "name": "owner",
          "type": "address"
        },
        {
          "internalType": "address",
          "name": "spender",
          "type": "address"
        }
      ],
      "name": "allowance",
      "outputs": [
        {
          "internalType": "uint256",
          "name": "",
          "type": "uint256"
        }
      ],
      "stateMutability": "view",
      "type": "function"
    },
    {
      "inputs": [
        {
          "internalType": "address",
          "name": "spender",
          "type": "address"
        },
        {
          "internalType": "uint256",
          "name": "value",
          "type": "uint256"
        }
      ],
      "name": "approve",
      "outputs": [
        {
          "internalType": "bool",
          "name": "",
          "type": "bool"
        }
      ],
      "stateMutability": "nonpayable",
      "type": "function"
    },
    {
      "inputs": [
        {
          "internalType": "address",
          "name": "account",
          "type": "address"
        }
      ],
      "name": "balanceOf",
      "outputs": [
        {
          "internalType": "uint256",
          "name": "",
          "type": "uint256"
        }
      ],
      "stateMutability": "view",
      "type": "function"
    },
    {
      "inputs": [
        {
          "internalType": "address",
          "name": "account",
          "type": "address"
        },
        {
          "internalType": "uint256",
          "name": "snapshotId",
          "type": "uint256"
        }
      ],
      "name": "balanceOfAt",
      "outputs": [
        {
          "internalType": "uint256",
          "name": "",
          "type": "uint256"
        }
      ],
      "stateMutability": "view",
      "type": "function"
    },
    {
      "inputs": [
        {
          "internalType": "uint256",
          "name": "amount",
          "type": "uint256"
        }
      ],
      "name": "burn",
      "outputs": [],
      "stateMutability": "nonpayable",
      "type": "function"
    },
    {
      "inputs": [
        {
          "internalType": "uint256",
          "name": "amount",
          "type": "uint256"
        }
      ],
      "name": "burnUndistributed",
      "outputs": [],
      "stateMutability": "nonpayable",
      "type": "function"
    },
    {
      "inputs": [],
      "name": "decimals",
      "outputs": [
        {
          "internalType": "uint8",
          "name": "",
          "type": "uint8"
        }
      ],
      "stateMutability": "view",
      "type": "function"
    },
    {
      "inputs": [],
      "name": "deploymentTime",
      "outputs": [
        {
          "internalType": "uint256",
          "name": "",
          "type": "uint256"
        }
      ],
      "stateMutability": "view",
      "type": "function"
    },
    {
      "inputs": [
        {
          "internalType": "address",
          "name": "recipient",
          "type": "address"
        },
        {
          "internalType": "uint256",
          "name": "amount",
          "type": "uint256"
        }
      ],
      "name": "distributeReward",
      "outputs": [],
      "stateMutability": "nonpayable",
      "type": "function"
    },
    {
      "inputs": [],
      "name": "founderAddress",
      "outputs": [
        {
          "internalType": "address",
          "name": "",
          "type": "address"
        }
      ],
      "stateMutability": "view",
      "type": "function"
    },
    {
      "inputs": [],
      "name": "founderWithdraw",
      "outputs": [],
      "stateMutability": "nonpayable",
      "type": "function"
    },
    {
      "inputs": [],
      "name": "founderWithdrawn",
      "outputs": [
        {
          "internalType": "uint256",
          "name": "",
          "type": "uint256"
        }
      ],
      "stateMutability": "view",
      "type": "function"
    },
    {
      "inputs": [],
      "name": "getAvailableRewards",
      "outputs": [
        {
          "internalType": "uint256",
          "name": "available",
          "type": "uint256"
        }
      ],
      "stateMutability": "view",
      "type": "function"
    },
    {
      "inputs": [],
      "name": "getFounderAvailable",
      "outputs": [
        {
          "internalType": "uint256",
          "name": "available",
          "type": "uint256"
        }
      ],
      "stateMutability": "view",
      "type": "function"
    },
    {
      "inputs": [],
      "name": "getPartnerAvailable",
      "outputs": [
        {
          "internalType": "uint256",
          "name": "available",
          "type": "uint256"
        }
      ],
      "stateMutability": "view",
      "type": "function"
    },
    {
      "inputs": [],
      "name": "lastSnapshotId",
      "outputs": [
        {
          "internalType": "uint256",
          "name": "",
          "type": "uint256"
        }
      ],
      "stateMutability": "view",
      "type": "function"
    },
    {
      "inputs": [],
      "name": "name",
      "outputs": [
        {
          "internalType": "string",
          "name": "",
          "type": "string"
        }
      ],
      "stateMutability": "view",
      "type": "function"
    },
    {
      "inputs": [],
      "name": "nexumManager",
      "outputs": [
        {
          "internalType": "address",
          "name": "",
          "type": "address"
        }
      ],
      "stateMutability": "view",
      "type": "function"
    },
    {
      "inputs": [],
      "name": "nexumManagerSet",
      "outputs": [
        {
          "internalType": "bool",
          "name": "",
          "type": "bool"
        }
      ],
      "stateMutability": "view",
      "type": "function"
    },
    {
      "inputs": [],
      "name": "partnerAddress",
      "outputs": [
        {
          "internalType": "address",
          "name": "",
          "type": "address"
        }
      ],
      "stateMutability": "view",
      "type": "function"
    },
    {
      "inputs": [],
      "name": "partnerWithdraw",
      "outputs": [],
      "stateMutability": "nonpayable",
      "type": "function"
    },
    {
      "inputs": [],
      "name": "partnerWithdrawn",
      "outputs": [
        {
          "internalType": "uint256",
          "name": "",
          "type": "uint256"
        }
      ],
      "stateMutability": "view",
      "type": "function"
    },
    {
      "inputs": [],
      "name": "rewardsDistributed",
      "outputs": [
        {
          "internalType": "uint256",
          "name": "",
          "type": "uint256"
        }
      ],
      "stateMutability": "view",
      "type": "function"
    },
    {
      "inputs": [
        {
          "internalType": "address",
          "name": "_nexumManager",
          "type": "address"
        }
      ],
      "name": "setNexumManager",
      "outputs": [],
      "stateMutability": "nonpayable",
      "type": "function"
    },
    {
      "inputs": [
        {
          "internalType": "address",
          "name": "_treasuryBTC",
          "type": "address"
        }
      ],
      "name": "setTreasuryBTC",
      "outputs": [],
      "stateMutability": "nonpayable",
      "type": "function"
    },
    {
      "inputs": [],
      "name": "snapshot",
      "outputs": [
        {
          "internalType": "uint256",
          "name": "",
          "type": "uint256"
        }
      ],
      "stateMutability": "nonpayable",
      "type": "function"
    },
    {
      "inputs": [
        {
          "internalType": "uint256",
          "name": "",
          "type": "uint256"
        }
      ],
      "name": "snapshotBlock",
      "outputs": [
        {
          "internalType": "uint256",
          "name": "",
          "type": "uint256"
        }
      ],
      "stateMutability": "view",
      "type": "function"
    },
    {
      "inputs": [],
      "name": "symbol",
      "outputs": [
        {
          "internalType": "string",
          "name": "",
          "type": "string"
        }
      ],
      "stateMutability": "view",
      "type": "function"
    },
    {
      "inputs": [],
      "name": "totalSupply",
      "outputs": [
        {
          "internalType": "uint256",
          "name": "",
          "type": "uint256"
        }
      ],
      "stateMutability": "view",
      "type": "function"
    },
    {
      "inputs": [
        {
          "internalType": "uint256",
          "name": "snapshotId",
          "type": "uint256"
        }
      ],
      "name": "totalSupplyAt",
      "outputs": [
        {
          "internalType": "uint256",
          "name": "",
          "type": "uint256"
        }
      ],
      "stateMutability": "view",
      "type": "function"
    },
    {
      "inputs": [
        {
          "internalType": "address",
          "name": "to",
          "type": "address"
        },
        {
          "internalType": "uint256",
          "name": "value",
          "type": "uint256"
        }
      ],
      "name": "transfer",
      "outputs": [
        {
          "internalType": "bool",
          "name": "",
          "type": "bool"
        }
      ],
      "stateMutability": "nonpayable",
      "type": "function"
    },
    {
      "inputs": [
        {
          "internalType": "address",
          "name": "from",
          "type": "address"
        },
        {
          "internalType": "address",
          "name": "to",
          "type": "address"
        },
        {
          "internalType": "uint256",
          "name": "value",
          "type": "uint256"
        }
      ],
      "name": "transferFrom",
      "outputs": [
        {
          "internalType": "bool",
          "name": "",
          "type": "bool"
        }
      ],
      "stateMutability": "nonpayable",
      "type": "function"
    },
    {
      "inputs": [],
      "name": "treasuryBTC",
      "outputs": [
        {
          "internalType": "address",
          "name": "",
          "type": "address"
        }
      ],
      "stateMutability": "view",
      "type": "function"
    },
    {
      "inputs": [],
      "name": "treasuryBTCSet",
      "outputs": [
        {
          "internalType": "bool",
          "name": "",
          "type": "bool"
        }
      ],
      "stateMutability": "view",
      "type": "function"
    }
  ],
  "bytecode": "0x60e0604052346200022057620022c66040813803918262000020816200025b565b9384928339810103126200022057620000398162000281565b62000048602080930162000281565b906200005362000296565b926b2722ac20a627902a37b5b2b760a11b8185015262000072620002a7565b6213961360ea1b82820152845190916001600160401b0382116200021a57620000a882620000a260035462000336565b62000373565b80601f83116001146200018557508190620000e394959660009262000179575b50508160011b916000199060031b1c19161760035562000425565b620001086001600160a01b03620000fe8382161515620002b8565b83161515620002f7565b60805260a0524260c0526200011d3062000518565b62000127620008dd565b6200013230620005d2565b6040516119ca9081620008fc82396080518181816107390152610abb015260a0518181816108820152610dfe015260c0518181816110a00152818161147901526114ec0152f35b015190503880620000c8565b6003600052601f198316969091907fc2575a0e9e593c00f959f8c92f12db2869c3395a3b0502d05e2516446f71f85b926000905b8982106200020157505090839291600194620000e397989910620001e7575b505050811b0160035562000425565b015160001960f88460031b161c19169055388080620001d8565b80600185968294968601518155019501930190620001b9565b62000225565b600080fd5b634e487b7160e01b600052604160045260246000fd5b60408051919082016001600160401b038111838210176200021a57604052565b6040519190601f01601f191682016001600160401b038111838210176200021a57604052565b51906001600160a01b03821682036200022057565b620002a06200023b565b90600c8252565b620002b16200023b565b9060038252565b15620002c057565b60405162461bcd60e51b815260206004820152600f60248201526e24b73b30b634b2103337bab73232b960891b6044820152606490fd5b15620002ff57565b60405162461bcd60e51b815260206004820152600f60248201526e24b73b30b634b2103830b93a3732b960891b6044820152606490fd5b90600182811c9216801562000368575b60208310146200035257565b634e487b7160e01b600052602260045260246000fd5b91607f169162000346565b601f811162000380575050565b6000906003825260208220906020601f850160051c83019410620003c1575b601f0160051c01915b828110620003b557505050565b818155600101620003a8565b90925082906200039f565b601f8111620003d9575050565b6000906004825260208220906020601f850160051c830194106200041a575b601f0160051c01915b8281106200040e57505050565b81815560010162000401565b9092508290620003f8565b80519091906001600160401b0381116200021a5762000451816200044b60045462000336565b620003cc565b602080601f831160011462000490575081929360009262000484575b50508160011b916000199060031b1c191617600455565b0151905038806200046d565b6004600052601f198316949091907f8a35acfbc15ff81a39ae7d344fd709f28e8600b4aa8c65c6b64bfe7fe36bd19b926000905b878210620004ff575050836001959610620004e5575b505050811b01600455565b015160001960f88460031b161c19169055388080620004da565b80600185968294968601518155019501930190620004c4565b6001600160a01b038116908115620005a357600254916a52b7d2dcc80cd2e4000000928381018091116200059d577fddf252ad1be2c89b69c2b068fc378daa952ba7f163c4a11628f55a4df523b3ef6020620005919560009360025584845283825260408420818154019055604051908152a3620005d2565b6200059b620008dd565b565b620005bc565b60405163ec442f0560e01b815260006004820152602490fd5b634e487b7160e01b600052601160045260246000fd5b6001600160a01b031660009081526020818152604080832054600d90925290912062000610916001600160d01b0316904363ffffffff169062000810565b5050565b600c5490680100000000000000008210156200021a576001820180600c558210156200068757600c60005280516020919091015160301b65ffffffffffff191665ffffffffffff91909116177fdf6966c971051c3d54ec59162606531493a51404a002842f56009d7e5cf4a8c790910155565b634e487b7160e01b600052603260045260246000fd5b908154680100000000000000008110156200021a5760018101808455811015620006875760009283526020928390208251929093015160301b65ffffffffffff191665ffffffffffff9290921691909117910155565b6000198101919082116200059d57565b600c549192918015620007e1576200071f6200074991620006f3565b600c6000527fdf6966c971051c3d54ec59162606531493a51404a002842f56009d7e5cf4a8c70190565b9081549165ffffffffffff90818416918316808311620007cf5786920362000791576200078a92509065ffffffffffff82549181199060301b169116179055565b60301c9190565b5050620007c990620007b4620007a66200023b565b65ffffffffffff9092168252565b6001600160d01b038516602082015262000614565b6200078a565b604051632520601d60e01b8152600490fd5b506200080a90620007f5620007a66200023b565b6001600160d01b038416602082015262000614565b60009190565b80549293928015620008b3576200082b6200083891620006f3565b8260005260206000200190565b9182549265ffffffffffff91828516928116808411620007cf578793036200087a57506200078a92509065ffffffffffff82549181199060301b169116179055565b915050620007c9916200089e620008906200023b565b65ffffffffffff9093168352565b6001600160d01b03861660208301526200069d565b50906200080a91620008c8620008906200023b565b6001600160d01b03851660208301526200069d565b60025462000610906001600160d01b03164363ffffffff166200070356fe6080604052600436101561001257600080fd5b60003560e01c806306fdde0314610237578063095ea7b314610232578063120be9551461022d57806314c304fe1461022857806318160ddd146102235780631ec8bb8c1461021e57806323b872dd14610219578063313ce567146102145780633e24fb981461020f57806342966c681461020a57806346bb2833146102055780634ee2cd7e14610200578063576168fc146101fb57806357d020cf146101f65780636ec92ef5146101f157806370a08231146101ec57806376bb672c146101e75780638167593f146101e2578063837afbc0146101dd57806384f85951146101d857806389384b07146101d3578063925d7c44146101ce57806395d89b41146101c95780639711715a146101c4578063971362c9146101bf578063981b24d0146101ba5780639c1454d4146101b5578063a9059cbb146101b0578063d66ee30d146101ab578063dd62ed3e146101a6578063eb348f83146101a1578063ecda10f51461019c578063f6f3f582146101975763fc9c99ac1461019257600080fd5b6110de565b6110c3565b611088565b61105f565b611007565b610fde565b610fad565b610f8f565b610eb5565b610deb565b610d2a565b610c67565b610b90565b610b72565b610aa8565b610a8a565b610a64565b61097b565b610941565b61091e565b6108b1565b61086c565b610768565b610723565b6106ce565b6106b0565b610694565b6105e7565b6104fc565b6104de565b6104b2565b61048c565b6103c2565b610285565b6020808252825181830181905290939260005b82811061027157505060409293506000838284010152601f8019910116010190565b81810186015184820160400152850161024f565b346103915760008060031936011261038e5760405190806003549060019180831c92808216928315610384575b602092838610851461037057858852602088019490811561034f57506001146102f6575b6102f2876102e68189038261110f565b6040519182918261023c565b0390f35b600360005294509192917fc2575a0e9e593c00f959f8c92f12db2869c3395a3b0502d05e2516446f71f85b5b83861061033e57505050910190506102e6826102f238806102d6565b805485870152948201948101610322565b60ff191685525050505090151560051b0190506102e6826102f238806102d6565b634e487b7160e01b82526022600452602482fd5b93607f16936102b2565b80fd5b600080fd5b600435906001600160a01b038216820361039157565b602435906001600160a01b038216820361039157565b34610391576040366003190112610391576103db610396565b6024353315610473576001600160a01b03821691821561045a573360009081526001602052604090208291610422915b9060018060a01b0316600052602052604060002090565b556040519081527f8c5be1e5ebec7d5bd14f71427d1e84f3dd0314c0f7b2291e5b200ac8c7c3b92560203392a3602060405160018152f35b604051634a1406b160e11b815260006004820152602490fd5b60405163e602df0560e01b815260006004820152602490fd5b3461039157600036600319011261039157602060ff60065460a01c166040519015158152f35b3461039157602036600319011261039157600435600052600b6020526020604060002054604051908152f35b34610391576000366003190112610391576020600254604051908152f35b3461039157604036600319011261039157610515610396565b60243560018060a01b0361052e816005541633146112db565b82169182156105ae5781610599816105a99361056c7fe34918ff1c7084970068b53fd71ad6d8b04e9f15d3886cbf006443e6cdc52ea696151561135a565b61057f82610578611414565b1015611391565b61059361058e836009546113f8565b600955565b30611136565b6040519081529081906020820190565b0390a2005b60405162461bcd60e51b8152602060048201526011602482015270125b9d985b1a59081c9958da5c1a595b9d607a1b6044820152606490fd5b3461039157606036600319011261039157610600610396565b6106086103ac565b6001600160a01b03821660009081526001602090815260408083203384529091529020604435919054926000198410610652575b6106469350611136565b60405160018152602090f35b82841061066e576106698361064695033383611263565b61063c565b604051637dc7a0d960e11b81523360048201526024810185905260448101849052606490fd5b3461039157600036600319011261039157602060405160128152f35b34610391576000366003190112610391576020600754604051908152f35b34610391576020366003190112610391577f6ef4855b666dcc7884561072e4358b28dfe01feb1b7f4dcebc00e62d50394ac7602060043561071081151561135a565b61071a8133611593565b604051908152a1005b34610391576000366003190112610391576040517f00000000000000000000000000000000000000000000000000000000000000006001600160a01b03168152602090f35b3461039157604036600319011261039157610781610396565b60006024358152602091600b83526040822054906107a0821515611674565b6001600160a01b03168252600d835260408220805492938493919263ffffffff165b82861061081d57506102f2945050806107f25750505b6040516001600160d01b0390911681529081906020820190565b61081892509061080461081192611405565b9060005260206000200190565b5460301c90565b6107d8565b90918086169080871860011c8201809211610867578486528265ffffffffffff83868920015416116000146108555750915b906107c2565b929550610861906113ea565b9461084f565b6113d4565b34610391576000366003190112610391576040517f00000000000000000000000000000000000000000000000000000000000000006001600160a01b03168152602090f35b34610391576020366003190112610391577f6ef4855b666dcc7884561072e4358b28dfe01feb1b7f4dcebc00e62d50394ac760206004356108fd60018060a01b036005541633146112db565b61090881151561135a565b61091481610578611414565b61071a8130611593565b34610391576000366003190112610391576020610939611477565b604051908152f35b34610391576020366003190112610391576001600160a01b03610962610396565b1660005260006020526020604060002054604051908152f35b3461039157602036600319011261039157610994610396565b6005546001600160a01b03906109ad90821633146112db565b60ff60065460a01c16610a28576109ee908216916109cc83151561131b565b60018060a01b03166bffffffffffffffffffffffff60a01b6006541617600655565b6006805460ff60a01b1916600160a01b1790557fb0521be1f579f114f3e61365fe611d9f34a6e6f2f30cc4a568dc5d5145e996a8600080a2005b60405162461bcd60e51b8152602060048201526014602482015273151c99585cdd5c9e48185b1c9958591e481cd95d60621b6044820152606490fd5b3461039157600036600319011261039157602060ff60055460a01c166040519015158152f35b34610391576000366003190112610391576020600a54604051908152f35b34610391576000366003190112610391577f00000000000000000000000000000000000000000000000000000000000000006001600160a01b0381169033829003610b3e576105a97f3274398530b4fdab6be36c4e94e06a398b1cd05f753f49093441a08a89bde4df91610599610b1d611477565b8092610b2a82151561155b565b610593610b39836007546113f8565b600755565b60405162461bcd60e51b815260206004820152600c60248201526b27b7363c903337bab73232b960a11b6044820152606490fd5b34610391576000366003190112610391576020600854604051908152f35b3461039157602036600319011261039157610ba9610396565b60ff60055460a01c16610c2c576001600160a01b03811690610bf290610bd083151561129d565b60018060a01b03166bffffffffffffffffffffffff60a01b6005541617600555565b6005805460ff60a01b1916600160a01b1790557f1f93eb4af9964a0fbf3c59e4668618db26f4f90ff336d62addeb24270471eb70600080a2005b60405162461bcd60e51b815260206004820152601360248201527213585b9859d95c88185b1c9958591e481cd95d606a1b6044820152606490fd5b346103915760008060031936011261038e5760405190806004549060019180831c92808216928315610d20575b602092838610851461037057858852602088019490811561034f5750600114610cc7576102f2876102e68189038261110f565b600460005294509192917f8a35acfbc15ff81a39ae7d344fd709f28e8600b4aa8c65c6b64bfe7fe36bd19b5b838610610d0f57505050910190506102e6826102f238806102d6565b805485870152948201948101610cf3565b93607f1693610c94565b34610391576000366003190112610391576006546001600160a01b03163303610db357600a54600181018091116108675780600a55600052600b602052436040600020556102f2600a547f0a5b69dda4109f3b3c9a78321d06fd4c59f56d886e9c6c8abaddd33d3d16c10360408051838152436020820152a16040519081529081906020820190565b60405162461bcd60e51b815260206004820152601060248201526f4f6e6c7920547265617375727942544360801b6044820152606490fd5b34610391576000366003190112610391577f00000000000000000000000000000000000000000000000000000000000000006001600160a01b0381169033829003610e81576105a97f3274398530b4fdab6be36c4e94e06a398b1cd05f753f49093441a08a89bde4df91610599610e606114ea565b8092610e6d82151561155b565b610593610e7c836008546113f8565b600855565b60405162461bcd60e51b815260206004820152600c60248201526b27b7363c903830b93a3732b960a11b6044820152606490fd5b346103915760203660031901126103915760006004358152600b60205263ffffffff6040822054610ee7811515611674565b1690600c8054928293905b818510610f3c57506020935080610f185750505b6040516001600160d01b039091168152f35b610f2190611405565b9152600080516020611975833981519152015460301c610f06565b908085169080861860011c8201809211610867578385528265ffffffffffff8360008051602061197583398151915201541611600014610f7d575090610ef2565b919450610f89906113ea565b93610ef2565b34610391576000366003190112610391576020600954604051908152f35b3461039157604036600319011261039157610fd3610fc9610396565b6024359033611136565b602060405160018152f35b34610391576000366003190112610391576005546040516001600160a01b039091168152602090f35b34610391576040366003190112610391576020611056611025610396565b61102d6103ac565b6001600160a01b0391821660009081526001855260408082209290931681526020919091522090565b54604051908152f35b34610391576000366003190112610391576006546040516001600160a01b039091168152602090f35b346103915760003660031901126103915760206040517f00000000000000000000000000000000000000000000000000000000000000008152f35b346103915760003660031901126103915760206109396114ea565b34610391576000366003190112610391576020610939611414565b634e487b7160e01b600052604160045260246000fd5b90601f8019910116810190811067ffffffffffffffff82111761113157604052565b6110f9565b9192916001600160a01b0380821690811561124a578316908115611231576001600160a01b0383166000908152602081905260409020549580871061120157907fddf252ad1be2c89b69c2b068fc378daa952ba7f163c4a11628f55a4df523b3ef6111f2836111fa9695946111ff999a036111c38760018060a01b03166000526000602052604060002090565b556001600160a01b03881660009081526020819052604090208054820190556040519081529081906020820190565b0390a36116b5565b6116b5565b565b60405163391434e360e21b81526001600160a01b0385166004820152602481018890526044810191909152606490fd5b60405163ec442f0560e01b815260006004820152602490fd5b604051634b637e8f60e11b815260006004820152602490fd5b906001600160a01b03808316156104735781161561045a5761040b61129a9260018060a01b03166000526001602052604060002090565b55565b156112a457565b60405162461bcd60e51b815260206004820152600f60248201526e24b73b30b634b21036b0b730b3b2b960891b6044820152606490fd5b156112e257565b60405162461bcd60e51b815260206004820152601160248201527027b7363c902732bc3ab6a6b0b730b3b2b960791b6044820152606490fd5b1561132257565b60405162461bcd60e51b815260206004820152601060248201526f496e76616c696420747265617375727960801b6044820152606490fd5b1561136157565b60405162461bcd60e51b81526020600482015260086024820152670416d6f756e743d360c41b6044820152606490fd5b1561139857565b60405162461bcd60e51b8152602060048201526014602482015273496e73756666696369656e74207265776172647360601b6044820152606490fd5b634e487b7160e01b600052601160045260246000fd5b906001820180921161086757565b9190820180921161086757565b60001981019190821161086757565b3060005260006020526040600020546007546a027b46536c66c8e30000009081039081116108675760085469d3c21bcecceda10000009081039081116108675781018091116108675780821161146b575050600090565b81039081116108675790565b7f00000000000000000000000000000000000000000000000000000000000000004203428111610867576303c26700908181106114cc5750506a027b46536c66c8e30000005b60075481039081116108675790565b6a027b46536c66c8e3000000908082029182040361086757046114bd565b7f00000000000000000000000000000000000000000000000000000000000000004203428111610867576301e133809081811061153e57505069d3c21bcecceda10000005b60085481039081116108675790565b69d3c21bcecceda10000009080820291820403610867570461152f565b1561156257565b60405162461bcd60e51b81526020600482015260096024820152684e6f20746f6b656e7360b81b6044820152606490fd5b906001600160a01b03821690811561124a576001600160a01b03831660009081526020819052604090205481811061164457917fddf252ad1be2c89b69c2b068fc378daa952ba7f163c4a11628f55a4df523b3ef60208360009461162497960361160f8760018060a01b03166000526000602052604060002090565b558060025403600255604051908152a36116b5565b600254611640906001600160d01b03164363ffffffff166117cf565b5050565b60405163391434e360e21b81526001600160a01b0385166004820152602481019190915260448101829052606490fd5b1561167b57565b60405162461bcd60e51b815260206004820152601260248201527114db985c1cda1bdd081b9bdd08199bdd5b9960721b6044820152606490fd5b6001600160a01b031660009081526020818152604080832054600d909252909120611640916001600160d01b0316904363ffffffff16906118b8565b604051906040820182811067ffffffffffffffff82111761113157604052565b600c5490600160401b821015611131576001820180600c5582101561176a57600c600052805160209091015160301b65ffffffffffff191665ffffffffffff919091161760008051602061197583398151915290910155565b634e487b7160e01b600052603260045260246000fd5b908154600160401b811015611131576001810180845581101561176a5760009283526020928390208251929093015160301b65ffffffffffff191665ffffffffffff9290921691909117910155565b600c54919291801561188e576117e76117ff91611405565b600c6000526000805160206119758339815191520190565b9081549165ffffffffffff9081841691831680831161187c578692036118445761183d92509065ffffffffffff82549181199060301b169116179055565b60301c9190565b5050611877906118636118556116f1565b65ffffffffffff9092168252565b6001600160d01b0385166020820152611711565b61183d565b604051632520601d60e01b8152600490fd5b506118b29061189e6118556116f1565b6001600160d01b0384166020820152611711565b60009190565b8054929392801561194f576118cf6118dc91611405565b8260005260206000200190565b9182549265ffffffffffff9182851692811680841161187c5787930361191b575061183d92509065ffffffffffff82549181199060301b169116179055565b9150506118779161193b61192d6116f1565b65ffffffffffff9093168352565b6001600160d01b0386166020830152611780565b50906118b29161196061192d6116f1565b6001600160d01b038516602083015261178056fedf6966c971051c3d54ec59162606531493a51404a002842f56009d7e5cf4a8c7a264697066735822122015e3f3233b047ca4e876a2d6f8e20250c14b11d38b27914a0c18ce67945d4ff764736f6c63430008140033",
  "linkReferences": {},
  "deployedLinkReferences": {}
}