{
  "_format": "hh-sol-artifact-1",
  "contractName": "ReferralNetwork",
  "sourceName": "contracts/ReferralNetwork.sol",
  "abi": [
    {
      "inputs": [
        {
          "internalType": "address",
          "name": "_stablecoin",
          "type": "address"
        }
      ],
      "stateMutability": "nonpayable",
      "type": "constructor"
    },
    {
      "inputs": [
        {
          "internalType": "address",
          "name": "owner",
          "type": "address"
        }
      ],
      "name": "OwnableInvalidOwner",
      "type": "error"
    },
    {
      "inputs": [
        {
          "internalType": "address",
          "name": "account",
          "type": "address"
        }
      ],
      "name": "OwnableUnauthorizedAccount",
      "type": "error"
    },
    {
      "inputs": [],
      "name": "ReentrancyGuardReentrantCall",
      "type": "error"
    },
    {
      "inputs": [
        {
          "internalType": "address",
          "name": "token",
          "type": "address"
        }
      ],
      "name": "SafeERC20FailedOperation",
      "type": "error"
    },
    {
      "anonymous": false,
      "inputs": [
        {
          "indexed": true,
          "internalType": "address",
          "name": "user",
          "type": "address"
        },
        {
          "indexed": false,
          "internalType": "uint256",
          "name": "amount",
          "type": "uint256"
        }
      ],
      "name": "Claimed",
      "type": "event"
    },
    {
      "anonymous": false,
      "inputs": [
        {
          "indexed": true,
          "internalType": "address",
          "name": "buyer",
          "type": "address"
        },
        {
          "indexed": false,
          "internalType": "uint256",
          "name": "budget",
          "type": "uint256"
        },
        {
          "indexed": false,
          "internalType": "address",
          "name": "l1",
          "type": "address"
        },
        {
          "indexed": false,
          "internalType": "address",
          "name": "l2",
          "type": "address"
        },
        {
          "indexed": false,
          "internalType": "address",
          "name": "l3",
          "type": "address"
        },
        {
          "indexed": false,
          "internalType": "uint256",
          "name": "paidTotal",
          "type": "uint256"
        }
      ],
      "name": "CommissionsAccrued",
      "type": "event"
    },
    {
      "anonymous": false,
      "inputs": [
        {
          "indexed": true,
          "internalType": "address",
          "name": "manager",
          "type": "address"
        }
      ],
      "name": "NexumManagerSet",
      "type": "event"
    },
    {
      "anonymous": false,
      "inputs": [
        {
          "indexed": true,
          "internalType": "address",
          "name": "previousOwner",
          "type": "address"
        },
        {
          "indexed": true,
          "internalType": "address",
          "name": "newOwner",
          "type": "address"
        }
      ],
      "name": "OwnershipTransferred",
      "type": "event"
    },
    {
      "anonymous": false,
      "inputs": [
        {
          "indexed": true,
          "internalType": "address",
          "name": "user",
          "type": "address"
        },
        {
          "indexed": true,
          "internalType": "address",
          "name": "referrer",
          "type": "address"
        }
      ],
      "name": "ReferrerSet",
      "type": "event"
    },
    {
      "inputs": [],
      "name": "claim",
      "outputs": [],
      "stateMutability": "nonpayable",
      "type": "function"
    },
    {
      "inputs": [
        {
          "internalType": "address",
          "name": "",
          "type": "address"
        }
      ],
      "name": "claimable",
      "outputs": [
        {
          "internalType": "uint256",
          "name": "",
          "type": "uint256"
        }
      ],
      "stateMutability": "view",
      "type": "function"
    },
    {
      "inputs": [
        {
          "internalType": "address",
          "name": "buyer",
          "type": "address"
        },
        {
          "internalType": "uint256",
          "name": "referralBudget",
          "type": "uint256"
        }
      ],
      "name": "distributeCommissions",
      "outputs": [],
      "stateMutability": "nonpayable",
      "type": "function"
    },
    {
      "inputs": [
        {
          "internalType": "address",
          "name": "user",
          "type": "address"
        }
      ],
      "name": "getReferralChain",
      "outputs": [
        {
          "internalType": "address",
          "name": "l1",
          "type": "address"
        },
        {
          "internalType": "address",
          "name": "l2",
          "type": "address"
        },
        {
          "internalType": "address",
          "name": "l3",
          "type": "address"
        }
      ],
      "stateMutability": "view",
      "type": "function"
    },
    {
      "inputs": [
        {
          "internalType": "address",
          "name": "user",
          "type": "address"
        }
      ],
      "name": "hasReferrer",
      "outputs": [
        {
          "internalType": "bool",
          "name": "",
          "type": "bool"
        }
      ],
      "stateMutability": "view",
      "type": "function"
    },
    {
      "inputs": [],
      "name": "nexumManager",
      "outputs": [
        {
          "internalType": "address",
          "name": "",
          "type": "address"
        }
      ],
      "stateMutability": "view",
      "type": "function"
    },
    {
      "inputs": [],
      "name": "owner",
      "outputs": [
        {
          "internalType": "address",
          "name": "",
          "type": "address"
        }
      ],
      "stateMutability": "view",
      "type": "function"
    },
    {
      "inputs": [
        {
          "internalType": "address",
          "name": "",
          "type": "address"
        }
      ],
      "name": "referrerOf",
      "outputs": [
        {
          "internalType": "address",
          "name": "",
          "type": "address"
        }
      ],
      "stateMutability": "view",
      "type": "function"
    },
    {
      "inputs": [],
      "name": "renounceOwnership",
      "outputs": [],
      "stateMutability": "nonpayable",
      "type": "function"
    },
    {
      "inputs": [
        {
          "internalType": "address",
          "name": "_nexumManager",
          "type": "address"
        }
      ],
      "name": "setNexumManager",
      "outputs": [],
      "stateMutability": "nonpayable",
      "type": "function"
    },
    {
      "inputs": [
        {
          "internalType": "address",
          "name": "user",
          "type": "address"
        },
        {
          "internalType": "address",
          "name": "referrer",
          "type": "address"
        }
      ],
      "name": "setReferrer",
      "outputs": [],
      "stateMutability": "nonpayable",
      "type": "function"
    },
    {
      "inputs": [],
      "name": "stablecoin",
      "outputs": [
        {
          "internalType": "contract IERC20",
          "name": "",
          "type": "address"
        }
      ],
      "stateMutability": "view",
      "type": "function"
    },
    {
      "inputs": [
        {
          "internalType": "address",
          "name": "newOwner",
          "type": "address"
        }
      ],
      "name": "transferOwnership",
      "outputs": [],
      "stateMutability": "nonpayable",
      "type": "function"
    }
  ],
  "bytecode": "0x60a03461011a57601f610c9738819003918201601f19168301916001600160401b0383118484101761011f5780849260209460405283398101031261011a57516001600160a01b038082169182900361011a573315610101576000543360018060a01b0319821617600055604051913391167f8be0079c531659141344cd1fd0a4f28419497f9722a3daafe3b4186f6b6457e0600080a36001805581156100ca5750608052604051610b61908161013682396080518181816101500152818161054f01526108be0152f35b62461bcd60e51b815260206004820152601260248201527124b73b30b634b21039ba30b13632b1b7b4b760711b6044820152606490fd5b604051631e4fbdf760e01b815260006004820152602490fd5b600080fd5b634e487b7160e01b600052604160045260246000fdfe6080604081815260048036101561001557600080fd5b600092833560e01c90816318452cd814610a2457508063402914f5146109ef5780634e71d92d146108835780636667864d14610804578063715018a6146107a757806375003aa1146104a25780638da5cb5b1461047a578063925d7c441461039d578063bbddaca3146101e7578063d21cacdf146101ac578063d66ee30d14610183578063e9cbd8221461013b5763f2fde38b146100b257600080fd5b34610137576020366003190112610137576100cb610a5e565b906100d4610a79565b6001600160a01b0391821692831561012157505082546001600160a01b0319811683178455167f8be0079c531659141344cd1fd0a4f28419497f9722a3daafe3b4186f6b6457e08380a380f35b51631e4fbdf760e01b8152908101849052602490fd5b8280fd5b50503461017f578160031936011261017f57517f00000000000000000000000000000000000000000000000000000000000000006001600160a01b03168152602090f35b5080fd5b50503461017f578160031936011261017f5760025490516001600160a01b039091168152602090f35b50503461017f57602036600319011261017f576020916001600160a01b03908290826101d6610a5e565b168152600385522054169051908152f35b509034610137578060031936011261013757610201610a5e565b90602480359360018060a01b039384861680960361039957849061022a82600254163314610aa5565b16938415610368578515610333578486146103065784875260036020528084882054166102cd578587526003602052838720541684146102a75750508184526003602052832080546001600160a01b031916831790557f5f7165288eef601591cf549e15ff19ef9060b7f71b9c115be946fa1fe7ebf68a8380a380f35b606492519162461bcd60e51b83526020828401528201526304c6f6f760e41b6044820152fd5b506014606492602085519362461bcd60e51b85528401528201527320b63932b0b23c903430b9903932b332b93932b960611b6044820152fd5b506008606492602085519362461bcd60e51b85528401528201526729b2b633103932b360c11b6044820152fd5b506010606492602085519362461bcd60e51b85528401528201526f24b73b30b634b2103932b332b93932b960811b6044820152fd5b50600c606492602085519362461bcd60e51b85528401528201526b24b73b30b634b2103ab9b2b960a11b6044820152fd5b8680fd5b5082903461017f57602036600319011261017f576103b9610a5e565b6103c1610a79565b600254906001600160a01b0390818316610449571691821561041457506001600160a01b03191681176002557f1f93eb4af9964a0fbf3c59e4668618db26f4f90ff336d62addeb24270471eb708280a280f35b606490602086519162461bcd60e51b8352820152600f60248201526e496e76616c6964206164647265737360881b6044820152fd5b855162461bcd60e51b8152602081860152600b60248201526a105b1c9958591e481cd95d60aa1b6044820152606490fd5b50503461017f578160031936011261017f57905490516001600160a01b039091168152602090f35b50346101375781600319360112610137576104bb610a5e565b6002546024803593926001600160a01b03928391906104dd9083163314610aa5565b6104e5610b08565b1694851561077557841561074857858752602060038152838289205416908115958660001461073957858a5b169485158015610726578b905b8c99156106f2575b156106b9575b87169687610668575b8382918751928380926370a0823160e01b825230888301527f0000000000000000000000000000000000000000000000000000000000000000165afa90811561065e579089918d91610601575b50106105cc5750508251968752860152840152606083015260808201527f88ee9a78dbfc2d498f82a4c82bf638dc3468520503ad1de8b6581af9d74a4e359060a090a26001805580f35b60129060649386519362461bcd60e51b855284015282015271496e73756666696369656e742066756e647360701b6044820152fd5b915050833d8511610657575b601f8101601f1916820167ffffffffffffffff81118382101761064557859183918952810103126106415788905138610582565b8b80fd5b634e487b7160e01b8e5260418552838efd5b503d61060d565b86513d8e823e3d90fd5b9760c88a028a810460c8036106a75761069e8d8493896103e8899504928d815288865220610697838254610ae5565b9055610ae5565b99915050610535565b634e487b7160e01b8d5260118452828dfd5b9761012c8a0261012b198b8204016106a7578c8992886103e86106ea9404928b815287895220610697838254610ae5565b98905061052c565b98506101f48a026101f3198b8204016106a7576103e89004858d52838552868d2061071e828254610ae5565b905598610526565b868c526003845287868d2054169061051e565b828a528580858c205416610511565b600860649260208693519362461bcd60e51b85528401528201526704275646765743d360c41b6044820152fd5b600d60649260208693519362461bcd60e51b85528401528201526c24b73b30b634b210313abcb2b960991b6044820152fd5b83346108015780600319360112610801576107c0610a79565b80546001600160a01b03198116825581906001600160a01b03167f8be0079c531659141344cd1fd0a4f28419497f9722a3daafe3b4186f6b6457e08280a380f35b80fd5b50503461017f57602036600319011261017f57606091906001600160a01b038061082c610a5e565b168352600360205281832054811692836108745781815b1690828483610861575050905b835194855260208501521690820152f35b9091838152600360205220541690610850565b83815281808483205416610843565b50903461013757826003193601126101375761089d610b08565b338352602090828252808420549283156109bb5733855280835284828120557f00000000000000000000000000000000000000000000000000000000000000009082518481019063a9059cbb60e01b8252336024820152866044820152604481526080810181811067ffffffffffffffff8211176109a857855251859188919082865af11561099e5785513d61099557506001600160a01b0382163b155b610972575050907fd8138f8a3f377c5259ca548e70e4c2de94f129f5a11036a15b69513cba2b426a91519283523392a26001805580f35b9151635274afe760e01b81526001600160a01b0390911691810191909152602490fd5b6001141561093b565b82513d87823e3d90fd5b634e487b7160e01b895260418452602489fd5b82606492519162461bcd60e51b8352820152601060248201526f4e6f7468696e6720746f20636c61696d60801b6044820152fd5b50346101375760203660031901126101375760209282916001600160a01b03610a16610a5e565b168252845220549051908152f35b84908434610137576020366003190112610137576020926001600160a01b03919082610a4e610a5e565b1681526003855220541615158152f35b600435906001600160a01b0382168203610a7457565b600080fd5b6000546001600160a01b03163303610a8d57565b60405163118cdaa760e01b8152336004820152602490fd5b15610aac57565b60405162461bcd60e51b815260206004820152601160248201527027b7363c902732bc3ab6a6b0b730b3b2b960791b6044820152606490fd5b91908201809211610af257565b634e487b7160e01b600052601160045260246000fd5b600260015414610b19576002600155565b604051633ee5aeb560e01b8152600490fdfea2646970667358221220349b31551092024a7de0a98596d4f80a34dd8801f91b825333583e9190c456f364736f6c63430008140033",
  "linkReferences": {},
  "deployedLinkReferences": {}
}