{
  "_format": "hh-sol-artifact-1",
  "contractName": "TreasuryBTC",
  "sourceName": "contracts/TreasuryBTC.sol",
  "abi": [
    {
      "inputs": [
        {
          "internalType": "address",
          "name": "_stablecoin",
          "type": "address"
        },
        {
          "internalType": "address",
          "name": "_nxlToken",
          "type": "address"
        },
        {
          "internalType": "address",
          "name": "_nexumManager",
          "type": "address"
        },
        {
          "internalType": "address",
          "name": "_wbtc",
          "type": "address"
        },
        {
          "internalType": "uint256",
          "name": "_redeemWindowStart",
          "type": "uint256"
        },
        {
          "internalType": "uint256",
          "name": "_redeemWindowDuration",
          "type": "uint256"
        }
      ],
      "stateMutability": "nonpayable",
      "type": "constructor"
    },
    {
      "inputs": [
        {
          "internalType": "address",
          "name": "owner",
          "type": "address"
        }
      ],
      "name": "OwnableInvalidOwner",
      "type": "error"
    },
    {
      "inputs": [
        {
          "internalType": "address",
          "name": "account",
          "type": "address"
        }
      ],
      "name": "OwnableUnauthorizedAccount",
      "type": "error"
    },
    {
      "inputs": [],
      "name": "ReentrancyGuardReentrantCall",
      "type": "error"
    },
    {
      "inputs": [
        {
          "internalType": "address",
          "name": "token",
          "type": "address"
        }
      ],
      "name": "SafeERC20FailedOperation",
      "type": "error"
    },
    {
      "anonymous": false,
      "inputs": [
        {
          "indexed": false,
          "internalType": "address",
          "name": "auditFunds",
          "type": "address"
        }
      ],
      "name": "AuditFundsSet",
      "type": "event"
    },
    {
      "anonymous": false,
      "inputs": [
        {
          "indexed": false,
          "internalType": "address",
          "name": "strategy",
          "type": "address"
        },
        {
          "indexed": false,
          "internalType": "uint256",
          "name": "amount",
          "type": "uint256"
        }
      ],
      "name": "DepositedToStrategy",
      "type": "event"
    },
    {
      "anonymous": false,
      "inputs": [
        {
          "indexed": false,
          "internalType": "uint256",
          "name": "amount",
          "type": "uint256"
        }
      ],
      "name": "FundsReceived",
      "type": "event"
    },
    {
      "anonymous": false,
      "inputs": [
        {
          "indexed": false,
          "internalType": "address",
          "name": "strategy",
          "type": "address"
        },
        {
          "indexed": false,
          "internalType": "uint256",
          "name": "gained",
          "type": "uint256"
        }
      ],
      "name": "Harvested",
      "type": "event"
    },
    {
      "anonymous": false,
      "inputs": [
        {
          "indexed": true,
          "internalType": "address",
          "name": "user",
          "type": "address"
        },
        {
          "indexed": true,
          "internalType": "uint256",
          "name": "snapshotId",
          "type": "uint256"
        },
        {
          "indexed": false,
          "internalType": "uint256",
          "name": "paid",
          "type": "uint256"
        },
        {
          "indexed": false,
          "internalType": "uint256",
          "name": "remainingUnpaid",
          "type": "uint256"
        }
      ],
      "name": "HolderClaimedBestEffort",
      "type": "event"
    },
    {
      "anonymous": false,
      "inputs": [
        {
          "indexed": true,
          "internalType": "uint256",
          "name": "snapshotId",
          "type": "uint256"
        },
        {
          "indexed": false,
          "internalType": "uint256",
          "name": "totalWBTC",
          "type": "uint256"
        },
        {
          "indexed": false,
          "internalType": "uint256",
          "name": "rewardPerTokenE18",
          "type": "uint256"
        },
        {
          "indexed": false,
          "internalType": "uint256",
          "name": "circulatingAt",
          "type": "uint256"
        }
      ],
      "name": "HolderRewardsSnapshotted",
      "type": "event"
    },
    {
      "anonymous": false,
      "inputs": [
        {
          "indexed": true,
          "internalType": "address",
          "name": "previousOwner",
          "type": "address"
        },
        {
          "indexed": true,
          "internalType": "address",
          "name": "newOwner",
          "type": "address"
        }
      ],
      "name": "OwnershipTransferred",
      "type": "event"
    },
    {
      "anonymous": false,
      "inputs": [
        {
          "indexed": true,
          "internalType": "address",
          "name": "user",
          "type": "address"
        },
        {
          "indexed": false,
          "internalType": "uint256",
          "name": "nxlIn",
          "type": "uint256"
        },
        {
          "indexed": false,
          "internalType": "uint256",
          "name": "usdtOut",
          "type": "uint256"
        }
      ],
      "name": "Redeemed",
      "type": "event"
    },
    {
      "anonymous": false,
      "inputs": [
        {
          "indexed": false,
          "internalType": "uint256",
          "name": "amount",
          "type": "uint256"
        }
      ],
      "name": "StakingFundedWBTC",
      "type": "event"
    },
    {
      "anonymous": false,
      "inputs": [
        {
          "indexed": false,
          "internalType": "address",
          "name": "staking",
          "type": "address"
        }
      ],
      "name": "StakingSet",
      "type": "event"
    },
    {
      "anonymous": false,
      "inputs": [
        {
          "indexed": false,
          "internalType": "address",
          "name": "strategy",
          "type": "address"
        }
      ],
      "name": "StrategyActivated",
      "type": "event"
    },
    {
      "anonymous": false,
      "inputs": [
        {
          "indexed": false,
          "internalType": "address",
          "name": "aave",
          "type": "address"
        },
        {
          "indexed": false,
          "internalType": "address",
          "name": "venus",
          "type": "address"
        }
      ],
      "name": "StrategySet",
      "type": "event"
    },
    {
      "anonymous": false,
      "inputs": [
        {
          "indexed": true,
          "internalType": "address",
          "name": "from",
          "type": "address"
        },
        {
          "indexed": false,
          "internalType": "uint256",
          "name": "amount",
          "type": "uint256"
        }
      ],
      "name": "WBTCDeposited",
      "type": "event"
    },
    {
      "anonymous": false,
      "inputs": [
        {
          "indexed": false,
          "internalType": "uint256",
          "name": "burned",
          "type": "uint256"
        }
      ],
      "name": "WindowClosed",
      "type": "event"
    },
    {
      "anonymous": false,
      "inputs": [
        {
          "indexed": false,
          "internalType": "uint256",
          "name": "yearIndex",
          "type": "uint256"
        },
        {
          "indexed": false,
          "internalType": "uint256",
          "name": "closeTime",
          "type": "uint256"
        },
        {
          "indexed": false,
          "internalType": "uint256",
          "name": "redeemRateE18",
          "type": "uint256"
        }
      ],
      "name": "WindowOpened",
      "type": "event"
    },
    {
      "anonymous": false,
      "inputs": [
        {
          "indexed": false,
          "internalType": "address",
          "name": "strategy",
          "type": "address"
        },
        {
          "indexed": false,
          "internalType": "uint256",
          "name": "amount",
          "type": "uint256"
        }
      ],
      "name": "WithdrawnFromStrategy",
      "type": "event"
    },
    {
      "inputs": [],
      "name": "accountedBalance",
      "outputs": [
        {
          "internalType": "uint256",
          "name": "",
          "type": "uint256"
        }
      ],
      "stateMutability": "view",
      "type": "function"
    },
    {
      "inputs": [
        {
          "internalType": "bool",
          "name": "useAave",
          "type": "bool"
        }
      ],
      "name": "activateStrategy",
      "outputs": [],
      "stateMutability": "nonpayable",
      "type": "function"
    },
    {
      "inputs": [],
      "name": "activeStrategy",
      "outputs": [
        {
          "internalType": "contract IYieldStrategy",
          "name": "",
          "type": "address"
        }
      ],
      "stateMutability": "view",
      "type": "function"
    },
    {
      "inputs": [],
      "name": "auditFunds",
      "outputs": [
        {
          "internalType": "address",
          "name": "",
          "type": "address"
        }
      ],
      "stateMutability": "view",
      "type": "function"
    },
    {
      "inputs": [],
      "name": "auditFundsLocked",
      "outputs": [
        {
          "internalType": "bool",
          "name": "",
          "type": "bool"
        }
      ],
      "stateMutability": "view",
      "type": "function"
    },
    {
      "inputs": [
        {
          "internalType": "uint256",
          "name": "snapshotId",
          "type": "uint256"
        }
      ],
      "name": "claimHolderRewards",
      "outputs": [],
      "stateMutability": "nonpayable",
      "type": "function"
    },
    {
      "inputs": [
        {
          "internalType": "uint256",
          "name": "",
          "type": "uint256"
        },
        {
          "internalType": "address",
          "name": "",
          "type": "address"
        }
      ],
      "name": "claimedByUserGross",
      "outputs": [
        {
          "internalType": "uint256",
          "name": "",
          "type": "uint256"
        }
      ],
      "stateMutability": "view",
      "type": "function"
    },
    {
      "inputs": [],
      "name": "closeRedeemWindow",
      "outputs": [],
      "stateMutability": "nonpayable",
      "type": "function"
    },
    {
      "inputs": [
        {
          "internalType": "uint256",
          "name": "amount",
          "type": "uint256"
        }
      ],
      "name": "depositToStrategy",
      "outputs": [],
      "stateMutability": "nonpayable",
      "type": "function"
    },
    {
      "inputs": [
        {
          "internalType": "uint256",
          "name": "amount",
          "type": "uint256"
        }
      ],
      "name": "depositWBTC",
      "outputs": [],
      "stateMutability": "nonpayable",
      "type": "function"
    },
    {
      "inputs": [
        {
          "internalType": "uint256",
          "name": "amount",
          "type": "uint256"
        }
      ],
      "name": "fundStakingWBTC",
      "outputs": [],
      "stateMutability": "nonpayable",
      "type": "function"
    },
    {
      "inputs": [],
      "name": "harvest",
      "outputs": [
        {
          "internalType": "uint256",
          "name": "gained",
          "type": "uint256"
        }
      ],
      "stateMutability": "nonpayable",
      "type": "function"
    },
    {
      "inputs": [
        {
          "internalType": "uint256",
          "name": "",
          "type": "uint256"
        }
      ],
      "name": "holderRewardsBySnapshot",
      "outputs": [
        {
          "internalType": "uint256",
          "name": "totalWBTC",
          "type": "uint256"
        },
        {
          "internalType": "uint256",
          "name": "rewardPerTokenE18",
          "type": "uint256"
        },
        {
          "internalType": "uint256",
          "name": "claimedWBTC",
          "type": "uint256"
        },
        {
          "internalType": "uint256",
          "name": "circulatingAt",
          "type": "uint256"
        },
        {
          "internalType": "bool",
          "name": "exists",
          "type": "bool"
        }
      ],
      "stateMutability": "view",
      "type": "function"
    },
    {
      "inputs": [],
      "name": "lastOpenedYear",
      "outputs": [
        {
          "internalType": "uint256",
          "name": "",
          "type": "uint256"
        }
      ],
      "stateMutability": "view",
      "type": "function"
    },
    {
      "inputs": [],
      "name": "nexumManager",
      "outputs": [
        {
          "internalType": "address",
          "name": "",
          "type": "address"
        }
      ],
      "stateMutability": "view",
      "type": "function"
    },
    {
      "inputs": [],
      "name": "nxlBurnedThisWindow",
      "outputs": [
        {
          "internalType": "uint256",
          "name": "",
          "type": "uint256"
        }
      ],
      "stateMutability": "view",
      "type": "function"
    },
    {
      "inputs": [],
      "name": "nxlToken",
      "outputs": [
        {
          "internalType": "contract INXLTokenSnapshot",
          "name": "",
          "type": "address"
        }
      ],
      "stateMutability": "view",
      "type": "function"
    },
    {
      "inputs": [
        {
          "internalType": "uint256",
          "name": "amount",
          "type": "uint256"
        }
      ],
      "name": "onFundsReceived",
      "outputs": [],
      "stateMutability": "nonpayable",
      "type": "function"
    },
    {
      "inputs": [],
      "name": "openRedeemWindow",
      "outputs": [],
      "stateMutability": "nonpayable",
      "type": "function"
    },
    {
      "inputs": [],
      "name": "owner",
      "outputs": [
        {
          "internalType": "address",
          "name": "",
          "type": "address"
        }
      ],
      "stateMutability": "view",
      "type": "function"
    },
    {
      "inputs": [
        {
          "internalType": "uint256",
          "name": "snapshotId",
          "type": "uint256"
        },
        {
          "internalType": "address",
          "name": "user",
          "type": "address"
        }
      ],
      "name": "pendingHolderRewards",
      "outputs": [
        {
          "internalType": "uint256",
          "name": "",
          "type": "uint256"
        }
      ],
      "stateMutability": "view",
      "type": "function"
    },
    {
      "inputs": [],
      "name": "receiveFunds",
      "outputs": [],
      "stateMutability": "nonpayable",
      "type": "function"
    },
    {
      "inputs": [
        {
          "internalType": "uint256",
          "name": "nxlAmount",
          "type": "uint256"
        }
      ],
      "name": "redeem",
      "outputs": [],
      "stateMutability": "nonpayable",
      "type": "function"
    },
    {
      "inputs": [],
      "name": "redeemRateE18",
      "outputs": [
        {
          "internalType": "uint256",
          "name": "",
          "type": "uint256"
        }
      ],
      "stateMutability": "view",
      "type": "function"
    },
    {
      "inputs": [],
      "name": "redeemWindowDuration",
      "outputs": [
        {
          "internalType": "uint256",
          "name": "",
          "type": "uint256"
        }
      ],
      "stateMutability": "view",
      "type": "function"
    },
    {
      "inputs": [],
      "name": "redeemWindowPeriod",
      "outputs": [
        {
          "internalType": "uint256",
          "name": "",
          "type": "uint256"
        }
      ],
      "stateMutability": "view",
      "type": "function"
    },
    {
      "inputs": [],
      "name": "redeemWindowStart",
      "outputs": [
        {
          "internalType": "uint256",
          "name": "",
          "type": "uint256"
        }
      ],
      "stateMutability": "view",
      "type": "function"
    },
    {
      "inputs": [],
      "name": "renounceOwnership",
      "outputs": [],
      "stateMutability": "nonpayable",
      "type": "function"
    },
    {
      "inputs": [],
      "name": "reservedWBTC",
      "outputs": [
        {
          "internalType": "uint256",
          "name": "",
          "type": "uint256"
        }
      ],
      "stateMutability": "view",
      "type": "function"
    },
    {
      "inputs": [
        {
          "internalType": "address",
          "name": "_auditFunds",
          "type": "address"
        }
      ],
      "name": "setAuditFunds",
      "outputs": [],
      "stateMutability": "nonpayable",
      "type": "function"
    },
    {
      "inputs": [
        {
          "internalType": "address",
          "name": "_staking",
          "type": "address"
        }
      ],
      "name": "setStaking",
      "outputs": [],
      "stateMutability": "nonpayable",
      "type": "function"
    },
    {
      "inputs": [
        {
          "internalType": "address",
          "name": "_aave",
          "type": "address"
        },
        {
          "internalType": "address",
          "name": "_venus",
          "type": "address"
        }
      ],
      "name": "setStrategies",
      "outputs": [],
      "stateMutability": "nonpayable",
      "type": "function"
    },
    {
      "inputs": [
        {
          "internalType": "uint256",
          "name": "amount",
          "type": "uint256"
        }
      ],
      "name": "snapshotAndAllocateHolderRewards",
      "outputs": [
        {
          "internalType": "uint256",
          "name": "snapshotId",
          "type": "uint256"
        }
      ],
      "stateMutability": "nonpayable",
      "type": "function"
    },
    {
      "inputs": [],
      "name": "stablecoin",
      "outputs": [
        {
          "internalType": "contract IERC20",
          "name": "",
          "type": "address"
        }
      ],
      "stateMutability": "view",
      "type": "function"
    },
    {
      "inputs": [],
      "name": "staking",
      "outputs": [
        {
          "internalType": "contract INexaloStakingWBTC",
          "name": "",
          "type": "address"
        }
      ],
      "stateMutability": "view",
      "type": "function"
    },
    {
      "inputs": [],
      "name": "strategyAave",
      "outputs": [
        {
          "internalType": "contract IYieldStrategy",
          "name": "",
          "type": "address"
        }
      ],
      "stateMutability": "view",
      "type": "function"
    },
    {
      "inputs": [],
      "name": "strategyVenus",
      "outputs": [
        {
          "internalType": "contract IYieldStrategy",
          "name": "",
          "type": "address"
        }
      ],
      "stateMutability": "view",
      "type": "function"
    },
    {
      "inputs": [],
      "name": "totalAssets",
      "outputs": [
        {
          "internalType": "uint256",
          "name": "",
          "type": "uint256"
        }
      ],
      "stateMutability": "view",
      "type": "function"
    },
    {
      "inputs": [],
      "name": "totalDepositedToStrat",
      "outputs": [
        {
          "internalType": "uint256",
          "name": "",
          "type": "uint256"
        }
      ],
      "stateMutability": "view",
      "type": "function"
    },
    {
      "inputs": [],
      "name": "totalFromManager",
      "outputs": [
        {
          "internalType": "uint256",
          "name": "",
          "type": "uint256"
        }
      ],
      "stateMutability": "view",
      "type": "function"
    },
    {
      "inputs": [],
      "name": "totalHarvested",
      "outputs": [
        {
          "internalType": "uint256",
          "name": "",
          "type": "uint256"
        }
      ],
      "stateMutability": "view",
      "type": "function"
    },
    {
      "inputs": [],
      "name": "totalRedeemed",
      "outputs": [
        {
          "internalType": "uint256",
          "name": "",
          "type": "uint256"
        }
      ],
      "stateMutability": "view",
      "type": "function"
    },
    {
      "inputs": [],
      "name": "totalWithdrawnFromStrat",
      "outputs": [
        {
          "internalType": "uint256",
          "name": "",
          "type": "uint256"
        }
      ],
      "stateMutability": "view",
      "type": "function"
    },
    {
      "inputs": [
        {
          "internalType": "address",
          "name": "newOwner",
          "type": "address"
        }
      ],
      "name": "transferOwnership",
      "outputs": [],
      "stateMutability": "nonpayable",
      "type": "function"
    },
    {
      "inputs": [
        {
          "internalType": "uint256",
          "name": "",
          "type": "uint256"
        },
        {
          "internalType": "address",
          "name": "",
          "type": "address"
        }
      ],
      "name": "unpaidByUser",
      "outputs": [
        {
          "internalType": "uint256",
          "name": "",
          "type": "uint256"
        }
      ],
      "stateMutability": "view",
      "type": "function"
    },
    {
      "inputs": [],
      "name": "wbtc",
      "outputs": [
        {
          "internalType": "contract IERC20",
          "name": "",
          "type": "address"
        }
      ],
      "stateMutability": "view",
      "type": "function"
    },
    {
      "inputs": [],
      "name": "windowCloseTime",
      "outputs": [
        {
          "internalType": "uint256",
          "name": "",
          "type": "uint256"
        }
      ],
      "stateMutability": "view",
      "type": "function"
    },
    {
      "inputs": [],
      "name": "windowOpen",
      "outputs": [
        {
          "internalType": "bool",
          "name": "",
          "type": "bool"
        }
      ],
      "stateMutability": "view",
      "type": "function"
    },
    {
      "inputs": [],
      "name": "withdrawAllFromStrategy",
      "outputs": [],
      "stateMutability": "nonpayable",
      "type": "function"
    },
    {
      "inputs": [
        {
          "internalType": "uint256",
          "name": "amount",
          "type": "uint256"
        }
      ],
      "name": "withdrawFromStrategy",
      "outputs": [],
      "stateMutability": "nonpayable",
      "type": "function"
    }
  ],
  "bytecode": "0x61016060409080825234620003a75760c081620032008038038091620000268285620003ac565b833981010312620003a7576200003c81620003e6565b906020926200004d848301620003e6565b936200005b828401620003e6565b936200006a60608501620003e6565b9360a06080820151910151956000926001845533156200038f5760018054336001600160a01b03198216811790925587519a6001600160a01b03939092849283167f8be0079c531659141344cd1fd0a4f28419497f9722a3daafe3b4186f6b6457e08980a316998a156200035857508116968715620003265781831615620002f05716958615620002bd576201518088101580620002af575b156200027c579060249392918960805260a05260c05261014095865260e05282610100976301e1338089526101209788528551938480926370a0823160e01b82523060048301525afa9283156200027057819362000236575b5050506002555191612e049384620003fc85396080518481816103b2015281816104c20152818161098b01528181610bf601528181611c5d015281816124a3015281816125c90152612826015260a0518481816105120152818161102a0152818161159c0152818161198101528181612b190152612d00015260c051848181610716015261230b015260e0518481816119010152611bc50152518381816102a50152611c09015251828181611d08015261244801525181818161079e01528181610fd701528181611626015281816119df015261227c0152f35b9091809350813d831162000268575b620002518183620003ac565b81010312620002655750513880806200015c565b80fd5b503d62000245565b508351903d90823e3d90fd5b855162461bcd60e51b815260048101869052600c60248201526b2130b210323ab930ba34b7b760a11b6044820152606490fd5b5062278d0088111562000103565b855162461bcd60e51b815260048101869052600c60248201526b496e76616c6964205742544360a01b6044820152606490fd5b865162461bcd60e51b815260048101879052600f60248201526e24b73b30b634b21036b0b730b3b2b960891b6044820152606490fd5b865162461bcd60e51b815260048101879052600b60248201526a125b9d985b1a590813961360aa1b6044820152606490fd5b62461bcd60e51b815260048101879052601260248201527124b73b30b634b21039ba30b13632b1b7b4b760711b6044820152606490fd5b8551631e4fbdf760e01b815260048101859052602490fd5b600080fd5b601f909101601f19168101906001600160401b03821190821017620003d057604052565b634e487b7160e01b600052604160045260246000fd5b51906001600160a01b0382168203620003a75756fe6040608081526004908136101561001557600080fd5b600091823560e01c80625c33e11461259357806301e1d1141461246b578063059c7708146124305780630937eb5414612411578063182be553146123e857806323dc1142146123cb578063298ef8ca146122f357806329a830a0146122d457806339fbc9d7146122ab5780633cdc53891461226757806341259bc014612172578381634641257d146120395750806348b1933514611f485780634c22ebe314611f295780634c369b3914611ee95780634cf088d914611ec05780634f8cc23d14611ba85780636240b11a14611ad857806366c992e414611ab95780636b12ec5c14611a92578063715018a614611a34578063737ec20f146119b057806389ef723b1461196c5780638b951c561461194d5780638da5cb5b146119245780638fd8fb77146118e95780638ff390991461184257806393a78b1d14611534578063aac5b75d1461151557838163ade109601461143757508063af74102a1461140e578063b00f7baa14611331578063b0d386bc14610f81578063b4423c7614610f2a578063bdf764ee14610f0b578063c583214c14610b3b578063cd3c425514610b12578063d33b0aa71461092c578063d531fb0214610745578063d66ee30d14610701578063db006a7514610451578063df70db9e14610432578063e6039aad14610413578063e92e3410146103e1578063e9cbd8221461039d578063f2fde38b14610312578063f35dad40146102f3578063fa61dff4146102cc578063fc41b72b1461028d5763fc73bc061461024a57600080fd5b34610289578160031936011261028957816020936102666126bb565b9235815260158552209060018060a01b0316600052825280600020549051908152f35b8280fd5b5050346102c857816003193601126102c857602090517f00000000000000000000000000000000000000000000000000000000000000008152f35b5080fd5b5050346102c857816003193601126102c85760209060ff600c5460081c1690519015158152f35b5050346102c857816003193601126102c8576020906005549051908152f35b50346102895760203660031901126102895761032c6126a5565b906103356126d1565b6001600160a01b03918216928315610387575050600154826001600160601b0360a01b821617600155167f8be0079c531659141344cd1fd0a4f28419497f9722a3daafe3b4186f6b6457e0600080a380f35b51631e4fbdf760e01b8152908101849052602490fd5b5050346102c857816003193601126102c857517f00000000000000000000000000000000000000000000000000000000000000006001600160a01b03168152602090f35b509134610410578160031936011261041057506104096020926104026126bb565b9035612c7e565b9051908152f35b80fd5b5050346102c857816003193601126102c857602090600f549051908152f35b5050346102c857816003193601126102c857602090600e549051908152f35b503461028957602091826003193601126106fd578135926104706127a4565b60ff600c5460081c16156106cc57600d54421161069a576104928415156127c7565b670de0b6b3a76400006104a7600e5486612af5565b0490811561066c5782516370a0823160e01b815230818601527f000000000000000000000000000000000000000000000000000000000000000094906001600160a01b03908381602481858b165afa908115610662579085918a9161062c575b50106105f6579087917f0000000000000000000000000000000000000000000000000000000000000000169061053f88303385612c3c565b813b156102895787602484928389519586948593630852cd8d60e31b85528401525af180156105ec576105d4575b50506105ba827ff3a670cd3af7d64b488926880889d08a8585a138ff455227af6737339a1ec262956105a188600f546127fe565b600f556105b0826005546127fe565b6005553390612bfe565b6105c261280b565b82519485528401523392a26001815580f35b6105dd906126fd565b6105e857853861056d565b8580fd5b85513d84823e3d90fd5b5060649184519162461bcd60e51b83528201526011602482015270125b9cdd59999a58da595b9d081554d115607a1b6044820152fd5b809250858092503d831161065b575b610645818361275f565b810103126106565784905138610507565b600080fd5b503d61063b565b86513d8b823e3d90fd5b8360649184519162461bcd60e51b83528201526009602482015268151bdbc81cdb585b1b60ba1b6044820152fd5b905162461bcd60e51b815291820152600e60248201526d15da5b991bddc8195e1c1a5c995960921b6044820152606490fd5b905162461bcd60e51b815291820152600d60248201526c15da5b991bddc818db1bdcd959609a1b6044820152606490fd5b8380fd5b5050346102c857816003193601126102c857517f00000000000000000000000000000000000000000000000000000000000000006001600160a01b03168152602090f35b503461028957602090816003193601126106fd578035906107646126d1565b61076c6127a4565b6011546001600160a01b0390811680156108f75761078b8415156127c7565b85516370a0823160e01b815230848201527f0000000000000000000000000000000000000000000000000000000000000000919086816024818787165afa9081156108ed5789916108c0575b506107e4866012546127fe565b1161087d5784826107fb610806938b9796956128fb565b8360115416906129b9565b6011541690813b1561028957836024849283895195869485936393707a1960e01b85528401525af180156105ec57610869575b50507f9d7073783f3ff97f2c714527e5a46236f97f5c44c31f21a54d20eebe53c1259b9251908152a16001815580f35b610872906126fd565b6106fd578338610839565b865162461bcd60e51b8152808501879052601a60248201527f4e6f7420656e6f75676820756e726573657276656420574254430000000000006044820152606490fd5b90508681813d83116108e6575b6108d7818361275f565b810103126106565751386107d7565b503d6108cd565b88513d8b823e3d90fd5b855162461bcd60e51b8152808401869052600f60248201526e14dd185ada5b99c81b9bdd081cd95d608a1b6044820152606490fd5b503461028957602091826003193601126106fd5781359161094b6126d1565b6109536127a4565b600a546001600160a01b039490851661096d8115156128c1565b6109788515156127c7565b83516370a0823160e01b815230848201527f0000000000000000000000000000000000000000000000000000000000000000929081816024818b88165afa908115610662579087918a91610ae1575b5010610aa8575084826109df6109ea938a96956128fb565b87600a5416906129b9565b84600a541690813b15610289578460248492838751958694859363b6b55f2560e01b85528401525af18015610a9e57610a8a575b5050610a807ff47c2ba90b71ef36b592a780f1d750d3a480494fdc7c9b84bb3f9d8de8a1b40a93610a51846006546127fe565b600655610a5c61280b565b600a54925192166001600160a01b0316825260208201929092529081906040820190565b0390a16001815580f35b610a93906126fd565b6106fd578338610a1e565b83513d84823e3d90fd5b8360649186519162461bcd60e51b83528201526014602482015273496e73756666696369656e742062616c616e636560601b6044820152fd5b809250838092503d8311610b0b575b610afa818361275f565b8101031261065657869051386109c7565b503d610af0565b5050346102c857816003193601126102c857600a5490516001600160a01b039091168152602090f35b509190346102c857806003193601126102c857610b566126a5565b92610b5f6126bb565b610b676126d1565b610b6f6127a4565b6008546001600160a01b03959093908685161580610eff575b15610ece5786169081151580610ec3575b15610e9757866001600160601b0360a01b93838588161760085516866009549682868916176009551694838617908351976374e5ec1160e11b90818a526020998a818581885afa908115610dde57908d92918d91610e7a575b50827f0000000000000000000000000000000000000000000000000000000000000000169283911603610e405786519283528b168517918a818581865afa908115610dde57908d918d91610e23575b501603610de85784516361d027b360e01b808252908a818581885afa908115610dde578c91610dc1575b508c30911603610d855789908387518094819382525afa908115610d7b578a91610d4e575b508a30911603610d0b5750917f7a587acd0fd101cfe7d6d98bad768e91209a7ae91e55c3702570425bf0eae9bc81899a937f652f053fc39779b70b29678135ade972fcb79966fc68fcb77c996b1aa4fd9afb9a9695600a5498891617600a558151908682528a820152a1519416179116178152a16001815580f35b835162461bcd60e51b8152908101889052601760248201527f56656e7573207472656173757279206d69736d617463680000000000000000006044820152606490fd5b610d6e9150893d8b11610d74575b610d66818361275f565b8101906128a2565b38610c90565b503d610d5c565b85513d8c823e3d90fd5b855162461bcd60e51b81528084018b90526016602482015275082c2ecca40e8e4cac2e6eae4f240dad2e6dac2e8c6d60531b6044820152606490fd5b610dd891508b3d8d11610d7457610d66818361275f565b38610c6b565b87513d8e823e3d90fd5b845162461bcd60e51b81528083018a905260156024820152740accadceae640e6e8c2c4d8ca40dad2e6dac2e8c6d605b1b6044820152606490fd5b610e3a91508c8d3d10610d7457610d66818361275f565b38610c41565b865162461bcd60e51b81528085018c90526014602482015273082c2ecca40e6e8c2c4d8ca40dad2e6dac2e8c6d60631b6044820152606490fd5b610e9191508c8d3d10610d7457610d66818361275f565b38610bf2565b5162461bcd60e51b81526020818501526007602482015266125b9d985b1a5960ca1b6044820152606490fd5b508683161515610b99565b815162461bcd60e51b8152602081860152600b60248201526a105b1c9958591e481cd95d60aa1b6044820152606490fd5b50866009541615610b88565b5050346102c857816003193601126102c8576020906006549051908152f35b509034610289576020366003190112610289578060a0938335815260136020522080549260018201549260ff6002840154926003850154940154169381519586526020860152840152606083015215156080820152f35b509034610289576020928360031936011261041057823592610fa16126d1565b610fa96127a4565b831593610fb685156127c7565b83516370a0823160e01b815230838201526001600160a01b039087816024817f000000000000000000000000000000000000000000000000000000000000000086165afa9081156112b7578591611304575b50611015836012546127fe565b116112c1578451634b88b8ad60e11b815295907f0000000000000000000000000000000000000000000000000000000000000000168787858188855af19687156112b7578597611288575b508551630981b24d60e41b81528481018890528881602481855afa90811561125157869161125b575b50865163277166bf60e11b81526001600160a01b038316868201908152602081018a905290928a918491908290819060400103915afa918215611251578692611222575b50818111156111d557906110e091612781565b90670de0b6b3a764000090818402918483041417156111c2579286926111b8838761112f7fb53a159f2f87d553a0c72eb46f31de042a965f641c21e9175ddc452db4845e299660019a99612ad5565b948c888c519161113e83612727565b8783528d818401908a825260138186019388855260608701958a8752608088019960018b5252528d2093518455518d840155516002830155516003820155019051151560ff80198354169116179055611199836012546127fe565b6012558851938493846040919493926060820195825260208201520152565b0390a25551908152f35b634e487b7160e01b855260118452602485fd5b865162461bcd60e51b81528086018a9052602160248201527f4e6f2063697263756c6174696e6720737570706c7920617420736e617073686f6044820152601d60fa1b6064820152608490fd5b9091508881813d831161124a575b61123a818361275f565b81010312610656575190386110cd565b503d611230565b87513d88823e3d90fd5b90508881813d8311611281575b611272818361275f565b81010312610656575138611089565b503d611268565b9096508781813d83116112b0575b6112a0818361275f565b8101031261065657519538611060565b503d611296565b86513d87823e3d90fd5b845162461bcd60e51b8152808401889052601c60248201527f496e73756666696369656e7420756e72657365727665642057425443000000006044820152606490fd5b90508781813d831161132a575b61131b818361275f565b81010312610656575138611008565b503d611311565b508290346102c85760203660031901126102c8578035908115158203610289576113596126d1565b6113616127a4565b6008546001600160a01b03929083169182156113d657507f652f053fc39779b70b29678135ade972fcb79966fc68fcb77c996b1aa4fd9afb926020928692156113cb575b1684600a5492826001600160601b0360a01b851617600a55519216178152a16001815580f35b5080600954166113a5565b606490602087519162461bcd60e51b8352820152601260248201527114dd1c985d1959da595cc81b9bdd081cd95d60721b6044820152fd5b5050346102c857816003193601126102c85760085490516001600160a01b039091168152602090f35b828185346102c857816003193601126102c8576114526126d1565b61145a6127a4565b600a546001600160a01b03936020918516906114778215156128c1565b83518095819363429c145b60e11b83525af191821561150b5784926114d4575b50610a807fd442d8f1594fc5996caed833eb6135a4c223a05bdbed778c0d8415a52eb87fea936114c9846007546127fe565b600755610a5c61280b565b9291506020833d8211611503575b816114ef6020938361275f565b810103126106565791519091610a80611497565b3d91506114e2565b81513d86823e3d90fd5b5050346102c857816003193601126102c857602090600d549051908152f35b503461028957602091826003193601126106fd578135926115536127a4565b838552601381528185209060ff84830154161561180b57825163277166bf60e11b815233858201908152602081018790526001600160a01b0393919083908290819003604001817f000000000000000000000000000000000000000000000000000000000000000088165afa9081156118015788916117d2575b506115e6670de0b6b3a764000091600184015490612af5565b049286885260148352848820336000528352846000205490878952601584528589203360005284528560002054918086116117b6575b50811561178057837f00000000000000000000000000000000000000000000000000000000000000009760248851809481936370a0823160e01b835230908301528b165afa908115610662578991611743575b506116ac967fcc2c61f7a580d16fe921b6bb8f62d9187484658f4be74c39a99636c88a66566f969594939291808311156117385797888093612781565b94898b5260148552868b203360005285528660002055888a5260158452858a20336000528452848660002055816116f3575b50505082519485528401523392a36001815580f35b600261172793016117058382546127fe565b9055601254821161172f5761171c82601254612781565b6012555b3390612bfe565b3885816116de565b89601255611720565b508197888093612781565b959493809392915086813d8311611779575b61175f818361275f565b8101031261065657945193949293919290916116ac61166f565b503d611755565b855162461bcd60e51b8152808801859052601060248201526f4e6f7468696e6720746f20636c61696d60801b6044820152606490fd5b916117c56117cb929387612781565b906127fe565b903861161c565b90508281813d83116117fa575b6117e9818361275f565b8101031261065657516115e66115cd565b503d6117df565b85513d8a823e3d90fd5b8360649184519162461bcd60e51b8352820152601260248201527114db985c1cda1bdd081b9bdd08199bdd5b9960721b6044820152fd5b5090346102895760203660031901126102895761185d6126a5565b6118656126d1565b6001600160a01b03169182156118b55750601180546001600160a01b03191683179055519081527ff520447191196b125f76f7110397fdf32b1b9cefb7dec323bd3b998022ac233890602090a180f35b6020606492519162461bcd60e51b8352820152600f60248201526e496e76616c6964207374616b696e6760881b6044820152fd5b5050346102c857816003193601126102c857602090517f00000000000000000000000000000000000000000000000000000000000000008152f35b5050346102c857816003193601126102c85760015490516001600160a01b039091168152602090f35b5050346102c857816003193601126102c8576020906003549051908152f35b5050346102c857816003193601126102c857517f00000000000000000000000000000000000000000000000000000000000000006001600160a01b03168152602090f35b50346102895760203660031901126102895735906119cc6127a4565b6119d78215156127c7565b611a038230337f0000000000000000000000000000000000000000000000000000000000000000612c3c565b519081527f70643c3965cf5651f0e637bfa8f51f484f21af206691d8ac833d3ab2439f62d760203392a26001815580f35b8334610410578060031936011261041057611a4d6126d1565b600180546001600160a01b031981169091556000906001600160a01b03167f8be0079c531659141344cd1fd0a4f28419497f9722a3daafe3b4186f6b6457e08280a380f35b5050346102c857816003193601126102c85760209060ff60105460a01c1690519015158152f35b5050346102c857816003193601126102c857602090600b549051908152f35b5034610289578260031936011261028957611af16127a4565b600c549060ff8260081c1615611b7a57600d54421115611b49575061ff001916600c55600f5490519081527fdb57bfb806503bdc5f96f060a25aead2076b299c2f2f3d4e36eab8e8336149e890602090a16001815580f35b606490602084519162461bcd60e51b8352820152600b60248201526a139bdd08195e1c1a5c995960aa1b6044820152fd5b606490602084519162461bcd60e51b835282015260086024820152672737ba1037b832b760c11b6044820152fd5b509190346102c857816003193601126102c857611bc36127a4565b7f0000000000000000000000000000000000000000000000000000000000000000804210611e8f57600c549060ff8260081c16611e5d57611c07611c2e9142612781565b7f000000000000000000000000000000000000000000000000000000000000000090612ad5565b9060ff8116611e105760ff1916600117600c555b81516370a0823160e01b8152308582015260209081816024817f00000000000000000000000000000000000000000000000000000000000000006001600160a01b03165afa908115611e06578591611dd9575b508015611da257611ca4612b08565b918215611d685750670de0b6b3a764000080820291820403611d5557611cf07f4eed72380f1937d4512f9aeb2c81818f26c4f1680afe0226a9856c75780a87c0949392610a8092612ad5565b80600e5561010061ff0019600c541617600c55611d2d7f0000000000000000000000000000000000000000000000000000000000000000426127fe565b9384600d5583600b5586600f5551938493846040919493926060820195825260208201520152565b634e487b7160e01b855260118652602485fd5b8660649186519162461bcd60e51b835282015260156024820152744e6f2063697263756c6174696e6720737570706c7960581b6044820152fd5b835162461bcd60e51b815280870183905260116024820152704e6f2055534454206c697175696469747960781b6044820152606490fd5b90508181813d8311611dff575b611df0818361275f565b81010312610656575138611c95565b503d611de6565b84513d87823e3d90fd5b50600b548103611c4257815162461bcd60e51b8152602081860152601860248201527f416c7265616479206f70656e65642074686973207965617200000000000000006044820152606490fd5b825162461bcd60e51b8152602081870152600c60248201526b20b63932b0b23c9037b832b760a11b6044820152606490fd5b815162461bcd60e51b8152602081860152600b60248201526a139bdd081cdd185c9d195960aa1b6044820152606490fd5b5050346102c857816003193601126102c85760115490516001600160a01b039091168152602090f35b503461028957816003193601126102895781602093611f066126bb565b9235815260148552209060018060a01b0316600052825280600020549051908152f35b5050346102c857816003193601126102c8576020906012549051908152f35b509190346102c85760203660031901126102c857823590611f676126d1565b611f6f6127a4565b600a546001600160a01b039490851690611f8a8215156128c1565b611f958415156127c7565b813b156120355783602486928386519586948593632e1a7d4d60e01b85528401525af1801561202b57611ff6575b50610a807fd442d8f1594fc5996caed833eb6135a4c223a05bdbed778c0d8415a52eb87fea93946114c9846007546127fe565b7fd442d8f1594fc5996caed833eb6135a4c223a05bdbed778c0d8415a52eb87fea93612024610a80926126fd565b9350611fc3565b82513d86823e3d90fd5b8480fd5b8084843461216e578260031936011261216e576120546126d1565b61205c6127a4565b600a546001600160a01b03919060209083166120798115156128c1565b82855180978193634641257d60e01b83525af193841561216457859461210f575b50937f121c5042302bae5fc561fbc64368f297ca60a880878e1e3a7f7e9380377260bf84600193602097826120f4575b50600a54865191166001600160a01b03168152602081019190915280604081010390a15551908152f35b6120ff8382546127fe565b905561210961280b565b886120ca565b909193506020813d821161215c575b8161212b6020938361275f565b81010312612035575192907f121c5042302bae5fc561fbc64368f297ca60a880878e1e3a7f7e9380377260bf61209a565b3d915061211e565b83513d87823e3d90fd5b5050fd5b5090346102895760203660031901126102895761218d6126a5565b6121956126d1565b6010549060ff8260a01c1661222f576001600160a01b03169283156121f757506001600160a81b0319168217600160a01b17601055519081527fe125fc1c4fc17681e50eef0705e1f33efe22f55c6fa0dcf19096b5cf2b41f49590602090a180f35b606490602084519162461bcd60e51b83528201526012602482015271496e76616c696420617564697446756e647360701b6044820152fd5b825162461bcd60e51b81526020818601526012602482015271105d591a5d08199d5b991cc81b1bd8dad95960721b6044820152606490fd5b5050346102c857816003193601126102c857517f00000000000000000000000000000000000000000000000000000000000000006001600160a01b03168152602090f35b5050346102c857816003193601126102c85760095490516001600160a01b039091168152602090f35b5050346102c857816003193601126102c8576020906007549051908152f35b509034610289576020366003190112610289578135917f00000000000000000000000000000000000000000000000000000000000000006001600160a01b0316330361239557507fbcdc7071c1beb6dcf2744621e0b29a2f2432ee20812d9ca5e3d5e8f9308d93a3916020916123676127a4565b6123728215156127c7565b61237e826003546127fe565b60035561238961280b565b51908152a16001815580f35b6020606492519162461bcd60e51b8352820152601160248201527027b7363c902732bc3ab6a6b0b730b3b2b960791b6044820152fd5b503461028957826003193601126102895760209250549051908152f35b5050346102c857816003193601126102c85760105490516001600160a01b039091168152602090f35b5050346102c857816003193601126102c8576020906002549051908152f35b5050346102c857816003193601126102c857602090517f00000000000000000000000000000000000000000000000000000000000000008152f35b50913461041057806003193601126104105781516370a0823160e01b815230848201526020939091906001600160a01b0385846024817f000000000000000000000000000000000000000000000000000000000000000085165afa938415612589579086918495612558575b50600a5416806124ef575050509061040991906127fe565b85516278744560e21b815292839182905afa91821561254d57809261251b575b506104099290506127fe565b9091508482813d8311612546575b612533818361275f565b810103126104105750516104093861250f565b503d612529565b8451903d90823e3d90fd5b8281939296503d8311612582575b612570818361275f565b810103126102895785905193386124d7565b503d612566565b85513d85823e3d90fd5b5090346102895782600319360112610289576125ad6127a4565b80516370a0823160e01b815230928101929092526020826024817f00000000000000000000000000000000000000000000000000000000000000006001600160a01b03165afa91821561269b578392612668575b506002548083111561265057507fbcdc7071c1beb6dcf2744621e0b29a2f2432ee20812d9ca5e3d5e8f9308d93a39160209161263f60025483612781565b9160025551908152a15b6001815580f35b9050811061265f575b50612649565b60025538612659565b9091506020813d8211612693575b816126836020938361275f565b8101031261028957519038612601565b3d9150612676565b81513d85823e3d90fd5b600435906001600160a01b038216820361065657565b602435906001600160a01b038216820361065657565b6001546001600160a01b031633036126e557565b60405163118cdaa760e01b8152336004820152602490fd5b67ffffffffffffffff811161271157604052565b634e487b7160e01b600052604160045260246000fd5b60a0810190811067ffffffffffffffff82111761271157604052565b6080810190811067ffffffffffffffff82111761271157604052565b90601f8019910116810190811067ffffffffffffffff82111761271157604052565b9190820391821161278e57565b634e487b7160e01b600052601160045260246000fd5b6002600054146127b5576002600055565b604051633ee5aeb560e01b8152600490fd5b156127ce57565b60405162461bcd60e51b81526020600482015260086024820152670416d6f756e743d360c41b6044820152606490fd5b9190820180921161278e57565b6040516370a0823160e01b81523060048201526020816024817f00000000000000000000000000000000000000000000000000000000000000006001600160a01b03165afa90811561289657600091612865575b50600255565b906020823d821161288e575b8161287e6020938361275f565b810103126104105750513861285f565b3d9150612871565b6040513d6000823e3d90fd5b9081602091031261065657516001600160a01b03811681036106565790565b156128c857565b60405162461bcd60e51b815260206004820152600b60248201526a4e6f20737472617465677960a81b6044820152606490fd5b60405190602082019263095ea7b360e01b80855260018060a01b03809216918260248601526020600080978160448901526044885261293988612743565b87519082885af1903d87519083612998575b5050501561295b575b5050505050565b61298e9461298992604051926020840152602483015260448201526044815261298381612743565b82612a79565b612a79565b3880808080612954565b919250906129af575083163b15155b38808061294b565b60019150146129a7565b60405163095ea7b360e01b60208083018281526001600160a01b038616602485015260448085019790975295835290949193916000906129fa60648761275f565b85519082865af16000513d82612a54575b505015612a19575b50505050565b612a4b936129899160405191602083015260018060a01b03166024820152600060448201526044815261298381612743565b38808080612a13565b909150612a7157506001600160a01b0382163b15155b3880612a0b565b600114612a6a565b906000602091828151910182855af115612896576000513d612acc57506001600160a01b0381163b155b612aaa5750565b604051635274afe760e01b81526001600160a01b039091166004820152602490fd5b60011415612aa3565b8115612adf570490565b634e487b7160e01b600052601260045260246000fd5b8181029291811591840414171561278e57565b6040516318160ddd60e01b815260207f00000000000000000000000000000000000000000000000000000000000000006001600160a01b03168183600481845afa92831561289657600093612bcf575b509080602492604051938480926370a0823160e01b82528060048301525afa90811561289657600091612ba3575b508091508211612b97575050600090565b612ba091612781565b90565b82813d8311612bc8575b612bb7818361275f565b810103126104105750518038612b86565b503d612bad565b90928282813d8311612bf7575b612be6818361275f565b810103126104105750519181612b58565b503d612bdc565b60405163a9059cbb60e01b60208201526001600160a01b03929092166024830152604480830193909352918152612c3a9161298960648361275f565b565b6040516323b872dd60e01b60208201526001600160a01b039283166024820152929091166044830152606480830193909352918152612c3a9161298982612727565b60009181835260209260138452604091828220948351612c9d81612727565b8654815260ff6004600189015498848401998a5260028101548885015260038101546060850152015416159060808215910152612dc557835163277166bf60e11b81526001600160a01b03838116600483015260248201879052969082816044817f00000000000000000000000000000000000000000000000000000000000000008c165afa9081156112b7578591612d90575b50612d4790670de0b6b3a7640000925190612af5565b049585845260148252848420921691828452815283832054948352601581528383209183525220549181811115612d8b57612ba09291612d8691612781565b6127fe565b505090565b90508281813d8311612dbe575b612da7818361275f565b810103126120355751670de0b6b3a7640000612d31565b503d612d9d565b5050925050509056fea2646970667358221220fd557737d9d074e2496801f10e19a0e78ec5a1ba018258dfe78084ee6dffc6af64736f6c63430008140033",
  "linkReferences": {},
  "deployedLinkReferences": {}
}