{"abi":[{"type":"constructor","inputs":[{"name":"_founderAddress","type":"address","internalType":"address"},{"name":"_partnerAddress","type":"address","internalType":"address"}],"stateMutability":"nonpayable"},{"type":"function","name":"allowance","inputs":[{"name":"owner","type":"address","internalType":"address"},{"name":"spender","type":"address","internalType":"address"}],"outputs":[{"name":"","type":"uint256","internalType":"uint256"}],"stateMutability":"view"},{"type":"function","name":"approve","inputs":[{"name":"spender","type":"address","internalType":"address"},{"name":"value","type":"uint256","internalType":"uint256"}],"outputs":[{"name":"","type":"bool","internalType":"bool"}],"stateMutability":"nonpayable"},{"type":"function","name":"balanceOf","inputs":[{"name":"account","type":"address","internalType":"address"}],"outputs":[{"name":"","type":"uint256","internalType":"uint256"}],"stateMutability":"view"},{"type":"function","name":"balanceOfAt","inputs":[{"name":"account","type":"address","internalType":"address"},{"name":"snapshotId","type":"uint256","internalType":"uint256"}],"outputs":[{"name":"","type":"uint256","internalType":"uint256"}],"stateMutability":"view"},{"type":"function","name":"burn","inputs":[{"name":"amount","type":"uint256","internalType":"uint256"}],"outputs":[],"stateMutability":"nonpayable"},{"type":"function","name":"burnUndistributed","inputs":[{"name":"amount","type":"uint256","internalType":"uint256"}],"outputs":[],"stateMutability":"nonpayable"},{"type":"function","name":"decimals","inputs":[],"outputs":[{"name":"","type":"uint8","internalType":"uint8"}],"stateMutability":"view"},{"type":"function","name":"deploymentTime","inputs":[],"outputs":[{"name":"","type":"uint256","internalType":"uint256"}],"stateMutability":"view"},{"type":"function","name":"distributeReward","inputs":[{"name":"recipient","type":"address","internalType":"address"},{"name":"amount","type":"uint256","internalType":"uint256"}],"outputs":[],"stateMutability":"nonpayable"},{"type":"function","name":"founderAddress","inputs":[],"outputs":[{"name":"","type":"address","internalType":"address"}],"stateMutability":"view"},{"type":"function","name":"founderWithdraw","inputs":[],"outputs":[],"stateMutability":"nonpayable"},{"type":"function","name":"founderWithdrawn","inputs":[],"outputs":[{"name":"","type":"uint256","internalType":"uint256"}],"stateMutability":"view"},{"type":"function","name":"getAvailableRewards","inputs":[],"outputs":[{"name":"available","type":"uint256","internalType":"uint256"}],"stateMutability":"view"},{"type":"function","name":"getFounderAvailable","inputs":[],"outputs":[{"name":"available","type":"uint256","internalType":"uint256"}],"stateMutability":"view"},{"type":"function","name":"getPartnerAvailable","inputs":[],"outputs":[{"name":"available","type":"uint256","internalType":"uint256"}],"stateMutability":"view"},{"type":"function","name":"lastSnapshotId","inputs":[],"outputs":[{"name":"","type":"uint256","internalType":"uint256"}],"stateMutability":"view"},{"type":"function","name":"name","inputs":[],"outputs":[{"name":"","type":"string","internalType":"string"}],"stateMutability":"view"},{"type":"function","name":"nexumManager","inputs":[],"outputs":[{"name":"","type":"address","internalType":"address"}],"stateMutability":"view"},{"type":"function","name":"partnerAddress","inputs":[],"outputs":[{"name":"","type":"address","internalType":"address"}],"stateMutability":"view"},{"type":"function","name":"partnerWithdraw","inputs":[],"outputs":[],"stateMutability":"nonpayable"},{"type":"function","name":"partnerWithdrawn","inputs":[],"outputs":[{"name":"","type":"uint256","internalType":"uint256"}],"stateMutability":"view"},{"type":"function","name":"rewardsDistributed","inputs":[],"outputs":[{"name":"","type":"uint256","internalType":"uint256"}],"stateMutability":"view"},{"type":"function","name":"setNexumManager","inputs":[{"name":"_nexumManager","type":"address","internalType":"address"}],"outputs":[],"stateMutability":"nonpayable"},{"type":"function","name":"setTreasuryBTC","inputs":[{"name":"_treasuryBTC","type":"address","internalType":"address"}],"outputs":[],"stateMutability":"nonpayable"},{"type":"function","name":"snapshot","inputs":[],"outputs":[{"name":"","type":"uint256","internalType":"uint256"}],"stateMutability":"nonpayable"},{"type":"function","name":"snapshotBlock","inputs":[{"name":"","type":"uint256","internalType":"uint256"}],"outputs":[{"name":"","type":"uint256","internalType":"uint256"}],"stateMutability":"view"},{"type":"function","name":"symbol","inputs":[],"outputs":[{"name":"","type":"string","internalType":"string"}],"stateMutability":"view"},{"type":"function","name":"totalSupply","inputs":[],"outputs":[{"name":"","type":"uint256","internalType":"uint256"}],"stateMutability":"view"},{"type":"function","name":"totalSupplyAt","inputs":[{"name":"snapshotId","type":"uint256","internalType":"uint256"}],"outputs":[{"name":"","type":"uint256","internalType":"uint256"}],"stateMutability":"view"},{"type":"function","name":"transfer","inputs":[{"name":"to","type":"address","internalType":"address"},{"name":"value","type":"uint256","internalType":"uint256"}],"outputs":[{"name":"","type":"bool","internalType":"bool"}],"stateMutability":"nonpayable"},{"type":"function","name":"transferFrom","inputs":[{"name":"from","type":"address","internalType":"address"},{"name":"to","type":"address","internalType":"address"},{"name":"value","type":"uint256","internalType":"uint256"}],"outputs":[{"name":"","type":"bool","internalType":"bool"}],"stateMutability":"nonpayable"},{"type":"function","name":"treasuryBTC","inputs":[],"outputs":[{"name":"","type":"address","internalType":"address"}],"stateMutability":"view"},{"type":"function","name":"treasuryBTCSet","inputs":[],"outputs":[{"name":"","type":"bool","internalType":"bool"}],"stateMutability":"view"},{"type":"event","name":"Approval","inputs":[{"name":"owner","type":"address","indexed":true,"internalType":"address"},{"name":"spender","type":"address","indexed":true,"internalType":"address"},{"name":"value","type":"uint256","indexed":false,"internalType":"uint256"}],"anonymous":false},{"type":"event","name":"RewardDistributed","inputs":[{"name":"recipient","type":"address","indexed":true,"internalType":"address"},{"name":"amount","type":"uint256","indexed":false,"internalType":"uint256"}],"anonymous":false},{"type":"event","name":"SnapshotCreated","inputs":[{"name":"snapshotId","type":"uint256","indexed":false,"internalType":"uint256"}],"anonymous":false},{"type":"event","name":"TokensBurned","inputs":[{"name":"amount","type":"uint256","indexed":false,"internalType":"uint256"}],"anonymous":false},{"type":"event","name":"Transfer","inputs":[{"name":"from","type":"address","indexed":true,"internalType":"address"},{"name":"to","type":"address","indexed":true,"internalType":"address"},{"name":"value","type":"uint256","indexed":false,"internalType":"uint256"}],"anonymous":false},{"type":"event","name":"TreasuryBTCSet","inputs":[{"name":"treasury","type":"address","indexed":true,"internalType":"address"}],"anonymous":false},{"type":"event","name":"VestedTokensWithdrawn","inputs":[{"name":"beneficiary","type":"address","indexed":true,"internalType":"address"},{"name":"amount","type":"uint256","indexed":false,"internalType":"uint256"}],"anonymous":false},{"type":"error","name":"CheckpointUnorderedInsertion","inputs":[]},{"type":"error","name":"ERC20InsufficientAllowance","inputs":[{"name":"spender","type":"address","internalType":"address"},{"name":"allowance","type":"uint256","internalType":"uint256"},{"name":"needed","type":"uint256","internalType":"uint256"}]},{"type":"error","name":"ERC20InsufficientBalance","inputs":[{"name":"sender","type":"address","internalType":"address"},{"name":"balance","type":"uint256","internalType":"uint256"},{"name":"needed","type":"uint256","internalType":"uint256"}]},{"type":"error","name":"ERC20InvalidApprover","inputs":[{"name":"approver","type":"address","internalType":"address"}]},{"type":"error","name":"ERC20InvalidReceiver","inputs":[{"name":"receiver","type":"address","internalType":"address"}]},{"type":"error","name":"ERC20InvalidSender","inputs":[{"name":"sender","type":"address","internalType":"address"}]},{"type":"error","name":"ERC20InvalidSpender","inputs":[{"name":"spender","type":"address","internalType":"address"}]}],"bytecode":{"object":"0x60e06040523462000227576200230860408138039182620000208162000262565b9384928339810103126200022757620000398162000288565b62000048602080930162000288565b90620000536200029d565b926b2722ac20a627902a37b5b2b760a11b8185015262000072620002ae565b6213961360ea1b82820152845190916001600160401b0382116200022157620000a882620000a26003546200033d565b6200037a565b80601f83116001146200018c57508190620000e394959660009262000180575b50508160011b916000199060031b1c1916176003556200042c565b620001086001600160a01b03620000fe8382161515620002bf565b83161515620002fe565b60805260a0524260c0526200011d3062000583565b6200012762000563565b62000132306200051f565b604051611a01908162000907823960805181818161072901528181610a850152610b5c015260a0518181816108720152610d99015260c05181818161103e01528181611308015261137b0152f35b015190503880620000c8565b6003600052601f198316969091907fc2575a0e9e593c00f959f8c92f12db2869c3395a3b0502d05e2516446f71f85b926000905b8982106200020857505090839291600194620000e397989910620001ee575b505050811b016003556200042c565b015160001960f88460031b161c19169055388080620001df565b80600185968294968601518155019501930190620001c0565b6200022c565b600080fd5b634e487b7160e01b600052604160045260246000fd5b60408051919082016001600160401b038111838210176200022157604052565b6040519190601f01601f191682016001600160401b038111838210176200022157604052565b51906001600160a01b03821682036200022757565b620002a762000242565b90600c8252565b620002b862000242565b9060038252565b15620002c757565b60405162461bcd60e51b815260206004820152600f60248201526e24b73b30b634b2103337bab73232b960891b6044820152606490fd5b156200030657565b60405162461bcd60e51b815260206004820152600f60248201526e24b73b30b634b2103830b93a3732b960891b6044820152606490fd5b90600182811c921680156200036f575b60208310146200035957565b634e487b7160e01b600052602260045260246000fd5b91607f16916200034d565b601f811162000387575050565b6000906003825260208220906020601f850160051c83019410620003c8575b601f0160051c01915b828110620003bc57505050565b818155600101620003af565b9092508290620003a6565b601f8111620003e0575050565b6000906004825260208220906020601f850160051c8301941062000421575b601f0160051c01915b8281106200041557505050565b81815560010162000408565b9092508290620003ff565b80519091906001600160401b03811162000221576200045881620004526004546200033d565b620003d3565b602080601f83116001146200049757508192936000926200048b575b50508160011b916000199060031b1c191617600455565b01519050388062000474565b6004600052601f198316949091907f8a35acfbc15ff81a39ae7d344fd709f28e8600b4aa8c65c6b64bfe7fe36bd19b926000905b87821062000506575050836001959610620004ec575b505050811b01600455565b015160001960f88460031b161c19169055388080620004e1565b80600185968294968601518155019501930190620004cb565b6001600160a01b031660009081526020818152604080832054600d9092529091206200055f916001600160d01b0316904365ffffffffffff169062000839565b5050565b6002546200055f906001600160d01b03164365ffffffffffff166200072c565b6001600160a01b0381169081156200060e57600254916a52b7d2dcc80cd2e40000009283810180911162000608577fddf252ad1be2c89b69c2b068fc378daa952ba7f163c4a11628f55a4df523b3ef6020620005fc9560009360025584845283825260408420818154019055604051908152a36200051f565b6200060662000563565b565b62000627565b60405163ec442f0560e01b815260006004820152602490fd5b634e487b7160e01b600052601160045260246000fd5b600c54906801000000000000000082101562000221576001820180600c55821015620006b057600c60005280516020919091015160301b65ffffffffffff191665ffffffffffff91909116177fdf6966c971051c3d54ec59162606531493a51404a002842f56009d7e5cf4a8c790910155565b634e487b7160e01b600052603260045260246000fd5b90815468010000000000000000811015620002215760018101808455811015620006b05760009283526020928390208251929093015160301b65ffffffffffff191665ffffffffffff9290921691909117910155565b6000198101919082116200060857565b600c5491929180156200080a576200074862000772916200071c565b600c6000527fdf6966c971051c3d54ec59162606531493a51404a002842f56009d7e5cf4a8c70190565b9081549165ffffffffffff90818416918316808311620007f857869203620007ba57620007b392509065ffffffffffff82549181199060301b169116179055565b60301c9190565b5050620007f290620007dd620007cf62000242565b65ffffffffffff9092168252565b6001600160d01b03851660208201526200063d565b620007b3565b604051632520601d60e01b8152600490fd5b5062000833906200081e620007cf62000242565b6001600160d01b03841660208201526200063d565b60009190565b80549293928015620008dc576200085462000861916200071c565b8260005260206000200190565b9182549265ffffffffffff91828516928116808411620007f857879303620008a35750620007b392509065ffffffffffff82549181199060301b169116179055565b915050620007f291620008c7620008b962000242565b65ffffffffffff9093168352565b6001600160d01b0386166020830152620006c6565b50906200083391620008f1620008b962000242565b6001600160d01b0385166020830152620006c656fe6080604052600436101561001257600080fd5b60003560e01c806306fdde0314610227578063095ea7b314610222578063120be9551461021d57806314c304fe1461021857806318160ddd146102135780631ec8bb8c1461020e57806323b872dd14610209578063313ce567146102045780633e24fb98146101ff57806342966c68146101fa57806346bb2833146101f55780634ee2cd7e146101f0578063576168fc146101eb57806357d020cf146101e65780636ec92ef5146101e157806370a08231146101dc57806376bb672c146101d7578063837afbc0146101d257806384f85951146101cd57806389384b07146101c8578063925d7c44146101c357806395d89b41146101be5780639711715a146101b9578063971362c9146101b4578063981b24d0146101af5780639c1454d4146101aa578063a9059cbb146101a5578063d66ee30d146101a0578063dd62ed3e1461019b578063eb348f8314610196578063ecda10f514610191578063f6f3f5821461018c5763fc9c99ac1461018757600080fd5b61107c565b611061565b611026565b610ffd565b610fa5565b610f7c565b610f4b565b610f2d565b610e50565b610d86565b610cca565b610c07565b610b34565b610b16565b610a72565b610a54565b61096b565b610931565b61090e565b6108a1565b61085c565b610758565b610713565b6106be565b6106a0565b610684565b6105d7565b6104ec565b6104ce565b6104a2565b61047c565b6103b2565b610275565b6020808252825181830181905290939260005b82811061026157505060409293506000838284010152601f8019910116010190565b81810186015184820160400152850161023f565b346103815760008060031936011261037e5760405190806003549060019180831c92808216928315610374575b602092838610851461036057858852602088019490811561033f57506001146102e6575b6102e2876102d681890382611479565b6040519182918261022c565b0390f35b600360005294509192917fc2575a0e9e593c00f959f8c92f12db2869c3395a3b0502d05e2516446f71f85b5b83861061032e57505050910190506102d6826102e238806102c6565b805485870152948201948101610312565b60ff191685525050505090151560051b0190506102d6826102e238806102c6565b634e487b7160e01b82526022600452602482fd5b93607f16936102a2565b80fd5b600080fd5b600435906001600160a01b038216820361038157565b602435906001600160a01b038216820361038157565b34610381576040366003190112610381576103cb610386565b6024353315610463576001600160a01b03821691821561044a573360009081526001602052604090208291610412915b9060018060a01b0316600052602052604060002090565b556040519081527f8c5be1e5ebec7d5bd14f71427d1e84f3dd0314c0f7b2291e5b200ac8c7c3b92560203392a3602060405160018152f35b604051634a1406b160e11b815260006004820152602490fd5b60405163e602df0560e01b815260006004820152602490fd5b3461038157600036600319011261038157602060ff60065460a01c166040519015158152f35b3461038157602036600319011261038157600435600052600b6020526020604060002054604051908152f35b34610381576000366003190112610381576020600254604051908152f35b3461038157604036600319011261038157610505610386565b60243560018060a01b0361051e81600554163314611161565b821691821561059e5781610589816105999361055c7fe34918ff1c7084970068b53fd71ad6d8b04e9f15d3886cbf006443e6cdc52ea69615156111e0565b61056f8261056861129a565b1015611217565b61058361057e8360095461127e565b600955565b306114a0565b6040519081529081906020820190565b0390a2005b60405162461bcd60e51b8152602060048201526011602482015270125b9d985b1a59081c9958da5c1a595b9d607a1b6044820152606490fd5b34610381576060366003190112610381576105f0610386565b6105f861039c565b6001600160a01b03821660009081526001602090815260408083203384529091529020604435919054926000198410610642575b61063693506114a0565b60405160018152602090f35b82841061065e5761065983610636950333836116ee565b61062c565b604051637dc7a0d960e11b81523360048201526024810185905260448101849052606490fd5b3461038157600036600319011261038157602060405160128152f35b34610381576000366003190112610381576020600754604051908152f35b34610381576020366003190112610381577f6ef4855b666dcc7884561072e4358b28dfe01feb1b7f4dcebc00e62d50394ac760206004356107008115156111e0565b61070a813361160f565b604051908152a1005b34610381576000366003190112610381576040517f00000000000000000000000000000000000000000000000000000000000000006001600160a01b03168152602090f35b3461038157604036600319011261038157610771610386565b60006024358152602091600b8352604082205490610790821515611422565b6001600160a01b03168252600d835260408220805492938493919265ffffffffffff908116905b838710610811576102e2868686806107e65750505b6040516001600160d01b0390911681529081906020820190565b61080c9250906107f86108059261128b565b9060005260206000200190565b5460301c90565b6107cc565b9091928087169080881860011c820180921161085757858752838383878a20015416116000146108455750925b91906107b7565b93965061085190611270565b9561083e565b61125a565b34610381576000366003190112610381576040517f00000000000000000000000000000000000000000000000000000000000000006001600160a01b03168152602090f35b34610381576020366003190112610381577f6ef4855b666dcc7884561072e4358b28dfe01feb1b7f4dcebc00e62d50394ac760206004356108ed60018060a01b03600554163314611161565b6108f88115156111e0565b6109048161056861129a565b61070a813061160f565b34610381576000366003190112610381576020610929611306565b604051908152f35b34610381576020366003190112610381576001600160a01b03610952610386565b1660005260006020526020604060002054604051908152f35b3461038157602036600319011261038157610984610386565b6005546001600160a01b039061099d9082163314611161565b60ff60065460a01c16610a18576109de908216916109bc8315156111a1565b60018060a01b03166bffffffffffffffffffffffff60a01b6006541617600655565b6006805460ff60a01b1916600160a01b1790557fb0521be1f579f114f3e61365fe611d9f34a6e6f2f30cc4a568dc5d5145e996a8600080a2005b60405162461bcd60e51b8152602060048201526014602482015273151c99585cdd5c9e48185b1c9958591e481cd95d60621b6044820152606490fd5b34610381576000366003190112610381576020600a54604051908152f35b34610381576000366003190112610381577f00000000000000000000000000000000000000000000000000000000000000006001600160a01b03811690610aba338314611097565b610ac2611306565b610acd8115156113ea565b6007549080820180921161085757610b0d817f3274398530b4fdab6be36c4e94e06a398b1cd05f753f49093441a08a89bde4df94602094600755306114a0565b604051908152a2005b34610381576000366003190112610381576020600854604051908152f35b3461038157602036600319011261038157610b4d610386565b6001600160a01b0390610b83337f0000000000000000000000000000000000000000000000000000000000000000841614611097565b8160055416610bcc57610b9c610bca92821615156110d2565b610ba8813b1515611115565b60018060a01b03166bffffffffffffffffffffffff60a01b6005541617600555565b005b60405162461bcd60e51b815260206004820152601360248201527213585b9859d95c88185b1c9958591e481cd95d606a1b6044820152606490fd5b346103815760008060031936011261037e5760405190806004549060019180831c92808216928315610cc0575b602092838610851461036057858852602088019490811561033f5750600114610c67576102e2876102d681890382611479565b600460005294509192917f8a35acfbc15ff81a39ae7d344fd709f28e8600b4aa8c65c6b64bfe7fe36bd19b5b838610610caf57505050910190506102d6826102e238806102c6565b805485870152948201948101610c93565b93607f1693610c34565b34610381576000366003190112610381576006546001600160a01b03163303610d4e57600a54600181018091116108575780600a55600052600b602052436040600020556102e2600a547fb3f0c2b18fd39e8cee5f554c26a84565b651237746f9b33337e40d5abab734006020604051838152a16040519081529081906020820190565b60405162461bcd60e51b815260206004820152601060248201526f4f6e6c7920547265617375727942544360801b6044820152606490fd5b34610381576000366003190112610381577f00000000000000000000000000000000000000000000000000000000000000006001600160a01b0381169033829003610e1c576105997f3274398530b4fdab6be36c4e94e06a398b1cd05f753f49093441a08a89bde4df91610589610dfb611379565b8092610e088215156113ea565b610583610e178360085461127e565b600855565b60405162461bcd60e51b815260206004820152600c60248201526b27b7363c903830b93a3732b960a11b6044820152606490fd5b346103815760203660031901126103815760006004358152600b602052604081205490610e7e821515611422565b65ffffffffffff809216600c908154938394915b828610610edd5750602094505080610eb95750505b6040516001600160d01b039091168152f35b610ec29061128b565b91526000805160206119ac833981519152015460301c610ea7565b90918086169080871860011c8201809211610857578486528284836000805160206119ac83398151915201541611600014610f1b5750915b90610e92565b929550610f2790611270565b94610f15565b34610381576000366003190112610381576020600954604051908152f35b3461038157604036600319011261038157610f71610f67610386565b60243590336114a0565b602060405160018152f35b34610381576000366003190112610381576005546040516001600160a01b039091168152602090f35b34610381576040366003190112610381576020610ff4610fc3610386565b610fcb61039c565b6001600160a01b0391821660009081526001855260408082209290931681526020919091522090565b54604051908152f35b34610381576000366003190112610381576006546040516001600160a01b039091168152602090f35b346103815760003660031901126103815760206040517f00000000000000000000000000000000000000000000000000000000000000008152f35b34610381576000366003190112610381576020610929611379565b3461038157600036600319011261038157602061092961129a565b1561109e57565b60405162461bcd60e51b815260206004820152600c60248201526b27b7363c903337bab73232b960a11b6044820152606490fd5b156110d957565b60405162461bcd60e51b815260206004820152601460248201527324b73b30b634b2103732bc3ab6a6b0b730b3b2b960611b6044820152606490fd5b1561111c57565b60405162461bcd60e51b815260206004820152601d60248201527f4e6578756d4d616e61676572206d75737420626520636f6e74726163740000006044820152606490fd5b1561116857565b60405162461bcd60e51b815260206004820152601160248201527027b7363c902732bc3ab6a6b0b730b3b2b960791b6044820152606490fd5b156111a857565b60405162461bcd60e51b815260206004820152601060248201526f496e76616c696420747265617375727960801b6044820152606490fd5b156111e757565b60405162461bcd60e51b81526020600482015260086024820152670416d6f756e743d360c41b6044820152606490fd5b1561121e57565b60405162461bcd60e51b8152602060048201526014602482015273496e73756666696369656e74207265776172647360601b6044820152606490fd5b634e487b7160e01b600052601160045260246000fd5b906001820180921161085757565b9190820180921161085757565b60001981019190821161085757565b3060005260006020526040600020546007546a027b46536c66c8e30000009081039081116108575760085469d3c21bcecceda1000000908103908111610857578101809111610857576112ec81611270565b8210156112fa575050600090565b81039081116108575790565b7f00000000000000000000000000000000000000000000000000000000000000004203428111610857576303c267009081811061135b5750506a027b46536c66c8e30000005b60075481039081116108575790565b6a027b46536c66c8e30000009080820291820403610857570461134c565b7f00000000000000000000000000000000000000000000000000000000000000004203428111610857576301e13380908181106113cd57505069d3c21bcecceda10000005b60085481039081116108575790565b69d3c21bcecceda1000000908082029182040361085757046113be565b156113f157565b60405162461bcd60e51b81526020600482015260096024820152684e6f20746f6b656e7360b81b6044820152606490fd5b1561142957565b60405162461bcd60e51b815260206004820152601260248201527114db985c1cda1bdd081b9bdd08199bdd5b9960721b6044820152606490fd5b634e487b7160e01b600052604160045260246000fd5b90601f8019910116810190811067ffffffffffffffff82111761149b57604052565b611463565b9192916001600160a01b038082169081156115b457831690811561159b576001600160a01b0383166000908152602081905260409020549580871061156b57907fddf252ad1be2c89b69c2b068fc378daa952ba7f163c4a11628f55a4df523b3ef61155c83611564969594611569999a0361152d8760018060a01b03166000526000602052604060002090565b556001600160a01b03881660009081526020819052604090208054820190556040519081529081906020820190565b0390a36115cd565b6115cd565b565b60405163391434e360e21b81526001600160a01b0385166004820152602481018890526044810191909152606490fd5b60405163ec442f0560e01b815260006004820152602490fd5b604051634b637e8f60e11b815260006004820152602490fd5b6001600160a01b031660009081526020818152604080832054600d90925290912061160b916001600160d01b0316904365ffffffffffff16906118ef565b5050565b906001600160a01b0382169081156115b4576001600160a01b0383166000908152602081905260409020548181106116be57917fddf252ad1be2c89b69c2b068fc378daa952ba7f163c4a11628f55a4df523b3ef6020836000946116a097960361168b8760018060a01b03166000526000602052604060002090565b558060025403600255604051908152a36115cd565b60025461160b906001600160d01b03164365ffffffffffff16611806565b60405163391434e360e21b81526001600160a01b0385166004820152602481019190915260448101829052606490fd5b906001600160a01b03808316156104635781161561044a576103fb6117259260018060a01b03166000526001602052604060002090565b55565b604051906040820182811067ffffffffffffffff82111761149b57604052565b600c5490600160401b82101561149b576001820180600c558210156117a157600c600052805160209091015160301b65ffffffffffff191665ffffffffffff91909116176000805160206119ac83398151915290910155565b634e487b7160e01b600052603260045260246000fd5b908154600160401b81101561149b57600181018084558110156117a15760009283526020928390208251929093015160301b65ffffffffffff191665ffffffffffff9290921691909117910155565b600c5491929180156118c55761181e6118369161128b565b600c6000526000805160206119ac8339815191520190565b9081549165ffffffffffff908184169183168083116118b35786920361187b5761187492509065ffffffffffff82549181199060301b169116179055565b60301c9190565b50506118ae9061189a61188c611728565b65ffffffffffff9092168252565b6001600160d01b0385166020820152611748565b611874565b604051632520601d60e01b8152600490fd5b506118e9906118d561188c611728565b6001600160d01b0384166020820152611748565b60009190565b80549293928015611986576119066119139161128b565b8260005260206000200190565b9182549265ffffffffffff918285169281168084116118b357879303611952575061187492509065ffffffffffff82549181199060301b169116179055565b9150506118ae91611972611964611728565b65ffffffffffff9093168352565b6001600160d01b03861660208301526117b7565b50906118e991611997611964611728565b6001600160d01b03851660208301526117b756fedf6966c971051c3d54ec59162606531493a51404a002842f56009d7e5cf4a8c7a2646970667358221220c6afed922876c0358a39f3f9ac5c32143eca4e809262106e53015de8ac3018b464736f6c63430008140033","linkReferences":{}},"methodIdentifiers":{"allowance(address,address)":"dd62ed3e","approve(address,uint256)":"095ea7b3","balanceOf(address)":"70a08231","balanceOfAt(address,uint256)":"4ee2cd7e","burn(uint256)":"42966c68","burnUndistributed(uint256)":"57d020cf","decimals()":"313ce567","deploymentTime()":"ecda10f5","distributeReward(address,uint256)":"1ec8bb8c","founderAddress()":"46bb2833","founderWithdraw()":"84f85951","founderWithdrawn()":"3e24fb98","getAvailableRewards()":"fc9c99ac","getFounderAvailable()":"6ec92ef5","getPartnerAvailable()":"f6f3f582","lastSnapshotId()":"837afbc0","name()":"06fdde03","nexumManager()":"d66ee30d","partnerAddress()":"576168fc","partnerWithdraw()":"971362c9","partnerWithdrawn()":"89384b07","rewardsDistributed()":"9c1454d4","setNexumManager(address)":"925d7c44","setTreasuryBTC(address)":"76bb672c","snapshot()":"9711715a","snapshotBlock(uint256)":"14c304fe","symbol()":"95d89b41","totalSupply()":"18160ddd","totalSupplyAt(uint256)":"981b24d0","transfer(address,uint256)":"a9059cbb","transferFrom(address,address,uint256)":"23b872dd","treasuryBTC()":"eb348f83","treasuryBTCSet()":"120be955"},"id":5}